{
  "abi": [
    {
      "inputs": [
        {
          "internalType": "uint256",
          "name": "timestamp",
          "type": "uint256"
        }
      ],
      "name": "getDay",
      "outputs": [
        {
          "internalType": "uint8",
          "name": "",
          "type": "uint8"
        }
      ],
      "stateMutability": "pure",
      "type": "function"
    },
    {
      "inputs": [
        {
          "internalType": "uint8",
          "name": "month",
          "type": "uint8"
        },
        {
          "internalType": "uint16",
          "name": "year",
          "type": "uint16"
        }
      ],
      "name": "getDaysInMonth",
      "outputs": [
        {
          "internalType": "uint8",
          "name": "",
          "type": "uint8"
        }
      ],
      "stateMutability": "pure",
      "type": "function"
    },
    {
      "inputs": [
        {
          "internalType": "uint256",
          "name": "timestamp",
          "type": "uint256"
        }
      ],
      "name": "getHour",
      "outputs": [
        {
          "internalType": "uint8",
          "name": "",
          "type": "uint8"
        }
      ],
      "stateMutability": "pure",
      "type": "function"
    },
    {
      "inputs": [
        {
          "internalType": "uint256",
          "name": "timestamp",
          "type": "uint256"
        }
      ],
      "name": "getMinute",
      "outputs": [
        {
          "internalType": "uint8",
          "name": "",
          "type": "uint8"
        }
      ],
      "stateMutability": "pure",
      "type": "function"
    },
    {
      "inputs": [
        {
          "internalType": "uint256",
          "name": "timestamp",
          "type": "uint256"
        }
      ],
      "name": "getMonth",
      "outputs": [
        {
          "internalType": "uint8",
          "name": "",
          "type": "uint8"
        }
      ],
      "stateMutability": "pure",
      "type": "function"
    },
    {
      "inputs": [
        {
          "internalType": "uint256",
          "name": "timestamp",
          "type": "uint256"
        }
      ],
      "name": "getSecond",
      "outputs": [
        {
          "internalType": "uint8",
          "name": "",
          "type": "uint8"
        }
      ],
      "stateMutability": "pure",
      "type": "function"
    },
    {
      "inputs": [
        {
          "internalType": "uint256",
          "name": "timestamp",
          "type": "uint256"
        }
      ],
      "name": "getWeekday",
      "outputs": [
        {
          "internalType": "uint8",
          "name": "",
          "type": "uint8"
        }
      ],
      "stateMutability": "pure",
      "type": "function"
    },
    {
      "inputs": [
        {
          "internalType": "uint256",
          "name": "timestamp",
          "type": "uint256"
        }
      ],
      "name": "getYear",
      "outputs": [
        {
          "internalType": "uint16",
          "name": "",
          "type": "uint16"
        }
      ],
      "stateMutability": "pure",
      "type": "function"
    },
    {
      "inputs": [
        {
          "internalType": "uint16",
          "name": "year",
          "type": "uint16"
        }
      ],
      "name": "isLeapYear",
      "outputs": [
        {
          "internalType": "bool",
          "name": "",
          "type": "bool"
        }
      ],
      "stateMutability": "pure",
      "type": "function"
    },
    {
      "inputs": [
        {
          "internalType": "uint256",
          "name": "year",
          "type": "uint256"
        }
      ],
      "name": "leapYearsBefore",
      "outputs": [
        {
          "internalType": "uint256",
          "name": "",
          "type": "uint256"
        }
      ],
      "stateMutability": "pure",
      "type": "function"
    },
    {
      "inputs": [
        {
          "internalType": "uint256",
          "name": "timestamp",
          "type": "uint256"
        }
      ],
      "name": "timeToDate",
      "outputs": [
        {
          "internalType": "string",
          "name": "",
          "type": "string"
        }
      ],
      "stateMutability": "pure",
      "type": "function"
    },
    {
      "inputs": [
        {
          "internalType": "uint256",
          "name": "timestamp",
          "type": "uint256"
        }
      ],
      "name": "timeToDateCN",
      "outputs": [
        {
          "internalType": "string",
          "name": "",
          "type": "string"
        }
      ],
      "stateMutability": "pure",
      "type": "function"
    },
    {
      "inputs": [
        {
          "internalType": "uint16",
          "name": "year",
          "type": "uint16"
        },
        {
          "internalType": "uint8",
          "name": "month",
          "type": "uint8"
        },
        {
          "internalType": "uint8",
          "name": "day",
          "type": "uint8"
        },
        {
          "internalType": "uint8",
          "name": "hour",
          "type": "uint8"
        },
        {
          "internalType": "uint8",
          "name": "minute",
          "type": "uint8"
        }
      ],
      "name": "toTimestamp",
      "outputs": [
        {
          "internalType": "uint256",
          "name": "timestamp",
          "type": "uint256"
        }
      ],
      "stateMutability": "pure",
      "type": "function"
    },
    {
      "inputs": [
        {
          "internalType": "uint16",
          "name": "year",
          "type": "uint16"
        },
        {
          "internalType": "uint8",
          "name": "month",
          "type": "uint8"
        },
        {
          "internalType": "uint8",
          "name": "day",
          "type": "uint8"
        },
        {
          "internalType": "uint8",
          "name": "hour",
          "type": "uint8"
        }
      ],
      "name": "toTimestamp",
      "outputs": [
        {
          "internalType": "uint256",
          "name": "timestamp",
          "type": "uint256"
        }
      ],
      "stateMutability": "pure",
      "type": "function"
    },
    {
      "inputs": [
        {
          "internalType": "uint16",
          "name": "year",
          "type": "uint16"
        },
        {
          "internalType": "uint8",
          "name": "month",
          "type": "uint8"
        },
        {
          "internalType": "uint8",
          "name": "day",
          "type": "uint8"
        }
      ],
      "name": "toTimestamp",
      "outputs": [
        {
          "internalType": "uint256",
          "name": "timestamp",
          "type": "uint256"
        }
      ],
      "stateMutability": "pure",
      "type": "function"
    },
    {
      "inputs": [
        {
          "internalType": "uint16",
          "name": "year",
          "type": "uint16"
        },
        {
          "internalType": "uint8",
          "name": "month",
          "type": "uint8"
        },
        {
          "internalType": "uint8",
          "name": "day",
          "type": "uint8"
        },
        {
          "internalType": "uint8",
          "name": "hour",
          "type": "uint8"
        },
        {
          "internalType": "uint8",
          "name": "minute",
          "type": "uint8"
        },
        {
          "internalType": "uint8",
          "name": "second",
          "type": "uint8"
        }
      ],
      "name": "toTimestamp",
      "outputs": [
        {
          "internalType": "uint256",
          "name": "timestamp",
          "type": "uint256"
        }
      ],
      "stateMutability": "pure",
      "type": "function"
    }
  ],
  "bytecode": "608060405234801561001057600080fd5b506114bd806100206000396000f3fe608060405234801561001057600080fd5b50600436106101005760003560e01c80639054bdec11610097578063a6f0e57711610066578063a6f0e5771461022e578063b199993714610251578063b238ad0e14610264578063fa93f8831461027757600080fd5b80639054bdec146101cf57806392d66313146101e25780639ed1379614610208578063a324ad241461021b57600080fd5b806365c72840116100d357806365c72840146101835780637f791833146101965780638aa001fc146101a95780638c8d98a0146101bc57600080fd5b80633e239e1a146101055780634ac1ad781461012f57806362480fd91461014257806362ba968714610162575b600080fd5b610118610113366004610dfb565b61028a565b60405160ff90911681526020015b60405180910390f35b61011861013d366004610dfb565b6102b4565b610155610150366004610dfb565b6102d0565b6040516101269190610e44565b610175610170366004610e9f565b610495565b604051908152602001610126565b610118610191366004610dfb565b6104b0565b6101756101a4366004610f04565b6104c5565b6101186101b7366004610dfb565b6104df565b6101756101ca366004610f58565b6104ec565b6101756101dd366004610f9b565b610506565b6101f56101f0366004610dfb565b6106b7565b60405161ffff9091168152602001610126565b610155610216366004610dfb565b6107a7565b610118610229366004610dfb565b610965565b61024161023c36600461100f565b61097a565b6040519015158152602001610126565b61017561025f366004610dfb565b6109d9565b610118610272366004611031565b610a1e565b610118610285366004610dfb565b610ae5565b60006018603c61029a8185611090565b6102a49190611090565b6102ae91906110a4565b92915050565b600060076102c56201518084611090565b6102a49060046110b8565b604080518082019091526004815263021a9aa160e51b602082015260609060006102f9846106b7565b61ffff1690508015610332578161030f82610af3565b6040516020016103209291906110d0565b60405160208183030381529060405291505b61033b84610965565b60ff1690508015610373578161035082610af3565b6040516020016103619291906110d0565b60405160208183030381529060405291505b61037c846104b0565b60ff16905080156103b4578161039182610af3565b6040516020016103a292919061110b565b60405160208183030381529060405291505b60186103bf8561028a565b6103ca906008611146565b6103d4919061116b565b60ff169050801561040c57816103e982610af3565b6040516020016103fa92919061118d565b60405160208183030381529060405291505b61041584610ae5565b60ff169050801561044d578161042a82610af3565b60405160200161043b92919061118d565b60405160208183030381529060405291505b610456846104df565b60ff169050801561048e578161046b82610af3565b60405160200161047c9291906111c8565b60405160208183030381529060405291505b5092915050565b60006104a686868686866000610506565b9695505050505050565b60006104bb82610bf4565b6040015192915050565b60006104d685858585600080610506565b95945050505050565b60006102ae603c836110a4565b60006104fe8484846000806000610506565b949350505050565b60006107b25b8761ffff168161ffff161015610562576105258161097a565b1561053f576105386301e28500836110b8565b9150610550565b61054d6301e13380836110b8565b91505b8061055a816111f7565b91505061050c565b61056a610ddc565b601f81526105778961097a565b1561058857601d6020820152610590565b601c60208201525b601f60408201819052601e606083018190526080830182905260a0830181905260c0830182905260e0830182905261010083018190526101208301829052610140830152610160820152600191505b8760ff168261ffff16101561064157806105fa60018461122e565b61ffff16600c811061060e5761060e611218565b60200201516106239060ff1662015180611251565b61062d90846110b8565b925081610639816111f7565b9250506105df565b61064c600188611270565b61065c9060ff1662015180611251565b61066690846110b8565b925061067760ff8716610e10611251565b61068190846110b8565b925061069160ff8616603c611251565b61069b90846110b8565b92506106aa60ff8516846110b8565b9998505050505050505050565b60008080806106ca6301e1338086611090565b6106d6906107b26110b8565b91506106e36107b26109d9565b6106f08361ffff166109d9565b6106fa9190611293565b905061070a816301e28500611251565b61071490846110b8565b9250806107236107b28461122e565b61ffff166107319190611293565b61073f906301e13380611251565b61074990846110b8565b92505b8483111561079f5761076261023c60018461122e565b1561077c576107756301e2850084611293565b925061078d565b61078a6301e1338084611293565b92505b61079860018361122e565b915061074c565b509392505050565b604080518082019091526016815275072c64bf25d56734bdb72c65d77de4421a9aa77de44960551b602082015260609060006107e2846106b7565b61ffff169050801561081b57816107f882610af3565b6040516020016108099291906112aa565b60405160208183030381529060405291505b61082484610965565b60ff169050801561085c578161083982610af3565b60405160200161084a9291906112e7565b60405160208183030381529060405291505b610865846104b0565b60ff169050801561089d578161087a82610af3565b60405160200161088b929190611324565b60405160208183030381529060405291505b60186108a88561028a565b6108b3906008611146565b6108bd919061116b565b60ff16905080156108f557816108d282610af3565b6040516020016108e3929190611361565b60405160208183030381529060405291505b6108fe84610ae5565b60ff1690508015610936578161091382610af3565b60405160200161092492919061139e565b60405160208183030381529060405291505b61093f846104df565b60ff169050801561048e578161095482610af3565b60405160200161047c9291906113db565b600061097082610bf4565b6020015192915050565b6000610987600483611418565b61ffff161561099857506000919050565b6109a3606483611418565b61ffff16156109b457506001919050565b6109c061019083611418565b61ffff16156109d157506000919050565b506001919050565b60006109e6600183611293565b91506109f461019083611090565b6109ff606484611090565b610a0a600485611090565b610a149190611293565b6102ae91906110b8565b60008260ff1660011480610a3557508260ff166003145b80610a4357508260ff166005145b80610a5157508260ff166007145b80610a5f57508260ff166008145b80610a6d57508260ff16600a145b80610a7b57508260ff16600c145b15610a885750601f6102ae565b8260ff1660041480610a9d57508260ff166006145b80610aab57508260ff166009145b80610ab957508260ff16600b145b15610ac65750601e6102ae565b610acf8261097a565b15610adc5750601d6102ae565b50601c92915050565b6000603c6102a48184611090565b606081600003610b1a5750506040805180820190915260018152600360fc1b602082015290565b8160005b8115610b445780610b2e81611439565b9150610b3d9050600a83611090565b9150610b1e565b60008167ffffffffffffffff811115610b5f57610b5f611452565b6040519080825280601f01601f191660200182016040528015610b89576020820181803683370190505b5090505b84156104fe57610b9e600183611293565b9150610bab600a866110a4565b610bb69060306110b8565b60f81b818381518110610bcb57610bcb611218565b60200101906001600160f81b031916908160001a905350610bed600a86611090565b9450610b8d565b6040805160e081018252600080825260208201819052918101829052606081018290526080810182905260a0810182905260c08101829052908080610c38856106b7565b61ffff168452610c496107b26109d9565b8451610c589061ffff166109d9565b610c629190611293565b9150610c72826301e28500611251565b610c7c90846110b8565b9250816107b28560000151610c91919061122e565b61ffff16610c9f9190611293565b610cad906301e13380611251565b610cb790846110b8565b92506000600191505b600c8260ff1611610d2857610cd9828660000151610a1e565b610ce99060ff1662015180611251565b905085610cf685836110b8565b1115610d0a5760ff82166020860152610d28565b610d1481856110b8565b935081610d2081611468565b925050610cc0565b600191505b610d3f85602001518660000151610a1e565b60ff168260ff1611610d8e5785610d5985620151806110b8565b1115610d6d5760ff82166040860152610d8e565b610d7a62015180856110b8565b935081610d8681611468565b925050610d2d565b610d978661028a565b60ff166060860152610da886610ae5565b60ff166080860152610db9866104df565b60ff1660a0860152610dca866102b4565b60ff1660c08601525092949350505050565b604051806101800160405280600c906020820280368337509192915050565b600060208284031215610e0d57600080fd5b5035919050565b60005b83811015610e2f578181015183820152602001610e17565b83811115610e3e576000848401525b50505050565b6020815260008251806020840152610e63816040850160208701610e14565b601f01601f19169190910160400192915050565b803561ffff81168114610e8957600080fd5b919050565b803560ff81168114610e8957600080fd5b600080600080600060a08688031215610eb757600080fd5b610ec086610e77565b9450610ece60208701610e8e565b9350610edc60408701610e8e565b9250610eea60608701610e8e565b9150610ef860808701610e8e565b90509295509295909350565b60008060008060808587031215610f1a57600080fd5b610f2385610e77565b9350610f3160208601610e8e565b9250610f3f60408601610e8e565b9150610f4d60608601610e8e565b905092959194509250565b600080600060608486031215610f6d57600080fd5b610f7684610e77565b9250610f8460208501610e8e565b9150610f9260408501610e8e565b90509250925092565b60008060008060008060c08789031215610fb457600080fd5b610fbd87610e77565b9550610fcb60208801610e8e565b9450610fd960408801610e8e565b9350610fe760608801610e8e565b9250610ff560808801610e8e565b915061100360a08801610e8e565b90509295509295509295565b60006020828403121561102157600080fd5b61102a82610e77565b9392505050565b6000806040838503121561104457600080fd5b61104d83610e8e565b915061105b60208401610e77565b90509250929050565b634e487b7160e01b600052601260045260246000fd5b634e487b7160e01b600052601160045260246000fd5b60008261109f5761109f611064565b500490565b6000826110b3576110b3611064565b500690565b600082198211156110cb576110cb61107a565b500190565b600083516110e2818460208801610e14565b8351908301906110f6818360208801610e14565b602f60f81b9101908152600101949350505050565b6000835161111d818460208801610e14565b835190830190611131818360208801610e14565b600160fd1b9101908152600101949350505050565b600060ff821660ff84168060ff038211156111635761116361107a565b019392505050565b600060ff83168061117e5761117e611064565b8060ff84160691505092915050565b6000835161119f818460208801610e14565b8351908301906111b3818360208801610e14565b601d60f91b9101908152600101949350505050565b600083516111da818460208801610e14565b8351908301906111ee818360208801610e14565b01949350505050565b600061ffff80831681810361120e5761120e61107a565b6001019392505050565b634e487b7160e01b600052603260045260246000fd5b600061ffff838116908316818110156112495761124961107a565b039392505050565b600081600019048311821515161561126b5761126b61107a565b500290565b600060ff821660ff84168082101561128a5761128a61107a565b90039392505050565b6000828210156112a5576112a561107a565b500390565b600083516112bc818460208801610e14565b8351908301906112d0818360208801610e14565b62396e6d60ea1b9101908152600301949350505050565b600083516112f9818460208801610e14565b83519083019061130d818360208801610e14565b621cd39160eb1b9101908152600301949350505050565b60008351611336818460208801610e14565b83519083019061134a818360208801610e14565b62e697a560e81b9101908152600301949350505050565b60008351611373818460208801610e14565b835190830190611387818360208801610e14565b62734bdb60e91b9101908152600301949350505050565b600083516113b0818460208801610e14565b8351908301906113c4818360208801610e14565b6272c44360e91b9101908152600301949350505050565b600083516113ed818460208801610e14565b835190830190611401818360208801610e14565b6273d3c960e91b9101908152600301949350505050565b600061ffff8084168061142d5761142d611064565b92169190910692915050565b60006001820161144b5761144b61107a565b5060010190565b634e487b7160e01b600052604160045260246000fd5b600060ff821660ff810361147e5761147e61107a565b6001019291505056fea264697066735822122000bc645f46428f824b95184a15f76e52335ea3ff7b1d94f3a1e95c491296b28f64736f6c634300080d0033",
  "bytecodeSha1": "753f7be871cc16dc200d0f2be15f4637c1539529",
  "compiler": {
    "evm_version": "istanbul",
    "optimizer": {
      "enabled": true,
      "runs": 200
    },
    "version": "0.8.13+commit.abaa5c0e"
  },
  "contractName": "DateTime",
  "language": "Solidity",
  "natspec": {
    "kind": "dev",
    "methods": {},
    "version": 1
  },
  "opcodes": "PUSH1 0x80 PUSH1 0x40 MSTORE CALLVALUE DUP1 ISZERO PUSH2 0x10 JUMPI PUSH1 0x0 DUP1 REVERT JUMPDEST POP PUSH1 0x4 CALLDATASIZE LT PUSH2 0x100 JUMPI PUSH1 0x0 CALLDATALOAD PUSH1 0xE0 SHR DUP1 PUSH4 0x9054BDEC GT PUSH2 0x97 JUMPI DUP1 PUSH4 0xA6F0E577 GT PUSH2 0x66 JUMPI DUP1 PUSH4 0xA6F0E577 EQ PUSH2 0x22E JUMPI DUP1 PUSH4 0xB1999937 EQ PUSH2 0x251 JUMPI DUP1 PUSH4 0xB238AD0E EQ PUSH2 0x264 JUMPI DUP1 PUSH4 0xFA93F883 EQ PUSH2 0x277 JUMPI PUSH1 0x0 DUP1 REVERT JUMPDEST DUP1 PUSH4 0x9054BDEC EQ PUSH2 0x1CF JUMPI DUP1 PUSH4 0x92D66313 EQ PUSH2 0x1E2 JUMPI DUP1 PUSH4 0x9ED13796 EQ PUSH2 0x208 JUMPI DUP1 PUSH4 0xA324AD24 EQ PUSH2 0x21B JUMPI PUSH1 0x0 DUP1 REVERT JUMPDEST DUP1 PUSH4 0x65C72840 GT PUSH2 0xD3 JUMPI DUP1 PUSH4 0x65C72840 EQ PUSH2 0x183 JUMPI DUP1 PUSH4 0x7F791833 EQ PUSH2 0x196 JUMPI DUP1 PUSH4 0x8AA001FC EQ PUSH2 0x1A9 JUMPI DUP1 PUSH4 0x8C8D98A0 EQ PUSH2 0x1BC JUMPI PUSH1 0x0 DUP1 REVERT JUMPDEST DUP1 PUSH4 0x3E239E1A EQ PUSH2 0x105 JUMPI DUP1 PUSH4 0x4AC1AD78 EQ PUSH2 0x12F JUMPI DUP1 PUSH4 0x62480FD9 EQ PUSH2 0x142 JUMPI DUP1 PUSH4 0x62BA9687 EQ PUSH2 0x162 JUMPI JUMPDEST PUSH1 0x0 DUP1 REVERT JUMPDEST PUSH2 0x118 PUSH2 0x113 CALLDATASIZE PUSH1 0x4 PUSH2 0xDFB JUMP JUMPDEST PUSH2 0x28A JUMP JUMPDEST PUSH1 0x40 MLOAD PUSH1 0xFF SWAP1 SWAP2 AND DUP2 MSTORE PUSH1 0x20 ADD JUMPDEST PUSH1 0x40 MLOAD DUP1 SWAP2 SUB SWAP1 RETURN JUMPDEST PUSH2 0x118 PUSH2 0x13D CALLDATASIZE PUSH1 0x4 PUSH2 0xDFB JUMP JUMPDEST PUSH2 0x2B4 JUMP JUMPDEST PUSH2 0x155 PUSH2 0x150 CALLDATASIZE PUSH1 0x4 PUSH2 0xDFB JUMP JUMPDEST PUSH2 0x2D0 JUMP JUMPDEST PUSH1 0x40 MLOAD PUSH2 0x126 SWAP2 SWAP1 PUSH2 0xE44 JUMP JUMPDEST PUSH2 0x175 PUSH2 0x170 CALLDATASIZE PUSH1 0x4 PUSH2 0xE9F JUMP JUMPDEST PUSH2 0x495 JUMP JUMPDEST PUSH1 0x40 MLOAD SWAP1 DUP2 MSTORE PUSH1 0x20 ADD PUSH2 0x126 JUMP JUMPDEST PUSH2 0x118 PUSH2 0x191 CALLDATASIZE PUSH1 0x4 PUSH2 0xDFB JUMP JUMPDEST PUSH2 0x4B0 JUMP JUMPDEST PUSH2 0x175 PUSH2 0x1A4 CALLDATASIZE PUSH1 0x4 PUSH2 0xF04 JUMP JUMPDEST PUSH2 0x4C5 JUMP JUMPDEST PUSH2 0x118 PUSH2 0x1B7 CALLDATASIZE PUSH1 0x4 PUSH2 0xDFB JUMP JUMPDEST PUSH2 0x4DF JUMP JUMPDEST PUSH2 0x175 PUSH2 0x1CA CALLDATASIZE PUSH1 0x4 PUSH2 0xF58 JUMP JUMPDEST PUSH2 0x4EC JUMP JUMPDEST PUSH2 0x175 PUSH2 0x1DD CALLDATASIZE PUSH1 0x4 PUSH2 0xF9B JUMP JUMPDEST PUSH2 0x506 JUMP JUMPDEST PUSH2 0x1F5 PUSH2 0x1F0 CALLDATASIZE PUSH1 0x4 PUSH2 0xDFB JUMP JUMPDEST PUSH2 0x6B7 JUMP JUMPDEST PUSH1 0x40 MLOAD PUSH2 0xFFFF SWAP1 SWAP2 AND DUP2 MSTORE PUSH1 0x20 ADD PUSH2 0x126 JUMP JUMPDEST PUSH2 0x155 PUSH2 0x216 CALLDATASIZE PUSH1 0x4 PUSH2 0xDFB JUMP JUMPDEST PUSH2 0x7A7 JUMP JUMPDEST PUSH2 0x118 PUSH2 0x229 CALLDATASIZE PUSH1 0x4 PUSH2 0xDFB JUMP JUMPDEST PUSH2 0x965 JUMP JUMPDEST PUSH2 0x241 PUSH2 0x23C CALLDATASIZE PUSH1 0x4 PUSH2 0x100F JUMP JUMPDEST PUSH2 0x97A JUMP JUMPDEST PUSH1 0x40 MLOAD SWAP1 ISZERO ISZERO DUP2 MSTORE PUSH1 0x20 ADD PUSH2 0x126 JUMP JUMPDEST PUSH2 0x175 PUSH2 0x25F CALLDATASIZE PUSH1 0x4 PUSH2 0xDFB JUMP JUMPDEST PUSH2 0x9D9 JUMP JUMPDEST PUSH2 0x118 PUSH2 0x272 CALLDATASIZE PUSH1 0x4 PUSH2 0x1031 JUMP JUMPDEST PUSH2 0xA1E JUMP JUMPDEST PUSH2 0x118 PUSH2 0x285 CALLDATASIZE PUSH1 0x4 PUSH2 0xDFB JUMP JUMPDEST PUSH2 0xAE5 JUMP JUMPDEST PUSH1 0x0 PUSH1 0x18 PUSH1 0x3C PUSH2 0x29A DUP2 DUP6 PUSH2 0x1090 JUMP JUMPDEST PUSH2 0x2A4 SWAP2 SWAP1 PUSH2 0x1090 JUMP JUMPDEST PUSH2 0x2AE SWAP2 SWAP1 PUSH2 0x10A4 JUMP JUMPDEST SWAP3 SWAP2 POP POP JUMP JUMPDEST PUSH1 0x0 PUSH1 0x7 PUSH2 0x2C5 PUSH3 0x15180 DUP5 PUSH2 0x1090 JUMP JUMPDEST PUSH2 0x2A4 SWAP1 PUSH1 0x4 PUSH2 0x10B8 JUMP JUMPDEST PUSH1 0x40 DUP1 MLOAD DUP1 DUP3 ADD SWAP1 SWAP2 MSTORE PUSH1 0x4 DUP2 MSTORE PUSH4 0x21A9AA1 PUSH1 0xE5 SHL PUSH1 0x20 DUP3 ADD MSTORE PUSH1 0x60 SWAP1 PUSH1 0x0 PUSH2 0x2F9 DUP5 PUSH2 0x6B7 JUMP JUMPDEST PUSH2 0xFFFF AND SWAP1 POP DUP1 ISZERO PUSH2 0x332 JUMPI DUP2 PUSH2 0x30F DUP3 PUSH2 0xAF3 JUMP JUMPDEST PUSH1 0x40 MLOAD PUSH1 0x20 ADD PUSH2 0x320 SWAP3 SWAP2 SWAP1 PUSH2 0x10D0 JUMP JUMPDEST PUSH1 0x40 MLOAD PUSH1 0x20 DUP2 DUP4 SUB SUB DUP2 MSTORE SWAP1 PUSH1 0x40 MSTORE SWAP2 POP JUMPDEST PUSH2 0x33B DUP5 PUSH2 0x965 JUMP JUMPDEST PUSH1 0xFF AND SWAP1 POP DUP1 ISZERO PUSH2 0x373 JUMPI DUP2 PUSH2 0x350 DUP3 PUSH2 0xAF3 JUMP JUMPDEST PUSH1 0x40 MLOAD PUSH1 0x20 ADD PUSH2 0x361 SWAP3 SWAP2 SWAP1 PUSH2 0x10D0 JUMP JUMPDEST PUSH1 0x40 MLOAD PUSH1 0x20 DUP2 DUP4 SUB SUB DUP2 MSTORE SWAP1 PUSH1 0x40 MSTORE SWAP2 POP JUMPDEST PUSH2 0x37C DUP5 PUSH2 0x4B0 JUMP JUMPDEST PUSH1 0xFF AND SWAP1 POP DUP1 ISZERO PUSH2 0x3B4 JUMPI DUP2 PUSH2 0x391 DUP3 PUSH2 0xAF3 JUMP JUMPDEST PUSH1 0x40 MLOAD PUSH1 0x20 ADD PUSH2 0x3A2 SWAP3 SWAP2 SWAP1 PUSH2 0x110B JUMP JUMPDEST PUSH1 0x40 MLOAD PUSH1 0x20 DUP2 DUP4 SUB SUB DUP2 MSTORE SWAP1 PUSH1 0x40 MSTORE SWAP2 POP JUMPDEST PUSH1 0x18 PUSH2 0x3BF DUP6 PUSH2 0x28A JUMP JUMPDEST PUSH2 0x3CA SWAP1 PUSH1 0x8 PUSH2 0x1146 JUMP JUMPDEST PUSH2 0x3D4 SWAP2 SWAP1 PUSH2 0x116B JUMP JUMPDEST PUSH1 0xFF AND SWAP1 POP DUP1 ISZERO PUSH2 0x40C JUMPI DUP2 PUSH2 0x3E9 DUP3 PUSH2 0xAF3 JUMP JUMPDEST PUSH1 0x40 MLOAD PUSH1 0x20 ADD PUSH2 0x3FA SWAP3 SWAP2 SWAP1 PUSH2 0x118D JUMP JUMPDEST PUSH1 0x40 MLOAD PUSH1 0x20 DUP2 DUP4 SUB SUB DUP2 MSTORE SWAP1 PUSH1 0x40 MSTORE SWAP2 POP JUMPDEST PUSH2 0x415 DUP5 PUSH2 0xAE5 JUMP JUMPDEST PUSH1 0xFF AND SWAP1 POP DUP1 ISZERO PUSH2 0x44D JUMPI DUP2 PUSH2 0x42A DUP3 PUSH2 0xAF3 JUMP JUMPDEST PUSH1 0x40 MLOAD PUSH1 0x20 ADD PUSH2 0x43B SWAP3 SWAP2 SWAP1 PUSH2 0x118D JUMP JUMPDEST PUSH1 0x40 MLOAD PUSH1 0x20 DUP2 DUP4 SUB SUB DUP2 MSTORE SWAP1 PUSH1 0x40 MSTORE SWAP2 POP JUMPDEST PUSH2 0x456 DUP5 PUSH2 0x4DF JUMP JUMPDEST PUSH1 0xFF AND SWAP1 POP DUP1 ISZERO PUSH2 0x48E JUMPI DUP2 PUSH2 0x46B DUP3 PUSH2 0xAF3 JUMP JUMPDEST PUSH1 0x40 MLOAD PUSH1 0x20 ADD PUSH2 0x47C SWAP3 SWAP2 SWAP1 PUSH2 0x11C8 JUMP JUMPDEST PUSH1 0x40 MLOAD PUSH1 0x20 DUP2 DUP4 SUB SUB DUP2 MSTORE SWAP1 PUSH1 0x40 MSTORE SWAP2 POP JUMPDEST POP SWAP3 SWAP2 POP POP JUMP JUMPDEST PUSH1 0x0 PUSH2 0x4A6 DUP7 DUP7 DUP7 DUP7 DUP7 PUSH1 0x0 PUSH2 0x506 JUMP JUMPDEST SWAP7 SWAP6 POP POP POP POP POP POP JUMP JUMPDEST PUSH1 0x0 PUSH2 0x4BB DUP3 PUSH2 0xBF4 JUMP JUMPDEST PUSH1 0x40 ADD MLOAD SWAP3 SWAP2 POP POP JUMP JUMPDEST PUSH1 0x0 PUSH2 0x4D6 DUP6 DUP6 DUP6 DUP6 PUSH1 0x0 DUP1 PUSH2 0x506 JUMP JUMPDEST SWAP6 SWAP5 POP POP POP POP POP JUMP JUMPDEST PUSH1 0x0 PUSH2 0x2AE PUSH1 0x3C DUP4 PUSH2 0x10A4 JUMP JUMPDEST PUSH1 0x0 PUSH2 0x4FE DUP5 DUP5 DUP5 PUSH1 0x0 DUP1 PUSH1 0x0 PUSH2 0x506 JUMP JUMPDEST SWAP5 SWAP4 POP POP POP POP JUMP JUMPDEST PUSH1 0x0 PUSH2 0x7B2 JUMPDEST DUP8 PUSH2 0xFFFF AND DUP2 PUSH2 0xFFFF AND LT ISZERO PUSH2 0x562 JUMPI PUSH2 0x525 DUP2 PUSH2 0x97A JUMP JUMPDEST ISZERO PUSH2 0x53F JUMPI PUSH2 0x538 PUSH4 0x1E28500 DUP4 PUSH2 0x10B8 JUMP JUMPDEST SWAP2 POP PUSH2 0x550 JUMP JUMPDEST PUSH2 0x54D PUSH4 0x1E13380 DUP4 PUSH2 0x10B8 JUMP JUMPDEST SWAP2 POP JUMPDEST DUP1 PUSH2 0x55A DUP2 PUSH2 0x11F7 JUMP JUMPDEST SWAP2 POP POP PUSH2 0x50C JUMP JUMPDEST PUSH2 0x56A PUSH2 0xDDC JUMP JUMPDEST PUSH1 0x1F DUP2 MSTORE PUSH2 0x577 DUP10 PUSH2 0x97A JUMP JUMPDEST ISZERO PUSH2 0x588 JUMPI PUSH1 0x1D PUSH1 0x20 DUP3 ADD MSTORE PUSH2 0x590 JUMP JUMPDEST PUSH1 0x1C PUSH1 0x20 DUP3 ADD MSTORE JUMPDEST PUSH1 0x1F PUSH1 0x40 DUP3 ADD DUP2 SWAP1 MSTORE PUSH1 0x1E PUSH1 0x60 DUP4 ADD DUP2 SWAP1 MSTORE PUSH1 0x80 DUP4 ADD DUP3 SWAP1 MSTORE PUSH1 0xA0 DUP4 ADD DUP2 SWAP1 MSTORE PUSH1 0xC0 DUP4 ADD DUP3 SWAP1 MSTORE PUSH1 0xE0 DUP4 ADD DUP3 SWAP1 MSTORE PUSH2 0x100 DUP4 ADD DUP2 SWAP1 MSTORE PUSH2 0x120 DUP4 ADD DUP3 SWAP1 MSTORE PUSH2 0x140 DUP4 ADD MSTORE PUSH2 0x160 DUP3 ADD MSTORE PUSH1 0x1 SWAP2 POP JUMPDEST DUP8 PUSH1 0xFF AND DUP3 PUSH2 0xFFFF AND LT ISZERO PUSH2 0x641 JUMPI DUP1 PUSH2 0x5FA PUSH1 0x1 DUP5 PUSH2 0x122E JUMP JUMPDEST PUSH2 0xFFFF AND PUSH1 0xC DUP2 LT PUSH2 0x60E JUMPI PUSH2 0x60E PUSH2 0x1218 JUMP JUMPDEST PUSH1 0x20 MUL ADD MLOAD PUSH2 0x623 SWAP1 PUSH1 0xFF AND PUSH3 0x15180 PUSH2 0x1251 JUMP JUMPDEST PUSH2 0x62D SWAP1 DUP5 PUSH2 0x10B8 JUMP JUMPDEST SWAP3 POP DUP2 PUSH2 0x639 DUP2 PUSH2 0x11F7 JUMP JUMPDEST SWAP3 POP POP PUSH2 0x5DF JUMP JUMPDEST PUSH2 0x64C PUSH1 0x1 DUP9 PUSH2 0x1270 JUMP JUMPDEST PUSH2 0x65C SWAP1 PUSH1 0xFF AND PUSH3 0x15180 PUSH2 0x1251 JUMP JUMPDEST PUSH2 0x666 SWAP1 DUP5 PUSH2 0x10B8 JUMP JUMPDEST SWAP3 POP PUSH2 0x677 PUSH1 0xFF DUP8 AND PUSH2 0xE10 PUSH2 0x1251 JUMP JUMPDEST PUSH2 0x681 SWAP1 DUP5 PUSH2 0x10B8 JUMP JUMPDEST SWAP3 POP PUSH2 0x691 PUSH1 0xFF DUP7 AND PUSH1 0x3C PUSH2 0x1251 JUMP JUMPDEST PUSH2 0x69B SWAP1 DUP5 PUSH2 0x10B8 JUMP JUMPDEST SWAP3 POP PUSH2 0x6AA PUSH1 0xFF DUP6 AND DUP5 PUSH2 0x10B8 JUMP JUMPDEST SWAP10 SWAP9 POP POP POP POP POP POP POP POP POP JUMP JUMPDEST PUSH1 0x0 DUP1 DUP1 DUP1 PUSH2 0x6CA PUSH4 0x1E13380 DUP7 PUSH2 0x1090 JUMP JUMPDEST PUSH2 0x6D6 SWAP1 PUSH2 0x7B2 PUSH2 0x10B8 JUMP JUMPDEST SWAP2 POP PUSH2 0x6E3 PUSH2 0x7B2 PUSH2 0x9D9 JUMP JUMPDEST PUSH2 0x6F0 DUP4 PUSH2 0xFFFF AND PUSH2 0x9D9 JUMP JUMPDEST PUSH2 0x6FA SWAP2 SWAP1 PUSH2 0x1293 JUMP JUMPDEST SWAP1 POP PUSH2 0x70A DUP2 PUSH4 0x1E28500 PUSH2 0x1251 JUMP JUMPDEST PUSH2 0x714 SWAP1 DUP5 PUSH2 0x10B8 JUMP JUMPDEST SWAP3 POP DUP1 PUSH2 0x723 PUSH2 0x7B2 DUP5 PUSH2 0x122E JUMP JUMPDEST PUSH2 0xFFFF AND PUSH2 0x731 SWAP2 SWAP1 PUSH2 0x1293 JUMP JUMPDEST PUSH2 0x73F SWAP1 PUSH4 0x1E13380 PUSH2 0x1251 JUMP JUMPDEST PUSH2 0x749 SWAP1 DUP5 PUSH2 0x10B8 JUMP JUMPDEST SWAP3 POP JUMPDEST DUP5 DUP4 GT ISZERO PUSH2 0x79F JUMPI PUSH2 0x762 PUSH2 0x23C PUSH1 0x1 DUP5 PUSH2 0x122E JUMP JUMPDEST ISZERO PUSH2 0x77C JUMPI PUSH2 0x775 PUSH4 0x1E28500 DUP5 PUSH2 0x1293 JUMP JUMPDEST SWAP3 POP PUSH2 0x78D JUMP JUMPDEST PUSH2 0x78A PUSH4 0x1E13380 DUP5 PUSH2 0x1293 JUMP JUMPDEST SWAP3 POP JUMPDEST PUSH2 0x798 PUSH1 0x1 DUP4 PUSH2 0x122E JUMP JUMPDEST SWAP2 POP PUSH2 0x74C JUMP JUMPDEST POP SWAP4 SWAP3 POP POP POP JUMP JUMPDEST PUSH1 0x40 DUP1 MLOAD DUP1 DUP3 ADD SWAP1 SWAP2 MSTORE PUSH1 0x16 DUP2 MSTORE PUSH22 0x72C64BF25D56734BDB72C65D77DE4421A9AA77DE449 PUSH1 0x55 SHL PUSH1 0x20 DUP3 ADD MSTORE PUSH1 0x60 SWAP1 PUSH1 0x0 PUSH2 0x7E2 DUP5 PUSH2 0x6B7 JUMP JUMPDEST PUSH2 0xFFFF AND SWAP1 POP DUP1 ISZERO PUSH2 0x81B JUMPI DUP2 PUSH2 0x7F8 DUP3 PUSH2 0xAF3 JUMP JUMPDEST PUSH1 0x40 MLOAD PUSH1 0x20 ADD PUSH2 0x809 SWAP3 SWAP2 SWAP1 PUSH2 0x12AA JUMP JUMPDEST PUSH1 0x40 MLOAD PUSH1 0x20 DUP2 DUP4 SUB SUB DUP2 MSTORE SWAP1 PUSH1 0x40 MSTORE SWAP2 POP JUMPDEST PUSH2 0x824 DUP5 PUSH2 0x965 JUMP JUMPDEST PUSH1 0xFF AND SWAP1 POP DUP1 ISZERO PUSH2 0x85C JUMPI DUP2 PUSH2 0x839 DUP3 PUSH2 0xAF3 JUMP JUMPDEST PUSH1 0x40 MLOAD PUSH1 0x20 ADD PUSH2 0x84A SWAP3 SWAP2 SWAP1 PUSH2 0x12E7 JUMP JUMPDEST PUSH1 0x40 MLOAD PUSH1 0x20 DUP2 DUP4 SUB SUB DUP2 MSTORE SWAP1 PUSH1 0x40 MSTORE SWAP2 POP JUMPDEST PUSH2 0x865 DUP5 PUSH2 0x4B0 JUMP JUMPDEST PUSH1 0xFF AND SWAP1 POP DUP1 ISZERO PUSH2 0x89D JUMPI DUP2 PUSH2 0x87A DUP3 PUSH2 0xAF3 JUMP JUMPDEST PUSH1 0x40 MLOAD PUSH1 0x20 ADD PUSH2 0x88B SWAP3 SWAP2 SWAP1 PUSH2 0x1324 JUMP JUMPDEST PUSH1 0x40 MLOAD PUSH1 0x20 DUP2 DUP4 SUB SUB DUP2 MSTORE SWAP1 PUSH1 0x40 MSTORE SWAP2 POP JUMPDEST PUSH1 0x18 PUSH2 0x8A8 DUP6 PUSH2 0x28A JUMP JUMPDEST PUSH2 0x8B3 SWAP1 PUSH1 0x8 PUSH2 0x1146 JUMP JUMPDEST PUSH2 0x8BD SWAP2 SWAP1 PUSH2 0x116B JUMP JUMPDEST PUSH1 0xFF AND SWAP1 POP DUP1 ISZERO PUSH2 0x8F5 JUMPI DUP2 PUSH2 0x8D2 DUP3 PUSH2 0xAF3 JUMP JUMPDEST PUSH1 0x40 MLOAD PUSH1 0x20 ADD PUSH2 0x8E3 SWAP3 SWAP2 SWAP1 PUSH2 0x1361 JUMP JUMPDEST PUSH1 0x40 MLOAD PUSH1 0x20 DUP2 DUP4 SUB SUB DUP2 MSTORE SWAP1 PUSH1 0x40 MSTORE SWAP2 POP JUMPDEST PUSH2 0x8FE DUP5 PUSH2 0xAE5 JUMP JUMPDEST PUSH1 0xFF AND SWAP1 POP DUP1 ISZERO PUSH2 0x936 JUMPI DUP2 PUSH2 0x913 DUP3 PUSH2 0xAF3 JUMP JUMPDEST PUSH1 0x40 MLOAD PUSH1 0x20 ADD PUSH2 0x924 SWAP3 SWAP2 SWAP1 PUSH2 0x139E JUMP JUMPDEST PUSH1 0x40 MLOAD PUSH1 0x20 DUP2 DUP4 SUB SUB DUP2 MSTORE SWAP1 PUSH1 0x40 MSTORE SWAP2 POP JUMPDEST PUSH2 0x93F DUP5 PUSH2 0x4DF JUMP JUMPDEST PUSH1 0xFF AND SWAP1 POP DUP1 ISZERO PUSH2 0x48E JUMPI DUP2 PUSH2 0x954 DUP3 PUSH2 0xAF3 JUMP JUMPDEST PUSH1 0x40 MLOAD PUSH1 0x20 ADD PUSH2 0x47C SWAP3 SWAP2 SWAP1 PUSH2 0x13DB JUMP JUMPDEST PUSH1 0x0 PUSH2 0x970 DUP3 PUSH2 0xBF4 JUMP JUMPDEST PUSH1 0x20 ADD MLOAD SWAP3 SWAP2 POP POP JUMP JUMPDEST PUSH1 0x0 PUSH2 0x987 PUSH1 0x4 DUP4 PUSH2 0x1418 JUMP JUMPDEST PUSH2 0xFFFF AND ISZERO PUSH2 0x998 JUMPI POP PUSH1 0x0 SWAP2 SWAP1 POP JUMP JUMPDEST PUSH2 0x9A3 PUSH1 0x64 DUP4 PUSH2 0x1418 JUMP JUMPDEST PUSH2 0xFFFF AND ISZERO PUSH2 0x9B4 JUMPI POP PUSH1 0x1 SWAP2 SWAP1 POP JUMP JUMPDEST PUSH2 0x9C0 PUSH2 0x190 DUP4 PUSH2 0x1418 JUMP JUMPDEST PUSH2 0xFFFF AND ISZERO PUSH2 0x9D1 JUMPI POP PUSH1 0x0 SWAP2 SWAP1 POP JUMP JUMPDEST POP PUSH1 0x1 SWAP2 SWAP1 POP JUMP JUMPDEST PUSH1 0x0 PUSH2 0x9E6 PUSH1 0x1 DUP4 PUSH2 0x1293 JUMP JUMPDEST SWAP2 POP PUSH2 0x9F4 PUSH2 0x190 DUP4 PUSH2 0x1090 JUMP JUMPDEST PUSH2 0x9FF PUSH1 0x64 DUP5 PUSH2 0x1090 JUMP JUMPDEST PUSH2 0xA0A PUSH1 0x4 DUP6 PUSH2 0x1090 JUMP JUMPDEST PUSH2 0xA14 SWAP2 SWAP1 PUSH2 0x1293 JUMP JUMPDEST PUSH2 0x2AE SWAP2 SWAP1 PUSH2 0x10B8 JUMP JUMPDEST PUSH1 0x0 DUP3 PUSH1 0xFF AND PUSH1 0x1 EQ DUP1 PUSH2 0xA35 JUMPI POP DUP3 PUSH1 0xFF AND PUSH1 0x3 EQ JUMPDEST DUP1 PUSH2 0xA43 JUMPI POP DUP3 PUSH1 0xFF AND PUSH1 0x5 EQ JUMPDEST DUP1 PUSH2 0xA51 JUMPI POP DUP3 PUSH1 0xFF AND PUSH1 0x7 EQ JUMPDEST DUP1 PUSH2 0xA5F JUMPI POP DUP3 PUSH1 0xFF AND PUSH1 0x8 EQ JUMPDEST DUP1 PUSH2 0xA6D JUMPI POP DUP3 PUSH1 0xFF AND PUSH1 0xA EQ JUMPDEST DUP1 PUSH2 0xA7B JUMPI POP DUP3 PUSH1 0xFF AND PUSH1 0xC EQ JUMPDEST ISZERO PUSH2 0xA88 JUMPI POP PUSH1 0x1F PUSH2 0x2AE JUMP JUMPDEST DUP3 PUSH1 0xFF AND PUSH1 0x4 EQ DUP1 PUSH2 0xA9D JUMPI POP DUP3 PUSH1 0xFF AND PUSH1 0x6 EQ JUMPDEST DUP1 PUSH2 0xAAB JUMPI POP DUP3 PUSH1 0xFF AND PUSH1 0x9 EQ JUMPDEST DUP1 PUSH2 0xAB9 JUMPI POP DUP3 PUSH1 0xFF AND PUSH1 0xB EQ JUMPDEST ISZERO PUSH2 0xAC6 JUMPI POP PUSH1 0x1E PUSH2 0x2AE JUMP JUMPDEST PUSH2 0xACF DUP3 PUSH2 0x97A JUMP JUMPDEST ISZERO PUSH2 0xADC JUMPI POP PUSH1 0x1D PUSH2 0x2AE JUMP JUMPDEST POP PUSH1 0x1C SWAP3 SWAP2 POP POP JUMP JUMPDEST PUSH1 0x0 PUSH1 0x3C PUSH2 0x2A4 DUP2 DUP5 PUSH2 0x1090 JUMP JUMPDEST PUSH1 0x60 DUP2 PUSH1 0x0 SUB PUSH2 0xB1A JUMPI POP POP PUSH1 0x40 DUP1 MLOAD DUP1 DUP3 ADD SWAP1 SWAP2 MSTORE PUSH1 0x1 DUP2 MSTORE PUSH1 0x3 PUSH1 0xFC SHL PUSH1 0x20 DUP3 ADD MSTORE SWAP1 JUMP JUMPDEST DUP2 PUSH1 0x0 JUMPDEST DUP2 ISZERO PUSH2 0xB44 JUMPI DUP1 PUSH2 0xB2E DUP2 PUSH2 0x1439 JUMP JUMPDEST SWAP2 POP PUSH2 0xB3D SWAP1 POP PUSH1 0xA DUP4 PUSH2 0x1090 JUMP JUMPDEST SWAP2 POP PUSH2 0xB1E JUMP JUMPDEST PUSH1 0x0 DUP2 PUSH8 0xFFFFFFFFFFFFFFFF DUP2 GT ISZERO PUSH2 0xB5F JUMPI PUSH2 0xB5F PUSH2 0x1452 JUMP JUMPDEST PUSH1 0x40 MLOAD SWAP1 DUP1 DUP3 MSTORE DUP1 PUSH1 0x1F ADD PUSH1 0x1F NOT AND PUSH1 0x20 ADD DUP3 ADD PUSH1 0x40 MSTORE DUP1 ISZERO PUSH2 0xB89 JUMPI PUSH1 0x20 DUP3 ADD DUP2 DUP1 CALLDATASIZE DUP4 CALLDATACOPY ADD SWAP1 POP JUMPDEST POP SWAP1 POP JUMPDEST DUP5 ISZERO PUSH2 0x4FE JUMPI PUSH2 0xB9E PUSH1 0x1 DUP4 PUSH2 0x1293 JUMP JUMPDEST SWAP2 POP PUSH2 0xBAB PUSH1 0xA DUP7 PUSH2 0x10A4 JUMP JUMPDEST PUSH2 0xBB6 SWAP1 PUSH1 0x30 PUSH2 0x10B8 JUMP JUMPDEST PUSH1 0xF8 SHL DUP2 DUP4 DUP2 MLOAD DUP2 LT PUSH2 0xBCB JUMPI PUSH2 0xBCB PUSH2 0x1218 JUMP JUMPDEST PUSH1 0x20 ADD ADD SWAP1 PUSH1 0x1 PUSH1 0x1 PUSH1 0xF8 SHL SUB NOT AND SWAP1 DUP2 PUSH1 0x0 BYTE SWAP1 MSTORE8 POP PUSH2 0xBED PUSH1 0xA DUP7 PUSH2 0x1090 JUMP JUMPDEST SWAP5 POP PUSH2 0xB8D JUMP JUMPDEST PUSH1 0x40 DUP1 MLOAD PUSH1 0xE0 DUP2 ADD DUP3 MSTORE PUSH1 0x0 DUP1 DUP3 MSTORE PUSH1 0x20 DUP3 ADD DUP2 SWAP1 MSTORE SWAP2 DUP2 ADD DUP3 SWAP1 MSTORE PUSH1 0x60 DUP2 ADD DUP3 SWAP1 MSTORE PUSH1 0x80 DUP2 ADD DUP3 SWAP1 MSTORE PUSH1 0xA0 DUP2 ADD DUP3 SWAP1 MSTORE PUSH1 0xC0 DUP2 ADD DUP3 SWAP1 MSTORE SWAP1 DUP1 DUP1 PUSH2 0xC38 DUP6 PUSH2 0x6B7 JUMP JUMPDEST PUSH2 0xFFFF AND DUP5 MSTORE PUSH2 0xC49 PUSH2 0x7B2 PUSH2 0x9D9 JUMP JUMPDEST DUP5 MLOAD PUSH2 0xC58 SWAP1 PUSH2 0xFFFF AND PUSH2 0x9D9 JUMP JUMPDEST PUSH2 0xC62 SWAP2 SWAP1 PUSH2 0x1293 JUMP JUMPDEST SWAP2 POP PUSH2 0xC72 DUP3 PUSH4 0x1E28500 PUSH2 0x1251 JUMP JUMPDEST PUSH2 0xC7C SWAP1 DUP5 PUSH2 0x10B8 JUMP JUMPDEST SWAP3 POP DUP2 PUSH2 0x7B2 DUP6 PUSH1 0x0 ADD MLOAD PUSH2 0xC91 SWAP2 SWAP1 PUSH2 0x122E JUMP JUMPDEST PUSH2 0xFFFF AND PUSH2 0xC9F SWAP2 SWAP1 PUSH2 0x1293 JUMP JUMPDEST PUSH2 0xCAD SWAP1 PUSH4 0x1E13380 PUSH2 0x1251 JUMP JUMPDEST PUSH2 0xCB7 SWAP1 DUP5 PUSH2 0x10B8 JUMP JUMPDEST SWAP3 POP PUSH1 0x0 PUSH1 0x1 SWAP2 POP JUMPDEST PUSH1 0xC DUP3 PUSH1 0xFF AND GT PUSH2 0xD28 JUMPI PUSH2 0xCD9 DUP3 DUP7 PUSH1 0x0 ADD MLOAD PUSH2 0xA1E JUMP JUMPDEST PUSH2 0xCE9 SWAP1 PUSH1 0xFF AND PUSH3 0x15180 PUSH2 0x1251 JUMP JUMPDEST SWAP1 POP DUP6 PUSH2 0xCF6 DUP6 DUP4 PUSH2 0x10B8 JUMP JUMPDEST GT ISZERO PUSH2 0xD0A JUMPI PUSH1 0xFF DUP3 AND PUSH1 0x20 DUP7 ADD MSTORE PUSH2 0xD28 JUMP JUMPDEST PUSH2 0xD14 DUP2 DUP6 PUSH2 0x10B8 JUMP JUMPDEST SWAP4 POP DUP2 PUSH2 0xD20 DUP2 PUSH2 0x1468 JUMP JUMPDEST SWAP3 POP POP PUSH2 0xCC0 JUMP JUMPDEST PUSH1 0x1 SWAP2 POP JUMPDEST PUSH2 0xD3F DUP6 PUSH1 0x20 ADD MLOAD DUP7 PUSH1 0x0 ADD MLOAD PUSH2 0xA1E JUMP JUMPDEST PUSH1 0xFF AND DUP3 PUSH1 0xFF AND GT PUSH2 0xD8E JUMPI DUP6 PUSH2 0xD59 DUP6 PUSH3 0x15180 PUSH2 0x10B8 JUMP JUMPDEST GT ISZERO PUSH2 0xD6D JUMPI PUSH1 0xFF DUP3 AND PUSH1 0x40 DUP7 ADD MSTORE PUSH2 0xD8E JUMP JUMPDEST PUSH2 0xD7A PUSH3 0x15180 DUP6 PUSH2 0x10B8 JUMP JUMPDEST SWAP4 POP DUP2 PUSH2 0xD86 DUP2 PUSH2 0x1468 JUMP JUMPDEST SWAP3 POP POP PUSH2 0xD2D JUMP JUMPDEST PUSH2 0xD97 DUP7 PUSH2 0x28A JUMP JUMPDEST PUSH1 0xFF AND PUSH1 0x60 DUP7 ADD MSTORE PUSH2 0xDA8 DUP7 PUSH2 0xAE5 JUMP JUMPDEST PUSH1 0xFF AND PUSH1 0x80 DUP7 ADD MSTORE PUSH2 0xDB9 DUP7 PUSH2 0x4DF JUMP JUMPDEST PUSH1 0xFF AND PUSH1 0xA0 DUP7 ADD MSTORE PUSH2 0xDCA DUP7 PUSH2 0x2B4 JUMP JUMPDEST PUSH1 0xFF AND PUSH1 0xC0 DUP7 ADD MSTORE POP SWAP3 SWAP5 SWAP4 POP POP POP POP JUMP JUMPDEST PUSH1 0x40 MLOAD DUP1 PUSH2 0x180 ADD PUSH1 0x40 MSTORE DUP1 PUSH1 0xC SWAP1 PUSH1 0x20 DUP3 MUL DUP1 CALLDATASIZE DUP4 CALLDATACOPY POP SWAP2 SWAP3 SWAP2 POP POP JUMP JUMPDEST PUSH1 0x0 PUSH1 0x20 DUP3 DUP5 SUB SLT ISZERO PUSH2 0xE0D JUMPI PUSH1 0x0 DUP1 REVERT JUMPDEST POP CALLDATALOAD SWAP2 SWAP1 POP JUMP JUMPDEST PUSH1 0x0 JUMPDEST DUP4 DUP2 LT ISZERO PUSH2 0xE2F JUMPI DUP2 DUP2 ADD MLOAD DUP4 DUP3 ADD MSTORE PUSH1 0x20 ADD PUSH2 0xE17 JUMP JUMPDEST DUP4 DUP2 GT ISZERO PUSH2 0xE3E JUMPI PUSH1 0x0 DUP5 DUP5 ADD MSTORE JUMPDEST POP POP POP POP JUMP JUMPDEST PUSH1 0x20 DUP2 MSTORE PUSH1 0x0 DUP3 MLOAD DUP1 PUSH1 0x20 DUP5 ADD MSTORE PUSH2 0xE63 DUP2 PUSH1 0x40 DUP6 ADD PUSH1 0x20 DUP8 ADD PUSH2 0xE14 JUMP JUMPDEST PUSH1 0x1F ADD PUSH1 0x1F NOT AND SWAP2 SWAP1 SWAP2 ADD PUSH1 0x40 ADD SWAP3 SWAP2 POP POP JUMP JUMPDEST DUP1 CALLDATALOAD PUSH2 0xFFFF DUP2 AND DUP2 EQ PUSH2 0xE89 JUMPI PUSH1 0x0 DUP1 REVERT JUMPDEST SWAP2 SWAP1 POP JUMP JUMPDEST DUP1 CALLDATALOAD PUSH1 0xFF DUP2 AND DUP2 EQ PUSH2 0xE89 JUMPI PUSH1 0x0 DUP1 REVERT JUMPDEST PUSH1 0x0 DUP1 PUSH1 0x0 DUP1 PUSH1 0x0 PUSH1 0xA0 DUP7 DUP9 SUB SLT ISZERO PUSH2 0xEB7 JUMPI PUSH1 0x0 DUP1 REVERT JUMPDEST PUSH2 0xEC0 DUP7 PUSH2 0xE77 JUMP JUMPDEST SWAP5 POP PUSH2 0xECE PUSH1 0x20 DUP8 ADD PUSH2 0xE8E JUMP JUMPDEST SWAP4 POP PUSH2 0xEDC PUSH1 0x40 DUP8 ADD PUSH2 0xE8E JUMP JUMPDEST SWAP3 POP PUSH2 0xEEA PUSH1 0x60 DUP8 ADD PUSH2 0xE8E JUMP JUMPDEST SWAP2 POP PUSH2 0xEF8 PUSH1 0x80 DUP8 ADD PUSH2 0xE8E JUMP JUMPDEST SWAP1 POP SWAP3 SWAP6 POP SWAP3 SWAP6 SWAP1 SWAP4 POP JUMP JUMPDEST PUSH1 0x0 DUP1 PUSH1 0x0 DUP1 PUSH1 0x80 DUP6 DUP8 SUB SLT ISZERO PUSH2 0xF1A JUMPI PUSH1 0x0 DUP1 REVERT JUMPDEST PUSH2 0xF23 DUP6 PUSH2 0xE77 JUMP JUMPDEST SWAP4 POP PUSH2 0xF31 PUSH1 0x20 DUP7 ADD PUSH2 0xE8E JUMP JUMPDEST SWAP3 POP PUSH2 0xF3F PUSH1 0x40 DUP7 ADD PUSH2 0xE8E JUMP JUMPDEST SWAP2 POP PUSH2 0xF4D PUSH1 0x60 DUP7 ADD PUSH2 0xE8E JUMP JUMPDEST SWAP1 POP SWAP3 SWAP6 SWAP2 SWAP5 POP SWAP3 POP JUMP JUMPDEST PUSH1 0x0 DUP1 PUSH1 0x0 PUSH1 0x60 DUP5 DUP7 SUB SLT ISZERO PUSH2 0xF6D JUMPI PUSH1 0x0 DUP1 REVERT JUMPDEST PUSH2 0xF76 DUP5 PUSH2 0xE77 JUMP JUMPDEST SWAP3 POP PUSH2 0xF84 PUSH1 0x20 DUP6 ADD PUSH2 0xE8E JUMP JUMPDEST SWAP2 POP PUSH2 0xF92 PUSH1 0x40 DUP6 ADD PUSH2 0xE8E JUMP JUMPDEST SWAP1 POP SWAP3 POP SWAP3 POP SWAP3 JUMP JUMPDEST PUSH1 0x0 DUP1 PUSH1 0x0 DUP1 PUSH1 0x0 DUP1 PUSH1 0xC0 DUP8 DUP10 SUB SLT ISZERO PUSH2 0xFB4 JUMPI PUSH1 0x0 DUP1 REVERT JUMPDEST PUSH2 0xFBD DUP8 PUSH2 0xE77 JUMP JUMPDEST SWAP6 POP PUSH2 0xFCB PUSH1 0x20 DUP9 ADD PUSH2 0xE8E JUMP JUMPDEST SWAP5 POP PUSH2 0xFD9 PUSH1 0x40 DUP9 ADD PUSH2 0xE8E JUMP JUMPDEST SWAP4 POP PUSH2 0xFE7 PUSH1 0x60 DUP9 ADD PUSH2 0xE8E JUMP JUMPDEST SWAP3 POP PUSH2 0xFF5 PUSH1 0x80 DUP9 ADD PUSH2 0xE8E JUMP JUMPDEST SWAP2 POP PUSH2 0x1003 PUSH1 0xA0 DUP9 ADD PUSH2 0xE8E JUMP JUMPDEST SWAP1 POP SWAP3 SWAP6 POP SWAP3 SWAP6 POP SWAP3 SWAP6 JUMP JUMPDEST PUSH1 0x0 PUSH1 0x20 DUP3 DUP5 SUB SLT ISZERO PUSH2 0x1021 JUMPI PUSH1 0x0 DUP1 REVERT JUMPDEST PUSH2 0x102A DUP3 PUSH2 0xE77 JUMP JUMPDEST SWAP4 SWAP3 POP POP POP JUMP JUMPDEST PUSH1 0x0 DUP1 PUSH1 0x40 DUP4 DUP6 SUB SLT ISZERO PUSH2 0x1044 JUMPI PUSH1 0x0 DUP1 REVERT JUMPDEST PUSH2 0x104D DUP4 PUSH2 0xE8E JUMP JUMPDEST SWAP2 POP PUSH2 0x105B PUSH1 0x20 DUP5 ADD PUSH2 0xE77 JUMP JUMPDEST SWAP1 POP SWAP3 POP SWAP3 SWAP1 POP JUMP JUMPDEST PUSH4 0x4E487B71 PUSH1 0xE0 SHL PUSH1 0x0 MSTORE PUSH1 0x12 PUSH1 0x4 MSTORE PUSH1 0x24 PUSH1 0x0 REVERT JUMPDEST PUSH4 0x4E487B71 PUSH1 0xE0 SHL PUSH1 0x0 MSTORE PUSH1 0x11 PUSH1 0x4 MSTORE PUSH1 0x24 PUSH1 0x0 REVERT JUMPDEST PUSH1 0x0 DUP3 PUSH2 0x109F JUMPI PUSH2 0x109F PUSH2 0x1064 JUMP JUMPDEST POP DIV SWAP1 JUMP JUMPDEST PUSH1 0x0 DUP3 PUSH2 0x10B3 JUMPI PUSH2 0x10B3 PUSH2 0x1064 JUMP JUMPDEST POP MOD SWAP1 JUMP JUMPDEST PUSH1 0x0 DUP3 NOT DUP3 GT ISZERO PUSH2 0x10CB JUMPI PUSH2 0x10CB PUSH2 0x107A JUMP JUMPDEST POP ADD SWAP1 JUMP JUMPDEST PUSH1 0x0 DUP4 MLOAD PUSH2 0x10E2 DUP2 DUP5 PUSH1 0x20 DUP9 ADD PUSH2 0xE14 JUMP JUMPDEST DUP4 MLOAD SWAP1 DUP4 ADD SWAP1 PUSH2 0x10F6 DUP2 DUP4 PUSH1 0x20 DUP9 ADD PUSH2 0xE14 JUMP JUMPDEST PUSH1 0x2F PUSH1 0xF8 SHL SWAP2 ADD SWAP1 DUP2 MSTORE PUSH1 0x1 ADD SWAP5 SWAP4 POP POP POP POP JUMP JUMPDEST PUSH1 0x0 DUP4 MLOAD PUSH2 0x111D DUP2 DUP5 PUSH1 0x20 DUP9 ADD PUSH2 0xE14 JUMP JUMPDEST DUP4 MLOAD SWAP1 DUP4 ADD SWAP1 PUSH2 0x1131 DUP2 DUP4 PUSH1 0x20 DUP9 ADD PUSH2 0xE14 JUMP JUMPDEST PUSH1 0x1 PUSH1 0xFD SHL SWAP2 ADD SWAP1 DUP2 MSTORE PUSH1 0x1 ADD SWAP5 SWAP4 POP POP POP POP JUMP JUMPDEST PUSH1 0x0 PUSH1 0xFF DUP3 AND PUSH1 0xFF DUP5 AND DUP1 PUSH1 0xFF SUB DUP3 GT ISZERO PUSH2 0x1163 JUMPI PUSH2 0x1163 PUSH2 0x107A JUMP JUMPDEST ADD SWAP4 SWAP3 POP POP POP JUMP JUMPDEST PUSH1 0x0 PUSH1 0xFF DUP4 AND DUP1 PUSH2 0x117E JUMPI PUSH2 0x117E PUSH2 0x1064 JUMP JUMPDEST DUP1 PUSH1 0xFF DUP5 AND MOD SWAP2 POP POP SWAP3 SWAP2 POP POP JUMP JUMPDEST PUSH1 0x0 DUP4 MLOAD PUSH2 0x119F DUP2 DUP5 PUSH1 0x20 DUP9 ADD PUSH2 0xE14 JUMP JUMPDEST DUP4 MLOAD SWAP1 DUP4 ADD SWAP1 PUSH2 0x11B3 DUP2 DUP4 PUSH1 0x20 DUP9 ADD PUSH2 0xE14 JUMP JUMPDEST PUSH1 0x1D PUSH1 0xF9 SHL SWAP2 ADD SWAP1 DUP2 MSTORE PUSH1 0x1 ADD SWAP5 SWAP4 POP POP POP POP JUMP JUMPDEST PUSH1 0x0 DUP4 MLOAD PUSH2 0x11DA DUP2 DUP5 PUSH1 0x20 DUP9 ADD PUSH2 0xE14 JUMP JUMPDEST DUP4 MLOAD SWAP1 DUP4 ADD SWAP1 PUSH2 0x11EE DUP2 DUP4 PUSH1 0x20 DUP9 ADD PUSH2 0xE14 JUMP JUMPDEST ADD SWAP5 SWAP4 POP POP POP POP JUMP JUMPDEST PUSH1 0x0 PUSH2 0xFFFF DUP1 DUP4 AND DUP2 DUP2 SUB PUSH2 0x120E JUMPI PUSH2 0x120E PUSH2 0x107A JUMP JUMPDEST PUSH1 0x1 ADD SWAP4 SWAP3 POP POP POP JUMP JUMPDEST PUSH4 0x4E487B71 PUSH1 0xE0 SHL PUSH1 0x0 MSTORE PUSH1 0x32 PUSH1 0x4 MSTORE PUSH1 0x24 PUSH1 0x0 REVERT JUMPDEST PUSH1 0x0 PUSH2 0xFFFF DUP4 DUP2 AND SWAP1 DUP4 AND DUP2 DUP2 LT ISZERO PUSH2 0x1249 JUMPI PUSH2 0x1249 PUSH2 0x107A JUMP JUMPDEST SUB SWAP4 SWAP3 POP POP POP JUMP JUMPDEST PUSH1 0x0 DUP2 PUSH1 0x0 NOT DIV DUP4 GT DUP3 ISZERO ISZERO AND ISZERO PUSH2 0x126B JUMPI PUSH2 0x126B PUSH2 0x107A JUMP JUMPDEST POP MUL SWAP1 JUMP JUMPDEST PUSH1 0x0 PUSH1 0xFF DUP3 AND PUSH1 0xFF DUP5 AND DUP1 DUP3 LT ISZERO PUSH2 0x128A JUMPI PUSH2 0x128A PUSH2 0x107A JUMP JUMPDEST SWAP1 SUB SWAP4 SWAP3 POP POP POP JUMP JUMPDEST PUSH1 0x0 DUP3 DUP3 LT ISZERO PUSH2 0x12A5 JUMPI PUSH2 0x12A5 PUSH2 0x107A JUMP JUMPDEST POP SUB SWAP1 JUMP JUMPDEST PUSH1 0x0 DUP4 MLOAD PUSH2 0x12BC DUP2 DUP5 PUSH1 0x20 DUP9 ADD PUSH2 0xE14 JUMP JUMPDEST DUP4 MLOAD SWAP1 DUP4 ADD SWAP1 PUSH2 0x12D0 DUP2 DUP4 PUSH1 0x20 DUP9 ADD PUSH2 0xE14 JUMP JUMPDEST PUSH3 0x396E6D PUSH1 0xEA SHL SWAP2 ADD SWAP1 DUP2 MSTORE PUSH1 0x3 ADD SWAP5 SWAP4 POP POP POP POP JUMP JUMPDEST PUSH1 0x0 DUP4 MLOAD PUSH2 0x12F9 DUP2 DUP5 PUSH1 0x20 DUP9 ADD PUSH2 0xE14 JUMP JUMPDEST DUP4 MLOAD SWAP1 DUP4 ADD SWAP1 PUSH2 0x130D DUP2 DUP4 PUSH1 0x20 DUP9 ADD PUSH2 0xE14 JUMP JUMPDEST PUSH3 0x1CD391 PUSH1 0xEB SHL SWAP2 ADD SWAP1 DUP2 MSTORE PUSH1 0x3 ADD SWAP5 SWAP4 POP POP POP POP JUMP JUMPDEST PUSH1 0x0 DUP4 MLOAD PUSH2 0x1336 DUP2 DUP5 PUSH1 0x20 DUP9 ADD PUSH2 0xE14 JUMP JUMPDEST DUP4 MLOAD SWAP1 DUP4 ADD SWAP1 PUSH2 0x134A DUP2 DUP4 PUSH1 0x20 DUP9 ADD PUSH2 0xE14 JUMP JUMPDEST PUSH3 0xE697A5 PUSH1 0xE8 SHL SWAP2 ADD SWAP1 DUP2 MSTORE PUSH1 0x3 ADD SWAP5 SWAP4 POP POP POP POP JUMP JUMPDEST PUSH1 0x0 DUP4 MLOAD PUSH2 0x1373 DUP2 DUP5 PUSH1 0x20 DUP9 ADD PUSH2 0xE14 JUMP JUMPDEST DUP4 MLOAD SWAP1 DUP4 ADD SWAP1 PUSH2 0x1387 DUP2 DUP4 PUSH1 0x20 DUP9 ADD PUSH2 0xE14 JUMP JUMPDEST PUSH3 0x734BDB PUSH1 0xE9 SHL SWAP2 ADD SWAP1 DUP2 MSTORE PUSH1 0x3 ADD SWAP5 SWAP4 POP POP POP POP JUMP JUMPDEST PUSH1 0x0 DUP4 MLOAD PUSH2 0x13B0 DUP2 DUP5 PUSH1 0x20 DUP9 ADD PUSH2 0xE14 JUMP JUMPDEST DUP4 MLOAD SWAP1 DUP4 ADD SWAP1 PUSH2 0x13C4 DUP2 DUP4 PUSH1 0x20 DUP9 ADD PUSH2 0xE14 JUMP JUMPDEST PUSH3 0x72C443 PUSH1 0xE9 SHL SWAP2 ADD SWAP1 DUP2 MSTORE PUSH1 0x3 ADD SWAP5 SWAP4 POP POP POP POP JUMP JUMPDEST PUSH1 0x0 DUP4 MLOAD PUSH2 0x13ED DUP2 DUP5 PUSH1 0x20 DUP9 ADD PUSH2 0xE14 JUMP JUMPDEST DUP4 MLOAD SWAP1 DUP4 ADD SWAP1 PUSH2 0x1401 DUP2 DUP4 PUSH1 0x20 DUP9 ADD PUSH2 0xE14 JUMP JUMPDEST PUSH3 0x73D3C9 PUSH1 0xE9 SHL SWAP2 ADD SWAP1 DUP2 MSTORE PUSH1 0x3 ADD SWAP5 SWAP4 POP POP POP POP JUMP JUMPDEST PUSH1 0x0 PUSH2 0xFFFF DUP1 DUP5 AND DUP1 PUSH2 0x142D JUMPI PUSH2 0x142D PUSH2 0x1064 JUMP JUMPDEST SWAP3 AND SWAP2 SWAP1 SWAP2 MOD SWAP3 SWAP2 POP POP JUMP JUMPDEST PUSH1 0x0 PUSH1 0x1 DUP3 ADD PUSH2 0x144B JUMPI PUSH2 0x144B PUSH2 0x107A JUMP JUMPDEST POP PUSH1 0x1 ADD SWAP1 JUMP JUMPDEST PUSH4 0x4E487B71 PUSH1 0xE0 SHL PUSH1 0x0 MSTORE PUSH1 0x41 PUSH1 0x4 MSTORE PUSH1 0x24 PUSH1 0x0 REVERT JUMPDEST PUSH1 0x0 PUSH1 0xFF DUP3 AND PUSH1 0xFF DUP2 SUB PUSH2 0x147E JUMPI PUSH2 0x147E PUSH2 0x107A JUMP JUMPDEST PUSH1 0x1 ADD SWAP3 SWAP2 POP POP JUMP INVALID LOG2 PUSH5 0x6970667358 0x22 SLT KECCAK256 STOP 0xBC PUSH5 0x5F46428F82 0x4B SWAP6 XOR 0x4A ISZERO 0xF7 PUSH15 0x52335EA3FF7B1D94F3A1E95C491296 0xB2 DUP16 PUSH5 0x736F6C6343 STOP ADDMOD 0xD STOP CALLER ",
  "sha1": "a248a08e6ec651e1df14df078cb7158f350d834f",
  "source": "// SPDX-License-Identifier: MIT\n\npragma solidity ^0.8.4;\n\nimport \"@openzeppelin/contracts/utils/Strings.sol\";\n\ncontract DateTime {\n    /*\n     *  Date and Time utilities for ethereum contracts\n     *\n     */\n    using Strings for uint256;\n    struct _DateTime {\n        uint16 year;\n        uint8 month;\n        uint8 day;\n        uint8 hour;\n        uint8 minute;\n        uint8 second;\n        uint8 weekday;\n    }\n\n    uint256 constant DAY_IN_SECONDS = 86400;\n    uint256 constant YEAR_IN_SECONDS = 31536000;\n    uint256 constant LEAP_YEAR_IN_SECONDS = 31622400;\n\n    uint256 constant HOUR_IN_SECONDS = 3600;\n    uint256 constant MINUTE_IN_SECONDS = 60;\n\n    uint16 constant ORIGIN_YEAR = 1970;\n\n    function timeToDateCN(uint256 timestamp)\n        external\n        pure\n        returns (string memory)\n    {\n        // if (timestamp < block.timestamp) {\n        //     return unicode\"已结束\";\n        // }\n\n        bytes memory info = unicode\"北京时区（CST） \";\n\n        uint256 i = getYear(timestamp);\n        if (i > 0) {\n            info = abi.encodePacked(info, i.toString(), unicode\"年\");\n        }\n        i = getMonth(timestamp);\n        if (i > 0) {\n            info = abi.encodePacked(info, i.toString(), unicode\"月\");\n        }\n        i = getDay(timestamp);\n        if (i > 0) {\n            info = abi.encodePacked(info, i.toString(), unicode\"日\");\n        }\n        i = (getHour(timestamp) + 8) % 24; // 北京时间（BJT），又名中国标准时间（China Standard Time，CST），是中国大陆的标准时间，比世界協調時快八小時（即UTC+8）\n        if (i > 0) {\n            info = abi.encodePacked(info, i.toString(), unicode\"时\");\n        }\n        i = getMinute(timestamp);\n        if (i > 0) {\n            info = abi.encodePacked(info, i.toString(), unicode\"分\");\n        }\n        i = getSecond(timestamp);\n        if (i > 0) {\n            info = abi.encodePacked(info, i.toString(), unicode\"秒\");\n        }\n\n        return string(info);\n    }\n\n    function timeToDate(uint256 timestamp)\n        external\n        pure\n        returns (string memory)\n    {\n        // if (timestamp < block.timestamp) {\n        //     return unicode\"已结束\";\n        // }\n\n        bytes memory info = \"CST \";\n\n        uint256 i = getYear(timestamp);\n        if (i > 0) {\n            info = abi.encodePacked(info, i.toString(), \"/\");\n        }\n        i = getMonth(timestamp);\n        if (i > 0) {\n            info = abi.encodePacked(info, i.toString(), \"/\");\n        }\n        i = getDay(timestamp);\n        if (i > 0) {\n            info = abi.encodePacked(info, i.toString(), \" \");\n        }\n        i = (getHour(timestamp) + 8) % 24; // 北京时间（BJT），又名中国标准时间（China Standard Time，CST），是中国大陆的标准时间，比世界協調時快八小時（即UTC+8）\n        if (i > 0) {\n            info = abi.encodePacked(info, i.toString(), \":\");\n        }\n        i = getMinute(timestamp);\n        if (i > 0) {\n            info = abi.encodePacked(info, i.toString(), \":\");\n        }\n        i = getSecond(timestamp);\n        if (i > 0) {\n            info = abi.encodePacked(info, i.toString());\n        }\n\n        return string(info);\n    }\n\n    function isLeapYear(uint16 year) public pure returns (bool) {\n        if (year % 4 != 0) {\n            return false;\n        }\n        if (year % 100 != 0) {\n            return true;\n        }\n        if (year % 400 != 0) {\n            return false;\n        }\n        return true;\n    }\n\n    function leapYearsBefore(uint256 year) public pure returns (uint256) {\n        year -= 1;\n        return year / 4 - year / 100 + year / 400;\n    }\n\n    function getDaysInMonth(uint8 month, uint16 year)\n        public\n        pure\n        returns (uint8)\n    {\n        if (\n            month == 1 ||\n            month == 3 ||\n            month == 5 ||\n            month == 7 ||\n            month == 8 ||\n            month == 10 ||\n            month == 12\n        ) {\n            return 31;\n        } else if (month == 4 || month == 6 || month == 9 || month == 11) {\n            return 30;\n        } else if (isLeapYear(year)) {\n            return 29;\n        } else {\n            return 28;\n        }\n    }\n\n    function parseTimestamp(uint256 timestamp)\n        internal\n        pure\n        returns (_DateTime memory dt)\n    {\n        uint256 secondsAccountedFor = 0;\n        uint256 buf;\n        uint8 i;\n\n        // Year\n        dt.year = getYear(timestamp);\n        buf = leapYearsBefore(dt.year) - leapYearsBefore(ORIGIN_YEAR);\n\n        secondsAccountedFor += LEAP_YEAR_IN_SECONDS * buf;\n        secondsAccountedFor += YEAR_IN_SECONDS * (dt.year - ORIGIN_YEAR - buf);\n\n        // Month\n        uint256 secondsInMonth;\n        for (i = 1; i <= 12; i++) {\n            secondsInMonth = DAY_IN_SECONDS * getDaysInMonth(i, dt.year);\n            if (secondsInMonth + secondsAccountedFor > timestamp) {\n                dt.month = i;\n                break;\n            }\n            secondsAccountedFor += secondsInMonth;\n        }\n\n        // Day\n        for (i = 1; i <= getDaysInMonth(dt.month, dt.year); i++) {\n            if (DAY_IN_SECONDS + secondsAccountedFor > timestamp) {\n                dt.day = i;\n                break;\n            }\n            secondsAccountedFor += DAY_IN_SECONDS;\n        }\n\n        // Hour\n        dt.hour = getHour(timestamp);\n\n        // Minute\n        dt.minute = getMinute(timestamp);\n\n        // Second\n        dt.second = getSecond(timestamp);\n\n        // Day of week.\n        dt.weekday = getWeekday(timestamp);\n    }\n\n    function getYear(uint256 timestamp) public pure returns (uint16) {\n        uint256 secondsAccountedFor = 0;\n        uint16 year;\n        uint256 numLeapYears;\n\n        // Year\n        year = uint16(ORIGIN_YEAR + timestamp / YEAR_IN_SECONDS);\n        numLeapYears = leapYearsBefore(year) - leapYearsBefore(ORIGIN_YEAR);\n\n        secondsAccountedFor += LEAP_YEAR_IN_SECONDS * numLeapYears;\n        secondsAccountedFor +=\n            YEAR_IN_SECONDS *\n            (year - ORIGIN_YEAR - numLeapYears);\n\n        while (secondsAccountedFor > timestamp) {\n            if (isLeapYear(uint16(year - 1))) {\n                secondsAccountedFor -= LEAP_YEAR_IN_SECONDS;\n            } else {\n                secondsAccountedFor -= YEAR_IN_SECONDS;\n            }\n            year -= 1;\n        }\n        return year;\n    }\n\n    function getMonth(uint256 timestamp) public pure returns (uint8) {\n        return parseTimestamp(timestamp).month;\n    }\n\n    function getDay(uint256 timestamp) public pure returns (uint8) {\n        return parseTimestamp(timestamp).day;\n    }\n\n    function getHour(uint256 timestamp) public pure returns (uint8) {\n        return uint8((timestamp / 60 / 60) % 24);\n    }\n\n    function getMinute(uint256 timestamp) public pure returns (uint8) {\n        return uint8((timestamp / 60) % 60);\n    }\n\n    function getSecond(uint256 timestamp) public pure returns (uint8) {\n        return uint8(timestamp % 60);\n    }\n\n    function getWeekday(uint256 timestamp) public pure returns (uint8) {\n        return uint8((timestamp / DAY_IN_SECONDS + 4) % 7);\n    }\n\n    function toTimestamp(\n        uint16 year,\n        uint8 month,\n        uint8 day\n    ) public pure returns (uint256 timestamp) {\n        return toTimestamp(year, month, day, 0, 0, 0);\n    }\n\n    function toTimestamp(\n        uint16 year,\n        uint8 month,\n        uint8 day,\n        uint8 hour\n    ) public pure returns (uint256 timestamp) {\n        return toTimestamp(year, month, day, hour, 0, 0);\n    }\n\n    function toTimestamp(\n        uint16 year,\n        uint8 month,\n        uint8 day,\n        uint8 hour,\n        uint8 minute\n    ) public pure returns (uint256 timestamp) {\n        return toTimestamp(year, month, day, hour, minute, 0);\n    }\n\n    function toTimestamp(\n        uint16 year,\n        uint8 month,\n        uint8 day,\n        uint8 hour,\n        uint8 minute,\n        uint8 second\n    ) public pure returns (uint256 timestamp) {\n        uint16 i;\n\n        // Year\n        for (i = ORIGIN_YEAR; i < year; i++) {\n            if (isLeapYear(i)) {\n                timestamp += LEAP_YEAR_IN_SECONDS;\n            } else {\n                timestamp += YEAR_IN_SECONDS;\n            }\n        }\n\n        // Month\n        uint8[12] memory monthDayCounts;\n        monthDayCounts[0] = 31;\n        if (isLeapYear(year)) {\n            monthDayCounts[1] = 29;\n        } else {\n            monthDayCounts[1] = 28;\n        }\n        monthDayCounts[2] = 31;\n        monthDayCounts[3] = 30;\n        monthDayCounts[4] = 31;\n        monthDayCounts[5] = 30;\n        monthDayCounts[6] = 31;\n        monthDayCounts[7] = 31;\n        monthDayCounts[8] = 30;\n        monthDayCounts[9] = 31;\n        monthDayCounts[10] = 30;\n        monthDayCounts[11] = 31;\n\n        for (i = 1; i < month; i++) {\n            timestamp += DAY_IN_SECONDS * monthDayCounts[i - 1];\n        }\n\n        // Day\n        timestamp += DAY_IN_SECONDS * (day - 1);\n\n        // Hour\n        timestamp += HOUR_IN_SECONDS * (hour);\n\n        // Minute\n        timestamp += MINUTE_IN_SECONDS * (minute);\n\n        // Second\n        timestamp += second;\n\n        return timestamp;\n    }\n}\n",
  "sourcePath": "contracts/DateTime.sol",
  "type": "contract"
}