{
  "abi": [
    {
      "anonymous": false,
      "inputs": [
        {
          "indexed": true,
          "internalType": "string",
          "name": "domain",
          "type": "string"
        },
        {
          "indexed": false,
          "internalType": "string",
          "name": "key",
          "type": "string"
        },
        {
          "indexed": false,
          "internalType": "bytes",
          "name": "data",
          "type": "bytes"
        },
        {
          "indexed": true,
          "internalType": "address",
          "name": "from",
          "type": "address"
        }
      ],
      "name": "record",
      "type": "event"
    },
    {
      "inputs": [
        {
          "internalType": "string",
          "name": "_domain",
          "type": "string"
        },
        {
          "internalType": "string",
          "name": "_key",
          "type": "string"
        }
      ],
      "name": "get",
      "outputs": [
        {
          "internalType": "bytes",
          "name": "",
          "type": "bytes"
        }
      ],
      "stateMutability": "view",
      "type": "function"
    },
    {
      "inputs": [
        {
          "internalType": "string",
          "name": "_domain",
          "type": "string"
        },
        {
          "internalType": "string",
          "name": "_key",
          "type": "string"
        },
        {
          "internalType": "bool",
          "name": "_personal",
          "type": "bool"
        }
      ],
      "name": "get",
      "outputs": [
        {
          "internalType": "bytes",
          "name": "",
          "type": "bytes"
        }
      ],
      "stateMutability": "view",
      "type": "function"
    },
    {
      "inputs": [
        {
          "internalType": "string",
          "name": "_domain",
          "type": "string"
        }
      ],
      "name": "getKeys",
      "outputs": [
        {
          "internalType": "string[]",
          "name": "",
          "type": "string[]"
        }
      ],
      "stateMutability": "view",
      "type": "function"
    },
    {
      "inputs": [
        {
          "internalType": "string",
          "name": "_domain",
          "type": "string"
        },
        {
          "internalType": "bool",
          "name": "_personal",
          "type": "bool"
        }
      ],
      "name": "getKeys",
      "outputs": [
        {
          "internalType": "string[]",
          "name": "",
          "type": "string[]"
        }
      ],
      "stateMutability": "view",
      "type": "function"
    },
    {
      "inputs": [
        {
          "internalType": "string",
          "name": "_domain",
          "type": "string"
        }
      ],
      "name": "getOwner",
      "outputs": [
        {
          "internalType": "address",
          "name": "",
          "type": "address"
        }
      ],
      "stateMutability": "view",
      "type": "function"
    },
    {
      "inputs": [
        {
          "internalType": "string",
          "name": "_domain",
          "type": "string"
        },
        {
          "internalType": "string",
          "name": "_key",
          "type": "string"
        },
        {
          "internalType": "bytes",
          "name": "_data",
          "type": "bytes"
        },
        {
          "internalType": "enum DDS.DATATYPE",
          "name": "_type",
          "type": "uint8"
        }
      ],
      "name": "put",
      "outputs": [],
      "stateMutability": "nonpayable",
      "type": "function"
    },
    {
      "inputs": [
        {
          "internalType": "string",
          "name": "_domain",
          "type": "string"
        },
        {
          "internalType": "string",
          "name": "_key",
          "type": "string"
        },
        {
          "internalType": "bytes",
          "name": "_data",
          "type": "bytes"
        }
      ],
      "name": "put",
      "outputs": [],
      "stateMutability": "nonpayable",
      "type": "function"
    },
    {
      "inputs": [
        {
          "internalType": "bytes",
          "name": "input",
          "type": "bytes"
        },
        {
          "internalType": "bytes",
          "name": "mark",
          "type": "bytes"
        },
        {
          "internalType": "bytes",
          "name": "value",
          "type": "bytes"
        }
      ],
      "name": "setValue",
      "outputs": [
        {
          "internalType": "bytes",
          "name": "output",
          "type": "bytes"
        }
      ],
      "stateMutability": "pure",
      "type": "function"
    },
    {
      "inputs": [
        {
          "internalType": "bytes",
          "name": "b",
          "type": "bytes"
        }
      ],
      "name": "toAddress",
      "outputs": [
        {
          "internalType": "address",
          "name": "addr",
          "type": "address"
        }
      ],
      "stateMutability": "pure",
      "type": "function"
    },
    {
      "inputs": [
        {
          "internalType": "bytes",
          "name": "b",
          "type": "bytes"
        }
      ],
      "name": "toBool",
      "outputs": [
        {
          "internalType": "bool",
          "name": "",
          "type": "bool"
        }
      ],
      "stateMutability": "pure",
      "type": "function"
    },
    {
      "inputs": [
        {
          "internalType": "bytes",
          "name": "b",
          "type": "bytes"
        }
      ],
      "name": "toInt",
      "outputs": [
        {
          "internalType": "uint256",
          "name": "value",
          "type": "uint256"
        }
      ],
      "stateMutability": "pure",
      "type": "function"
    }
  ],
  "bytecode": "608060405234801561001057600080fd5b50611870806100206000396000f3fe608060405234801561001057600080fd5b50600436106100a95760003560e01c8063b39028c011610071578063b39028c014610147578063bca8959b1461015c578063c5061a911461017c578063c95772741461018f578063df04fedc146101b3578063fc8d1186146101c657600080fd5b8063187560ca146100ae5780632d888869146100d45780633e10510b146101015780634aaf4a12146101215780637c4165f214610134575b600080fd5b6100c16100bc366004611023565b6101d9565b6040519081526020015b60405180910390f35b6100e96100e2366004611108565b6014015190565b6040516001600160a01b0390911681526020016100cb565b61011461010f36600461113d565b610258565b6040516100cb91906111f6565b6100e961012f366004611023565b610271565b610114610142366004611209565b6102c1565b61015a610155366004611291565b61051f565b005b61016f61016a366004611023565b610671565b6040516100cb9190611343565b61016f61018a3660046113ba565b610686565b6101a361019d366004611023565b15919050565b60405190151581526020016100cb565b6101146101c136600461140e565b6106b0565b61015a6101d436600461148f565b6106e0565b6000805b82811015610251576101f081600161153f565b6101fa9084611557565b61020590600861156e565b610210906002611671565b8484838181106102225761022261167d565b6102339392013560f81c905061156e565b61023d908361153f565b91508061024981611693565b9150506101dd565b5092915050565b60606102688585858560006106b0565b95945050505050565b600080600084846040516020016102899291906116ac565b60408051601f19818403018152918152815160209283012083529082019290925201600020546001600160a01b031690505b92915050565b606081518351101561030c5760405162461bcd60e51b815260206004820152600f60248201526e6c656e677468206f766572666c6f7760881b60448201526064015b60405180910390fd5b6000835167ffffffffffffffff81111561032857610328611065565b6040519080825280601f01601f191660200182016040528015610352576020820181803683370190505b50905060005b84518110156103f65783518110156103b55783818151811061037c5761037c61167d565b602001015160f81c60f81b8282815181106103995761039961167d565b60200101906001600160f81b031916908160001a9053506103e4565b602060f81b8282815181106103cc576103cc61167d565b60200101906001600160f81b031916908160001a9053505b806103ee81611693565b915050610358565b5084915083518551106105175760005b845186516104149190611557565b81116105155760005b8551811015610488578581815181106104385761043861167d565b01602001516001600160f81b03191687610452838561153f565b815181106104625761046261167d565b01602001516001600160f81b03191603610488578061048081611693565b91505061041d565b85518103610502575060005b8551811015610502578281815181106104af576104af61167d565b01602001516001600160f81b031916876104c9838561153f565b815181106104d9576104d961167d565b60200101906001600160f81b031916908160001a905350806104fa81611693565b915050610494565b508061050d81611693565b915050610406565b505b509392505050565b600160006002836003811115610537576105376116bc565b148061055457506003836003811115610552576105526116bc565b145b156105b15760018060008b8b6040516020016105719291906116ac565b60405160208183030381529060405280519060200120815260200190815260200160002060006101000a81548160ff021916908315150217905550600091505b60028360038111156105c5576105c56116bc565b14806105e2575060008360038111156105e0576105e06116bc565b145b156105ee5750336105f1565b50325b6106008989898989898761074e565b811561066657806001600160a01b031689896040516106209291906116ac565b60405180910390207f6ecad9f94981eb4403f65d9d9a69ff4832b5261dc449889f8c08ecc2d3f3610b8989898960405161065d94939291906116fb565b60405180910390a35b505050505050505050565b606061067f83836000610686565b9392505050565b60608161069d57610698848433610b94565b6106a8565b6106a8848432610b94565b949350505050565b6060816106c9576106c48686868633610d16565b6106d6565b6106d68686868632610d16565b9695505050505050565b6106ef8686868686863361074e565b604051339061070190889088906116ac565b60405180910390207f6ecad9f94981eb4403f65d9d9a69ff4832b5261dc449889f8c08ecc2d3f3610b8686868660405161073e94939291906116fb565b60405180910390a3505050505050565b600087876040516020016107639291906116ac565b604051602081830303815290604052805190602001209050600088888888604051602001610794949392919061172d565b60408051601f1981840301815291815281516020928301206000858152928390529120549091506001600160a01b03168015806107e25750836001600160a01b0316816001600160a01b0316145b6108225760405162461bcd60e51b815260206004820152601160248201527049642075736564206279206f746865727360781b6044820152606401610303565b6001600160a01b03811661085857600083815260208190526040902080546001600160a01b0319166001600160a01b0386161790555b6000859003610a8d57600082815260026020526040812061087891610e89565b600083815260036020526040812054908190036108985750505050610b8b565b6000805b6108a7600184611557565b8210156109c25760008681526003602052604090208054839081106108ce576108ce61167d565b906000526020600020016040516020016108e89190611789565b604051602081830303815290604052805190602001208b8b6040516020016109119291906116ac565b6040516020818303038152906040528051906020012003610930575060015b80156109b057600086815260036020526040902061094f83600161153f565b8154811061095f5761095f61167d565b9060005260206000200160036000888152602001908152602001600020838154811061098d5761098d61167d565b906000526020600020019080546109a39061174f565b6109ae929190610ec6565b505b816109ba81611693565b92505061089c565b8080610a44575060008681526003602052604090208054839081106109e9576109e961167d565b90600052602060002001604051602001610a039190611789565b604051602081830303815290604052805190602001208b8b604051602001610a2c9291906116ac565b60405160208183030381529060405280519060200120145b15610a85576000868152600360205260409020805480610a6657610a66611824565b600190038181906000526020600020016000610a829190610e89565b90555b505050610b87565b6000828152600260205260409020610aa6908787610f51565b50600083815260036020526040812054905b81811015610b5a576000858152600360205260409020805482908110610ae057610ae061167d565b90600052602060002001604051602001610afa9190611789565b604051602081830303815290604052805190602001208a8a604051602001610b239291906116ac565b6040516020818303038152906040528051906020012003610b48575050505050610b8b565b80610b5281611693565b915050610ab8565b506000848152600360209081526040822080546001810182559083529120610b8491018a8a610f51565b50505b5050505b50505050505050565b606060008484604051602001610bab9291906116ac565b60408051601f1981840301815291815281516020928301206000818152600190935291205490915060ff1615610c33576000818152602081905260409020546001600160a01b03848116911614610c335760405162461bcd60e51b815260206004820152600c60248201526b70726976617465206461746160a01b6044820152606401610303565b600081815260036020908152604080832080548251818502810185019093528083529193909284015b82821015610d08578382906000526020600020018054610c7b9061174f565b80601f0160208091040260200160405190810160405280929190818152602001828054610ca79061174f565b8015610cf45780601f10610cc957610100808354040283529160200191610cf4565b820191906000526020600020905b815481529060010190602001808311610cd757829003601f168201915b505050505081526020019060010190610c5c565b505050509150509392505050565b606060008686604051602001610d2d9291906116ac565b60408051601f1981840301815291815281516020928301206000818152600190935291205490915060ff1615610db5576000818152602081905260409020546001600160a01b03848116911614610db55760405162461bcd60e51b815260206004820152600c60248201526b70726976617465206461746160a01b6044820152606401610303565b6002600088888888604051602001610dd0949392919061172d565b6040516020818303038152906040528051906020012081526020019081526020016000208054610dff9061174f565b80601f0160208091040260200160405190810160405280929190818152602001828054610e2b9061174f565b8015610e785780601f10610e4d57610100808354040283529160200191610e78565b820191906000526020600020905b815481529060010190602001808311610e5b57829003601f168201915b505050505091505095945050505050565b508054610e959061174f565b6000825580601f10610ea5575050565b601f016020900490600052602060002090810190610ec39190610fc5565b50565b828054610ed29061174f565b90600052602060002090601f016020900481019282610ef45760008555610f41565b82601f10610f055780548555610f41565b82800160010185558215610f4157600052602060002091601f016020900482015b82811115610f41578254825591600101919060010190610f26565b50610f4d929150610fc5565b5090565b828054610f5d9061174f565b90600052602060002090601f016020900481019282610f7f5760008555610f41565b82601f10610f985782800160ff19823516178555610f41565b82800160010185558215610f41579182015b82811115610f41578235825591602001919060010190610faa565b5b80821115610f4d5760008155600101610fc6565b60008083601f840112610fec57600080fd5b50813567ffffffffffffffff81111561100457600080fd5b60208301915083602082850101111561101c57600080fd5b9250929050565b6000806020838503121561103657600080fd5b823567ffffffffffffffff81111561104d57600080fd5b61105985828601610fda565b90969095509350505050565b634e487b7160e01b600052604160045260246000fd5b600082601f83011261108c57600080fd5b813567ffffffffffffffff808211156110a7576110a7611065565b604051601f8301601f19908116603f011681019082821181831017156110cf576110cf611065565b816040528381528660208588010111156110e857600080fd5b836020870160208301376000602085830101528094505050505092915050565b60006020828403121561111a57600080fd5b813567ffffffffffffffff81111561113157600080fd5b6106a88482850161107b565b6000806000806040858703121561115357600080fd5b843567ffffffffffffffff8082111561116b57600080fd5b61117788838901610fda565b9096509450602087013591508082111561119057600080fd5b5061119d87828801610fda565b95989497509550505050565b6000815180845260005b818110156111cf576020818501810151868301820152016111b3565b818111156111e1576000602083870101525b50601f01601f19169290920160200192915050565b60208152600061067f60208301846111a9565b60008060006060848603121561121e57600080fd5b833567ffffffffffffffff8082111561123657600080fd5b6112428783880161107b565b9450602086013591508082111561125857600080fd5b6112648783880161107b565b9350604086013591508082111561127a57600080fd5b506112878682870161107b565b9150509250925092565b60008060008060008060006080888a0312156112ac57600080fd5b873567ffffffffffffffff808211156112c457600080fd5b6112d08b838c01610fda565b909950975060208a01359150808211156112e957600080fd5b6112f58b838c01610fda565b909750955060408a013591508082111561130e57600080fd5b5061131b8a828b01610fda565b90945092505060608801356004811061133357600080fd5b8091505092959891949750929550565b6000602080830181845280855180835260408601915060408160051b870101925083870160005b8281101561139857603f198886030184526113868583516111a9565b9450928501929085019060010161136a565b5092979650505050505050565b803580151581146113b557600080fd5b919050565b6000806000604084860312156113cf57600080fd5b833567ffffffffffffffff8111156113e657600080fd5b6113f286828701610fda565b90945092506114059050602085016113a5565b90509250925092565b60008060008060006060868803121561142657600080fd5b853567ffffffffffffffff8082111561143e57600080fd5b61144a89838a01610fda565b9097509550602088013591508082111561146357600080fd5b5061147088828901610fda565b90945092506114839050604087016113a5565b90509295509295909350565b600080600080600080606087890312156114a857600080fd5b863567ffffffffffffffff808211156114c057600080fd5b6114cc8a838b01610fda565b909850965060208901359150808211156114e557600080fd5b6114f18a838b01610fda565b9096509450604089013591508082111561150a57600080fd5b5061151789828a01610fda565b979a9699509497509295939492505050565b634e487b7160e01b600052601160045260246000fd5b6000821982111561155257611552611529565b500190565b60008282101561156957611569611529565b500390565b600081600019048311821515161561158857611588611529565b500290565b600181815b808511156115c85781600019048211156115ae576115ae611529565b808516156115bb57918102915b93841c9390800290611592565b509250929050565b6000826115df575060016102bb565b816115ec575060006102bb565b8160018114611602576002811461160c57611628565b60019150506102bb565b60ff84111561161d5761161d611529565b50506001821b6102bb565b5060208310610133831016604e8410600b841016171561164b575081810a6102bb565b611655838361158d565b806000190482111561166957611669611529565b029392505050565b600061067f83836115d0565b634e487b7160e01b600052603260045260246000fd5b6000600182016116a5576116a5611529565b5060010190565b8183823760009101908152919050565b634e487b7160e01b600052602160045260246000fd5b81835281816020850137506000828201602090810191909152601f909101601f19169091010190565b60408152600061170f6040830186886116d2565b82810360208401526117228185876116d2565b979650505050505050565b8385823760008482016000815283858237600093019283525090949350505050565b600181811c9082168061176357607f821691505b60208210810361178357634e487b7160e01b600052602260045260246000fd5b50919050565b600080835481600182811c9150808316806117a557607f831692505b602080841082036117c457634e487b7160e01b86526022600452602486fd5b8180156117d857600181146117e957611816565b60ff19861689528489019650611816565b60008a81526020902060005b8681101561180e5781548b8201529085019083016117f5565b505084890196505b509498975050505050505050565b634e487b7160e01b600052603160045260246000fdfea264697066735822122020b0d44fdbba364bd147251717e11d7dc2c232f6c7085974a41658d5b114458564736f6c634300080d0033",
  "bytecodeSha1": "b07688ece9275c2d7f67599f4834aa9d34f54904",
  "compiler": {
    "evm_version": "istanbul",
    "optimizer": {
      "enabled": true,
      "runs": 200
    },
    "version": "0.8.13+commit.abaa5c0e"
  },
  "contractName": "DDS",
  "language": "Solidity",
  "natspec": {
    "kind": "dev",
    "methods": {},
    "version": 1
  },
  "opcodes": "PUSH1 0x80 PUSH1 0x40 MSTORE CALLVALUE DUP1 ISZERO PUSH2 0x10 JUMPI PUSH1 0x0 DUP1 REVERT JUMPDEST POP PUSH1 0x4 CALLDATASIZE LT PUSH2 0xA9 JUMPI PUSH1 0x0 CALLDATALOAD PUSH1 0xE0 SHR DUP1 PUSH4 0xB39028C0 GT PUSH2 0x71 JUMPI DUP1 PUSH4 0xB39028C0 EQ PUSH2 0x147 JUMPI DUP1 PUSH4 0xBCA8959B EQ PUSH2 0x15C JUMPI DUP1 PUSH4 0xC5061A91 EQ PUSH2 0x17C JUMPI DUP1 PUSH4 0xC9577274 EQ PUSH2 0x18F JUMPI DUP1 PUSH4 0xDF04FEDC EQ PUSH2 0x1B3 JUMPI DUP1 PUSH4 0xFC8D1186 EQ PUSH2 0x1C6 JUMPI PUSH1 0x0 DUP1 REVERT JUMPDEST DUP1 PUSH4 0x187560CA EQ PUSH2 0xAE JUMPI DUP1 PUSH4 0x2D888869 EQ PUSH2 0xD4 JUMPI DUP1 PUSH4 0x3E10510B EQ PUSH2 0x101 JUMPI DUP1 PUSH4 0x4AAF4A12 EQ PUSH2 0x121 JUMPI DUP1 PUSH4 0x7C4165F2 EQ PUSH2 0x134 JUMPI JUMPDEST PUSH1 0x0 DUP1 REVERT JUMPDEST PUSH2 0xC1 PUSH2 0xBC CALLDATASIZE PUSH1 0x4 PUSH2 0x1023 JUMP JUMPDEST PUSH2 0x1D9 JUMP JUMPDEST PUSH1 0x40 MLOAD SWAP1 DUP2 MSTORE PUSH1 0x20 ADD JUMPDEST PUSH1 0x40 MLOAD DUP1 SWAP2 SUB SWAP1 RETURN JUMPDEST PUSH2 0xE9 PUSH2 0xE2 CALLDATASIZE PUSH1 0x4 PUSH2 0x1108 JUMP JUMPDEST PUSH1 0x14 ADD MLOAD SWAP1 JUMP JUMPDEST PUSH1 0x40 MLOAD PUSH1 0x1 PUSH1 0x1 PUSH1 0xA0 SHL SUB SWAP1 SWAP2 AND DUP2 MSTORE PUSH1 0x20 ADD PUSH2 0xCB JUMP JUMPDEST PUSH2 0x114 PUSH2 0x10F CALLDATASIZE PUSH1 0x4 PUSH2 0x113D JUMP JUMPDEST PUSH2 0x258 JUMP JUMPDEST PUSH1 0x40 MLOAD PUSH2 0xCB SWAP2 SWAP1 PUSH2 0x11F6 JUMP JUMPDEST PUSH2 0xE9 PUSH2 0x12F CALLDATASIZE PUSH1 0x4 PUSH2 0x1023 JUMP JUMPDEST PUSH2 0x271 JUMP JUMPDEST PUSH2 0x114 PUSH2 0x142 CALLDATASIZE PUSH1 0x4 PUSH2 0x1209 JUMP JUMPDEST PUSH2 0x2C1 JUMP JUMPDEST PUSH2 0x15A PUSH2 0x155 CALLDATASIZE PUSH1 0x4 PUSH2 0x1291 JUMP JUMPDEST PUSH2 0x51F JUMP JUMPDEST STOP JUMPDEST PUSH2 0x16F PUSH2 0x16A CALLDATASIZE PUSH1 0x4 PUSH2 0x1023 JUMP JUMPDEST PUSH2 0x671 JUMP JUMPDEST PUSH1 0x40 MLOAD PUSH2 0xCB SWAP2 SWAP1 PUSH2 0x1343 JUMP JUMPDEST PUSH2 0x16F PUSH2 0x18A CALLDATASIZE PUSH1 0x4 PUSH2 0x13BA JUMP JUMPDEST PUSH2 0x686 JUMP JUMPDEST PUSH2 0x1A3 PUSH2 0x19D CALLDATASIZE PUSH1 0x4 PUSH2 0x1023 JUMP JUMPDEST ISZERO SWAP2 SWAP1 POP JUMP JUMPDEST PUSH1 0x40 MLOAD SWAP1 ISZERO ISZERO DUP2 MSTORE PUSH1 0x20 ADD PUSH2 0xCB JUMP JUMPDEST PUSH2 0x114 PUSH2 0x1C1 CALLDATASIZE PUSH1 0x4 PUSH2 0x140E JUMP JUMPDEST PUSH2 0x6B0 JUMP JUMPDEST PUSH2 0x15A PUSH2 0x1D4 CALLDATASIZE PUSH1 0x4 PUSH2 0x148F JUMP JUMPDEST PUSH2 0x6E0 JUMP JUMPDEST PUSH1 0x0 DUP1 JUMPDEST DUP3 DUP2 LT ISZERO PUSH2 0x251 JUMPI PUSH2 0x1F0 DUP2 PUSH1 0x1 PUSH2 0x153F JUMP JUMPDEST PUSH2 0x1FA SWAP1 DUP5 PUSH2 0x1557 JUMP JUMPDEST PUSH2 0x205 SWAP1 PUSH1 0x8 PUSH2 0x156E JUMP JUMPDEST PUSH2 0x210 SWAP1 PUSH1 0x2 PUSH2 0x1671 JUMP JUMPDEST DUP5 DUP5 DUP4 DUP2 DUP2 LT PUSH2 0x222 JUMPI PUSH2 0x222 PUSH2 0x167D JUMP JUMPDEST PUSH2 0x233 SWAP4 SWAP3 ADD CALLDATALOAD PUSH1 0xF8 SHR SWAP1 POP PUSH2 0x156E JUMP JUMPDEST PUSH2 0x23D SWAP1 DUP4 PUSH2 0x153F JUMP JUMPDEST SWAP2 POP DUP1 PUSH2 0x249 DUP2 PUSH2 0x1693 JUMP JUMPDEST SWAP2 POP POP PUSH2 0x1DD JUMP JUMPDEST POP SWAP3 SWAP2 POP POP JUMP JUMPDEST PUSH1 0x60 PUSH2 0x268 DUP6 DUP6 DUP6 DUP6 PUSH1 0x0 PUSH2 0x6B0 JUMP JUMPDEST SWAP6 SWAP5 POP POP POP POP POP JUMP JUMPDEST PUSH1 0x0 DUP1 PUSH1 0x0 DUP5 DUP5 PUSH1 0x40 MLOAD PUSH1 0x20 ADD PUSH2 0x289 SWAP3 SWAP2 SWAP1 PUSH2 0x16AC JUMP JUMPDEST PUSH1 0x40 DUP1 MLOAD PUSH1 0x1F NOT DUP2 DUP5 SUB ADD DUP2 MSTORE SWAP2 DUP2 MSTORE DUP2 MLOAD PUSH1 0x20 SWAP3 DUP4 ADD KECCAK256 DUP4 MSTORE SWAP1 DUP3 ADD SWAP3 SWAP1 SWAP3 MSTORE ADD PUSH1 0x0 KECCAK256 SLOAD PUSH1 0x1 PUSH1 0x1 PUSH1 0xA0 SHL SUB AND SWAP1 POP JUMPDEST SWAP3 SWAP2 POP POP JUMP JUMPDEST PUSH1 0x60 DUP2 MLOAD DUP4 MLOAD LT ISZERO PUSH2 0x30C JUMPI PUSH1 0x40 MLOAD PUSH3 0x461BCD PUSH1 0xE5 SHL DUP2 MSTORE PUSH1 0x20 PUSH1 0x4 DUP3 ADD MSTORE PUSH1 0xF PUSH1 0x24 DUP3 ADD MSTORE PUSH15 0x6C656E677468206F766572666C6F77 PUSH1 0x88 SHL PUSH1 0x44 DUP3 ADD MSTORE PUSH1 0x64 ADD JUMPDEST PUSH1 0x40 MLOAD DUP1 SWAP2 SUB SWAP1 REVERT JUMPDEST PUSH1 0x0 DUP4 MLOAD PUSH8 0xFFFFFFFFFFFFFFFF DUP2 GT ISZERO PUSH2 0x328 JUMPI PUSH2 0x328 PUSH2 0x1065 JUMP JUMPDEST PUSH1 0x40 MLOAD SWAP1 DUP1 DUP3 MSTORE DUP1 PUSH1 0x1F ADD PUSH1 0x1F NOT AND PUSH1 0x20 ADD DUP3 ADD PUSH1 0x40 MSTORE DUP1 ISZERO PUSH2 0x352 JUMPI PUSH1 0x20 DUP3 ADD DUP2 DUP1 CALLDATASIZE DUP4 CALLDATACOPY ADD SWAP1 POP JUMPDEST POP SWAP1 POP PUSH1 0x0 JUMPDEST DUP5 MLOAD DUP2 LT ISZERO PUSH2 0x3F6 JUMPI DUP4 MLOAD DUP2 LT ISZERO PUSH2 0x3B5 JUMPI DUP4 DUP2 DUP2 MLOAD DUP2 LT PUSH2 0x37C JUMPI PUSH2 0x37C PUSH2 0x167D JUMP JUMPDEST PUSH1 0x20 ADD ADD MLOAD PUSH1 0xF8 SHR PUSH1 0xF8 SHL DUP3 DUP3 DUP2 MLOAD DUP2 LT PUSH2 0x399 JUMPI PUSH2 0x399 PUSH2 0x167D JUMP JUMPDEST PUSH1 0x20 ADD ADD SWAP1 PUSH1 0x1 PUSH1 0x1 PUSH1 0xF8 SHL SUB NOT AND SWAP1 DUP2 PUSH1 0x0 BYTE SWAP1 MSTORE8 POP PUSH2 0x3E4 JUMP JUMPDEST PUSH1 0x20 PUSH1 0xF8 SHL DUP3 DUP3 DUP2 MLOAD DUP2 LT PUSH2 0x3CC JUMPI PUSH2 0x3CC PUSH2 0x167D JUMP JUMPDEST PUSH1 0x20 ADD ADD SWAP1 PUSH1 0x1 PUSH1 0x1 PUSH1 0xF8 SHL SUB NOT AND SWAP1 DUP2 PUSH1 0x0 BYTE SWAP1 MSTORE8 POP JUMPDEST DUP1 PUSH2 0x3EE DUP2 PUSH2 0x1693 JUMP JUMPDEST SWAP2 POP POP PUSH2 0x358 JUMP JUMPDEST POP DUP5 SWAP2 POP DUP4 MLOAD DUP6 MLOAD LT PUSH2 0x517 JUMPI PUSH1 0x0 JUMPDEST DUP5 MLOAD DUP7 MLOAD PUSH2 0x414 SWAP2 SWAP1 PUSH2 0x1557 JUMP JUMPDEST DUP2 GT PUSH2 0x515 JUMPI PUSH1 0x0 JUMPDEST DUP6 MLOAD DUP2 LT ISZERO PUSH2 0x488 JUMPI DUP6 DUP2 DUP2 MLOAD DUP2 LT PUSH2 0x438 JUMPI PUSH2 0x438 PUSH2 0x167D JUMP JUMPDEST ADD PUSH1 0x20 ADD MLOAD PUSH1 0x1 PUSH1 0x1 PUSH1 0xF8 SHL SUB NOT AND DUP8 PUSH2 0x452 DUP4 DUP6 PUSH2 0x153F JUMP JUMPDEST DUP2 MLOAD DUP2 LT PUSH2 0x462 JUMPI PUSH2 0x462 PUSH2 0x167D JUMP JUMPDEST ADD PUSH1 0x20 ADD MLOAD PUSH1 0x1 PUSH1 0x1 PUSH1 0xF8 SHL SUB NOT AND SUB PUSH2 0x488 JUMPI DUP1 PUSH2 0x480 DUP2 PUSH2 0x1693 JUMP JUMPDEST SWAP2 POP POP PUSH2 0x41D JUMP JUMPDEST DUP6 MLOAD DUP2 SUB PUSH2 0x502 JUMPI POP PUSH1 0x0 JUMPDEST DUP6 MLOAD DUP2 LT ISZERO PUSH2 0x502 JUMPI DUP3 DUP2 DUP2 MLOAD DUP2 LT PUSH2 0x4AF JUMPI PUSH2 0x4AF PUSH2 0x167D JUMP JUMPDEST ADD PUSH1 0x20 ADD MLOAD PUSH1 0x1 PUSH1 0x1 PUSH1 0xF8 SHL SUB NOT AND DUP8 PUSH2 0x4C9 DUP4 DUP6 PUSH2 0x153F JUMP JUMPDEST DUP2 MLOAD DUP2 LT PUSH2 0x4D9 JUMPI PUSH2 0x4D9 PUSH2 0x167D JUMP JUMPDEST PUSH1 0x20 ADD ADD SWAP1 PUSH1 0x1 PUSH1 0x1 PUSH1 0xF8 SHL SUB NOT AND SWAP1 DUP2 PUSH1 0x0 BYTE SWAP1 MSTORE8 POP DUP1 PUSH2 0x4FA DUP2 PUSH2 0x1693 JUMP JUMPDEST SWAP2 POP POP PUSH2 0x494 JUMP JUMPDEST POP DUP1 PUSH2 0x50D DUP2 PUSH2 0x1693 JUMP JUMPDEST SWAP2 POP POP PUSH2 0x406 JUMP JUMPDEST POP JUMPDEST POP SWAP4 SWAP3 POP POP POP JUMP JUMPDEST PUSH1 0x1 PUSH1 0x0 PUSH1 0x2 DUP4 PUSH1 0x3 DUP2 GT ISZERO PUSH2 0x537 JUMPI PUSH2 0x537 PUSH2 0x16BC JUMP JUMPDEST EQ DUP1 PUSH2 0x554 JUMPI POP PUSH1 0x3 DUP4 PUSH1 0x3 DUP2 GT ISZERO PUSH2 0x552 JUMPI PUSH2 0x552 PUSH2 0x16BC JUMP JUMPDEST EQ JUMPDEST ISZERO PUSH2 0x5B1 JUMPI PUSH1 0x1 DUP1 PUSH1 0x0 DUP12 DUP12 PUSH1 0x40 MLOAD PUSH1 0x20 ADD PUSH2 0x571 SWAP3 SWAP2 SWAP1 PUSH2 0x16AC JUMP JUMPDEST PUSH1 0x40 MLOAD PUSH1 0x20 DUP2 DUP4 SUB SUB DUP2 MSTORE SWAP1 PUSH1 0x40 MSTORE DUP1 MLOAD SWAP1 PUSH1 0x20 ADD KECCAK256 DUP2 MSTORE PUSH1 0x20 ADD SWAP1 DUP2 MSTORE PUSH1 0x20 ADD PUSH1 0x0 KECCAK256 PUSH1 0x0 PUSH2 0x100 EXP DUP2 SLOAD DUP2 PUSH1 0xFF MUL NOT AND SWAP1 DUP4 ISZERO ISZERO MUL OR SWAP1 SSTORE POP PUSH1 0x0 SWAP2 POP JUMPDEST PUSH1 0x2 DUP4 PUSH1 0x3 DUP2 GT ISZERO PUSH2 0x5C5 JUMPI PUSH2 0x5C5 PUSH2 0x16BC JUMP JUMPDEST EQ DUP1 PUSH2 0x5E2 JUMPI POP PUSH1 0x0 DUP4 PUSH1 0x3 DUP2 GT ISZERO PUSH2 0x5E0 JUMPI PUSH2 0x5E0 PUSH2 0x16BC JUMP JUMPDEST EQ JUMPDEST ISZERO PUSH2 0x5EE JUMPI POP CALLER PUSH2 0x5F1 JUMP JUMPDEST POP ORIGIN JUMPDEST PUSH2 0x600 DUP10 DUP10 DUP10 DUP10 DUP10 DUP10 DUP8 PUSH2 0x74E JUMP JUMPDEST DUP2 ISZERO PUSH2 0x666 JUMPI DUP1 PUSH1 0x1 PUSH1 0x1 PUSH1 0xA0 SHL SUB AND DUP10 DUP10 PUSH1 0x40 MLOAD PUSH2 0x620 SWAP3 SWAP2 SWAP1 PUSH2 0x16AC JUMP JUMPDEST PUSH1 0x40 MLOAD DUP1 SWAP2 SUB SWAP1 KECCAK256 PUSH32 0x6ECAD9F94981EB4403F65D9D9A69FF4832B5261DC449889F8C08ECC2D3F3610B DUP10 DUP10 DUP10 DUP10 PUSH1 0x40 MLOAD PUSH2 0x65D SWAP5 SWAP4 SWAP3 SWAP2 SWAP1 PUSH2 0x16FB JUMP JUMPDEST PUSH1 0x40 MLOAD DUP1 SWAP2 SUB SWAP1 LOG3 JUMPDEST POP POP POP POP POP POP POP POP POP JUMP JUMPDEST PUSH1 0x60 PUSH2 0x67F DUP4 DUP4 PUSH1 0x0 PUSH2 0x686 JUMP JUMPDEST SWAP4 SWAP3 POP POP POP JUMP JUMPDEST PUSH1 0x60 DUP2 PUSH2 0x69D JUMPI PUSH2 0x698 DUP5 DUP5 CALLER PUSH2 0xB94 JUMP JUMPDEST PUSH2 0x6A8 JUMP JUMPDEST PUSH2 0x6A8 DUP5 DUP5 ORIGIN PUSH2 0xB94 JUMP JUMPDEST SWAP5 SWAP4 POP POP POP POP JUMP JUMPDEST PUSH1 0x60 DUP2 PUSH2 0x6C9 JUMPI PUSH2 0x6C4 DUP7 DUP7 DUP7 DUP7 CALLER PUSH2 0xD16 JUMP JUMPDEST PUSH2 0x6D6 JUMP JUMPDEST PUSH2 0x6D6 DUP7 DUP7 DUP7 DUP7 ORIGIN PUSH2 0xD16 JUMP JUMPDEST SWAP7 SWAP6 POP POP POP POP POP POP JUMP JUMPDEST PUSH2 0x6EF DUP7 DUP7 DUP7 DUP7 DUP7 DUP7 CALLER PUSH2 0x74E JUMP JUMPDEST PUSH1 0x40 MLOAD CALLER SWAP1 PUSH2 0x701 SWAP1 DUP9 SWAP1 DUP9 SWAP1 PUSH2 0x16AC JUMP JUMPDEST PUSH1 0x40 MLOAD DUP1 SWAP2 SUB SWAP1 KECCAK256 PUSH32 0x6ECAD9F94981EB4403F65D9D9A69FF4832B5261DC449889F8C08ECC2D3F3610B DUP7 DUP7 DUP7 DUP7 PUSH1 0x40 MLOAD PUSH2 0x73E SWAP5 SWAP4 SWAP3 SWAP2 SWAP1 PUSH2 0x16FB JUMP JUMPDEST PUSH1 0x40 MLOAD DUP1 SWAP2 SUB SWAP1 LOG3 POP POP POP POP POP POP JUMP JUMPDEST PUSH1 0x0 DUP8 DUP8 PUSH1 0x40 MLOAD PUSH1 0x20 ADD PUSH2 0x763 SWAP3 SWAP2 SWAP1 PUSH2 0x16AC JUMP JUMPDEST PUSH1 0x40 MLOAD PUSH1 0x20 DUP2 DUP4 SUB SUB DUP2 MSTORE SWAP1 PUSH1 0x40 MSTORE DUP1 MLOAD SWAP1 PUSH1 0x20 ADD KECCAK256 SWAP1 POP PUSH1 0x0 DUP9 DUP9 DUP9 DUP9 PUSH1 0x40 MLOAD PUSH1 0x20 ADD PUSH2 0x794 SWAP5 SWAP4 SWAP3 SWAP2 SWAP1 PUSH2 0x172D JUMP JUMPDEST PUSH1 0x40 DUP1 MLOAD PUSH1 0x1F NOT DUP2 DUP5 SUB ADD DUP2 MSTORE SWAP2 DUP2 MSTORE DUP2 MLOAD PUSH1 0x20 SWAP3 DUP4 ADD KECCAK256 PUSH1 0x0 DUP6 DUP2 MSTORE SWAP3 DUP4 SWAP1 MSTORE SWAP2 KECCAK256 SLOAD SWAP1 SWAP2 POP PUSH1 0x1 PUSH1 0x1 PUSH1 0xA0 SHL SUB AND DUP1 ISZERO DUP1 PUSH2 0x7E2 JUMPI POP DUP4 PUSH1 0x1 PUSH1 0x1 PUSH1 0xA0 SHL SUB AND DUP2 PUSH1 0x1 PUSH1 0x1 PUSH1 0xA0 SHL SUB AND EQ JUMPDEST PUSH2 0x822 JUMPI PUSH1 0x40 MLOAD PUSH3 0x461BCD PUSH1 0xE5 SHL DUP2 MSTORE PUSH1 0x20 PUSH1 0x4 DUP3 ADD MSTORE PUSH1 0x11 PUSH1 0x24 DUP3 ADD MSTORE PUSH17 0x49642075736564206279206F7468657273 PUSH1 0x78 SHL PUSH1 0x44 DUP3 ADD MSTORE PUSH1 0x64 ADD PUSH2 0x303 JUMP JUMPDEST PUSH1 0x1 PUSH1 0x1 PUSH1 0xA0 SHL SUB DUP2 AND PUSH2 0x858 JUMPI PUSH1 0x0 DUP4 DUP2 MSTORE PUSH1 0x20 DUP2 SWAP1 MSTORE PUSH1 0x40 SWAP1 KECCAK256 DUP1 SLOAD PUSH1 0x1 PUSH1 0x1 PUSH1 0xA0 SHL SUB NOT AND PUSH1 0x1 PUSH1 0x1 PUSH1 0xA0 SHL SUB DUP7 AND OR SWAP1 SSTORE JUMPDEST PUSH1 0x0 DUP6 SWAP1 SUB PUSH2 0xA8D JUMPI PUSH1 0x0 DUP3 DUP2 MSTORE PUSH1 0x2 PUSH1 0x20 MSTORE PUSH1 0x40 DUP2 KECCAK256 PUSH2 0x878 SWAP2 PUSH2 0xE89 JUMP JUMPDEST PUSH1 0x0 DUP4 DUP2 MSTORE PUSH1 0x3 PUSH1 0x20 MSTORE PUSH1 0x40 DUP2 KECCAK256 SLOAD SWAP1 DUP2 SWAP1 SUB PUSH2 0x898 JUMPI POP POP POP POP PUSH2 0xB8B JUMP JUMPDEST PUSH1 0x0 DUP1 JUMPDEST PUSH2 0x8A7 PUSH1 0x1 DUP5 PUSH2 0x1557 JUMP JUMPDEST DUP3 LT ISZERO PUSH2 0x9C2 JUMPI PUSH1 0x0 DUP7 DUP2 MSTORE PUSH1 0x3 PUSH1 0x20 MSTORE PUSH1 0x40 SWAP1 KECCAK256 DUP1 SLOAD DUP4 SWAP1 DUP2 LT PUSH2 0x8CE JUMPI PUSH2 0x8CE PUSH2 0x167D JUMP JUMPDEST SWAP1 PUSH1 0x0 MSTORE PUSH1 0x20 PUSH1 0x0 KECCAK256 ADD PUSH1 0x40 MLOAD PUSH1 0x20 ADD PUSH2 0x8E8 SWAP2 SWAP1 PUSH2 0x1789 JUMP JUMPDEST PUSH1 0x40 MLOAD PUSH1 0x20 DUP2 DUP4 SUB SUB DUP2 MSTORE SWAP1 PUSH1 0x40 MSTORE DUP1 MLOAD SWAP1 PUSH1 0x20 ADD KECCAK256 DUP12 DUP12 PUSH1 0x40 MLOAD PUSH1 0x20 ADD PUSH2 0x911 SWAP3 SWAP2 SWAP1 PUSH2 0x16AC JUMP JUMPDEST PUSH1 0x40 MLOAD PUSH1 0x20 DUP2 DUP4 SUB SUB DUP2 MSTORE SWAP1 PUSH1 0x40 MSTORE DUP1 MLOAD SWAP1 PUSH1 0x20 ADD KECCAK256 SUB PUSH2 0x930 JUMPI POP PUSH1 0x1 JUMPDEST DUP1 ISZERO PUSH2 0x9B0 JUMPI PUSH1 0x0 DUP7 DUP2 MSTORE PUSH1 0x3 PUSH1 0x20 MSTORE PUSH1 0x40 SWAP1 KECCAK256 PUSH2 0x94F DUP4 PUSH1 0x1 PUSH2 0x153F JUMP JUMPDEST DUP2 SLOAD DUP2 LT PUSH2 0x95F JUMPI PUSH2 0x95F PUSH2 0x167D JUMP JUMPDEST SWAP1 PUSH1 0x0 MSTORE PUSH1 0x20 PUSH1 0x0 KECCAK256 ADD PUSH1 0x3 PUSH1 0x0 DUP9 DUP2 MSTORE PUSH1 0x20 ADD SWAP1 DUP2 MSTORE PUSH1 0x20 ADD PUSH1 0x0 KECCAK256 DUP4 DUP2 SLOAD DUP2 LT PUSH2 0x98D JUMPI PUSH2 0x98D PUSH2 0x167D JUMP JUMPDEST SWAP1 PUSH1 0x0 MSTORE PUSH1 0x20 PUSH1 0x0 KECCAK256 ADD SWAP1 DUP1 SLOAD PUSH2 0x9A3 SWAP1 PUSH2 0x174F JUMP JUMPDEST PUSH2 0x9AE SWAP3 SWAP2 SWAP1 PUSH2 0xEC6 JUMP JUMPDEST POP JUMPDEST DUP2 PUSH2 0x9BA DUP2 PUSH2 0x1693 JUMP JUMPDEST SWAP3 POP POP PUSH2 0x89C JUMP JUMPDEST DUP1 DUP1 PUSH2 0xA44 JUMPI POP PUSH1 0x0 DUP7 DUP2 MSTORE PUSH1 0x3 PUSH1 0x20 MSTORE PUSH1 0x40 SWAP1 KECCAK256 DUP1 SLOAD DUP4 SWAP1 DUP2 LT PUSH2 0x9E9 JUMPI PUSH2 0x9E9 PUSH2 0x167D JUMP JUMPDEST SWAP1 PUSH1 0x0 MSTORE PUSH1 0x20 PUSH1 0x0 KECCAK256 ADD PUSH1 0x40 MLOAD PUSH1 0x20 ADD PUSH2 0xA03 SWAP2 SWAP1 PUSH2 0x1789 JUMP JUMPDEST PUSH1 0x40 MLOAD PUSH1 0x20 DUP2 DUP4 SUB SUB DUP2 MSTORE SWAP1 PUSH1 0x40 MSTORE DUP1 MLOAD SWAP1 PUSH1 0x20 ADD KECCAK256 DUP12 DUP12 PUSH1 0x40 MLOAD PUSH1 0x20 ADD PUSH2 0xA2C SWAP3 SWAP2 SWAP1 PUSH2 0x16AC JUMP JUMPDEST PUSH1 0x40 MLOAD PUSH1 0x20 DUP2 DUP4 SUB SUB DUP2 MSTORE SWAP1 PUSH1 0x40 MSTORE DUP1 MLOAD SWAP1 PUSH1 0x20 ADD KECCAK256 EQ JUMPDEST ISZERO PUSH2 0xA85 JUMPI PUSH1 0x0 DUP7 DUP2 MSTORE PUSH1 0x3 PUSH1 0x20 MSTORE PUSH1 0x40 SWAP1 KECCAK256 DUP1 SLOAD DUP1 PUSH2 0xA66 JUMPI PUSH2 0xA66 PUSH2 0x1824 JUMP JUMPDEST PUSH1 0x1 SWAP1 SUB DUP2 DUP2 SWAP1 PUSH1 0x0 MSTORE PUSH1 0x20 PUSH1 0x0 KECCAK256 ADD PUSH1 0x0 PUSH2 0xA82 SWAP2 SWAP1 PUSH2 0xE89 JUMP JUMPDEST SWAP1 SSTORE JUMPDEST POP POP POP PUSH2 0xB87 JUMP JUMPDEST PUSH1 0x0 DUP3 DUP2 MSTORE PUSH1 0x2 PUSH1 0x20 MSTORE PUSH1 0x40 SWAP1 KECCAK256 PUSH2 0xAA6 SWAP1 DUP8 DUP8 PUSH2 0xF51 JUMP JUMPDEST POP PUSH1 0x0 DUP4 DUP2 MSTORE PUSH1 0x3 PUSH1 0x20 MSTORE PUSH1 0x40 DUP2 KECCAK256 SLOAD SWAP1 JUMPDEST DUP2 DUP2 LT ISZERO PUSH2 0xB5A JUMPI PUSH1 0x0 DUP6 DUP2 MSTORE PUSH1 0x3 PUSH1 0x20 MSTORE PUSH1 0x40 SWAP1 KECCAK256 DUP1 SLOAD DUP3 SWAP1 DUP2 LT PUSH2 0xAE0 JUMPI PUSH2 0xAE0 PUSH2 0x167D JUMP JUMPDEST SWAP1 PUSH1 0x0 MSTORE PUSH1 0x20 PUSH1 0x0 KECCAK256 ADD PUSH1 0x40 MLOAD PUSH1 0x20 ADD PUSH2 0xAFA SWAP2 SWAP1 PUSH2 0x1789 JUMP JUMPDEST PUSH1 0x40 MLOAD PUSH1 0x20 DUP2 DUP4 SUB SUB DUP2 MSTORE SWAP1 PUSH1 0x40 MSTORE DUP1 MLOAD SWAP1 PUSH1 0x20 ADD KECCAK256 DUP11 DUP11 PUSH1 0x40 MLOAD PUSH1 0x20 ADD PUSH2 0xB23 SWAP3 SWAP2 SWAP1 PUSH2 0x16AC JUMP JUMPDEST PUSH1 0x40 MLOAD PUSH1 0x20 DUP2 DUP4 SUB SUB DUP2 MSTORE SWAP1 PUSH1 0x40 MSTORE DUP1 MLOAD SWAP1 PUSH1 0x20 ADD KECCAK256 SUB PUSH2 0xB48 JUMPI POP POP POP POP POP PUSH2 0xB8B JUMP JUMPDEST DUP1 PUSH2 0xB52 DUP2 PUSH2 0x1693 JUMP JUMPDEST SWAP2 POP POP PUSH2 0xAB8 JUMP JUMPDEST POP PUSH1 0x0 DUP5 DUP2 MSTORE PUSH1 0x3 PUSH1 0x20 SWAP1 DUP2 MSTORE PUSH1 0x40 DUP3 KECCAK256 DUP1 SLOAD PUSH1 0x1 DUP2 ADD DUP3 SSTORE SWAP1 DUP4 MSTORE SWAP2 KECCAK256 PUSH2 0xB84 SWAP2 ADD DUP11 DUP11 PUSH2 0xF51 JUMP JUMPDEST POP POP JUMPDEST POP POP POP JUMPDEST POP POP POP POP POP POP POP JUMP JUMPDEST PUSH1 0x60 PUSH1 0x0 DUP5 DUP5 PUSH1 0x40 MLOAD PUSH1 0x20 ADD PUSH2 0xBAB SWAP3 SWAP2 SWAP1 PUSH2 0x16AC JUMP JUMPDEST PUSH1 0x40 DUP1 MLOAD PUSH1 0x1F NOT DUP2 DUP5 SUB ADD DUP2 MSTORE SWAP2 DUP2 MSTORE DUP2 MLOAD PUSH1 0x20 SWAP3 DUP4 ADD KECCAK256 PUSH1 0x0 DUP2 DUP2 MSTORE PUSH1 0x1 SWAP1 SWAP4 MSTORE SWAP2 KECCAK256 SLOAD SWAP1 SWAP2 POP PUSH1 0xFF AND ISZERO PUSH2 0xC33 JUMPI PUSH1 0x0 DUP2 DUP2 MSTORE PUSH1 0x20 DUP2 SWAP1 MSTORE PUSH1 0x40 SWAP1 KECCAK256 SLOAD PUSH1 0x1 PUSH1 0x1 PUSH1 0xA0 SHL SUB DUP5 DUP2 AND SWAP2 AND EQ PUSH2 0xC33 JUMPI PUSH1 0x40 MLOAD PUSH3 0x461BCD PUSH1 0xE5 SHL DUP2 MSTORE PUSH1 0x20 PUSH1 0x4 DUP3 ADD MSTORE PUSH1 0xC PUSH1 0x24 DUP3 ADD MSTORE PUSH12 0x707269766174652064617461 PUSH1 0xA0 SHL PUSH1 0x44 DUP3 ADD MSTORE PUSH1 0x64 ADD PUSH2 0x303 JUMP JUMPDEST PUSH1 0x0 DUP2 DUP2 MSTORE PUSH1 0x3 PUSH1 0x20 SWAP1 DUP2 MSTORE PUSH1 0x40 DUP1 DUP4 KECCAK256 DUP1 SLOAD DUP3 MLOAD DUP2 DUP6 MUL DUP2 ADD DUP6 ADD SWAP1 SWAP4 MSTORE DUP1 DUP4 MSTORE SWAP2 SWAP4 SWAP1 SWAP3 DUP5 ADD JUMPDEST DUP3 DUP3 LT ISZERO PUSH2 0xD08 JUMPI DUP4 DUP3 SWAP1 PUSH1 0x0 MSTORE PUSH1 0x20 PUSH1 0x0 KECCAK256 ADD DUP1 SLOAD PUSH2 0xC7B SWAP1 PUSH2 0x174F JUMP JUMPDEST DUP1 PUSH1 0x1F ADD PUSH1 0x20 DUP1 SWAP2 DIV MUL PUSH1 0x20 ADD PUSH1 0x40 MLOAD SWAP1 DUP2 ADD PUSH1 0x40 MSTORE DUP1 SWAP3 SWAP2 SWAP1 DUP2 DUP2 MSTORE PUSH1 0x20 ADD DUP3 DUP1 SLOAD PUSH2 0xCA7 SWAP1 PUSH2 0x174F JUMP JUMPDEST DUP1 ISZERO PUSH2 0xCF4 JUMPI DUP1 PUSH1 0x1F LT PUSH2 0xCC9 JUMPI PUSH2 0x100 DUP1 DUP4 SLOAD DIV MUL DUP4 MSTORE SWAP2 PUSH1 0x20 ADD SWAP2 PUSH2 0xCF4 JUMP JUMPDEST DUP3 ADD SWAP2 SWAP1 PUSH1 0x0 MSTORE PUSH1 0x20 PUSH1 0x0 KECCAK256 SWAP1 JUMPDEST DUP2 SLOAD DUP2 MSTORE SWAP1 PUSH1 0x1 ADD SWAP1 PUSH1 0x20 ADD DUP1 DUP4 GT PUSH2 0xCD7 JUMPI DUP3 SWAP1 SUB PUSH1 0x1F AND DUP3 ADD SWAP2 JUMPDEST POP POP POP POP POP DUP2 MSTORE PUSH1 0x20 ADD SWAP1 PUSH1 0x1 ADD SWAP1 PUSH2 0xC5C JUMP JUMPDEST POP POP POP POP SWAP2 POP POP SWAP4 SWAP3 POP POP POP JUMP JUMPDEST PUSH1 0x60 PUSH1 0x0 DUP7 DUP7 PUSH1 0x40 MLOAD PUSH1 0x20 ADD PUSH2 0xD2D SWAP3 SWAP2 SWAP1 PUSH2 0x16AC JUMP JUMPDEST PUSH1 0x40 DUP1 MLOAD PUSH1 0x1F NOT DUP2 DUP5 SUB ADD DUP2 MSTORE SWAP2 DUP2 MSTORE DUP2 MLOAD PUSH1 0x20 SWAP3 DUP4 ADD KECCAK256 PUSH1 0x0 DUP2 DUP2 MSTORE PUSH1 0x1 SWAP1 SWAP4 MSTORE SWAP2 KECCAK256 SLOAD SWAP1 SWAP2 POP PUSH1 0xFF AND ISZERO PUSH2 0xDB5 JUMPI PUSH1 0x0 DUP2 DUP2 MSTORE PUSH1 0x20 DUP2 SWAP1 MSTORE PUSH1 0x40 SWAP1 KECCAK256 SLOAD PUSH1 0x1 PUSH1 0x1 PUSH1 0xA0 SHL SUB DUP5 DUP2 AND SWAP2 AND EQ PUSH2 0xDB5 JUMPI PUSH1 0x40 MLOAD PUSH3 0x461BCD PUSH1 0xE5 SHL DUP2 MSTORE PUSH1 0x20 PUSH1 0x4 DUP3 ADD MSTORE PUSH1 0xC PUSH1 0x24 DUP3 ADD MSTORE PUSH12 0x707269766174652064617461 PUSH1 0xA0 SHL PUSH1 0x44 DUP3 ADD MSTORE PUSH1 0x64 ADD PUSH2 0x303 JUMP JUMPDEST PUSH1 0x2 PUSH1 0x0 DUP9 DUP9 DUP9 DUP9 PUSH1 0x40 MLOAD PUSH1 0x20 ADD PUSH2 0xDD0 SWAP5 SWAP4 SWAP3 SWAP2 SWAP1 PUSH2 0x172D JUMP JUMPDEST PUSH1 0x40 MLOAD PUSH1 0x20 DUP2 DUP4 SUB SUB DUP2 MSTORE SWAP1 PUSH1 0x40 MSTORE DUP1 MLOAD SWAP1 PUSH1 0x20 ADD KECCAK256 DUP2 MSTORE PUSH1 0x20 ADD SWAP1 DUP2 MSTORE PUSH1 0x20 ADD PUSH1 0x0 KECCAK256 DUP1 SLOAD PUSH2 0xDFF SWAP1 PUSH2 0x174F JUMP JUMPDEST DUP1 PUSH1 0x1F ADD PUSH1 0x20 DUP1 SWAP2 DIV MUL PUSH1 0x20 ADD PUSH1 0x40 MLOAD SWAP1 DUP2 ADD PUSH1 0x40 MSTORE DUP1 SWAP3 SWAP2 SWAP1 DUP2 DUP2 MSTORE PUSH1 0x20 ADD DUP3 DUP1 SLOAD PUSH2 0xE2B SWAP1 PUSH2 0x174F JUMP JUMPDEST DUP1 ISZERO PUSH2 0xE78 JUMPI DUP1 PUSH1 0x1F LT PUSH2 0xE4D JUMPI PUSH2 0x100 DUP1 DUP4 SLOAD DIV MUL DUP4 MSTORE SWAP2 PUSH1 0x20 ADD SWAP2 PUSH2 0xE78 JUMP JUMPDEST DUP3 ADD SWAP2 SWAP1 PUSH1 0x0 MSTORE PUSH1 0x20 PUSH1 0x0 KECCAK256 SWAP1 JUMPDEST DUP2 SLOAD DUP2 MSTORE SWAP1 PUSH1 0x1 ADD SWAP1 PUSH1 0x20 ADD DUP1 DUP4 GT PUSH2 0xE5B JUMPI DUP3 SWAP1 SUB PUSH1 0x1F AND DUP3 ADD SWAP2 JUMPDEST POP POP POP POP POP SWAP2 POP POP SWAP6 SWAP5 POP POP POP POP POP JUMP JUMPDEST POP DUP1 SLOAD PUSH2 0xE95 SWAP1 PUSH2 0x174F JUMP JUMPDEST PUSH1 0x0 DUP3 SSTORE DUP1 PUSH1 0x1F LT PUSH2 0xEA5 JUMPI POP POP JUMP JUMPDEST PUSH1 0x1F ADD PUSH1 0x20 SWAP1 DIV SWAP1 PUSH1 0x0 MSTORE PUSH1 0x20 PUSH1 0x0 KECCAK256 SWAP1 DUP2 ADD SWAP1 PUSH2 0xEC3 SWAP2 SWAP1 PUSH2 0xFC5 JUMP JUMPDEST POP JUMP JUMPDEST DUP3 DUP1 SLOAD PUSH2 0xED2 SWAP1 PUSH2 0x174F JUMP JUMPDEST SWAP1 PUSH1 0x0 MSTORE PUSH1 0x20 PUSH1 0x0 KECCAK256 SWAP1 PUSH1 0x1F ADD PUSH1 0x20 SWAP1 DIV DUP2 ADD SWAP3 DUP3 PUSH2 0xEF4 JUMPI PUSH1 0x0 DUP6 SSTORE PUSH2 0xF41 JUMP JUMPDEST DUP3 PUSH1 0x1F LT PUSH2 0xF05 JUMPI DUP1 SLOAD DUP6 SSTORE PUSH2 0xF41 JUMP JUMPDEST DUP3 DUP1 ADD PUSH1 0x1 ADD DUP6 SSTORE DUP3 ISZERO PUSH2 0xF41 JUMPI PUSH1 0x0 MSTORE PUSH1 0x20 PUSH1 0x0 KECCAK256 SWAP2 PUSH1 0x1F ADD PUSH1 0x20 SWAP1 DIV DUP3 ADD JUMPDEST DUP3 DUP2 GT ISZERO PUSH2 0xF41 JUMPI DUP3 SLOAD DUP3 SSTORE SWAP2 PUSH1 0x1 ADD SWAP2 SWAP1 PUSH1 0x1 ADD SWAP1 PUSH2 0xF26 JUMP JUMPDEST POP PUSH2 0xF4D SWAP3 SWAP2 POP PUSH2 0xFC5 JUMP JUMPDEST POP SWAP1 JUMP JUMPDEST DUP3 DUP1 SLOAD PUSH2 0xF5D SWAP1 PUSH2 0x174F JUMP JUMPDEST SWAP1 PUSH1 0x0 MSTORE PUSH1 0x20 PUSH1 0x0 KECCAK256 SWAP1 PUSH1 0x1F ADD PUSH1 0x20 SWAP1 DIV DUP2 ADD SWAP3 DUP3 PUSH2 0xF7F JUMPI PUSH1 0x0 DUP6 SSTORE PUSH2 0xF41 JUMP JUMPDEST DUP3 PUSH1 0x1F LT PUSH2 0xF98 JUMPI DUP3 DUP1 ADD PUSH1 0xFF NOT DUP3 CALLDATALOAD AND OR DUP6 SSTORE PUSH2 0xF41 JUMP JUMPDEST DUP3 DUP1 ADD PUSH1 0x1 ADD DUP6 SSTORE DUP3 ISZERO PUSH2 0xF41 JUMPI SWAP2 DUP3 ADD JUMPDEST DUP3 DUP2 GT ISZERO PUSH2 0xF41 JUMPI DUP3 CALLDATALOAD DUP3 SSTORE SWAP2 PUSH1 0x20 ADD SWAP2 SWAP1 PUSH1 0x1 ADD SWAP1 PUSH2 0xFAA JUMP JUMPDEST JUMPDEST DUP1 DUP3 GT ISZERO PUSH2 0xF4D JUMPI PUSH1 0x0 DUP2 SSTORE PUSH1 0x1 ADD PUSH2 0xFC6 JUMP JUMPDEST PUSH1 0x0 DUP1 DUP4 PUSH1 0x1F DUP5 ADD SLT PUSH2 0xFEC JUMPI PUSH1 0x0 DUP1 REVERT JUMPDEST POP DUP2 CALLDATALOAD PUSH8 0xFFFFFFFFFFFFFFFF DUP2 GT ISZERO PUSH2 0x1004 JUMPI PUSH1 0x0 DUP1 REVERT JUMPDEST PUSH1 0x20 DUP4 ADD SWAP2 POP DUP4 PUSH1 0x20 DUP3 DUP6 ADD ADD GT ISZERO PUSH2 0x101C JUMPI PUSH1 0x0 DUP1 REVERT JUMPDEST SWAP3 POP SWAP3 SWAP1 POP JUMP JUMPDEST PUSH1 0x0 DUP1 PUSH1 0x20 DUP4 DUP6 SUB SLT ISZERO PUSH2 0x1036 JUMPI PUSH1 0x0 DUP1 REVERT JUMPDEST DUP3 CALLDATALOAD PUSH8 0xFFFFFFFFFFFFFFFF DUP2 GT ISZERO PUSH2 0x104D JUMPI PUSH1 0x0 DUP1 REVERT JUMPDEST PUSH2 0x1059 DUP6 DUP3 DUP7 ADD PUSH2 0xFDA JUMP JUMPDEST SWAP1 SWAP7 SWAP1 SWAP6 POP SWAP4 POP POP POP POP JUMP JUMPDEST PUSH4 0x4E487B71 PUSH1 0xE0 SHL PUSH1 0x0 MSTORE PUSH1 0x41 PUSH1 0x4 MSTORE PUSH1 0x24 PUSH1 0x0 REVERT JUMPDEST PUSH1 0x0 DUP3 PUSH1 0x1F DUP4 ADD SLT PUSH2 0x108C JUMPI PUSH1 0x0 DUP1 REVERT JUMPDEST DUP2 CALLDATALOAD PUSH8 0xFFFFFFFFFFFFFFFF DUP1 DUP3 GT ISZERO PUSH2 0x10A7 JUMPI PUSH2 0x10A7 PUSH2 0x1065 JUMP JUMPDEST PUSH1 0x40 MLOAD PUSH1 0x1F DUP4 ADD PUSH1 0x1F NOT SWAP1 DUP2 AND PUSH1 0x3F ADD AND DUP2 ADD SWAP1 DUP3 DUP3 GT DUP2 DUP4 LT OR ISZERO PUSH2 0x10CF JUMPI PUSH2 0x10CF PUSH2 0x1065 JUMP JUMPDEST DUP2 PUSH1 0x40 MSTORE DUP4 DUP2 MSTORE DUP7 PUSH1 0x20 DUP6 DUP9 ADD ADD GT ISZERO PUSH2 0x10E8 JUMPI PUSH1 0x0 DUP1 REVERT JUMPDEST DUP4 PUSH1 0x20 DUP8 ADD PUSH1 0x20 DUP4 ADD CALLDATACOPY PUSH1 0x0 PUSH1 0x20 DUP6 DUP4 ADD ADD MSTORE DUP1 SWAP5 POP POP POP POP POP SWAP3 SWAP2 POP POP JUMP JUMPDEST PUSH1 0x0 PUSH1 0x20 DUP3 DUP5 SUB SLT ISZERO PUSH2 0x111A JUMPI PUSH1 0x0 DUP1 REVERT JUMPDEST DUP2 CALLDATALOAD PUSH8 0xFFFFFFFFFFFFFFFF DUP2 GT ISZERO PUSH2 0x1131 JUMPI PUSH1 0x0 DUP1 REVERT JUMPDEST PUSH2 0x6A8 DUP5 DUP3 DUP6 ADD PUSH2 0x107B JUMP JUMPDEST PUSH1 0x0 DUP1 PUSH1 0x0 DUP1 PUSH1 0x40 DUP6 DUP8 SUB SLT ISZERO PUSH2 0x1153 JUMPI PUSH1 0x0 DUP1 REVERT JUMPDEST DUP5 CALLDATALOAD PUSH8 0xFFFFFFFFFFFFFFFF DUP1 DUP3 GT ISZERO PUSH2 0x116B JUMPI PUSH1 0x0 DUP1 REVERT JUMPDEST PUSH2 0x1177 DUP9 DUP4 DUP10 ADD PUSH2 0xFDA JUMP JUMPDEST SWAP1 SWAP7 POP SWAP5 POP PUSH1 0x20 DUP8 ADD CALLDATALOAD SWAP2 POP DUP1 DUP3 GT ISZERO PUSH2 0x1190 JUMPI PUSH1 0x0 DUP1 REVERT JUMPDEST POP PUSH2 0x119D DUP8 DUP3 DUP9 ADD PUSH2 0xFDA JUMP JUMPDEST SWAP6 SWAP9 SWAP5 SWAP8 POP SWAP6 POP POP POP POP JUMP JUMPDEST PUSH1 0x0 DUP2 MLOAD DUP1 DUP5 MSTORE PUSH1 0x0 JUMPDEST DUP2 DUP2 LT ISZERO PUSH2 0x11CF JUMPI PUSH1 0x20 DUP2 DUP6 ADD DUP2 ADD MLOAD DUP7 DUP4 ADD DUP3 ADD MSTORE ADD PUSH2 0x11B3 JUMP JUMPDEST DUP2 DUP2 GT ISZERO PUSH2 0x11E1 JUMPI PUSH1 0x0 PUSH1 0x20 DUP4 DUP8 ADD ADD MSTORE JUMPDEST POP PUSH1 0x1F ADD PUSH1 0x1F NOT AND SWAP3 SWAP1 SWAP3 ADD PUSH1 0x20 ADD SWAP3 SWAP2 POP POP JUMP JUMPDEST PUSH1 0x20 DUP2 MSTORE PUSH1 0x0 PUSH2 0x67F PUSH1 0x20 DUP4 ADD DUP5 PUSH2 0x11A9 JUMP JUMPDEST PUSH1 0x0 DUP1 PUSH1 0x0 PUSH1 0x60 DUP5 DUP7 SUB SLT ISZERO PUSH2 0x121E JUMPI PUSH1 0x0 DUP1 REVERT JUMPDEST DUP4 CALLDATALOAD PUSH8 0xFFFFFFFFFFFFFFFF DUP1 DUP3 GT ISZERO PUSH2 0x1236 JUMPI PUSH1 0x0 DUP1 REVERT JUMPDEST PUSH2 0x1242 DUP8 DUP4 DUP9 ADD PUSH2 0x107B JUMP JUMPDEST SWAP5 POP PUSH1 0x20 DUP7 ADD CALLDATALOAD SWAP2 POP DUP1 DUP3 GT ISZERO PUSH2 0x1258 JUMPI PUSH1 0x0 DUP1 REVERT JUMPDEST PUSH2 0x1264 DUP8 DUP4 DUP9 ADD PUSH2 0x107B JUMP JUMPDEST SWAP4 POP PUSH1 0x40 DUP7 ADD CALLDATALOAD SWAP2 POP DUP1 DUP3 GT ISZERO PUSH2 0x127A JUMPI PUSH1 0x0 DUP1 REVERT JUMPDEST POP PUSH2 0x1287 DUP7 DUP3 DUP8 ADD PUSH2 0x107B JUMP JUMPDEST SWAP2 POP POP SWAP3 POP SWAP3 POP SWAP3 JUMP JUMPDEST PUSH1 0x0 DUP1 PUSH1 0x0 DUP1 PUSH1 0x0 DUP1 PUSH1 0x0 PUSH1 0x80 DUP9 DUP11 SUB SLT ISZERO PUSH2 0x12AC JUMPI PUSH1 0x0 DUP1 REVERT JUMPDEST DUP8 CALLDATALOAD PUSH8 0xFFFFFFFFFFFFFFFF DUP1 DUP3 GT ISZERO PUSH2 0x12C4 JUMPI PUSH1 0x0 DUP1 REVERT JUMPDEST PUSH2 0x12D0 DUP12 DUP4 DUP13 ADD PUSH2 0xFDA JUMP JUMPDEST SWAP1 SWAP10 POP SWAP8 POP PUSH1 0x20 DUP11 ADD CALLDATALOAD SWAP2 POP DUP1 DUP3 GT ISZERO PUSH2 0x12E9 JUMPI PUSH1 0x0 DUP1 REVERT JUMPDEST PUSH2 0x12F5 DUP12 DUP4 DUP13 ADD PUSH2 0xFDA JUMP JUMPDEST SWAP1 SWAP8 POP SWAP6 POP PUSH1 0x40 DUP11 ADD CALLDATALOAD SWAP2 POP DUP1 DUP3 GT ISZERO PUSH2 0x130E JUMPI PUSH1 0x0 DUP1 REVERT JUMPDEST POP PUSH2 0x131B DUP11 DUP3 DUP12 ADD PUSH2 0xFDA JUMP JUMPDEST SWAP1 SWAP5 POP SWAP3 POP POP PUSH1 0x60 DUP9 ADD CALLDATALOAD PUSH1 0x4 DUP2 LT PUSH2 0x1333 JUMPI PUSH1 0x0 DUP1 REVERT JUMPDEST DUP1 SWAP2 POP POP SWAP3 SWAP6 SWAP9 SWAP2 SWAP5 SWAP8 POP SWAP3 SWAP6 POP JUMP JUMPDEST PUSH1 0x0 PUSH1 0x20 DUP1 DUP4 ADD DUP2 DUP5 MSTORE DUP1 DUP6 MLOAD DUP1 DUP4 MSTORE PUSH1 0x40 DUP7 ADD SWAP2 POP PUSH1 0x40 DUP2 PUSH1 0x5 SHL DUP8 ADD ADD SWAP3 POP DUP4 DUP8 ADD PUSH1 0x0 JUMPDEST DUP3 DUP2 LT ISZERO PUSH2 0x1398 JUMPI PUSH1 0x3F NOT DUP9 DUP7 SUB ADD DUP5 MSTORE PUSH2 0x1386 DUP6 DUP4 MLOAD PUSH2 0x11A9 JUMP JUMPDEST SWAP5 POP SWAP3 DUP6 ADD SWAP3 SWAP1 DUP6 ADD SWAP1 PUSH1 0x1 ADD PUSH2 0x136A JUMP JUMPDEST POP SWAP3 SWAP8 SWAP7 POP POP POP POP POP POP POP JUMP JUMPDEST DUP1 CALLDATALOAD DUP1 ISZERO ISZERO DUP2 EQ PUSH2 0x13B5 JUMPI PUSH1 0x0 DUP1 REVERT JUMPDEST SWAP2 SWAP1 POP JUMP JUMPDEST PUSH1 0x0 DUP1 PUSH1 0x0 PUSH1 0x40 DUP5 DUP7 SUB SLT ISZERO PUSH2 0x13CF JUMPI PUSH1 0x0 DUP1 REVERT JUMPDEST DUP4 CALLDATALOAD PUSH8 0xFFFFFFFFFFFFFFFF DUP2 GT ISZERO PUSH2 0x13E6 JUMPI PUSH1 0x0 DUP1 REVERT JUMPDEST PUSH2 0x13F2 DUP7 DUP3 DUP8 ADD PUSH2 0xFDA JUMP JUMPDEST SWAP1 SWAP5 POP SWAP3 POP PUSH2 0x1405 SWAP1 POP PUSH1 0x20 DUP6 ADD PUSH2 0x13A5 JUMP JUMPDEST SWAP1 POP SWAP3 POP SWAP3 POP SWAP3 JUMP JUMPDEST PUSH1 0x0 DUP1 PUSH1 0x0 DUP1 PUSH1 0x0 PUSH1 0x60 DUP7 DUP9 SUB SLT ISZERO PUSH2 0x1426 JUMPI PUSH1 0x0 DUP1 REVERT JUMPDEST DUP6 CALLDATALOAD PUSH8 0xFFFFFFFFFFFFFFFF DUP1 DUP3 GT ISZERO PUSH2 0x143E JUMPI PUSH1 0x0 DUP1 REVERT JUMPDEST PUSH2 0x144A DUP10 DUP4 DUP11 ADD PUSH2 0xFDA JUMP JUMPDEST SWAP1 SWAP8 POP SWAP6 POP PUSH1 0x20 DUP9 ADD CALLDATALOAD SWAP2 POP DUP1 DUP3 GT ISZERO PUSH2 0x1463 JUMPI PUSH1 0x0 DUP1 REVERT JUMPDEST POP PUSH2 0x1470 DUP9 DUP3 DUP10 ADD PUSH2 0xFDA JUMP JUMPDEST SWAP1 SWAP5 POP SWAP3 POP PUSH2 0x1483 SWAP1 POP PUSH1 0x40 DUP8 ADD PUSH2 0x13A5 JUMP JUMPDEST SWAP1 POP SWAP3 SWAP6 POP SWAP3 SWAP6 SWAP1 SWAP4 POP JUMP JUMPDEST PUSH1 0x0 DUP1 PUSH1 0x0 DUP1 PUSH1 0x0 DUP1 PUSH1 0x60 DUP8 DUP10 SUB SLT ISZERO PUSH2 0x14A8 JUMPI PUSH1 0x0 DUP1 REVERT JUMPDEST DUP7 CALLDATALOAD PUSH8 0xFFFFFFFFFFFFFFFF DUP1 DUP3 GT ISZERO PUSH2 0x14C0 JUMPI PUSH1 0x0 DUP1 REVERT JUMPDEST PUSH2 0x14CC DUP11 DUP4 DUP12 ADD PUSH2 0xFDA JUMP JUMPDEST SWAP1 SWAP9 POP SWAP7 POP PUSH1 0x20 DUP10 ADD CALLDATALOAD SWAP2 POP DUP1 DUP3 GT ISZERO PUSH2 0x14E5 JUMPI PUSH1 0x0 DUP1 REVERT JUMPDEST PUSH2 0x14F1 DUP11 DUP4 DUP12 ADD PUSH2 0xFDA JUMP JUMPDEST SWAP1 SWAP7 POP SWAP5 POP PUSH1 0x40 DUP10 ADD CALLDATALOAD SWAP2 POP DUP1 DUP3 GT ISZERO PUSH2 0x150A JUMPI PUSH1 0x0 DUP1 REVERT JUMPDEST POP PUSH2 0x1517 DUP10 DUP3 DUP11 ADD PUSH2 0xFDA JUMP JUMPDEST SWAP8 SWAP11 SWAP7 SWAP10 POP SWAP5 SWAP8 POP SWAP3 SWAP6 SWAP4 SWAP5 SWAP3 POP POP POP JUMP JUMPDEST PUSH4 0x4E487B71 PUSH1 0xE0 SHL PUSH1 0x0 MSTORE PUSH1 0x11 PUSH1 0x4 MSTORE PUSH1 0x24 PUSH1 0x0 REVERT JUMPDEST PUSH1 0x0 DUP3 NOT DUP3 GT ISZERO PUSH2 0x1552 JUMPI PUSH2 0x1552 PUSH2 0x1529 JUMP JUMPDEST POP ADD SWAP1 JUMP JUMPDEST PUSH1 0x0 DUP3 DUP3 LT ISZERO PUSH2 0x1569 JUMPI PUSH2 0x1569 PUSH2 0x1529 JUMP JUMPDEST POP SUB SWAP1 JUMP JUMPDEST PUSH1 0x0 DUP2 PUSH1 0x0 NOT DIV DUP4 GT DUP3 ISZERO ISZERO AND ISZERO PUSH2 0x1588 JUMPI PUSH2 0x1588 PUSH2 0x1529 JUMP JUMPDEST POP MUL SWAP1 JUMP JUMPDEST PUSH1 0x1 DUP2 DUP2 JUMPDEST DUP1 DUP6 GT ISZERO PUSH2 0x15C8 JUMPI DUP2 PUSH1 0x0 NOT DIV DUP3 GT ISZERO PUSH2 0x15AE JUMPI PUSH2 0x15AE PUSH2 0x1529 JUMP JUMPDEST DUP1 DUP6 AND ISZERO PUSH2 0x15BB JUMPI SWAP2 DUP2 MUL SWAP2 JUMPDEST SWAP4 DUP5 SHR SWAP4 SWAP1 DUP1 MUL SWAP1 PUSH2 0x1592 JUMP JUMPDEST POP SWAP3 POP SWAP3 SWAP1 POP JUMP JUMPDEST PUSH1 0x0 DUP3 PUSH2 0x15DF JUMPI POP PUSH1 0x1 PUSH2 0x2BB JUMP JUMPDEST DUP2 PUSH2 0x15EC JUMPI POP PUSH1 0x0 PUSH2 0x2BB JUMP JUMPDEST DUP2 PUSH1 0x1 DUP2 EQ PUSH2 0x1602 JUMPI PUSH1 0x2 DUP2 EQ PUSH2 0x160C JUMPI PUSH2 0x1628 JUMP JUMPDEST PUSH1 0x1 SWAP2 POP POP PUSH2 0x2BB JUMP JUMPDEST PUSH1 0xFF DUP5 GT ISZERO PUSH2 0x161D JUMPI PUSH2 0x161D PUSH2 0x1529 JUMP JUMPDEST POP POP PUSH1 0x1 DUP3 SHL PUSH2 0x2BB JUMP JUMPDEST POP PUSH1 0x20 DUP4 LT PUSH2 0x133 DUP4 LT AND PUSH1 0x4E DUP5 LT PUSH1 0xB DUP5 LT AND OR ISZERO PUSH2 0x164B JUMPI POP DUP2 DUP2 EXP PUSH2 0x2BB JUMP JUMPDEST PUSH2 0x1655 DUP4 DUP4 PUSH2 0x158D JUMP JUMPDEST DUP1 PUSH1 0x0 NOT DIV DUP3 GT ISZERO PUSH2 0x1669 JUMPI PUSH2 0x1669 PUSH2 0x1529 JUMP JUMPDEST MUL SWAP4 SWAP3 POP POP POP JUMP JUMPDEST PUSH1 0x0 PUSH2 0x67F DUP4 DUP4 PUSH2 0x15D0 JUMP JUMPDEST PUSH4 0x4E487B71 PUSH1 0xE0 SHL PUSH1 0x0 MSTORE PUSH1 0x32 PUSH1 0x4 MSTORE PUSH1 0x24 PUSH1 0x0 REVERT JUMPDEST PUSH1 0x0 PUSH1 0x1 DUP3 ADD PUSH2 0x16A5 JUMPI PUSH2 0x16A5 PUSH2 0x1529 JUMP JUMPDEST POP PUSH1 0x1 ADD SWAP1 JUMP JUMPDEST DUP2 DUP4 DUP3 CALLDATACOPY PUSH1 0x0 SWAP2 ADD SWAP1 DUP2 MSTORE SWAP2 SWAP1 POP JUMP JUMPDEST PUSH4 0x4E487B71 PUSH1 0xE0 SHL PUSH1 0x0 MSTORE PUSH1 0x21 PUSH1 0x4 MSTORE PUSH1 0x24 PUSH1 0x0 REVERT JUMPDEST DUP2 DUP4 MSTORE DUP2 DUP2 PUSH1 0x20 DUP6 ADD CALLDATACOPY POP PUSH1 0x0 DUP3 DUP3 ADD PUSH1 0x20 SWAP1 DUP2 ADD SWAP2 SWAP1 SWAP2 MSTORE PUSH1 0x1F SWAP1 SWAP2 ADD PUSH1 0x1F NOT AND SWAP1 SWAP2 ADD ADD SWAP1 JUMP JUMPDEST PUSH1 0x40 DUP2 MSTORE PUSH1 0x0 PUSH2 0x170F PUSH1 0x40 DUP4 ADD DUP7 DUP9 PUSH2 0x16D2 JUMP JUMPDEST DUP3 DUP2 SUB PUSH1 0x20 DUP5 ADD MSTORE PUSH2 0x1722 DUP2 DUP6 DUP8 PUSH2 0x16D2 JUMP JUMPDEST SWAP8 SWAP7 POP POP POP POP POP POP POP JUMP JUMPDEST DUP4 DUP6 DUP3 CALLDATACOPY PUSH1 0x0 DUP5 DUP3 ADD PUSH1 0x0 DUP2 MSTORE DUP4 DUP6 DUP3 CALLDATACOPY PUSH1 0x0 SWAP4 ADD SWAP3 DUP4 MSTORE POP SWAP1 SWAP5 SWAP4 POP POP POP POP JUMP JUMPDEST PUSH1 0x1 DUP2 DUP2 SHR SWAP1 DUP3 AND DUP1 PUSH2 0x1763 JUMPI PUSH1 0x7F DUP3 AND SWAP2 POP JUMPDEST PUSH1 0x20 DUP3 LT DUP2 SUB PUSH2 0x1783 JUMPI PUSH4 0x4E487B71 PUSH1 0xE0 SHL PUSH1 0x0 MSTORE PUSH1 0x22 PUSH1 0x4 MSTORE PUSH1 0x24 PUSH1 0x0 REVERT JUMPDEST POP SWAP2 SWAP1 POP JUMP JUMPDEST PUSH1 0x0 DUP1 DUP4 SLOAD DUP2 PUSH1 0x1 DUP3 DUP2 SHR SWAP2 POP DUP1 DUP4 AND DUP1 PUSH2 0x17A5 JUMPI PUSH1 0x7F DUP4 AND SWAP3 POP JUMPDEST PUSH1 0x20 DUP1 DUP5 LT DUP3 SUB PUSH2 0x17C4 JUMPI PUSH4 0x4E487B71 PUSH1 0xE0 SHL DUP7 MSTORE PUSH1 0x22 PUSH1 0x4 MSTORE PUSH1 0x24 DUP7 REVERT JUMPDEST DUP2 DUP1 ISZERO PUSH2 0x17D8 JUMPI PUSH1 0x1 DUP2 EQ PUSH2 0x17E9 JUMPI PUSH2 0x1816 JUMP JUMPDEST PUSH1 0xFF NOT DUP7 AND DUP10 MSTORE DUP5 DUP10 ADD SWAP7 POP PUSH2 0x1816 JUMP JUMPDEST PUSH1 0x0 DUP11 DUP2 MSTORE PUSH1 0x20 SWAP1 KECCAK256 PUSH1 0x0 JUMPDEST DUP7 DUP2 LT ISZERO PUSH2 0x180E JUMPI DUP2 SLOAD DUP12 DUP3 ADD MSTORE SWAP1 DUP6 ADD SWAP1 DUP4 ADD PUSH2 0x17F5 JUMP JUMPDEST POP POP DUP5 DUP10 ADD SWAP7 POP JUMPDEST POP SWAP5 SWAP9 SWAP8 POP POP POP POP POP POP POP POP JUMP JUMPDEST PUSH4 0x4E487B71 PUSH1 0xE0 SHL PUSH1 0x0 MSTORE PUSH1 0x31 PUSH1 0x4 MSTORE PUSH1 0x24 PUSH1 0x0 REVERT INVALID LOG2 PUSH5 0x6970667358 0x22 SLT KECCAK256 KECCAK256 0xB0 0xD4 0x4F 0xDB 0xBA CALLDATASIZE 0x4B 0xD1 SELFBALANCE 0x25 OR OR 0xE1 SAR PUSH30 0xC2C232F6C7085974A41658D5B114458564736F6C634300080D0033000000 ",
  "sha1": "184490947d89c9093a4784e1c41e93caa8a6fc9e",
  "source": "// SPDX-License-Identifier: MIT\npragma solidity ^0.8.4;\n\ncontract DDS {\n    enum DATATYPE {\n        PUBLIC_CONTRACT,\n        PUBLIC_PERSONAL,\n        PRIVATE_CONTRACT,\n        PRIVATE_PERSONAL\n    }\n\n    mapping(bytes32 => address) private domain;\n    mapping(bytes32 => bool) private privateData;\n    mapping(bytes32 => bytes) private dataValue;\n    mapping(bytes32 => string[]) keys;\n\n    event record(\n        string indexed domain,\n        string key,\n        bytes data,\n        address indexed from\n    );\n\n    function put(\n        string calldata _domain,\n        string calldata _key,\n        bytes calldata _data,\n        DATATYPE _type\n    ) public {\n        bool _log = true;\n        address _caller;\n\n        if (\n            _type == DATATYPE.PRIVATE_CONTRACT ||\n            _type == DATATYPE.PRIVATE_PERSONAL\n        ) {\n            privateData[keccak256(abi.encodePacked(_domain))] = true;\n            _log = false;\n        }\n\n        if (\n            _type == DATATYPE.PRIVATE_CONTRACT ||\n            _type == DATATYPE.PUBLIC_CONTRACT\n        ) _caller = msg.sender;\n        else _caller = tx.origin;\n\n        _put(_domain, _key, _data, _caller);\n\n        if (_log) emit record(_domain, _key, _data, _caller);\n    }\n\n    function put(\n        string calldata _domain,\n        string calldata _key,\n        bytes calldata _data\n    ) external {\n        // detault put\n        _put(_domain, _key, _data, msg.sender);\n        emit record(_domain, _key, _data, msg.sender);\n    }\n\n    function _put(\n        string calldata _domain,\n        string calldata _key,\n        bytes calldata _data,\n        address _caller\n    ) internal {\n        bytes32 _domainHash = keccak256(abi.encodePacked(_domain));\n        bytes32 _valueHash = keccak256(abi.encodePacked(_domain, _key));\n\n        address oldOwner = domain[_domainHash];\n        require(\n            oldOwner == address(0) || oldOwner == _caller,\n            \"Id used by others\"\n        );\n        if (oldOwner == address(0)) domain[_domainHash] = _caller;\n\n        if (_data.length == 0) {\n            // delete an old value\n            delete dataValue[_valueHash];\n\n            // delete an old key\n            uint256 dataLength = keys[_domainHash].length;\n            if (dataLength == 0) return;\n\n            uint256 i;\n            bool found = false;\n            for (i = 0; i < dataLength - 1; i++) {\n                if (\n                    keccak256(abi.encodePacked(_key)) ==\n                    keccak256(abi.encodePacked(keys[_domainHash][i]))\n                ) found = true;\n                if (found) keys[_domainHash][i] = keys[_domainHash][i + 1];\n            }\n            if (\n                found ||\n                keccak256(abi.encodePacked(_key)) ==\n                keccak256(abi.encodePacked(keys[_domainHash][i]))\n            ) keys[_domainHash].pop();\n        } else {\n            // add a new value\n            dataValue[_valueHash] = _data;\n\n            // add a new key\n            uint256 dataLength = keys[_domainHash].length;\n            for (uint256 i = 0; i < dataLength; i++) {\n                if (\n                    keccak256(abi.encodePacked(_key)) ==\n                    keccak256(abi.encodePacked(keys[_domainHash][i]))\n                ) return;\n            }\n            keys[_domainHash].push(_key);\n        }\n    }\n\n    function getOwner(string calldata _domain) external view returns (address) {\n        return domain[keccak256(abi.encodePacked(_domain))];\n    }\n\n    function get(string calldata _domain, string calldata _key)\n        public\n        view\n        returns (bytes memory)\n    {\n        // default get use msg.sender address\n        return get(_domain, _key, false);\n    }\n\n    function get(\n        string calldata _domain,\n        string calldata _key,\n        bool _personal\n    ) public view returns (bytes memory) {\n        return\n            _personal\n                ? _get(_domain, _key, tx.origin)\n                : _get(_domain, _key, msg.sender);\n    }\n\n    function _get(\n        string calldata _domain,\n        string calldata _key,\n        address _caller\n    ) internal view returns (bytes memory) {\n        bytes32 _hash = keccak256(abi.encodePacked(_domain));\n\n        if (privateData[_hash])\n            if (domain[_hash] != _caller) revert(\"private data\");\n        return dataValue[keccak256(abi.encodePacked(_domain, _key))];\n    }\n\n    function _getKeys(string calldata _domain, address _caller)\n        internal\n        view\n        returns (string[] memory)\n    {\n        bytes32 _hash = keccak256(abi.encodePacked(_domain));\n\n        if (privateData[_hash])\n            if (domain[_hash] != _caller) revert(\"private data\");\n        return keys[_hash];\n    }\n\n    function getKeys(string calldata _domain)\n        external\n        view\n        returns (string[] memory)\n    {\n        // default getKeys\n        return getKeys(_domain, false);\n    }\n\n    function getKeys(string calldata _domain, bool _personal)\n        public\n        view\n        returns (string[] memory)\n    {\n        return\n            _personal\n                ? _getKeys(_domain, tx.origin)\n                : _getKeys(_domain, msg.sender);\n    }\n\n    function setValue(\n        bytes memory input,\n        bytes memory mark,\n        bytes memory value\n    ) public pure returns (bytes memory output) {\n        require(mark.length >= value.length, \"length overflow\");\n\n        bytes memory value_with_whitespace = new bytes(mark.length);\n        for (uint256 i = 0; i < mark.length; i++)\n            if (i < value.length) value_with_whitespace[i] = value[i];\n            else value_with_whitespace[i] = 0x20; // ' '\n\n        output = input;\n        if (input.length >= mark.length)\n            for (uint256 i = 0; i <= input.length - mark.length; i++) {\n                uint256 j;\n                for (j = 0; j < mark.length; j++)\n                    if (input[i + j] != mark[j]) break;\n                if (j == mark.length)\n                    for (j = 0; j < mark.length; j++)\n                        input[i + j] = value_with_whitespace[j];\n            }\n    }\n\n    function toAddress(bytes memory b) external pure returns (address addr) {\n        assembly {\n            addr := mload(add(b, 20))\n        }\n    }\n\n    function toInt(bytes calldata b) external pure returns (uint256 value) {\n        for (uint256 i = 0; i < b.length; i++) {\n            value += uint256(uint8(b[i])) * (2**(8 * (b.length - (i + 1))));\n        }\n    }\n\n    function toBool(bytes calldata b) external pure returns (bool) {\n        return b.length == 0;\n    }\n}\n",
  "sourcePath": "contracts/DDS.sol",
  "type": "contract"
}