{
  "abi": [
    {
      "anonymous": false,
      "inputs": [
        {
          "indexed": false,
          "internalType": "address",
          "name": "addr",
          "type": "address"
        },
        {
          "indexed": true,
          "internalType": "address",
          "name": "owner",
          "type": "address"
        },
        {
          "indexed": false,
          "internalType": "uint256",
          "name": "salt",
          "type": "uint256"
        }
      ],
      "name": "Deployed",
      "type": "event"
    },
    {
      "inputs": [
        {
          "internalType": "bytes",
          "name": "bytecode",
          "type": "bytes"
        },
        {
          "internalType": "uint256",
          "name": "_salt",
          "type": "uint256"
        }
      ],
      "name": "Deploy",
      "outputs": [],
      "stateMutability": "nonpayable",
      "type": "function"
    },
    {
      "inputs": [
        {
          "internalType": "bytes",
          "name": "bytecode",
          "type": "bytes"
        },
        {
          "internalType": "uint256",
          "name": "_salt",
          "type": "uint256"
        }
      ],
      "name": "getAddress",
      "outputs": [
        {
          "internalType": "address",
          "name": "",
          "type": "address"
        }
      ],
      "stateMutability": "view",
      "type": "function"
    },
    {
      "inputs": [
        {
          "internalType": "address",
          "name": "_addr",
          "type": "address"
        },
        {
          "internalType": "address",
          "name": "_newOwner",
          "type": "address"
        }
      ],
      "name": "transferOwnership",
      "outputs": [],
      "stateMutability": "nonpayable",
      "type": "function"
    }
  ],
  "bytecode": "608060405234801561001057600080fd5b5061037e806100206000396000f3fe608060405234801561001057600080fd5b50600436106100415760003560e01c8063420cd4bf146100465780636d4354211461005b57806394ca2cb51461006e575b600080fd5b610059610054366004610244565b6100f4565b005b610059610069366004610315565b610175565b6100d861007c366004610244565b8151602092830120604080516001600160f81b0319818601523060601b6bffffffffffffffffffffffff191660218201526035810193909352605580840192909252805180840390920182526075909201909152805191012090565b6040516001600160a01b03909116815260200160405180910390f35b60008183516020850134f59050803b61010c57600080fd5b6001600160a01b0381166000818152602081815260409182902080546001600160a01b031916339081179091558251938452908301859052917f78c9d1e385f0bb7d4dd0237eb7ab708b0780c73031080977cd5469bab04ed690910160405180910390a2505050565b6001600160a01b038281166000908152602081905260409020541633146101cf5760405162461bcd60e51b815260206004820152600a60248201526927b7363c9037bbb732b960b11b604482015260640160405180910390fd5b60405163f2fde38b60e01b81526001600160a01b03828116600483015283169063f2fde38b90602401600060405180830381600087803b15801561021257600080fd5b505af1158015610226573d6000803e3d6000fd5b505050505050565b634e487b7160e01b600052604160045260246000fd5b6000806040838503121561025757600080fd5b823567ffffffffffffffff8082111561026f57600080fd5b818501915085601f83011261028357600080fd5b8135818111156102955761029561022e565b604051601f8201601f19908116603f011681019083821181831017156102bd576102bd61022e565b816040528281528860208487010111156102d657600080fd5b826020860160208301376000602093820184015298969091013596505050505050565b80356001600160a01b038116811461031057600080fd5b919050565b6000806040838503121561032857600080fd5b610331836102f9565b915061033f602084016102f9565b9050925092905056fea264697066735822122011a98a5a0ec7b9761e06c940c0b69d7c60aff9eab2779c095e6601229155b05364736f6c634300080d0033",
  "bytecodeSha1": "6b225dde4f0122364f144d9b119249755480ef67",
  "compiler": {
    "evm_version": "istanbul",
    "optimizer": {
      "enabled": true,
      "runs": 200
    },
    "version": "0.8.13+commit.abaa5c0e"
  },
  "contractName": "Deployer",
  "language": "Solidity",
  "natspec": {
    "kind": "dev",
    "methods": {},
    "version": 1
  },
  "opcodes": "PUSH1 0x80 PUSH1 0x40 MSTORE CALLVALUE DUP1 ISZERO PUSH2 0x10 JUMPI PUSH1 0x0 DUP1 REVERT JUMPDEST POP PUSH1 0x4 CALLDATASIZE LT PUSH2 0x41 JUMPI PUSH1 0x0 CALLDATALOAD PUSH1 0xE0 SHR DUP1 PUSH4 0x420CD4BF EQ PUSH2 0x46 JUMPI DUP1 PUSH4 0x6D435421 EQ PUSH2 0x5B JUMPI DUP1 PUSH4 0x94CA2CB5 EQ PUSH2 0x6E JUMPI JUMPDEST PUSH1 0x0 DUP1 REVERT JUMPDEST PUSH2 0x59 PUSH2 0x54 CALLDATASIZE PUSH1 0x4 PUSH2 0x244 JUMP JUMPDEST PUSH2 0xF4 JUMP JUMPDEST STOP JUMPDEST PUSH2 0x59 PUSH2 0x69 CALLDATASIZE PUSH1 0x4 PUSH2 0x315 JUMP JUMPDEST PUSH2 0x175 JUMP JUMPDEST PUSH2 0xD8 PUSH2 0x7C CALLDATASIZE PUSH1 0x4 PUSH2 0x244 JUMP JUMPDEST DUP2 MLOAD PUSH1 0x20 SWAP3 DUP4 ADD KECCAK256 PUSH1 0x40 DUP1 MLOAD PUSH1 0x1 PUSH1 0x1 PUSH1 0xF8 SHL SUB NOT DUP2 DUP7 ADD MSTORE ADDRESS PUSH1 0x60 SHL PUSH12 0xFFFFFFFFFFFFFFFFFFFFFFFF NOT AND PUSH1 0x21 DUP3 ADD MSTORE PUSH1 0x35 DUP2 ADD SWAP4 SWAP1 SWAP4 MSTORE PUSH1 0x55 DUP1 DUP5 ADD SWAP3 SWAP1 SWAP3 MSTORE DUP1 MLOAD DUP1 DUP5 SUB SWAP1 SWAP3 ADD DUP3 MSTORE PUSH1 0x75 SWAP1 SWAP3 ADD SWAP1 SWAP2 MSTORE DUP1 MLOAD SWAP2 ADD KECCAK256 SWAP1 JUMP JUMPDEST PUSH1 0x40 MLOAD PUSH1 0x1 PUSH1 0x1 PUSH1 0xA0 SHL SUB SWAP1 SWAP2 AND DUP2 MSTORE PUSH1 0x20 ADD PUSH1 0x40 MLOAD DUP1 SWAP2 SUB SWAP1 RETURN JUMPDEST PUSH1 0x0 DUP2 DUP4 MLOAD PUSH1 0x20 DUP6 ADD CALLVALUE CREATE2 SWAP1 POP DUP1 EXTCODESIZE PUSH2 0x10C JUMPI PUSH1 0x0 DUP1 REVERT JUMPDEST PUSH1 0x1 PUSH1 0x1 PUSH1 0xA0 SHL SUB DUP2 AND PUSH1 0x0 DUP2 DUP2 MSTORE PUSH1 0x20 DUP2 DUP2 MSTORE PUSH1 0x40 SWAP2 DUP3 SWAP1 KECCAK256 DUP1 SLOAD PUSH1 0x1 PUSH1 0x1 PUSH1 0xA0 SHL SUB NOT AND CALLER SWAP1 DUP2 OR SWAP1 SWAP2 SSTORE DUP3 MLOAD SWAP4 DUP5 MSTORE SWAP1 DUP4 ADD DUP6 SWAP1 MSTORE SWAP2 PUSH32 0x78C9D1E385F0BB7D4DD0237EB7AB708B0780C73031080977CD5469BAB04ED690 SWAP2 ADD PUSH1 0x40 MLOAD DUP1 SWAP2 SUB SWAP1 LOG2 POP POP POP JUMP JUMPDEST PUSH1 0x1 PUSH1 0x1 PUSH1 0xA0 SHL SUB DUP3 DUP2 AND PUSH1 0x0 SWAP1 DUP2 MSTORE PUSH1 0x20 DUP2 SWAP1 MSTORE PUSH1 0x40 SWAP1 KECCAK256 SLOAD AND CALLER EQ PUSH2 0x1CF JUMPI PUSH1 0x40 MLOAD PUSH3 0x461BCD PUSH1 0xE5 SHL DUP2 MSTORE PUSH1 0x20 PUSH1 0x4 DUP3 ADD MSTORE PUSH1 0xA PUSH1 0x24 DUP3 ADD MSTORE PUSH10 0x27B7363C9037BBB732B9 PUSH1 0xB1 SHL PUSH1 0x44 DUP3 ADD MSTORE PUSH1 0x64 ADD PUSH1 0x40 MLOAD DUP1 SWAP2 SUB SWAP1 REVERT JUMPDEST PUSH1 0x40 MLOAD PUSH4 0xF2FDE38B PUSH1 0xE0 SHL DUP2 MSTORE PUSH1 0x1 PUSH1 0x1 PUSH1 0xA0 SHL SUB DUP3 DUP2 AND PUSH1 0x4 DUP4 ADD MSTORE DUP4 AND SWAP1 PUSH4 0xF2FDE38B SWAP1 PUSH1 0x24 ADD PUSH1 0x0 PUSH1 0x40 MLOAD DUP1 DUP4 SUB DUP2 PUSH1 0x0 DUP8 DUP1 EXTCODESIZE ISZERO DUP1 ISZERO PUSH2 0x212 JUMPI PUSH1 0x0 DUP1 REVERT JUMPDEST POP GAS CALL ISZERO DUP1 ISZERO PUSH2 0x226 JUMPI RETURNDATASIZE PUSH1 0x0 DUP1 RETURNDATACOPY RETURNDATASIZE PUSH1 0x0 REVERT JUMPDEST POP POP POP POP POP POP JUMP JUMPDEST PUSH4 0x4E487B71 PUSH1 0xE0 SHL PUSH1 0x0 MSTORE PUSH1 0x41 PUSH1 0x4 MSTORE PUSH1 0x24 PUSH1 0x0 REVERT JUMPDEST PUSH1 0x0 DUP1 PUSH1 0x40 DUP4 DUP6 SUB SLT ISZERO PUSH2 0x257 JUMPI PUSH1 0x0 DUP1 REVERT JUMPDEST DUP3 CALLDATALOAD PUSH8 0xFFFFFFFFFFFFFFFF DUP1 DUP3 GT ISZERO PUSH2 0x26F JUMPI PUSH1 0x0 DUP1 REVERT JUMPDEST DUP2 DUP6 ADD SWAP2 POP DUP6 PUSH1 0x1F DUP4 ADD SLT PUSH2 0x283 JUMPI PUSH1 0x0 DUP1 REVERT JUMPDEST DUP2 CALLDATALOAD DUP2 DUP2 GT ISZERO PUSH2 0x295 JUMPI PUSH2 0x295 PUSH2 0x22E JUMP JUMPDEST PUSH1 0x40 MLOAD PUSH1 0x1F DUP3 ADD PUSH1 0x1F NOT SWAP1 DUP2 AND PUSH1 0x3F ADD AND DUP2 ADD SWAP1 DUP4 DUP3 GT DUP2 DUP4 LT OR ISZERO PUSH2 0x2BD JUMPI PUSH2 0x2BD PUSH2 0x22E JUMP JUMPDEST DUP2 PUSH1 0x40 MSTORE DUP3 DUP2 MSTORE DUP9 PUSH1 0x20 DUP5 DUP8 ADD ADD GT ISZERO PUSH2 0x2D6 JUMPI PUSH1 0x0 DUP1 REVERT JUMPDEST DUP3 PUSH1 0x20 DUP7 ADD PUSH1 0x20 DUP4 ADD CALLDATACOPY PUSH1 0x0 PUSH1 0x20 SWAP4 DUP3 ADD DUP5 ADD MSTORE SWAP9 SWAP7 SWAP1 SWAP2 ADD CALLDATALOAD SWAP7 POP POP POP POP POP POP JUMP JUMPDEST DUP1 CALLDATALOAD PUSH1 0x1 PUSH1 0x1 PUSH1 0xA0 SHL SUB DUP2 AND DUP2 EQ PUSH2 0x310 JUMPI PUSH1 0x0 DUP1 REVERT JUMPDEST SWAP2 SWAP1 POP JUMP JUMPDEST PUSH1 0x0 DUP1 PUSH1 0x40 DUP4 DUP6 SUB SLT ISZERO PUSH2 0x328 JUMPI PUSH1 0x0 DUP1 REVERT JUMPDEST PUSH2 0x331 DUP4 PUSH2 0x2F9 JUMP JUMPDEST SWAP2 POP PUSH2 0x33F PUSH1 0x20 DUP5 ADD PUSH2 0x2F9 JUMP JUMPDEST SWAP1 POP SWAP3 POP SWAP3 SWAP1 POP JUMP INVALID LOG2 PUSH5 0x6970667358 0x22 SLT KECCAK256 GT 0xA9 DUP11 GAS 0xE 0xC7 0xB9 PUSH23 0x1E06C940C0B69D7C60AFF9EAB2779C095E6601229155B0 MSTORE8 PUSH5 0x736F6C6343 STOP ADDMOD 0xD STOP CALLER ",
  "sha1": "15a92c748f58808ef81c3cf9d2a68dbe555500a0",
  "source": "// SPDX-License-Identifier: MIT\npragma solidity ^0.8.13;\n\n/// @title PLAN-BEE Deployer 合约部署器，确保合约部署的地址可以通过create2计算\n/// @author Iwan Cao\n/// @notice 开放使用合约，任何人可以部署合约并且计算地址\n/// @dev 地址计算依赖：部署合约地址，合约bytecode，盐\n/// @custom:planbee 这是一个PLAN-BEE计划认证的合约\n\ninterface Ownable {\n    function transferOwnership(address) external;\n}\n\ncontract Deployer {\n    event Deployed(address addr, address indexed owner, uint256 salt);\n\n    mapping(address => address) deployed;\n\n    // 1. 获取要部署的合约字节码\n    // // 注意：_owner 和 _foo 是 TestContract 构造函数的参数\n    // function getBytecode() public pure returns (bytes memory) {\n    //     bytes memory bytecode = type(Registry).creationCode;\n\n    //     return abi.encodePacked(bytecode, abi.encode());\n    // }\n\n    // 2. 计算要部署的合约地址\n    // 注意：_salt 是用于创建地址的随机数\n    function getAddress(bytes memory bytecode, uint256 _salt)\n        public\n        view\n        returns (address)\n    {\n        bytes32 hash = keccak256(\n            abi.encodePacked(\n                bytes1(0xff),\n                address(this),\n                _salt,\n                keccak256(bytecode)\n            )\n        );\n\n        // 注意：将最后 20 个字节的哈希值转换为地址\n        return address(uint160(uint256(hash)));\n    }\n\n    // 3. 部署合约\n    // 注意：\n    // 检查事件日志 Deployed，其中包含已部署的 TestContract 的地址。\n    // 日志中的地址应该等于从上面计算的地址。\n    function Deploy(bytes memory bytecode, uint256 _salt) external {\n        address addr;\n        // bytes memory bytecode = getBytecode();\n\n        /*\n        注意: 如何调用 create2 ? \n\n        create2(v, p, n, s)\n        使用内存 p 到 p + n 的代码创建新合约\n        并发送 v wei\n        并返回新地址\n        where new address = 前 20 bytes of hash\n        hash= keccak256(0xff + address(this) + s + keccak256(mem[p…(p+n)))\n        s = big-endian 256-bit value\n        */\n        assembly {\n            addr := create2(\n                callvalue(), // wei sent with current call\n                // Actual code starts after skipping the first 32 bytes\n                add(bytecode, 0x20),\n                mload(bytecode), // Load the size of code contained in the first 32 bytes\n                _salt // Salt from function arguments\n            )\n\n            if iszero(extcodesize(addr)) {\n                revert(0, 0)\n            }\n        }\n\n        deployed[addr] = msg.sender;\n        emit Deployed(addr, msg.sender, _salt);\n    }\n\n    function transferOwnership(address _addr, address _newOwner) external {\n        require(deployed[_addr] == msg.sender, \"Only owner\");\n        Ownable(_addr).transferOwnership(_newOwner);\n    }\n}\n",
  "sourcePath": "contracts/Deployer.sol",
  "type": "contract"
}