{
  "abi": [
    {
      "inputs": [
        {
          "internalType": "string",
          "name": "name_",
          "type": "string"
        },
        {
          "internalType": "string",
          "name": "symbol_",
          "type": "string"
        },
        {
          "internalType": "uint8",
          "name": "decimals_",
          "type": "uint8"
        },
        {
          "internalType": "string",
          "name": "baseURI_",
          "type": "string"
        }
      ],
      "stateMutability": "nonpayable",
      "type": "constructor"
    },
    {
      "anonymous": false,
      "inputs": [
        {
          "indexed": true,
          "internalType": "address",
          "name": "owner",
          "type": "address"
        },
        {
          "indexed": true,
          "internalType": "address",
          "name": "approved",
          "type": "address"
        },
        {
          "indexed": true,
          "internalType": "uint256",
          "name": "tokenId",
          "type": "uint256"
        }
      ],
      "name": "Approval",
      "type": "event"
    },
    {
      "anonymous": false,
      "inputs": [
        {
          "indexed": true,
          "internalType": "address",
          "name": "owner",
          "type": "address"
        },
        {
          "indexed": true,
          "internalType": "address",
          "name": "operator",
          "type": "address"
        },
        {
          "indexed": false,
          "internalType": "bool",
          "name": "approved",
          "type": "bool"
        }
      ],
      "name": "ApprovalForAll",
      "type": "event"
    },
    {
      "anonymous": false,
      "inputs": [
        {
          "indexed": true,
          "internalType": "uint256",
          "name": "_tokenId",
          "type": "uint256"
        },
        {
          "indexed": true,
          "internalType": "address",
          "name": "_operator",
          "type": "address"
        },
        {
          "indexed": false,
          "internalType": "uint256",
          "name": "_value",
          "type": "uint256"
        }
      ],
      "name": "ApprovalValue",
      "type": "event"
    },
    {
      "anonymous": false,
      "inputs": [
        {
          "indexed": true,
          "internalType": "uint256",
          "name": "_tokenId",
          "type": "uint256"
        },
        {
          "indexed": true,
          "internalType": "uint256",
          "name": "_oldSlot",
          "type": "uint256"
        },
        {
          "indexed": true,
          "internalType": "uint256",
          "name": "_newSlot",
          "type": "uint256"
        }
      ],
      "name": "SlotChanged",
      "type": "event"
    },
    {
      "anonymous": false,
      "inputs": [
        {
          "indexed": true,
          "internalType": "address",
          "name": "from",
          "type": "address"
        },
        {
          "indexed": true,
          "internalType": "address",
          "name": "to",
          "type": "address"
        },
        {
          "indexed": true,
          "internalType": "uint256",
          "name": "tokenId",
          "type": "uint256"
        }
      ],
      "name": "Transfer",
      "type": "event"
    },
    {
      "anonymous": false,
      "inputs": [
        {
          "indexed": true,
          "internalType": "uint256",
          "name": "_fromTokenId",
          "type": "uint256"
        },
        {
          "indexed": true,
          "internalType": "uint256",
          "name": "_toTokenId",
          "type": "uint256"
        },
        {
          "indexed": false,
          "internalType": "uint256",
          "name": "_value",
          "type": "uint256"
        }
      ],
      "name": "TransferValue",
      "type": "event"
    },
    {
      "inputs": [
        {
          "internalType": "uint256",
          "name": "tokenId_",
          "type": "uint256"
        },
        {
          "internalType": "address",
          "name": "operator_",
          "type": "address"
        }
      ],
      "name": "allowance",
      "outputs": [
        {
          "internalType": "uint256",
          "name": "",
          "type": "uint256"
        }
      ],
      "stateMutability": "view",
      "type": "function"
    },
    {
      "inputs": [
        {
          "internalType": "address",
          "name": "to",
          "type": "address"
        },
        {
          "internalType": "uint256",
          "name": "tokenId",
          "type": "uint256"
        }
      ],
      "name": "approve",
      "outputs": [],
      "stateMutability": "nonpayable",
      "type": "function"
    },
    {
      "inputs": [
        {
          "internalType": "uint256",
          "name": "tokenId_",
          "type": "uint256"
        },
        {
          "internalType": "address",
          "name": "to_",
          "type": "address"
        },
        {
          "internalType": "uint256",
          "name": "value_",
          "type": "uint256"
        }
      ],
      "name": "approve",
      "outputs": [],
      "stateMutability": "payable",
      "type": "function"
    },
    {
      "inputs": [
        {
          "internalType": "address",
          "name": "owner",
          "type": "address"
        }
      ],
      "name": "balanceOf",
      "outputs": [
        {
          "internalType": "uint256",
          "name": "",
          "type": "uint256"
        }
      ],
      "stateMutability": "view",
      "type": "function"
    },
    {
      "inputs": [
        {
          "internalType": "uint256",
          "name": "tokenId_",
          "type": "uint256"
        }
      ],
      "name": "balanceOf",
      "outputs": [
        {
          "internalType": "uint256",
          "name": "",
          "type": "uint256"
        }
      ],
      "stateMutability": "view",
      "type": "function"
    },
    {
      "inputs": [],
      "name": "contractURI",
      "outputs": [
        {
          "internalType": "string",
          "name": "",
          "type": "string"
        }
      ],
      "stateMutability": "view",
      "type": "function"
    },
    {
      "inputs": [
        {
          "internalType": "uint256",
          "name": "tokenId",
          "type": "uint256"
        }
      ],
      "name": "getApproved",
      "outputs": [
        {
          "internalType": "address",
          "name": "",
          "type": "address"
        }
      ],
      "stateMutability": "view",
      "type": "function"
    },
    {
      "inputs": [
        {
          "internalType": "uint256",
          "name": "slot_",
          "type": "uint256"
        }
      ],
      "name": "getSlotDetail",
      "outputs": [
        {
          "components": [
            {
              "internalType": "string",
              "name": "name",
              "type": "string"
            },
            {
              "internalType": "string",
              "name": "description",
              "type": "string"
            },
            {
              "internalType": "string",
              "name": "image",
              "type": "string"
            },
            {
              "internalType": "address",
              "name": "underlying",
              "type": "address"
            },
            {
              "internalType": "uint8",
              "name": "vestingType",
              "type": "uint8"
            },
            {
              "internalType": "uint32",
              "name": "maturity",
              "type": "uint32"
            },
            {
              "internalType": "uint32",
              "name": "term",
              "type": "uint32"
            }
          ],
          "internalType": "struct ERC3525Example.SlotDetail",
          "name": "",
          "type": "tuple"
        }
      ],
      "stateMutability": "view",
      "type": "function"
    },
    {
      "inputs": [
        {
          "internalType": "address",
          "name": "owner",
          "type": "address"
        },
        {
          "internalType": "address",
          "name": "operator",
          "type": "address"
        }
      ],
      "name": "isApprovedForAll",
      "outputs": [
        {
          "internalType": "bool",
          "name": "",
          "type": "bool"
        }
      ],
      "stateMutability": "view",
      "type": "function"
    },
    {
      "inputs": [
        {
          "internalType": "address",
          "name": "underlying_",
          "type": "address"
        },
        {
          "internalType": "uint8",
          "name": "vestingType_",
          "type": "uint8"
        },
        {
          "internalType": "uint32",
          "name": "maturity_",
          "type": "uint32"
        },
        {
          "internalType": "uint32",
          "name": "term_",
          "type": "uint32"
        }
      ],
      "name": "makeSlotId",
      "outputs": [
        {
          "internalType": "uint256",
          "name": "slot_",
          "type": "uint256"
        }
      ],
      "stateMutability": "pure",
      "type": "function"
    },
    {
      "inputs": [
        {
          "internalType": "string",
          "name": "slotName_",
          "type": "string"
        },
        {
          "internalType": "string",
          "name": "slotDescription_",
          "type": "string"
        },
        {
          "internalType": "string",
          "name": "slotImage_",
          "type": "string"
        },
        {
          "internalType": "uint256",
          "name": "tokenId_",
          "type": "uint256"
        },
        {
          "internalType": "address",
          "name": "underlying_",
          "type": "address"
        },
        {
          "internalType": "uint8",
          "name": "vestingType_",
          "type": "uint8"
        },
        {
          "internalType": "uint32",
          "name": "maturity_",
          "type": "uint32"
        },
        {
          "internalType": "uint32",
          "name": "term_",
          "type": "uint32"
        },
        {
          "internalType": "uint256",
          "name": "value_",
          "type": "uint256"
        }
      ],
      "name": "mint",
      "outputs": [],
      "stateMutability": "nonpayable",
      "type": "function"
    },
    {
      "inputs": [],
      "name": "name",
      "outputs": [
        {
          "internalType": "string",
          "name": "",
          "type": "string"
        }
      ],
      "stateMutability": "view",
      "type": "function"
    },
    {
      "inputs": [
        {
          "internalType": "uint256",
          "name": "tokenId",
          "type": "uint256"
        }
      ],
      "name": "ownerOf",
      "outputs": [
        {
          "internalType": "address",
          "name": "",
          "type": "address"
        }
      ],
      "stateMutability": "view",
      "type": "function"
    },
    {
      "inputs": [
        {
          "internalType": "address",
          "name": "from",
          "type": "address"
        },
        {
          "internalType": "address",
          "name": "to",
          "type": "address"
        },
        {
          "internalType": "uint256",
          "name": "tokenId",
          "type": "uint256"
        }
      ],
      "name": "safeTransferFrom",
      "outputs": [],
      "stateMutability": "nonpayable",
      "type": "function"
    },
    {
      "inputs": [
        {
          "internalType": "address",
          "name": "from",
          "type": "address"
        },
        {
          "internalType": "address",
          "name": "to",
          "type": "address"
        },
        {
          "internalType": "uint256",
          "name": "tokenId",
          "type": "uint256"
        },
        {
          "internalType": "bytes",
          "name": "data",
          "type": "bytes"
        }
      ],
      "name": "safeTransferFrom",
      "outputs": [],
      "stateMutability": "nonpayable",
      "type": "function"
    },
    {
      "inputs": [
        {
          "internalType": "address",
          "name": "operator",
          "type": "address"
        },
        {
          "internalType": "bool",
          "name": "approved",
          "type": "bool"
        }
      ],
      "name": "setApprovalForAll",
      "outputs": [],
      "stateMutability": "nonpayable",
      "type": "function"
    },
    {
      "inputs": [
        {
          "internalType": "uint256",
          "name": "tokenId_",
          "type": "uint256"
        }
      ],
      "name": "slotOf",
      "outputs": [
        {
          "internalType": "uint256",
          "name": "",
          "type": "uint256"
        }
      ],
      "stateMutability": "view",
      "type": "function"
    },
    {
      "inputs": [
        {
          "internalType": "uint256",
          "name": "slot_",
          "type": "uint256"
        }
      ],
      "name": "slotURI",
      "outputs": [
        {
          "internalType": "string",
          "name": "",
          "type": "string"
        }
      ],
      "stateMutability": "view",
      "type": "function"
    },
    {
      "inputs": [
        {
          "internalType": "bytes4",
          "name": "interfaceId",
          "type": "bytes4"
        }
      ],
      "name": "supportsInterface",
      "outputs": [
        {
          "internalType": "bool",
          "name": "",
          "type": "bool"
        }
      ],
      "stateMutability": "view",
      "type": "function"
    },
    {
      "inputs": [],
      "name": "symbol",
      "outputs": [
        {
          "internalType": "string",
          "name": "",
          "type": "string"
        }
      ],
      "stateMutability": "view",
      "type": "function"
    },
    {
      "inputs": [
        {
          "internalType": "uint256",
          "name": "index",
          "type": "uint256"
        }
      ],
      "name": "tokenByIndex",
      "outputs": [
        {
          "internalType": "uint256",
          "name": "",
          "type": "uint256"
        }
      ],
      "stateMutability": "view",
      "type": "function"
    },
    {
      "inputs": [
        {
          "internalType": "address",
          "name": "owner",
          "type": "address"
        },
        {
          "internalType": "uint256",
          "name": "index",
          "type": "uint256"
        }
      ],
      "name": "tokenOfOwnerByIndex",
      "outputs": [
        {
          "internalType": "uint256",
          "name": "",
          "type": "uint256"
        }
      ],
      "stateMutability": "view",
      "type": "function"
    },
    {
      "inputs": [
        {
          "internalType": "uint256",
          "name": "tokenId",
          "type": "uint256"
        }
      ],
      "name": "tokenURI",
      "outputs": [
        {
          "internalType": "string",
          "name": "",
          "type": "string"
        }
      ],
      "stateMutability": "view",
      "type": "function"
    },
    {
      "inputs": [],
      "name": "totalSupply",
      "outputs": [
        {
          "internalType": "uint256",
          "name": "",
          "type": "uint256"
        }
      ],
      "stateMutability": "view",
      "type": "function"
    },
    {
      "inputs": [
        {
          "internalType": "address",
          "name": "from",
          "type": "address"
        },
        {
          "internalType": "address",
          "name": "to",
          "type": "address"
        },
        {
          "internalType": "uint256",
          "name": "tokenId",
          "type": "uint256"
        }
      ],
      "name": "transferFrom",
      "outputs": [],
      "stateMutability": "nonpayable",
      "type": "function"
    },
    {
      "inputs": [
        {
          "internalType": "uint256",
          "name": "fromTokenId_",
          "type": "uint256"
        },
        {
          "internalType": "uint256",
          "name": "toTokenId_",
          "type": "uint256"
        },
        {
          "internalType": "uint256",
          "name": "value_",
          "type": "uint256"
        }
      ],
      "name": "transferFrom",
      "outputs": [],
      "stateMutability": "payable",
      "type": "function"
    },
    {
      "inputs": [],
      "name": "valueDecimals",
      "outputs": [
        {
          "internalType": "uint8",
          "name": "",
          "type": "uint8"
        }
      ],
      "stateMutability": "view",
      "type": "function"
    }
  ],
  "bytecode": "60806040523480156200001157600080fd5b5060405162003ae138038062003ae1833981016040819052620000349162000214565b8383838282816000908051906020019062000051929190620000a1565b50805162000067906001906020840190620000a1565b5050600f805460ff191660ff9390931692909217909155505081516200009691506011906020840190620000a1565b5050505050620002fc565b828054620000af90620002c0565b90600052602060002090601f016020900481019282620000d357600085556200011e565b82601f10620000ee57805160ff19168380011785556200011e565b828001600101855582156200011e579182015b828111156200011e57825182559160200191906001019062000101565b506200012c92915062000130565b5090565b5b808211156200012c576000815560010162000131565b634e487b7160e01b600052604160045260246000fd5b600082601f8301126200016f57600080fd5b81516001600160401b03808211156200018c576200018c62000147565b604051601f8301601f19908116603f01168101908282118183101715620001b757620001b762000147565b81604052838152602092508683858801011115620001d457600080fd5b600091505b83821015620001f85785820183015181830184015290820190620001d9565b838211156200020a5760008385830101525b9695505050505050565b600080600080608085870312156200022b57600080fd5b84516001600160401b03808211156200024357600080fd5b62000251888389016200015d565b955060208701519150808211156200026857600080fd5b62000276888389016200015d565b94506040870151915060ff821682146200028f57600080fd5b606087015191935080821115620002a557600080fd5b50620002b4878288016200015d565b91505092959194509250565b600181811c90821680620002d557607f821691505b602082108103620002f657634e487b7160e01b600052602260045260246000fd5b50919050565b6137d5806200030c6000396000f3fe60806040526004361061019c5760003560e01c80636352211e116100ec578063b88d4fde1161008a578063e345e0bc11610064578063e345e0bc1461049b578063e8a3d485146104e2578063e9352c5e146104f7578063e985e9c51461051757600080fd5b8063b88d4fde1461042e578063c87b56dd1461044e578063d3ceafb91461046e57600080fd5b80638cb0a511116100c65780638cb0a511146103c657806395d89b41146103d95780639cc7f708146103ee578063a22cb4651461040e57600080fd5b80636352211e1461036657806370a08231146103865780638a833d17146103a657600080fd5b806323b872dd11610159578063310ed7f011610133578063310ed7f0146102f15780633e7e86691461030457806342842e0e146103265780634f6ccce71461034657600080fd5b806323b872dd14610291578063263f3e7e146102b15780632f745c59146102d157600080fd5b806301ffc9a7146101a157806306fdde03146101d6578063081812fc146101f8578063095ea7b31461023057806309c3dd871461025257806318160ddd14610272575b600080fd5b3480156101ad57600080fd5b506101c16101bc36600461272e565b610560565b60405190151581526020015b60405180910390f35b3480156101e257600080fd5b506101eb6105a6565b6040516101cd91906127a3565b34801561020457600080fd5b506102186102133660046127b6565b610638565b6040516001600160a01b0390911681526020016101cd565b34801561023c57600080fd5b5061025061024b3660046127eb565b61065f565b005b34801561025e57600080fd5b506101eb61026d3660046127b6565b610779565b34801561027e57600080fd5b506008545b6040519081526020016101cd565b34801561029d57600080fd5b506102506102ac366004612815565b6107ec565b3480156102bd57600080fd5b506102836102cc3660046127b6565b61081d565b3480156102dd57600080fd5b506102836102ec3660046127eb565b610899565b6102506102ff366004612851565b61092f565b34801561031057600080fd5b50600f5460405160ff90911681526020016101cd565b34801561033257600080fd5b50610250610341366004612815565b610945565b34801561035257600080fd5b506102836103613660046127b6565b610960565b34801561037257600080fd5b506102186103813660046127b6565b6109f3565b34801561039257600080fd5b506102836103a136600461287d565b610a53565b3480156103b257600080fd5b506102506103c1366004612969565b610ad9565b6102506103d4366004612a48565b610c73565b3480156103e557600080fd5b506101eb610d79565b3480156103fa57600080fd5b506102836104093660046127b6565b610d88565b34801561041a57600080fd5b50610250610429366004612a6d565b610e07565b34801561043a57600080fd5b50610250610449366004612aa9565b610e16565b34801561045a57600080fd5b506101eb6104693660046127b6565b610e48565b34801561047a57600080fd5b5061048e6104893660046127b6565b610ef2565b6040516101cd9190612b25565b3480156104a757600080fd5b506102836104b6366004612bd1565b6000828152600b602090815260408083206001600160a01b038516845260010190915290205492915050565b3480156104ee57600080fd5b506101eb611146565b34801561050357600080fd5b50610283610512366004612bfd565b6111a3565b34801561052357600080fd5b506101c1610532366004612c51565b6001600160a01b03918216600090815260056020908152604080832093909416825291909152205460ff1690565b60006001600160e01b03198216636d3eeea160e11b148061059157506001600160e01b031982166370b0048160e11b145b806105a057506105a08261121b565b92915050565b6060600080546105b590612c7b565b80601f01602080910402602001604051908101604052809291908181526020018280546105e190612c7b565b801561062e5780601f106106035761010080835404028352916020019161062e565b820191906000526020600020905b81548152906001019060200180831161061157829003601f168201915b5050505050905090565b600061064382611240565b506000908152600460205260409020546001600160a01b031690565b600061066a826109f3565b9050806001600160a01b0316836001600160a01b0316036106dc5760405162461bcd60e51b815260206004820152602160248201527f4552433732313a20617070726f76616c20746f2063757272656e74206f776e656044820152603960f91b60648201526084015b60405180910390fd5b336001600160a01b03821614806106f857506106f88133610532565b61076a5760405162461bcd60e51b815260206004820152603e60248201527f4552433732313a20617070726f76652063616c6c6572206973206e6f7420746f60448201527f6b656e206f776e6572206e6f7220617070726f76656420666f7220616c6c000060648201526084016106d3565b6107748383611293565b505050565b60008181526010602052604090206060906107c690600181016002820161079f86611301565b6040516020016107b29493929190612d4e565b604051602081830303815290604052611408565b6040516020016107d69190612df7565b6040516020818303038152906040529050919050565b6107f6338261155b565b6108125760405162461bcd60e51b81526004016106d390612e3c565b6107748383836115d9565b600061082882611780565b6108865760405162461bcd60e51b815260206004820152602960248201527f455243333532353a20736c6f7420717565727920666f72206e6f6e657869737460448201526832b73a103a37b5b2b760b91b60648201526084016106d3565b506000908152600c602052604090205490565b60006108a483610a53565b82106109065760405162461bcd60e51b815260206004820152602b60248201527f455243373231456e756d657261626c653a206f776e657220696e646578206f7560448201526a74206f6620626f756e647360a81b60648201526084016106d3565b506001600160a01b03919091166000908152600660209081526040808320938352929052205490565b61093a33848361179d565b610774838383611845565b61077483838360405180602001604052806000815250610e16565b600061096b60085490565b82106109ce5760405162461bcd60e51b815260206004820152602c60248201527f455243373231456e756d657261626c653a20676c6f62616c20696e646578206f60448201526b7574206f6620626f756e647360a01b60648201526084016106d3565b600882815481106109e1576109e1612e8a565b90600052602060002001549050919050565b6000818152600260205260408120546001600160a01b0316806105a05760405162461bcd60e51b8152602060048201526018602482015277115490cdcc8c4e881a5b9d985b1a59081d1bdad95b88125160421b60448201526064016106d3565b60006001600160a01b038216610abd5760405162461bcd60e51b815260206004820152602960248201527f4552433732313a2061646472657373207a65726f206973206e6f7420612076616044820152683634b21037bbb732b960b91b60648201526084016106d3565b506001600160a01b031660009081526003602052604090205490565b633b9aca008610610b2c5760405162461bcd60e51b815260206004820152601d60248201527f455243333532353a20746f6b656e496420697320746f6f206c6172676500000060448201526064016106d3565b6000610b3a868686866111a3565b6040805160e0810182528c815260208082018d90528183018c90526001600160a01b038a16606083015260ff8916608083015263ffffffff80891660a0840152871660c0830152600084815260108252929092208151805194955091939092610ba7928492910190612665565b506020828101518051610bc09260018501920190612665565b5060408201518051610bdc916002840191602090910190612665565b5060608201516003919091018054608084015160a085015160c0909501516001600160a01b039094166001600160a81b031990921691909117600160a01b60ff909216919091021767ffffffffffffffff60a81b1916600160a81b63ffffffff9485160263ffffffff60c81b191617600160c81b9390921692909202179055610c6733888385611aa9565b50505050505050505050565b6000610c7e846109f3565b9050806001600160a01b0316836001600160a01b031603610cec5760405162461bcd60e51b815260206004820152602260248201527f455243333532353a20617070726f76616c20746f2063757272656e74206f776e60448201526132b960f11b60648201526084016106d3565b610cf6338561155b565b610d685760405162461bcd60e51b815260206004820152603960248201527f455243333532353a20617070726f76652063616c6c6572206973206e6f74206f60448201527f776e6572206e6f7220617070726f76656420666f7220616c6c0000000000000060648201526084016106d3565b610d73848484611c17565b50505050565b6060600180546105b590612c7b565b6000610d9382611780565b610df45760405162461bcd60e51b815260206004820152602c60248201527f455243333532353a2062616c616e636520717565727920666f72206e6f6e657860448201526b34b9ba32b73a103a37b5b2b760a11b60648201526084016106d3565b506000908152600a602052604090205490565b610e12338383611c97565b5050565b610e20338361155b565b610e3c5760405162461bcd60e51b81526004016106d390612e3c565b610d7384848484611d65565b6060610e5382611780565b610e935760405162461bcd60e51b81526020600482015260116024820152703737b732bc34b9ba32b73a103a37b5b2b760791b60448201526064016106d3565b6000610e9e83611d98565b6011604051602001610eb1929190612ea0565b6040516020818303038152906040529050610ecb81611408565b604051602001610edb9190612df7565b604051602081830303815290604052915050919050565b6040805160e08101825260608082526020820181905291810182905260009181018290526080810182905260a0810182905260c081019190915260008281526010602052604090819020815160e08101909252805482908290610f5490612c7b565b80601f0160208091040260200160405190810160405280929190818152602001828054610f8090612c7b565b8015610fcd5780601f10610fa257610100808354040283529160200191610fcd565b820191906000526020600020905b815481529060010190602001808311610fb057829003601f168201915b50505050508152602001600182018054610fe690612c7b565b80601f016020809104026020016040519081016040528092919081815260200182805461101290612c7b565b801561105f5780601f106110345761010080835404028352916020019161105f565b820191906000526020600020905b81548152906001019060200180831161104257829003601f168201915b5050505050815260200160028201805461107890612c7b565b80601f01602080910402602001604051908101604052809291908181526020018280546110a490612c7b565b80156110f15780601f106110c6576101008083540402835291602001916110f1565b820191906000526020600020905b8154815290600101906020018083116110d457829003601f168201915b5050509183525050600391909101546001600160a01b038116602083015260ff600160a01b820416604083015263ffffffff600160a81b820481166060840152600160c81b9091041660809091015292915050565b60606000611152611e99565b90506000815111611172576040518060200160405280600081525061119d565b8061117c30611ea8565b60405160200161118d929190613142565b6040516020818303038152906040525b91505090565b6040516bffffffffffffffffffffffff19606086901b1660208201526001600160f81b031960f885901b1660348201526001600160e01b031960e084811b8216603584015283901b166039820152600090603d016040516020818303038152906040528051906020012060001c90505b949350505050565b60006001600160e01b0319821663780e9d6360e01b14806105a057506105a082611eff565b61124981611780565b6112905760405162461bcd60e51b8152602060048201526018602482015277115490cdcc8c4e881a5b9d985b1a59081d1bdad95b88125160421b60448201526064016106d3565b50565b600081815260046020526040902080546001600160a01b0319166001600160a01b03841690811790915581906112c8826109f3565b6001600160a01b03167f8c5be1e5ebec7d5bd14f71427d1e84f3dd0314c0f7b2291e5b200ac8c7c3b92560405160405180910390a45050565b600081815260106020526040902060038101546060919061132a906001600160a01b0316611ea8565b60405160200161133a9190613186565b60408051808303601f19018152919052600382015461136290600160a01b900460ff16611d98565b6040516020016113729190613279565b60408051808303601f19018152919052600383015461139d90600160a81b900463ffffffff16611d98565b6040516020016113ad919061337f565b60408051808303601f1901815291905260038401546113d890600160c81b900463ffffffff16611d98565b6040516020016113e89190613477565b60408051601f1981840301815290829052610edb94939291602001613550565b6060815160000361142757505060408051602081019091526000815290565b6000604051806060016040528060408152602001613760604091399050600060038451600261145691906135e1565b611460919061360f565b61146b906004613623565b67ffffffffffffffff81111561148357611483612898565b6040519080825280601f01601f1916602001820160405280156114ad576020820181803683370190505b509050600182016020820185865187015b80821015611519576003820191508151603f8160121c168501518453600184019350603f81600c1c168501518453600184019350603f8160061c168501518453600184019350603f81168501518453506001830192506114be565b5050600386510660018114611535576002811461154857611550565b603d6001830353603d6002830353611550565b603d60018303535b509195945050505050565b600080611567836109f3565b9050806001600160a01b0316846001600160a01b031614806115ae57506001600160a01b0380821660009081526005602090815260408083209388168352929052205460ff165b806112135750836001600160a01b03166115c784610638565b6001600160a01b031614949350505050565b826001600160a01b03166115ec826109f3565b6001600160a01b0316146116505760405162461bcd60e51b815260206004820152602560248201527f4552433732313a207472616e736665722066726f6d20696e636f72726563742060448201526437bbb732b960d91b60648201526084016106d3565b6001600160a01b0382166116b25760405162461bcd60e51b8152602060048201526024808201527f4552433732313a207472616e7366657220746f20746865207a65726f206164646044820152637265737360e01b60648201526084016106d3565b6116bd838383611f4f565b6116c8600082611293565b6001600160a01b03831660009081526003602052604081208054600192906116f1908490613642565b90915550506001600160a01b038216600090815260036020526040812080546001929061171f9084906135e1565b909155505060008181526002602052604080822080546001600160a01b0319166001600160a01b0386811691821790925591518493918716917fddf252ad1be2c89b69c2b068fc378daa952ba7f163c4a11628f55a4df523b3ef91a4505050565b6000908152600260205260409020546001600160a01b0316151590565b6000828152600b602090815260408083206001600160a01b03871684526001019091529020546117cd848461155b565b1580156117dc57506000198114155b15610d7357818110156118315760405162461bcd60e51b815260206004820152601f60248201527f455243333532353a20696e73756666696369656e7420616c6c6f77616e63650060448201526064016106d3565b610d7383856118408585613642565b611c17565b61184e83611780565b6118ac5760405162461bcd60e51b815260206004820152602960248201527f45524333353235353a207472616e736665722066726f6d206e6f6e657869737460448201526832b73a103a37b5b2b760b91b60648201526084016106d3565b6118b582611780565b6119115760405162461bcd60e51b815260206004820152602760248201527f45524333353235353a207472616e7366657220746f206e6f6e6578697374656e6044820152663a103a37b5b2b760c91b60648201526084016106d3565b6000838152600a60205260409020548111156119805760405162461bcd60e51b815260206004820152602860248201527f455243333532353a207472616e7366657220616d6f756e7420657863656564736044820152672062616c616e636560c01b60648201526084016106d3565b6000828152600c602052604080822054858352912054146119fa5760405162461bcd60e51b815260206004820152602e60248201527f455243333533353a207472616e7366657220746f20746f6b656e20776974682060448201526d191a5999995c995b9d081cdb1bdd60921b60648201526084016106d3565b6000611a05846109f3565b90506000611a12846109f3565b6000868152600a6020526040812080549293508592909190611a35908490613642565b90915550506000848152600a602052604081208054859290611a589084906135e1565b90915550506000859052600c60205283857f0b2aac84f3ec956911fd78eae5311062972ff949f38412e8da39069d9f068cc685604051611a9a91815260200190565b60405180910390a35050505050565b6001600160a01b038416611b095760405162461bcd60e51b815260206004820152602160248201527f455243333532353a206d696e7420746f20746865207a65726f206164647265736044820152607360f81b60648201526084016106d3565b82600003611b635760405162461bcd60e51b815260206004820152602160248201527f455243333532353a2063616e6e6f74206d696e74207a65726f20746f6b656e496044820152601960fa1b60648201526084016106d3565b611b6c83611780565b15611bb95760405162461bcd60e51b815260206004820152601d60248201527f455243333532353a20746f6b656e20616c7265616479206d696e74656400000060448201526064016106d3565b611bc4848484611ff1565b6000838152600a602052604090208190558260007f0b2aac84f3ec956911fd78eae5311062972ff949f38412e8da39069d9f068cc683604051611c0991815260200190565b60405180910390a350505050565b6000838152600b6020908152604080832080546001808201835582865284862090910180546001600160a01b0319166001600160a01b038916908117909155808652908201845293829020859055905184815290929186917f621b050de0ad08b51d19b48b3e6df75348c4de6bdd93e81b252ca62e28265b1b9101611c09565b816001600160a01b0316836001600160a01b031603611cf85760405162461bcd60e51b815260206004820152601960248201527f4552433732313a20617070726f766520746f2063616c6c65720000000000000060448201526064016106d3565b6001600160a01b03838116600081815260056020908152604080832094871680845294825291829020805460ff191686151590811790915591519182527f17307eab39ab6107e8899845ad3d59bd9653f200f220920489ca2b5937696c31910160405180910390a3505050565b611d708484846115d9565b611d7c8484848461203d565b610d735760405162461bcd60e51b81526004016106d390613659565b606081600003611dbf5750506040805180820190915260018152600360fc1b602082015290565b8160005b8115611de95780611dd3816136ab565b9150611de29050600a8361360f565b9150611dc3565b60008167ffffffffffffffff811115611e0457611e04612898565b6040519080825280601f01601f191660200182016040528015611e2e576020820181803683370190505b5090505b841561121357611e43600183613642565b9150611e50600a866136c4565b611e5b9060306135e1565b60f81b818381518110611e7057611e70612e8a565b60200101906001600160f81b031916908160001a905350611e92600a8661360f565b9450611e32565b6060601180546105b590612c7b565b606081600003611ed25750506040805180820190915260048152630307830360e41b602082015290565b8160005b8115611ef55780611ee6816136ab565b915050600882901c9150611ed6565b611213848261213b565b60006001600160e01b031982166380ac58cd60e01b1480611f3057506001600160e01b03198216635b5e139f60e01b145b806105a057506301ffc9a760e01b6001600160e01b03198316146105a0565b6000818152600b6020526040812054905b81811015611fce576000838152600b60205260408120805483908110611f8857611f88612e8a565b6000918252602080832090910154868352600b825260408084206001600160a01b0390921684526001919091019091528120555080611fc6816136ab565b915050611f60565b506000828152600b60205260408120611fe6916126e9565b610d738484846122de565b611ffb8383612396565b6000828152600c60205260408082208390555182919084907fe4f48c240d3b994948aa54f3e2f5fca59263dfe1d52b6e4cf39a5d249b5ccb65908390a4505050565b60006001600160a01b0384163b1561213357604051630a85bd0160e11b81526001600160a01b0385169063150b7a02906120819033908990889088906004016136d8565b6020604051808303816000875af19250505080156120bc575060408051601f3d908101601f191682019092526120b991810190613715565b60015b612119573d8080156120ea576040519150601f19603f3d011682016040523d82523d6000602084013e6120ef565b606091505b5080516000036121115760405162461bcd60e51b81526004016106d390613659565b805181602001fd5b6001600160e01b031916630a85bd0160e11b149050611213565b506001611213565b6060600061214a836002613623565b6121559060026135e1565b67ffffffffffffffff81111561216d5761216d612898565b6040519080825280601f01601f191660200182016040528015612197576020820181803683370190505b509050600360fc1b816000815181106121b2576121b2612e8a565b60200101906001600160f81b031916908160001a905350600f60fb1b816001815181106121e1576121e1612e8a565b60200101906001600160f81b031916908160001a9053506000612205846002613623565b6122109060016135e1565b90505b6001811115612288576f181899199a1a9b1b9c1cb0b131b232b360811b85600f166010811061224457612244612e8a565b1a60f81b82828151811061225a5761225a612e8a565b60200101906001600160f81b031916908160001a90535060049490941c9361228181613732565b9050612213565b5083156122d75760405162461bcd60e51b815260206004820181905260248201527f537472696e67733a20686578206c656e67746820696e73756666696369656e7460448201526064016106d3565b9392505050565b6001600160a01b0383166123395761233481600880546000838152600960205260408120829055600182018355919091527ff3f7a9fe364faab93b216da50a3214154f22a0a2b415b23a84c8169e8b636ee30155565b61235c565b816001600160a01b0316836001600160a01b03161461235c5761235c83826124d5565b6001600160a01b0382166123735761077481612572565b826001600160a01b0316826001600160a01b031614610774576107748282612621565b6001600160a01b0382166123ec5760405162461bcd60e51b815260206004820181905260248201527f4552433732313a206d696e7420746f20746865207a65726f206164647265737360448201526064016106d3565b6123f581611780565b156124425760405162461bcd60e51b815260206004820152601c60248201527f4552433732313a20746f6b656e20616c7265616479206d696e7465640000000060448201526064016106d3565b61244e60008383611f4f565b6001600160a01b03821660009081526003602052604081208054600192906124779084906135e1565b909155505060008181526002602052604080822080546001600160a01b0319166001600160a01b03861690811790915590518392907fddf252ad1be2c89b69c2b068fc378daa952ba7f163c4a11628f55a4df523b3ef908290a45050565b600060016124e284610a53565b6124ec9190613642565b60008381526007602052604090205490915080821461253f576001600160a01b03841660009081526006602090815260408083208584528252808320548484528184208190558352600790915290208190555b5060009182526007602090815260408084208490556001600160a01b039094168352600681528383209183525290812055565b60085460009061258490600190613642565b600083815260096020526040812054600880549394509092849081106125ac576125ac612e8a565b9060005260206000200154905080600883815481106125cd576125cd612e8a565b600091825260208083209091019290925582815260099091526040808220849055858252812055600880548061260557612605613749565b6001900381819060005260206000200160009055905550505050565b600061262c83610a53565b6001600160a01b039093166000908152600660209081526040808320868452825280832085905593825260079052919091209190915550565b82805461267190612c7b565b90600052602060002090601f01602090048101928261269357600085556126d9565b82601f106126ac57805160ff19168380011785556126d9565b828001600101855582156126d9579182015b828111156126d95782518255916020019190600101906126be565b506126e5929150612703565b5090565b508054600082559060005260206000209081019061129091905b5b808211156126e55760008155600101612704565b6001600160e01b03198116811461129057600080fd5b60006020828403121561274057600080fd5b81356122d781612718565b60005b8381101561276657818101518382015260200161274e565b83811115610d735750506000910152565b6000815180845261278f81602086016020860161274b565b601f01601f19169290920160200192915050565b6020815260006122d76020830184612777565b6000602082840312156127c857600080fd5b5035919050565b80356001600160a01b03811681146127e657600080fd5b919050565b600080604083850312156127fe57600080fd5b612807836127cf565b946020939093013593505050565b60008060006060848603121561282a57600080fd5b612833846127cf565b9250612841602085016127cf565b9150604084013590509250925092565b60008060006060848603121561286657600080fd5b505081359360208301359350604090920135919050565b60006020828403121561288f57600080fd5b6122d7826127cf565b634e487b7160e01b600052604160045260246000fd5b600067ffffffffffffffff808411156128c9576128c9612898565b604051601f8501601f19908116603f011681019082821181831017156128f1576128f1612898565b8160405280935085815286868601111561290a57600080fd5b858560208301376000602087830101525050509392505050565b600082601f83011261293557600080fd5b6122d7838335602085016128ae565b803560ff811681146127e657600080fd5b803563ffffffff811681146127e657600080fd5b60008060008060008060008060006101208a8c03121561298857600080fd5b893567ffffffffffffffff808211156129a057600080fd5b6129ac8d838e01612924565b9a5060208c01359150808211156129c257600080fd5b6129ce8d838e01612924565b995060408c01359150808211156129e457600080fd5b506129f18c828d01612924565b97505060608a01359550612a0760808b016127cf565b9450612a1560a08b01612944565b9350612a2360c08b01612955565b9250612a3160e08b01612955565b91506101008a013590509295985092959850929598565b600080600060608486031215612a5d57600080fd5b83359250612841602085016127cf565b60008060408385031215612a8057600080fd5b612a89836127cf565b915060208301358015158114612a9e57600080fd5b809150509250929050565b60008060008060808587031215612abf57600080fd5b612ac8856127cf565b9350612ad6602086016127cf565b925060408501359150606085013567ffffffffffffffff811115612af957600080fd5b8501601f81018713612b0a57600080fd5b612b19878235602084016128ae565b91505092959194509250565b602081526000825160e06020840152612b42610100840182612777565b90506020840151601f1980858403016040860152612b608383612777565b9250604086015191508085840301606086015250612b7e8282612777565b91505060018060a01b03606085015116608084015260ff60808501511660a084015260a0840151612bb760c085018263ffffffff169052565b5060c084015163ffffffff811660e0850152509392505050565b60008060408385031215612be457600080fd5b82359150612bf4602084016127cf565b90509250929050565b60008060008060808587031215612c1357600080fd5b612c1c856127cf565b9350612c2a60208601612944565b9250612c3860408601612955565b9150612c4660608601612955565b905092959194509250565b60008060408385031215612c6457600080fd5b612c6d836127cf565b9150612bf4602084016127cf565b600181811c90821680612c8f57607f821691505b602082108103612caf57634e487b7160e01b600052602260045260246000fd5b50919050565b8054600090600181811c9080831680612ccf57607f831692505b60208084108203612cf057634e487b7160e01b600052602260045260246000fd5b818015612d045760018114612d1557612d42565b60ff19861689528489019650612d42565b60008881526020902060005b86811015612d3a5781548b820152908501908301612d21565b505084890196505b50505050505092915050565b683d913730b6b2911d1160b91b81526000612d6c6009830187612cb5565b701116113232b9b1b934b83a34b7b7111d1160791b8152612d906011820187612cb5565b6a11161134b6b0b3b2911d1160a91b81529050612db0600b820186612cb5565b6e111611383937b832b93a34b2b9911d60891b81528451909150612ddb81600f84016020880161274b565b607d60f81b600f92909101918201526010019695505050505050565b7f646174613a6170706c69636174696f6e2f6a736f6e3b6261736536342c000000815260008251612e2f81601d85016020870161274b565b91909101601d0192915050565b6020808252602e908201527f4552433732313a2063616c6c6572206973206e6f7420746f6b656e206f776e6560408201526d1c881b9bdc88185c1c1c9bdd995960921b606082015260800190565b634e487b7160e01b600052603260045260246000fd5b7f7b226e616d65223a2022496e66696e697479204761756e746c65742023000000815260008351612ed881601d85016020880161274b565b7f222c20226465736372697074696f6e223a20225468697320697320746865206c601d918401918201527f696d697465642065646974696f6e204e4654206f66204d696e6572204170652c603d8201527f206a6f696e746c792069737375656420627920617065206d696e657220616e64605d8201527f2066696c7377616e2e496e66696e697479204761756e746c6574206973207468607d8201527f65206669727374206163636573736f727920696e2074686520617065206d696e609d8201527f65722065636f6c6f67792e222c2022696d616765223a2022000000000000000060bd820152612fcd60d5820185612cb5565b7f222c202264657369676e6572223a20226170656d696e65722e696f222c22617481527f7472696275746573223a205b7b2274726169745f74797065223a20224461746560208201527f222c2276616c7565223a2022323032322d30392d3237227d2c7b22747261697460408201527f5f74797065223a2022496e2d6d656d6f7279222c2276616c7565223a2022417060608201527f654d696e65722059616368742050617274792032303232227d2c207b2274726160808201527f69745f74797065223a2022476d73746f6e6573222c2276616c7565223a20223260a08201527f227d2c207b2274726169745f74797065223a2022536b696c6c73222c2276616c60c08201527f7565223a2022456e68616e636564206561726e696e6773227d2c207b2274726160e08201527f69745f74797065223a20225570677261646561626c65222c2276616c7565223a6101008201526920224e6f6e65227d5d7d60b01b61012082015261012a0195945050505050565b6000835161315481846020880161274b565b68636f6e74726163742f60b81b908301908152835161317a81600984016020880161274b565b01600901949350505050565b741ec89b985b59488e889d5b99195c9b1e5a5b99c88b605a1b81527f226465736372697074696f6e223a2241646472657373206f662074686520756e60158201527f6465726c79696e6720746f6b656e206c6f636b656420696e207468697320636f6035820152681b9d1c9858dd0b888b60ba1b605582015268113b30b63ab2911d1160b91b605e820152815160009061322781606785016020870161274b565b61088b60f21b606793909101928301525069089bdc99195c888e8c4b60b21b60698201527f22646973706c61795f74797065223a22737472696e67227d2c000000000000006073820152608c01919050565b7f7b226e616d65223a2276657374696e675f74797065222c00000000000000000081527f226465736372697074696f6e223a2256657374696e672074797065207468617460178201527f20726570726573656e7473207468652072656c656173696e67206d6f6465206f60378201527519881d5b99195c9b1e5a5b99c8185cdcd95d1ccb888b60521b605782015267113b30b63ab2911d60c11b606d820152815160009061332e81607585016020870161274b565b600b60fa1b607593909101928301525069089bdc99195c888e8c8b60b21b60768201527f22646973706c61795f74797065223a226e756d626572227d2c000000000000006080820152609901919050565b721ec89b985b59488e889b585d1d5c9a5d1e488b606a1b81527f226465736372697074696f6e223a224d61747572697479207468617420616c6c60138201527f20756e6465726c79696e672061737365747320776f756c6420626520636f6d706033820152711b195d195b1e481c995b19585cd9590b888b60721b605382015267113b30b63ab2911d60c11b6065820152815160009061342681606d85016020870161274b565b600b60fa1b606d93909101928301525069089bdc99195c888e8ccb60b21b606e8201527f22646973706c61795f74797065223a2264617465227d2c0000000000000000006078820152608f01919050565b6e1ec89b985b59488e889d195c9b488b608a1b81527f226465736372697074696f6e223a22546865206c656e677468206f6620746865600f8201527f206c6f636b696e6720706572696f642028696e207365636f6e647329222c0000602f82015267113b30b63ab2911d60c11b604d82015281516000906134ff81605585016020870161274b565b600b60fa1b605593909101928301525069089bdc99195c888e8d0b60b21b60568201527f22646973706c61795f74797065223a226e756d626572227d00000000000000006060820152607801919050565b605b60f81b81526000855161356c816001850160208a0161274b565b855190830190613583816001840160208a0161274b565b855191019061359981600184016020890161274b565b84519101906135af81600184016020880161274b565b605d60f81b600192909101918201526002019695505050505050565b634e487b7160e01b600052601160045260246000fd5b600082198211156135f4576135f46135cb565b500190565b634e487b7160e01b600052601260045260246000fd5b60008261361e5761361e6135f9565b500490565b600081600019048311821515161561363d5761363d6135cb565b500290565b600082821015613654576136546135cb565b500390565b60208082526032908201527f4552433732313a207472616e7366657220746f206e6f6e20455243373231526560408201527131b2b4bb32b91034b6b83632b6b2b73a32b960711b606082015260800190565b6000600182016136bd576136bd6135cb565b5060010190565b6000826136d3576136d36135f9565b500690565b6001600160a01b038581168252841660208201526040810183905260806060820181905260009061370b90830184612777565b9695505050505050565b60006020828403121561372757600080fd5b81516122d781612718565b600081613741576137416135cb565b506000190190565b634e487b7160e01b600052603160045260246000fdfe4142434445464748494a4b4c4d4e4f505152535455565758595a6162636465666768696a6b6c6d6e6f707172737475767778797a303132333435363738392b2fa2646970667358221220dac0c6d806c36e6e84255b0886cd32b97e8aed9c3119827408f358eda4b5a4fa64736f6c634300080d0033",
  "bytecodeSha1": "2e487a276a1d74d632a9a30ebd7bd8ca82f9c654",
  "compiler": {
    "evm_version": "istanbul",
    "optimizer": {
      "enabled": true,
      "runs": 200
    },
    "version": "0.8.13+commit.abaa5c0e"
  },
  "contractName": "ERC3525Example",
  "language": "Solidity",
  "natspec": {
    "kind": "dev",
    "methods": {
      "approve(address,uint256)": {
        "details": "See {IERC721-approve}."
      },
      "balanceOf(address)": {
        "details": "See {IERC721-balanceOf}."
      },
      "contractURI()": {
        "details": "This function SHOULD return the URI for this contract in JSON format, starting with  header `data:application/json;`.  See https://eips.ethereum.org/EIPS/eip-3525 for the JSON schema for contract URI.",
        "notice": "Returns the Uniform Resource Identifier (URI) for the current ERC3525 contract.",
        "returns": {
          "_0": "The JSON formatted URI of the current ERC3525 contract"
        }
      },
      "getApproved(uint256)": {
        "details": "See {IERC721-getApproved}."
      },
      "isApprovedForAll(address,address)": {
        "details": "See {IERC721-isApprovedForAll}."
      },
      "makeSlotId(address,uint8,uint32,uint32)": {
        "details": "Generate the value of slot by utilizing keccak256 algorithm to calculate the hash value of multi properties."
      },
      "name()": {
        "details": "See {IERC721Metadata-name}."
      },
      "ownerOf(uint256)": {
        "details": "See {IERC721-ownerOf}."
      },
      "safeTransferFrom(address,address,uint256)": {
        "details": "See {IERC721-safeTransferFrom}."
      },
      "safeTransferFrom(address,address,uint256,bytes)": {
        "details": "See {IERC721-safeTransferFrom}."
      },
      "setApprovalForAll(address,bool)": {
        "details": "See {IERC721-setApprovalForAll}."
      },
      "symbol()": {
        "details": "See {IERC721Metadata-symbol}."
      },
      "tokenByIndex(uint256)": {
        "details": "See {IERC721Enumerable-tokenByIndex}."
      },
      "tokenOfOwnerByIndex(address,uint256)": {
        "details": "See {IERC721Enumerable-tokenOfOwnerByIndex}."
      },
      "totalSupply()": {
        "details": "See {IERC721Enumerable-totalSupply}."
      },
      "transferFrom(address,address,uint256)": {
        "details": "See {IERC721-transferFrom}."
      },
      "valueDecimals()": {
        "notice": "Get the number of decimals the token uses for value - e.g. 6, means the user  representation of the value of a token can be calculated by dividing it by 1,000,000.  Considering the compatibility with third-party wallets, this function is defined as  `valueDecimals()` instead of `decimals()` to avoid conflict with ERC20 tokens.",
        "returns": {
          "_0": "The number of decimals for value"
        }
      }
    },
    "notice": "This is a demo contract for how to generate slot",
    "version": 1
  },
  "opcodes": "PUSH1 0x80 PUSH1 0x40 MSTORE PUSH1 0x4 CALLDATASIZE LT PUSH2 0x19C JUMPI PUSH1 0x0 CALLDATALOAD PUSH1 0xE0 SHR DUP1 PUSH4 0x6352211E GT PUSH2 0xEC JUMPI DUP1 PUSH4 0xB88D4FDE GT PUSH2 0x8A JUMPI DUP1 PUSH4 0xE345E0BC GT PUSH2 0x64 JUMPI DUP1 PUSH4 0xE345E0BC EQ PUSH2 0x49B JUMPI DUP1 PUSH4 0xE8A3D485 EQ PUSH2 0x4E2 JUMPI DUP1 PUSH4 0xE9352C5E EQ PUSH2 0x4F7 JUMPI DUP1 PUSH4 0xE985E9C5 EQ PUSH2 0x517 JUMPI PUSH1 0x0 DUP1 REVERT JUMPDEST DUP1 PUSH4 0xB88D4FDE EQ PUSH2 0x42E JUMPI DUP1 PUSH4 0xC87B56DD EQ PUSH2 0x44E JUMPI DUP1 PUSH4 0xD3CEAFB9 EQ PUSH2 0x46E JUMPI PUSH1 0x0 DUP1 REVERT JUMPDEST DUP1 PUSH4 0x8CB0A511 GT PUSH2 0xC6 JUMPI DUP1 PUSH4 0x8CB0A511 EQ PUSH2 0x3C6 JUMPI DUP1 PUSH4 0x95D89B41 EQ PUSH2 0x3D9 JUMPI DUP1 PUSH4 0x9CC7F708 EQ PUSH2 0x3EE JUMPI DUP1 PUSH4 0xA22CB465 EQ PUSH2 0x40E JUMPI PUSH1 0x0 DUP1 REVERT JUMPDEST DUP1 PUSH4 0x6352211E EQ PUSH2 0x366 JUMPI DUP1 PUSH4 0x70A08231 EQ PUSH2 0x386 JUMPI DUP1 PUSH4 0x8A833D17 EQ PUSH2 0x3A6 JUMPI PUSH1 0x0 DUP1 REVERT JUMPDEST DUP1 PUSH4 0x23B872DD GT PUSH2 0x159 JUMPI DUP1 PUSH4 0x310ED7F0 GT PUSH2 0x133 JUMPI DUP1 PUSH4 0x310ED7F0 EQ PUSH2 0x2F1 JUMPI DUP1 PUSH4 0x3E7E8669 EQ PUSH2 0x304 JUMPI DUP1 PUSH4 0x42842E0E EQ PUSH2 0x326 JUMPI DUP1 PUSH4 0x4F6CCCE7 EQ PUSH2 0x346 JUMPI PUSH1 0x0 DUP1 REVERT JUMPDEST DUP1 PUSH4 0x23B872DD EQ PUSH2 0x291 JUMPI DUP1 PUSH4 0x263F3E7E EQ PUSH2 0x2B1 JUMPI DUP1 PUSH4 0x2F745C59 EQ PUSH2 0x2D1 JUMPI PUSH1 0x0 DUP1 REVERT JUMPDEST DUP1 PUSH4 0x1FFC9A7 EQ PUSH2 0x1A1 JUMPI DUP1 PUSH4 0x6FDDE03 EQ PUSH2 0x1D6 JUMPI DUP1 PUSH4 0x81812FC EQ PUSH2 0x1F8 JUMPI DUP1 PUSH4 0x95EA7B3 EQ PUSH2 0x230 JUMPI DUP1 PUSH4 0x9C3DD87 EQ PUSH2 0x252 JUMPI DUP1 PUSH4 0x18160DDD EQ PUSH2 0x272 JUMPI JUMPDEST PUSH1 0x0 DUP1 REVERT JUMPDEST CALLVALUE DUP1 ISZERO PUSH2 0x1AD JUMPI PUSH1 0x0 DUP1 REVERT JUMPDEST POP PUSH2 0x1C1 PUSH2 0x1BC CALLDATASIZE PUSH1 0x4 PUSH2 0x272E JUMP JUMPDEST PUSH2 0x560 JUMP JUMPDEST PUSH1 0x40 MLOAD SWAP1 ISZERO ISZERO DUP2 MSTORE PUSH1 0x20 ADD JUMPDEST PUSH1 0x40 MLOAD DUP1 SWAP2 SUB SWAP1 RETURN JUMPDEST CALLVALUE DUP1 ISZERO PUSH2 0x1E2 JUMPI PUSH1 0x0 DUP1 REVERT JUMPDEST POP PUSH2 0x1EB PUSH2 0x5A6 JUMP JUMPDEST PUSH1 0x40 MLOAD PUSH2 0x1CD SWAP2 SWAP1 PUSH2 0x27A3 JUMP JUMPDEST CALLVALUE DUP1 ISZERO PUSH2 0x204 JUMPI PUSH1 0x0 DUP1 REVERT JUMPDEST POP PUSH2 0x218 PUSH2 0x213 CALLDATASIZE PUSH1 0x4 PUSH2 0x27B6 JUMP JUMPDEST PUSH2 0x638 JUMP JUMPDEST PUSH1 0x40 MLOAD PUSH1 0x1 PUSH1 0x1 PUSH1 0xA0 SHL SUB SWAP1 SWAP2 AND DUP2 MSTORE PUSH1 0x20 ADD PUSH2 0x1CD JUMP JUMPDEST CALLVALUE DUP1 ISZERO PUSH2 0x23C JUMPI PUSH1 0x0 DUP1 REVERT JUMPDEST POP PUSH2 0x250 PUSH2 0x24B CALLDATASIZE PUSH1 0x4 PUSH2 0x27EB JUMP JUMPDEST PUSH2 0x65F JUMP JUMPDEST STOP JUMPDEST CALLVALUE DUP1 ISZERO PUSH2 0x25E JUMPI PUSH1 0x0 DUP1 REVERT JUMPDEST POP PUSH2 0x1EB PUSH2 0x26D CALLDATASIZE PUSH1 0x4 PUSH2 0x27B6 JUMP JUMPDEST PUSH2 0x779 JUMP JUMPDEST CALLVALUE DUP1 ISZERO PUSH2 0x27E JUMPI PUSH1 0x0 DUP1 REVERT JUMPDEST POP PUSH1 0x8 SLOAD JUMPDEST PUSH1 0x40 MLOAD SWAP1 DUP2 MSTORE PUSH1 0x20 ADD PUSH2 0x1CD JUMP JUMPDEST CALLVALUE DUP1 ISZERO PUSH2 0x29D JUMPI PUSH1 0x0 DUP1 REVERT JUMPDEST POP PUSH2 0x250 PUSH2 0x2AC CALLDATASIZE PUSH1 0x4 PUSH2 0x2815 JUMP JUMPDEST PUSH2 0x7EC JUMP JUMPDEST CALLVALUE DUP1 ISZERO PUSH2 0x2BD JUMPI PUSH1 0x0 DUP1 REVERT JUMPDEST POP PUSH2 0x283 PUSH2 0x2CC CALLDATASIZE PUSH1 0x4 PUSH2 0x27B6 JUMP JUMPDEST PUSH2 0x81D JUMP JUMPDEST CALLVALUE DUP1 ISZERO PUSH2 0x2DD JUMPI PUSH1 0x0 DUP1 REVERT JUMPDEST POP PUSH2 0x283 PUSH2 0x2EC CALLDATASIZE PUSH1 0x4 PUSH2 0x27EB JUMP JUMPDEST PUSH2 0x899 JUMP JUMPDEST PUSH2 0x250 PUSH2 0x2FF CALLDATASIZE PUSH1 0x4 PUSH2 0x2851 JUMP JUMPDEST PUSH2 0x92F JUMP JUMPDEST CALLVALUE DUP1 ISZERO PUSH2 0x310 JUMPI PUSH1 0x0 DUP1 REVERT JUMPDEST POP PUSH1 0xF SLOAD PUSH1 0x40 MLOAD PUSH1 0xFF SWAP1 SWAP2 AND DUP2 MSTORE PUSH1 0x20 ADD PUSH2 0x1CD JUMP JUMPDEST CALLVALUE DUP1 ISZERO PUSH2 0x332 JUMPI PUSH1 0x0 DUP1 REVERT JUMPDEST POP PUSH2 0x250 PUSH2 0x341 CALLDATASIZE PUSH1 0x4 PUSH2 0x2815 JUMP JUMPDEST PUSH2 0x945 JUMP JUMPDEST CALLVALUE DUP1 ISZERO PUSH2 0x352 JUMPI PUSH1 0x0 DUP1 REVERT JUMPDEST POP PUSH2 0x283 PUSH2 0x361 CALLDATASIZE PUSH1 0x4 PUSH2 0x27B6 JUMP JUMPDEST PUSH2 0x960 JUMP JUMPDEST CALLVALUE DUP1 ISZERO PUSH2 0x372 JUMPI PUSH1 0x0 DUP1 REVERT JUMPDEST POP PUSH2 0x218 PUSH2 0x381 CALLDATASIZE PUSH1 0x4 PUSH2 0x27B6 JUMP JUMPDEST PUSH2 0x9F3 JUMP JUMPDEST CALLVALUE DUP1 ISZERO PUSH2 0x392 JUMPI PUSH1 0x0 DUP1 REVERT JUMPDEST POP PUSH2 0x283 PUSH2 0x3A1 CALLDATASIZE PUSH1 0x4 PUSH2 0x287D JUMP JUMPDEST PUSH2 0xA53 JUMP JUMPDEST CALLVALUE DUP1 ISZERO PUSH2 0x3B2 JUMPI PUSH1 0x0 DUP1 REVERT JUMPDEST POP PUSH2 0x250 PUSH2 0x3C1 CALLDATASIZE PUSH1 0x4 PUSH2 0x2969 JUMP JUMPDEST PUSH2 0xAD9 JUMP JUMPDEST PUSH2 0x250 PUSH2 0x3D4 CALLDATASIZE PUSH1 0x4 PUSH2 0x2A48 JUMP JUMPDEST PUSH2 0xC73 JUMP JUMPDEST CALLVALUE DUP1 ISZERO PUSH2 0x3E5 JUMPI PUSH1 0x0 DUP1 REVERT JUMPDEST POP PUSH2 0x1EB PUSH2 0xD79 JUMP JUMPDEST CALLVALUE DUP1 ISZERO PUSH2 0x3FA JUMPI PUSH1 0x0 DUP1 REVERT JUMPDEST POP PUSH2 0x283 PUSH2 0x409 CALLDATASIZE PUSH1 0x4 PUSH2 0x27B6 JUMP JUMPDEST PUSH2 0xD88 JUMP JUMPDEST CALLVALUE DUP1 ISZERO PUSH2 0x41A JUMPI PUSH1 0x0 DUP1 REVERT JUMPDEST POP PUSH2 0x250 PUSH2 0x429 CALLDATASIZE PUSH1 0x4 PUSH2 0x2A6D JUMP JUMPDEST PUSH2 0xE07 JUMP JUMPDEST CALLVALUE DUP1 ISZERO PUSH2 0x43A JUMPI PUSH1 0x0 DUP1 REVERT JUMPDEST POP PUSH2 0x250 PUSH2 0x449 CALLDATASIZE PUSH1 0x4 PUSH2 0x2AA9 JUMP JUMPDEST PUSH2 0xE16 JUMP JUMPDEST CALLVALUE DUP1 ISZERO PUSH2 0x45A JUMPI PUSH1 0x0 DUP1 REVERT JUMPDEST POP PUSH2 0x1EB PUSH2 0x469 CALLDATASIZE PUSH1 0x4 PUSH2 0x27B6 JUMP JUMPDEST PUSH2 0xE48 JUMP JUMPDEST CALLVALUE DUP1 ISZERO PUSH2 0x47A JUMPI PUSH1 0x0 DUP1 REVERT JUMPDEST POP PUSH2 0x48E PUSH2 0x489 CALLDATASIZE PUSH1 0x4 PUSH2 0x27B6 JUMP JUMPDEST PUSH2 0xEF2 JUMP JUMPDEST PUSH1 0x40 MLOAD PUSH2 0x1CD SWAP2 SWAP1 PUSH2 0x2B25 JUMP JUMPDEST CALLVALUE DUP1 ISZERO PUSH2 0x4A7 JUMPI PUSH1 0x0 DUP1 REVERT JUMPDEST POP PUSH2 0x283 PUSH2 0x4B6 CALLDATASIZE PUSH1 0x4 PUSH2 0x2BD1 JUMP JUMPDEST PUSH1 0x0 DUP3 DUP2 MSTORE PUSH1 0xB PUSH1 0x20 SWAP1 DUP2 MSTORE PUSH1 0x40 DUP1 DUP4 KECCAK256 PUSH1 0x1 PUSH1 0x1 PUSH1 0xA0 SHL SUB DUP6 AND DUP5 MSTORE PUSH1 0x1 ADD SWAP1 SWAP2 MSTORE SWAP1 KECCAK256 SLOAD SWAP3 SWAP2 POP POP JUMP JUMPDEST CALLVALUE DUP1 ISZERO PUSH2 0x4EE JUMPI PUSH1 0x0 DUP1 REVERT JUMPDEST POP PUSH2 0x1EB PUSH2 0x1146 JUMP JUMPDEST CALLVALUE DUP1 ISZERO PUSH2 0x503 JUMPI PUSH1 0x0 DUP1 REVERT JUMPDEST POP PUSH2 0x283 PUSH2 0x512 CALLDATASIZE PUSH1 0x4 PUSH2 0x2BFD JUMP JUMPDEST PUSH2 0x11A3 JUMP JUMPDEST CALLVALUE DUP1 ISZERO PUSH2 0x523 JUMPI PUSH1 0x0 DUP1 REVERT JUMPDEST POP PUSH2 0x1C1 PUSH2 0x532 CALLDATASIZE PUSH1 0x4 PUSH2 0x2C51 JUMP JUMPDEST PUSH1 0x1 PUSH1 0x1 PUSH1 0xA0 SHL SUB SWAP2 DUP3 AND PUSH1 0x0 SWAP1 DUP2 MSTORE PUSH1 0x5 PUSH1 0x20 SWAP1 DUP2 MSTORE PUSH1 0x40 DUP1 DUP4 KECCAK256 SWAP4 SWAP1 SWAP5 AND DUP3 MSTORE SWAP2 SWAP1 SWAP2 MSTORE KECCAK256 SLOAD PUSH1 0xFF AND SWAP1 JUMP JUMPDEST PUSH1 0x0 PUSH1 0x1 PUSH1 0x1 PUSH1 0xE0 SHL SUB NOT DUP3 AND PUSH4 0x6D3EEEA1 PUSH1 0xE1 SHL EQ DUP1 PUSH2 0x591 JUMPI POP PUSH1 0x1 PUSH1 0x1 PUSH1 0xE0 SHL SUB NOT DUP3 AND PUSH4 0x70B00481 PUSH1 0xE1 SHL EQ JUMPDEST DUP1 PUSH2 0x5A0 JUMPI POP PUSH2 0x5A0 DUP3 PUSH2 0x121B JUMP JUMPDEST SWAP3 SWAP2 POP POP JUMP JUMPDEST PUSH1 0x60 PUSH1 0x0 DUP1 SLOAD PUSH2 0x5B5 SWAP1 PUSH2 0x2C7B JUMP JUMPDEST DUP1 PUSH1 0x1F ADD PUSH1 0x20 DUP1 SWAP2 DIV MUL PUSH1 0x20 ADD PUSH1 0x40 MLOAD SWAP1 DUP2 ADD PUSH1 0x40 MSTORE DUP1 SWAP3 SWAP2 SWAP1 DUP2 DUP2 MSTORE PUSH1 0x20 ADD DUP3 DUP1 SLOAD PUSH2 0x5E1 SWAP1 PUSH2 0x2C7B JUMP JUMPDEST DUP1 ISZERO PUSH2 0x62E JUMPI DUP1 PUSH1 0x1F LT PUSH2 0x603 JUMPI PUSH2 0x100 DUP1 DUP4 SLOAD DIV MUL DUP4 MSTORE SWAP2 PUSH1 0x20 ADD SWAP2 PUSH2 0x62E JUMP JUMPDEST DUP3 ADD SWAP2 SWAP1 PUSH1 0x0 MSTORE PUSH1 0x20 PUSH1 0x0 KECCAK256 SWAP1 JUMPDEST DUP2 SLOAD DUP2 MSTORE SWAP1 PUSH1 0x1 ADD SWAP1 PUSH1 0x20 ADD DUP1 DUP4 GT PUSH2 0x611 JUMPI DUP3 SWAP1 SUB PUSH1 0x1F AND DUP3 ADD SWAP2 JUMPDEST POP POP POP POP POP SWAP1 POP SWAP1 JUMP JUMPDEST PUSH1 0x0 PUSH2 0x643 DUP3 PUSH2 0x1240 JUMP JUMPDEST POP PUSH1 0x0 SWAP1 DUP2 MSTORE PUSH1 0x4 PUSH1 0x20 MSTORE PUSH1 0x40 SWAP1 KECCAK256 SLOAD PUSH1 0x1 PUSH1 0x1 PUSH1 0xA0 SHL SUB AND SWAP1 JUMP JUMPDEST PUSH1 0x0 PUSH2 0x66A DUP3 PUSH2 0x9F3 JUMP JUMPDEST SWAP1 POP DUP1 PUSH1 0x1 PUSH1 0x1 PUSH1 0xA0 SHL SUB AND DUP4 PUSH1 0x1 PUSH1 0x1 PUSH1 0xA0 SHL SUB AND SUB PUSH2 0x6DC JUMPI PUSH1 0x40 MLOAD PUSH3 0x461BCD PUSH1 0xE5 SHL DUP2 MSTORE PUSH1 0x20 PUSH1 0x4 DUP3 ADD MSTORE PUSH1 0x21 PUSH1 0x24 DUP3 ADD MSTORE PUSH32 0x4552433732313A20617070726F76616C20746F2063757272656E74206F776E65 PUSH1 0x44 DUP3 ADD MSTORE PUSH1 0x39 PUSH1 0xF9 SHL PUSH1 0x64 DUP3 ADD MSTORE PUSH1 0x84 ADD JUMPDEST PUSH1 0x40 MLOAD DUP1 SWAP2 SUB SWAP1 REVERT JUMPDEST CALLER PUSH1 0x1 PUSH1 0x1 PUSH1 0xA0 SHL SUB DUP3 AND EQ DUP1 PUSH2 0x6F8 JUMPI POP PUSH2 0x6F8 DUP2 CALLER PUSH2 0x532 JUMP JUMPDEST PUSH2 0x76A JUMPI PUSH1 0x40 MLOAD PUSH3 0x461BCD PUSH1 0xE5 SHL DUP2 MSTORE PUSH1 0x20 PUSH1 0x4 DUP3 ADD MSTORE PUSH1 0x3E PUSH1 0x24 DUP3 ADD MSTORE PUSH32 0x4552433732313A20617070726F76652063616C6C6572206973206E6F7420746F PUSH1 0x44 DUP3 ADD MSTORE PUSH32 0x6B656E206F776E6572206E6F7220617070726F76656420666F7220616C6C0000 PUSH1 0x64 DUP3 ADD MSTORE PUSH1 0x84 ADD PUSH2 0x6D3 JUMP JUMPDEST PUSH2 0x774 DUP4 DUP4 PUSH2 0x1293 JUMP JUMPDEST POP POP POP JUMP JUMPDEST PUSH1 0x0 DUP2 DUP2 MSTORE PUSH1 0x10 PUSH1 0x20 MSTORE PUSH1 0x40 SWAP1 KECCAK256 PUSH1 0x60 SWAP1 PUSH2 0x7C6 SWAP1 PUSH1 0x1 DUP2 ADD PUSH1 0x2 DUP3 ADD PUSH2 0x79F DUP7 PUSH2 0x1301 JUMP JUMPDEST PUSH1 0x40 MLOAD PUSH1 0x20 ADD PUSH2 0x7B2 SWAP5 SWAP4 SWAP3 SWAP2 SWAP1 PUSH2 0x2D4E JUMP JUMPDEST PUSH1 0x40 MLOAD PUSH1 0x20 DUP2 DUP4 SUB SUB DUP2 MSTORE SWAP1 PUSH1 0x40 MSTORE PUSH2 0x1408 JUMP JUMPDEST PUSH1 0x40 MLOAD PUSH1 0x20 ADD PUSH2 0x7D6 SWAP2 SWAP1 PUSH2 0x2DF7 JUMP JUMPDEST PUSH1 0x40 MLOAD PUSH1 0x20 DUP2 DUP4 SUB SUB DUP2 MSTORE SWAP1 PUSH1 0x40 MSTORE SWAP1 POP SWAP2 SWAP1 POP JUMP JUMPDEST PUSH2 0x7F6 CALLER DUP3 PUSH2 0x155B JUMP JUMPDEST PUSH2 0x812 JUMPI PUSH1 0x40 MLOAD PUSH3 0x461BCD PUSH1 0xE5 SHL DUP2 MSTORE PUSH1 0x4 ADD PUSH2 0x6D3 SWAP1 PUSH2 0x2E3C JUMP JUMPDEST PUSH2 0x774 DUP4 DUP4 DUP4 PUSH2 0x15D9 JUMP JUMPDEST PUSH1 0x0 PUSH2 0x828 DUP3 PUSH2 0x1780 JUMP JUMPDEST PUSH2 0x886 JUMPI PUSH1 0x40 MLOAD PUSH3 0x461BCD PUSH1 0xE5 SHL DUP2 MSTORE PUSH1 0x20 PUSH1 0x4 DUP3 ADD MSTORE PUSH1 0x29 PUSH1 0x24 DUP3 ADD MSTORE PUSH32 0x455243333532353A20736C6F7420717565727920666F72206E6F6E6578697374 PUSH1 0x44 DUP3 ADD MSTORE PUSH9 0x32B73A103A37B5B2B7 PUSH1 0xB9 SHL PUSH1 0x64 DUP3 ADD MSTORE PUSH1 0x84 ADD PUSH2 0x6D3 JUMP JUMPDEST POP PUSH1 0x0 SWAP1 DUP2 MSTORE PUSH1 0xC PUSH1 0x20 MSTORE PUSH1 0x40 SWAP1 KECCAK256 SLOAD SWAP1 JUMP JUMPDEST PUSH1 0x0 PUSH2 0x8A4 DUP4 PUSH2 0xA53 JUMP JUMPDEST DUP3 LT PUSH2 0x906 JUMPI PUSH1 0x40 MLOAD PUSH3 0x461BCD PUSH1 0xE5 SHL DUP2 MSTORE PUSH1 0x20 PUSH1 0x4 DUP3 ADD MSTORE PUSH1 0x2B PUSH1 0x24 DUP3 ADD MSTORE PUSH32 0x455243373231456E756D657261626C653A206F776E657220696E646578206F75 PUSH1 0x44 DUP3 ADD MSTORE PUSH11 0x74206F6620626F756E6473 PUSH1 0xA8 SHL PUSH1 0x64 DUP3 ADD MSTORE PUSH1 0x84 ADD PUSH2 0x6D3 JUMP JUMPDEST POP PUSH1 0x1 PUSH1 0x1 PUSH1 0xA0 SHL SUB SWAP2 SWAP1 SWAP2 AND PUSH1 0x0 SWAP1 DUP2 MSTORE PUSH1 0x6 PUSH1 0x20 SWAP1 DUP2 MSTORE PUSH1 0x40 DUP1 DUP4 KECCAK256 SWAP4 DUP4 MSTORE SWAP3 SWAP1 MSTORE KECCAK256 SLOAD SWAP1 JUMP JUMPDEST PUSH2 0x93A CALLER DUP5 DUP4 PUSH2 0x179D JUMP JUMPDEST PUSH2 0x774 DUP4 DUP4 DUP4 PUSH2 0x1845 JUMP JUMPDEST PUSH2 0x774 DUP4 DUP4 DUP4 PUSH1 0x40 MLOAD DUP1 PUSH1 0x20 ADD PUSH1 0x40 MSTORE DUP1 PUSH1 0x0 DUP2 MSTORE POP PUSH2 0xE16 JUMP JUMPDEST PUSH1 0x0 PUSH2 0x96B PUSH1 0x8 SLOAD SWAP1 JUMP JUMPDEST DUP3 LT PUSH2 0x9CE JUMPI PUSH1 0x40 MLOAD PUSH3 0x461BCD PUSH1 0xE5 SHL DUP2 MSTORE PUSH1 0x20 PUSH1 0x4 DUP3 ADD MSTORE PUSH1 0x2C PUSH1 0x24 DUP3 ADD MSTORE PUSH32 0x455243373231456E756D657261626C653A20676C6F62616C20696E646578206F PUSH1 0x44 DUP3 ADD MSTORE PUSH12 0x7574206F6620626F756E6473 PUSH1 0xA0 SHL PUSH1 0x64 DUP3 ADD MSTORE PUSH1 0x84 ADD PUSH2 0x6D3 JUMP JUMPDEST PUSH1 0x8 DUP3 DUP2 SLOAD DUP2 LT PUSH2 0x9E1 JUMPI PUSH2 0x9E1 PUSH2 0x2E8A JUMP JUMPDEST SWAP1 PUSH1 0x0 MSTORE PUSH1 0x20 PUSH1 0x0 KECCAK256 ADD SLOAD SWAP1 POP SWAP2 SWAP1 POP JUMP JUMPDEST PUSH1 0x0 DUP2 DUP2 MSTORE PUSH1 0x2 PUSH1 0x20 MSTORE PUSH1 0x40 DUP2 KECCAK256 SLOAD PUSH1 0x1 PUSH1 0x1 PUSH1 0xA0 SHL SUB AND DUP1 PUSH2 0x5A0 JUMPI PUSH1 0x40 MLOAD PUSH3 0x461BCD PUSH1 0xE5 SHL DUP2 MSTORE PUSH1 0x20 PUSH1 0x4 DUP3 ADD MSTORE PUSH1 0x18 PUSH1 0x24 DUP3 ADD MSTORE PUSH24 0x115490CDCC8C4E881A5B9D985B1A59081D1BDAD95B881251 PUSH1 0x42 SHL PUSH1 0x44 DUP3 ADD MSTORE PUSH1 0x64 ADD PUSH2 0x6D3 JUMP JUMPDEST PUSH1 0x0 PUSH1 0x1 PUSH1 0x1 PUSH1 0xA0 SHL SUB DUP3 AND PUSH2 0xABD JUMPI PUSH1 0x40 MLOAD PUSH3 0x461BCD PUSH1 0xE5 SHL DUP2 MSTORE PUSH1 0x20 PUSH1 0x4 DUP3 ADD MSTORE PUSH1 0x29 PUSH1 0x24 DUP3 ADD MSTORE PUSH32 0x4552433732313A2061646472657373207A65726F206973206E6F742061207661 PUSH1 0x44 DUP3 ADD MSTORE PUSH9 0x3634B21037BBB732B9 PUSH1 0xB9 SHL PUSH1 0x64 DUP3 ADD MSTORE PUSH1 0x84 ADD PUSH2 0x6D3 JUMP JUMPDEST POP PUSH1 0x1 PUSH1 0x1 PUSH1 0xA0 SHL SUB AND PUSH1 0x0 SWAP1 DUP2 MSTORE PUSH1 0x3 PUSH1 0x20 MSTORE PUSH1 0x40 SWAP1 KECCAK256 SLOAD SWAP1 JUMP JUMPDEST PUSH4 0x3B9ACA00 DUP7 LT PUSH2 0xB2C JUMPI PUSH1 0x40 MLOAD PUSH3 0x461BCD PUSH1 0xE5 SHL DUP2 MSTORE PUSH1 0x20 PUSH1 0x4 DUP3 ADD MSTORE PUSH1 0x1D PUSH1 0x24 DUP3 ADD MSTORE PUSH32 0x455243333532353A20746F6B656E496420697320746F6F206C61726765000000 PUSH1 0x44 DUP3 ADD MSTORE PUSH1 0x64 ADD PUSH2 0x6D3 JUMP JUMPDEST PUSH1 0x0 PUSH2 0xB3A DUP7 DUP7 DUP7 DUP7 PUSH2 0x11A3 JUMP JUMPDEST PUSH1 0x40 DUP1 MLOAD PUSH1 0xE0 DUP2 ADD DUP3 MSTORE DUP13 DUP2 MSTORE PUSH1 0x20 DUP1 DUP3 ADD DUP14 SWAP1 MSTORE DUP2 DUP4 ADD DUP13 SWAP1 MSTORE PUSH1 0x1 PUSH1 0x1 PUSH1 0xA0 SHL SUB DUP11 AND PUSH1 0x60 DUP4 ADD MSTORE PUSH1 0xFF DUP10 AND PUSH1 0x80 DUP4 ADD MSTORE PUSH4 0xFFFFFFFF DUP1 DUP10 AND PUSH1 0xA0 DUP5 ADD MSTORE DUP8 AND PUSH1 0xC0 DUP4 ADD MSTORE PUSH1 0x0 DUP5 DUP2 MSTORE PUSH1 0x10 DUP3 MSTORE SWAP3 SWAP1 SWAP3 KECCAK256 DUP2 MLOAD DUP1 MLOAD SWAP5 SWAP6 POP SWAP2 SWAP4 SWAP1 SWAP3 PUSH2 0xBA7 SWAP3 DUP5 SWAP3 SWAP2 ADD SWAP1 PUSH2 0x2665 JUMP JUMPDEST POP PUSH1 0x20 DUP3 DUP2 ADD MLOAD DUP1 MLOAD PUSH2 0xBC0 SWAP3 PUSH1 0x1 DUP6 ADD SWAP3 ADD SWAP1 PUSH2 0x2665 JUMP JUMPDEST POP PUSH1 0x40 DUP3 ADD MLOAD DUP1 MLOAD PUSH2 0xBDC SWAP2 PUSH1 0x2 DUP5 ADD SWAP2 PUSH1 0x20 SWAP1 SWAP2 ADD SWAP1 PUSH2 0x2665 JUMP JUMPDEST POP PUSH1 0x60 DUP3 ADD MLOAD PUSH1 0x3 SWAP2 SWAP1 SWAP2 ADD DUP1 SLOAD PUSH1 0x80 DUP5 ADD MLOAD PUSH1 0xA0 DUP6 ADD MLOAD PUSH1 0xC0 SWAP1 SWAP6 ADD MLOAD PUSH1 0x1 PUSH1 0x1 PUSH1 0xA0 SHL SUB SWAP1 SWAP5 AND PUSH1 0x1 PUSH1 0x1 PUSH1 0xA8 SHL SUB NOT SWAP1 SWAP3 AND SWAP2 SWAP1 SWAP2 OR PUSH1 0x1 PUSH1 0xA0 SHL PUSH1 0xFF SWAP1 SWAP3 AND SWAP2 SWAP1 SWAP2 MUL OR PUSH8 0xFFFFFFFFFFFFFFFF PUSH1 0xA8 SHL NOT AND PUSH1 0x1 PUSH1 0xA8 SHL PUSH4 0xFFFFFFFF SWAP5 DUP6 AND MUL PUSH4 0xFFFFFFFF PUSH1 0xC8 SHL NOT AND OR PUSH1 0x1 PUSH1 0xC8 SHL SWAP4 SWAP1 SWAP3 AND SWAP3 SWAP1 SWAP3 MUL OR SWAP1 SSTORE PUSH2 0xC67 CALLER DUP9 DUP4 DUP6 PUSH2 0x1AA9 JUMP JUMPDEST POP POP POP POP POP POP POP POP POP POP JUMP JUMPDEST PUSH1 0x0 PUSH2 0xC7E DUP5 PUSH2 0x9F3 JUMP JUMPDEST SWAP1 POP DUP1 PUSH1 0x1 PUSH1 0x1 PUSH1 0xA0 SHL SUB AND DUP4 PUSH1 0x1 PUSH1 0x1 PUSH1 0xA0 SHL SUB AND SUB PUSH2 0xCEC JUMPI PUSH1 0x40 MLOAD PUSH3 0x461BCD PUSH1 0xE5 SHL DUP2 MSTORE PUSH1 0x20 PUSH1 0x4 DUP3 ADD MSTORE PUSH1 0x22 PUSH1 0x24 DUP3 ADD MSTORE PUSH32 0x455243333532353A20617070726F76616C20746F2063757272656E74206F776E PUSH1 0x44 DUP3 ADD MSTORE PUSH2 0x32B9 PUSH1 0xF1 SHL PUSH1 0x64 DUP3 ADD MSTORE PUSH1 0x84 ADD PUSH2 0x6D3 JUMP JUMPDEST PUSH2 0xCF6 CALLER DUP6 PUSH2 0x155B JUMP JUMPDEST PUSH2 0xD68 JUMPI PUSH1 0x40 MLOAD PUSH3 0x461BCD PUSH1 0xE5 SHL DUP2 MSTORE PUSH1 0x20 PUSH1 0x4 DUP3 ADD MSTORE PUSH1 0x39 PUSH1 0x24 DUP3 ADD MSTORE PUSH32 0x455243333532353A20617070726F76652063616C6C6572206973206E6F74206F PUSH1 0x44 DUP3 ADD MSTORE PUSH32 0x776E6572206E6F7220617070726F76656420666F7220616C6C00000000000000 PUSH1 0x64 DUP3 ADD MSTORE PUSH1 0x84 ADD PUSH2 0x6D3 JUMP JUMPDEST PUSH2 0xD73 DUP5 DUP5 DUP5 PUSH2 0x1C17 JUMP JUMPDEST POP POP POP POP JUMP JUMPDEST PUSH1 0x60 PUSH1 0x1 DUP1 SLOAD PUSH2 0x5B5 SWAP1 PUSH2 0x2C7B JUMP JUMPDEST PUSH1 0x0 PUSH2 0xD93 DUP3 PUSH2 0x1780 JUMP JUMPDEST PUSH2 0xDF4 JUMPI PUSH1 0x40 MLOAD PUSH3 0x461BCD PUSH1 0xE5 SHL DUP2 MSTORE PUSH1 0x20 PUSH1 0x4 DUP3 ADD MSTORE PUSH1 0x2C PUSH1 0x24 DUP3 ADD MSTORE PUSH32 0x455243333532353A2062616C616E636520717565727920666F72206E6F6E6578 PUSH1 0x44 DUP3 ADD MSTORE PUSH12 0x34B9BA32B73A103A37B5B2B7 PUSH1 0xA1 SHL PUSH1 0x64 DUP3 ADD MSTORE PUSH1 0x84 ADD PUSH2 0x6D3 JUMP JUMPDEST POP PUSH1 0x0 SWAP1 DUP2 MSTORE PUSH1 0xA PUSH1 0x20 MSTORE PUSH1 0x40 SWAP1 KECCAK256 SLOAD SWAP1 JUMP JUMPDEST PUSH2 0xE12 CALLER DUP4 DUP4 PUSH2 0x1C97 JUMP JUMPDEST POP POP JUMP JUMPDEST PUSH2 0xE20 CALLER DUP4 PUSH2 0x155B JUMP JUMPDEST PUSH2 0xE3C JUMPI PUSH1 0x40 MLOAD PUSH3 0x461BCD PUSH1 0xE5 SHL DUP2 MSTORE PUSH1 0x4 ADD PUSH2 0x6D3 SWAP1 PUSH2 0x2E3C JUMP JUMPDEST PUSH2 0xD73 DUP5 DUP5 DUP5 DUP5 PUSH2 0x1D65 JUMP JUMPDEST PUSH1 0x60 PUSH2 0xE53 DUP3 PUSH2 0x1780 JUMP JUMPDEST PUSH2 0xE93 JUMPI PUSH1 0x40 MLOAD PUSH3 0x461BCD PUSH1 0xE5 SHL DUP2 MSTORE PUSH1 0x20 PUSH1 0x4 DUP3 ADD MSTORE PUSH1 0x11 PUSH1 0x24 DUP3 ADD MSTORE PUSH17 0x3737B732BC34B9BA32B73A103A37B5B2B7 PUSH1 0x79 SHL PUSH1 0x44 DUP3 ADD MSTORE PUSH1 0x64 ADD PUSH2 0x6D3 JUMP JUMPDEST PUSH1 0x0 PUSH2 0xE9E DUP4 PUSH2 0x1D98 JUMP JUMPDEST PUSH1 0x11 PUSH1 0x40 MLOAD PUSH1 0x20 ADD PUSH2 0xEB1 SWAP3 SWAP2 SWAP1 PUSH2 0x2EA0 JUMP JUMPDEST PUSH1 0x40 MLOAD PUSH1 0x20 DUP2 DUP4 SUB SUB DUP2 MSTORE SWAP1 PUSH1 0x40 MSTORE SWAP1 POP PUSH2 0xECB DUP2 PUSH2 0x1408 JUMP JUMPDEST PUSH1 0x40 MLOAD PUSH1 0x20 ADD PUSH2 0xEDB SWAP2 SWAP1 PUSH2 0x2DF7 JUMP JUMPDEST PUSH1 0x40 MLOAD PUSH1 0x20 DUP2 DUP4 SUB SUB DUP2 MSTORE SWAP1 PUSH1 0x40 MSTORE SWAP2 POP POP SWAP2 SWAP1 POP JUMP JUMPDEST PUSH1 0x40 DUP1 MLOAD PUSH1 0xE0 DUP2 ADD DUP3 MSTORE PUSH1 0x60 DUP1 DUP3 MSTORE PUSH1 0x20 DUP3 ADD DUP2 SWAP1 MSTORE SWAP2 DUP2 ADD DUP3 SWAP1 MSTORE PUSH1 0x0 SWAP2 DUP2 ADD DUP3 SWAP1 MSTORE PUSH1 0x80 DUP2 ADD DUP3 SWAP1 MSTORE PUSH1 0xA0 DUP2 ADD DUP3 SWAP1 MSTORE PUSH1 0xC0 DUP2 ADD SWAP2 SWAP1 SWAP2 MSTORE PUSH1 0x0 DUP3 DUP2 MSTORE PUSH1 0x10 PUSH1 0x20 MSTORE PUSH1 0x40 SWAP1 DUP2 SWAP1 KECCAK256 DUP2 MLOAD PUSH1 0xE0 DUP2 ADD SWAP1 SWAP3 MSTORE DUP1 SLOAD DUP3 SWAP1 DUP3 SWAP1 PUSH2 0xF54 SWAP1 PUSH2 0x2C7B JUMP JUMPDEST DUP1 PUSH1 0x1F ADD PUSH1 0x20 DUP1 SWAP2 DIV MUL PUSH1 0x20 ADD PUSH1 0x40 MLOAD SWAP1 DUP2 ADD PUSH1 0x40 MSTORE DUP1 SWAP3 SWAP2 SWAP1 DUP2 DUP2 MSTORE PUSH1 0x20 ADD DUP3 DUP1 SLOAD PUSH2 0xF80 SWAP1 PUSH2 0x2C7B JUMP JUMPDEST DUP1 ISZERO PUSH2 0xFCD JUMPI DUP1 PUSH1 0x1F LT PUSH2 0xFA2 JUMPI PUSH2 0x100 DUP1 DUP4 SLOAD DIV MUL DUP4 MSTORE SWAP2 PUSH1 0x20 ADD SWAP2 PUSH2 0xFCD JUMP JUMPDEST DUP3 ADD SWAP2 SWAP1 PUSH1 0x0 MSTORE PUSH1 0x20 PUSH1 0x0 KECCAK256 SWAP1 JUMPDEST DUP2 SLOAD DUP2 MSTORE SWAP1 PUSH1 0x1 ADD SWAP1 PUSH1 0x20 ADD DUP1 DUP4 GT PUSH2 0xFB0 JUMPI DUP3 SWAP1 SUB PUSH1 0x1F AND DUP3 ADD SWAP2 JUMPDEST POP POP POP POP POP DUP2 MSTORE PUSH1 0x20 ADD PUSH1 0x1 DUP3 ADD DUP1 SLOAD PUSH2 0xFE6 SWAP1 PUSH2 0x2C7B JUMP JUMPDEST DUP1 PUSH1 0x1F ADD PUSH1 0x20 DUP1 SWAP2 DIV MUL PUSH1 0x20 ADD PUSH1 0x40 MLOAD SWAP1 DUP2 ADD PUSH1 0x40 MSTORE DUP1 SWAP3 SWAP2 SWAP1 DUP2 DUP2 MSTORE PUSH1 0x20 ADD DUP3 DUP1 SLOAD PUSH2 0x1012 SWAP1 PUSH2 0x2C7B JUMP JUMPDEST DUP1 ISZERO PUSH2 0x105F JUMPI DUP1 PUSH1 0x1F LT PUSH2 0x1034 JUMPI PUSH2 0x100 DUP1 DUP4 SLOAD DIV MUL DUP4 MSTORE SWAP2 PUSH1 0x20 ADD SWAP2 PUSH2 0x105F JUMP JUMPDEST DUP3 ADD SWAP2 SWAP1 PUSH1 0x0 MSTORE PUSH1 0x20 PUSH1 0x0 KECCAK256 SWAP1 JUMPDEST DUP2 SLOAD DUP2 MSTORE SWAP1 PUSH1 0x1 ADD SWAP1 PUSH1 0x20 ADD DUP1 DUP4 GT PUSH2 0x1042 JUMPI DUP3 SWAP1 SUB PUSH1 0x1F AND DUP3 ADD SWAP2 JUMPDEST POP POP POP POP POP DUP2 MSTORE PUSH1 0x20 ADD PUSH1 0x2 DUP3 ADD DUP1 SLOAD PUSH2 0x1078 SWAP1 PUSH2 0x2C7B JUMP JUMPDEST DUP1 PUSH1 0x1F ADD PUSH1 0x20 DUP1 SWAP2 DIV MUL PUSH1 0x20 ADD PUSH1 0x40 MLOAD SWAP1 DUP2 ADD PUSH1 0x40 MSTORE DUP1 SWAP3 SWAP2 SWAP1 DUP2 DUP2 MSTORE PUSH1 0x20 ADD DUP3 DUP1 SLOAD PUSH2 0x10A4 SWAP1 PUSH2 0x2C7B JUMP JUMPDEST DUP1 ISZERO PUSH2 0x10F1 JUMPI DUP1 PUSH1 0x1F LT PUSH2 0x10C6 JUMPI PUSH2 0x100 DUP1 DUP4 SLOAD DIV MUL DUP4 MSTORE SWAP2 PUSH1 0x20 ADD SWAP2 PUSH2 0x10F1 JUMP JUMPDEST DUP3 ADD SWAP2 SWAP1 PUSH1 0x0 MSTORE PUSH1 0x20 PUSH1 0x0 KECCAK256 SWAP1 JUMPDEST DUP2 SLOAD DUP2 MSTORE SWAP1 PUSH1 0x1 ADD SWAP1 PUSH1 0x20 ADD DUP1 DUP4 GT PUSH2 0x10D4 JUMPI DUP3 SWAP1 SUB PUSH1 0x1F AND DUP3 ADD SWAP2 JUMPDEST POP POP POP SWAP2 DUP4 MSTORE POP POP PUSH1 0x3 SWAP2 SWAP1 SWAP2 ADD SLOAD PUSH1 0x1 PUSH1 0x1 PUSH1 0xA0 SHL SUB DUP2 AND PUSH1 0x20 DUP4 ADD MSTORE PUSH1 0xFF PUSH1 0x1 PUSH1 0xA0 SHL DUP3 DIV AND PUSH1 0x40 DUP4 ADD MSTORE PUSH4 0xFFFFFFFF PUSH1 0x1 PUSH1 0xA8 SHL DUP3 DIV DUP2 AND PUSH1 0x60 DUP5 ADD MSTORE PUSH1 0x1 PUSH1 0xC8 SHL SWAP1 SWAP2 DIV AND PUSH1 0x80 SWAP1 SWAP2 ADD MSTORE SWAP3 SWAP2 POP POP JUMP JUMPDEST PUSH1 0x60 PUSH1 0x0 PUSH2 0x1152 PUSH2 0x1E99 JUMP JUMPDEST SWAP1 POP PUSH1 0x0 DUP2 MLOAD GT PUSH2 0x1172 JUMPI PUSH1 0x40 MLOAD DUP1 PUSH1 0x20 ADD PUSH1 0x40 MSTORE DUP1 PUSH1 0x0 DUP2 MSTORE POP PUSH2 0x119D JUMP JUMPDEST DUP1 PUSH2 0x117C ADDRESS PUSH2 0x1EA8 JUMP JUMPDEST PUSH1 0x40 MLOAD PUSH1 0x20 ADD PUSH2 0x118D SWAP3 SWAP2 SWAP1 PUSH2 0x3142 JUMP JUMPDEST PUSH1 0x40 MLOAD PUSH1 0x20 DUP2 DUP4 SUB SUB DUP2 MSTORE SWAP1 PUSH1 0x40 MSTORE JUMPDEST SWAP2 POP POP SWAP1 JUMP JUMPDEST PUSH1 0x40 MLOAD PUSH12 0xFFFFFFFFFFFFFFFFFFFFFFFF NOT PUSH1 0x60 DUP7 SWAP1 SHL AND PUSH1 0x20 DUP3 ADD MSTORE PUSH1 0x1 PUSH1 0x1 PUSH1 0xF8 SHL SUB NOT PUSH1 0xF8 DUP6 SWAP1 SHL AND PUSH1 0x34 DUP3 ADD MSTORE PUSH1 0x1 PUSH1 0x1 PUSH1 0xE0 SHL SUB NOT PUSH1 0xE0 DUP5 DUP2 SHL DUP3 AND PUSH1 0x35 DUP5 ADD MSTORE DUP4 SWAP1 SHL AND PUSH1 0x39 DUP3 ADD MSTORE PUSH1 0x0 SWAP1 PUSH1 0x3D ADD PUSH1 0x40 MLOAD PUSH1 0x20 DUP2 DUP4 SUB SUB DUP2 MSTORE SWAP1 PUSH1 0x40 MSTORE DUP1 MLOAD SWAP1 PUSH1 0x20 ADD KECCAK256 PUSH1 0x0 SHR SWAP1 POP JUMPDEST SWAP5 SWAP4 POP POP POP POP JUMP JUMPDEST PUSH1 0x0 PUSH1 0x1 PUSH1 0x1 PUSH1 0xE0 SHL SUB NOT DUP3 AND PUSH4 0x780E9D63 PUSH1 0xE0 SHL EQ DUP1 PUSH2 0x5A0 JUMPI POP PUSH2 0x5A0 DUP3 PUSH2 0x1EFF JUMP JUMPDEST PUSH2 0x1249 DUP2 PUSH2 0x1780 JUMP JUMPDEST PUSH2 0x1290 JUMPI PUSH1 0x40 MLOAD PUSH3 0x461BCD PUSH1 0xE5 SHL DUP2 MSTORE PUSH1 0x20 PUSH1 0x4 DUP3 ADD MSTORE PUSH1 0x18 PUSH1 0x24 DUP3 ADD MSTORE PUSH24 0x115490CDCC8C4E881A5B9D985B1A59081D1BDAD95B881251 PUSH1 0x42 SHL PUSH1 0x44 DUP3 ADD MSTORE PUSH1 0x64 ADD PUSH2 0x6D3 JUMP JUMPDEST POP JUMP JUMPDEST PUSH1 0x0 DUP2 DUP2 MSTORE PUSH1 0x4 PUSH1 0x20 MSTORE PUSH1 0x40 SWAP1 KECCAK256 DUP1 SLOAD PUSH1 0x1 PUSH1 0x1 PUSH1 0xA0 SHL SUB NOT AND PUSH1 0x1 PUSH1 0x1 PUSH1 0xA0 SHL SUB DUP5 AND SWAP1 DUP2 OR SWAP1 SWAP2 SSTORE DUP2 SWAP1 PUSH2 0x12C8 DUP3 PUSH2 0x9F3 JUMP JUMPDEST PUSH1 0x1 PUSH1 0x1 PUSH1 0xA0 SHL SUB AND PUSH32 0x8C5BE1E5EBEC7D5BD14F71427D1E84F3DD0314C0F7B2291E5B200AC8C7C3B925 PUSH1 0x40 MLOAD PUSH1 0x40 MLOAD DUP1 SWAP2 SUB SWAP1 LOG4 POP POP JUMP JUMPDEST PUSH1 0x0 DUP2 DUP2 MSTORE PUSH1 0x10 PUSH1 0x20 MSTORE PUSH1 0x40 SWAP1 KECCAK256 PUSH1 0x3 DUP2 ADD SLOAD PUSH1 0x60 SWAP2 SWAP1 PUSH2 0x132A SWAP1 PUSH1 0x1 PUSH1 0x1 PUSH1 0xA0 SHL SUB AND PUSH2 0x1EA8 JUMP JUMPDEST PUSH1 0x40 MLOAD PUSH1 0x20 ADD PUSH2 0x133A SWAP2 SWAP1 PUSH2 0x3186 JUMP JUMPDEST PUSH1 0x40 DUP1 MLOAD DUP1 DUP4 SUB PUSH1 0x1F NOT ADD DUP2 MSTORE SWAP2 SWAP1 MSTORE PUSH1 0x3 DUP3 ADD SLOAD PUSH2 0x1362 SWAP1 PUSH1 0x1 PUSH1 0xA0 SHL SWAP1 DIV PUSH1 0xFF AND PUSH2 0x1D98 JUMP JUMPDEST PUSH1 0x40 MLOAD PUSH1 0x20 ADD PUSH2 0x1372 SWAP2 SWAP1 PUSH2 0x3279 JUMP JUMPDEST PUSH1 0x40 DUP1 MLOAD DUP1 DUP4 SUB PUSH1 0x1F NOT ADD DUP2 MSTORE SWAP2 SWAP1 MSTORE PUSH1 0x3 DUP4 ADD SLOAD PUSH2 0x139D SWAP1 PUSH1 0x1 PUSH1 0xA8 SHL SWAP1 DIV PUSH4 0xFFFFFFFF AND PUSH2 0x1D98 JUMP JUMPDEST PUSH1 0x40 MLOAD PUSH1 0x20 ADD PUSH2 0x13AD SWAP2 SWAP1 PUSH2 0x337F JUMP JUMPDEST PUSH1 0x40 DUP1 MLOAD DUP1 DUP4 SUB PUSH1 0x1F NOT ADD DUP2 MSTORE SWAP2 SWAP1 MSTORE PUSH1 0x3 DUP5 ADD SLOAD PUSH2 0x13D8 SWAP1 PUSH1 0x1 PUSH1 0xC8 SHL SWAP1 DIV PUSH4 0xFFFFFFFF AND PUSH2 0x1D98 JUMP JUMPDEST PUSH1 0x40 MLOAD PUSH1 0x20 ADD PUSH2 0x13E8 SWAP2 SWAP1 PUSH2 0x3477 JUMP JUMPDEST PUSH1 0x40 DUP1 MLOAD PUSH1 0x1F NOT DUP2 DUP5 SUB ADD DUP2 MSTORE SWAP1 DUP3 SWAP1 MSTORE PUSH2 0xEDB SWAP5 SWAP4 SWAP3 SWAP2 PUSH1 0x20 ADD PUSH2 0x3550 JUMP JUMPDEST PUSH1 0x60 DUP2 MLOAD PUSH1 0x0 SUB PUSH2 0x1427 JUMPI POP POP PUSH1 0x40 DUP1 MLOAD PUSH1 0x20 DUP2 ADD SWAP1 SWAP2 MSTORE PUSH1 0x0 DUP2 MSTORE SWAP1 JUMP JUMPDEST PUSH1 0x0 PUSH1 0x40 MLOAD DUP1 PUSH1 0x60 ADD PUSH1 0x40 MSTORE DUP1 PUSH1 0x40 DUP2 MSTORE PUSH1 0x20 ADD PUSH2 0x3760 PUSH1 0x40 SWAP2 CODECOPY SWAP1 POP PUSH1 0x0 PUSH1 0x3 DUP5 MLOAD PUSH1 0x2 PUSH2 0x1456 SWAP2 SWAP1 PUSH2 0x35E1 JUMP JUMPDEST PUSH2 0x1460 SWAP2 SWAP1 PUSH2 0x360F JUMP JUMPDEST PUSH2 0x146B SWAP1 PUSH1 0x4 PUSH2 0x3623 JUMP JUMPDEST PUSH8 0xFFFFFFFFFFFFFFFF DUP2 GT ISZERO PUSH2 0x1483 JUMPI PUSH2 0x1483 PUSH2 0x2898 JUMP JUMPDEST PUSH1 0x40 MLOAD SWAP1 DUP1 DUP3 MSTORE DUP1 PUSH1 0x1F ADD PUSH1 0x1F NOT AND PUSH1 0x20 ADD DUP3 ADD PUSH1 0x40 MSTORE DUP1 ISZERO PUSH2 0x14AD JUMPI PUSH1 0x20 DUP3 ADD DUP2 DUP1 CALLDATASIZE DUP4 CALLDATACOPY ADD SWAP1 POP JUMPDEST POP SWAP1 POP PUSH1 0x1 DUP3 ADD PUSH1 0x20 DUP3 ADD DUP6 DUP7 MLOAD DUP8 ADD JUMPDEST DUP1 DUP3 LT ISZERO PUSH2 0x1519 JUMPI PUSH1 0x3 DUP3 ADD SWAP2 POP DUP2 MLOAD PUSH1 0x3F DUP2 PUSH1 0x12 SHR AND DUP6 ADD MLOAD DUP5 MSTORE8 PUSH1 0x1 DUP5 ADD SWAP4 POP PUSH1 0x3F DUP2 PUSH1 0xC SHR AND DUP6 ADD MLOAD DUP5 MSTORE8 PUSH1 0x1 DUP5 ADD SWAP4 POP PUSH1 0x3F DUP2 PUSH1 0x6 SHR AND DUP6 ADD MLOAD DUP5 MSTORE8 PUSH1 0x1 DUP5 ADD SWAP4 POP PUSH1 0x3F DUP2 AND DUP6 ADD MLOAD DUP5 MSTORE8 POP PUSH1 0x1 DUP4 ADD SWAP3 POP PUSH2 0x14BE JUMP JUMPDEST POP POP PUSH1 0x3 DUP7 MLOAD MOD PUSH1 0x1 DUP2 EQ PUSH2 0x1535 JUMPI PUSH1 0x2 DUP2 EQ PUSH2 0x1548 JUMPI PUSH2 0x1550 JUMP JUMPDEST PUSH1 0x3D PUSH1 0x1 DUP4 SUB MSTORE8 PUSH1 0x3D PUSH1 0x2 DUP4 SUB MSTORE8 PUSH2 0x1550 JUMP JUMPDEST PUSH1 0x3D PUSH1 0x1 DUP4 SUB MSTORE8 JUMPDEST POP SWAP2 SWAP6 SWAP5 POP POP POP POP POP JUMP JUMPDEST PUSH1 0x0 DUP1 PUSH2 0x1567 DUP4 PUSH2 0x9F3 JUMP JUMPDEST SWAP1 POP DUP1 PUSH1 0x1 PUSH1 0x1 PUSH1 0xA0 SHL SUB AND DUP5 PUSH1 0x1 PUSH1 0x1 PUSH1 0xA0 SHL SUB AND EQ DUP1 PUSH2 0x15AE JUMPI POP PUSH1 0x1 PUSH1 0x1 PUSH1 0xA0 SHL SUB DUP1 DUP3 AND PUSH1 0x0 SWAP1 DUP2 MSTORE PUSH1 0x5 PUSH1 0x20 SWAP1 DUP2 MSTORE PUSH1 0x40 DUP1 DUP4 KECCAK256 SWAP4 DUP9 AND DUP4 MSTORE SWAP3 SWAP1 MSTORE KECCAK256 SLOAD PUSH1 0xFF AND JUMPDEST DUP1 PUSH2 0x1213 JUMPI POP DUP4 PUSH1 0x1 PUSH1 0x1 PUSH1 0xA0 SHL SUB AND PUSH2 0x15C7 DUP5 PUSH2 0x638 JUMP JUMPDEST PUSH1 0x1 PUSH1 0x1 PUSH1 0xA0 SHL SUB AND EQ SWAP5 SWAP4 POP POP POP POP JUMP JUMPDEST DUP3 PUSH1 0x1 PUSH1 0x1 PUSH1 0xA0 SHL SUB AND PUSH2 0x15EC DUP3 PUSH2 0x9F3 JUMP JUMPDEST PUSH1 0x1 PUSH1 0x1 PUSH1 0xA0 SHL SUB AND EQ PUSH2 0x1650 JUMPI PUSH1 0x40 MLOAD PUSH3 0x461BCD PUSH1 0xE5 SHL DUP2 MSTORE PUSH1 0x20 PUSH1 0x4 DUP3 ADD MSTORE PUSH1 0x25 PUSH1 0x24 DUP3 ADD MSTORE PUSH32 0x4552433732313A207472616E736665722066726F6D20696E636F727265637420 PUSH1 0x44 DUP3 ADD MSTORE PUSH5 0x37BBB732B9 PUSH1 0xD9 SHL PUSH1 0x64 DUP3 ADD MSTORE PUSH1 0x84 ADD PUSH2 0x6D3 JUMP JUMPDEST PUSH1 0x1 PUSH1 0x1 PUSH1 0xA0 SHL SUB DUP3 AND PUSH2 0x16B2 JUMPI PUSH1 0x40 MLOAD PUSH3 0x461BCD PUSH1 0xE5 SHL DUP2 MSTORE PUSH1 0x20 PUSH1 0x4 DUP3 ADD MSTORE PUSH1 0x24 DUP1 DUP3 ADD MSTORE PUSH32 0x4552433732313A207472616E7366657220746F20746865207A65726F20616464 PUSH1 0x44 DUP3 ADD MSTORE PUSH4 0x72657373 PUSH1 0xE0 SHL PUSH1 0x64 DUP3 ADD MSTORE PUSH1 0x84 ADD PUSH2 0x6D3 JUMP JUMPDEST PUSH2 0x16BD DUP4 DUP4 DUP4 PUSH2 0x1F4F JUMP JUMPDEST PUSH2 0x16C8 PUSH1 0x0 DUP3 PUSH2 0x1293 JUMP JUMPDEST PUSH1 0x1 PUSH1 0x1 PUSH1 0xA0 SHL SUB DUP4 AND PUSH1 0x0 SWAP1 DUP2 MSTORE PUSH1 0x3 PUSH1 0x20 MSTORE PUSH1 0x40 DUP2 KECCAK256 DUP1 SLOAD PUSH1 0x1 SWAP3 SWAP1 PUSH2 0x16F1 SWAP1 DUP5 SWAP1 PUSH2 0x3642 JUMP JUMPDEST SWAP1 SWAP2 SSTORE POP POP PUSH1 0x1 PUSH1 0x1 PUSH1 0xA0 SHL SUB DUP3 AND PUSH1 0x0 SWAP1 DUP2 MSTORE PUSH1 0x3 PUSH1 0x20 MSTORE PUSH1 0x40 DUP2 KECCAK256 DUP1 SLOAD PUSH1 0x1 SWAP3 SWAP1 PUSH2 0x171F SWAP1 DUP5 SWAP1 PUSH2 0x35E1 JUMP JUMPDEST SWAP1 SWAP2 SSTORE POP POP PUSH1 0x0 DUP2 DUP2 MSTORE PUSH1 0x2 PUSH1 0x20 MSTORE PUSH1 0x40 DUP1 DUP3 KECCAK256 DUP1 SLOAD PUSH1 0x1 PUSH1 0x1 PUSH1 0xA0 SHL SUB NOT AND PUSH1 0x1 PUSH1 0x1 PUSH1 0xA0 SHL SUB DUP7 DUP2 AND SWAP2 DUP3 OR SWAP1 SWAP3 SSTORE SWAP2 MLOAD DUP5 SWAP4 SWAP2 DUP8 AND SWAP2 PUSH32 0xDDF252AD1BE2C89B69C2B068FC378DAA952BA7F163C4A11628F55A4DF523B3EF SWAP2 LOG4 POP POP POP JUMP JUMPDEST PUSH1 0x0 SWAP1 DUP2 MSTORE PUSH1 0x2 PUSH1 0x20 MSTORE PUSH1 0x40 SWAP1 KECCAK256 SLOAD PUSH1 0x1 PUSH1 0x1 PUSH1 0xA0 SHL SUB AND ISZERO ISZERO SWAP1 JUMP JUMPDEST PUSH1 0x0 DUP3 DUP2 MSTORE PUSH1 0xB PUSH1 0x20 SWAP1 DUP2 MSTORE PUSH1 0x40 DUP1 DUP4 KECCAK256 PUSH1 0x1 PUSH1 0x1 PUSH1 0xA0 SHL SUB DUP8 AND DUP5 MSTORE PUSH1 0x1 ADD SWAP1 SWAP2 MSTORE SWAP1 KECCAK256 SLOAD PUSH2 0x17CD DUP5 DUP5 PUSH2 0x155B JUMP JUMPDEST ISZERO DUP1 ISZERO PUSH2 0x17DC JUMPI POP PUSH1 0x0 NOT DUP2 EQ ISZERO JUMPDEST ISZERO PUSH2 0xD73 JUMPI DUP2 DUP2 LT ISZERO PUSH2 0x1831 JUMPI PUSH1 0x40 MLOAD PUSH3 0x461BCD PUSH1 0xE5 SHL DUP2 MSTORE PUSH1 0x20 PUSH1 0x4 DUP3 ADD MSTORE PUSH1 0x1F PUSH1 0x24 DUP3 ADD MSTORE PUSH32 0x455243333532353A20696E73756666696369656E7420616C6C6F77616E636500 PUSH1 0x44 DUP3 ADD MSTORE PUSH1 0x64 ADD PUSH2 0x6D3 JUMP JUMPDEST PUSH2 0xD73 DUP4 DUP6 PUSH2 0x1840 DUP6 DUP6 PUSH2 0x3642 JUMP JUMPDEST PUSH2 0x1C17 JUMP JUMPDEST PUSH2 0x184E DUP4 PUSH2 0x1780 JUMP JUMPDEST PUSH2 0x18AC JUMPI PUSH1 0x40 MLOAD PUSH3 0x461BCD PUSH1 0xE5 SHL DUP2 MSTORE PUSH1 0x20 PUSH1 0x4 DUP3 ADD MSTORE PUSH1 0x29 PUSH1 0x24 DUP3 ADD MSTORE PUSH32 0x45524333353235353A207472616E736665722066726F6D206E6F6E6578697374 PUSH1 0x44 DUP3 ADD MSTORE PUSH9 0x32B73A103A37B5B2B7 PUSH1 0xB9 SHL PUSH1 0x64 DUP3 ADD MSTORE PUSH1 0x84 ADD PUSH2 0x6D3 JUMP JUMPDEST PUSH2 0x18B5 DUP3 PUSH2 0x1780 JUMP JUMPDEST PUSH2 0x1911 JUMPI PUSH1 0x40 MLOAD PUSH3 0x461BCD PUSH1 0xE5 SHL DUP2 MSTORE PUSH1 0x20 PUSH1 0x4 DUP3 ADD MSTORE PUSH1 0x27 PUSH1 0x24 DUP3 ADD MSTORE PUSH32 0x45524333353235353A207472616E7366657220746F206E6F6E6578697374656E PUSH1 0x44 DUP3 ADD MSTORE PUSH7 0x3A103A37B5B2B7 PUSH1 0xC9 SHL PUSH1 0x64 DUP3 ADD MSTORE PUSH1 0x84 ADD PUSH2 0x6D3 JUMP JUMPDEST PUSH1 0x0 DUP4 DUP2 MSTORE PUSH1 0xA PUSH1 0x20 MSTORE PUSH1 0x40 SWAP1 KECCAK256 SLOAD DUP2 GT ISZERO PUSH2 0x1980 JUMPI PUSH1 0x40 MLOAD PUSH3 0x461BCD PUSH1 0xE5 SHL DUP2 MSTORE PUSH1 0x20 PUSH1 0x4 DUP3 ADD MSTORE PUSH1 0x28 PUSH1 0x24 DUP3 ADD MSTORE PUSH32 0x455243333532353A207472616E7366657220616D6F756E742065786365656473 PUSH1 0x44 DUP3 ADD MSTORE PUSH8 0x2062616C616E6365 PUSH1 0xC0 SHL PUSH1 0x64 DUP3 ADD MSTORE PUSH1 0x84 ADD PUSH2 0x6D3 JUMP JUMPDEST PUSH1 0x0 DUP3 DUP2 MSTORE PUSH1 0xC PUSH1 0x20 MSTORE PUSH1 0x40 DUP1 DUP3 KECCAK256 SLOAD DUP6 DUP4 MSTORE SWAP2 KECCAK256 SLOAD EQ PUSH2 0x19FA JUMPI PUSH1 0x40 MLOAD PUSH3 0x461BCD PUSH1 0xE5 SHL DUP2 MSTORE PUSH1 0x20 PUSH1 0x4 DUP3 ADD MSTORE PUSH1 0x2E PUSH1 0x24 DUP3 ADD MSTORE PUSH32 0x455243333533353A207472616E7366657220746F20746F6B656E207769746820 PUSH1 0x44 DUP3 ADD MSTORE PUSH14 0x191A5999995C995B9D081CDB1BDD PUSH1 0x92 SHL PUSH1 0x64 DUP3 ADD MSTORE PUSH1 0x84 ADD PUSH2 0x6D3 JUMP JUMPDEST PUSH1 0x0 PUSH2 0x1A05 DUP5 PUSH2 0x9F3 JUMP JUMPDEST SWAP1 POP PUSH1 0x0 PUSH2 0x1A12 DUP5 PUSH2 0x9F3 JUMP JUMPDEST PUSH1 0x0 DUP7 DUP2 MSTORE PUSH1 0xA PUSH1 0x20 MSTORE PUSH1 0x40 DUP2 KECCAK256 DUP1 SLOAD SWAP3 SWAP4 POP DUP6 SWAP3 SWAP1 SWAP2 SWAP1 PUSH2 0x1A35 SWAP1 DUP5 SWAP1 PUSH2 0x3642 JUMP JUMPDEST SWAP1 SWAP2 SSTORE POP POP PUSH1 0x0 DUP5 DUP2 MSTORE PUSH1 0xA PUSH1 0x20 MSTORE PUSH1 0x40 DUP2 KECCAK256 DUP1 SLOAD DUP6 SWAP3 SWAP1 PUSH2 0x1A58 SWAP1 DUP5 SWAP1 PUSH2 0x35E1 JUMP JUMPDEST SWAP1 SWAP2 SSTORE POP POP PUSH1 0x0 DUP6 SWAP1 MSTORE PUSH1 0xC PUSH1 0x20 MSTORE DUP4 DUP6 PUSH32 0xB2AAC84F3EC956911FD78EAE5311062972FF949F38412E8DA39069D9F068CC6 DUP6 PUSH1 0x40 MLOAD PUSH2 0x1A9A SWAP2 DUP2 MSTORE PUSH1 0x20 ADD SWAP1 JUMP JUMPDEST PUSH1 0x40 MLOAD DUP1 SWAP2 SUB SWAP1 LOG3 POP POP POP POP POP JUMP JUMPDEST PUSH1 0x1 PUSH1 0x1 PUSH1 0xA0 SHL SUB DUP5 AND PUSH2 0x1B09 JUMPI PUSH1 0x40 MLOAD PUSH3 0x461BCD PUSH1 0xE5 SHL DUP2 MSTORE PUSH1 0x20 PUSH1 0x4 DUP3 ADD MSTORE PUSH1 0x21 PUSH1 0x24 DUP3 ADD MSTORE PUSH32 0x455243333532353A206D696E7420746F20746865207A65726F20616464726573 PUSH1 0x44 DUP3 ADD MSTORE PUSH1 0x73 PUSH1 0xF8 SHL PUSH1 0x64 DUP3 ADD MSTORE PUSH1 0x84 ADD PUSH2 0x6D3 JUMP JUMPDEST DUP3 PUSH1 0x0 SUB PUSH2 0x1B63 JUMPI PUSH1 0x40 MLOAD PUSH3 0x461BCD PUSH1 0xE5 SHL DUP2 MSTORE PUSH1 0x20 PUSH1 0x4 DUP3 ADD MSTORE PUSH1 0x21 PUSH1 0x24 DUP3 ADD MSTORE PUSH32 0x455243333532353A2063616E6E6F74206D696E74207A65726F20746F6B656E49 PUSH1 0x44 DUP3 ADD MSTORE PUSH1 0x19 PUSH1 0xFA SHL PUSH1 0x64 DUP3 ADD MSTORE PUSH1 0x84 ADD PUSH2 0x6D3 JUMP JUMPDEST PUSH2 0x1B6C DUP4 PUSH2 0x1780 JUMP JUMPDEST ISZERO PUSH2 0x1BB9 JUMPI PUSH1 0x40 MLOAD PUSH3 0x461BCD PUSH1 0xE5 SHL DUP2 MSTORE PUSH1 0x20 PUSH1 0x4 DUP3 ADD MSTORE PUSH1 0x1D PUSH1 0x24 DUP3 ADD MSTORE PUSH32 0x455243333532353A20746F6B656E20616C7265616479206D696E746564000000 PUSH1 0x44 DUP3 ADD MSTORE PUSH1 0x64 ADD PUSH2 0x6D3 JUMP JUMPDEST PUSH2 0x1BC4 DUP5 DUP5 DUP5 PUSH2 0x1FF1 JUMP JUMPDEST PUSH1 0x0 DUP4 DUP2 MSTORE PUSH1 0xA PUSH1 0x20 MSTORE PUSH1 0x40 SWAP1 KECCAK256 DUP2 SWAP1 SSTORE DUP3 PUSH1 0x0 PUSH32 0xB2AAC84F3EC956911FD78EAE5311062972FF949F38412E8DA39069D9F068CC6 DUP4 PUSH1 0x40 MLOAD PUSH2 0x1C09 SWAP2 DUP2 MSTORE PUSH1 0x20 ADD SWAP1 JUMP JUMPDEST PUSH1 0x40 MLOAD DUP1 SWAP2 SUB SWAP1 LOG3 POP POP POP POP JUMP JUMPDEST PUSH1 0x0 DUP4 DUP2 MSTORE PUSH1 0xB PUSH1 0x20 SWAP1 DUP2 MSTORE PUSH1 0x40 DUP1 DUP4 KECCAK256 DUP1 SLOAD PUSH1 0x1 DUP1 DUP3 ADD DUP4 SSTORE DUP3 DUP7 MSTORE DUP5 DUP7 KECCAK256 SWAP1 SWAP2 ADD DUP1 SLOAD PUSH1 0x1 PUSH1 0x1 PUSH1 0xA0 SHL SUB NOT AND PUSH1 0x1 PUSH1 0x1 PUSH1 0xA0 SHL SUB DUP10 AND SWAP1 DUP2 OR SWAP1 SWAP2 SSTORE DUP1 DUP7 MSTORE SWAP1 DUP3 ADD DUP5 MSTORE SWAP4 DUP3 SWAP1 KECCAK256 DUP6 SWAP1 SSTORE SWAP1 MLOAD DUP5 DUP2 MSTORE SWAP1 SWAP3 SWAP2 DUP7 SWAP2 PUSH32 0x621B050DE0AD08B51D19B48B3E6DF75348C4DE6BDD93E81B252CA62E28265B1B SWAP2 ADD PUSH2 0x1C09 JUMP JUMPDEST DUP2 PUSH1 0x1 PUSH1 0x1 PUSH1 0xA0 SHL SUB AND DUP4 PUSH1 0x1 PUSH1 0x1 PUSH1 0xA0 SHL SUB AND SUB PUSH2 0x1CF8 JUMPI PUSH1 0x40 MLOAD PUSH3 0x461BCD PUSH1 0xE5 SHL DUP2 MSTORE PUSH1 0x20 PUSH1 0x4 DUP3 ADD MSTORE PUSH1 0x19 PUSH1 0x24 DUP3 ADD MSTORE PUSH32 0x4552433732313A20617070726F766520746F2063616C6C657200000000000000 PUSH1 0x44 DUP3 ADD MSTORE PUSH1 0x64 ADD PUSH2 0x6D3 JUMP JUMPDEST PUSH1 0x1 PUSH1 0x1 PUSH1 0xA0 SHL SUB DUP4 DUP2 AND PUSH1 0x0 DUP2 DUP2 MSTORE PUSH1 0x5 PUSH1 0x20 SWAP1 DUP2 MSTORE PUSH1 0x40 DUP1 DUP4 KECCAK256 SWAP5 DUP8 AND DUP1 DUP5 MSTORE SWAP5 DUP3 MSTORE SWAP2 DUP3 SWAP1 KECCAK256 DUP1 SLOAD PUSH1 0xFF NOT AND DUP7 ISZERO ISZERO SWAP1 DUP2 OR SWAP1 SWAP2 SSTORE SWAP2 MLOAD SWAP2 DUP3 MSTORE PUSH32 0x17307EAB39AB6107E8899845AD3D59BD9653F200F220920489CA2B5937696C31 SWAP2 ADD PUSH1 0x40 MLOAD DUP1 SWAP2 SUB SWAP1 LOG3 POP POP POP JUMP JUMPDEST PUSH2 0x1D70 DUP5 DUP5 DUP5 PUSH2 0x15D9 JUMP JUMPDEST PUSH2 0x1D7C DUP5 DUP5 DUP5 DUP5 PUSH2 0x203D JUMP JUMPDEST PUSH2 0xD73 JUMPI PUSH1 0x40 MLOAD PUSH3 0x461BCD PUSH1 0xE5 SHL DUP2 MSTORE PUSH1 0x4 ADD PUSH2 0x6D3 SWAP1 PUSH2 0x3659 JUMP JUMPDEST PUSH1 0x60 DUP2 PUSH1 0x0 SUB PUSH2 0x1DBF JUMPI POP POP PUSH1 0x40 DUP1 MLOAD DUP1 DUP3 ADD SWAP1 SWAP2 MSTORE PUSH1 0x1 DUP2 MSTORE PUSH1 0x3 PUSH1 0xFC SHL PUSH1 0x20 DUP3 ADD MSTORE SWAP1 JUMP JUMPDEST DUP2 PUSH1 0x0 JUMPDEST DUP2 ISZERO PUSH2 0x1DE9 JUMPI DUP1 PUSH2 0x1DD3 DUP2 PUSH2 0x36AB JUMP JUMPDEST SWAP2 POP PUSH2 0x1DE2 SWAP1 POP PUSH1 0xA DUP4 PUSH2 0x360F JUMP JUMPDEST SWAP2 POP PUSH2 0x1DC3 JUMP JUMPDEST PUSH1 0x0 DUP2 PUSH8 0xFFFFFFFFFFFFFFFF DUP2 GT ISZERO PUSH2 0x1E04 JUMPI PUSH2 0x1E04 PUSH2 0x2898 JUMP JUMPDEST PUSH1 0x40 MLOAD SWAP1 DUP1 DUP3 MSTORE DUP1 PUSH1 0x1F ADD PUSH1 0x1F NOT AND PUSH1 0x20 ADD DUP3 ADD PUSH1 0x40 MSTORE DUP1 ISZERO PUSH2 0x1E2E JUMPI PUSH1 0x20 DUP3 ADD DUP2 DUP1 CALLDATASIZE DUP4 CALLDATACOPY ADD SWAP1 POP JUMPDEST POP SWAP1 POP JUMPDEST DUP5 ISZERO PUSH2 0x1213 JUMPI PUSH2 0x1E43 PUSH1 0x1 DUP4 PUSH2 0x3642 JUMP JUMPDEST SWAP2 POP PUSH2 0x1E50 PUSH1 0xA DUP7 PUSH2 0x36C4 JUMP JUMPDEST PUSH2 0x1E5B SWAP1 PUSH1 0x30 PUSH2 0x35E1 JUMP JUMPDEST PUSH1 0xF8 SHL DUP2 DUP4 DUP2 MLOAD DUP2 LT PUSH2 0x1E70 JUMPI PUSH2 0x1E70 PUSH2 0x2E8A JUMP JUMPDEST PUSH1 0x20 ADD ADD SWAP1 PUSH1 0x1 PUSH1 0x1 PUSH1 0xF8 SHL SUB NOT AND SWAP1 DUP2 PUSH1 0x0 BYTE SWAP1 MSTORE8 POP PUSH2 0x1E92 PUSH1 0xA DUP7 PUSH2 0x360F JUMP JUMPDEST SWAP5 POP PUSH2 0x1E32 JUMP JUMPDEST PUSH1 0x60 PUSH1 0x11 DUP1 SLOAD PUSH2 0x5B5 SWAP1 PUSH2 0x2C7B JUMP JUMPDEST PUSH1 0x60 DUP2 PUSH1 0x0 SUB PUSH2 0x1ED2 JUMPI POP POP PUSH1 0x40 DUP1 MLOAD DUP1 DUP3 ADD SWAP1 SWAP2 MSTORE PUSH1 0x4 DUP2 MSTORE PUSH4 0x3078303 PUSH1 0xE4 SHL PUSH1 0x20 DUP3 ADD MSTORE SWAP1 JUMP JUMPDEST DUP2 PUSH1 0x0 JUMPDEST DUP2 ISZERO PUSH2 0x1EF5 JUMPI DUP1 PUSH2 0x1EE6 DUP2 PUSH2 0x36AB JUMP JUMPDEST SWAP2 POP POP PUSH1 0x8 DUP3 SWAP1 SHR SWAP2 POP PUSH2 0x1ED6 JUMP JUMPDEST PUSH2 0x1213 DUP5 DUP3 PUSH2 0x213B JUMP JUMPDEST PUSH1 0x0 PUSH1 0x1 PUSH1 0x1 PUSH1 0xE0 SHL SUB NOT DUP3 AND PUSH4 0x80AC58CD PUSH1 0xE0 SHL EQ DUP1 PUSH2 0x1F30 JUMPI POP PUSH1 0x1 PUSH1 0x1 PUSH1 0xE0 SHL SUB NOT DUP3 AND PUSH4 0x5B5E139F PUSH1 0xE0 SHL EQ JUMPDEST DUP1 PUSH2 0x5A0 JUMPI POP PUSH4 0x1FFC9A7 PUSH1 0xE0 SHL PUSH1 0x1 PUSH1 0x1 PUSH1 0xE0 SHL SUB NOT DUP4 AND EQ PUSH2 0x5A0 JUMP JUMPDEST PUSH1 0x0 DUP2 DUP2 MSTORE PUSH1 0xB PUSH1 0x20 MSTORE PUSH1 0x40 DUP2 KECCAK256 SLOAD SWAP1 JUMPDEST DUP2 DUP2 LT ISZERO PUSH2 0x1FCE JUMPI PUSH1 0x0 DUP4 DUP2 MSTORE PUSH1 0xB PUSH1 0x20 MSTORE PUSH1 0x40 DUP2 KECCAK256 DUP1 SLOAD DUP4 SWAP1 DUP2 LT PUSH2 0x1F88 JUMPI PUSH2 0x1F88 PUSH2 0x2E8A JUMP JUMPDEST PUSH1 0x0 SWAP2 DUP3 MSTORE PUSH1 0x20 DUP1 DUP4 KECCAK256 SWAP1 SWAP2 ADD SLOAD DUP7 DUP4 MSTORE PUSH1 0xB DUP3 MSTORE PUSH1 0x40 DUP1 DUP5 KECCAK256 PUSH1 0x1 PUSH1 0x1 PUSH1 0xA0 SHL SUB SWAP1 SWAP3 AND DUP5 MSTORE PUSH1 0x1 SWAP2 SWAP1 SWAP2 ADD SWAP1 SWAP2 MSTORE DUP2 KECCAK256 SSTORE POP DUP1 PUSH2 0x1FC6 DUP2 PUSH2 0x36AB JUMP JUMPDEST SWAP2 POP POP PUSH2 0x1F60 JUMP JUMPDEST POP PUSH1 0x0 DUP3 DUP2 MSTORE PUSH1 0xB PUSH1 0x20 MSTORE PUSH1 0x40 DUP2 KECCAK256 PUSH2 0x1FE6 SWAP2 PUSH2 0x26E9 JUMP JUMPDEST PUSH2 0xD73 DUP5 DUP5 DUP5 PUSH2 0x22DE JUMP JUMPDEST PUSH2 0x1FFB DUP4 DUP4 PUSH2 0x2396 JUMP JUMPDEST PUSH1 0x0 DUP3 DUP2 MSTORE PUSH1 0xC PUSH1 0x20 MSTORE PUSH1 0x40 DUP1 DUP3 KECCAK256 DUP4 SWAP1 SSTORE MLOAD DUP3 SWAP2 SWAP1 DUP5 SWAP1 PUSH32 0xE4F48C240D3B994948AA54F3E2F5FCA59263DFE1D52B6E4CF39A5D249B5CCB65 SWAP1 DUP4 SWAP1 LOG4 POP POP POP JUMP JUMPDEST PUSH1 0x0 PUSH1 0x1 PUSH1 0x1 PUSH1 0xA0 SHL SUB DUP5 AND EXTCODESIZE ISZERO PUSH2 0x2133 JUMPI PUSH1 0x40 MLOAD PUSH4 0xA85BD01 PUSH1 0xE1 SHL DUP2 MSTORE PUSH1 0x1 PUSH1 0x1 PUSH1 0xA0 SHL SUB DUP6 AND SWAP1 PUSH4 0x150B7A02 SWAP1 PUSH2 0x2081 SWAP1 CALLER SWAP1 DUP10 SWAP1 DUP9 SWAP1 DUP9 SWAP1 PUSH1 0x4 ADD PUSH2 0x36D8 JUMP JUMPDEST PUSH1 0x20 PUSH1 0x40 MLOAD DUP1 DUP4 SUB DUP2 PUSH1 0x0 DUP8 GAS CALL SWAP3 POP POP POP DUP1 ISZERO PUSH2 0x20BC JUMPI POP PUSH1 0x40 DUP1 MLOAD PUSH1 0x1F RETURNDATASIZE SWAP1 DUP2 ADD PUSH1 0x1F NOT AND DUP3 ADD SWAP1 SWAP3 MSTORE PUSH2 0x20B9 SWAP2 DUP2 ADD SWAP1 PUSH2 0x3715 JUMP JUMPDEST PUSH1 0x1 JUMPDEST PUSH2 0x2119 JUMPI RETURNDATASIZE DUP1 DUP1 ISZERO PUSH2 0x20EA JUMPI PUSH1 0x40 MLOAD SWAP2 POP PUSH1 0x1F NOT PUSH1 0x3F RETURNDATASIZE ADD AND DUP3 ADD PUSH1 0x40 MSTORE RETURNDATASIZE DUP3 MSTORE RETURNDATASIZE PUSH1 0x0 PUSH1 0x20 DUP5 ADD RETURNDATACOPY PUSH2 0x20EF JUMP JUMPDEST PUSH1 0x60 SWAP2 POP JUMPDEST POP DUP1 MLOAD PUSH1 0x0 SUB PUSH2 0x2111 JUMPI PUSH1 0x40 MLOAD PUSH3 0x461BCD PUSH1 0xE5 SHL DUP2 MSTORE PUSH1 0x4 ADD PUSH2 0x6D3 SWAP1 PUSH2 0x3659 JUMP JUMPDEST DUP1 MLOAD DUP2 PUSH1 0x20 ADD REVERT JUMPDEST PUSH1 0x1 PUSH1 0x1 PUSH1 0xE0 SHL SUB NOT AND PUSH4 0xA85BD01 PUSH1 0xE1 SHL EQ SWAP1 POP PUSH2 0x1213 JUMP JUMPDEST POP PUSH1 0x1 PUSH2 0x1213 JUMP JUMPDEST PUSH1 0x60 PUSH1 0x0 PUSH2 0x214A DUP4 PUSH1 0x2 PUSH2 0x3623 JUMP JUMPDEST PUSH2 0x2155 SWAP1 PUSH1 0x2 PUSH2 0x35E1 JUMP JUMPDEST PUSH8 0xFFFFFFFFFFFFFFFF DUP2 GT ISZERO PUSH2 0x216D JUMPI PUSH2 0x216D PUSH2 0x2898 JUMP JUMPDEST PUSH1 0x40 MLOAD SWAP1 DUP1 DUP3 MSTORE DUP1 PUSH1 0x1F ADD PUSH1 0x1F NOT AND PUSH1 0x20 ADD DUP3 ADD PUSH1 0x40 MSTORE DUP1 ISZERO PUSH2 0x2197 JUMPI PUSH1 0x20 DUP3 ADD DUP2 DUP1 CALLDATASIZE DUP4 CALLDATACOPY ADD SWAP1 POP JUMPDEST POP SWAP1 POP PUSH1 0x3 PUSH1 0xFC SHL DUP2 PUSH1 0x0 DUP2 MLOAD DUP2 LT PUSH2 0x21B2 JUMPI PUSH2 0x21B2 PUSH2 0x2E8A JUMP JUMPDEST PUSH1 0x20 ADD ADD SWAP1 PUSH1 0x1 PUSH1 0x1 PUSH1 0xF8 SHL SUB NOT AND SWAP1 DUP2 PUSH1 0x0 BYTE SWAP1 MSTORE8 POP PUSH1 0xF PUSH1 0xFB SHL DUP2 PUSH1 0x1 DUP2 MLOAD DUP2 LT PUSH2 0x21E1 JUMPI PUSH2 0x21E1 PUSH2 0x2E8A JUMP JUMPDEST PUSH1 0x20 ADD ADD SWAP1 PUSH1 0x1 PUSH1 0x1 PUSH1 0xF8 SHL SUB NOT AND SWAP1 DUP2 PUSH1 0x0 BYTE SWAP1 MSTORE8 POP PUSH1 0x0 PUSH2 0x2205 DUP5 PUSH1 0x2 PUSH2 0x3623 JUMP JUMPDEST PUSH2 0x2210 SWAP1 PUSH1 0x1 PUSH2 0x35E1 JUMP JUMPDEST SWAP1 POP JUMPDEST PUSH1 0x1 DUP2 GT ISZERO PUSH2 0x2288 JUMPI PUSH16 0x181899199A1A9B1B9C1CB0B131B232B3 PUSH1 0x81 SHL DUP6 PUSH1 0xF AND PUSH1 0x10 DUP2 LT PUSH2 0x2244 JUMPI PUSH2 0x2244 PUSH2 0x2E8A JUMP JUMPDEST BYTE PUSH1 0xF8 SHL DUP3 DUP3 DUP2 MLOAD DUP2 LT PUSH2 0x225A JUMPI PUSH2 0x225A PUSH2 0x2E8A JUMP JUMPDEST PUSH1 0x20 ADD ADD SWAP1 PUSH1 0x1 PUSH1 0x1 PUSH1 0xF8 SHL SUB NOT AND SWAP1 DUP2 PUSH1 0x0 BYTE SWAP1 MSTORE8 POP PUSH1 0x4 SWAP5 SWAP1 SWAP5 SHR SWAP4 PUSH2 0x2281 DUP2 PUSH2 0x3732 JUMP JUMPDEST SWAP1 POP PUSH2 0x2213 JUMP JUMPDEST POP DUP4 ISZERO PUSH2 0x22D7 JUMPI PUSH1 0x40 MLOAD PUSH3 0x461BCD PUSH1 0xE5 SHL DUP2 MSTORE PUSH1 0x20 PUSH1 0x4 DUP3 ADD DUP2 SWAP1 MSTORE PUSH1 0x24 DUP3 ADD MSTORE PUSH32 0x537472696E67733A20686578206C656E67746820696E73756666696369656E74 PUSH1 0x44 DUP3 ADD MSTORE PUSH1 0x64 ADD PUSH2 0x6D3 JUMP JUMPDEST SWAP4 SWAP3 POP POP POP JUMP JUMPDEST PUSH1 0x1 PUSH1 0x1 PUSH1 0xA0 SHL SUB DUP4 AND PUSH2 0x2339 JUMPI PUSH2 0x2334 DUP2 PUSH1 0x8 DUP1 SLOAD PUSH1 0x0 DUP4 DUP2 MSTORE PUSH1 0x9 PUSH1 0x20 MSTORE PUSH1 0x40 DUP2 KECCAK256 DUP3 SWAP1 SSTORE PUSH1 0x1 DUP3 ADD DUP4 SSTORE SWAP2 SWAP1 SWAP2 MSTORE PUSH32 0xF3F7A9FE364FAAB93B216DA50A3214154F22A0A2B415B23A84C8169E8B636EE3 ADD SSTORE JUMP JUMPDEST PUSH2 0x235C JUMP JUMPDEST DUP2 PUSH1 0x1 PUSH1 0x1 PUSH1 0xA0 SHL SUB AND DUP4 PUSH1 0x1 PUSH1 0x1 PUSH1 0xA0 SHL SUB AND EQ PUSH2 0x235C JUMPI PUSH2 0x235C DUP4 DUP3 PUSH2 0x24D5 JUMP JUMPDEST PUSH1 0x1 PUSH1 0x1 PUSH1 0xA0 SHL SUB DUP3 AND PUSH2 0x2373 JUMPI PUSH2 0x774 DUP2 PUSH2 0x2572 JUMP JUMPDEST DUP3 PUSH1 0x1 PUSH1 0x1 PUSH1 0xA0 SHL SUB AND DUP3 PUSH1 0x1 PUSH1 0x1 PUSH1 0xA0 SHL SUB AND EQ PUSH2 0x774 JUMPI PUSH2 0x774 DUP3 DUP3 PUSH2 0x2621 JUMP JUMPDEST PUSH1 0x1 PUSH1 0x1 PUSH1 0xA0 SHL SUB DUP3 AND PUSH2 0x23EC JUMPI PUSH1 0x40 MLOAD PUSH3 0x461BCD PUSH1 0xE5 SHL DUP2 MSTORE PUSH1 0x20 PUSH1 0x4 DUP3 ADD DUP2 SWAP1 MSTORE PUSH1 0x24 DUP3 ADD MSTORE PUSH32 0x4552433732313A206D696E7420746F20746865207A65726F2061646472657373 PUSH1 0x44 DUP3 ADD MSTORE PUSH1 0x64 ADD PUSH2 0x6D3 JUMP JUMPDEST PUSH2 0x23F5 DUP2 PUSH2 0x1780 JUMP JUMPDEST ISZERO PUSH2 0x2442 JUMPI PUSH1 0x40 MLOAD PUSH3 0x461BCD PUSH1 0xE5 SHL DUP2 MSTORE PUSH1 0x20 PUSH1 0x4 DUP3 ADD MSTORE PUSH1 0x1C PUSH1 0x24 DUP3 ADD MSTORE PUSH32 0x4552433732313A20746F6B656E20616C7265616479206D696E74656400000000 PUSH1 0x44 DUP3 ADD MSTORE PUSH1 0x64 ADD PUSH2 0x6D3 JUMP JUMPDEST PUSH2 0x244E PUSH1 0x0 DUP4 DUP4 PUSH2 0x1F4F JUMP JUMPDEST PUSH1 0x1 PUSH1 0x1 PUSH1 0xA0 SHL SUB DUP3 AND PUSH1 0x0 SWAP1 DUP2 MSTORE PUSH1 0x3 PUSH1 0x20 MSTORE PUSH1 0x40 DUP2 KECCAK256 DUP1 SLOAD PUSH1 0x1 SWAP3 SWAP1 PUSH2 0x2477 SWAP1 DUP5 SWAP1 PUSH2 0x35E1 JUMP JUMPDEST SWAP1 SWAP2 SSTORE POP POP PUSH1 0x0 DUP2 DUP2 MSTORE PUSH1 0x2 PUSH1 0x20 MSTORE PUSH1 0x40 DUP1 DUP3 KECCAK256 DUP1 SLOAD PUSH1 0x1 PUSH1 0x1 PUSH1 0xA0 SHL SUB NOT AND PUSH1 0x1 PUSH1 0x1 PUSH1 0xA0 SHL SUB DUP7 AND SWAP1 DUP2 OR SWAP1 SWAP2 SSTORE SWAP1 MLOAD DUP4 SWAP3 SWAP1 PUSH32 0xDDF252AD1BE2C89B69C2B068FC378DAA952BA7F163C4A11628F55A4DF523B3EF SWAP1 DUP3 SWAP1 LOG4 POP POP JUMP JUMPDEST PUSH1 0x0 PUSH1 0x1 PUSH2 0x24E2 DUP5 PUSH2 0xA53 JUMP JUMPDEST PUSH2 0x24EC SWAP2 SWAP1 PUSH2 0x3642 JUMP JUMPDEST PUSH1 0x0 DUP4 DUP2 MSTORE PUSH1 0x7 PUSH1 0x20 MSTORE PUSH1 0x40 SWAP1 KECCAK256 SLOAD SWAP1 SWAP2 POP DUP1 DUP3 EQ PUSH2 0x253F JUMPI PUSH1 0x1 PUSH1 0x1 PUSH1 0xA0 SHL SUB DUP5 AND PUSH1 0x0 SWAP1 DUP2 MSTORE PUSH1 0x6 PUSH1 0x20 SWAP1 DUP2 MSTORE PUSH1 0x40 DUP1 DUP4 KECCAK256 DUP6 DUP5 MSTORE DUP3 MSTORE DUP1 DUP4 KECCAK256 SLOAD DUP5 DUP5 MSTORE DUP2 DUP5 KECCAK256 DUP2 SWAP1 SSTORE DUP4 MSTORE PUSH1 0x7 SWAP1 SWAP2 MSTORE SWAP1 KECCAK256 DUP2 SWAP1 SSTORE JUMPDEST POP PUSH1 0x0 SWAP2 DUP3 MSTORE PUSH1 0x7 PUSH1 0x20 SWAP1 DUP2 MSTORE PUSH1 0x40 DUP1 DUP5 KECCAK256 DUP5 SWAP1 SSTORE PUSH1 0x1 PUSH1 0x1 PUSH1 0xA0 SHL SUB SWAP1 SWAP5 AND DUP4 MSTORE PUSH1 0x6 DUP2 MSTORE DUP4 DUP4 KECCAK256 SWAP2 DUP4 MSTORE MSTORE SWAP1 DUP2 KECCAK256 SSTORE JUMP JUMPDEST PUSH1 0x8 SLOAD PUSH1 0x0 SWAP1 PUSH2 0x2584 SWAP1 PUSH1 0x1 SWAP1 PUSH2 0x3642 JUMP JUMPDEST PUSH1 0x0 DUP4 DUP2 MSTORE PUSH1 0x9 PUSH1 0x20 MSTORE PUSH1 0x40 DUP2 KECCAK256 SLOAD PUSH1 0x8 DUP1 SLOAD SWAP4 SWAP5 POP SWAP1 SWAP3 DUP5 SWAP1 DUP2 LT PUSH2 0x25AC JUMPI PUSH2 0x25AC PUSH2 0x2E8A JUMP JUMPDEST SWAP1 PUSH1 0x0 MSTORE PUSH1 0x20 PUSH1 0x0 KECCAK256 ADD SLOAD SWAP1 POP DUP1 PUSH1 0x8 DUP4 DUP2 SLOAD DUP2 LT PUSH2 0x25CD JUMPI PUSH2 0x25CD PUSH2 0x2E8A JUMP JUMPDEST PUSH1 0x0 SWAP2 DUP3 MSTORE PUSH1 0x20 DUP1 DUP4 KECCAK256 SWAP1 SWAP2 ADD SWAP3 SWAP1 SWAP3 SSTORE DUP3 DUP2 MSTORE PUSH1 0x9 SWAP1 SWAP2 MSTORE PUSH1 0x40 DUP1 DUP3 KECCAK256 DUP5 SWAP1 SSTORE DUP6 DUP3 MSTORE DUP2 KECCAK256 SSTORE PUSH1 0x8 DUP1 SLOAD DUP1 PUSH2 0x2605 JUMPI PUSH2 0x2605 PUSH2 0x3749 JUMP JUMPDEST PUSH1 0x1 SWAP1 SUB DUP2 DUP2 SWAP1 PUSH1 0x0 MSTORE PUSH1 0x20 PUSH1 0x0 KECCAK256 ADD PUSH1 0x0 SWAP1 SSTORE SWAP1 SSTORE POP POP POP POP JUMP JUMPDEST PUSH1 0x0 PUSH2 0x262C DUP4 PUSH2 0xA53 JUMP JUMPDEST PUSH1 0x1 PUSH1 0x1 PUSH1 0xA0 SHL SUB SWAP1 SWAP4 AND PUSH1 0x0 SWAP1 DUP2 MSTORE PUSH1 0x6 PUSH1 0x20 SWAP1 DUP2 MSTORE PUSH1 0x40 DUP1 DUP4 KECCAK256 DUP7 DUP5 MSTORE DUP3 MSTORE DUP1 DUP4 KECCAK256 DUP6 SWAP1 SSTORE SWAP4 DUP3 MSTORE PUSH1 0x7 SWAP1 MSTORE SWAP2 SWAP1 SWAP2 KECCAK256 SWAP2 SWAP1 SWAP2 SSTORE POP JUMP JUMPDEST DUP3 DUP1 SLOAD PUSH2 0x2671 SWAP1 PUSH2 0x2C7B JUMP JUMPDEST SWAP1 PUSH1 0x0 MSTORE PUSH1 0x20 PUSH1 0x0 KECCAK256 SWAP1 PUSH1 0x1F ADD PUSH1 0x20 SWAP1 DIV DUP2 ADD SWAP3 DUP3 PUSH2 0x2693 JUMPI PUSH1 0x0 DUP6 SSTORE PUSH2 0x26D9 JUMP JUMPDEST DUP3 PUSH1 0x1F LT PUSH2 0x26AC JUMPI DUP1 MLOAD PUSH1 0xFF NOT AND DUP4 DUP1 ADD OR DUP6 SSTORE PUSH2 0x26D9 JUMP JUMPDEST DUP3 DUP1 ADD PUSH1 0x1 ADD DUP6 SSTORE DUP3 ISZERO PUSH2 0x26D9 JUMPI SWAP2 DUP3 ADD JUMPDEST DUP3 DUP2 GT ISZERO PUSH2 0x26D9 JUMPI DUP3 MLOAD DUP3 SSTORE SWAP2 PUSH1 0x20 ADD SWAP2 SWAP1 PUSH1 0x1 ADD SWAP1 PUSH2 0x26BE JUMP JUMPDEST POP PUSH2 0x26E5 SWAP3 SWAP2 POP PUSH2 0x2703 JUMP JUMPDEST POP SWAP1 JUMP JUMPDEST POP DUP1 SLOAD PUSH1 0x0 DUP3 SSTORE SWAP1 PUSH1 0x0 MSTORE PUSH1 0x20 PUSH1 0x0 KECCAK256 SWAP1 DUP2 ADD SWAP1 PUSH2 0x1290 SWAP2 SWAP1 JUMPDEST JUMPDEST DUP1 DUP3 GT ISZERO PUSH2 0x26E5 JUMPI PUSH1 0x0 DUP2 SSTORE PUSH1 0x1 ADD PUSH2 0x2704 JUMP JUMPDEST PUSH1 0x1 PUSH1 0x1 PUSH1 0xE0 SHL SUB NOT DUP2 AND DUP2 EQ PUSH2 0x1290 JUMPI PUSH1 0x0 DUP1 REVERT JUMPDEST PUSH1 0x0 PUSH1 0x20 DUP3 DUP5 SUB SLT ISZERO PUSH2 0x2740 JUMPI PUSH1 0x0 DUP1 REVERT JUMPDEST DUP2 CALLDATALOAD PUSH2 0x22D7 DUP2 PUSH2 0x2718 JUMP JUMPDEST PUSH1 0x0 JUMPDEST DUP4 DUP2 LT ISZERO PUSH2 0x2766 JUMPI DUP2 DUP2 ADD MLOAD DUP4 DUP3 ADD MSTORE PUSH1 0x20 ADD PUSH2 0x274E JUMP JUMPDEST DUP4 DUP2 GT ISZERO PUSH2 0xD73 JUMPI POP POP PUSH1 0x0 SWAP2 ADD MSTORE JUMP JUMPDEST PUSH1 0x0 DUP2 MLOAD DUP1 DUP5 MSTORE PUSH2 0x278F DUP2 PUSH1 0x20 DUP7 ADD PUSH1 0x20 DUP7 ADD PUSH2 0x274B JUMP JUMPDEST PUSH1 0x1F ADD PUSH1 0x1F NOT AND SWAP3 SWAP1 SWAP3 ADD PUSH1 0x20 ADD SWAP3 SWAP2 POP POP JUMP JUMPDEST PUSH1 0x20 DUP2 MSTORE PUSH1 0x0 PUSH2 0x22D7 PUSH1 0x20 DUP4 ADD DUP5 PUSH2 0x2777 JUMP JUMPDEST PUSH1 0x0 PUSH1 0x20 DUP3 DUP5 SUB SLT ISZERO PUSH2 0x27C8 JUMPI PUSH1 0x0 DUP1 REVERT JUMPDEST POP CALLDATALOAD SWAP2 SWAP1 POP JUMP JUMPDEST DUP1 CALLDATALOAD PUSH1 0x1 PUSH1 0x1 PUSH1 0xA0 SHL SUB DUP2 AND DUP2 EQ PUSH2 0x27E6 JUMPI PUSH1 0x0 DUP1 REVERT JUMPDEST SWAP2 SWAP1 POP JUMP JUMPDEST PUSH1 0x0 DUP1 PUSH1 0x40 DUP4 DUP6 SUB SLT ISZERO PUSH2 0x27FE JUMPI PUSH1 0x0 DUP1 REVERT JUMPDEST PUSH2 0x2807 DUP4 PUSH2 0x27CF JUMP JUMPDEST SWAP5 PUSH1 0x20 SWAP4 SWAP1 SWAP4 ADD CALLDATALOAD SWAP4 POP POP POP JUMP JUMPDEST PUSH1 0x0 DUP1 PUSH1 0x0 PUSH1 0x60 DUP5 DUP7 SUB SLT ISZERO PUSH2 0x282A JUMPI PUSH1 0x0 DUP1 REVERT JUMPDEST PUSH2 0x2833 DUP5 PUSH2 0x27CF JUMP JUMPDEST SWAP3 POP PUSH2 0x2841 PUSH1 0x20 DUP6 ADD PUSH2 0x27CF JUMP JUMPDEST SWAP2 POP PUSH1 0x40 DUP5 ADD CALLDATALOAD SWAP1 POP SWAP3 POP SWAP3 POP SWAP3 JUMP JUMPDEST PUSH1 0x0 DUP1 PUSH1 0x0 PUSH1 0x60 DUP5 DUP7 SUB SLT ISZERO PUSH2 0x2866 JUMPI PUSH1 0x0 DUP1 REVERT JUMPDEST POP POP DUP2 CALLDATALOAD SWAP4 PUSH1 0x20 DUP4 ADD CALLDATALOAD SWAP4 POP PUSH1 0x40 SWAP1 SWAP3 ADD CALLDATALOAD SWAP2 SWAP1 POP JUMP JUMPDEST PUSH1 0x0 PUSH1 0x20 DUP3 DUP5 SUB SLT ISZERO PUSH2 0x288F JUMPI PUSH1 0x0 DUP1 REVERT JUMPDEST PUSH2 0x22D7 DUP3 PUSH2 0x27CF JUMP JUMPDEST PUSH4 0x4E487B71 PUSH1 0xE0 SHL PUSH1 0x0 MSTORE PUSH1 0x41 PUSH1 0x4 MSTORE PUSH1 0x24 PUSH1 0x0 REVERT JUMPDEST PUSH1 0x0 PUSH8 0xFFFFFFFFFFFFFFFF DUP1 DUP5 GT ISZERO PUSH2 0x28C9 JUMPI PUSH2 0x28C9 PUSH2 0x2898 JUMP JUMPDEST PUSH1 0x40 MLOAD PUSH1 0x1F DUP6 ADD PUSH1 0x1F NOT SWAP1 DUP2 AND PUSH1 0x3F ADD AND DUP2 ADD SWAP1 DUP3 DUP3 GT DUP2 DUP4 LT OR ISZERO PUSH2 0x28F1 JUMPI PUSH2 0x28F1 PUSH2 0x2898 JUMP JUMPDEST DUP2 PUSH1 0x40 MSTORE DUP1 SWAP4 POP DUP6 DUP2 MSTORE DUP7 DUP7 DUP7 ADD GT ISZERO PUSH2 0x290A JUMPI PUSH1 0x0 DUP1 REVERT JUMPDEST DUP6 DUP6 PUSH1 0x20 DUP4 ADD CALLDATACOPY PUSH1 0x0 PUSH1 0x20 DUP8 DUP4 ADD ADD MSTORE POP POP POP SWAP4 SWAP3 POP POP POP JUMP JUMPDEST PUSH1 0x0 DUP3 PUSH1 0x1F DUP4 ADD SLT PUSH2 0x2935 JUMPI PUSH1 0x0 DUP1 REVERT JUMPDEST PUSH2 0x22D7 DUP4 DUP4 CALLDATALOAD PUSH1 0x20 DUP6 ADD PUSH2 0x28AE JUMP JUMPDEST DUP1 CALLDATALOAD PUSH1 0xFF DUP2 AND DUP2 EQ PUSH2 0x27E6 JUMPI PUSH1 0x0 DUP1 REVERT JUMPDEST DUP1 CALLDATALOAD PUSH4 0xFFFFFFFF DUP2 AND DUP2 EQ PUSH2 0x27E6 JUMPI PUSH1 0x0 DUP1 REVERT JUMPDEST PUSH1 0x0 DUP1 PUSH1 0x0 DUP1 PUSH1 0x0 DUP1 PUSH1 0x0 DUP1 PUSH1 0x0 PUSH2 0x120 DUP11 DUP13 SUB SLT ISZERO PUSH2 0x2988 JUMPI PUSH1 0x0 DUP1 REVERT JUMPDEST DUP10 CALLDATALOAD PUSH8 0xFFFFFFFFFFFFFFFF DUP1 DUP3 GT ISZERO PUSH2 0x29A0 JUMPI PUSH1 0x0 DUP1 REVERT JUMPDEST PUSH2 0x29AC DUP14 DUP4 DUP15 ADD PUSH2 0x2924 JUMP JUMPDEST SWAP11 POP PUSH1 0x20 DUP13 ADD CALLDATALOAD SWAP2 POP DUP1 DUP3 GT ISZERO PUSH2 0x29C2 JUMPI PUSH1 0x0 DUP1 REVERT JUMPDEST PUSH2 0x29CE DUP14 DUP4 DUP15 ADD PUSH2 0x2924 JUMP JUMPDEST SWAP10 POP PUSH1 0x40 DUP13 ADD CALLDATALOAD SWAP2 POP DUP1 DUP3 GT ISZERO PUSH2 0x29E4 JUMPI PUSH1 0x0 DUP1 REVERT JUMPDEST POP PUSH2 0x29F1 DUP13 DUP3 DUP14 ADD PUSH2 0x2924 JUMP JUMPDEST SWAP8 POP POP PUSH1 0x60 DUP11 ADD CALLDATALOAD SWAP6 POP PUSH2 0x2A07 PUSH1 0x80 DUP12 ADD PUSH2 0x27CF JUMP JUMPDEST SWAP5 POP PUSH2 0x2A15 PUSH1 0xA0 DUP12 ADD PUSH2 0x2944 JUMP JUMPDEST SWAP4 POP PUSH2 0x2A23 PUSH1 0xC0 DUP12 ADD PUSH2 0x2955 JUMP JUMPDEST SWAP3 POP PUSH2 0x2A31 PUSH1 0xE0 DUP12 ADD PUSH2 0x2955 JUMP JUMPDEST SWAP2 POP PUSH2 0x100 DUP11 ADD CALLDATALOAD SWAP1 POP SWAP3 SWAP6 SWAP9 POP SWAP3 SWAP6 SWAP9 POP SWAP3 SWAP6 SWAP9 JUMP JUMPDEST PUSH1 0x0 DUP1 PUSH1 0x0 PUSH1 0x60 DUP5 DUP7 SUB SLT ISZERO PUSH2 0x2A5D JUMPI PUSH1 0x0 DUP1 REVERT JUMPDEST DUP4 CALLDATALOAD SWAP3 POP PUSH2 0x2841 PUSH1 0x20 DUP6 ADD PUSH2 0x27CF JUMP JUMPDEST PUSH1 0x0 DUP1 PUSH1 0x40 DUP4 DUP6 SUB SLT ISZERO PUSH2 0x2A80 JUMPI PUSH1 0x0 DUP1 REVERT JUMPDEST PUSH2 0x2A89 DUP4 PUSH2 0x27CF JUMP JUMPDEST SWAP2 POP PUSH1 0x20 DUP4 ADD CALLDATALOAD DUP1 ISZERO ISZERO DUP2 EQ PUSH2 0x2A9E JUMPI PUSH1 0x0 DUP1 REVERT JUMPDEST DUP1 SWAP2 POP POP SWAP3 POP SWAP3 SWAP1 POP JUMP JUMPDEST PUSH1 0x0 DUP1 PUSH1 0x0 DUP1 PUSH1 0x80 DUP6 DUP8 SUB SLT ISZERO PUSH2 0x2ABF JUMPI PUSH1 0x0 DUP1 REVERT JUMPDEST PUSH2 0x2AC8 DUP6 PUSH2 0x27CF JUMP JUMPDEST SWAP4 POP PUSH2 0x2AD6 PUSH1 0x20 DUP7 ADD PUSH2 0x27CF JUMP JUMPDEST SWAP3 POP PUSH1 0x40 DUP6 ADD CALLDATALOAD SWAP2 POP PUSH1 0x60 DUP6 ADD CALLDATALOAD PUSH8 0xFFFFFFFFFFFFFFFF DUP2 GT ISZERO PUSH2 0x2AF9 JUMPI PUSH1 0x0 DUP1 REVERT JUMPDEST DUP6 ADD PUSH1 0x1F DUP2 ADD DUP8 SGT PUSH2 0x2B0A JUMPI PUSH1 0x0 DUP1 REVERT JUMPDEST PUSH2 0x2B19 DUP8 DUP3 CALLDATALOAD PUSH1 0x20 DUP5 ADD PUSH2 0x28AE JUMP JUMPDEST SWAP2 POP POP SWAP3 SWAP6 SWAP2 SWAP5 POP SWAP3 POP JUMP JUMPDEST PUSH1 0x20 DUP2 MSTORE PUSH1 0x0 DUP3 MLOAD PUSH1 0xE0 PUSH1 0x20 DUP5 ADD MSTORE PUSH2 0x2B42 PUSH2 0x100 DUP5 ADD DUP3 PUSH2 0x2777 JUMP JUMPDEST SWAP1 POP PUSH1 0x20 DUP5 ADD MLOAD PUSH1 0x1F NOT DUP1 DUP6 DUP5 SUB ADD PUSH1 0x40 DUP7 ADD MSTORE PUSH2 0x2B60 DUP4 DUP4 PUSH2 0x2777 JUMP JUMPDEST SWAP3 POP PUSH1 0x40 DUP7 ADD MLOAD SWAP2 POP DUP1 DUP6 DUP5 SUB ADD PUSH1 0x60 DUP7 ADD MSTORE POP PUSH2 0x2B7E DUP3 DUP3 PUSH2 0x2777 JUMP JUMPDEST SWAP2 POP POP PUSH1 0x1 DUP1 PUSH1 0xA0 SHL SUB PUSH1 0x60 DUP6 ADD MLOAD AND PUSH1 0x80 DUP5 ADD MSTORE PUSH1 0xFF PUSH1 0x80 DUP6 ADD MLOAD AND PUSH1 0xA0 DUP5 ADD MSTORE PUSH1 0xA0 DUP5 ADD MLOAD PUSH2 0x2BB7 PUSH1 0xC0 DUP6 ADD DUP3 PUSH4 0xFFFFFFFF AND SWAP1 MSTORE JUMP JUMPDEST POP PUSH1 0xC0 DUP5 ADD MLOAD PUSH4 0xFFFFFFFF DUP2 AND PUSH1 0xE0 DUP6 ADD MSTORE POP SWAP4 SWAP3 POP POP POP JUMP JUMPDEST PUSH1 0x0 DUP1 PUSH1 0x40 DUP4 DUP6 SUB SLT ISZERO PUSH2 0x2BE4 JUMPI PUSH1 0x0 DUP1 REVERT JUMPDEST DUP3 CALLDATALOAD SWAP2 POP PUSH2 0x2BF4 PUSH1 0x20 DUP5 ADD PUSH2 0x27CF JUMP JUMPDEST SWAP1 POP SWAP3 POP SWAP3 SWAP1 POP JUMP JUMPDEST PUSH1 0x0 DUP1 PUSH1 0x0 DUP1 PUSH1 0x80 DUP6 DUP8 SUB SLT ISZERO PUSH2 0x2C13 JUMPI PUSH1 0x0 DUP1 REVERT JUMPDEST PUSH2 0x2C1C DUP6 PUSH2 0x27CF JUMP JUMPDEST SWAP4 POP PUSH2 0x2C2A PUSH1 0x20 DUP7 ADD PUSH2 0x2944 JUMP JUMPDEST SWAP3 POP PUSH2 0x2C38 PUSH1 0x40 DUP7 ADD PUSH2 0x2955 JUMP JUMPDEST SWAP2 POP PUSH2 0x2C46 PUSH1 0x60 DUP7 ADD PUSH2 0x2955 JUMP JUMPDEST SWAP1 POP SWAP3 SWAP6 SWAP2 SWAP5 POP SWAP3 POP JUMP JUMPDEST PUSH1 0x0 DUP1 PUSH1 0x40 DUP4 DUP6 SUB SLT ISZERO PUSH2 0x2C64 JUMPI PUSH1 0x0 DUP1 REVERT JUMPDEST PUSH2 0x2C6D DUP4 PUSH2 0x27CF JUMP JUMPDEST SWAP2 POP PUSH2 0x2BF4 PUSH1 0x20 DUP5 ADD PUSH2 0x27CF JUMP JUMPDEST PUSH1 0x1 DUP2 DUP2 SHR SWAP1 DUP3 AND DUP1 PUSH2 0x2C8F JUMPI PUSH1 0x7F DUP3 AND SWAP2 POP JUMPDEST PUSH1 0x20 DUP3 LT DUP2 SUB PUSH2 0x2CAF JUMPI PUSH4 0x4E487B71 PUSH1 0xE0 SHL PUSH1 0x0 MSTORE PUSH1 0x22 PUSH1 0x4 MSTORE PUSH1 0x24 PUSH1 0x0 REVERT JUMPDEST POP SWAP2 SWAP1 POP JUMP JUMPDEST DUP1 SLOAD PUSH1 0x0 SWAP1 PUSH1 0x1 DUP2 DUP2 SHR SWAP1 DUP1 DUP4 AND DUP1 PUSH2 0x2CCF JUMPI PUSH1 0x7F DUP4 AND SWAP3 POP JUMPDEST PUSH1 0x20 DUP1 DUP5 LT DUP3 SUB PUSH2 0x2CF0 JUMPI PUSH4 0x4E487B71 PUSH1 0xE0 SHL PUSH1 0x0 MSTORE PUSH1 0x22 PUSH1 0x4 MSTORE PUSH1 0x24 PUSH1 0x0 REVERT JUMPDEST DUP2 DUP1 ISZERO PUSH2 0x2D04 JUMPI PUSH1 0x1 DUP2 EQ PUSH2 0x2D15 JUMPI PUSH2 0x2D42 JUMP JUMPDEST PUSH1 0xFF NOT DUP7 AND DUP10 MSTORE DUP5 DUP10 ADD SWAP7 POP PUSH2 0x2D42 JUMP JUMPDEST PUSH1 0x0 DUP9 DUP2 MSTORE PUSH1 0x20 SWAP1 KECCAK256 PUSH1 0x0 JUMPDEST DUP7 DUP2 LT ISZERO PUSH2 0x2D3A JUMPI DUP2 SLOAD DUP12 DUP3 ADD MSTORE SWAP1 DUP6 ADD SWAP1 DUP4 ADD PUSH2 0x2D21 JUMP JUMPDEST POP POP DUP5 DUP10 ADD SWAP7 POP JUMPDEST POP POP POP POP POP POP SWAP3 SWAP2 POP POP JUMP JUMPDEST PUSH9 0x3D913730B6B2911D11 PUSH1 0xB9 SHL DUP2 MSTORE PUSH1 0x0 PUSH2 0x2D6C PUSH1 0x9 DUP4 ADD DUP8 PUSH2 0x2CB5 JUMP JUMPDEST PUSH17 0x1116113232B9B1B934B83A34B7B7111D11 PUSH1 0x79 SHL DUP2 MSTORE PUSH2 0x2D90 PUSH1 0x11 DUP3 ADD DUP8 PUSH2 0x2CB5 JUMP JUMPDEST PUSH11 0x11161134B6B0B3B2911D11 PUSH1 0xA9 SHL DUP2 MSTORE SWAP1 POP PUSH2 0x2DB0 PUSH1 0xB DUP3 ADD DUP7 PUSH2 0x2CB5 JUMP JUMPDEST PUSH15 0x111611383937B832B93A34B2B9911D PUSH1 0x89 SHL DUP2 MSTORE DUP5 MLOAD SWAP1 SWAP2 POP PUSH2 0x2DDB DUP2 PUSH1 0xF DUP5 ADD PUSH1 0x20 DUP9 ADD PUSH2 0x274B JUMP JUMPDEST PUSH1 0x7D PUSH1 0xF8 SHL PUSH1 0xF SWAP3 SWAP1 SWAP2 ADD SWAP2 DUP3 ADD MSTORE PUSH1 0x10 ADD SWAP7 SWAP6 POP POP POP POP POP POP JUMP JUMPDEST PUSH32 0x646174613A6170706C69636174696F6E2F6A736F6E3B6261736536342C000000 DUP2 MSTORE PUSH1 0x0 DUP3 MLOAD PUSH2 0x2E2F DUP2 PUSH1 0x1D DUP6 ADD PUSH1 0x20 DUP8 ADD PUSH2 0x274B JUMP JUMPDEST SWAP2 SWAP1 SWAP2 ADD PUSH1 0x1D ADD SWAP3 SWAP2 POP POP JUMP JUMPDEST PUSH1 0x20 DUP1 DUP3 MSTORE PUSH1 0x2E SWAP1 DUP3 ADD MSTORE PUSH32 0x4552433732313A2063616C6C6572206973206E6F7420746F6B656E206F776E65 PUSH1 0x40 DUP3 ADD MSTORE PUSH14 0x1C881B9BDC88185C1C1C9BDD9959 PUSH1 0x92 SHL PUSH1 0x60 DUP3 ADD MSTORE PUSH1 0x80 ADD SWAP1 JUMP JUMPDEST PUSH4 0x4E487B71 PUSH1 0xE0 SHL PUSH1 0x0 MSTORE PUSH1 0x32 PUSH1 0x4 MSTORE PUSH1 0x24 PUSH1 0x0 REVERT JUMPDEST PUSH32 0x7B226E616D65223A2022496E66696E697479204761756E746C65742023000000 DUP2 MSTORE PUSH1 0x0 DUP4 MLOAD PUSH2 0x2ED8 DUP2 PUSH1 0x1D DUP6 ADD PUSH1 0x20 DUP9 ADD PUSH2 0x274B JUMP JUMPDEST PUSH32 0x222C20226465736372697074696F6E223A20225468697320697320746865206C PUSH1 0x1D SWAP2 DUP5 ADD SWAP2 DUP3 ADD MSTORE PUSH32 0x696D697465642065646974696F6E204E4654206F66204D696E6572204170652C PUSH1 0x3D DUP3 ADD MSTORE PUSH32 0x206A6F696E746C792069737375656420627920617065206D696E657220616E64 PUSH1 0x5D DUP3 ADD MSTORE PUSH32 0x2066696C7377616E2E496E66696E697479204761756E746C6574206973207468 PUSH1 0x7D DUP3 ADD MSTORE PUSH32 0x65206669727374206163636573736F727920696E2074686520617065206D696E PUSH1 0x9D DUP3 ADD MSTORE PUSH32 0x65722065636F6C6F67792E222C2022696D616765223A20220000000000000000 PUSH1 0xBD DUP3 ADD MSTORE PUSH2 0x2FCD PUSH1 0xD5 DUP3 ADD DUP6 PUSH2 0x2CB5 JUMP JUMPDEST PUSH32 0x222C202264657369676E6572223A20226170656D696E65722E696F222C226174 DUP2 MSTORE PUSH32 0x7472696275746573223A205B7B2274726169745F74797065223A202244617465 PUSH1 0x20 DUP3 ADD MSTORE PUSH32 0x222C2276616C7565223A2022323032322D30392D3237227D2C7B227472616974 PUSH1 0x40 DUP3 ADD MSTORE PUSH32 0x5F74797065223A2022496E2D6D656D6F7279222C2276616C7565223A20224170 PUSH1 0x60 DUP3 ADD MSTORE PUSH32 0x654D696E65722059616368742050617274792032303232227D2C207B22747261 PUSH1 0x80 DUP3 ADD MSTORE PUSH32 0x69745F74797065223A2022476D73746F6E6573222C2276616C7565223A202232 PUSH1 0xA0 DUP3 ADD MSTORE PUSH32 0x227D2C207B2274726169745F74797065223A2022536B696C6C73222C2276616C PUSH1 0xC0 DUP3 ADD MSTORE PUSH32 0x7565223A2022456E68616E636564206561726E696E6773227D2C207B22747261 PUSH1 0xE0 DUP3 ADD MSTORE PUSH32 0x69745F74797065223A20225570677261646561626C65222C2276616C7565223A PUSH2 0x100 DUP3 ADD MSTORE PUSH10 0x20224E6F6E65227D5D7D PUSH1 0xB0 SHL PUSH2 0x120 DUP3 ADD MSTORE PUSH2 0x12A ADD SWAP6 SWAP5 POP POP POP POP POP JUMP JUMPDEST PUSH1 0x0 DUP4 MLOAD PUSH2 0x3154 DUP2 DUP5 PUSH1 0x20 DUP9 ADD PUSH2 0x274B JUMP JUMPDEST PUSH9 0x636F6E74726163742F PUSH1 0xB8 SHL SWAP1 DUP4 ADD SWAP1 DUP2 MSTORE DUP4 MLOAD PUSH2 0x317A DUP2 PUSH1 0x9 DUP5 ADD PUSH1 0x20 DUP9 ADD PUSH2 0x274B JUMP JUMPDEST ADD PUSH1 0x9 ADD SWAP5 SWAP4 POP POP POP POP JUMP JUMPDEST PUSH21 0x1EC89B985B59488E889D5B99195C9B1E5A5B99C88B PUSH1 0x5A SHL DUP2 MSTORE PUSH32 0x226465736372697074696F6E223A2241646472657373206F662074686520756E PUSH1 0x15 DUP3 ADD MSTORE PUSH32 0x6465726C79696E6720746F6B656E206C6F636B656420696E207468697320636F PUSH1 0x35 DUP3 ADD MSTORE PUSH9 0x1B9D1C9858DD0B888B PUSH1 0xBA SHL PUSH1 0x55 DUP3 ADD MSTORE PUSH9 0x113B30B63AB2911D11 PUSH1 0xB9 SHL PUSH1 0x5E DUP3 ADD MSTORE DUP2 MLOAD PUSH1 0x0 SWAP1 PUSH2 0x3227 DUP2 PUSH1 0x67 DUP6 ADD PUSH1 0x20 DUP8 ADD PUSH2 0x274B JUMP JUMPDEST PUSH2 0x88B PUSH1 0xF2 SHL PUSH1 0x67 SWAP4 SWAP1 SWAP2 ADD SWAP3 DUP4 ADD MSTORE POP PUSH10 0x89BDC99195C888E8C4B PUSH1 0xB2 SHL PUSH1 0x69 DUP3 ADD MSTORE PUSH32 0x22646973706C61795F74797065223A22737472696E67227D2C00000000000000 PUSH1 0x73 DUP3 ADD MSTORE PUSH1 0x8C ADD SWAP2 SWAP1 POP JUMP JUMPDEST PUSH32 0x7B226E616D65223A2276657374696E675F74797065222C000000000000000000 DUP2 MSTORE PUSH32 0x226465736372697074696F6E223A2256657374696E6720747970652074686174 PUSH1 0x17 DUP3 ADD MSTORE PUSH32 0x20726570726573656E7473207468652072656C656173696E67206D6F6465206F PUSH1 0x37 DUP3 ADD MSTORE PUSH22 0x19881D5B99195C9B1E5A5B99C8185CDCD95D1CCB888B PUSH1 0x52 SHL PUSH1 0x57 DUP3 ADD MSTORE PUSH8 0x113B30B63AB2911D PUSH1 0xC1 SHL PUSH1 0x6D DUP3 ADD MSTORE DUP2 MLOAD PUSH1 0x0 SWAP1 PUSH2 0x332E DUP2 PUSH1 0x75 DUP6 ADD PUSH1 0x20 DUP8 ADD PUSH2 0x274B JUMP JUMPDEST PUSH1 0xB PUSH1 0xFA SHL PUSH1 0x75 SWAP4 SWAP1 SWAP2 ADD SWAP3 DUP4 ADD MSTORE POP PUSH10 0x89BDC99195C888E8C8B PUSH1 0xB2 SHL PUSH1 0x76 DUP3 ADD MSTORE PUSH32 0x22646973706C61795F74797065223A226E756D626572227D2C00000000000000 PUSH1 0x80 DUP3 ADD MSTORE PUSH1 0x99 ADD SWAP2 SWAP1 POP JUMP JUMPDEST PUSH19 0x1EC89B985B59488E889B585D1D5C9A5D1E488B PUSH1 0x6A SHL DUP2 MSTORE PUSH32 0x226465736372697074696F6E223A224D61747572697479207468617420616C6C PUSH1 0x13 DUP3 ADD MSTORE PUSH32 0x20756E6465726C79696E672061737365747320776F756C6420626520636F6D70 PUSH1 0x33 DUP3 ADD MSTORE PUSH18 0x1B195D195B1E481C995B19585CD9590B888B PUSH1 0x72 SHL PUSH1 0x53 DUP3 ADD MSTORE PUSH8 0x113B30B63AB2911D PUSH1 0xC1 SHL PUSH1 0x65 DUP3 ADD MSTORE DUP2 MLOAD PUSH1 0x0 SWAP1 PUSH2 0x3426 DUP2 PUSH1 0x6D DUP6 ADD PUSH1 0x20 DUP8 ADD PUSH2 0x274B JUMP JUMPDEST PUSH1 0xB PUSH1 0xFA SHL PUSH1 0x6D SWAP4 SWAP1 SWAP2 ADD SWAP3 DUP4 ADD MSTORE POP PUSH10 0x89BDC99195C888E8CCB PUSH1 0xB2 SHL PUSH1 0x6E DUP3 ADD MSTORE PUSH32 0x22646973706C61795F74797065223A2264617465227D2C000000000000000000 PUSH1 0x78 DUP3 ADD MSTORE PUSH1 0x8F ADD SWAP2 SWAP1 POP JUMP JUMPDEST PUSH15 0x1EC89B985B59488E889D195C9B488B PUSH1 0x8A SHL DUP2 MSTORE PUSH32 0x226465736372697074696F6E223A22546865206C656E677468206F6620746865 PUSH1 0xF DUP3 ADD MSTORE PUSH32 0x206C6F636B696E6720706572696F642028696E207365636F6E647329222C0000 PUSH1 0x2F DUP3 ADD MSTORE PUSH8 0x113B30B63AB2911D PUSH1 0xC1 SHL PUSH1 0x4D DUP3 ADD MSTORE DUP2 MLOAD PUSH1 0x0 SWAP1 PUSH2 0x34FF DUP2 PUSH1 0x55 DUP6 ADD PUSH1 0x20 DUP8 ADD PUSH2 0x274B JUMP JUMPDEST PUSH1 0xB PUSH1 0xFA SHL PUSH1 0x55 SWAP4 SWAP1 SWAP2 ADD SWAP3 DUP4 ADD MSTORE POP PUSH10 0x89BDC99195C888E8D0B PUSH1 0xB2 SHL PUSH1 0x56 DUP3 ADD MSTORE PUSH32 0x22646973706C61795F74797065223A226E756D626572227D0000000000000000 PUSH1 0x60 DUP3 ADD MSTORE PUSH1 0x78 ADD SWAP2 SWAP1 POP JUMP JUMPDEST PUSH1 0x5B PUSH1 0xF8 SHL DUP2 MSTORE PUSH1 0x0 DUP6 MLOAD PUSH2 0x356C DUP2 PUSH1 0x1 DUP6 ADD PUSH1 0x20 DUP11 ADD PUSH2 0x274B JUMP JUMPDEST DUP6 MLOAD SWAP1 DUP4 ADD SWAP1 PUSH2 0x3583 DUP2 PUSH1 0x1 DUP5 ADD PUSH1 0x20 DUP11 ADD PUSH2 0x274B JUMP JUMPDEST DUP6 MLOAD SWAP2 ADD SWAP1 PUSH2 0x3599 DUP2 PUSH1 0x1 DUP5 ADD PUSH1 0x20 DUP10 ADD PUSH2 0x274B JUMP JUMPDEST DUP5 MLOAD SWAP2 ADD SWAP1 PUSH2 0x35AF DUP2 PUSH1 0x1 DUP5 ADD PUSH1 0x20 DUP9 ADD PUSH2 0x274B JUMP JUMPDEST PUSH1 0x5D PUSH1 0xF8 SHL PUSH1 0x1 SWAP3 SWAP1 SWAP2 ADD SWAP2 DUP3 ADD MSTORE PUSH1 0x2 ADD SWAP7 SWAP6 POP POP POP POP POP POP JUMP JUMPDEST PUSH4 0x4E487B71 PUSH1 0xE0 SHL PUSH1 0x0 MSTORE PUSH1 0x11 PUSH1 0x4 MSTORE PUSH1 0x24 PUSH1 0x0 REVERT JUMPDEST PUSH1 0x0 DUP3 NOT DUP3 GT ISZERO PUSH2 0x35F4 JUMPI PUSH2 0x35F4 PUSH2 0x35CB JUMP JUMPDEST POP ADD SWAP1 JUMP JUMPDEST PUSH4 0x4E487B71 PUSH1 0xE0 SHL PUSH1 0x0 MSTORE PUSH1 0x12 PUSH1 0x4 MSTORE PUSH1 0x24 PUSH1 0x0 REVERT JUMPDEST PUSH1 0x0 DUP3 PUSH2 0x361E JUMPI PUSH2 0x361E PUSH2 0x35F9 JUMP JUMPDEST POP DIV SWAP1 JUMP JUMPDEST PUSH1 0x0 DUP2 PUSH1 0x0 NOT DIV DUP4 GT DUP3 ISZERO ISZERO AND ISZERO PUSH2 0x363D JUMPI PUSH2 0x363D PUSH2 0x35CB JUMP JUMPDEST POP MUL SWAP1 JUMP JUMPDEST PUSH1 0x0 DUP3 DUP3 LT ISZERO PUSH2 0x3654 JUMPI PUSH2 0x3654 PUSH2 0x35CB JUMP JUMPDEST POP SUB SWAP1 JUMP JUMPDEST PUSH1 0x20 DUP1 DUP3 MSTORE PUSH1 0x32 SWAP1 DUP3 ADD MSTORE PUSH32 0x4552433732313A207472616E7366657220746F206E6F6E204552433732315265 PUSH1 0x40 DUP3 ADD MSTORE PUSH18 0x31B2B4BB32B91034B6B83632B6B2B73A32B9 PUSH1 0x71 SHL PUSH1 0x60 DUP3 ADD MSTORE PUSH1 0x80 ADD SWAP1 JUMP JUMPDEST PUSH1 0x0 PUSH1 0x1 DUP3 ADD PUSH2 0x36BD JUMPI PUSH2 0x36BD PUSH2 0x35CB JUMP JUMPDEST POP PUSH1 0x1 ADD SWAP1 JUMP JUMPDEST PUSH1 0x0 DUP3 PUSH2 0x36D3 JUMPI PUSH2 0x36D3 PUSH2 0x35F9 JUMP JUMPDEST POP MOD SWAP1 JUMP JUMPDEST PUSH1 0x1 PUSH1 0x1 PUSH1 0xA0 SHL SUB DUP6 DUP2 AND DUP3 MSTORE DUP5 AND PUSH1 0x20 DUP3 ADD MSTORE PUSH1 0x40 DUP2 ADD DUP4 SWAP1 MSTORE PUSH1 0x80 PUSH1 0x60 DUP3 ADD DUP2 SWAP1 MSTORE PUSH1 0x0 SWAP1 PUSH2 0x370B SWAP1 DUP4 ADD DUP5 PUSH2 0x2777 JUMP JUMPDEST SWAP7 SWAP6 POP POP POP POP POP POP JUMP JUMPDEST PUSH1 0x0 PUSH1 0x20 DUP3 DUP5 SUB SLT ISZERO PUSH2 0x3727 JUMPI PUSH1 0x0 DUP1 REVERT JUMPDEST DUP2 MLOAD PUSH2 0x22D7 DUP2 PUSH2 0x2718 JUMP JUMPDEST PUSH1 0x0 DUP2 PUSH2 0x3741 JUMPI PUSH2 0x3741 PUSH2 0x35CB JUMP JUMPDEST POP PUSH1 0x0 NOT ADD SWAP1 JUMP JUMPDEST PUSH4 0x4E487B71 PUSH1 0xE0 SHL PUSH1 0x0 MSTORE PUSH1 0x31 PUSH1 0x4 MSTORE PUSH1 0x24 PUSH1 0x0 REVERT INVALID COINBASE TIMESTAMP NUMBER DIFFICULTY GASLIMIT CHAINID SELFBALANCE BASEFEE 0x49 0x4A 0x4B 0x4C 0x4D 0x4E 0x4F POP MLOAD MSTORE MSTORE8 SLOAD SSTORE JUMP JUMPI PC MSIZE GAS PUSH2 0x6263 PUSH5 0x6566676869 PUSH11 0x6B6C6D6E6F707172737475 PUSH23 0x7778797A303132333435363738392B2FA2646970667358 0x22 SLT KECCAK256 0xDA 0xC0 0xC6 0xD8 MOD 0xC3 PUSH15 0x6E84255B0886CD32B97E8AED9C3119 DUP3 PUSH21 0x8F358EDA4B5A4FA64736F6C634300080D00330000 ",
  "sha1": "59a49ba37f81feee471528fd5b911eff4c415881",
  "source": "//SPDX-License-Identifier: MIT\npragma solidity ^0.8.0;\n\nimport \"./ERC3525.sol\";\nimport \"@openzeppelin/contracts/utils/Strings.sol\";\nimport \"@openzeppelin/contracts/utils/Base64.sol\";\n\n/**\n * This is a demo contract for how to generate slot\n */\ncontract ERC3525Example is ERC3525 {\n    using Strings for uint256;\n\n    /**\n     * @notice Properties of the slot, which determine the value of slot.\n     */\n    struct SlotDetail {\n        string name;\n        string description;\n        string image;\n        address underlying;\n        uint8 vestingType;\n        uint32 maturity;\n        uint32 term;\n    }\n\n    // slot => slotDetail\n    mapping(uint256 => SlotDetail) private _slotDetails;\n\n    uint256 constant _externalMintMaxId = 1000000000;\n    string private _baseTokenURI;\n\n    constructor(\n        string memory name_,\n        string memory symbol_,\n        uint8 decimals_,\n        string memory baseURI_\n    ) ERC3525(name_, symbol_, decimals_) {\n        _baseTokenURI = baseURI_;\n    }\n\n    function mint(\n        string memory slotName_,\n        string memory slotDescription_,\n        string memory slotImage_,\n        uint256 tokenId_,\n        address underlying_,\n        uint8 vestingType_,\n        uint32 maturity_,\n        uint32 term_,\n        uint256 value_\n    ) public {\n        require(tokenId_ < _externalMintMaxId, \"ERC3525: tokenId is too large\");\n        uint256 slot = makeSlotId(underlying_, vestingType_, maturity_, term_);\n        _slotDetails[slot] = SlotDetail({\n            name: slotName_,\n            description: slotDescription_,\n            image: slotImage_,\n            underlying: underlying_,\n            vestingType: vestingType_,\n            maturity: maturity_,\n            term: term_\n        });\n\n        ERC3525._mintValue(_msgSender(), tokenId_, slot, value_);\n    }\n\n    function _baseURI() internal view virtual override returns (string memory) {\n        return _baseTokenURI;\n    }\n\n    function getSlotDetail(uint256 slot_)\n        public\n        view\n        returns (SlotDetail memory)\n    {\n        return _slotDetails[slot_];\n    }\n\n    // function _getNewTokenId(uint256 fromTokenId_)\n    //     internal\n    //     virtual\n    //     override\n    //     returns (uint256)\n    // {\n    //     return 1000000000 + fromTokenId_;\n    // }\n\n    /**\n     * @dev Generate the value of slot by utilizing keccak256 algorithm to calculate the hash\n     * value of multi properties.\n     */\n    function makeSlotId(\n        address underlying_,\n        uint8 vestingType_,\n        uint32 maturity_,\n        uint32 term_\n    ) public pure virtual returns (uint256 slot_) {\n        return\n            uint256(\n                keccak256(\n                    abi.encodePacked(\n                        underlying_,\n                        vestingType_,\n                        maturity_,\n                        term_\n                    )\n                )\n            );\n    }\n\n    function slotURI(uint256 slot_)\n        public\n        view\n        virtual\n        override\n        returns (string memory)\n    {\n        return\n            string(\n                abi.encodePacked(\n                    /* solhint-disable */\n                    \"data:application/json;base64,\",\n                    Base64.encode(\n                        abi.encodePacked(\n                            '{\"name\":\"',\n                            _slotDetails[slot_].name,\n                            '\",\"description\":\"',\n                            _slotDetails[slot_].description,\n                            '\",\"image\":\"',\n                            _slotDetails[slot_].image,\n                            '\",\"properties\":',\n                            _slotProperties(slot_),\n                            \"}\"\n                        )\n                    )\n                    /* solhint-enable */\n                )\n            );\n    }\n\n    /**\n     * @dev Generate the content of the `properties` field of `slotURI`.\n     */\n    function _slotProperties(uint256 slot_)\n        internal\n        view\n        returns (string memory)\n    {\n        SlotDetail storage slotDetail = _slotDetails[slot_];\n        return\n            string(\n                /* solhint-disable */\n                abi.encodePacked(\n                    \"[\",\n                    abi.encodePacked(\n                        '{\"name\":\"underlying\",',\n                        '\"description\":\"Address of the underlying token locked in this contract.\",',\n                        '\"value\":\"',\n                        Strings.toHexString(\n                            uint256(uint160(slotDetail.underlying))\n                        ),\n                        '\",',\n                        '\"order\":1,',\n                        '\"display_type\":\"string\"},'\n                    ),\n                    abi.encodePacked(\n                        '{\"name\":\"vesting_type\",',\n                        '\"description\":\"Vesting type that represents the releasing mode of underlying assets.\",',\n                        '\"value\":',\n                        uint256(slotDetail.vestingType).toString(),\n                        \",\",\n                        '\"order\":2,',\n                        '\"display_type\":\"number\"},'\n                    ),\n                    abi.encodePacked(\n                        '{\"name\":\"maturity\",',\n                        '\"description\":\"Maturity that all underlying assets would be completely released.\",',\n                        '\"value\":',\n                        uint256(slotDetail.maturity).toString(),\n                        \",\",\n                        '\"order\":3,',\n                        '\"display_type\":\"date\"},'\n                    ),\n                    abi.encodePacked(\n                        '{\"name\":\"term\",',\n                        '\"description\":\"The length of the locking period (in seconds)\",',\n                        '\"value\":',\n                        uint256(slotDetail.term).toString(),\n                        \",\",\n                        '\"order\":4,',\n                        '\"display_type\":\"number\"}'\n                    ),\n                    \"]\"\n                )\n                /* solhint-enable */\n            );\n    }\n\n    function tokenURI(uint256 tokenId)\n        public\n        view\n        virtual\n        override(ERC721, IERC721Metadata)\n        returns (string memory)\n    {\n        require(_exists(tokenId), \"nonexistent token\");\n        bytes memory meta = abi.encodePacked(\n            '{\"name\": \"Infinity Gauntlet #',\n            tokenId.toString(),\n            '\", \"description\": \"This is the limited edition NFT of Miner Ape, jointly issued by ape miner and filswan.Infinity Gauntlet is the first accessory in the ape miner ecology.\", \"image\": \"',\n            _baseTokenURI,\n            '\", \"designer\": \"apeminer.io\",\"attributes\": [{\"trait_type\": \"Date\",\"value\": \"2022-09-27\"},{\"trait_type\": \"In-memory\",\"value\": \"ApeMiner Yacht Party 2022\"}, {\"trait_type\": \"Gmstones\",\"value\": \"2\"}, {\"trait_type\": \"Skills\",\"value\": \"Enhanced earnings\"}, {\"trait_type\": \"Upgradeable\",\"value\": \"None\"}]}'\n        );\n\n        return\n            string(\n                abi.encodePacked(\n                    \"data:application/json;base64,\",\n                    Base64.encode(meta)\n                )\n            );\n    }\n}\n",
  "sourcePath": "contracts/ERC3525/ERC3525Example.sol",
  "type": "contract"
}