{
  "abi": [
    {
      "anonymous": false,
      "inputs": [
        {
          "indexed": true,
          "internalType": "address",
          "name": "deployAddress",
          "type": "address"
        },
        {
          "indexed": true,
          "internalType": "address",
          "name": "ownerAddress",
          "type": "address"
        }
      ],
      "name": "ContractDeployed",
      "type": "event"
    },
    {
      "anonymous": false,
      "inputs": [
        {
          "indexed": false,
          "internalType": "string",
          "name": "ID",
          "type": "string"
        },
        {
          "indexed": true,
          "internalType": "address",
          "name": "deployAddress",
          "type": "address"
        },
        {
          "indexed": true,
          "internalType": "address",
          "name": "owner",
          "type": "address"
        }
      ],
      "name": "ContractRegistered",
      "type": "event"
    },
    {
      "inputs": [
        {
          "internalType": "string",
          "name": "_id",
          "type": "string"
        }
      ],
      "name": "deployContract",
      "outputs": [
        {
          "internalType": "address",
          "name": "",
          "type": "address"
        }
      ],
      "stateMutability": "nonpayable",
      "type": "function"
    },
    {
      "inputs": [
        {
          "internalType": "address",
          "name": "_owner",
          "type": "address"
        }
      ],
      "name": "getContractsDeployed",
      "outputs": [
        {
          "internalType": "address[]",
          "name": "",
          "type": "address[]"
        }
      ],
      "stateMutability": "view",
      "type": "function"
    },
    {
      "inputs": [],
      "name": "getContractsDeployed",
      "outputs": [
        {
          "internalType": "address[]",
          "name": "",
          "type": "address[]"
        }
      ],
      "stateMutability": "view",
      "type": "function"
    },
    {
      "inputs": [
        {
          "internalType": "string",
          "name": "_id",
          "type": "string"
        }
      ],
      "name": "getContractsDeployed",
      "outputs": [
        {
          "internalType": "address[]",
          "name": "",
          "type": "address[]"
        }
      ],
      "stateMutability": "view",
      "type": "function"
    },
    {
      "inputs": [
        {
          "internalType": "string",
          "name": "_id",
          "type": "string"
        }
      ],
      "name": "getLastDeployed",
      "outputs": [
        {
          "internalType": "address",
          "name": "",
          "type": "address"
        }
      ],
      "stateMutability": "view",
      "type": "function"
    },
    {
      "inputs": [],
      "name": "getLastDeployed",
      "outputs": [
        {
          "internalType": "address",
          "name": "",
          "type": "address"
        }
      ],
      "stateMutability": "view",
      "type": "function"
    },
    {
      "inputs": [
        {
          "internalType": "address",
          "name": "_owner",
          "type": "address"
        }
      ],
      "name": "getLastDeployed",
      "outputs": [
        {
          "internalType": "address",
          "name": "",
          "type": "address"
        }
      ],
      "stateMutability": "view",
      "type": "function"
    },
    {
      "inputs": [
        {
          "internalType": "string",
          "name": "_id",
          "type": "string"
        },
        {
          "internalType": "address",
          "name": "master",
          "type": "address"
        }
      ],
      "name": "register",
      "outputs": [],
      "stateMutability": "nonpayable",
      "type": "function"
    }
  ],
  "bytecode": "608060405234801561001057600080fd5b50610ac0806100206000396000f3fe608060405234801561001057600080fd5b50600436106100875760003560e01c80639f8f0b9d1161005b5780639f8f0b9d146100f9578063a77b6e0314610101578063c32723ed14610114578063c3bb1a571461012757600080fd5b806292f8701461008c5780631e41f17a146100bc5780631e59c529146100c457806323a1d464146100d9575b600080fd5b61009f61009a3660046108ef565b61013a565b6040516001600160a01b0390911681526020015b60405180910390f35b61009f6101a1565b6100d76100d236600461094d565b6101eb565b005b6100ec6100e73660046109a1565b610414565b6040516100b391906109c3565b6100ec610488565b61009f61010f3660046109a1565b6104f1565b61009f6101223660046108ef565b610545565b6100ec6101353660046108ef565b610739565b6000806001848460405161014f929190610a10565b9081526020016040518091039020600201905080600182805490506101749190610a20565b8154811061018457610184610a45565b6000918252602090912001546001600160a01b0316949350505050565b336000908152602081905260408120805481906101c090600190610a20565b815481106101d0576101d0610a45565b6000918252602090912001546001600160a01b031692915050565b60006001600160a01b031660018484604051610208929190610a10565b908152604051908190036020019020600101546001600160a01b031614806102655750336001600160a01b031660018484604051610247929190610a10565b908152604051908190036020019020600101546001600160a01b0316145b6102a05760405162461bcd60e51b8152602060048201526007602482015266125108155cd95960ca1b60448201526064015b60405180910390fd5b6001600160a01b03811661030057600183836040516102c0929190610a10565b90815260405190819003602001902080546001600160a01b03199081168255600182018054909116905560006102f9600283018261080b565b50506103c2565b604080516060810182526001600160a01b0383168152336020820152908101600060405190808252806020026020018201604052801561034a578160200160208202803683370190505b5081525060018484604051610360929190610a10565b90815260408051918290036020908101909220835181546001600160a01b039182166001600160a01b03199182161783558585015160018401805491909316911617905590830151805191926103be9260028501929091019061082c565b5050505b336001600160a01b0316816001600160a01b03167f43f93ae33b60d644b7e1a7d3938679bdc5cc6f83a8e32491daa3f66493d8442b8585604051610407929190610a5b565b60405180910390a3505050565b6001600160a01b0381166000908152602081815260409182902080548351818402810184019094528084526060939283018282801561047c57602002820191906000526020600020905b81546001600160a01b0316815260019091019060200180831161045e575b50505050509050919050565b33600090815260208181526040918290208054835181840281018401909452808452606093928301828280156104e757602002820191906000526020600020905b81546001600160a01b031681526001909101906020018083116104c9575b5050505050905090565b6001600160a01b03811660009081526020819052604081208054819061051990600190610a20565b8154811061052957610529610a45565b6000918252602090912001546001600160a01b03169392505050565b6000806001848460405161055a929190610a10565b908152604051908190036020019020546001600160a01b03169050806105c25760405162461bcd60e51b815260206004820152601a60248201527f4e6f20636f6e74726163742074656d706c61746520666f756e640000000000006044820152606401610297565b60006105cd826107b9565b9050806001600160a01b031663e1c7392a6040518163ffffffff1660e01b8152600401600060405180830381600087803b15801561060a57600080fd5b505af115801561061e573d6000803e3d6000fd5b505060405163f2fde38b60e01b81523360048201526001600160a01b038416925063f2fde38b9150602401600060405180830381600087803b15801561066357600080fd5b505af1158015610677573d6000803e3d6000fd5b5050336000908152602081815260408083208054600180820183559185529290932090910180546001600160a01b0319166001600160a01b038716179055519092506106c7915087908790610a10565b908152604051602091819003820181206002018054600181018255600091825292812090920180546001600160a01b0319166001600160a01b038516908117909155339290917f33c981baba081f8fd2c52ac6ad1ea95b6814b4376640f55689051f65847296889190a3949350505050565b60606001838360405161074d929190610a10565b90815260408051918290036020908101832060020180548083028501830190935282845291908301828280156107ac57602002820191906000526020600020905b81546001600160a01b0316815260019091019060200180831161078e575b5050505050905092915050565b6000808260601b9050604051733d602d80600a3d3981f3363d3d373d3d3d363d7360601b81528160148201526e5af43d82803e903d91602b57fd5bf360881b60288201526037816000f0949350505050565b50805460008255906000526020600020908101906108299190610891565b50565b828054828255906000526020600020908101928215610881579160200282015b8281111561088157825182546001600160a01b0319166001600160a01b0390911617825560209092019160019091019061084c565b5061088d929150610891565b5090565b5b8082111561088d5760008155600101610892565b60008083601f8401126108b857600080fd5b50813567ffffffffffffffff8111156108d057600080fd5b6020830191508360208285010111156108e857600080fd5b9250929050565b6000806020838503121561090257600080fd5b823567ffffffffffffffff81111561091957600080fd5b610925858286016108a6565b90969095509350505050565b80356001600160a01b038116811461094857600080fd5b919050565b60008060006040848603121561096257600080fd5b833567ffffffffffffffff81111561097957600080fd5b610985868287016108a6565b9094509250610998905060208501610931565b90509250925092565b6000602082840312156109b357600080fd5b6109bc82610931565b9392505050565b6020808252825182820181905260009190848201906040850190845b81811015610a045783516001600160a01b0316835292840192918401916001016109df565b50909695505050505050565b8183823760009101908152919050565b600082821015610a4057634e487b7160e01b600052601160045260246000fd5b500390565b634e487b7160e01b600052603260045260246000fd5b60208152816020820152818360408301376000818301604090810191909152601f909201601f1916010191905056fea2646970667358221220d4a699121a24e04fdcf97c62e6f40b315e898ae1be9eae8e2dc3eae7a42a6e8564736f6c634300080d0033",
  "bytecodeSha1": "7c20585869fd385e905c0cf7239ec7cd84c53183",
  "compiler": {
    "evm_version": "istanbul",
    "optimizer": {
      "enabled": true,
      "runs": 200
    },
    "version": "0.8.13+commit.abaa5c0e"
  },
  "contractName": "Factory",
  "language": "Solidity",
  "natspec": {
    "kind": "dev",
    "methods": {},
    "version": 1
  },
  "opcodes": "PUSH1 0x80 PUSH1 0x40 MSTORE CALLVALUE DUP1 ISZERO PUSH2 0x10 JUMPI PUSH1 0x0 DUP1 REVERT JUMPDEST POP PUSH1 0x4 CALLDATASIZE LT PUSH2 0x87 JUMPI PUSH1 0x0 CALLDATALOAD PUSH1 0xE0 SHR DUP1 PUSH4 0x9F8F0B9D GT PUSH2 0x5B JUMPI DUP1 PUSH4 0x9F8F0B9D EQ PUSH2 0xF9 JUMPI DUP1 PUSH4 0xA77B6E03 EQ PUSH2 0x101 JUMPI DUP1 PUSH4 0xC32723ED EQ PUSH2 0x114 JUMPI DUP1 PUSH4 0xC3BB1A57 EQ PUSH2 0x127 JUMPI PUSH1 0x0 DUP1 REVERT JUMPDEST DUP1 PUSH3 0x92F870 EQ PUSH2 0x8C JUMPI DUP1 PUSH4 0x1E41F17A EQ PUSH2 0xBC JUMPI DUP1 PUSH4 0x1E59C529 EQ PUSH2 0xC4 JUMPI DUP1 PUSH4 0x23A1D464 EQ PUSH2 0xD9 JUMPI JUMPDEST PUSH1 0x0 DUP1 REVERT JUMPDEST PUSH2 0x9F PUSH2 0x9A CALLDATASIZE PUSH1 0x4 PUSH2 0x8EF JUMP JUMPDEST PUSH2 0x13A JUMP JUMPDEST PUSH1 0x40 MLOAD PUSH1 0x1 PUSH1 0x1 PUSH1 0xA0 SHL SUB SWAP1 SWAP2 AND DUP2 MSTORE PUSH1 0x20 ADD JUMPDEST PUSH1 0x40 MLOAD DUP1 SWAP2 SUB SWAP1 RETURN JUMPDEST PUSH2 0x9F PUSH2 0x1A1 JUMP JUMPDEST PUSH2 0xD7 PUSH2 0xD2 CALLDATASIZE PUSH1 0x4 PUSH2 0x94D JUMP JUMPDEST PUSH2 0x1EB JUMP JUMPDEST STOP JUMPDEST PUSH2 0xEC PUSH2 0xE7 CALLDATASIZE PUSH1 0x4 PUSH2 0x9A1 JUMP JUMPDEST PUSH2 0x414 JUMP JUMPDEST PUSH1 0x40 MLOAD PUSH2 0xB3 SWAP2 SWAP1 PUSH2 0x9C3 JUMP JUMPDEST PUSH2 0xEC PUSH2 0x488 JUMP JUMPDEST PUSH2 0x9F PUSH2 0x10F CALLDATASIZE PUSH1 0x4 PUSH2 0x9A1 JUMP JUMPDEST PUSH2 0x4F1 JUMP JUMPDEST PUSH2 0x9F PUSH2 0x122 CALLDATASIZE PUSH1 0x4 PUSH2 0x8EF JUMP JUMPDEST PUSH2 0x545 JUMP JUMPDEST PUSH2 0xEC PUSH2 0x135 CALLDATASIZE PUSH1 0x4 PUSH2 0x8EF JUMP JUMPDEST PUSH2 0x739 JUMP JUMPDEST PUSH1 0x0 DUP1 PUSH1 0x1 DUP5 DUP5 PUSH1 0x40 MLOAD PUSH2 0x14F SWAP3 SWAP2 SWAP1 PUSH2 0xA10 JUMP JUMPDEST SWAP1 DUP2 MSTORE PUSH1 0x20 ADD PUSH1 0x40 MLOAD DUP1 SWAP2 SUB SWAP1 KECCAK256 PUSH1 0x2 ADD SWAP1 POP DUP1 PUSH1 0x1 DUP3 DUP1 SLOAD SWAP1 POP PUSH2 0x174 SWAP2 SWAP1 PUSH2 0xA20 JUMP JUMPDEST DUP2 SLOAD DUP2 LT PUSH2 0x184 JUMPI PUSH2 0x184 PUSH2 0xA45 JUMP JUMPDEST PUSH1 0x0 SWAP2 DUP3 MSTORE PUSH1 0x20 SWAP1 SWAP2 KECCAK256 ADD SLOAD PUSH1 0x1 PUSH1 0x1 PUSH1 0xA0 SHL SUB AND SWAP5 SWAP4 POP POP POP POP JUMP JUMPDEST CALLER PUSH1 0x0 SWAP1 DUP2 MSTORE PUSH1 0x20 DUP2 SWAP1 MSTORE PUSH1 0x40 DUP2 KECCAK256 DUP1 SLOAD DUP2 SWAP1 PUSH2 0x1C0 SWAP1 PUSH1 0x1 SWAP1 PUSH2 0xA20 JUMP JUMPDEST DUP2 SLOAD DUP2 LT PUSH2 0x1D0 JUMPI PUSH2 0x1D0 PUSH2 0xA45 JUMP JUMPDEST PUSH1 0x0 SWAP2 DUP3 MSTORE PUSH1 0x20 SWAP1 SWAP2 KECCAK256 ADD SLOAD PUSH1 0x1 PUSH1 0x1 PUSH1 0xA0 SHL SUB AND SWAP3 SWAP2 POP POP JUMP JUMPDEST PUSH1 0x0 PUSH1 0x1 PUSH1 0x1 PUSH1 0xA0 SHL SUB AND PUSH1 0x1 DUP5 DUP5 PUSH1 0x40 MLOAD PUSH2 0x208 SWAP3 SWAP2 SWAP1 PUSH2 0xA10 JUMP JUMPDEST SWAP1 DUP2 MSTORE PUSH1 0x40 MLOAD SWAP1 DUP2 SWAP1 SUB PUSH1 0x20 ADD SWAP1 KECCAK256 PUSH1 0x1 ADD SLOAD PUSH1 0x1 PUSH1 0x1 PUSH1 0xA0 SHL SUB AND EQ DUP1 PUSH2 0x265 JUMPI POP CALLER PUSH1 0x1 PUSH1 0x1 PUSH1 0xA0 SHL SUB AND PUSH1 0x1 DUP5 DUP5 PUSH1 0x40 MLOAD PUSH2 0x247 SWAP3 SWAP2 SWAP1 PUSH2 0xA10 JUMP JUMPDEST SWAP1 DUP2 MSTORE PUSH1 0x40 MLOAD SWAP1 DUP2 SWAP1 SUB PUSH1 0x20 ADD SWAP1 KECCAK256 PUSH1 0x1 ADD SLOAD PUSH1 0x1 PUSH1 0x1 PUSH1 0xA0 SHL SUB AND EQ JUMPDEST PUSH2 0x2A0 JUMPI PUSH1 0x40 MLOAD PUSH3 0x461BCD PUSH1 0xE5 SHL DUP2 MSTORE PUSH1 0x20 PUSH1 0x4 DUP3 ADD MSTORE PUSH1 0x7 PUSH1 0x24 DUP3 ADD MSTORE PUSH7 0x125108155CD959 PUSH1 0xCA SHL PUSH1 0x44 DUP3 ADD MSTORE PUSH1 0x64 ADD JUMPDEST PUSH1 0x40 MLOAD DUP1 SWAP2 SUB SWAP1 REVERT JUMPDEST PUSH1 0x1 PUSH1 0x1 PUSH1 0xA0 SHL SUB DUP2 AND PUSH2 0x300 JUMPI PUSH1 0x1 DUP4 DUP4 PUSH1 0x40 MLOAD PUSH2 0x2C0 SWAP3 SWAP2 SWAP1 PUSH2 0xA10 JUMP JUMPDEST SWAP1 DUP2 MSTORE PUSH1 0x40 MLOAD SWAP1 DUP2 SWAP1 SUB PUSH1 0x20 ADD SWAP1 KECCAK256 DUP1 SLOAD PUSH1 0x1 PUSH1 0x1 PUSH1 0xA0 SHL SUB NOT SWAP1 DUP2 AND DUP3 SSTORE PUSH1 0x1 DUP3 ADD DUP1 SLOAD SWAP1 SWAP2 AND SWAP1 SSTORE PUSH1 0x0 PUSH2 0x2F9 PUSH1 0x2 DUP4 ADD DUP3 PUSH2 0x80B JUMP JUMPDEST POP POP PUSH2 0x3C2 JUMP JUMPDEST PUSH1 0x40 DUP1 MLOAD PUSH1 0x60 DUP2 ADD DUP3 MSTORE PUSH1 0x1 PUSH1 0x1 PUSH1 0xA0 SHL SUB DUP4 AND DUP2 MSTORE CALLER PUSH1 0x20 DUP3 ADD MSTORE SWAP1 DUP2 ADD PUSH1 0x0 PUSH1 0x40 MLOAD SWAP1 DUP1 DUP3 MSTORE DUP1 PUSH1 0x20 MUL PUSH1 0x20 ADD DUP3 ADD PUSH1 0x40 MSTORE DUP1 ISZERO PUSH2 0x34A JUMPI DUP2 PUSH1 0x20 ADD PUSH1 0x20 DUP3 MUL DUP1 CALLDATASIZE DUP4 CALLDATACOPY ADD SWAP1 POP JUMPDEST POP DUP2 MSTORE POP PUSH1 0x1 DUP5 DUP5 PUSH1 0x40 MLOAD PUSH2 0x360 SWAP3 SWAP2 SWAP1 PUSH2 0xA10 JUMP JUMPDEST SWAP1 DUP2 MSTORE PUSH1 0x40 DUP1 MLOAD SWAP2 DUP3 SWAP1 SUB PUSH1 0x20 SWAP1 DUP2 ADD SWAP1 SWAP3 KECCAK256 DUP4 MLOAD DUP2 SLOAD PUSH1 0x1 PUSH1 0x1 PUSH1 0xA0 SHL SUB SWAP2 DUP3 AND PUSH1 0x1 PUSH1 0x1 PUSH1 0xA0 SHL SUB NOT SWAP2 DUP3 AND OR DUP4 SSTORE DUP6 DUP6 ADD MLOAD PUSH1 0x1 DUP5 ADD DUP1 SLOAD SWAP2 SWAP1 SWAP4 AND SWAP2 AND OR SWAP1 SSTORE SWAP1 DUP4 ADD MLOAD DUP1 MLOAD SWAP2 SWAP3 PUSH2 0x3BE SWAP3 PUSH1 0x2 DUP6 ADD SWAP3 SWAP1 SWAP2 ADD SWAP1 PUSH2 0x82C JUMP JUMPDEST POP POP POP JUMPDEST CALLER PUSH1 0x1 PUSH1 0x1 PUSH1 0xA0 SHL SUB AND DUP2 PUSH1 0x1 PUSH1 0x1 PUSH1 0xA0 SHL SUB AND PUSH32 0x43F93AE33B60D644B7E1A7D3938679BDC5CC6F83A8E32491DAA3F66493D8442B DUP6 DUP6 PUSH1 0x40 MLOAD PUSH2 0x407 SWAP3 SWAP2 SWAP1 PUSH2 0xA5B JUMP JUMPDEST PUSH1 0x40 MLOAD DUP1 SWAP2 SUB SWAP1 LOG3 POP POP POP JUMP JUMPDEST PUSH1 0x1 PUSH1 0x1 PUSH1 0xA0 SHL SUB DUP2 AND PUSH1 0x0 SWAP1 DUP2 MSTORE PUSH1 0x20 DUP2 DUP2 MSTORE PUSH1 0x40 SWAP2 DUP3 SWAP1 KECCAK256 DUP1 SLOAD DUP4 MLOAD DUP2 DUP5 MUL DUP2 ADD DUP5 ADD SWAP1 SWAP5 MSTORE DUP1 DUP5 MSTORE PUSH1 0x60 SWAP4 SWAP3 DUP4 ADD DUP3 DUP3 DUP1 ISZERO PUSH2 0x47C JUMPI PUSH1 0x20 MUL DUP3 ADD SWAP2 SWAP1 PUSH1 0x0 MSTORE PUSH1 0x20 PUSH1 0x0 KECCAK256 SWAP1 JUMPDEST DUP2 SLOAD PUSH1 0x1 PUSH1 0x1 PUSH1 0xA0 SHL SUB AND DUP2 MSTORE PUSH1 0x1 SWAP1 SWAP2 ADD SWAP1 PUSH1 0x20 ADD DUP1 DUP4 GT PUSH2 0x45E JUMPI JUMPDEST POP POP POP POP POP SWAP1 POP SWAP2 SWAP1 POP JUMP JUMPDEST CALLER PUSH1 0x0 SWAP1 DUP2 MSTORE PUSH1 0x20 DUP2 DUP2 MSTORE PUSH1 0x40 SWAP2 DUP3 SWAP1 KECCAK256 DUP1 SLOAD DUP4 MLOAD DUP2 DUP5 MUL DUP2 ADD DUP5 ADD SWAP1 SWAP5 MSTORE DUP1 DUP5 MSTORE PUSH1 0x60 SWAP4 SWAP3 DUP4 ADD DUP3 DUP3 DUP1 ISZERO PUSH2 0x4E7 JUMPI PUSH1 0x20 MUL DUP3 ADD SWAP2 SWAP1 PUSH1 0x0 MSTORE PUSH1 0x20 PUSH1 0x0 KECCAK256 SWAP1 JUMPDEST DUP2 SLOAD PUSH1 0x1 PUSH1 0x1 PUSH1 0xA0 SHL SUB AND DUP2 MSTORE PUSH1 0x1 SWAP1 SWAP2 ADD SWAP1 PUSH1 0x20 ADD DUP1 DUP4 GT PUSH2 0x4C9 JUMPI JUMPDEST POP POP POP POP POP SWAP1 POP SWAP1 JUMP JUMPDEST PUSH1 0x1 PUSH1 0x1 PUSH1 0xA0 SHL SUB DUP2 AND PUSH1 0x0 SWAP1 DUP2 MSTORE PUSH1 0x20 DUP2 SWAP1 MSTORE PUSH1 0x40 DUP2 KECCAK256 DUP1 SLOAD DUP2 SWAP1 PUSH2 0x519 SWAP1 PUSH1 0x1 SWAP1 PUSH2 0xA20 JUMP JUMPDEST DUP2 SLOAD DUP2 LT PUSH2 0x529 JUMPI PUSH2 0x529 PUSH2 0xA45 JUMP JUMPDEST PUSH1 0x0 SWAP2 DUP3 MSTORE PUSH1 0x20 SWAP1 SWAP2 KECCAK256 ADD SLOAD PUSH1 0x1 PUSH1 0x1 PUSH1 0xA0 SHL SUB AND SWAP4 SWAP3 POP POP POP JUMP JUMPDEST PUSH1 0x0 DUP1 PUSH1 0x1 DUP5 DUP5 PUSH1 0x40 MLOAD PUSH2 0x55A SWAP3 SWAP2 SWAP1 PUSH2 0xA10 JUMP JUMPDEST SWAP1 DUP2 MSTORE PUSH1 0x40 MLOAD SWAP1 DUP2 SWAP1 SUB PUSH1 0x20 ADD SWAP1 KECCAK256 SLOAD PUSH1 0x1 PUSH1 0x1 PUSH1 0xA0 SHL SUB AND SWAP1 POP DUP1 PUSH2 0x5C2 JUMPI PUSH1 0x40 MLOAD PUSH3 0x461BCD PUSH1 0xE5 SHL DUP2 MSTORE PUSH1 0x20 PUSH1 0x4 DUP3 ADD MSTORE PUSH1 0x1A PUSH1 0x24 DUP3 ADD MSTORE PUSH32 0x4E6F20636F6E74726163742074656D706C61746520666F756E64000000000000 PUSH1 0x44 DUP3 ADD MSTORE PUSH1 0x64 ADD PUSH2 0x297 JUMP JUMPDEST PUSH1 0x0 PUSH2 0x5CD DUP3 PUSH2 0x7B9 JUMP JUMPDEST SWAP1 POP DUP1 PUSH1 0x1 PUSH1 0x1 PUSH1 0xA0 SHL SUB AND PUSH4 0xE1C7392A PUSH1 0x40 MLOAD DUP2 PUSH4 0xFFFFFFFF AND PUSH1 0xE0 SHL DUP2 MSTORE PUSH1 0x4 ADD PUSH1 0x0 PUSH1 0x40 MLOAD DUP1 DUP4 SUB DUP2 PUSH1 0x0 DUP8 DUP1 EXTCODESIZE ISZERO DUP1 ISZERO PUSH2 0x60A JUMPI PUSH1 0x0 DUP1 REVERT JUMPDEST POP GAS CALL ISZERO DUP1 ISZERO PUSH2 0x61E JUMPI RETURNDATASIZE PUSH1 0x0 DUP1 RETURNDATACOPY RETURNDATASIZE PUSH1 0x0 REVERT JUMPDEST POP POP PUSH1 0x40 MLOAD PUSH4 0xF2FDE38B PUSH1 0xE0 SHL DUP2 MSTORE CALLER PUSH1 0x4 DUP3 ADD MSTORE PUSH1 0x1 PUSH1 0x1 PUSH1 0xA0 SHL SUB DUP5 AND SWAP3 POP PUSH4 0xF2FDE38B SWAP2 POP PUSH1 0x24 ADD PUSH1 0x0 PUSH1 0x40 MLOAD DUP1 DUP4 SUB DUP2 PUSH1 0x0 DUP8 DUP1 EXTCODESIZE ISZERO DUP1 ISZERO PUSH2 0x663 JUMPI PUSH1 0x0 DUP1 REVERT JUMPDEST POP GAS CALL ISZERO DUP1 ISZERO PUSH2 0x677 JUMPI RETURNDATASIZE PUSH1 0x0 DUP1 RETURNDATACOPY RETURNDATASIZE PUSH1 0x0 REVERT JUMPDEST POP POP CALLER PUSH1 0x0 SWAP1 DUP2 MSTORE PUSH1 0x20 DUP2 DUP2 MSTORE PUSH1 0x40 DUP1 DUP4 KECCAK256 DUP1 SLOAD PUSH1 0x1 DUP1 DUP3 ADD DUP4 SSTORE SWAP2 DUP6 MSTORE SWAP3 SWAP1 SWAP4 KECCAK256 SWAP1 SWAP2 ADD DUP1 SLOAD PUSH1 0x1 PUSH1 0x1 PUSH1 0xA0 SHL SUB NOT AND PUSH1 0x1 PUSH1 0x1 PUSH1 0xA0 SHL SUB DUP8 AND OR SWAP1 SSTORE MLOAD SWAP1 SWAP3 POP PUSH2 0x6C7 SWAP2 POP DUP8 SWAP1 DUP8 SWAP1 PUSH2 0xA10 JUMP JUMPDEST SWAP1 DUP2 MSTORE PUSH1 0x40 MLOAD PUSH1 0x20 SWAP2 DUP2 SWAP1 SUB DUP3 ADD DUP2 KECCAK256 PUSH1 0x2 ADD DUP1 SLOAD PUSH1 0x1 DUP2 ADD DUP3 SSTORE PUSH1 0x0 SWAP2 DUP3 MSTORE SWAP3 DUP2 KECCAK256 SWAP1 SWAP3 ADD DUP1 SLOAD PUSH1 0x1 PUSH1 0x1 PUSH1 0xA0 SHL SUB NOT AND PUSH1 0x1 PUSH1 0x1 PUSH1 0xA0 SHL SUB DUP6 AND SWAP1 DUP2 OR SWAP1 SWAP2 SSTORE CALLER SWAP3 SWAP1 SWAP2 PUSH32 0x33C981BABA081F8FD2C52AC6AD1EA95B6814B4376640F55689051F6584729688 SWAP2 SWAP1 LOG3 SWAP5 SWAP4 POP POP POP POP JUMP JUMPDEST PUSH1 0x60 PUSH1 0x1 DUP4 DUP4 PUSH1 0x40 MLOAD PUSH2 0x74D SWAP3 SWAP2 SWAP1 PUSH2 0xA10 JUMP JUMPDEST SWAP1 DUP2 MSTORE PUSH1 0x40 DUP1 MLOAD SWAP2 DUP3 SWAP1 SUB PUSH1 0x20 SWAP1 DUP2 ADD DUP4 KECCAK256 PUSH1 0x2 ADD DUP1 SLOAD DUP1 DUP4 MUL DUP6 ADD DUP4 ADD SWAP1 SWAP4 MSTORE DUP3 DUP5 MSTORE SWAP2 SWAP1 DUP4 ADD DUP3 DUP3 DUP1 ISZERO PUSH2 0x7AC JUMPI PUSH1 0x20 MUL DUP3 ADD SWAP2 SWAP1 PUSH1 0x0 MSTORE PUSH1 0x20 PUSH1 0x0 KECCAK256 SWAP1 JUMPDEST DUP2 SLOAD PUSH1 0x1 PUSH1 0x1 PUSH1 0xA0 SHL SUB AND DUP2 MSTORE PUSH1 0x1 SWAP1 SWAP2 ADD SWAP1 PUSH1 0x20 ADD DUP1 DUP4 GT PUSH2 0x78E JUMPI JUMPDEST POP POP POP POP POP SWAP1 POP SWAP3 SWAP2 POP POP JUMP JUMPDEST PUSH1 0x0 DUP1 DUP3 PUSH1 0x60 SHL SWAP1 POP PUSH1 0x40 MLOAD PUSH20 0x3D602D80600A3D3981F3363D3D373D3D3D363D73 PUSH1 0x60 SHL DUP2 MSTORE DUP2 PUSH1 0x14 DUP3 ADD MSTORE PUSH15 0x5AF43D82803E903D91602B57FD5BF3 PUSH1 0x88 SHL PUSH1 0x28 DUP3 ADD MSTORE PUSH1 0x37 DUP2 PUSH1 0x0 CREATE SWAP5 SWAP4 POP POP POP POP JUMP JUMPDEST POP DUP1 SLOAD PUSH1 0x0 DUP3 SSTORE SWAP1 PUSH1 0x0 MSTORE PUSH1 0x20 PUSH1 0x0 KECCAK256 SWAP1 DUP2 ADD SWAP1 PUSH2 0x829 SWAP2 SWAP1 PUSH2 0x891 JUMP JUMPDEST POP JUMP JUMPDEST DUP3 DUP1 SLOAD DUP3 DUP3 SSTORE SWAP1 PUSH1 0x0 MSTORE PUSH1 0x20 PUSH1 0x0 KECCAK256 SWAP1 DUP2 ADD SWAP3 DUP3 ISZERO PUSH2 0x881 JUMPI SWAP2 PUSH1 0x20 MUL DUP3 ADD JUMPDEST DUP3 DUP2 GT ISZERO PUSH2 0x881 JUMPI DUP3 MLOAD DUP3 SLOAD PUSH1 0x1 PUSH1 0x1 PUSH1 0xA0 SHL SUB NOT AND PUSH1 0x1 PUSH1 0x1 PUSH1 0xA0 SHL SUB SWAP1 SWAP2 AND OR DUP3 SSTORE PUSH1 0x20 SWAP1 SWAP3 ADD SWAP2 PUSH1 0x1 SWAP1 SWAP2 ADD SWAP1 PUSH2 0x84C JUMP JUMPDEST POP PUSH2 0x88D SWAP3 SWAP2 POP PUSH2 0x891 JUMP JUMPDEST POP SWAP1 JUMP JUMPDEST JUMPDEST DUP1 DUP3 GT ISZERO PUSH2 0x88D JUMPI PUSH1 0x0 DUP2 SSTORE PUSH1 0x1 ADD PUSH2 0x892 JUMP JUMPDEST PUSH1 0x0 DUP1 DUP4 PUSH1 0x1F DUP5 ADD SLT PUSH2 0x8B8 JUMPI PUSH1 0x0 DUP1 REVERT JUMPDEST POP DUP2 CALLDATALOAD PUSH8 0xFFFFFFFFFFFFFFFF DUP2 GT ISZERO PUSH2 0x8D0 JUMPI PUSH1 0x0 DUP1 REVERT JUMPDEST PUSH1 0x20 DUP4 ADD SWAP2 POP DUP4 PUSH1 0x20 DUP3 DUP6 ADD ADD GT ISZERO PUSH2 0x8E8 JUMPI PUSH1 0x0 DUP1 REVERT JUMPDEST SWAP3 POP SWAP3 SWAP1 POP JUMP JUMPDEST PUSH1 0x0 DUP1 PUSH1 0x20 DUP4 DUP6 SUB SLT ISZERO PUSH2 0x902 JUMPI PUSH1 0x0 DUP1 REVERT JUMPDEST DUP3 CALLDATALOAD PUSH8 0xFFFFFFFFFFFFFFFF DUP2 GT ISZERO PUSH2 0x919 JUMPI PUSH1 0x0 DUP1 REVERT JUMPDEST PUSH2 0x925 DUP6 DUP3 DUP7 ADD PUSH2 0x8A6 JUMP JUMPDEST SWAP1 SWAP7 SWAP1 SWAP6 POP SWAP4 POP POP POP POP JUMP JUMPDEST DUP1 CALLDATALOAD PUSH1 0x1 PUSH1 0x1 PUSH1 0xA0 SHL SUB DUP2 AND DUP2 EQ PUSH2 0x948 JUMPI PUSH1 0x0 DUP1 REVERT JUMPDEST SWAP2 SWAP1 POP JUMP JUMPDEST PUSH1 0x0 DUP1 PUSH1 0x0 PUSH1 0x40 DUP5 DUP7 SUB SLT ISZERO PUSH2 0x962 JUMPI PUSH1 0x0 DUP1 REVERT JUMPDEST DUP4 CALLDATALOAD PUSH8 0xFFFFFFFFFFFFFFFF DUP2 GT ISZERO PUSH2 0x979 JUMPI PUSH1 0x0 DUP1 REVERT JUMPDEST PUSH2 0x985 DUP7 DUP3 DUP8 ADD PUSH2 0x8A6 JUMP JUMPDEST SWAP1 SWAP5 POP SWAP3 POP PUSH2 0x998 SWAP1 POP PUSH1 0x20 DUP6 ADD PUSH2 0x931 JUMP JUMPDEST SWAP1 POP SWAP3 POP SWAP3 POP SWAP3 JUMP JUMPDEST PUSH1 0x0 PUSH1 0x20 DUP3 DUP5 SUB SLT ISZERO PUSH2 0x9B3 JUMPI PUSH1 0x0 DUP1 REVERT JUMPDEST PUSH2 0x9BC DUP3 PUSH2 0x931 JUMP JUMPDEST SWAP4 SWAP3 POP POP POP JUMP JUMPDEST PUSH1 0x20 DUP1 DUP3 MSTORE DUP3 MLOAD DUP3 DUP3 ADD DUP2 SWAP1 MSTORE PUSH1 0x0 SWAP2 SWAP1 DUP5 DUP3 ADD SWAP1 PUSH1 0x40 DUP6 ADD SWAP1 DUP5 JUMPDEST DUP2 DUP2 LT ISZERO PUSH2 0xA04 JUMPI DUP4 MLOAD PUSH1 0x1 PUSH1 0x1 PUSH1 0xA0 SHL SUB AND DUP4 MSTORE SWAP3 DUP5 ADD SWAP3 SWAP2 DUP5 ADD SWAP2 PUSH1 0x1 ADD PUSH2 0x9DF JUMP JUMPDEST POP SWAP1 SWAP7 SWAP6 POP POP POP POP POP POP JUMP JUMPDEST DUP2 DUP4 DUP3 CALLDATACOPY PUSH1 0x0 SWAP2 ADD SWAP1 DUP2 MSTORE SWAP2 SWAP1 POP JUMP JUMPDEST PUSH1 0x0 DUP3 DUP3 LT ISZERO PUSH2 0xA40 JUMPI PUSH4 0x4E487B71 PUSH1 0xE0 SHL PUSH1 0x0 MSTORE PUSH1 0x11 PUSH1 0x4 MSTORE PUSH1 0x24 PUSH1 0x0 REVERT JUMPDEST POP SUB SWAP1 JUMP JUMPDEST PUSH4 0x4E487B71 PUSH1 0xE0 SHL PUSH1 0x0 MSTORE PUSH1 0x32 PUSH1 0x4 MSTORE PUSH1 0x24 PUSH1 0x0 REVERT JUMPDEST PUSH1 0x20 DUP2 MSTORE DUP2 PUSH1 0x20 DUP3 ADD MSTORE DUP2 DUP4 PUSH1 0x40 DUP4 ADD CALLDATACOPY PUSH1 0x0 DUP2 DUP4 ADD PUSH1 0x40 SWAP1 DUP2 ADD SWAP2 SWAP1 SWAP2 MSTORE PUSH1 0x1F SWAP1 SWAP3 ADD PUSH1 0x1F NOT AND ADD ADD SWAP2 SWAP1 POP JUMP INVALID LOG2 PUSH5 0x6970667358 0x22 SLT KECCAK256 0xD4 0xA6 SWAP10 SLT BYTE 0x24 0xE0 0x4F 0xDC 0xF9 PUSH29 0x62E6F40B315E898AE1BE9EAE8E2DC3EAE7A42A6E8564736F6C63430008 0xD STOP CALLER ",
  "sha1": "dd55e5099ecfbb6d21fa09727579c3e6c59eabce",
  "source": "// SPDX-License-Identifier: MIT\npragma solidity ^0.8.13;\n\naddress constant ZERO = 0x0000000000000000000000000000000000000000;\n\nimport \"./CloneFactory.sol\";\nimport \"@openzeppelin/contracts/utils/Strings.sol\";\n\n/// @dev child contract MUST implement this interface\n/// @dev transferOwnership should accept 0 as the previours owner\ninterface initableAndOwnerable {\n    function init() external;\n\n    function transferOwnership(address newOwner) external;\n}\n\ncontract Factory is CloneFactory {\n    event ContractRegistered(\n        string ID,\n        address indexed deployAddress,\n        address indexed owner\n    );\n    event ContractDeployed(\n        address indexed deployAddress,\n        address indexed ownerAddress\n    );\n\n    struct ContractTemplate {\n        address template;\n        address owner;\n        address[] deployed;\n    }\n\n    mapping(address => address[]) deployer;\n    mapping(string => ContractTemplate) contracts;\n\n    function register(string calldata _id, address master) external {\n        require(\n            contracts[_id].owner == ZERO || contracts[_id].owner == msg.sender,\n            \"ID Used\"\n        );\n        if (master == ZERO) delete contracts[_id];\n        else\n            contracts[_id] = ContractTemplate(\n                master,\n                msg.sender,\n                new address[](0)\n            );\n        emit ContractRegistered(_id, master, msg.sender);\n    }\n\n    function deployContract(string calldata _id) external returns (address) {\n        address contractTemplate = contracts[_id].template;\n        require(contractTemplate != address(0), \"No contract template found\");\n\n        address child = createClone(contractTemplate);\n        initableAndOwnerable(child).init();\n        initableAndOwnerable(child).transferOwnership(msg.sender);\n\n        deployer[msg.sender].push(child);\n        contracts[_id].deployed.push(child);\n        emit ContractDeployed(child, msg.sender);\n        return child;\n    }\n\n    function getLastDeployed() external view returns (address) {\n        address[] storage deployed = deployer[msg.sender];\n        return deployed[deployed.length - 1];\n    }\n\n    function getLastDeployed(address _owner) external view returns (address) {\n        address[] storage deployed = deployer[_owner];\n        return deployed[deployed.length - 1];\n    }\n\n    function getLastDeployed(string calldata _id)\n        external\n        view\n        returns (address)\n    {\n        address[] storage deployed = contracts[_id].deployed;\n        return deployed[deployed.length - 1];\n    }\n\n    function getContractsDeployed() external view returns (address[] memory) {\n        return deployer[msg.sender];\n    }\n\n    function getContractsDeployed(address _owner)\n        external\n        view\n        returns (address[] memory)\n    {\n        return deployer[_owner];\n    }\n\n    function getContractsDeployed(string calldata _id)\n        external\n        view\n        returns (address[] memory)\n    {\n        return contracts[_id].deployed;\n    }\n}\n",
  "sourcePath": "contracts/Factory.sol",
  "type": "contract"
}