{
  "abi": [
    {
      "inputs": [],
      "stateMutability": "nonpayable",
      "type": "constructor"
    },
    {
      "anonymous": false,
      "inputs": [
        {
          "indexed": true,
          "internalType": "address",
          "name": "owner",
          "type": "address"
        },
        {
          "indexed": true,
          "internalType": "address",
          "name": "approved",
          "type": "address"
        },
        {
          "indexed": true,
          "internalType": "uint256",
          "name": "tokenId",
          "type": "uint256"
        }
      ],
      "name": "Approval",
      "type": "event"
    },
    {
      "anonymous": false,
      "inputs": [
        {
          "indexed": true,
          "internalType": "address",
          "name": "owner",
          "type": "address"
        },
        {
          "indexed": true,
          "internalType": "address",
          "name": "operator",
          "type": "address"
        },
        {
          "indexed": false,
          "internalType": "bool",
          "name": "approved",
          "type": "bool"
        }
      ],
      "name": "ApprovalForAll",
      "type": "event"
    },
    {
      "anonymous": false,
      "inputs": [
        {
          "indexed": true,
          "internalType": "uint256",
          "name": "_tokenId",
          "type": "uint256"
        },
        {
          "indexed": true,
          "internalType": "address",
          "name": "_operator",
          "type": "address"
        },
        {
          "indexed": false,
          "internalType": "uint256",
          "name": "_value",
          "type": "uint256"
        }
      ],
      "name": "ApprovalValue",
      "type": "event"
    },
    {
      "anonymous": false,
      "inputs": [
        {
          "indexed": true,
          "internalType": "address",
          "name": "previousOwner",
          "type": "address"
        },
        {
          "indexed": true,
          "internalType": "address",
          "name": "newOwner",
          "type": "address"
        }
      ],
      "name": "OwnershipTransferred",
      "type": "event"
    },
    {
      "anonymous": false,
      "inputs": [
        {
          "indexed": true,
          "internalType": "uint256",
          "name": "_tokenId",
          "type": "uint256"
        },
        {
          "indexed": true,
          "internalType": "uint256",
          "name": "_oldSlot",
          "type": "uint256"
        },
        {
          "indexed": true,
          "internalType": "uint256",
          "name": "_newSlot",
          "type": "uint256"
        }
      ],
      "name": "SlotChanged",
      "type": "event"
    },
    {
      "anonymous": false,
      "inputs": [
        {
          "indexed": true,
          "internalType": "address",
          "name": "from",
          "type": "address"
        },
        {
          "indexed": true,
          "internalType": "address",
          "name": "to",
          "type": "address"
        },
        {
          "indexed": true,
          "internalType": "uint256",
          "name": "tokenId",
          "type": "uint256"
        }
      ],
      "name": "Transfer",
      "type": "event"
    },
    {
      "anonymous": false,
      "inputs": [
        {
          "indexed": true,
          "internalType": "uint256",
          "name": "_fromTokenId",
          "type": "uint256"
        },
        {
          "indexed": true,
          "internalType": "uint256",
          "name": "_toTokenId",
          "type": "uint256"
        },
        {
          "indexed": false,
          "internalType": "uint256",
          "name": "_value",
          "type": "uint256"
        }
      ],
      "name": "TransferValue",
      "type": "event"
    },
    {
      "anonymous": false,
      "inputs": [
        {
          "indexed": false,
          "internalType": "string",
          "name": "uri",
          "type": "string"
        }
      ],
      "name": "baseURIChanged",
      "type": "event"
    },
    {
      "anonymous": false,
      "inputs": [
        {
          "indexed": false,
          "internalType": "string",
          "name": "uri",
          "type": "string"
        }
      ],
      "name": "detailsURIChanged",
      "type": "event"
    },
    {
      "anonymous": false,
      "inputs": [
        {
          "indexed": false,
          "internalType": "address",
          "name": "gasManager",
          "type": "address"
        }
      ],
      "name": "gasLoaded",
      "type": "event"
    },
    {
      "anonymous": false,
      "inputs": [
        {
          "indexed": false,
          "internalType": "address",
          "name": "_to",
          "type": "address"
        },
        {
          "indexed": false,
          "internalType": "uint256",
          "name": "tokenID",
          "type": "uint256"
        }
      ],
      "name": "tokenMinted",
      "type": "event"
    },
    {
      "inputs": [
        {
          "internalType": "uint256",
          "name": "tokenId_",
          "type": "uint256"
        },
        {
          "internalType": "address",
          "name": "operator_",
          "type": "address"
        }
      ],
      "name": "allowance",
      "outputs": [
        {
          "internalType": "uint256",
          "name": "",
          "type": "uint256"
        }
      ],
      "stateMutability": "view",
      "type": "function"
    },
    {
      "inputs": [
        {
          "internalType": "address",
          "name": "to",
          "type": "address"
        },
        {
          "internalType": "uint256",
          "name": "tokenId",
          "type": "uint256"
        }
      ],
      "name": "approve",
      "outputs": [],
      "stateMutability": "nonpayable",
      "type": "function"
    },
    {
      "inputs": [
        {
          "internalType": "uint256",
          "name": "tokenId_",
          "type": "uint256"
        },
        {
          "internalType": "address",
          "name": "to_",
          "type": "address"
        },
        {
          "internalType": "uint256",
          "name": "value_",
          "type": "uint256"
        }
      ],
      "name": "approve",
      "outputs": [],
      "stateMutability": "payable",
      "type": "function"
    },
    {
      "inputs": [
        {
          "internalType": "address",
          "name": "owner",
          "type": "address"
        }
      ],
      "name": "balanceOf",
      "outputs": [
        {
          "internalType": "uint256",
          "name": "",
          "type": "uint256"
        }
      ],
      "stateMutability": "view",
      "type": "function"
    },
    {
      "inputs": [
        {
          "internalType": "uint256",
          "name": "tokenId_",
          "type": "uint256"
        }
      ],
      "name": "balanceOf",
      "outputs": [
        {
          "internalType": "uint256",
          "name": "",
          "type": "uint256"
        }
      ],
      "stateMutability": "view",
      "type": "function"
    },
    {
      "inputs": [],
      "name": "baseURI",
      "outputs": [
        {
          "internalType": "string",
          "name": "",
          "type": "string"
        }
      ],
      "stateMutability": "view",
      "type": "function"
    },
    {
      "inputs": [
        {
          "internalType": "uint256",
          "name": "tokenId",
          "type": "uint256"
        },
        {
          "internalType": "uint256",
          "name": "_value",
          "type": "uint256"
        }
      ],
      "name": "consume",
      "outputs": [],
      "stateMutability": "nonpayable",
      "type": "function"
    },
    {
      "inputs": [],
      "name": "contractName",
      "outputs": [
        {
          "internalType": "string",
          "name": "",
          "type": "string"
        }
      ],
      "stateMutability": "pure",
      "type": "function"
    },
    {
      "inputs": [],
      "name": "contractURI",
      "outputs": [
        {
          "internalType": "string",
          "name": "",
          "type": "string"
        }
      ],
      "stateMutability": "view",
      "type": "function"
    },
    {
      "inputs": [],
      "name": "detailsURI",
      "outputs": [
        {
          "internalType": "string",
          "name": "",
          "type": "string"
        }
      ],
      "stateMutability": "view",
      "type": "function"
    },
    {
      "inputs": [
        {
          "internalType": "uint256",
          "name": "tokenId",
          "type": "uint256"
        },
        {
          "internalType": "uint256",
          "name": "_value",
          "type": "uint256"
        }
      ],
      "name": "fill",
      "outputs": [],
      "stateMutability": "nonpayable",
      "type": "function"
    },
    {
      "inputs": [
        {
          "internalType": "address",
          "name": "_to",
          "type": "address"
        },
        {
          "internalType": "uint256",
          "name": "slot_",
          "type": "uint256"
        },
        {
          "internalType": "uint256",
          "name": "_value",
          "type": "uint256"
        },
        {
          "internalType": "uint256",
          "name": "newId",
          "type": "uint256"
        }
      ],
      "name": "fill",
      "outputs": [],
      "stateMutability": "nonpayable",
      "type": "function"
    },
    {
      "inputs": [
        {
          "internalType": "uint256",
          "name": "tokenId",
          "type": "uint256"
        }
      ],
      "name": "getApproved",
      "outputs": [
        {
          "internalType": "address",
          "name": "",
          "type": "address"
        }
      ],
      "stateMutability": "view",
      "type": "function"
    },
    {
      "inputs": [],
      "name": "getTGas",
      "outputs": [
        {
          "internalType": "address",
          "name": "",
          "type": "address"
        }
      ],
      "stateMutability": "view",
      "type": "function"
    },
    {
      "inputs": [
        {
          "internalType": "string",
          "name": "name_",
          "type": "string"
        },
        {
          "internalType": "string",
          "name": "symbol_",
          "type": "string"
        },
        {
          "internalType": "uint8",
          "name": "decimals_",
          "type": "uint8"
        },
        {
          "internalType": "string",
          "name": "base_",
          "type": "string"
        },
        {
          "internalType": "string",
          "name": "details_",
          "type": "string"
        }
      ],
      "name": "init",
      "outputs": [],
      "stateMutability": "nonpayable",
      "type": "function"
    },
    {
      "inputs": [],
      "name": "init",
      "outputs": [],
      "stateMutability": "nonpayable",
      "type": "function"
    },
    {
      "inputs": [
        {
          "internalType": "uint256",
          "name": "_slot",
          "type": "uint256"
        },
        {
          "internalType": "uint256",
          "name": "_totalPoints",
          "type": "uint256"
        }
      ],
      "name": "initTotalAdmin",
      "outputs": [],
      "stateMutability": "nonpayable",
      "type": "function"
    },
    {
      "inputs": [
        {
          "internalType": "address",
          "name": "owner",
          "type": "address"
        },
        {
          "internalType": "address",
          "name": "operator",
          "type": "address"
        }
      ],
      "name": "isApprovedForAll",
      "outputs": [
        {
          "internalType": "bool",
          "name": "",
          "type": "bool"
        }
      ],
      "stateMutability": "view",
      "type": "function"
    },
    {
      "inputs": [
        {
          "internalType": "address",
          "name": "_to",
          "type": "address"
        },
        {
          "internalType": "uint256",
          "name": "slot_",
          "type": "uint256"
        },
        {
          "internalType": "uint256",
          "name": "tokenId",
          "type": "uint256"
        }
      ],
      "name": "mint",
      "outputs": [],
      "stateMutability": "nonpayable",
      "type": "function"
    },
    {
      "inputs": [
        {
          "internalType": "address",
          "name": "to_",
          "type": "address"
        },
        {
          "internalType": "uint256",
          "name": "tokenId_",
          "type": "uint256"
        },
        {
          "internalType": "uint256",
          "name": "slot_",
          "type": "uint256"
        },
        {
          "internalType": "uint256",
          "name": "value_",
          "type": "uint256"
        }
      ],
      "name": "mint",
      "outputs": [],
      "stateMutability": "nonpayable",
      "type": "function"
    },
    {
      "inputs": [],
      "name": "name",
      "outputs": [
        {
          "internalType": "string",
          "name": "",
          "type": "string"
        }
      ],
      "stateMutability": "view",
      "type": "function"
    },
    {
      "inputs": [],
      "name": "owner",
      "outputs": [
        {
          "internalType": "address",
          "name": "",
          "type": "address"
        }
      ],
      "stateMutability": "view",
      "type": "function"
    },
    {
      "inputs": [
        {
          "internalType": "uint256",
          "name": "tokenId",
          "type": "uint256"
        }
      ],
      "name": "ownerOf",
      "outputs": [
        {
          "internalType": "address",
          "name": "",
          "type": "address"
        }
      ],
      "stateMutability": "view",
      "type": "function"
    },
    {
      "inputs": [],
      "name": "renounceOwnership",
      "outputs": [],
      "stateMutability": "nonpayable",
      "type": "function"
    },
    {
      "inputs": [
        {
          "internalType": "address",
          "name": "from",
          "type": "address"
        },
        {
          "internalType": "address",
          "name": "to",
          "type": "address"
        },
        {
          "internalType": "uint256",
          "name": "tokenId",
          "type": "uint256"
        }
      ],
      "name": "safeTransferFrom",
      "outputs": [],
      "stateMutability": "nonpayable",
      "type": "function"
    },
    {
      "inputs": [
        {
          "internalType": "address",
          "name": "from",
          "type": "address"
        },
        {
          "internalType": "address",
          "name": "to",
          "type": "address"
        },
        {
          "internalType": "uint256",
          "name": "tokenId",
          "type": "uint256"
        },
        {
          "internalType": "bytes",
          "name": "data",
          "type": "bytes"
        }
      ],
      "name": "safeTransferFrom",
      "outputs": [],
      "stateMutability": "nonpayable",
      "type": "function"
    },
    {
      "inputs": [
        {
          "internalType": "address",
          "name": "operator",
          "type": "address"
        },
        {
          "internalType": "bool",
          "name": "approved",
          "type": "bool"
        }
      ],
      "name": "setApprovalForAll",
      "outputs": [],
      "stateMutability": "nonpayable",
      "type": "function"
    },
    {
      "inputs": [
        {
          "internalType": "string",
          "name": "base_",
          "type": "string"
        }
      ],
      "name": "setBaseURI",
      "outputs": [],
      "stateMutability": "nonpayable",
      "type": "function"
    },
    {
      "inputs": [
        {
          "internalType": "string",
          "name": "uri_",
          "type": "string"
        }
      ],
      "name": "setDetailsURI",
      "outputs": [],
      "stateMutability": "nonpayable",
      "type": "function"
    },
    {
      "inputs": [
        {
          "internalType": "address",
          "name": "_tgas",
          "type": "address"
        }
      ],
      "name": "setTGas",
      "outputs": [],
      "stateMutability": "nonpayable",
      "type": "function"
    },
    {
      "inputs": [
        {
          "internalType": "uint256",
          "name": "tokenId_",
          "type": "uint256"
        }
      ],
      "name": "slotOf",
      "outputs": [
        {
          "internalType": "uint256",
          "name": "",
          "type": "uint256"
        }
      ],
      "stateMutability": "view",
      "type": "function"
    },
    {
      "inputs": [
        {
          "internalType": "uint256",
          "name": "slot_",
          "type": "uint256"
        }
      ],
      "name": "slotURI",
      "outputs": [
        {
          "internalType": "string",
          "name": "",
          "type": "string"
        }
      ],
      "stateMutability": "view",
      "type": "function"
    },
    {
      "inputs": [
        {
          "internalType": "bytes4",
          "name": "interfaceId",
          "type": "bytes4"
        }
      ],
      "name": "supportsInterface",
      "outputs": [
        {
          "internalType": "bool",
          "name": "",
          "type": "bool"
        }
      ],
      "stateMutability": "view",
      "type": "function"
    },
    {
      "inputs": [],
      "name": "symbol",
      "outputs": [
        {
          "internalType": "string",
          "name": "",
          "type": "string"
        }
      ],
      "stateMutability": "view",
      "type": "function"
    },
    {
      "inputs": [
        {
          "internalType": "uint256",
          "name": "index",
          "type": "uint256"
        }
      ],
      "name": "tokenByIndex",
      "outputs": [
        {
          "internalType": "uint256",
          "name": "",
          "type": "uint256"
        }
      ],
      "stateMutability": "view",
      "type": "function"
    },
    {
      "inputs": [
        {
          "internalType": "address",
          "name": "owner",
          "type": "address"
        },
        {
          "internalType": "uint256",
          "name": "index",
          "type": "uint256"
        }
      ],
      "name": "tokenOfOwnerByIndex",
      "outputs": [
        {
          "internalType": "uint256",
          "name": "",
          "type": "uint256"
        }
      ],
      "stateMutability": "view",
      "type": "function"
    },
    {
      "inputs": [
        {
          "internalType": "uint256",
          "name": "tokenId",
          "type": "uint256"
        }
      ],
      "name": "tokenURI",
      "outputs": [
        {
          "internalType": "string",
          "name": "",
          "type": "string"
        }
      ],
      "stateMutability": "view",
      "type": "function"
    },
    {
      "inputs": [],
      "name": "totalSupply",
      "outputs": [
        {
          "internalType": "uint256",
          "name": "",
          "type": "uint256"
        }
      ],
      "stateMutability": "view",
      "type": "function"
    },
    {
      "inputs": [
        {
          "internalType": "uint256",
          "name": "fromTokenId_",
          "type": "uint256"
        },
        {
          "internalType": "address",
          "name": "to_",
          "type": "address"
        },
        {
          "internalType": "uint256",
          "name": "slot_",
          "type": "uint256"
        },
        {
          "internalType": "uint256",
          "name": "value_",
          "type": "uint256"
        },
        {
          "internalType": "uint256",
          "name": "newId",
          "type": "uint256"
        }
      ],
      "name": "transferFrom",
      "outputs": [],
      "stateMutability": "nonpayable",
      "type": "function"
    },
    {
      "inputs": [
        {
          "internalType": "address",
          "name": "from",
          "type": "address"
        },
        {
          "internalType": "address",
          "name": "to",
          "type": "address"
        },
        {
          "internalType": "uint256",
          "name": "tokenId",
          "type": "uint256"
        }
      ],
      "name": "transferFrom",
      "outputs": [],
      "stateMutability": "nonpayable",
      "type": "function"
    },
    {
      "inputs": [
        {
          "internalType": "uint256",
          "name": "fromTokenId_",
          "type": "uint256"
        },
        {
          "internalType": "uint256",
          "name": "toTokenId_",
          "type": "uint256"
        },
        {
          "internalType": "uint256",
          "name": "value_",
          "type": "uint256"
        }
      ],
      "name": "transferFrom",
      "outputs": [],
      "stateMutability": "payable",
      "type": "function"
    },
    {
      "inputs": [
        {
          "internalType": "address",
          "name": "newOwner",
          "type": "address"
        }
      ],
      "name": "transferOwnership",
      "outputs": [],
      "stateMutability": "nonpayable",
      "type": "function"
    },
    {
      "inputs": [],
      "name": "valueDecimals",
      "outputs": [
        {
          "internalType": "uint8",
          "name": "",
          "type": "uint8"
        }
      ],
      "stateMutability": "view",
      "type": "function"
    }
  ],
  "bytecode": "6080604052601080546001600160a01b03191673222d6d17f1f6967b81e40624fe6176b7be225bee1790553480156200003757600080fd5b506040518060400160405280600a815260200169049534f544f50313032360b41b8152506040518060400160405280600a815260200169049534f544f50313032360b41b8152506000828281600090805190602001906200009a9291906200013e565b508051620000b09060019060208401906200013e565b5050600f805460ff191660ff939093169290921790915550620000de9150620000d890503390565b620000e4565b62000220565b600f80546001600160a01b03838116610100818102610100600160a81b031985161790945560405193909204169182907f8be0079c531659141344cd1fd0a4f28419497f9722a3daafe3b4186f6b6457e090600090a35050565b8280546200014c90620001e4565b90600052602060002090601f016020900481019282620001705760008555620001bb565b82601f106200018b57805160ff1916838001178555620001bb565b82800160010185558215620001bb579182015b82811115620001bb5782518255916020019190600101906200019e565b50620001c9929150620001cd565b5090565b5b80821115620001c95760008155600101620001ce565b600181811c90821680620001f957607f821691505b6020821081036200021a57634e487b7160e01b600052602260045260246000fd5b50919050565b61320180620002306000396000f3fe60806040526004361061025c5760003560e01c806363389bc111610144578063a22cb465116100b6578063c87b56dd1161007a578063c87b56dd14610701578063e1c7392a14610721578063e345e0bc14610736578063e8a3d4851461077d578063e985e9c514610792578063f2fde38b146107db57600080fd5b8063a22cb46514610661578063a48929d114610681578063a647e8ec146106a1578063aca9d433146106c1578063b88d4fde146106e157600080fd5b806375d0c0dc1161010857806375d0c0dc146105a5578063766ef5e7146105d85780638cb0a511146105f65780638da5cb5b1461060957806395d89b411461062c5780639cc7f7081461064157600080fd5b806363389bc11461051b5780636352211e1461053b5780636c0360eb1461055b57806370a0823114610570578063715018a61461059057600080fd5b8063263f3e7e116101dd57806340898f4f116101a157806340898f4f1461045b57806340f8be2b1461047b57806342842e0e1461049b5780634eeea7ad146104bb5780634f6ccce7146104db57806355f804b3146104fb57600080fd5b8063263f3e7e146103c65780632f745c59146103e6578063310ed7f0146104065780633c29fc43146104195780633e7e86691461043957600080fd5b806309c3dd871161022457806309c3dd87146103275780630f45889514610347578063156e29f61461036757806318160ddd1461038757806323b872dd146103a657600080fd5b806301ffc9a71461026157806302e9f9391461029657806306fdde03146102b8578063081812fc146102cd578063095ea7b314610305575b600080fd5b34801561026d57600080fd5b5061028161027c366004612966565b6107fb565b60405190151581526020015b60405180910390f35b3480156102a257600080fd5b506102ab610841565b60405161028d91906129db565b3480156102c457600080fd5b506102ab6108cf565b3480156102d957600080fd5b506102ed6102e83660046129ee565b610961565b6040516001600160a01b03909116815260200161028d565b34801561031157600080fd5b50610325610320366004612a23565b610988565b005b34801561033357600080fd5b506102ab6103423660046129ee565b610aa2565b34801561035357600080fd5b50610325610362366004612a4d565b610b00565b34801561037357600080fd5b50610325610382366004612a93565b610b29565b34801561039357600080fd5b506008545b60405190815260200161028d565b3480156103b257600080fd5b506103256103c1366004612ac6565b610b61565b3480156103d257600080fd5b506103986103e13660046129ee565b610b92565b3480156103f257600080fd5b50610398610401366004612a23565b610c0e565b610325610414366004612b02565b610ca4565b34801561042557600080fd5b50610325610434366004612b2e565b610cba565b34801561044557600080fd5b50600f5460405160ff909116815260200161028d565b34801561046757600080fd5b50610325610476366004612b50565b610d18565b34801561048757600080fd5b50610325610496366004612b2e565b610dbe565b3480156104a757600080fd5b506103256104b6366004612ac6565b610de4565b3480156104c757600080fd5b506103256104d6366004612b2e565b610dff565b3480156104e757600080fd5b506103986104f63660046129ee565b610e59565b34801561050757600080fd5b50610325610516366004612c17565b610eec565b34801561052757600080fd5b50610325610536366004612c4c565b610f37565b34801561054757600080fd5b506102ed6105563660046129ee565b610fa5565b34801561056757600080fd5b506102ab611005565b34801561057c57600080fd5b5061039861058b366004612b50565b611012565b34801561059c57600080fd5b50610325611098565b3480156105b157600080fd5b5060408051808201909152600a815269049534f544f50313032360b41b60208201526102ab565b3480156105e457600080fd5b506013546001600160a01b03166102ed565b610325610604366004612d14565b6110ac565b34801561061557600080fd5b50600f5461010090046001600160a01b03166102ed565b34801561063857600080fd5b506102ab6111b2565b34801561064d57600080fd5b5061039861065c3660046129ee565b6111c1565b34801561066d57600080fd5b5061032561067c366004612d39565b611240565b34801561068d57600080fd5b5061032561069c366004612c17565b61124b565b3480156106ad57600080fd5b506103256106bc366004612d75565b611296565b3480156106cd57600080fd5b506103256106dc366004612d75565b6112c6565b3480156106ed57600080fd5b506103256106fc366004612dae565b611322565b34801561070d57600080fd5b506102ab61071c3660046129ee565b611354565b34801561072d57600080fd5b50610325611402565b34801561074257600080fd5b50610398610751366004612e2a565b6000828152600b602090815260408083206001600160a01b038516845260010190915290205492915050565b34801561078957600080fd5b506102ab6114df565b34801561079e57600080fd5b506102816107ad366004612e56565b6001600160a01b03918216600090815260056020908152604080832093909416825291909152205460ff1690565b3480156107e757600080fd5b506103256107f6366004612b50565b61153c565b60006001600160e01b03198216636d3eeea160e11b148061082c57506001600160e01b031982166370b0048160e11b145b8061083b575061083b826115f2565b92915050565b6012805461084e90612e80565b80601f016020809104026020016040519081016040528092919081815260200182805461087a90612e80565b80156108c75780601f1061089c576101008083540402835291602001916108c7565b820191906000526020600020905b8154815290600101906020018083116108aa57829003601f168201915b505050505081565b6060600080546108de90612e80565b80601f016020809104026020016040519081016040528092919081815260200182805461090a90612e80565b80156109575780601f1061092c57610100808354040283529160200191610957565b820191906000526020600020905b81548152906001019060200180831161093a57829003601f168201915b5050505050905090565b600061096c82611617565b506000908152600460205260409020546001600160a01b031690565b600061099382610fa5565b9050806001600160a01b0316836001600160a01b031603610a055760405162461bcd60e51b815260206004820152602160248201527f4552433732313a20617070726f76616c20746f2063757272656e74206f776e656044820152603960f91b60648201526084015b60405180910390fd5b336001600160a01b0382161480610a215750610a2181336107ad565b610a935760405162461bcd60e51b815260206004820152603e60248201527f4552433732313a20617070726f76652063616c6c6572206973206e6f7420746f60448201527f6b656e206f776e6572206e6f7220617070726f76656420666f7220616c6c000060648201526084016109fc565b610a9d8383611667565b505050565b60606000610aae6116d5565b90506000815111610ace5760405180602001604052806000815250610af9565b80610ad8846116e4565b604051602001610ae9929190612eba565b6040516020818303038152906040525b9392505050565b610b0b3386846117ed565b610b1784828585611895565b610b22858284611a03565b5050505050565b610b31611c67565b610b3e8382846000611895565b610a9d83610b5a600f546001600160a01b036101009091041690565b6001611cc7565b610b6b3382611d95565b610b875760405162461bcd60e51b81526004016109fc90612efa565b610a9d838383611e13565b6000610b9d82611fba565b610bfb5760405162461bcd60e51b815260206004820152602960248201527f455243333532353a20736c6f7420717565727920666f72206e6f6e657869737460448201526832b73a103a37b5b2b760b91b60648201526084016109fc565b506000908152600c602052604090205490565b6000610c1983611012565b8210610c7b5760405162461bcd60e51b815260206004820152602b60248201527f455243373231456e756d657261626c653a206f776e657220696e646578206f7560448201526a74206f6620626f756e647360a81b60648201526084016109fc565b506001600160a01b03919091166000908152600660209081526040808320938352929052205490565b610caf3384836117ed565b610a9d838383611a03565b610cc2611c67565b80610ccd60fd6111c1565b1015610d085760405162461bcd60e51b815260206004820152600a602482015269141bda5b9d1cc813dd5d60b21b60448201526064016109fc565b610d1460fd8383610ca4565b5050565b737b0dc23e87febf1d053e7df9af4cce30f21fae9c3214610d695760405162461bcd60e51b815260206004820152600b60248201526a04f6e6c792049534f544f560ac1b60448201526064016109fc565b601380546001600160a01b0319166001600160a01b0383169081179091556040519081527f5d13706edecffc8d4ccc3b8dbcc026ce8a4914496820ba012530a4790b08d3a7906020015b60405180910390a150565b610dc6611c67565b600f54610d149061010090046001600160a01b031660fd8484611895565b610a9d83838360405180602001604052806000815250611322565b80610e09836111c1565b1015610e4d5760405162461bcd60e51b815260206004820152601360248201527214195c9cdbdb985b08141bda5b9d1cc813dd5d606a1b60448201526064016109fc565b610d148260fd83610ca4565b6000610e6460085490565b8210610ec75760405162461bcd60e51b815260206004820152602c60248201527f455243373231456e756d657261626c653a20676c6f62616c20696e646578206f60448201526b7574206f6620626f756e647360a01b60648201526084016109fc565b60088281548110610eda57610eda612f48565b90600052602060002001549050919050565b610ef4611c67565b8051610f0790601190602084019061289d565b507f59f1ec21eb30be64a479f79da93a3f192f54c561ee637b5f589e807eb975eb4a81604051610db391906129db565b610f3f611c67565b8451610f5290600d90602088019061289d565b508351610f6690600e90602087019061289d565b50600f805460ff191660ff85161790558151610f8990601190602085019061289d565b508051610f9d90601290602084019061289d565b505050505050565b6000818152600260205260408120546001600160a01b03168061083b5760405162461bcd60e51b8152602060048201526018602482015277115490cdcc8c4e881a5b9d985b1a59081d1bdad95b88125160421b60448201526064016109fc565b6011805461084e90612e80565b60006001600160a01b03821661107c5760405162461bcd60e51b815260206004820152602960248201527f4552433732313a2061646472657373207a65726f206973206e6f7420612076616044820152683634b21037bbb732b960b91b60648201526084016109fc565b506001600160a01b031660009081526003602052604090205490565b6110a0611c67565b6110aa6000611fd7565b565b60006110b784610fa5565b9050806001600160a01b0316836001600160a01b0316036111255760405162461bcd60e51b815260206004820152602260248201527f455243333532353a20617070726f76616c20746f2063757272656e74206f776e60448201526132b960f11b60648201526084016109fc565b61112f3385611d95565b6111a15760405162461bcd60e51b815260206004820152603960248201527f455243333532353a20617070726f76652063616c6c6572206973206e6f74206f60448201527f776e6572206e6f7220617070726f76656420666f7220616c6c0000000000000060648201526084016109fc565b6111ac848484612031565b50505050565b6060600180546108de90612e80565b60006111cc82611fba565b61122d5760405162461bcd60e51b815260206004820152602c60248201527f455243333532353a2062616c616e636520717565727920666f72206e6f6e657860448201526b34b9ba32b73a103a37b5b2b760a11b60648201526084016109fc565b506000908152600a602052604090205490565b610d14338383611cc7565b611253611c67565b805161126690601290602084019061289d565b507f69492b03d451c4ad02fe1a5a42e677ac013fc7fd243fa4e3a4ef14a5d8d8808d81604051610db391906129db565b61129e611c67565b6112aa84848484611895565b6111ac84610b5a600f546001600160a01b036101009091041690565b6112ce611c67565b816112d960fd6111c1565b10156113145760405162461bcd60e51b815260206004820152600a602482015269141bda5b9d1cc813dd5d60b21b60448201526064016109fc565b6111ac60fd85858585610b00565b61132c3383611d95565b6113485760405162461bcd60e51b81526004016109fc90612efa565b6111ac848484846120b1565b606061135f82611fba565b61139f5760405162461bcd60e51b81526020600482015260116024820152703737b732bc34b9ba32b73a103a37b5b2b760791b60448201526064016109fc565b6113a76116d5565b6113b0836116e4565b6000848152600c60205260409020546113c8906116e4565b6113d96113d4866111c1565b6116e4565b6040516020016113ec9493929190612f5e565b6040516020818303038152906040529050919050565b600f5461010090046001600160a01b0316156114575760405162461bcd60e51b81526020600482015260146024820152736f6e6c79207768656e20696e697420737461746560601b60448201526064016109fc565b6013546001600160a01b0316156110aa5760135460408051808201825260068152656465706c6f7960d01b602082015290516325b1142960e01b81526001600160a01b03909216916325b11429916114b1916004016129db565b600060405180830381600087803b1580156114cb57600080fd5b505af11580156111ac573d6000803e3d6000fd5b606060006114eb6116d5565b9050600081511161150b5760405180602001604052806000815250611536565b80611515306120e4565b604051602001611526929190612ff3565b6040516020818303038152906040525b91505090565b600f5461010090046001600160a01b031615806115695750600f546001600160a01b036101009091041633145b6115a25760405162461bcd60e51b815260206004820152600a60248201526927b7363c9027b73bb2b960b11b60448201526064016109fc565b6001600160a01b0381166115e65760405162461bcd60e51b815260206004820152600b60248201526a04e6577206f776e657220360ac1b60448201526064016109fc565b6115ef81611fd7565b50565b60006001600160e01b0319821663780e9d6360e01b148061083b575061083b8261213b565b61162081611fba565b6115ef5760405162461bcd60e51b8152602060048201526018602482015277115490cdcc8c4e881a5b9d985b1a59081d1bdad95b88125160421b60448201526064016109fc565b600081815260046020526040902080546001600160a01b0319166001600160a01b038416908117909155819061169c82610fa5565b6001600160a01b03167f8c5be1e5ebec7d5bd14f71427d1e84f3dd0314c0f7b2291e5b200ac8c7c3b92560405160405180910390a45050565b6060601180546108de90612e80565b60608160000361170b5750506040805180820190915260018152600360fc1b602082015290565b8160005b8115611735578061171f8161304d565b915061172e9050600a8361307c565b915061170f565b60008167ffffffffffffffff81111561175057611750612b6b565b6040519080825280601f01601f19166020018201604052801561177a576020820181803683370190505b5090505b84156117e55761178f600183613090565b915061179c600a866130a7565b6117a79060306130bb565b60f81b8183815181106117bc576117bc612f48565b60200101906001600160f81b031916908160001a9053506117de600a8661307c565b945061177e565b949350505050565b6000828152600b602090815260408083206001600160a01b038716845260010190915290205461181d8484611d95565b15801561182c57506000198114155b156111ac57818110156118815760405162461bcd60e51b815260206004820152601f60248201527f455243333532353a20696e73756666696369656e7420616c6c6f77616e63650060448201526064016109fc565b6111ac83856118908585613090565b612031565b6001600160a01b0384166118f55760405162461bcd60e51b815260206004820152602160248201527f455243333532353a206d696e7420746f20746865207a65726f206164647265736044820152607360f81b60648201526084016109fc565b8260000361194f5760405162461bcd60e51b815260206004820152602160248201527f455243333532353a2063616e6e6f74206d696e74207a65726f20746f6b656e496044820152601960fa1b60648201526084016109fc565b61195883611fba565b156119a55760405162461bcd60e51b815260206004820152601d60248201527f455243333532353a20746f6b656e20616c7265616479206d696e74656400000060448201526064016109fc565b6119b084848461218b565b6000838152600a602052604090208190558260007f0b2aac84f3ec956911fd78eae5311062972ff949f38412e8da39069d9f068cc6836040516119f591815260200190565b60405180910390a350505050565b611a0c83611fba565b611a6a5760405162461bcd60e51b815260206004820152602960248201527f45524333353235353a207472616e736665722066726f6d206e6f6e657869737460448201526832b73a103a37b5b2b760b91b60648201526084016109fc565b611a7382611fba565b611acf5760405162461bcd60e51b815260206004820152602760248201527f45524333353235353a207472616e7366657220746f206e6f6e6578697374656e6044820152663a103a37b5b2b760c91b60648201526084016109fc565b6000838152600a6020526040902054811115611b3e5760405162461bcd60e51b815260206004820152602860248201527f455243333532353a207472616e7366657220616d6f756e7420657863656564736044820152672062616c616e636560c01b60648201526084016109fc565b6000828152600c60205260408082205485835291205414611bb85760405162461bcd60e51b815260206004820152602e60248201527f455243333533353a207472616e7366657220746f20746f6b656e20776974682060448201526d191a5999995c995b9d081cdb1bdd60921b60648201526084016109fc565b6000611bc384610fa5565b90506000611bd084610fa5565b6000868152600a6020526040812080549293508592909190611bf3908490613090565b90915550506000848152600a602052604081208054859290611c169084906130bb565b90915550506000859052600c60205283857f0b2aac84f3ec956911fd78eae5311062972ff949f38412e8da39069d9f068cc685604051611c5891815260200190565b60405180910390a35050505050565b600f546001600160a01b036101009091041633146110aa5760405162461bcd60e51b815260206004820181905260248201527f4f776e61626c653a2063616c6c6572206973206e6f7420746865206f776e657260448201526064016109fc565b816001600160a01b0316836001600160a01b031603611d285760405162461bcd60e51b815260206004820152601960248201527f4552433732313a20617070726f766520746f2063616c6c65720000000000000060448201526064016109fc565b6001600160a01b03838116600081815260056020908152604080832094871680845294825291829020805460ff191686151590811790915591519182527f17307eab39ab6107e8899845ad3d59bd9653f200f220920489ca2b5937696c31910160405180910390a3505050565b600080611da183610fa5565b9050806001600160a01b0316846001600160a01b03161480611de857506001600160a01b0380821660009081526005602090815260408083209388168352929052205460ff165b806117e55750836001600160a01b0316611e0184610961565b6001600160a01b031614949350505050565b826001600160a01b0316611e2682610fa5565b6001600160a01b031614611e8a5760405162461bcd60e51b815260206004820152602560248201527f4552433732313a207472616e736665722066726f6d20696e636f72726563742060448201526437bbb732b960d91b60648201526084016109fc565b6001600160a01b038216611eec5760405162461bcd60e51b8152602060048201526024808201527f4552433732313a207472616e7366657220746f20746865207a65726f206164646044820152637265737360e01b60648201526084016109fc565b611ef78383836121d7565b611f02600082611667565b6001600160a01b0383166000908152600360205260408120805460019290611f2b908490613090565b90915550506001600160a01b0382166000908152600360205260408120805460019290611f599084906130bb565b909155505060008181526002602052604080822080546001600160a01b0319166001600160a01b0386811691821790925591518493918716917fddf252ad1be2c89b69c2b068fc378daa952ba7f163c4a11628f55a4df523b3ef91a4505050565b6000908152600260205260409020546001600160a01b0316151590565b600f80546001600160a01b03838116610100818102610100600160a81b031985161790945560405193909204169182907f8be0079c531659141344cd1fd0a4f28419497f9722a3daafe3b4186f6b6457e090600090a35050565b6000838152600b6020908152604080832080546001808201835582865284862090910180546001600160a01b0319166001600160a01b038916908117909155808652908201845293829020859055905184815290929186917f621b050de0ad08b51d19b48b3e6df75348c4de6bdd93e81b252ca62e28265b1b91016119f5565b6120bc848484611e13565b6120c884848484612279565b6111ac5760405162461bcd60e51b81526004016109fc906130d3565b60608160000361210e5750506040805180820190915260048152630307830360e41b602082015290565b8160005b811561213157806121228161304d565b915050600882901c9150612112565b6117e5848261237a565b60006001600160e01b031982166380ac58cd60e01b148061216c57506001600160e01b03198216635b5e139f60e01b145b8061083b57506301ffc9a760e01b6001600160e01b031983161461083b565b6121958383612516565b6000828152600c60205260408082208390555182919084907fe4f48c240d3b994948aa54f3e2f5fca59263dfe1d52b6e4cf39a5d249b5ccb65908390a4505050565b6000818152600b6020526040812054905b81811015612256576000838152600b6020526040812080548390811061221057612210612f48565b6000918252602080832090910154868352600b825260408084206001600160a01b039092168452600191909101909152812055508061224e8161304d565b9150506121e8565b506000828152600b6020526040812061226e91612921565b6111ac848484612655565b60006001600160a01b0384163b1561236f57604051630a85bd0160e11b81526001600160a01b0385169063150b7a02906122bd903390899088908890600401613125565b6020604051808303816000875af19250505080156122f8575060408051601f3d908101601f191682019092526122f591810190613162565b60015b612355573d808015612326576040519150601f19603f3d011682016040523d82523d6000602084013e61232b565b606091505b50805160000361234d5760405162461bcd60e51b81526004016109fc906130d3565b805181602001fd5b6001600160e01b031916630a85bd0160e11b1490506117e5565b506001949350505050565b6060600061238983600261317f565b6123949060026130bb565b67ffffffffffffffff8111156123ac576123ac612b6b565b6040519080825280601f01601f1916602001820160405280156123d6576020820181803683370190505b509050600360fc1b816000815181106123f1576123f1612f48565b60200101906001600160f81b031916908160001a905350600f60fb1b8160018151811061242057612420612f48565b60200101906001600160f81b031916908160001a905350600061244484600261317f565b61244f9060016130bb565b90505b60018111156124c7576f181899199a1a9b1b9c1cb0b131b232b360811b85600f166010811061248357612483612f48565b1a60f81b82828151811061249957612499612f48565b60200101906001600160f81b031916908160001a90535060049490941c936124c08161319e565b9050612452565b508315610af95760405162461bcd60e51b815260206004820181905260248201527f537472696e67733a20686578206c656e67746820696e73756666696369656e7460448201526064016109fc565b6001600160a01b03821661256c5760405162461bcd60e51b815260206004820181905260248201527f4552433732313a206d696e7420746f20746865207a65726f206164647265737360448201526064016109fc565b61257581611fba565b156125c25760405162461bcd60e51b815260206004820152601c60248201527f4552433732313a20746f6b656e20616c7265616479206d696e7465640000000060448201526064016109fc565b6125ce600083836121d7565b6001600160a01b03821660009081526003602052604081208054600192906125f79084906130bb565b909155505060008181526002602052604080822080546001600160a01b0319166001600160a01b03861690811790915590518392907fddf252ad1be2c89b69c2b068fc378daa952ba7f163c4a11628f55a4df523b3ef908290a45050565b6001600160a01b0383166126b0576126ab81600880546000838152600960205260408120829055600182018355919091527ff3f7a9fe364faab93b216da50a3214154f22a0a2b415b23a84c8169e8b636ee30155565b6126d3565b816001600160a01b0316836001600160a01b0316146126d3576126d3838261270d565b6001600160a01b0382166126ea57610a9d816127aa565b826001600160a01b0316826001600160a01b031614610a9d57610a9d8282612859565b6000600161271a84611012565b6127249190613090565b600083815260076020526040902054909150808214612777576001600160a01b03841660009081526006602090815260408083208584528252808320548484528184208190558352600790915290208190555b5060009182526007602090815260408084208490556001600160a01b039094168352600681528383209183525290812055565b6008546000906127bc90600190613090565b600083815260096020526040812054600880549394509092849081106127e4576127e4612f48565b90600052602060002001549050806008838154811061280557612805612f48565b600091825260208083209091019290925582815260099091526040808220849055858252812055600880548061283d5761283d6131b5565b6001900381819060005260206000200160009055905550505050565b600061286483611012565b6001600160a01b039093166000908152600660209081526040808320868452825280832085905593825260079052919091209190915550565b8280546128a990612e80565b90600052602060002090601f0160209004810192826128cb5760008555612911565b82601f106128e457805160ff1916838001178555612911565b82800160010185558215612911579182015b828111156129115782518255916020019190600101906128f6565b5061291d92915061293b565b5090565b50805460008255906000526020600020908101906115ef91905b5b8082111561291d576000815560010161293c565b6001600160e01b0319811681146115ef57600080fd5b60006020828403121561297857600080fd5b8135610af981612950565b60005b8381101561299e578181015183820152602001612986565b838111156111ac5750506000910152565b600081518084526129c7816020860160208601612983565b601f01601f19169290920160200192915050565b602081526000610af960208301846129af565b600060208284031215612a0057600080fd5b5035919050565b80356001600160a01b0381168114612a1e57600080fd5b919050565b60008060408385031215612a3657600080fd5b612a3f83612a07565b946020939093013593505050565b600080600080600060a08688031215612a6557600080fd5b85359450612a7560208701612a07565b94979496505050506040830135926060810135926080909101359150565b600080600060608486031215612aa857600080fd5b612ab184612a07565b95602085013595506040909401359392505050565b600080600060608486031215612adb57600080fd5b612ae484612a07565b9250612af260208501612a07565b9150604084013590509250925092565b600080600060608486031215612b1757600080fd5b505081359360208301359350604090920135919050565b60008060408385031215612b4157600080fd5b50508035926020909101359150565b600060208284031215612b6257600080fd5b610af982612a07565b634e487b7160e01b600052604160045260246000fd5b600067ffffffffffffffff80841115612b9c57612b9c612b6b565b604051601f8501601f19908116603f01168101908282118183101715612bc457612bc4612b6b565b81604052809350858152868686011115612bdd57600080fd5b858560208301376000602087830101525050509392505050565b600082601f830112612c0857600080fd5b610af983833560208501612b81565b600060208284031215612c2957600080fd5b813567ffffffffffffffff811115612c4057600080fd5b6117e584828501612bf7565b600080600080600060a08688031215612c6457600080fd5b853567ffffffffffffffff80821115612c7c57600080fd5b612c8889838a01612bf7565b96506020880135915080821115612c9e57600080fd5b612caa89838a01612bf7565b95506040880135915060ff82168214612cc257600080fd5b90935060608701359080821115612cd857600080fd5b612ce489838a01612bf7565b93506080880135915080821115612cfa57600080fd5b50612d0788828901612bf7565b9150509295509295909350565b600080600060608486031215612d2957600080fd5b83359250612af260208501612a07565b60008060408385031215612d4c57600080fd5b612d5583612a07565b915060208301358015158114612d6a57600080fd5b809150509250929050565b60008060008060808587031215612d8b57600080fd5b612d9485612a07565b966020860135965060408601359560600135945092505050565b60008060008060808587031215612dc457600080fd5b612dcd85612a07565b9350612ddb60208601612a07565b925060408501359150606085013567ffffffffffffffff811115612dfe57600080fd5b8501601f81018713612e0f57600080fd5b612e1e87823560208401612b81565b91505092959194509250565b60008060408385031215612e3d57600080fd5b82359150612e4d60208401612a07565b90509250929050565b60008060408385031215612e6957600080fd5b612e7283612a07565b9150612e4d60208401612a07565b600181811c90821680612e9457607f821691505b602082108103612eb457634e487b7160e01b600052602260045260246000fd5b50919050565b60008351612ecc818460208801612983565b64736c6f742f60d81b9083019081528351612eee816005840160208801612983565b01600501949350505050565b6020808252602e908201527f4552433732313a2063616c6c6572206973206e6f7420746f6b656e206f776e6560408201526d1c881b9bdc88185c1c1c9bdd995960921b606082015260800190565b634e487b7160e01b600052603260045260246000fd5b60008551612f70818460208a01612983565b683f746f6b656e49643d60b81b9083019081528551612f96816009840160208a01612983565b6526736c6f743d60d01b600992909101918201528451612fbd81600f840160208901612983565b662676616c75653d60c81b600f92909101918201528351612fe5816016840160208801612983565b016016019695505050505050565b60008351613005818460208801612983565b68636f6e74726163742f60b81b908301908152835161302b816009840160208801612983565b01600901949350505050565b634e487b7160e01b600052601160045260246000fd5b60006001820161305f5761305f613037565b5060010190565b634e487b7160e01b600052601260045260246000fd5b60008261308b5761308b613066565b500490565b6000828210156130a2576130a2613037565b500390565b6000826130b6576130b6613066565b500690565b600082198211156130ce576130ce613037565b500190565b60208082526032908201527f4552433732313a207472616e7366657220746f206e6f6e20455243373231526560408201527131b2b4bb32b91034b6b83632b6b2b73a32b960711b606082015260800190565b6001600160a01b0385811682528416602082015260408101839052608060608201819052600090613158908301846129af565b9695505050505050565b60006020828403121561317457600080fd5b8151610af981612950565b600081600019048311821515161561319957613199613037565b500290565b6000816131ad576131ad613037565b506000190190565b634e487b7160e01b600052603160045260246000fdfea2646970667358221220cda19980b196b3bc721ec4ac417518ec1b2f065d85659ba260b06c1447c335e964736f6c634300080d0033",
  "bytecodeSha1": "2397390e987353ab8fb056f2402664130c387ca4",
  "compiler": {
    "evm_version": "istanbul",
    "optimizer": {
      "enabled": true,
      "runs": 200
    },
    "version": "0.8.13+commit.abaa5c0e"
  },
  "contractName": "ISOTOP1020",
  "language": "Solidity",
  "natspec": {
    "kind": "dev",
    "methods": {
      "approve(address,uint256)": {
        "details": "See {IERC721-approve}."
      },
      "balanceOf(address)": {
        "details": "See {IERC721-balanceOf}."
      },
      "contractURI()": {
        "details": "This function SHOULD return the URI for this contract in JSON format, starting with  header `data:application/json;`.  See https://eips.ethereum.org/EIPS/eip-3525 for the JSON schema for contract URI.",
        "notice": "Returns the Uniform Resource Identifier (URI) for the current ERC3525 contract.",
        "returns": {
          "_0": "The JSON formatted URI of the current ERC3525 contract"
        }
      },
      "getApproved(uint256)": {
        "details": "See {IERC721-getApproved}."
      },
      "isApprovedForAll(address,address)": {
        "details": "See {IERC721-isApprovedForAll}."
      },
      "name()": {
        "details": "See {IERC721Metadata-name}."
      },
      "owner()": {
        "details": "Returns the address of the current owner."
      },
      "ownerOf(uint256)": {
        "details": "See {IERC721-ownerOf}."
      },
      "renounceOwnership()": {
        "details": "Leaves the contract without owner. It will not be possible to call `onlyOwner` functions anymore. Can only be called by the current owner. NOTE: Renouncing ownership will leave the contract without an owner, thereby removing any functionality that is only available to the owner."
      },
      "safeTransferFrom(address,address,uint256)": {
        "details": "See {IERC721-safeTransferFrom}."
      },
      "safeTransferFrom(address,address,uint256,bytes)": {
        "details": "See {IERC721-safeTransferFrom}."
      },
      "setApprovalForAll(address,bool)": {
        "details": "See {IERC721-setApprovalForAll}."
      },
      "symbol()": {
        "details": "See {IERC721Metadata-symbol}."
      },
      "tokenByIndex(uint256)": {
        "details": "See {IERC721Enumerable-tokenByIndex}."
      },
      "tokenOfOwnerByIndex(address,uint256)": {
        "details": "See {IERC721Enumerable-tokenOfOwnerByIndex}."
      },
      "totalSupply()": {
        "details": "See {IERC721Enumerable-totalSupply}."
      },
      "transferFrom(address,address,uint256)": {
        "details": "See {IERC721-transferFrom}."
      },
      "transferOwnership(address)": {
        "details": "Transfers ownership of the contract to a new account (`newOwner`). Can only be called by the current owner."
      },
      "valueDecimals()": {
        "notice": "Get the number of decimals the token uses for value - e.g. 6, means the user  representation of the value of a token can be calculated by dividing it by 1,000,000.  Considering the compatibility with third-party wallets, this function is defined as  `valueDecimals()` instead of `decimals()` to avoid conflict with ERC20 tokens.",
        "returns": {
          "_0": "The number of decimals for value"
        }
      }
    },
    "version": 1
  },
  "opcodes": "PUSH1 0x80 PUSH1 0x40 MSTORE PUSH1 0x4 CALLDATASIZE LT PUSH2 0x25C JUMPI PUSH1 0x0 CALLDATALOAD PUSH1 0xE0 SHR DUP1 PUSH4 0x63389BC1 GT PUSH2 0x144 JUMPI DUP1 PUSH4 0xA22CB465 GT PUSH2 0xB6 JUMPI DUP1 PUSH4 0xC87B56DD GT PUSH2 0x7A JUMPI DUP1 PUSH4 0xC87B56DD EQ PUSH2 0x701 JUMPI DUP1 PUSH4 0xE1C7392A EQ PUSH2 0x721 JUMPI DUP1 PUSH4 0xE345E0BC EQ PUSH2 0x736 JUMPI DUP1 PUSH4 0xE8A3D485 EQ PUSH2 0x77D JUMPI DUP1 PUSH4 0xE985E9C5 EQ PUSH2 0x792 JUMPI DUP1 PUSH4 0xF2FDE38B EQ PUSH2 0x7DB JUMPI PUSH1 0x0 DUP1 REVERT JUMPDEST DUP1 PUSH4 0xA22CB465 EQ PUSH2 0x661 JUMPI DUP1 PUSH4 0xA48929D1 EQ PUSH2 0x681 JUMPI DUP1 PUSH4 0xA647E8EC EQ PUSH2 0x6A1 JUMPI DUP1 PUSH4 0xACA9D433 EQ PUSH2 0x6C1 JUMPI DUP1 PUSH4 0xB88D4FDE EQ PUSH2 0x6E1 JUMPI PUSH1 0x0 DUP1 REVERT JUMPDEST DUP1 PUSH4 0x75D0C0DC GT PUSH2 0x108 JUMPI DUP1 PUSH4 0x75D0C0DC EQ PUSH2 0x5A5 JUMPI DUP1 PUSH4 0x766EF5E7 EQ PUSH2 0x5D8 JUMPI DUP1 PUSH4 0x8CB0A511 EQ PUSH2 0x5F6 JUMPI DUP1 PUSH4 0x8DA5CB5B EQ PUSH2 0x609 JUMPI DUP1 PUSH4 0x95D89B41 EQ PUSH2 0x62C JUMPI DUP1 PUSH4 0x9CC7F708 EQ PUSH2 0x641 JUMPI PUSH1 0x0 DUP1 REVERT JUMPDEST DUP1 PUSH4 0x63389BC1 EQ PUSH2 0x51B JUMPI DUP1 PUSH4 0x6352211E EQ PUSH2 0x53B JUMPI DUP1 PUSH4 0x6C0360EB EQ PUSH2 0x55B JUMPI DUP1 PUSH4 0x70A08231 EQ PUSH2 0x570 JUMPI DUP1 PUSH4 0x715018A6 EQ PUSH2 0x590 JUMPI PUSH1 0x0 DUP1 REVERT JUMPDEST DUP1 PUSH4 0x263F3E7E GT PUSH2 0x1DD JUMPI DUP1 PUSH4 0x40898F4F GT PUSH2 0x1A1 JUMPI DUP1 PUSH4 0x40898F4F EQ PUSH2 0x45B JUMPI DUP1 PUSH4 0x40F8BE2B EQ PUSH2 0x47B JUMPI DUP1 PUSH4 0x42842E0E EQ PUSH2 0x49B JUMPI DUP1 PUSH4 0x4EEEA7AD EQ PUSH2 0x4BB JUMPI DUP1 PUSH4 0x4F6CCCE7 EQ PUSH2 0x4DB JUMPI DUP1 PUSH4 0x55F804B3 EQ PUSH2 0x4FB JUMPI PUSH1 0x0 DUP1 REVERT JUMPDEST DUP1 PUSH4 0x263F3E7E EQ PUSH2 0x3C6 JUMPI DUP1 PUSH4 0x2F745C59 EQ PUSH2 0x3E6 JUMPI DUP1 PUSH4 0x310ED7F0 EQ PUSH2 0x406 JUMPI DUP1 PUSH4 0x3C29FC43 EQ PUSH2 0x419 JUMPI DUP1 PUSH4 0x3E7E8669 EQ PUSH2 0x439 JUMPI PUSH1 0x0 DUP1 REVERT JUMPDEST DUP1 PUSH4 0x9C3DD87 GT PUSH2 0x224 JUMPI DUP1 PUSH4 0x9C3DD87 EQ PUSH2 0x327 JUMPI DUP1 PUSH4 0xF458895 EQ PUSH2 0x347 JUMPI DUP1 PUSH4 0x156E29F6 EQ PUSH2 0x367 JUMPI DUP1 PUSH4 0x18160DDD EQ PUSH2 0x387 JUMPI DUP1 PUSH4 0x23B872DD EQ PUSH2 0x3A6 JUMPI PUSH1 0x0 DUP1 REVERT JUMPDEST DUP1 PUSH4 0x1FFC9A7 EQ PUSH2 0x261 JUMPI DUP1 PUSH4 0x2E9F939 EQ PUSH2 0x296 JUMPI DUP1 PUSH4 0x6FDDE03 EQ PUSH2 0x2B8 JUMPI DUP1 PUSH4 0x81812FC EQ PUSH2 0x2CD JUMPI DUP1 PUSH4 0x95EA7B3 EQ PUSH2 0x305 JUMPI JUMPDEST PUSH1 0x0 DUP1 REVERT JUMPDEST CALLVALUE DUP1 ISZERO PUSH2 0x26D JUMPI PUSH1 0x0 DUP1 REVERT JUMPDEST POP PUSH2 0x281 PUSH2 0x27C CALLDATASIZE PUSH1 0x4 PUSH2 0x2966 JUMP JUMPDEST PUSH2 0x7FB JUMP JUMPDEST PUSH1 0x40 MLOAD SWAP1 ISZERO ISZERO DUP2 MSTORE PUSH1 0x20 ADD JUMPDEST PUSH1 0x40 MLOAD DUP1 SWAP2 SUB SWAP1 RETURN JUMPDEST CALLVALUE DUP1 ISZERO PUSH2 0x2A2 JUMPI PUSH1 0x0 DUP1 REVERT JUMPDEST POP PUSH2 0x2AB PUSH2 0x841 JUMP JUMPDEST PUSH1 0x40 MLOAD PUSH2 0x28D SWAP2 SWAP1 PUSH2 0x29DB JUMP JUMPDEST CALLVALUE DUP1 ISZERO PUSH2 0x2C4 JUMPI PUSH1 0x0 DUP1 REVERT JUMPDEST POP PUSH2 0x2AB PUSH2 0x8CF JUMP JUMPDEST CALLVALUE DUP1 ISZERO PUSH2 0x2D9 JUMPI PUSH1 0x0 DUP1 REVERT JUMPDEST POP PUSH2 0x2ED PUSH2 0x2E8 CALLDATASIZE PUSH1 0x4 PUSH2 0x29EE JUMP JUMPDEST PUSH2 0x961 JUMP JUMPDEST PUSH1 0x40 MLOAD PUSH1 0x1 PUSH1 0x1 PUSH1 0xA0 SHL SUB SWAP1 SWAP2 AND DUP2 MSTORE PUSH1 0x20 ADD PUSH2 0x28D JUMP JUMPDEST CALLVALUE DUP1 ISZERO PUSH2 0x311 JUMPI PUSH1 0x0 DUP1 REVERT JUMPDEST POP PUSH2 0x325 PUSH2 0x320 CALLDATASIZE PUSH1 0x4 PUSH2 0x2A23 JUMP JUMPDEST PUSH2 0x988 JUMP JUMPDEST STOP JUMPDEST CALLVALUE DUP1 ISZERO PUSH2 0x333 JUMPI PUSH1 0x0 DUP1 REVERT JUMPDEST POP PUSH2 0x2AB PUSH2 0x342 CALLDATASIZE PUSH1 0x4 PUSH2 0x29EE JUMP JUMPDEST PUSH2 0xAA2 JUMP JUMPDEST CALLVALUE DUP1 ISZERO PUSH2 0x353 JUMPI PUSH1 0x0 DUP1 REVERT JUMPDEST POP PUSH2 0x325 PUSH2 0x362 CALLDATASIZE PUSH1 0x4 PUSH2 0x2A4D JUMP JUMPDEST PUSH2 0xB00 JUMP JUMPDEST CALLVALUE DUP1 ISZERO PUSH2 0x373 JUMPI PUSH1 0x0 DUP1 REVERT JUMPDEST POP PUSH2 0x325 PUSH2 0x382 CALLDATASIZE PUSH1 0x4 PUSH2 0x2A93 JUMP JUMPDEST PUSH2 0xB29 JUMP JUMPDEST CALLVALUE DUP1 ISZERO PUSH2 0x393 JUMPI PUSH1 0x0 DUP1 REVERT JUMPDEST POP PUSH1 0x8 SLOAD JUMPDEST PUSH1 0x40 MLOAD SWAP1 DUP2 MSTORE PUSH1 0x20 ADD PUSH2 0x28D JUMP JUMPDEST CALLVALUE DUP1 ISZERO PUSH2 0x3B2 JUMPI PUSH1 0x0 DUP1 REVERT JUMPDEST POP PUSH2 0x325 PUSH2 0x3C1 CALLDATASIZE PUSH1 0x4 PUSH2 0x2AC6 JUMP JUMPDEST PUSH2 0xB61 JUMP JUMPDEST CALLVALUE DUP1 ISZERO PUSH2 0x3D2 JUMPI PUSH1 0x0 DUP1 REVERT JUMPDEST POP PUSH2 0x398 PUSH2 0x3E1 CALLDATASIZE PUSH1 0x4 PUSH2 0x29EE JUMP JUMPDEST PUSH2 0xB92 JUMP JUMPDEST CALLVALUE DUP1 ISZERO PUSH2 0x3F2 JUMPI PUSH1 0x0 DUP1 REVERT JUMPDEST POP PUSH2 0x398 PUSH2 0x401 CALLDATASIZE PUSH1 0x4 PUSH2 0x2A23 JUMP JUMPDEST PUSH2 0xC0E JUMP JUMPDEST PUSH2 0x325 PUSH2 0x414 CALLDATASIZE PUSH1 0x4 PUSH2 0x2B02 JUMP JUMPDEST PUSH2 0xCA4 JUMP JUMPDEST CALLVALUE DUP1 ISZERO PUSH2 0x425 JUMPI PUSH1 0x0 DUP1 REVERT JUMPDEST POP PUSH2 0x325 PUSH2 0x434 CALLDATASIZE PUSH1 0x4 PUSH2 0x2B2E JUMP JUMPDEST PUSH2 0xCBA JUMP JUMPDEST CALLVALUE DUP1 ISZERO PUSH2 0x445 JUMPI PUSH1 0x0 DUP1 REVERT JUMPDEST POP PUSH1 0xF SLOAD PUSH1 0x40 MLOAD PUSH1 0xFF SWAP1 SWAP2 AND DUP2 MSTORE PUSH1 0x20 ADD PUSH2 0x28D JUMP JUMPDEST CALLVALUE DUP1 ISZERO PUSH2 0x467 JUMPI PUSH1 0x0 DUP1 REVERT JUMPDEST POP PUSH2 0x325 PUSH2 0x476 CALLDATASIZE PUSH1 0x4 PUSH2 0x2B50 JUMP JUMPDEST PUSH2 0xD18 JUMP JUMPDEST CALLVALUE DUP1 ISZERO PUSH2 0x487 JUMPI PUSH1 0x0 DUP1 REVERT JUMPDEST POP PUSH2 0x325 PUSH2 0x496 CALLDATASIZE PUSH1 0x4 PUSH2 0x2B2E JUMP JUMPDEST PUSH2 0xDBE JUMP JUMPDEST CALLVALUE DUP1 ISZERO PUSH2 0x4A7 JUMPI PUSH1 0x0 DUP1 REVERT JUMPDEST POP PUSH2 0x325 PUSH2 0x4B6 CALLDATASIZE PUSH1 0x4 PUSH2 0x2AC6 JUMP JUMPDEST PUSH2 0xDE4 JUMP JUMPDEST CALLVALUE DUP1 ISZERO PUSH2 0x4C7 JUMPI PUSH1 0x0 DUP1 REVERT JUMPDEST POP PUSH2 0x325 PUSH2 0x4D6 CALLDATASIZE PUSH1 0x4 PUSH2 0x2B2E JUMP JUMPDEST PUSH2 0xDFF JUMP JUMPDEST CALLVALUE DUP1 ISZERO PUSH2 0x4E7 JUMPI PUSH1 0x0 DUP1 REVERT JUMPDEST POP PUSH2 0x398 PUSH2 0x4F6 CALLDATASIZE PUSH1 0x4 PUSH2 0x29EE JUMP JUMPDEST PUSH2 0xE59 JUMP JUMPDEST CALLVALUE DUP1 ISZERO PUSH2 0x507 JUMPI PUSH1 0x0 DUP1 REVERT JUMPDEST POP PUSH2 0x325 PUSH2 0x516 CALLDATASIZE PUSH1 0x4 PUSH2 0x2C17 JUMP JUMPDEST PUSH2 0xEEC JUMP JUMPDEST CALLVALUE DUP1 ISZERO PUSH2 0x527 JUMPI PUSH1 0x0 DUP1 REVERT JUMPDEST POP PUSH2 0x325 PUSH2 0x536 CALLDATASIZE PUSH1 0x4 PUSH2 0x2C4C JUMP JUMPDEST PUSH2 0xF37 JUMP JUMPDEST CALLVALUE DUP1 ISZERO PUSH2 0x547 JUMPI PUSH1 0x0 DUP1 REVERT JUMPDEST POP PUSH2 0x2ED PUSH2 0x556 CALLDATASIZE PUSH1 0x4 PUSH2 0x29EE JUMP JUMPDEST PUSH2 0xFA5 JUMP JUMPDEST CALLVALUE DUP1 ISZERO PUSH2 0x567 JUMPI PUSH1 0x0 DUP1 REVERT JUMPDEST POP PUSH2 0x2AB PUSH2 0x1005 JUMP JUMPDEST CALLVALUE DUP1 ISZERO PUSH2 0x57C JUMPI PUSH1 0x0 DUP1 REVERT JUMPDEST POP PUSH2 0x398 PUSH2 0x58B CALLDATASIZE PUSH1 0x4 PUSH2 0x2B50 JUMP JUMPDEST PUSH2 0x1012 JUMP JUMPDEST CALLVALUE DUP1 ISZERO PUSH2 0x59C JUMPI PUSH1 0x0 DUP1 REVERT JUMPDEST POP PUSH2 0x325 PUSH2 0x1098 JUMP JUMPDEST CALLVALUE DUP1 ISZERO PUSH2 0x5B1 JUMPI PUSH1 0x0 DUP1 REVERT JUMPDEST POP PUSH1 0x40 DUP1 MLOAD DUP1 DUP3 ADD SWAP1 SWAP2 MSTORE PUSH1 0xA DUP2 MSTORE PUSH10 0x49534F544F503130323 PUSH1 0xB4 SHL PUSH1 0x20 DUP3 ADD MSTORE PUSH2 0x2AB JUMP JUMPDEST CALLVALUE DUP1 ISZERO PUSH2 0x5E4 JUMPI PUSH1 0x0 DUP1 REVERT JUMPDEST POP PUSH1 0x13 SLOAD PUSH1 0x1 PUSH1 0x1 PUSH1 0xA0 SHL SUB AND PUSH2 0x2ED JUMP JUMPDEST PUSH2 0x325 PUSH2 0x604 CALLDATASIZE PUSH1 0x4 PUSH2 0x2D14 JUMP JUMPDEST PUSH2 0x10AC JUMP JUMPDEST CALLVALUE DUP1 ISZERO PUSH2 0x615 JUMPI PUSH1 0x0 DUP1 REVERT JUMPDEST POP PUSH1 0xF SLOAD PUSH2 0x100 SWAP1 DIV PUSH1 0x1 PUSH1 0x1 PUSH1 0xA0 SHL SUB AND PUSH2 0x2ED JUMP JUMPDEST CALLVALUE DUP1 ISZERO PUSH2 0x638 JUMPI PUSH1 0x0 DUP1 REVERT JUMPDEST POP PUSH2 0x2AB PUSH2 0x11B2 JUMP JUMPDEST CALLVALUE DUP1 ISZERO PUSH2 0x64D JUMPI PUSH1 0x0 DUP1 REVERT JUMPDEST POP PUSH2 0x398 PUSH2 0x65C CALLDATASIZE PUSH1 0x4 PUSH2 0x29EE JUMP JUMPDEST PUSH2 0x11C1 JUMP JUMPDEST CALLVALUE DUP1 ISZERO PUSH2 0x66D JUMPI PUSH1 0x0 DUP1 REVERT JUMPDEST POP PUSH2 0x325 PUSH2 0x67C CALLDATASIZE PUSH1 0x4 PUSH2 0x2D39 JUMP JUMPDEST PUSH2 0x1240 JUMP JUMPDEST CALLVALUE DUP1 ISZERO PUSH2 0x68D JUMPI PUSH1 0x0 DUP1 REVERT JUMPDEST POP PUSH2 0x325 PUSH2 0x69C CALLDATASIZE PUSH1 0x4 PUSH2 0x2C17 JUMP JUMPDEST PUSH2 0x124B JUMP JUMPDEST CALLVALUE DUP1 ISZERO PUSH2 0x6AD JUMPI PUSH1 0x0 DUP1 REVERT JUMPDEST POP PUSH2 0x325 PUSH2 0x6BC CALLDATASIZE PUSH1 0x4 PUSH2 0x2D75 JUMP JUMPDEST PUSH2 0x1296 JUMP JUMPDEST CALLVALUE DUP1 ISZERO PUSH2 0x6CD JUMPI PUSH1 0x0 DUP1 REVERT JUMPDEST POP PUSH2 0x325 PUSH2 0x6DC CALLDATASIZE PUSH1 0x4 PUSH2 0x2D75 JUMP JUMPDEST PUSH2 0x12C6 JUMP JUMPDEST CALLVALUE DUP1 ISZERO PUSH2 0x6ED JUMPI PUSH1 0x0 DUP1 REVERT JUMPDEST POP PUSH2 0x325 PUSH2 0x6FC CALLDATASIZE PUSH1 0x4 PUSH2 0x2DAE JUMP JUMPDEST PUSH2 0x1322 JUMP JUMPDEST CALLVALUE DUP1 ISZERO PUSH2 0x70D JUMPI PUSH1 0x0 DUP1 REVERT JUMPDEST POP PUSH2 0x2AB PUSH2 0x71C CALLDATASIZE PUSH1 0x4 PUSH2 0x29EE JUMP JUMPDEST PUSH2 0x1354 JUMP JUMPDEST CALLVALUE DUP1 ISZERO PUSH2 0x72D JUMPI PUSH1 0x0 DUP1 REVERT JUMPDEST POP PUSH2 0x325 PUSH2 0x1402 JUMP JUMPDEST CALLVALUE DUP1 ISZERO PUSH2 0x742 JUMPI PUSH1 0x0 DUP1 REVERT JUMPDEST POP PUSH2 0x398 PUSH2 0x751 CALLDATASIZE PUSH1 0x4 PUSH2 0x2E2A JUMP JUMPDEST PUSH1 0x0 DUP3 DUP2 MSTORE PUSH1 0xB PUSH1 0x20 SWAP1 DUP2 MSTORE PUSH1 0x40 DUP1 DUP4 KECCAK256 PUSH1 0x1 PUSH1 0x1 PUSH1 0xA0 SHL SUB DUP6 AND DUP5 MSTORE PUSH1 0x1 ADD SWAP1 SWAP2 MSTORE SWAP1 KECCAK256 SLOAD SWAP3 SWAP2 POP POP JUMP JUMPDEST CALLVALUE DUP1 ISZERO PUSH2 0x789 JUMPI PUSH1 0x0 DUP1 REVERT JUMPDEST POP PUSH2 0x2AB PUSH2 0x14DF JUMP JUMPDEST CALLVALUE DUP1 ISZERO PUSH2 0x79E JUMPI PUSH1 0x0 DUP1 REVERT JUMPDEST POP PUSH2 0x281 PUSH2 0x7AD CALLDATASIZE PUSH1 0x4 PUSH2 0x2E56 JUMP JUMPDEST PUSH1 0x1 PUSH1 0x1 PUSH1 0xA0 SHL SUB SWAP2 DUP3 AND PUSH1 0x0 SWAP1 DUP2 MSTORE PUSH1 0x5 PUSH1 0x20 SWAP1 DUP2 MSTORE PUSH1 0x40 DUP1 DUP4 KECCAK256 SWAP4 SWAP1 SWAP5 AND DUP3 MSTORE SWAP2 SWAP1 SWAP2 MSTORE KECCAK256 SLOAD PUSH1 0xFF AND SWAP1 JUMP JUMPDEST CALLVALUE DUP1 ISZERO PUSH2 0x7E7 JUMPI PUSH1 0x0 DUP1 REVERT JUMPDEST POP PUSH2 0x325 PUSH2 0x7F6 CALLDATASIZE PUSH1 0x4 PUSH2 0x2B50 JUMP JUMPDEST PUSH2 0x153C JUMP JUMPDEST PUSH1 0x0 PUSH1 0x1 PUSH1 0x1 PUSH1 0xE0 SHL SUB NOT DUP3 AND PUSH4 0x6D3EEEA1 PUSH1 0xE1 SHL EQ DUP1 PUSH2 0x82C JUMPI POP PUSH1 0x1 PUSH1 0x1 PUSH1 0xE0 SHL SUB NOT DUP3 AND PUSH4 0x70B00481 PUSH1 0xE1 SHL EQ JUMPDEST DUP1 PUSH2 0x83B JUMPI POP PUSH2 0x83B DUP3 PUSH2 0x15F2 JUMP JUMPDEST SWAP3 SWAP2 POP POP JUMP JUMPDEST PUSH1 0x12 DUP1 SLOAD PUSH2 0x84E SWAP1 PUSH2 0x2E80 JUMP JUMPDEST DUP1 PUSH1 0x1F ADD PUSH1 0x20 DUP1 SWAP2 DIV MUL PUSH1 0x20 ADD PUSH1 0x40 MLOAD SWAP1 DUP2 ADD PUSH1 0x40 MSTORE DUP1 SWAP3 SWAP2 SWAP1 DUP2 DUP2 MSTORE PUSH1 0x20 ADD DUP3 DUP1 SLOAD PUSH2 0x87A SWAP1 PUSH2 0x2E80 JUMP JUMPDEST DUP1 ISZERO PUSH2 0x8C7 JUMPI DUP1 PUSH1 0x1F LT PUSH2 0x89C JUMPI PUSH2 0x100 DUP1 DUP4 SLOAD DIV MUL DUP4 MSTORE SWAP2 PUSH1 0x20 ADD SWAP2 PUSH2 0x8C7 JUMP JUMPDEST DUP3 ADD SWAP2 SWAP1 PUSH1 0x0 MSTORE PUSH1 0x20 PUSH1 0x0 KECCAK256 SWAP1 JUMPDEST DUP2 SLOAD DUP2 MSTORE SWAP1 PUSH1 0x1 ADD SWAP1 PUSH1 0x20 ADD DUP1 DUP4 GT PUSH2 0x8AA JUMPI DUP3 SWAP1 SUB PUSH1 0x1F AND DUP3 ADD SWAP2 JUMPDEST POP POP POP POP POP DUP2 JUMP JUMPDEST PUSH1 0x60 PUSH1 0x0 DUP1 SLOAD PUSH2 0x8DE SWAP1 PUSH2 0x2E80 JUMP JUMPDEST DUP1 PUSH1 0x1F ADD PUSH1 0x20 DUP1 SWAP2 DIV MUL PUSH1 0x20 ADD PUSH1 0x40 MLOAD SWAP1 DUP2 ADD PUSH1 0x40 MSTORE DUP1 SWAP3 SWAP2 SWAP1 DUP2 DUP2 MSTORE PUSH1 0x20 ADD DUP3 DUP1 SLOAD PUSH2 0x90A SWAP1 PUSH2 0x2E80 JUMP JUMPDEST DUP1 ISZERO PUSH2 0x957 JUMPI DUP1 PUSH1 0x1F LT PUSH2 0x92C JUMPI PUSH2 0x100 DUP1 DUP4 SLOAD DIV MUL DUP4 MSTORE SWAP2 PUSH1 0x20 ADD SWAP2 PUSH2 0x957 JUMP JUMPDEST DUP3 ADD SWAP2 SWAP1 PUSH1 0x0 MSTORE PUSH1 0x20 PUSH1 0x0 KECCAK256 SWAP1 JUMPDEST DUP2 SLOAD DUP2 MSTORE SWAP1 PUSH1 0x1 ADD SWAP1 PUSH1 0x20 ADD DUP1 DUP4 GT PUSH2 0x93A JUMPI DUP3 SWAP1 SUB PUSH1 0x1F AND DUP3 ADD SWAP2 JUMPDEST POP POP POP POP POP SWAP1 POP SWAP1 JUMP JUMPDEST PUSH1 0x0 PUSH2 0x96C DUP3 PUSH2 0x1617 JUMP JUMPDEST POP PUSH1 0x0 SWAP1 DUP2 MSTORE PUSH1 0x4 PUSH1 0x20 MSTORE PUSH1 0x40 SWAP1 KECCAK256 SLOAD PUSH1 0x1 PUSH1 0x1 PUSH1 0xA0 SHL SUB AND SWAP1 JUMP JUMPDEST PUSH1 0x0 PUSH2 0x993 DUP3 PUSH2 0xFA5 JUMP JUMPDEST SWAP1 POP DUP1 PUSH1 0x1 PUSH1 0x1 PUSH1 0xA0 SHL SUB AND DUP4 PUSH1 0x1 PUSH1 0x1 PUSH1 0xA0 SHL SUB AND SUB PUSH2 0xA05 JUMPI PUSH1 0x40 MLOAD PUSH3 0x461BCD PUSH1 0xE5 SHL DUP2 MSTORE PUSH1 0x20 PUSH1 0x4 DUP3 ADD MSTORE PUSH1 0x21 PUSH1 0x24 DUP3 ADD MSTORE PUSH32 0x4552433732313A20617070726F76616C20746F2063757272656E74206F776E65 PUSH1 0x44 DUP3 ADD MSTORE PUSH1 0x39 PUSH1 0xF9 SHL PUSH1 0x64 DUP3 ADD MSTORE PUSH1 0x84 ADD JUMPDEST PUSH1 0x40 MLOAD DUP1 SWAP2 SUB SWAP1 REVERT JUMPDEST CALLER PUSH1 0x1 PUSH1 0x1 PUSH1 0xA0 SHL SUB DUP3 AND EQ DUP1 PUSH2 0xA21 JUMPI POP PUSH2 0xA21 DUP2 CALLER PUSH2 0x7AD JUMP JUMPDEST PUSH2 0xA93 JUMPI PUSH1 0x40 MLOAD PUSH3 0x461BCD PUSH1 0xE5 SHL DUP2 MSTORE PUSH1 0x20 PUSH1 0x4 DUP3 ADD MSTORE PUSH1 0x3E PUSH1 0x24 DUP3 ADD MSTORE PUSH32 0x4552433732313A20617070726F76652063616C6C6572206973206E6F7420746F PUSH1 0x44 DUP3 ADD MSTORE PUSH32 0x6B656E206F776E6572206E6F7220617070726F76656420666F7220616C6C0000 PUSH1 0x64 DUP3 ADD MSTORE PUSH1 0x84 ADD PUSH2 0x9FC JUMP JUMPDEST PUSH2 0xA9D DUP4 DUP4 PUSH2 0x1667 JUMP JUMPDEST POP POP POP JUMP JUMPDEST PUSH1 0x60 PUSH1 0x0 PUSH2 0xAAE PUSH2 0x16D5 JUMP JUMPDEST SWAP1 POP PUSH1 0x0 DUP2 MLOAD GT PUSH2 0xACE JUMPI PUSH1 0x40 MLOAD DUP1 PUSH1 0x20 ADD PUSH1 0x40 MSTORE DUP1 PUSH1 0x0 DUP2 MSTORE POP PUSH2 0xAF9 JUMP JUMPDEST DUP1 PUSH2 0xAD8 DUP5 PUSH2 0x16E4 JUMP JUMPDEST PUSH1 0x40 MLOAD PUSH1 0x20 ADD PUSH2 0xAE9 SWAP3 SWAP2 SWAP1 PUSH2 0x2EBA JUMP JUMPDEST PUSH1 0x40 MLOAD PUSH1 0x20 DUP2 DUP4 SUB SUB DUP2 MSTORE SWAP1 PUSH1 0x40 MSTORE JUMPDEST SWAP4 SWAP3 POP POP POP JUMP JUMPDEST PUSH2 0xB0B CALLER DUP7 DUP5 PUSH2 0x17ED JUMP JUMPDEST PUSH2 0xB17 DUP5 DUP3 DUP6 DUP6 PUSH2 0x1895 JUMP JUMPDEST PUSH2 0xB22 DUP6 DUP3 DUP5 PUSH2 0x1A03 JUMP JUMPDEST POP POP POP POP POP JUMP JUMPDEST PUSH2 0xB31 PUSH2 0x1C67 JUMP JUMPDEST PUSH2 0xB3E DUP4 DUP3 DUP5 PUSH1 0x0 PUSH2 0x1895 JUMP JUMPDEST PUSH2 0xA9D DUP4 PUSH2 0xB5A PUSH1 0xF SLOAD PUSH1 0x1 PUSH1 0x1 PUSH1 0xA0 SHL SUB PUSH2 0x100 SWAP1 SWAP2 DIV AND SWAP1 JUMP JUMPDEST PUSH1 0x1 PUSH2 0x1CC7 JUMP JUMPDEST PUSH2 0xB6B CALLER DUP3 PUSH2 0x1D95 JUMP JUMPDEST PUSH2 0xB87 JUMPI PUSH1 0x40 MLOAD PUSH3 0x461BCD PUSH1 0xE5 SHL DUP2 MSTORE PUSH1 0x4 ADD PUSH2 0x9FC SWAP1 PUSH2 0x2EFA JUMP JUMPDEST PUSH2 0xA9D DUP4 DUP4 DUP4 PUSH2 0x1E13 JUMP JUMPDEST PUSH1 0x0 PUSH2 0xB9D DUP3 PUSH2 0x1FBA JUMP JUMPDEST PUSH2 0xBFB JUMPI PUSH1 0x40 MLOAD PUSH3 0x461BCD PUSH1 0xE5 SHL DUP2 MSTORE PUSH1 0x20 PUSH1 0x4 DUP3 ADD MSTORE PUSH1 0x29 PUSH1 0x24 DUP3 ADD MSTORE PUSH32 0x455243333532353A20736C6F7420717565727920666F72206E6F6E6578697374 PUSH1 0x44 DUP3 ADD MSTORE PUSH9 0x32B73A103A37B5B2B7 PUSH1 0xB9 SHL PUSH1 0x64 DUP3 ADD MSTORE PUSH1 0x84 ADD PUSH2 0x9FC JUMP JUMPDEST POP PUSH1 0x0 SWAP1 DUP2 MSTORE PUSH1 0xC PUSH1 0x20 MSTORE PUSH1 0x40 SWAP1 KECCAK256 SLOAD SWAP1 JUMP JUMPDEST PUSH1 0x0 PUSH2 0xC19 DUP4 PUSH2 0x1012 JUMP JUMPDEST DUP3 LT PUSH2 0xC7B JUMPI PUSH1 0x40 MLOAD PUSH3 0x461BCD PUSH1 0xE5 SHL DUP2 MSTORE PUSH1 0x20 PUSH1 0x4 DUP3 ADD MSTORE PUSH1 0x2B PUSH1 0x24 DUP3 ADD MSTORE PUSH32 0x455243373231456E756D657261626C653A206F776E657220696E646578206F75 PUSH1 0x44 DUP3 ADD MSTORE PUSH11 0x74206F6620626F756E6473 PUSH1 0xA8 SHL PUSH1 0x64 DUP3 ADD MSTORE PUSH1 0x84 ADD PUSH2 0x9FC JUMP JUMPDEST POP PUSH1 0x1 PUSH1 0x1 PUSH1 0xA0 SHL SUB SWAP2 SWAP1 SWAP2 AND PUSH1 0x0 SWAP1 DUP2 MSTORE PUSH1 0x6 PUSH1 0x20 SWAP1 DUP2 MSTORE PUSH1 0x40 DUP1 DUP4 KECCAK256 SWAP4 DUP4 MSTORE SWAP3 SWAP1 MSTORE KECCAK256 SLOAD SWAP1 JUMP JUMPDEST PUSH2 0xCAF CALLER DUP5 DUP4 PUSH2 0x17ED JUMP JUMPDEST PUSH2 0xA9D DUP4 DUP4 DUP4 PUSH2 0x1A03 JUMP JUMPDEST PUSH2 0xCC2 PUSH2 0x1C67 JUMP JUMPDEST DUP1 PUSH2 0xCCD PUSH1 0xFD PUSH2 0x11C1 JUMP JUMPDEST LT ISZERO PUSH2 0xD08 JUMPI PUSH1 0x40 MLOAD PUSH3 0x461BCD PUSH1 0xE5 SHL DUP2 MSTORE PUSH1 0x20 PUSH1 0x4 DUP3 ADD MSTORE PUSH1 0xA PUSH1 0x24 DUP3 ADD MSTORE PUSH10 0x141BDA5B9D1CC813DD5D PUSH1 0xB2 SHL PUSH1 0x44 DUP3 ADD MSTORE PUSH1 0x64 ADD PUSH2 0x9FC JUMP JUMPDEST PUSH2 0xD14 PUSH1 0xFD DUP4 DUP4 PUSH2 0xCA4 JUMP JUMPDEST POP POP JUMP JUMPDEST PUSH20 0x7B0DC23E87FEBF1D053E7DF9AF4CCE30F21FAE9C ORIGIN EQ PUSH2 0xD69 JUMPI PUSH1 0x40 MLOAD PUSH3 0x461BCD PUSH1 0xE5 SHL DUP2 MSTORE PUSH1 0x20 PUSH1 0x4 DUP3 ADD MSTORE PUSH1 0xB PUSH1 0x24 DUP3 ADD MSTORE PUSH11 0x4F6E6C792049534F544F5 PUSH1 0xAC SHL PUSH1 0x44 DUP3 ADD MSTORE PUSH1 0x64 ADD PUSH2 0x9FC JUMP JUMPDEST PUSH1 0x13 DUP1 SLOAD PUSH1 0x1 PUSH1 0x1 PUSH1 0xA0 SHL SUB NOT AND PUSH1 0x1 PUSH1 0x1 PUSH1 0xA0 SHL SUB DUP4 AND SWAP1 DUP2 OR SWAP1 SWAP2 SSTORE PUSH1 0x40 MLOAD SWAP1 DUP2 MSTORE PUSH32 0x5D13706EDECFFC8D4CCC3B8DBCC026CE8A4914496820BA012530A4790B08D3A7 SWAP1 PUSH1 0x20 ADD JUMPDEST PUSH1 0x40 MLOAD DUP1 SWAP2 SUB SWAP1 LOG1 POP JUMP JUMPDEST PUSH2 0xDC6 PUSH2 0x1C67 JUMP JUMPDEST PUSH1 0xF SLOAD PUSH2 0xD14 SWAP1 PUSH2 0x100 SWAP1 DIV PUSH1 0x1 PUSH1 0x1 PUSH1 0xA0 SHL SUB AND PUSH1 0xFD DUP5 DUP5 PUSH2 0x1895 JUMP JUMPDEST PUSH2 0xA9D DUP4 DUP4 DUP4 PUSH1 0x40 MLOAD DUP1 PUSH1 0x20 ADD PUSH1 0x40 MSTORE DUP1 PUSH1 0x0 DUP2 MSTORE POP PUSH2 0x1322 JUMP JUMPDEST DUP1 PUSH2 0xE09 DUP4 PUSH2 0x11C1 JUMP JUMPDEST LT ISZERO PUSH2 0xE4D JUMPI PUSH1 0x40 MLOAD PUSH3 0x461BCD PUSH1 0xE5 SHL DUP2 MSTORE PUSH1 0x20 PUSH1 0x4 DUP3 ADD MSTORE PUSH1 0x13 PUSH1 0x24 DUP3 ADD MSTORE PUSH19 0x14195C9CDBDB985B08141BDA5B9D1CC813DD5D PUSH1 0x6A SHL PUSH1 0x44 DUP3 ADD MSTORE PUSH1 0x64 ADD PUSH2 0x9FC JUMP JUMPDEST PUSH2 0xD14 DUP3 PUSH1 0xFD DUP4 PUSH2 0xCA4 JUMP JUMPDEST PUSH1 0x0 PUSH2 0xE64 PUSH1 0x8 SLOAD SWAP1 JUMP JUMPDEST DUP3 LT PUSH2 0xEC7 JUMPI PUSH1 0x40 MLOAD PUSH3 0x461BCD PUSH1 0xE5 SHL DUP2 MSTORE PUSH1 0x20 PUSH1 0x4 DUP3 ADD MSTORE PUSH1 0x2C PUSH1 0x24 DUP3 ADD MSTORE PUSH32 0x455243373231456E756D657261626C653A20676C6F62616C20696E646578206F PUSH1 0x44 DUP3 ADD MSTORE PUSH12 0x7574206F6620626F756E6473 PUSH1 0xA0 SHL PUSH1 0x64 DUP3 ADD MSTORE PUSH1 0x84 ADD PUSH2 0x9FC JUMP JUMPDEST PUSH1 0x8 DUP3 DUP2 SLOAD DUP2 LT PUSH2 0xEDA JUMPI PUSH2 0xEDA PUSH2 0x2F48 JUMP JUMPDEST SWAP1 PUSH1 0x0 MSTORE PUSH1 0x20 PUSH1 0x0 KECCAK256 ADD SLOAD SWAP1 POP SWAP2 SWAP1 POP JUMP JUMPDEST PUSH2 0xEF4 PUSH2 0x1C67 JUMP JUMPDEST DUP1 MLOAD PUSH2 0xF07 SWAP1 PUSH1 0x11 SWAP1 PUSH1 0x20 DUP5 ADD SWAP1 PUSH2 0x289D JUMP JUMPDEST POP PUSH32 0x59F1EC21EB30BE64A479F79DA93A3F192F54C561EE637B5F589E807EB975EB4A DUP2 PUSH1 0x40 MLOAD PUSH2 0xDB3 SWAP2 SWAP1 PUSH2 0x29DB JUMP JUMPDEST PUSH2 0xF3F PUSH2 0x1C67 JUMP JUMPDEST DUP5 MLOAD PUSH2 0xF52 SWAP1 PUSH1 0xD SWAP1 PUSH1 0x20 DUP9 ADD SWAP1 PUSH2 0x289D JUMP JUMPDEST POP DUP4 MLOAD PUSH2 0xF66 SWAP1 PUSH1 0xE SWAP1 PUSH1 0x20 DUP8 ADD SWAP1 PUSH2 0x289D JUMP JUMPDEST POP PUSH1 0xF DUP1 SLOAD PUSH1 0xFF NOT AND PUSH1 0xFF DUP6 AND OR SWAP1 SSTORE DUP2 MLOAD PUSH2 0xF89 SWAP1 PUSH1 0x11 SWAP1 PUSH1 0x20 DUP6 ADD SWAP1 PUSH2 0x289D JUMP JUMPDEST POP DUP1 MLOAD PUSH2 0xF9D SWAP1 PUSH1 0x12 SWAP1 PUSH1 0x20 DUP5 ADD SWAP1 PUSH2 0x289D JUMP JUMPDEST POP POP POP POP POP POP JUMP JUMPDEST PUSH1 0x0 DUP2 DUP2 MSTORE PUSH1 0x2 PUSH1 0x20 MSTORE PUSH1 0x40 DUP2 KECCAK256 SLOAD PUSH1 0x1 PUSH1 0x1 PUSH1 0xA0 SHL SUB AND DUP1 PUSH2 0x83B JUMPI PUSH1 0x40 MLOAD PUSH3 0x461BCD PUSH1 0xE5 SHL DUP2 MSTORE PUSH1 0x20 PUSH1 0x4 DUP3 ADD MSTORE PUSH1 0x18 PUSH1 0x24 DUP3 ADD MSTORE PUSH24 0x115490CDCC8C4E881A5B9D985B1A59081D1BDAD95B881251 PUSH1 0x42 SHL PUSH1 0x44 DUP3 ADD MSTORE PUSH1 0x64 ADD PUSH2 0x9FC JUMP JUMPDEST PUSH1 0x11 DUP1 SLOAD PUSH2 0x84E SWAP1 PUSH2 0x2E80 JUMP JUMPDEST PUSH1 0x0 PUSH1 0x1 PUSH1 0x1 PUSH1 0xA0 SHL SUB DUP3 AND PUSH2 0x107C JUMPI PUSH1 0x40 MLOAD PUSH3 0x461BCD PUSH1 0xE5 SHL DUP2 MSTORE PUSH1 0x20 PUSH1 0x4 DUP3 ADD MSTORE PUSH1 0x29 PUSH1 0x24 DUP3 ADD MSTORE PUSH32 0x4552433732313A2061646472657373207A65726F206973206E6F742061207661 PUSH1 0x44 DUP3 ADD MSTORE PUSH9 0x3634B21037BBB732B9 PUSH1 0xB9 SHL PUSH1 0x64 DUP3 ADD MSTORE PUSH1 0x84 ADD PUSH2 0x9FC JUMP JUMPDEST POP PUSH1 0x1 PUSH1 0x1 PUSH1 0xA0 SHL SUB AND PUSH1 0x0 SWAP1 DUP2 MSTORE PUSH1 0x3 PUSH1 0x20 MSTORE PUSH1 0x40 SWAP1 KECCAK256 SLOAD SWAP1 JUMP JUMPDEST PUSH2 0x10A0 PUSH2 0x1C67 JUMP JUMPDEST PUSH2 0x10AA PUSH1 0x0 PUSH2 0x1FD7 JUMP JUMPDEST JUMP JUMPDEST PUSH1 0x0 PUSH2 0x10B7 DUP5 PUSH2 0xFA5 JUMP JUMPDEST SWAP1 POP DUP1 PUSH1 0x1 PUSH1 0x1 PUSH1 0xA0 SHL SUB AND DUP4 PUSH1 0x1 PUSH1 0x1 PUSH1 0xA0 SHL SUB AND SUB PUSH2 0x1125 JUMPI PUSH1 0x40 MLOAD PUSH3 0x461BCD PUSH1 0xE5 SHL DUP2 MSTORE PUSH1 0x20 PUSH1 0x4 DUP3 ADD MSTORE PUSH1 0x22 PUSH1 0x24 DUP3 ADD MSTORE PUSH32 0x455243333532353A20617070726F76616C20746F2063757272656E74206F776E PUSH1 0x44 DUP3 ADD MSTORE PUSH2 0x32B9 PUSH1 0xF1 SHL PUSH1 0x64 DUP3 ADD MSTORE PUSH1 0x84 ADD PUSH2 0x9FC JUMP JUMPDEST PUSH2 0x112F CALLER DUP6 PUSH2 0x1D95 JUMP JUMPDEST PUSH2 0x11A1 JUMPI PUSH1 0x40 MLOAD PUSH3 0x461BCD PUSH1 0xE5 SHL DUP2 MSTORE PUSH1 0x20 PUSH1 0x4 DUP3 ADD MSTORE PUSH1 0x39 PUSH1 0x24 DUP3 ADD MSTORE PUSH32 0x455243333532353A20617070726F76652063616C6C6572206973206E6F74206F PUSH1 0x44 DUP3 ADD MSTORE PUSH32 0x776E6572206E6F7220617070726F76656420666F7220616C6C00000000000000 PUSH1 0x64 DUP3 ADD MSTORE PUSH1 0x84 ADD PUSH2 0x9FC JUMP JUMPDEST PUSH2 0x11AC DUP5 DUP5 DUP5 PUSH2 0x2031 JUMP JUMPDEST POP POP POP POP JUMP JUMPDEST PUSH1 0x60 PUSH1 0x1 DUP1 SLOAD PUSH2 0x8DE SWAP1 PUSH2 0x2E80 JUMP JUMPDEST PUSH1 0x0 PUSH2 0x11CC DUP3 PUSH2 0x1FBA JUMP JUMPDEST PUSH2 0x122D JUMPI PUSH1 0x40 MLOAD PUSH3 0x461BCD PUSH1 0xE5 SHL DUP2 MSTORE PUSH1 0x20 PUSH1 0x4 DUP3 ADD MSTORE PUSH1 0x2C PUSH1 0x24 DUP3 ADD MSTORE PUSH32 0x455243333532353A2062616C616E636520717565727920666F72206E6F6E6578 PUSH1 0x44 DUP3 ADD MSTORE PUSH12 0x34B9BA32B73A103A37B5B2B7 PUSH1 0xA1 SHL PUSH1 0x64 DUP3 ADD MSTORE PUSH1 0x84 ADD PUSH2 0x9FC JUMP JUMPDEST POP PUSH1 0x0 SWAP1 DUP2 MSTORE PUSH1 0xA PUSH1 0x20 MSTORE PUSH1 0x40 SWAP1 KECCAK256 SLOAD SWAP1 JUMP JUMPDEST PUSH2 0xD14 CALLER DUP4 DUP4 PUSH2 0x1CC7 JUMP JUMPDEST PUSH2 0x1253 PUSH2 0x1C67 JUMP JUMPDEST DUP1 MLOAD PUSH2 0x1266 SWAP1 PUSH1 0x12 SWAP1 PUSH1 0x20 DUP5 ADD SWAP1 PUSH2 0x289D JUMP JUMPDEST POP PUSH32 0x69492B03D451C4AD02FE1A5A42E677AC013FC7FD243FA4E3A4EF14A5D8D8808D DUP2 PUSH1 0x40 MLOAD PUSH2 0xDB3 SWAP2 SWAP1 PUSH2 0x29DB JUMP JUMPDEST PUSH2 0x129E PUSH2 0x1C67 JUMP JUMPDEST PUSH2 0x12AA DUP5 DUP5 DUP5 DUP5 PUSH2 0x1895 JUMP JUMPDEST PUSH2 0x11AC DUP5 PUSH2 0xB5A PUSH1 0xF SLOAD PUSH1 0x1 PUSH1 0x1 PUSH1 0xA0 SHL SUB PUSH2 0x100 SWAP1 SWAP2 DIV AND SWAP1 JUMP JUMPDEST PUSH2 0x12CE PUSH2 0x1C67 JUMP JUMPDEST DUP2 PUSH2 0x12D9 PUSH1 0xFD PUSH2 0x11C1 JUMP JUMPDEST LT ISZERO PUSH2 0x1314 JUMPI PUSH1 0x40 MLOAD PUSH3 0x461BCD PUSH1 0xE5 SHL DUP2 MSTORE PUSH1 0x20 PUSH1 0x4 DUP3 ADD MSTORE PUSH1 0xA PUSH1 0x24 DUP3 ADD MSTORE PUSH10 0x141BDA5B9D1CC813DD5D PUSH1 0xB2 SHL PUSH1 0x44 DUP3 ADD MSTORE PUSH1 0x64 ADD PUSH2 0x9FC JUMP JUMPDEST PUSH2 0x11AC PUSH1 0xFD DUP6 DUP6 DUP6 DUP6 PUSH2 0xB00 JUMP JUMPDEST PUSH2 0x132C CALLER DUP4 PUSH2 0x1D95 JUMP JUMPDEST PUSH2 0x1348 JUMPI PUSH1 0x40 MLOAD PUSH3 0x461BCD PUSH1 0xE5 SHL DUP2 MSTORE PUSH1 0x4 ADD PUSH2 0x9FC SWAP1 PUSH2 0x2EFA JUMP JUMPDEST PUSH2 0x11AC DUP5 DUP5 DUP5 DUP5 PUSH2 0x20B1 JUMP JUMPDEST PUSH1 0x60 PUSH2 0x135F DUP3 PUSH2 0x1FBA JUMP JUMPDEST PUSH2 0x139F JUMPI PUSH1 0x40 MLOAD PUSH3 0x461BCD PUSH1 0xE5 SHL DUP2 MSTORE PUSH1 0x20 PUSH1 0x4 DUP3 ADD MSTORE PUSH1 0x11 PUSH1 0x24 DUP3 ADD MSTORE PUSH17 0x3737B732BC34B9BA32B73A103A37B5B2B7 PUSH1 0x79 SHL PUSH1 0x44 DUP3 ADD MSTORE PUSH1 0x64 ADD PUSH2 0x9FC JUMP JUMPDEST PUSH2 0x13A7 PUSH2 0x16D5 JUMP JUMPDEST PUSH2 0x13B0 DUP4 PUSH2 0x16E4 JUMP JUMPDEST PUSH1 0x0 DUP5 DUP2 MSTORE PUSH1 0xC PUSH1 0x20 MSTORE PUSH1 0x40 SWAP1 KECCAK256 SLOAD PUSH2 0x13C8 SWAP1 PUSH2 0x16E4 JUMP JUMPDEST PUSH2 0x13D9 PUSH2 0x13D4 DUP7 PUSH2 0x11C1 JUMP JUMPDEST PUSH2 0x16E4 JUMP JUMPDEST PUSH1 0x40 MLOAD PUSH1 0x20 ADD PUSH2 0x13EC SWAP5 SWAP4 SWAP3 SWAP2 SWAP1 PUSH2 0x2F5E JUMP JUMPDEST PUSH1 0x40 MLOAD PUSH1 0x20 DUP2 DUP4 SUB SUB DUP2 MSTORE SWAP1 PUSH1 0x40 MSTORE SWAP1 POP SWAP2 SWAP1 POP JUMP JUMPDEST PUSH1 0xF SLOAD PUSH2 0x100 SWAP1 DIV PUSH1 0x1 PUSH1 0x1 PUSH1 0xA0 SHL SUB AND ISZERO PUSH2 0x1457 JUMPI PUSH1 0x40 MLOAD PUSH3 0x461BCD PUSH1 0xE5 SHL DUP2 MSTORE PUSH1 0x20 PUSH1 0x4 DUP3 ADD MSTORE PUSH1 0x14 PUSH1 0x24 DUP3 ADD MSTORE PUSH20 0x6F6E6C79207768656E20696E6974207374617465 PUSH1 0x60 SHL PUSH1 0x44 DUP3 ADD MSTORE PUSH1 0x64 ADD PUSH2 0x9FC JUMP JUMPDEST PUSH1 0x13 SLOAD PUSH1 0x1 PUSH1 0x1 PUSH1 0xA0 SHL SUB AND ISZERO PUSH2 0x10AA JUMPI PUSH1 0x13 SLOAD PUSH1 0x40 DUP1 MLOAD DUP1 DUP3 ADD DUP3 MSTORE PUSH1 0x6 DUP2 MSTORE PUSH6 0x6465706C6F79 PUSH1 0xD0 SHL PUSH1 0x20 DUP3 ADD MSTORE SWAP1 MLOAD PUSH4 0x25B11429 PUSH1 0xE0 SHL DUP2 MSTORE PUSH1 0x1 PUSH1 0x1 PUSH1 0xA0 SHL SUB SWAP1 SWAP3 AND SWAP2 PUSH4 0x25B11429 SWAP2 PUSH2 0x14B1 SWAP2 PUSH1 0x4 ADD PUSH2 0x29DB JUMP JUMPDEST PUSH1 0x0 PUSH1 0x40 MLOAD DUP1 DUP4 SUB DUP2 PUSH1 0x0 DUP8 DUP1 EXTCODESIZE ISZERO DUP1 ISZERO PUSH2 0x14CB JUMPI PUSH1 0x0 DUP1 REVERT JUMPDEST POP GAS CALL ISZERO DUP1 ISZERO PUSH2 0x11AC JUMPI RETURNDATASIZE PUSH1 0x0 DUP1 RETURNDATACOPY RETURNDATASIZE PUSH1 0x0 REVERT JUMPDEST PUSH1 0x60 PUSH1 0x0 PUSH2 0x14EB PUSH2 0x16D5 JUMP JUMPDEST SWAP1 POP PUSH1 0x0 DUP2 MLOAD GT PUSH2 0x150B JUMPI PUSH1 0x40 MLOAD DUP1 PUSH1 0x20 ADD PUSH1 0x40 MSTORE DUP1 PUSH1 0x0 DUP2 MSTORE POP PUSH2 0x1536 JUMP JUMPDEST DUP1 PUSH2 0x1515 ADDRESS PUSH2 0x20E4 JUMP JUMPDEST PUSH1 0x40 MLOAD PUSH1 0x20 ADD PUSH2 0x1526 SWAP3 SWAP2 SWAP1 PUSH2 0x2FF3 JUMP JUMPDEST PUSH1 0x40 MLOAD PUSH1 0x20 DUP2 DUP4 SUB SUB DUP2 MSTORE SWAP1 PUSH1 0x40 MSTORE JUMPDEST SWAP2 POP POP SWAP1 JUMP JUMPDEST PUSH1 0xF SLOAD PUSH2 0x100 SWAP1 DIV PUSH1 0x1 PUSH1 0x1 PUSH1 0xA0 SHL SUB AND ISZERO DUP1 PUSH2 0x1569 JUMPI POP PUSH1 0xF SLOAD PUSH1 0x1 PUSH1 0x1 PUSH1 0xA0 SHL SUB PUSH2 0x100 SWAP1 SWAP2 DIV AND CALLER EQ JUMPDEST PUSH2 0x15A2 JUMPI PUSH1 0x40 MLOAD PUSH3 0x461BCD PUSH1 0xE5 SHL DUP2 MSTORE PUSH1 0x20 PUSH1 0x4 DUP3 ADD MSTORE PUSH1 0xA PUSH1 0x24 DUP3 ADD MSTORE PUSH10 0x27B7363C9027B73BB2B9 PUSH1 0xB1 SHL PUSH1 0x44 DUP3 ADD MSTORE PUSH1 0x64 ADD PUSH2 0x9FC JUMP JUMPDEST PUSH1 0x1 PUSH1 0x1 PUSH1 0xA0 SHL SUB DUP2 AND PUSH2 0x15E6 JUMPI PUSH1 0x40 MLOAD PUSH3 0x461BCD PUSH1 0xE5 SHL DUP2 MSTORE PUSH1 0x20 PUSH1 0x4 DUP3 ADD MSTORE PUSH1 0xB PUSH1 0x24 DUP3 ADD MSTORE PUSH11 0x4E6577206F776E6572203 PUSH1 0xAC SHL PUSH1 0x44 DUP3 ADD MSTORE PUSH1 0x64 ADD PUSH2 0x9FC JUMP JUMPDEST PUSH2 0x15EF DUP2 PUSH2 0x1FD7 JUMP JUMPDEST POP JUMP JUMPDEST PUSH1 0x0 PUSH1 0x1 PUSH1 0x1 PUSH1 0xE0 SHL SUB NOT DUP3 AND PUSH4 0x780E9D63 PUSH1 0xE0 SHL EQ DUP1 PUSH2 0x83B JUMPI POP PUSH2 0x83B DUP3 PUSH2 0x213B JUMP JUMPDEST PUSH2 0x1620 DUP2 PUSH2 0x1FBA JUMP JUMPDEST PUSH2 0x15EF JUMPI PUSH1 0x40 MLOAD PUSH3 0x461BCD PUSH1 0xE5 SHL DUP2 MSTORE PUSH1 0x20 PUSH1 0x4 DUP3 ADD MSTORE PUSH1 0x18 PUSH1 0x24 DUP3 ADD MSTORE PUSH24 0x115490CDCC8C4E881A5B9D985B1A59081D1BDAD95B881251 PUSH1 0x42 SHL PUSH1 0x44 DUP3 ADD MSTORE PUSH1 0x64 ADD PUSH2 0x9FC JUMP JUMPDEST PUSH1 0x0 DUP2 DUP2 MSTORE PUSH1 0x4 PUSH1 0x20 MSTORE PUSH1 0x40 SWAP1 KECCAK256 DUP1 SLOAD PUSH1 0x1 PUSH1 0x1 PUSH1 0xA0 SHL SUB NOT AND PUSH1 0x1 PUSH1 0x1 PUSH1 0xA0 SHL SUB DUP5 AND SWAP1 DUP2 OR SWAP1 SWAP2 SSTORE DUP2 SWAP1 PUSH2 0x169C DUP3 PUSH2 0xFA5 JUMP JUMPDEST PUSH1 0x1 PUSH1 0x1 PUSH1 0xA0 SHL SUB AND PUSH32 0x8C5BE1E5EBEC7D5BD14F71427D1E84F3DD0314C0F7B2291E5B200AC8C7C3B925 PUSH1 0x40 MLOAD PUSH1 0x40 MLOAD DUP1 SWAP2 SUB SWAP1 LOG4 POP POP JUMP JUMPDEST PUSH1 0x60 PUSH1 0x11 DUP1 SLOAD PUSH2 0x8DE SWAP1 PUSH2 0x2E80 JUMP JUMPDEST PUSH1 0x60 DUP2 PUSH1 0x0 SUB PUSH2 0x170B JUMPI POP POP PUSH1 0x40 DUP1 MLOAD DUP1 DUP3 ADD SWAP1 SWAP2 MSTORE PUSH1 0x1 DUP2 MSTORE PUSH1 0x3 PUSH1 0xFC SHL PUSH1 0x20 DUP3 ADD MSTORE SWAP1 JUMP JUMPDEST DUP2 PUSH1 0x0 JUMPDEST DUP2 ISZERO PUSH2 0x1735 JUMPI DUP1 PUSH2 0x171F DUP2 PUSH2 0x304D JUMP JUMPDEST SWAP2 POP PUSH2 0x172E SWAP1 POP PUSH1 0xA DUP4 PUSH2 0x307C JUMP JUMPDEST SWAP2 POP PUSH2 0x170F JUMP JUMPDEST PUSH1 0x0 DUP2 PUSH8 0xFFFFFFFFFFFFFFFF DUP2 GT ISZERO PUSH2 0x1750 JUMPI PUSH2 0x1750 PUSH2 0x2B6B JUMP JUMPDEST PUSH1 0x40 MLOAD SWAP1 DUP1 DUP3 MSTORE DUP1 PUSH1 0x1F ADD PUSH1 0x1F NOT AND PUSH1 0x20 ADD DUP3 ADD PUSH1 0x40 MSTORE DUP1 ISZERO PUSH2 0x177A JUMPI PUSH1 0x20 DUP3 ADD DUP2 DUP1 CALLDATASIZE DUP4 CALLDATACOPY ADD SWAP1 POP JUMPDEST POP SWAP1 POP JUMPDEST DUP5 ISZERO PUSH2 0x17E5 JUMPI PUSH2 0x178F PUSH1 0x1 DUP4 PUSH2 0x3090 JUMP JUMPDEST SWAP2 POP PUSH2 0x179C PUSH1 0xA DUP7 PUSH2 0x30A7 JUMP JUMPDEST PUSH2 0x17A7 SWAP1 PUSH1 0x30 PUSH2 0x30BB JUMP JUMPDEST PUSH1 0xF8 SHL DUP2 DUP4 DUP2 MLOAD DUP2 LT PUSH2 0x17BC JUMPI PUSH2 0x17BC PUSH2 0x2F48 JUMP JUMPDEST PUSH1 0x20 ADD ADD SWAP1 PUSH1 0x1 PUSH1 0x1 PUSH1 0xF8 SHL SUB NOT AND SWAP1 DUP2 PUSH1 0x0 BYTE SWAP1 MSTORE8 POP PUSH2 0x17DE PUSH1 0xA DUP7 PUSH2 0x307C JUMP JUMPDEST SWAP5 POP PUSH2 0x177E JUMP JUMPDEST SWAP5 SWAP4 POP POP POP POP JUMP JUMPDEST PUSH1 0x0 DUP3 DUP2 MSTORE PUSH1 0xB PUSH1 0x20 SWAP1 DUP2 MSTORE PUSH1 0x40 DUP1 DUP4 KECCAK256 PUSH1 0x1 PUSH1 0x1 PUSH1 0xA0 SHL SUB DUP8 AND DUP5 MSTORE PUSH1 0x1 ADD SWAP1 SWAP2 MSTORE SWAP1 KECCAK256 SLOAD PUSH2 0x181D DUP5 DUP5 PUSH2 0x1D95 JUMP JUMPDEST ISZERO DUP1 ISZERO PUSH2 0x182C JUMPI POP PUSH1 0x0 NOT DUP2 EQ ISZERO JUMPDEST ISZERO PUSH2 0x11AC JUMPI DUP2 DUP2 LT ISZERO PUSH2 0x1881 JUMPI PUSH1 0x40 MLOAD PUSH3 0x461BCD PUSH1 0xE5 SHL DUP2 MSTORE PUSH1 0x20 PUSH1 0x4 DUP3 ADD MSTORE PUSH1 0x1F PUSH1 0x24 DUP3 ADD MSTORE PUSH32 0x455243333532353A20696E73756666696369656E7420616C6C6F77616E636500 PUSH1 0x44 DUP3 ADD MSTORE PUSH1 0x64 ADD PUSH2 0x9FC JUMP JUMPDEST PUSH2 0x11AC DUP4 DUP6 PUSH2 0x1890 DUP6 DUP6 PUSH2 0x3090 JUMP JUMPDEST PUSH2 0x2031 JUMP JUMPDEST PUSH1 0x1 PUSH1 0x1 PUSH1 0xA0 SHL SUB DUP5 AND PUSH2 0x18F5 JUMPI PUSH1 0x40 MLOAD PUSH3 0x461BCD PUSH1 0xE5 SHL DUP2 MSTORE PUSH1 0x20 PUSH1 0x4 DUP3 ADD MSTORE PUSH1 0x21 PUSH1 0x24 DUP3 ADD MSTORE PUSH32 0x455243333532353A206D696E7420746F20746865207A65726F20616464726573 PUSH1 0x44 DUP3 ADD MSTORE PUSH1 0x73 PUSH1 0xF8 SHL PUSH1 0x64 DUP3 ADD MSTORE PUSH1 0x84 ADD PUSH2 0x9FC JUMP JUMPDEST DUP3 PUSH1 0x0 SUB PUSH2 0x194F JUMPI PUSH1 0x40 MLOAD PUSH3 0x461BCD PUSH1 0xE5 SHL DUP2 MSTORE PUSH1 0x20 PUSH1 0x4 DUP3 ADD MSTORE PUSH1 0x21 PUSH1 0x24 DUP3 ADD MSTORE PUSH32 0x455243333532353A2063616E6E6F74206D696E74207A65726F20746F6B656E49 PUSH1 0x44 DUP3 ADD MSTORE PUSH1 0x19 PUSH1 0xFA SHL PUSH1 0x64 DUP3 ADD MSTORE PUSH1 0x84 ADD PUSH2 0x9FC JUMP JUMPDEST PUSH2 0x1958 DUP4 PUSH2 0x1FBA JUMP JUMPDEST ISZERO PUSH2 0x19A5 JUMPI PUSH1 0x40 MLOAD PUSH3 0x461BCD PUSH1 0xE5 SHL DUP2 MSTORE PUSH1 0x20 PUSH1 0x4 DUP3 ADD MSTORE PUSH1 0x1D PUSH1 0x24 DUP3 ADD MSTORE PUSH32 0x455243333532353A20746F6B656E20616C7265616479206D696E746564000000 PUSH1 0x44 DUP3 ADD MSTORE PUSH1 0x64 ADD PUSH2 0x9FC JUMP JUMPDEST PUSH2 0x19B0 DUP5 DUP5 DUP5 PUSH2 0x218B JUMP JUMPDEST PUSH1 0x0 DUP4 DUP2 MSTORE PUSH1 0xA PUSH1 0x20 MSTORE PUSH1 0x40 SWAP1 KECCAK256 DUP2 SWAP1 SSTORE DUP3 PUSH1 0x0 PUSH32 0xB2AAC84F3EC956911FD78EAE5311062972FF949F38412E8DA39069D9F068CC6 DUP4 PUSH1 0x40 MLOAD PUSH2 0x19F5 SWAP2 DUP2 MSTORE PUSH1 0x20 ADD SWAP1 JUMP JUMPDEST PUSH1 0x40 MLOAD DUP1 SWAP2 SUB SWAP1 LOG3 POP POP POP POP JUMP JUMPDEST PUSH2 0x1A0C DUP4 PUSH2 0x1FBA JUMP JUMPDEST PUSH2 0x1A6A JUMPI PUSH1 0x40 MLOAD PUSH3 0x461BCD PUSH1 0xE5 SHL DUP2 MSTORE PUSH1 0x20 PUSH1 0x4 DUP3 ADD MSTORE PUSH1 0x29 PUSH1 0x24 DUP3 ADD MSTORE PUSH32 0x45524333353235353A207472616E736665722066726F6D206E6F6E6578697374 PUSH1 0x44 DUP3 ADD MSTORE PUSH9 0x32B73A103A37B5B2B7 PUSH1 0xB9 SHL PUSH1 0x64 DUP3 ADD MSTORE PUSH1 0x84 ADD PUSH2 0x9FC JUMP JUMPDEST PUSH2 0x1A73 DUP3 PUSH2 0x1FBA JUMP JUMPDEST PUSH2 0x1ACF JUMPI PUSH1 0x40 MLOAD PUSH3 0x461BCD PUSH1 0xE5 SHL DUP2 MSTORE PUSH1 0x20 PUSH1 0x4 DUP3 ADD MSTORE PUSH1 0x27 PUSH1 0x24 DUP3 ADD MSTORE PUSH32 0x45524333353235353A207472616E7366657220746F206E6F6E6578697374656E PUSH1 0x44 DUP3 ADD MSTORE PUSH7 0x3A103A37B5B2B7 PUSH1 0xC9 SHL PUSH1 0x64 DUP3 ADD MSTORE PUSH1 0x84 ADD PUSH2 0x9FC JUMP JUMPDEST PUSH1 0x0 DUP4 DUP2 MSTORE PUSH1 0xA PUSH1 0x20 MSTORE PUSH1 0x40 SWAP1 KECCAK256 SLOAD DUP2 GT ISZERO PUSH2 0x1B3E JUMPI PUSH1 0x40 MLOAD PUSH3 0x461BCD PUSH1 0xE5 SHL DUP2 MSTORE PUSH1 0x20 PUSH1 0x4 DUP3 ADD MSTORE PUSH1 0x28 PUSH1 0x24 DUP3 ADD MSTORE PUSH32 0x455243333532353A207472616E7366657220616D6F756E742065786365656473 PUSH1 0x44 DUP3 ADD MSTORE PUSH8 0x2062616C616E6365 PUSH1 0xC0 SHL PUSH1 0x64 DUP3 ADD MSTORE PUSH1 0x84 ADD PUSH2 0x9FC JUMP JUMPDEST PUSH1 0x0 DUP3 DUP2 MSTORE PUSH1 0xC PUSH1 0x20 MSTORE PUSH1 0x40 DUP1 DUP3 KECCAK256 SLOAD DUP6 DUP4 MSTORE SWAP2 KECCAK256 SLOAD EQ PUSH2 0x1BB8 JUMPI PUSH1 0x40 MLOAD PUSH3 0x461BCD PUSH1 0xE5 SHL DUP2 MSTORE PUSH1 0x20 PUSH1 0x4 DUP3 ADD MSTORE PUSH1 0x2E PUSH1 0x24 DUP3 ADD MSTORE PUSH32 0x455243333533353A207472616E7366657220746F20746F6B656E207769746820 PUSH1 0x44 DUP3 ADD MSTORE PUSH14 0x191A5999995C995B9D081CDB1BDD PUSH1 0x92 SHL PUSH1 0x64 DUP3 ADD MSTORE PUSH1 0x84 ADD PUSH2 0x9FC JUMP JUMPDEST PUSH1 0x0 PUSH2 0x1BC3 DUP5 PUSH2 0xFA5 JUMP JUMPDEST SWAP1 POP PUSH1 0x0 PUSH2 0x1BD0 DUP5 PUSH2 0xFA5 JUMP JUMPDEST PUSH1 0x0 DUP7 DUP2 MSTORE PUSH1 0xA PUSH1 0x20 MSTORE PUSH1 0x40 DUP2 KECCAK256 DUP1 SLOAD SWAP3 SWAP4 POP DUP6 SWAP3 SWAP1 SWAP2 SWAP1 PUSH2 0x1BF3 SWAP1 DUP5 SWAP1 PUSH2 0x3090 JUMP JUMPDEST SWAP1 SWAP2 SSTORE POP POP PUSH1 0x0 DUP5 DUP2 MSTORE PUSH1 0xA PUSH1 0x20 MSTORE PUSH1 0x40 DUP2 KECCAK256 DUP1 SLOAD DUP6 SWAP3 SWAP1 PUSH2 0x1C16 SWAP1 DUP5 SWAP1 PUSH2 0x30BB JUMP JUMPDEST SWAP1 SWAP2 SSTORE POP POP PUSH1 0x0 DUP6 SWAP1 MSTORE PUSH1 0xC PUSH1 0x20 MSTORE DUP4 DUP6 PUSH32 0xB2AAC84F3EC956911FD78EAE5311062972FF949F38412E8DA39069D9F068CC6 DUP6 PUSH1 0x40 MLOAD PUSH2 0x1C58 SWAP2 DUP2 MSTORE PUSH1 0x20 ADD SWAP1 JUMP JUMPDEST PUSH1 0x40 MLOAD DUP1 SWAP2 SUB SWAP1 LOG3 POP POP POP POP POP JUMP JUMPDEST PUSH1 0xF SLOAD PUSH1 0x1 PUSH1 0x1 PUSH1 0xA0 SHL SUB PUSH2 0x100 SWAP1 SWAP2 DIV AND CALLER EQ PUSH2 0x10AA JUMPI PUSH1 0x40 MLOAD PUSH3 0x461BCD PUSH1 0xE5 SHL DUP2 MSTORE PUSH1 0x20 PUSH1 0x4 DUP3 ADD DUP2 SWAP1 MSTORE PUSH1 0x24 DUP3 ADD MSTORE PUSH32 0x4F776E61626C653A2063616C6C6572206973206E6F7420746865206F776E6572 PUSH1 0x44 DUP3 ADD MSTORE PUSH1 0x64 ADD PUSH2 0x9FC JUMP JUMPDEST DUP2 PUSH1 0x1 PUSH1 0x1 PUSH1 0xA0 SHL SUB AND DUP4 PUSH1 0x1 PUSH1 0x1 PUSH1 0xA0 SHL SUB AND SUB PUSH2 0x1D28 JUMPI PUSH1 0x40 MLOAD PUSH3 0x461BCD PUSH1 0xE5 SHL DUP2 MSTORE PUSH1 0x20 PUSH1 0x4 DUP3 ADD MSTORE PUSH1 0x19 PUSH1 0x24 DUP3 ADD MSTORE PUSH32 0x4552433732313A20617070726F766520746F2063616C6C657200000000000000 PUSH1 0x44 DUP3 ADD MSTORE PUSH1 0x64 ADD PUSH2 0x9FC JUMP JUMPDEST PUSH1 0x1 PUSH1 0x1 PUSH1 0xA0 SHL SUB DUP4 DUP2 AND PUSH1 0x0 DUP2 DUP2 MSTORE PUSH1 0x5 PUSH1 0x20 SWAP1 DUP2 MSTORE PUSH1 0x40 DUP1 DUP4 KECCAK256 SWAP5 DUP8 AND DUP1 DUP5 MSTORE SWAP5 DUP3 MSTORE SWAP2 DUP3 SWAP1 KECCAK256 DUP1 SLOAD PUSH1 0xFF NOT AND DUP7 ISZERO ISZERO SWAP1 DUP2 OR SWAP1 SWAP2 SSTORE SWAP2 MLOAD SWAP2 DUP3 MSTORE PUSH32 0x17307EAB39AB6107E8899845AD3D59BD9653F200F220920489CA2B5937696C31 SWAP2 ADD PUSH1 0x40 MLOAD DUP1 SWAP2 SUB SWAP1 LOG3 POP POP POP JUMP JUMPDEST PUSH1 0x0 DUP1 PUSH2 0x1DA1 DUP4 PUSH2 0xFA5 JUMP JUMPDEST SWAP1 POP DUP1 PUSH1 0x1 PUSH1 0x1 PUSH1 0xA0 SHL SUB AND DUP5 PUSH1 0x1 PUSH1 0x1 PUSH1 0xA0 SHL SUB AND EQ DUP1 PUSH2 0x1DE8 JUMPI POP PUSH1 0x1 PUSH1 0x1 PUSH1 0xA0 SHL SUB DUP1 DUP3 AND PUSH1 0x0 SWAP1 DUP2 MSTORE PUSH1 0x5 PUSH1 0x20 SWAP1 DUP2 MSTORE PUSH1 0x40 DUP1 DUP4 KECCAK256 SWAP4 DUP9 AND DUP4 MSTORE SWAP3 SWAP1 MSTORE KECCAK256 SLOAD PUSH1 0xFF AND JUMPDEST DUP1 PUSH2 0x17E5 JUMPI POP DUP4 PUSH1 0x1 PUSH1 0x1 PUSH1 0xA0 SHL SUB AND PUSH2 0x1E01 DUP5 PUSH2 0x961 JUMP JUMPDEST PUSH1 0x1 PUSH1 0x1 PUSH1 0xA0 SHL SUB AND EQ SWAP5 SWAP4 POP POP POP POP JUMP JUMPDEST DUP3 PUSH1 0x1 PUSH1 0x1 PUSH1 0xA0 SHL SUB AND PUSH2 0x1E26 DUP3 PUSH2 0xFA5 JUMP JUMPDEST PUSH1 0x1 PUSH1 0x1 PUSH1 0xA0 SHL SUB AND EQ PUSH2 0x1E8A JUMPI PUSH1 0x40 MLOAD PUSH3 0x461BCD PUSH1 0xE5 SHL DUP2 MSTORE PUSH1 0x20 PUSH1 0x4 DUP3 ADD MSTORE PUSH1 0x25 PUSH1 0x24 DUP3 ADD MSTORE PUSH32 0x4552433732313A207472616E736665722066726F6D20696E636F727265637420 PUSH1 0x44 DUP3 ADD MSTORE PUSH5 0x37BBB732B9 PUSH1 0xD9 SHL PUSH1 0x64 DUP3 ADD MSTORE PUSH1 0x84 ADD PUSH2 0x9FC JUMP JUMPDEST PUSH1 0x1 PUSH1 0x1 PUSH1 0xA0 SHL SUB DUP3 AND PUSH2 0x1EEC JUMPI PUSH1 0x40 MLOAD PUSH3 0x461BCD PUSH1 0xE5 SHL DUP2 MSTORE PUSH1 0x20 PUSH1 0x4 DUP3 ADD MSTORE PUSH1 0x24 DUP1 DUP3 ADD MSTORE PUSH32 0x4552433732313A207472616E7366657220746F20746865207A65726F20616464 PUSH1 0x44 DUP3 ADD MSTORE PUSH4 0x72657373 PUSH1 0xE0 SHL PUSH1 0x64 DUP3 ADD MSTORE PUSH1 0x84 ADD PUSH2 0x9FC JUMP JUMPDEST PUSH2 0x1EF7 DUP4 DUP4 DUP4 PUSH2 0x21D7 JUMP JUMPDEST PUSH2 0x1F02 PUSH1 0x0 DUP3 PUSH2 0x1667 JUMP JUMPDEST PUSH1 0x1 PUSH1 0x1 PUSH1 0xA0 SHL SUB DUP4 AND PUSH1 0x0 SWAP1 DUP2 MSTORE PUSH1 0x3 PUSH1 0x20 MSTORE PUSH1 0x40 DUP2 KECCAK256 DUP1 SLOAD PUSH1 0x1 SWAP3 SWAP1 PUSH2 0x1F2B SWAP1 DUP5 SWAP1 PUSH2 0x3090 JUMP JUMPDEST SWAP1 SWAP2 SSTORE POP POP PUSH1 0x1 PUSH1 0x1 PUSH1 0xA0 SHL SUB DUP3 AND PUSH1 0x0 SWAP1 DUP2 MSTORE PUSH1 0x3 PUSH1 0x20 MSTORE PUSH1 0x40 DUP2 KECCAK256 DUP1 SLOAD PUSH1 0x1 SWAP3 SWAP1 PUSH2 0x1F59 SWAP1 DUP5 SWAP1 PUSH2 0x30BB JUMP JUMPDEST SWAP1 SWAP2 SSTORE POP POP PUSH1 0x0 DUP2 DUP2 MSTORE PUSH1 0x2 PUSH1 0x20 MSTORE PUSH1 0x40 DUP1 DUP3 KECCAK256 DUP1 SLOAD PUSH1 0x1 PUSH1 0x1 PUSH1 0xA0 SHL SUB NOT AND PUSH1 0x1 PUSH1 0x1 PUSH1 0xA0 SHL SUB DUP7 DUP2 AND SWAP2 DUP3 OR SWAP1 SWAP3 SSTORE SWAP2 MLOAD DUP5 SWAP4 SWAP2 DUP8 AND SWAP2 PUSH32 0xDDF252AD1BE2C89B69C2B068FC378DAA952BA7F163C4A11628F55A4DF523B3EF SWAP2 LOG4 POP POP POP JUMP JUMPDEST PUSH1 0x0 SWAP1 DUP2 MSTORE PUSH1 0x2 PUSH1 0x20 MSTORE PUSH1 0x40 SWAP1 KECCAK256 SLOAD PUSH1 0x1 PUSH1 0x1 PUSH1 0xA0 SHL SUB AND ISZERO ISZERO SWAP1 JUMP JUMPDEST PUSH1 0xF DUP1 SLOAD PUSH1 0x1 PUSH1 0x1 PUSH1 0xA0 SHL SUB DUP4 DUP2 AND PUSH2 0x100 DUP2 DUP2 MUL PUSH2 0x100 PUSH1 0x1 PUSH1 0xA8 SHL SUB NOT DUP6 AND OR SWAP1 SWAP5 SSTORE PUSH1 0x40 MLOAD SWAP4 SWAP1 SWAP3 DIV AND SWAP2 DUP3 SWAP1 PUSH32 0x8BE0079C531659141344CD1FD0A4F28419497F9722A3DAAFE3B4186F6B6457E0 SWAP1 PUSH1 0x0 SWAP1 LOG3 POP POP JUMP JUMPDEST PUSH1 0x0 DUP4 DUP2 MSTORE PUSH1 0xB PUSH1 0x20 SWAP1 DUP2 MSTORE PUSH1 0x40 DUP1 DUP4 KECCAK256 DUP1 SLOAD PUSH1 0x1 DUP1 DUP3 ADD DUP4 SSTORE DUP3 DUP7 MSTORE DUP5 DUP7 KECCAK256 SWAP1 SWAP2 ADD DUP1 SLOAD PUSH1 0x1 PUSH1 0x1 PUSH1 0xA0 SHL SUB NOT AND PUSH1 0x1 PUSH1 0x1 PUSH1 0xA0 SHL SUB DUP10 AND SWAP1 DUP2 OR SWAP1 SWAP2 SSTORE DUP1 DUP7 MSTORE SWAP1 DUP3 ADD DUP5 MSTORE SWAP4 DUP3 SWAP1 KECCAK256 DUP6 SWAP1 SSTORE SWAP1 MLOAD DUP5 DUP2 MSTORE SWAP1 SWAP3 SWAP2 DUP7 SWAP2 PUSH32 0x621B050DE0AD08B51D19B48B3E6DF75348C4DE6BDD93E81B252CA62E28265B1B SWAP2 ADD PUSH2 0x19F5 JUMP JUMPDEST PUSH2 0x20BC DUP5 DUP5 DUP5 PUSH2 0x1E13 JUMP JUMPDEST PUSH2 0x20C8 DUP5 DUP5 DUP5 DUP5 PUSH2 0x2279 JUMP JUMPDEST PUSH2 0x11AC JUMPI PUSH1 0x40 MLOAD PUSH3 0x461BCD PUSH1 0xE5 SHL DUP2 MSTORE PUSH1 0x4 ADD PUSH2 0x9FC SWAP1 PUSH2 0x30D3 JUMP JUMPDEST PUSH1 0x60 DUP2 PUSH1 0x0 SUB PUSH2 0x210E JUMPI POP POP PUSH1 0x40 DUP1 MLOAD DUP1 DUP3 ADD SWAP1 SWAP2 MSTORE PUSH1 0x4 DUP2 MSTORE PUSH4 0x3078303 PUSH1 0xE4 SHL PUSH1 0x20 DUP3 ADD MSTORE SWAP1 JUMP JUMPDEST DUP2 PUSH1 0x0 JUMPDEST DUP2 ISZERO PUSH2 0x2131 JUMPI DUP1 PUSH2 0x2122 DUP2 PUSH2 0x304D JUMP JUMPDEST SWAP2 POP POP PUSH1 0x8 DUP3 SWAP1 SHR SWAP2 POP PUSH2 0x2112 JUMP JUMPDEST PUSH2 0x17E5 DUP5 DUP3 PUSH2 0x237A JUMP JUMPDEST PUSH1 0x0 PUSH1 0x1 PUSH1 0x1 PUSH1 0xE0 SHL SUB NOT DUP3 AND PUSH4 0x80AC58CD PUSH1 0xE0 SHL EQ DUP1 PUSH2 0x216C JUMPI POP PUSH1 0x1 PUSH1 0x1 PUSH1 0xE0 SHL SUB NOT DUP3 AND PUSH4 0x5B5E139F PUSH1 0xE0 SHL EQ JUMPDEST DUP1 PUSH2 0x83B JUMPI POP PUSH4 0x1FFC9A7 PUSH1 0xE0 SHL PUSH1 0x1 PUSH1 0x1 PUSH1 0xE0 SHL SUB NOT DUP4 AND EQ PUSH2 0x83B JUMP JUMPDEST PUSH2 0x2195 DUP4 DUP4 PUSH2 0x2516 JUMP JUMPDEST PUSH1 0x0 DUP3 DUP2 MSTORE PUSH1 0xC PUSH1 0x20 MSTORE PUSH1 0x40 DUP1 DUP3 KECCAK256 DUP4 SWAP1 SSTORE MLOAD DUP3 SWAP2 SWAP1 DUP5 SWAP1 PUSH32 0xE4F48C240D3B994948AA54F3E2F5FCA59263DFE1D52B6E4CF39A5D249B5CCB65 SWAP1 DUP4 SWAP1 LOG4 POP POP POP JUMP JUMPDEST PUSH1 0x0 DUP2 DUP2 MSTORE PUSH1 0xB PUSH1 0x20 MSTORE PUSH1 0x40 DUP2 KECCAK256 SLOAD SWAP1 JUMPDEST DUP2 DUP2 LT ISZERO PUSH2 0x2256 JUMPI PUSH1 0x0 DUP4 DUP2 MSTORE PUSH1 0xB PUSH1 0x20 MSTORE PUSH1 0x40 DUP2 KECCAK256 DUP1 SLOAD DUP4 SWAP1 DUP2 LT PUSH2 0x2210 JUMPI PUSH2 0x2210 PUSH2 0x2F48 JUMP JUMPDEST PUSH1 0x0 SWAP2 DUP3 MSTORE PUSH1 0x20 DUP1 DUP4 KECCAK256 SWAP1 SWAP2 ADD SLOAD DUP7 DUP4 MSTORE PUSH1 0xB DUP3 MSTORE PUSH1 0x40 DUP1 DUP5 KECCAK256 PUSH1 0x1 PUSH1 0x1 PUSH1 0xA0 SHL SUB SWAP1 SWAP3 AND DUP5 MSTORE PUSH1 0x1 SWAP2 SWAP1 SWAP2 ADD SWAP1 SWAP2 MSTORE DUP2 KECCAK256 SSTORE POP DUP1 PUSH2 0x224E DUP2 PUSH2 0x304D JUMP JUMPDEST SWAP2 POP POP PUSH2 0x21E8 JUMP JUMPDEST POP PUSH1 0x0 DUP3 DUP2 MSTORE PUSH1 0xB PUSH1 0x20 MSTORE PUSH1 0x40 DUP2 KECCAK256 PUSH2 0x226E SWAP2 PUSH2 0x2921 JUMP JUMPDEST PUSH2 0x11AC DUP5 DUP5 DUP5 PUSH2 0x2655 JUMP JUMPDEST PUSH1 0x0 PUSH1 0x1 PUSH1 0x1 PUSH1 0xA0 SHL SUB DUP5 AND EXTCODESIZE ISZERO PUSH2 0x236F JUMPI PUSH1 0x40 MLOAD PUSH4 0xA85BD01 PUSH1 0xE1 SHL DUP2 MSTORE PUSH1 0x1 PUSH1 0x1 PUSH1 0xA0 SHL SUB DUP6 AND SWAP1 PUSH4 0x150B7A02 SWAP1 PUSH2 0x22BD SWAP1 CALLER SWAP1 DUP10 SWAP1 DUP9 SWAP1 DUP9 SWAP1 PUSH1 0x4 ADD PUSH2 0x3125 JUMP JUMPDEST PUSH1 0x20 PUSH1 0x40 MLOAD DUP1 DUP4 SUB DUP2 PUSH1 0x0 DUP8 GAS CALL SWAP3 POP POP POP DUP1 ISZERO PUSH2 0x22F8 JUMPI POP PUSH1 0x40 DUP1 MLOAD PUSH1 0x1F RETURNDATASIZE SWAP1 DUP2 ADD PUSH1 0x1F NOT AND DUP3 ADD SWAP1 SWAP3 MSTORE PUSH2 0x22F5 SWAP2 DUP2 ADD SWAP1 PUSH2 0x3162 JUMP JUMPDEST PUSH1 0x1 JUMPDEST PUSH2 0x2355 JUMPI RETURNDATASIZE DUP1 DUP1 ISZERO PUSH2 0x2326 JUMPI PUSH1 0x40 MLOAD SWAP2 POP PUSH1 0x1F NOT PUSH1 0x3F RETURNDATASIZE ADD AND DUP3 ADD PUSH1 0x40 MSTORE RETURNDATASIZE DUP3 MSTORE RETURNDATASIZE PUSH1 0x0 PUSH1 0x20 DUP5 ADD RETURNDATACOPY PUSH2 0x232B JUMP JUMPDEST PUSH1 0x60 SWAP2 POP JUMPDEST POP DUP1 MLOAD PUSH1 0x0 SUB PUSH2 0x234D JUMPI PUSH1 0x40 MLOAD PUSH3 0x461BCD PUSH1 0xE5 SHL DUP2 MSTORE PUSH1 0x4 ADD PUSH2 0x9FC SWAP1 PUSH2 0x30D3 JUMP JUMPDEST DUP1 MLOAD DUP2 PUSH1 0x20 ADD REVERT JUMPDEST PUSH1 0x1 PUSH1 0x1 PUSH1 0xE0 SHL SUB NOT AND PUSH4 0xA85BD01 PUSH1 0xE1 SHL EQ SWAP1 POP PUSH2 0x17E5 JUMP JUMPDEST POP PUSH1 0x1 SWAP5 SWAP4 POP POP POP POP JUMP JUMPDEST PUSH1 0x60 PUSH1 0x0 PUSH2 0x2389 DUP4 PUSH1 0x2 PUSH2 0x317F JUMP JUMPDEST PUSH2 0x2394 SWAP1 PUSH1 0x2 PUSH2 0x30BB JUMP JUMPDEST PUSH8 0xFFFFFFFFFFFFFFFF DUP2 GT ISZERO PUSH2 0x23AC JUMPI PUSH2 0x23AC PUSH2 0x2B6B JUMP JUMPDEST PUSH1 0x40 MLOAD SWAP1 DUP1 DUP3 MSTORE DUP1 PUSH1 0x1F ADD PUSH1 0x1F NOT AND PUSH1 0x20 ADD DUP3 ADD PUSH1 0x40 MSTORE DUP1 ISZERO PUSH2 0x23D6 JUMPI PUSH1 0x20 DUP3 ADD DUP2 DUP1 CALLDATASIZE DUP4 CALLDATACOPY ADD SWAP1 POP JUMPDEST POP SWAP1 POP PUSH1 0x3 PUSH1 0xFC SHL DUP2 PUSH1 0x0 DUP2 MLOAD DUP2 LT PUSH2 0x23F1 JUMPI PUSH2 0x23F1 PUSH2 0x2F48 JUMP JUMPDEST PUSH1 0x20 ADD ADD SWAP1 PUSH1 0x1 PUSH1 0x1 PUSH1 0xF8 SHL SUB NOT AND SWAP1 DUP2 PUSH1 0x0 BYTE SWAP1 MSTORE8 POP PUSH1 0xF PUSH1 0xFB SHL DUP2 PUSH1 0x1 DUP2 MLOAD DUP2 LT PUSH2 0x2420 JUMPI PUSH2 0x2420 PUSH2 0x2F48 JUMP JUMPDEST PUSH1 0x20 ADD ADD SWAP1 PUSH1 0x1 PUSH1 0x1 PUSH1 0xF8 SHL SUB NOT AND SWAP1 DUP2 PUSH1 0x0 BYTE SWAP1 MSTORE8 POP PUSH1 0x0 PUSH2 0x2444 DUP5 PUSH1 0x2 PUSH2 0x317F JUMP JUMPDEST PUSH2 0x244F SWAP1 PUSH1 0x1 PUSH2 0x30BB JUMP JUMPDEST SWAP1 POP JUMPDEST PUSH1 0x1 DUP2 GT ISZERO PUSH2 0x24C7 JUMPI PUSH16 0x181899199A1A9B1B9C1CB0B131B232B3 PUSH1 0x81 SHL DUP6 PUSH1 0xF AND PUSH1 0x10 DUP2 LT PUSH2 0x2483 JUMPI PUSH2 0x2483 PUSH2 0x2F48 JUMP JUMPDEST BYTE PUSH1 0xF8 SHL DUP3 DUP3 DUP2 MLOAD DUP2 LT PUSH2 0x2499 JUMPI PUSH2 0x2499 PUSH2 0x2F48 JUMP JUMPDEST PUSH1 0x20 ADD ADD SWAP1 PUSH1 0x1 PUSH1 0x1 PUSH1 0xF8 SHL SUB NOT AND SWAP1 DUP2 PUSH1 0x0 BYTE SWAP1 MSTORE8 POP PUSH1 0x4 SWAP5 SWAP1 SWAP5 SHR SWAP4 PUSH2 0x24C0 DUP2 PUSH2 0x319E JUMP JUMPDEST SWAP1 POP PUSH2 0x2452 JUMP JUMPDEST POP DUP4 ISZERO PUSH2 0xAF9 JUMPI PUSH1 0x40 MLOAD PUSH3 0x461BCD PUSH1 0xE5 SHL DUP2 MSTORE PUSH1 0x20 PUSH1 0x4 DUP3 ADD DUP2 SWAP1 MSTORE PUSH1 0x24 DUP3 ADD MSTORE PUSH32 0x537472696E67733A20686578206C656E67746820696E73756666696369656E74 PUSH1 0x44 DUP3 ADD MSTORE PUSH1 0x64 ADD PUSH2 0x9FC JUMP JUMPDEST PUSH1 0x1 PUSH1 0x1 PUSH1 0xA0 SHL SUB DUP3 AND PUSH2 0x256C JUMPI PUSH1 0x40 MLOAD PUSH3 0x461BCD PUSH1 0xE5 SHL DUP2 MSTORE PUSH1 0x20 PUSH1 0x4 DUP3 ADD DUP2 SWAP1 MSTORE PUSH1 0x24 DUP3 ADD MSTORE PUSH32 0x4552433732313A206D696E7420746F20746865207A65726F2061646472657373 PUSH1 0x44 DUP3 ADD MSTORE PUSH1 0x64 ADD PUSH2 0x9FC JUMP JUMPDEST PUSH2 0x2575 DUP2 PUSH2 0x1FBA JUMP JUMPDEST ISZERO PUSH2 0x25C2 JUMPI PUSH1 0x40 MLOAD PUSH3 0x461BCD PUSH1 0xE5 SHL DUP2 MSTORE PUSH1 0x20 PUSH1 0x4 DUP3 ADD MSTORE PUSH1 0x1C PUSH1 0x24 DUP3 ADD MSTORE PUSH32 0x4552433732313A20746F6B656E20616C7265616479206D696E74656400000000 PUSH1 0x44 DUP3 ADD MSTORE PUSH1 0x64 ADD PUSH2 0x9FC JUMP JUMPDEST PUSH2 0x25CE PUSH1 0x0 DUP4 DUP4 PUSH2 0x21D7 JUMP JUMPDEST PUSH1 0x1 PUSH1 0x1 PUSH1 0xA0 SHL SUB DUP3 AND PUSH1 0x0 SWAP1 DUP2 MSTORE PUSH1 0x3 PUSH1 0x20 MSTORE PUSH1 0x40 DUP2 KECCAK256 DUP1 SLOAD PUSH1 0x1 SWAP3 SWAP1 PUSH2 0x25F7 SWAP1 DUP5 SWAP1 PUSH2 0x30BB JUMP JUMPDEST SWAP1 SWAP2 SSTORE POP POP PUSH1 0x0 DUP2 DUP2 MSTORE PUSH1 0x2 PUSH1 0x20 MSTORE PUSH1 0x40 DUP1 DUP3 KECCAK256 DUP1 SLOAD PUSH1 0x1 PUSH1 0x1 PUSH1 0xA0 SHL SUB NOT AND PUSH1 0x1 PUSH1 0x1 PUSH1 0xA0 SHL SUB DUP7 AND SWAP1 DUP2 OR SWAP1 SWAP2 SSTORE SWAP1 MLOAD DUP4 SWAP3 SWAP1 PUSH32 0xDDF252AD1BE2C89B69C2B068FC378DAA952BA7F163C4A11628F55A4DF523B3EF SWAP1 DUP3 SWAP1 LOG4 POP POP JUMP JUMPDEST PUSH1 0x1 PUSH1 0x1 PUSH1 0xA0 SHL SUB DUP4 AND PUSH2 0x26B0 JUMPI PUSH2 0x26AB DUP2 PUSH1 0x8 DUP1 SLOAD PUSH1 0x0 DUP4 DUP2 MSTORE PUSH1 0x9 PUSH1 0x20 MSTORE PUSH1 0x40 DUP2 KECCAK256 DUP3 SWAP1 SSTORE PUSH1 0x1 DUP3 ADD DUP4 SSTORE SWAP2 SWAP1 SWAP2 MSTORE PUSH32 0xF3F7A9FE364FAAB93B216DA50A3214154F22A0A2B415B23A84C8169E8B636EE3 ADD SSTORE JUMP JUMPDEST PUSH2 0x26D3 JUMP JUMPDEST DUP2 PUSH1 0x1 PUSH1 0x1 PUSH1 0xA0 SHL SUB AND DUP4 PUSH1 0x1 PUSH1 0x1 PUSH1 0xA0 SHL SUB AND EQ PUSH2 0x26D3 JUMPI PUSH2 0x26D3 DUP4 DUP3 PUSH2 0x270D JUMP JUMPDEST PUSH1 0x1 PUSH1 0x1 PUSH1 0xA0 SHL SUB DUP3 AND PUSH2 0x26EA JUMPI PUSH2 0xA9D DUP2 PUSH2 0x27AA JUMP JUMPDEST DUP3 PUSH1 0x1 PUSH1 0x1 PUSH1 0xA0 SHL SUB AND DUP3 PUSH1 0x1 PUSH1 0x1 PUSH1 0xA0 SHL SUB AND EQ PUSH2 0xA9D JUMPI PUSH2 0xA9D DUP3 DUP3 PUSH2 0x2859 JUMP JUMPDEST PUSH1 0x0 PUSH1 0x1 PUSH2 0x271A DUP5 PUSH2 0x1012 JUMP JUMPDEST PUSH2 0x2724 SWAP2 SWAP1 PUSH2 0x3090 JUMP JUMPDEST PUSH1 0x0 DUP4 DUP2 MSTORE PUSH1 0x7 PUSH1 0x20 MSTORE PUSH1 0x40 SWAP1 KECCAK256 SLOAD SWAP1 SWAP2 POP DUP1 DUP3 EQ PUSH2 0x2777 JUMPI PUSH1 0x1 PUSH1 0x1 PUSH1 0xA0 SHL SUB DUP5 AND PUSH1 0x0 SWAP1 DUP2 MSTORE PUSH1 0x6 PUSH1 0x20 SWAP1 DUP2 MSTORE PUSH1 0x40 DUP1 DUP4 KECCAK256 DUP6 DUP5 MSTORE DUP3 MSTORE DUP1 DUP4 KECCAK256 SLOAD DUP5 DUP5 MSTORE DUP2 DUP5 KECCAK256 DUP2 SWAP1 SSTORE DUP4 MSTORE PUSH1 0x7 SWAP1 SWAP2 MSTORE SWAP1 KECCAK256 DUP2 SWAP1 SSTORE JUMPDEST POP PUSH1 0x0 SWAP2 DUP3 MSTORE PUSH1 0x7 PUSH1 0x20 SWAP1 DUP2 MSTORE PUSH1 0x40 DUP1 DUP5 KECCAK256 DUP5 SWAP1 SSTORE PUSH1 0x1 PUSH1 0x1 PUSH1 0xA0 SHL SUB SWAP1 SWAP5 AND DUP4 MSTORE PUSH1 0x6 DUP2 MSTORE DUP4 DUP4 KECCAK256 SWAP2 DUP4 MSTORE MSTORE SWAP1 DUP2 KECCAK256 SSTORE JUMP JUMPDEST PUSH1 0x8 SLOAD PUSH1 0x0 SWAP1 PUSH2 0x27BC SWAP1 PUSH1 0x1 SWAP1 PUSH2 0x3090 JUMP JUMPDEST PUSH1 0x0 DUP4 DUP2 MSTORE PUSH1 0x9 PUSH1 0x20 MSTORE PUSH1 0x40 DUP2 KECCAK256 SLOAD PUSH1 0x8 DUP1 SLOAD SWAP4 SWAP5 POP SWAP1 SWAP3 DUP5 SWAP1 DUP2 LT PUSH2 0x27E4 JUMPI PUSH2 0x27E4 PUSH2 0x2F48 JUMP JUMPDEST SWAP1 PUSH1 0x0 MSTORE PUSH1 0x20 PUSH1 0x0 KECCAK256 ADD SLOAD SWAP1 POP DUP1 PUSH1 0x8 DUP4 DUP2 SLOAD DUP2 LT PUSH2 0x2805 JUMPI PUSH2 0x2805 PUSH2 0x2F48 JUMP JUMPDEST PUSH1 0x0 SWAP2 DUP3 MSTORE PUSH1 0x20 DUP1 DUP4 KECCAK256 SWAP1 SWAP2 ADD SWAP3 SWAP1 SWAP3 SSTORE DUP3 DUP2 MSTORE PUSH1 0x9 SWAP1 SWAP2 MSTORE PUSH1 0x40 DUP1 DUP3 KECCAK256 DUP5 SWAP1 SSTORE DUP6 DUP3 MSTORE DUP2 KECCAK256 SSTORE PUSH1 0x8 DUP1 SLOAD DUP1 PUSH2 0x283D JUMPI PUSH2 0x283D PUSH2 0x31B5 JUMP JUMPDEST PUSH1 0x1 SWAP1 SUB DUP2 DUP2 SWAP1 PUSH1 0x0 MSTORE PUSH1 0x20 PUSH1 0x0 KECCAK256 ADD PUSH1 0x0 SWAP1 SSTORE SWAP1 SSTORE POP POP POP POP JUMP JUMPDEST PUSH1 0x0 PUSH2 0x2864 DUP4 PUSH2 0x1012 JUMP JUMPDEST PUSH1 0x1 PUSH1 0x1 PUSH1 0xA0 SHL SUB SWAP1 SWAP4 AND PUSH1 0x0 SWAP1 DUP2 MSTORE PUSH1 0x6 PUSH1 0x20 SWAP1 DUP2 MSTORE PUSH1 0x40 DUP1 DUP4 KECCAK256 DUP7 DUP5 MSTORE DUP3 MSTORE DUP1 DUP4 KECCAK256 DUP6 SWAP1 SSTORE SWAP4 DUP3 MSTORE PUSH1 0x7 SWAP1 MSTORE SWAP2 SWAP1 SWAP2 KECCAK256 SWAP2 SWAP1 SWAP2 SSTORE POP JUMP JUMPDEST DUP3 DUP1 SLOAD PUSH2 0x28A9 SWAP1 PUSH2 0x2E80 JUMP JUMPDEST SWAP1 PUSH1 0x0 MSTORE PUSH1 0x20 PUSH1 0x0 KECCAK256 SWAP1 PUSH1 0x1F ADD PUSH1 0x20 SWAP1 DIV DUP2 ADD SWAP3 DUP3 PUSH2 0x28CB JUMPI PUSH1 0x0 DUP6 SSTORE PUSH2 0x2911 JUMP JUMPDEST DUP3 PUSH1 0x1F LT PUSH2 0x28E4 JUMPI DUP1 MLOAD PUSH1 0xFF NOT AND DUP4 DUP1 ADD OR DUP6 SSTORE PUSH2 0x2911 JUMP JUMPDEST DUP3 DUP1 ADD PUSH1 0x1 ADD DUP6 SSTORE DUP3 ISZERO PUSH2 0x2911 JUMPI SWAP2 DUP3 ADD JUMPDEST DUP3 DUP2 GT ISZERO PUSH2 0x2911 JUMPI DUP3 MLOAD DUP3 SSTORE SWAP2 PUSH1 0x20 ADD SWAP2 SWAP1 PUSH1 0x1 ADD SWAP1 PUSH2 0x28F6 JUMP JUMPDEST POP PUSH2 0x291D SWAP3 SWAP2 POP PUSH2 0x293B JUMP JUMPDEST POP SWAP1 JUMP JUMPDEST POP DUP1 SLOAD PUSH1 0x0 DUP3 SSTORE SWAP1 PUSH1 0x0 MSTORE PUSH1 0x20 PUSH1 0x0 KECCAK256 SWAP1 DUP2 ADD SWAP1 PUSH2 0x15EF SWAP2 SWAP1 JUMPDEST JUMPDEST DUP1 DUP3 GT ISZERO PUSH2 0x291D JUMPI PUSH1 0x0 DUP2 SSTORE PUSH1 0x1 ADD PUSH2 0x293C JUMP JUMPDEST PUSH1 0x1 PUSH1 0x1 PUSH1 0xE0 SHL SUB NOT DUP2 AND DUP2 EQ PUSH2 0x15EF JUMPI PUSH1 0x0 DUP1 REVERT JUMPDEST PUSH1 0x0 PUSH1 0x20 DUP3 DUP5 SUB SLT ISZERO PUSH2 0x2978 JUMPI PUSH1 0x0 DUP1 REVERT JUMPDEST DUP2 CALLDATALOAD PUSH2 0xAF9 DUP2 PUSH2 0x2950 JUMP JUMPDEST PUSH1 0x0 JUMPDEST DUP4 DUP2 LT ISZERO PUSH2 0x299E JUMPI DUP2 DUP2 ADD MLOAD DUP4 DUP3 ADD MSTORE PUSH1 0x20 ADD PUSH2 0x2986 JUMP JUMPDEST DUP4 DUP2 GT ISZERO PUSH2 0x11AC JUMPI POP POP PUSH1 0x0 SWAP2 ADD MSTORE JUMP JUMPDEST PUSH1 0x0 DUP2 MLOAD DUP1 DUP5 MSTORE PUSH2 0x29C7 DUP2 PUSH1 0x20 DUP7 ADD PUSH1 0x20 DUP7 ADD PUSH2 0x2983 JUMP JUMPDEST PUSH1 0x1F ADD PUSH1 0x1F NOT AND SWAP3 SWAP1 SWAP3 ADD PUSH1 0x20 ADD SWAP3 SWAP2 POP POP JUMP JUMPDEST PUSH1 0x20 DUP2 MSTORE PUSH1 0x0 PUSH2 0xAF9 PUSH1 0x20 DUP4 ADD DUP5 PUSH2 0x29AF JUMP JUMPDEST PUSH1 0x0 PUSH1 0x20 DUP3 DUP5 SUB SLT ISZERO PUSH2 0x2A00 JUMPI PUSH1 0x0 DUP1 REVERT JUMPDEST POP CALLDATALOAD SWAP2 SWAP1 POP JUMP JUMPDEST DUP1 CALLDATALOAD PUSH1 0x1 PUSH1 0x1 PUSH1 0xA0 SHL SUB DUP2 AND DUP2 EQ PUSH2 0x2A1E JUMPI PUSH1 0x0 DUP1 REVERT JUMPDEST SWAP2 SWAP1 POP JUMP JUMPDEST PUSH1 0x0 DUP1 PUSH1 0x40 DUP4 DUP6 SUB SLT ISZERO PUSH2 0x2A36 JUMPI PUSH1 0x0 DUP1 REVERT JUMPDEST PUSH2 0x2A3F DUP4 PUSH2 0x2A07 JUMP JUMPDEST SWAP5 PUSH1 0x20 SWAP4 SWAP1 SWAP4 ADD CALLDATALOAD SWAP4 POP POP POP JUMP JUMPDEST PUSH1 0x0 DUP1 PUSH1 0x0 DUP1 PUSH1 0x0 PUSH1 0xA0 DUP7 DUP9 SUB SLT ISZERO PUSH2 0x2A65 JUMPI PUSH1 0x0 DUP1 REVERT JUMPDEST DUP6 CALLDATALOAD SWAP5 POP PUSH2 0x2A75 PUSH1 0x20 DUP8 ADD PUSH2 0x2A07 JUMP JUMPDEST SWAP5 SWAP8 SWAP5 SWAP7 POP POP POP POP PUSH1 0x40 DUP4 ADD CALLDATALOAD SWAP3 PUSH1 0x60 DUP2 ADD CALLDATALOAD SWAP3 PUSH1 0x80 SWAP1 SWAP2 ADD CALLDATALOAD SWAP2 POP JUMP JUMPDEST PUSH1 0x0 DUP1 PUSH1 0x0 PUSH1 0x60 DUP5 DUP7 SUB SLT ISZERO PUSH2 0x2AA8 JUMPI PUSH1 0x0 DUP1 REVERT JUMPDEST PUSH2 0x2AB1 DUP5 PUSH2 0x2A07 JUMP JUMPDEST SWAP6 PUSH1 0x20 DUP6 ADD CALLDATALOAD SWAP6 POP PUSH1 0x40 SWAP1 SWAP5 ADD CALLDATALOAD SWAP4 SWAP3 POP POP POP JUMP JUMPDEST PUSH1 0x0 DUP1 PUSH1 0x0 PUSH1 0x60 DUP5 DUP7 SUB SLT ISZERO PUSH2 0x2ADB JUMPI PUSH1 0x0 DUP1 REVERT JUMPDEST PUSH2 0x2AE4 DUP5 PUSH2 0x2A07 JUMP JUMPDEST SWAP3 POP PUSH2 0x2AF2 PUSH1 0x20 DUP6 ADD PUSH2 0x2A07 JUMP JUMPDEST SWAP2 POP PUSH1 0x40 DUP5 ADD CALLDATALOAD SWAP1 POP SWAP3 POP SWAP3 POP SWAP3 JUMP JUMPDEST PUSH1 0x0 DUP1 PUSH1 0x0 PUSH1 0x60 DUP5 DUP7 SUB SLT ISZERO PUSH2 0x2B17 JUMPI PUSH1 0x0 DUP1 REVERT JUMPDEST POP POP DUP2 CALLDATALOAD SWAP4 PUSH1 0x20 DUP4 ADD CALLDATALOAD SWAP4 POP PUSH1 0x40 SWAP1 SWAP3 ADD CALLDATALOAD SWAP2 SWAP1 POP JUMP JUMPDEST PUSH1 0x0 DUP1 PUSH1 0x40 DUP4 DUP6 SUB SLT ISZERO PUSH2 0x2B41 JUMPI PUSH1 0x0 DUP1 REVERT JUMPDEST POP POP DUP1 CALLDATALOAD SWAP3 PUSH1 0x20 SWAP1 SWAP2 ADD CALLDATALOAD SWAP2 POP JUMP JUMPDEST PUSH1 0x0 PUSH1 0x20 DUP3 DUP5 SUB SLT ISZERO PUSH2 0x2B62 JUMPI PUSH1 0x0 DUP1 REVERT JUMPDEST PUSH2 0xAF9 DUP3 PUSH2 0x2A07 JUMP JUMPDEST PUSH4 0x4E487B71 PUSH1 0xE0 SHL PUSH1 0x0 MSTORE PUSH1 0x41 PUSH1 0x4 MSTORE PUSH1 0x24 PUSH1 0x0 REVERT JUMPDEST PUSH1 0x0 PUSH8 0xFFFFFFFFFFFFFFFF DUP1 DUP5 GT ISZERO PUSH2 0x2B9C JUMPI PUSH2 0x2B9C PUSH2 0x2B6B JUMP JUMPDEST PUSH1 0x40 MLOAD PUSH1 0x1F DUP6 ADD PUSH1 0x1F NOT SWAP1 DUP2 AND PUSH1 0x3F ADD AND DUP2 ADD SWAP1 DUP3 DUP3 GT DUP2 DUP4 LT OR ISZERO PUSH2 0x2BC4 JUMPI PUSH2 0x2BC4 PUSH2 0x2B6B JUMP JUMPDEST DUP2 PUSH1 0x40 MSTORE DUP1 SWAP4 POP DUP6 DUP2 MSTORE DUP7 DUP7 DUP7 ADD GT ISZERO PUSH2 0x2BDD JUMPI PUSH1 0x0 DUP1 REVERT JUMPDEST DUP6 DUP6 PUSH1 0x20 DUP4 ADD CALLDATACOPY PUSH1 0x0 PUSH1 0x20 DUP8 DUP4 ADD ADD MSTORE POP POP POP SWAP4 SWAP3 POP POP POP JUMP JUMPDEST PUSH1 0x0 DUP3 PUSH1 0x1F DUP4 ADD SLT PUSH2 0x2C08 JUMPI PUSH1 0x0 DUP1 REVERT JUMPDEST PUSH2 0xAF9 DUP4 DUP4 CALLDATALOAD PUSH1 0x20 DUP6 ADD PUSH2 0x2B81 JUMP JUMPDEST PUSH1 0x0 PUSH1 0x20 DUP3 DUP5 SUB SLT ISZERO PUSH2 0x2C29 JUMPI PUSH1 0x0 DUP1 REVERT JUMPDEST DUP2 CALLDATALOAD PUSH8 0xFFFFFFFFFFFFFFFF DUP2 GT ISZERO PUSH2 0x2C40 JUMPI PUSH1 0x0 DUP1 REVERT JUMPDEST PUSH2 0x17E5 DUP5 DUP3 DUP6 ADD PUSH2 0x2BF7 JUMP JUMPDEST PUSH1 0x0 DUP1 PUSH1 0x0 DUP1 PUSH1 0x0 PUSH1 0xA0 DUP7 DUP9 SUB SLT ISZERO PUSH2 0x2C64 JUMPI PUSH1 0x0 DUP1 REVERT JUMPDEST DUP6 CALLDATALOAD PUSH8 0xFFFFFFFFFFFFFFFF DUP1 DUP3 GT ISZERO PUSH2 0x2C7C JUMPI PUSH1 0x0 DUP1 REVERT JUMPDEST PUSH2 0x2C88 DUP10 DUP4 DUP11 ADD PUSH2 0x2BF7 JUMP JUMPDEST SWAP7 POP PUSH1 0x20 DUP9 ADD CALLDATALOAD SWAP2 POP DUP1 DUP3 GT ISZERO PUSH2 0x2C9E JUMPI PUSH1 0x0 DUP1 REVERT JUMPDEST PUSH2 0x2CAA DUP10 DUP4 DUP11 ADD PUSH2 0x2BF7 JUMP JUMPDEST SWAP6 POP PUSH1 0x40 DUP9 ADD CALLDATALOAD SWAP2 POP PUSH1 0xFF DUP3 AND DUP3 EQ PUSH2 0x2CC2 JUMPI PUSH1 0x0 DUP1 REVERT JUMPDEST SWAP1 SWAP4 POP PUSH1 0x60 DUP8 ADD CALLDATALOAD SWAP1 DUP1 DUP3 GT ISZERO PUSH2 0x2CD8 JUMPI PUSH1 0x0 DUP1 REVERT JUMPDEST PUSH2 0x2CE4 DUP10 DUP4 DUP11 ADD PUSH2 0x2BF7 JUMP JUMPDEST SWAP4 POP PUSH1 0x80 DUP9 ADD CALLDATALOAD SWAP2 POP DUP1 DUP3 GT ISZERO PUSH2 0x2CFA JUMPI PUSH1 0x0 DUP1 REVERT JUMPDEST POP PUSH2 0x2D07 DUP9 DUP3 DUP10 ADD PUSH2 0x2BF7 JUMP JUMPDEST SWAP2 POP POP SWAP3 SWAP6 POP SWAP3 SWAP6 SWAP1 SWAP4 POP JUMP JUMPDEST PUSH1 0x0 DUP1 PUSH1 0x0 PUSH1 0x60 DUP5 DUP7 SUB SLT ISZERO PUSH2 0x2D29 JUMPI PUSH1 0x0 DUP1 REVERT JUMPDEST DUP4 CALLDATALOAD SWAP3 POP PUSH2 0x2AF2 PUSH1 0x20 DUP6 ADD PUSH2 0x2A07 JUMP JUMPDEST PUSH1 0x0 DUP1 PUSH1 0x40 DUP4 DUP6 SUB SLT ISZERO PUSH2 0x2D4C JUMPI PUSH1 0x0 DUP1 REVERT JUMPDEST PUSH2 0x2D55 DUP4 PUSH2 0x2A07 JUMP JUMPDEST SWAP2 POP PUSH1 0x20 DUP4 ADD CALLDATALOAD DUP1 ISZERO ISZERO DUP2 EQ PUSH2 0x2D6A JUMPI PUSH1 0x0 DUP1 REVERT JUMPDEST DUP1 SWAP2 POP POP SWAP3 POP SWAP3 SWAP1 POP JUMP JUMPDEST PUSH1 0x0 DUP1 PUSH1 0x0 DUP1 PUSH1 0x80 DUP6 DUP8 SUB SLT ISZERO PUSH2 0x2D8B JUMPI PUSH1 0x0 DUP1 REVERT JUMPDEST PUSH2 0x2D94 DUP6 PUSH2 0x2A07 JUMP JUMPDEST SWAP7 PUSH1 0x20 DUP7 ADD CALLDATALOAD SWAP7 POP PUSH1 0x40 DUP7 ADD CALLDATALOAD SWAP6 PUSH1 0x60 ADD CALLDATALOAD SWAP5 POP SWAP3 POP POP POP JUMP JUMPDEST PUSH1 0x0 DUP1 PUSH1 0x0 DUP1 PUSH1 0x80 DUP6 DUP8 SUB SLT ISZERO PUSH2 0x2DC4 JUMPI PUSH1 0x0 DUP1 REVERT JUMPDEST PUSH2 0x2DCD DUP6 PUSH2 0x2A07 JUMP JUMPDEST SWAP4 POP PUSH2 0x2DDB PUSH1 0x20 DUP7 ADD PUSH2 0x2A07 JUMP JUMPDEST SWAP3 POP PUSH1 0x40 DUP6 ADD CALLDATALOAD SWAP2 POP PUSH1 0x60 DUP6 ADD CALLDATALOAD PUSH8 0xFFFFFFFFFFFFFFFF DUP2 GT ISZERO PUSH2 0x2DFE JUMPI PUSH1 0x0 DUP1 REVERT JUMPDEST DUP6 ADD PUSH1 0x1F DUP2 ADD DUP8 SGT PUSH2 0x2E0F JUMPI PUSH1 0x0 DUP1 REVERT JUMPDEST PUSH2 0x2E1E DUP8 DUP3 CALLDATALOAD PUSH1 0x20 DUP5 ADD PUSH2 0x2B81 JUMP JUMPDEST SWAP2 POP POP SWAP3 SWAP6 SWAP2 SWAP5 POP SWAP3 POP JUMP JUMPDEST PUSH1 0x0 DUP1 PUSH1 0x40 DUP4 DUP6 SUB SLT ISZERO PUSH2 0x2E3D JUMPI PUSH1 0x0 DUP1 REVERT JUMPDEST DUP3 CALLDATALOAD SWAP2 POP PUSH2 0x2E4D PUSH1 0x20 DUP5 ADD PUSH2 0x2A07 JUMP JUMPDEST SWAP1 POP SWAP3 POP SWAP3 SWAP1 POP JUMP JUMPDEST PUSH1 0x0 DUP1 PUSH1 0x40 DUP4 DUP6 SUB SLT ISZERO PUSH2 0x2E69 JUMPI PUSH1 0x0 DUP1 REVERT JUMPDEST PUSH2 0x2E72 DUP4 PUSH2 0x2A07 JUMP JUMPDEST SWAP2 POP PUSH2 0x2E4D PUSH1 0x20 DUP5 ADD PUSH2 0x2A07 JUMP JUMPDEST PUSH1 0x1 DUP2 DUP2 SHR SWAP1 DUP3 AND DUP1 PUSH2 0x2E94 JUMPI PUSH1 0x7F DUP3 AND SWAP2 POP JUMPDEST PUSH1 0x20 DUP3 LT DUP2 SUB PUSH2 0x2EB4 JUMPI PUSH4 0x4E487B71 PUSH1 0xE0 SHL PUSH1 0x0 MSTORE PUSH1 0x22 PUSH1 0x4 MSTORE PUSH1 0x24 PUSH1 0x0 REVERT JUMPDEST POP SWAP2 SWAP1 POP JUMP JUMPDEST PUSH1 0x0 DUP4 MLOAD PUSH2 0x2ECC DUP2 DUP5 PUSH1 0x20 DUP9 ADD PUSH2 0x2983 JUMP JUMPDEST PUSH5 0x736C6F742F PUSH1 0xD8 SHL SWAP1 DUP4 ADD SWAP1 DUP2 MSTORE DUP4 MLOAD PUSH2 0x2EEE DUP2 PUSH1 0x5 DUP5 ADD PUSH1 0x20 DUP9 ADD PUSH2 0x2983 JUMP JUMPDEST ADD PUSH1 0x5 ADD SWAP5 SWAP4 POP POP POP POP JUMP JUMPDEST PUSH1 0x20 DUP1 DUP3 MSTORE PUSH1 0x2E SWAP1 DUP3 ADD MSTORE PUSH32 0x4552433732313A2063616C6C6572206973206E6F7420746F6B656E206F776E65 PUSH1 0x40 DUP3 ADD MSTORE PUSH14 0x1C881B9BDC88185C1C1C9BDD9959 PUSH1 0x92 SHL PUSH1 0x60 DUP3 ADD MSTORE PUSH1 0x80 ADD SWAP1 JUMP JUMPDEST PUSH4 0x4E487B71 PUSH1 0xE0 SHL PUSH1 0x0 MSTORE PUSH1 0x32 PUSH1 0x4 MSTORE PUSH1 0x24 PUSH1 0x0 REVERT JUMPDEST PUSH1 0x0 DUP6 MLOAD PUSH2 0x2F70 DUP2 DUP5 PUSH1 0x20 DUP11 ADD PUSH2 0x2983 JUMP JUMPDEST PUSH9 0x3F746F6B656E49643D PUSH1 0xB8 SHL SWAP1 DUP4 ADD SWAP1 DUP2 MSTORE DUP6 MLOAD PUSH2 0x2F96 DUP2 PUSH1 0x9 DUP5 ADD PUSH1 0x20 DUP11 ADD PUSH2 0x2983 JUMP JUMPDEST PUSH6 0x26736C6F743D PUSH1 0xD0 SHL PUSH1 0x9 SWAP3 SWAP1 SWAP2 ADD SWAP2 DUP3 ADD MSTORE DUP5 MLOAD PUSH2 0x2FBD DUP2 PUSH1 0xF DUP5 ADD PUSH1 0x20 DUP10 ADD PUSH2 0x2983 JUMP JUMPDEST PUSH7 0x2676616C75653D PUSH1 0xC8 SHL PUSH1 0xF SWAP3 SWAP1 SWAP2 ADD SWAP2 DUP3 ADD MSTORE DUP4 MLOAD PUSH2 0x2FE5 DUP2 PUSH1 0x16 DUP5 ADD PUSH1 0x20 DUP9 ADD PUSH2 0x2983 JUMP JUMPDEST ADD PUSH1 0x16 ADD SWAP7 SWAP6 POP POP POP POP POP POP JUMP JUMPDEST PUSH1 0x0 DUP4 MLOAD PUSH2 0x3005 DUP2 DUP5 PUSH1 0x20 DUP9 ADD PUSH2 0x2983 JUMP JUMPDEST PUSH9 0x636F6E74726163742F PUSH1 0xB8 SHL SWAP1 DUP4 ADD SWAP1 DUP2 MSTORE DUP4 MLOAD PUSH2 0x302B DUP2 PUSH1 0x9 DUP5 ADD PUSH1 0x20 DUP9 ADD PUSH2 0x2983 JUMP JUMPDEST ADD PUSH1 0x9 ADD SWAP5 SWAP4 POP POP POP POP JUMP JUMPDEST PUSH4 0x4E487B71 PUSH1 0xE0 SHL PUSH1 0x0 MSTORE PUSH1 0x11 PUSH1 0x4 MSTORE PUSH1 0x24 PUSH1 0x0 REVERT JUMPDEST PUSH1 0x0 PUSH1 0x1 DUP3 ADD PUSH2 0x305F JUMPI PUSH2 0x305F PUSH2 0x3037 JUMP JUMPDEST POP PUSH1 0x1 ADD SWAP1 JUMP JUMPDEST PUSH4 0x4E487B71 PUSH1 0xE0 SHL PUSH1 0x0 MSTORE PUSH1 0x12 PUSH1 0x4 MSTORE PUSH1 0x24 PUSH1 0x0 REVERT JUMPDEST PUSH1 0x0 DUP3 PUSH2 0x308B JUMPI PUSH2 0x308B PUSH2 0x3066 JUMP JUMPDEST POP DIV SWAP1 JUMP JUMPDEST PUSH1 0x0 DUP3 DUP3 LT ISZERO PUSH2 0x30A2 JUMPI PUSH2 0x30A2 PUSH2 0x3037 JUMP JUMPDEST POP SUB SWAP1 JUMP JUMPDEST PUSH1 0x0 DUP3 PUSH2 0x30B6 JUMPI PUSH2 0x30B6 PUSH2 0x3066 JUMP JUMPDEST POP MOD SWAP1 JUMP JUMPDEST PUSH1 0x0 DUP3 NOT DUP3 GT ISZERO PUSH2 0x30CE JUMPI PUSH2 0x30CE PUSH2 0x3037 JUMP JUMPDEST POP ADD SWAP1 JUMP JUMPDEST PUSH1 0x20 DUP1 DUP3 MSTORE PUSH1 0x32 SWAP1 DUP3 ADD MSTORE PUSH32 0x4552433732313A207472616E7366657220746F206E6F6E204552433732315265 PUSH1 0x40 DUP3 ADD MSTORE PUSH18 0x31B2B4BB32B91034B6B83632B6B2B73A32B9 PUSH1 0x71 SHL PUSH1 0x60 DUP3 ADD MSTORE PUSH1 0x80 ADD SWAP1 JUMP JUMPDEST PUSH1 0x1 PUSH1 0x1 PUSH1 0xA0 SHL SUB DUP6 DUP2 AND DUP3 MSTORE DUP5 AND PUSH1 0x20 DUP3 ADD MSTORE PUSH1 0x40 DUP2 ADD DUP4 SWAP1 MSTORE PUSH1 0x80 PUSH1 0x60 DUP3 ADD DUP2 SWAP1 MSTORE PUSH1 0x0 SWAP1 PUSH2 0x3158 SWAP1 DUP4 ADD DUP5 PUSH2 0x29AF JUMP JUMPDEST SWAP7 SWAP6 POP POP POP POP POP POP JUMP JUMPDEST PUSH1 0x0 PUSH1 0x20 DUP3 DUP5 SUB SLT ISZERO PUSH2 0x3174 JUMPI PUSH1 0x0 DUP1 REVERT JUMPDEST DUP2 MLOAD PUSH2 0xAF9 DUP2 PUSH2 0x2950 JUMP JUMPDEST PUSH1 0x0 DUP2 PUSH1 0x0 NOT DIV DUP4 GT DUP3 ISZERO ISZERO AND ISZERO PUSH2 0x3199 JUMPI PUSH2 0x3199 PUSH2 0x3037 JUMP JUMPDEST POP MUL SWAP1 JUMP JUMPDEST PUSH1 0x0 DUP2 PUSH2 0x31AD JUMPI PUSH2 0x31AD PUSH2 0x3037 JUMP JUMPDEST POP PUSH1 0x0 NOT ADD SWAP1 JUMP JUMPDEST PUSH4 0x4E487B71 PUSH1 0xE0 SHL PUSH1 0x0 MSTORE PUSH1 0x31 PUSH1 0x4 MSTORE PUSH1 0x24 PUSH1 0x0 REVERT INVALID LOG2 PUSH5 0x6970667358 0x22 SLT KECCAK256 0xCD LOG1 SWAP10 DUP1 0xB1 SWAP7 0xB3 0xBC PUSH19 0x1EC4AC417518EC1B2F065D85659BA260B06C14 SELFBALANCE 0xC3 CALLDATALOAD 0xE9 PUSH5 0x736F6C6343 STOP ADDMOD 0xD STOP CALLER ",
  "sha1": "f62e2a1e177c49b38348ac4b6cbcf86225c841eb",
  "source": "// SPDX-License-Identifier: MIT\n\npragma solidity ^0.8.4;\n\nimport {Base64} from \"@openzeppelin/contracts/utils/Base64.sol\";\nimport {Strings} from \"@openzeppelin/contracts/utils/Strings.sol\";\nimport {Ownable} from \"@openzeppelin/contracts/access/Ownable.sol\";\nimport {ERC3525, ERC721, IERC721Metadata} from \"./ERC3525/ERC3525.sol\";\nimport \"./IDDS.sol\";\nimport \"./NFTTGasInterface.sol\";\n\nuint256 constant ADMIN_ID = 2 ^ (256 - 1);\n\ncontract ISOTOP1020 is ERC3525, Ownable {\n    using Strings for uint256;\n\n    event baseURIChanged(string uri);\n    event detailsURIChanged(string uri);\n    event gasLoaded(address gasManager);\n    event tokenMinted(address _to, uint256 tokenID);\n\n    IDDS dds = IDDS(BEE_DDS_ADDRESS);\n    string public baseURI;\n    string public detailsURI;\n    address tgas;\n\n    constructor() ERC3525(\"ISOTOP1020\", \"ISOTOP1020\", 0) {}\n\n    function init() external {\n        // this function can only be called once when in factory\n        require(owner() == address(0), \"only when init state\");\n        if (tgas != address(0)) NFTTGasInterface(tgas).bill(DEPLOY);\n    }\n\n    function init(\n        string memory name_,\n        string memory symbol_,\n        uint8 decimals_,\n        string memory base_,\n        string memory details_\n    ) external onlyOwner {\n        _name = name_;\n        _symbol = symbol_;\n        _decimals = decimals_;\n        baseURI = base_;\n        detailsURI = details_;\n    }\n\n    function contractName() external pure virtual returns (string memory) {\n        return \"ISOTOP1020\";\n    }\n\n    function initTotalAdmin(uint256 _slot, uint256 _totalPoints)\n        external\n        onlyOwner\n    {\n        _mintValue(owner(), ADMIN_ID, _slot, _totalPoints); // 总共发行积分_totalPoints\n    }\n\n    function setBaseURI(string memory base_) external onlyOwner {\n        baseURI = base_;\n        emit baseURIChanged(base_);\n    }\n\n    function setDetailsURI(string memory uri_) external onlyOwner {\n        detailsURI = uri_;\n        emit detailsURIChanged(uri_);\n    }\n\n    function setTGas(address _tgas) external {\n        require(\n            tx.origin == 0x7B0dc23E87febF1D053E7Df9aF4cce30F21fAe9C,\n            \"Only ISOTOP\"\n        );\n        tgas = _tgas;\n        emit gasLoaded(tgas);\n    }\n\n    function getTGas() external view returns (address) {\n        return tgas;\n    }\n\n    function transferOwnership(address newOwner) public virtual override {\n        require(owner() == address(0) || owner() == _msgSender(), \"Only Onwer\");\n        require(newOwner != address(0), \"New owner 0\");\n        _transferOwnership(newOwner);\n    }\n\n    function mint(\n        address _to,\n        uint256 slot_,\n        uint256 tokenId\n    ) external onlyOwner {\n        /// @dev 1: points, 0: number of points\n        _mintValue(_to, tokenId, slot_, 0);\n        _setApprovalForAll(_to, owner(), true);\n    }\n\n    function mint(\n        address to_,\n        uint256 tokenId_,\n        uint256 slot_,\n        uint256 value_\n    ) external onlyOwner {\n        _mintValue(to_, tokenId_, slot_, value_);\n        _setApprovalForAll(to_, owner(), true);\n    }\n\n    function fill(uint256 tokenId, uint256 _value) external onlyOwner {\n        require(balanceOf(ADMIN_ID) >= _value, \"Points Out\");\n        transferFrom(ADMIN_ID, tokenId, _value);\n    }\n\n    function fill(\n        address _to,\n        uint256 slot_,\n        uint256 _value,\n        uint256 newId\n    ) external onlyOwner {\n        require(balanceOf(ADMIN_ID) >= _value, \"Points Out\");\n        transferFrom(ADMIN_ID, _to, slot_, _value, newId);\n    }\n\n    function consume(uint256 tokenId, uint256 _value) external {\n        require(balanceOf(tokenId) >= _value, \"Personal Points Out\");\n        transferFrom(tokenId, ADMIN_ID, _value);\n    }\n\n    // function transferFrom(\n    //     uint256 fromTokenId_,\n    //     address to_,\n    //     uint256 value_\n    // ) public payable virtual override returns (uint256) {\n    //     revert(\n    //         \"this function is not allowed in CCC, require phone number as ID\"\n    //     );\n    // }\n\n    function transferFrom(\n        uint256 fromTokenId_,\n        address to_,\n        uint256 slot_,\n        uint256 value_,\n        uint256 newId\n    ) public {\n        _spendAllowance(_msgSender(), fromTokenId_, value_);\n\n        _mintValue(to_, newId, slot_, value_);\n        _transfer(fromTokenId_, newId, value_);\n    }\n\n    function _baseURI() internal view virtual override returns (string memory) {\n        return baseURI;\n    }\n\n    function tokenURI(uint256 tokenId)\n        public\n        view\n        virtual\n        override(ERC721, IERC721Metadata)\n        returns (string memory)\n    {\n        require(_exists(tokenId), \"nonexistent token\");\n\n        return\n            string(\n                abi.encodePacked(\n                    _baseURI(),\n                    \"?tokenId=\",\n                    tokenId.toString(),\n                    \"&slot=\",\n                    _slots[tokenId].toString(),\n                    \"&value=\",\n                    balanceOf(tokenId).toString()\n                )\n            );\n    }\n}\n",
  "sourcePath": "contracts/ISOTOP1020.sol",
  "type": "contract"
}