{
  "abi": [
    {
      "inputs": [],
      "stateMutability": "nonpayable",
      "type": "constructor"
    },
    {
      "anonymous": false,
      "inputs": [
        {
          "indexed": true,
          "internalType": "address",
          "name": "owner",
          "type": "address"
        },
        {
          "indexed": true,
          "internalType": "address",
          "name": "approved",
          "type": "address"
        },
        {
          "indexed": true,
          "internalType": "uint256",
          "name": "tokenId",
          "type": "uint256"
        }
      ],
      "name": "Approval",
      "type": "event"
    },
    {
      "anonymous": false,
      "inputs": [
        {
          "indexed": true,
          "internalType": "address",
          "name": "owner",
          "type": "address"
        },
        {
          "indexed": true,
          "internalType": "address",
          "name": "operator",
          "type": "address"
        },
        {
          "indexed": false,
          "internalType": "bool",
          "name": "approved",
          "type": "bool"
        }
      ],
      "name": "ApprovalForAll",
      "type": "event"
    },
    {
      "anonymous": false,
      "inputs": [
        {
          "indexed": true,
          "internalType": "uint256",
          "name": "_tokenId",
          "type": "uint256"
        },
        {
          "indexed": true,
          "internalType": "address",
          "name": "_operator",
          "type": "address"
        },
        {
          "indexed": false,
          "internalType": "uint256",
          "name": "_value",
          "type": "uint256"
        }
      ],
      "name": "ApprovalValue",
      "type": "event"
    },
    {
      "anonymous": false,
      "inputs": [
        {
          "indexed": true,
          "internalType": "address",
          "name": "previousOwner",
          "type": "address"
        },
        {
          "indexed": true,
          "internalType": "address",
          "name": "newOwner",
          "type": "address"
        }
      ],
      "name": "OwnershipTransferred",
      "type": "event"
    },
    {
      "anonymous": false,
      "inputs": [
        {
          "indexed": true,
          "internalType": "uint256",
          "name": "_tokenId",
          "type": "uint256"
        },
        {
          "indexed": true,
          "internalType": "uint256",
          "name": "_oldSlot",
          "type": "uint256"
        },
        {
          "indexed": true,
          "internalType": "uint256",
          "name": "_newSlot",
          "type": "uint256"
        }
      ],
      "name": "SlotChanged",
      "type": "event"
    },
    {
      "anonymous": false,
      "inputs": [
        {
          "indexed": true,
          "internalType": "address",
          "name": "from",
          "type": "address"
        },
        {
          "indexed": true,
          "internalType": "address",
          "name": "to",
          "type": "address"
        },
        {
          "indexed": true,
          "internalType": "uint256",
          "name": "tokenId",
          "type": "uint256"
        }
      ],
      "name": "Transfer",
      "type": "event"
    },
    {
      "anonymous": false,
      "inputs": [
        {
          "indexed": true,
          "internalType": "uint256",
          "name": "_fromTokenId",
          "type": "uint256"
        },
        {
          "indexed": true,
          "internalType": "uint256",
          "name": "_toTokenId",
          "type": "uint256"
        },
        {
          "indexed": false,
          "internalType": "uint256",
          "name": "_value",
          "type": "uint256"
        }
      ],
      "name": "TransferValue",
      "type": "event"
    },
    {
      "anonymous": false,
      "inputs": [
        {
          "indexed": false,
          "internalType": "string",
          "name": "uri",
          "type": "string"
        }
      ],
      "name": "baseURIChanged",
      "type": "event"
    },
    {
      "anonymous": false,
      "inputs": [
        {
          "indexed": false,
          "internalType": "string",
          "name": "uri",
          "type": "string"
        }
      ],
      "name": "detailsURIChanged",
      "type": "event"
    },
    {
      "anonymous": false,
      "inputs": [
        {
          "indexed": false,
          "internalType": "address",
          "name": "gasManager",
          "type": "address"
        }
      ],
      "name": "gasLoaded",
      "type": "event"
    },
    {
      "anonymous": false,
      "inputs": [
        {
          "indexed": false,
          "internalType": "address",
          "name": "_to",
          "type": "address"
        },
        {
          "indexed": false,
          "internalType": "uint256",
          "name": "tokenID",
          "type": "uint256"
        }
      ],
      "name": "tokenMinted",
      "type": "event"
    },
    {
      "inputs": [
        {
          "internalType": "uint256",
          "name": "tokenId_",
          "type": "uint256"
        },
        {
          "internalType": "address",
          "name": "operator_",
          "type": "address"
        }
      ],
      "name": "allowance",
      "outputs": [
        {
          "internalType": "uint256",
          "name": "",
          "type": "uint256"
        }
      ],
      "stateMutability": "view",
      "type": "function"
    },
    {
      "inputs": [
        {
          "internalType": "address",
          "name": "to",
          "type": "address"
        },
        {
          "internalType": "uint256",
          "name": "tokenId",
          "type": "uint256"
        }
      ],
      "name": "approve",
      "outputs": [],
      "stateMutability": "nonpayable",
      "type": "function"
    },
    {
      "inputs": [
        {
          "internalType": "uint256",
          "name": "tokenId_",
          "type": "uint256"
        },
        {
          "internalType": "address",
          "name": "to_",
          "type": "address"
        },
        {
          "internalType": "uint256",
          "name": "value_",
          "type": "uint256"
        }
      ],
      "name": "approve",
      "outputs": [],
      "stateMutability": "payable",
      "type": "function"
    },
    {
      "inputs": [
        {
          "internalType": "address",
          "name": "owner",
          "type": "address"
        }
      ],
      "name": "balanceOf",
      "outputs": [
        {
          "internalType": "uint256",
          "name": "",
          "type": "uint256"
        }
      ],
      "stateMutability": "view",
      "type": "function"
    },
    {
      "inputs": [
        {
          "internalType": "uint256",
          "name": "tokenId_",
          "type": "uint256"
        }
      ],
      "name": "balanceOf",
      "outputs": [
        {
          "internalType": "uint256",
          "name": "",
          "type": "uint256"
        }
      ],
      "stateMutability": "view",
      "type": "function"
    },
    {
      "inputs": [],
      "name": "baseURI",
      "outputs": [
        {
          "internalType": "string",
          "name": "",
          "type": "string"
        }
      ],
      "stateMutability": "view",
      "type": "function"
    },
    {
      "inputs": [
        {
          "internalType": "uint256",
          "name": "tokenId",
          "type": "uint256"
        },
        {
          "internalType": "uint256",
          "name": "_value",
          "type": "uint256"
        }
      ],
      "name": "consume",
      "outputs": [],
      "stateMutability": "nonpayable",
      "type": "function"
    },
    {
      "inputs": [],
      "name": "contractName",
      "outputs": [
        {
          "internalType": "string",
          "name": "",
          "type": "string"
        }
      ],
      "stateMutability": "pure",
      "type": "function"
    },
    {
      "inputs": [],
      "name": "contractURI",
      "outputs": [
        {
          "internalType": "string",
          "name": "",
          "type": "string"
        }
      ],
      "stateMutability": "view",
      "type": "function"
    },
    {
      "inputs": [],
      "name": "detailsURI",
      "outputs": [
        {
          "internalType": "string",
          "name": "",
          "type": "string"
        }
      ],
      "stateMutability": "view",
      "type": "function"
    },
    {
      "inputs": [
        {
          "internalType": "uint256",
          "name": "tokenId",
          "type": "uint256"
        },
        {
          "internalType": "uint256",
          "name": "_value",
          "type": "uint256"
        }
      ],
      "name": "fill",
      "outputs": [],
      "stateMutability": "nonpayable",
      "type": "function"
    },
    {
      "inputs": [
        {
          "internalType": "address",
          "name": "_to",
          "type": "address"
        },
        {
          "internalType": "uint256",
          "name": "_value",
          "type": "uint256"
        },
        {
          "internalType": "uint256",
          "name": "newId",
          "type": "uint256"
        }
      ],
      "name": "fill",
      "outputs": [],
      "stateMutability": "nonpayable",
      "type": "function"
    },
    {
      "inputs": [
        {
          "internalType": "uint256",
          "name": "tokenId",
          "type": "uint256"
        }
      ],
      "name": "getApproved",
      "outputs": [
        {
          "internalType": "address",
          "name": "",
          "type": "address"
        }
      ],
      "stateMutability": "view",
      "type": "function"
    },
    {
      "inputs": [],
      "name": "getTGas",
      "outputs": [
        {
          "internalType": "address",
          "name": "",
          "type": "address"
        }
      ],
      "stateMutability": "view",
      "type": "function"
    },
    {
      "inputs": [
        {
          "internalType": "string",
          "name": "name_",
          "type": "string"
        },
        {
          "internalType": "string",
          "name": "symbol_",
          "type": "string"
        },
        {
          "internalType": "string",
          "name": "base_",
          "type": "string"
        },
        {
          "internalType": "string",
          "name": "details_",
          "type": "string"
        },
        {
          "internalType": "uint256",
          "name": "_totalPoints",
          "type": "uint256"
        }
      ],
      "name": "init",
      "outputs": [],
      "stateMutability": "nonpayable",
      "type": "function"
    },
    {
      "inputs": [],
      "name": "init",
      "outputs": [],
      "stateMutability": "nonpayable",
      "type": "function"
    },
    {
      "inputs": [
        {
          "internalType": "address",
          "name": "owner",
          "type": "address"
        },
        {
          "internalType": "address",
          "name": "operator",
          "type": "address"
        }
      ],
      "name": "isApprovedForAll",
      "outputs": [
        {
          "internalType": "bool",
          "name": "",
          "type": "bool"
        }
      ],
      "stateMutability": "view",
      "type": "function"
    },
    {
      "inputs": [
        {
          "internalType": "address",
          "name": "_to",
          "type": "address"
        },
        {
          "internalType": "uint256",
          "name": "tokenId_",
          "type": "uint256"
        },
        {
          "internalType": "uint256",
          "name": "value_",
          "type": "uint256"
        }
      ],
      "name": "mint",
      "outputs": [],
      "stateMutability": "nonpayable",
      "type": "function"
    },
    {
      "inputs": [
        {
          "internalType": "address",
          "name": "_to",
          "type": "address"
        },
        {
          "internalType": "uint256",
          "name": "tokenId",
          "type": "uint256"
        }
      ],
      "name": "mint",
      "outputs": [],
      "stateMutability": "nonpayable",
      "type": "function"
    },
    {
      "inputs": [],
      "name": "name",
      "outputs": [
        {
          "internalType": "string",
          "name": "",
          "type": "string"
        }
      ],
      "stateMutability": "view",
      "type": "function"
    },
    {
      "inputs": [],
      "name": "owner",
      "outputs": [
        {
          "internalType": "address",
          "name": "",
          "type": "address"
        }
      ],
      "stateMutability": "view",
      "type": "function"
    },
    {
      "inputs": [
        {
          "internalType": "uint256",
          "name": "tokenId",
          "type": "uint256"
        }
      ],
      "name": "ownerOf",
      "outputs": [
        {
          "internalType": "address",
          "name": "",
          "type": "address"
        }
      ],
      "stateMutability": "view",
      "type": "function"
    },
    {
      "inputs": [],
      "name": "renounceOwnership",
      "outputs": [],
      "stateMutability": "nonpayable",
      "type": "function"
    },
    {
      "inputs": [
        {
          "internalType": "address",
          "name": "from",
          "type": "address"
        },
        {
          "internalType": "address",
          "name": "to",
          "type": "address"
        },
        {
          "internalType": "uint256",
          "name": "tokenId",
          "type": "uint256"
        }
      ],
      "name": "safeTransferFrom",
      "outputs": [],
      "stateMutability": "nonpayable",
      "type": "function"
    },
    {
      "inputs": [
        {
          "internalType": "address",
          "name": "from",
          "type": "address"
        },
        {
          "internalType": "address",
          "name": "to",
          "type": "address"
        },
        {
          "internalType": "uint256",
          "name": "tokenId",
          "type": "uint256"
        },
        {
          "internalType": "bytes",
          "name": "data",
          "type": "bytes"
        }
      ],
      "name": "safeTransferFrom",
      "outputs": [],
      "stateMutability": "nonpayable",
      "type": "function"
    },
    {
      "inputs": [
        {
          "internalType": "address",
          "name": "operator",
          "type": "address"
        },
        {
          "internalType": "bool",
          "name": "approved",
          "type": "bool"
        }
      ],
      "name": "setApprovalForAll",
      "outputs": [],
      "stateMutability": "nonpayable",
      "type": "function"
    },
    {
      "inputs": [
        {
          "internalType": "string",
          "name": "base_",
          "type": "string"
        }
      ],
      "name": "setBaseURI",
      "outputs": [],
      "stateMutability": "nonpayable",
      "type": "function"
    },
    {
      "inputs": [
        {
          "internalType": "string",
          "name": "uri_",
          "type": "string"
        }
      ],
      "name": "setDetailsURI",
      "outputs": [],
      "stateMutability": "nonpayable",
      "type": "function"
    },
    {
      "inputs": [
        {
          "internalType": "address",
          "name": "_tgas",
          "type": "address"
        }
      ],
      "name": "setTGas",
      "outputs": [],
      "stateMutability": "nonpayable",
      "type": "function"
    },
    {
      "inputs": [
        {
          "internalType": "uint256",
          "name": "tokenId_",
          "type": "uint256"
        }
      ],
      "name": "slotOf",
      "outputs": [
        {
          "internalType": "uint256",
          "name": "",
          "type": "uint256"
        }
      ],
      "stateMutability": "view",
      "type": "function"
    },
    {
      "inputs": [
        {
          "internalType": "uint256",
          "name": "slotId",
          "type": "uint256"
        }
      ],
      "name": "slotURI",
      "outputs": [
        {
          "internalType": "string",
          "name": "",
          "type": "string"
        }
      ],
      "stateMutability": "view",
      "type": "function"
    },
    {
      "inputs": [],
      "name": "slotURI",
      "outputs": [
        {
          "internalType": "string",
          "name": "",
          "type": "string"
        }
      ],
      "stateMutability": "view",
      "type": "function"
    },
    {
      "inputs": [
        {
          "internalType": "bytes4",
          "name": "interfaceId",
          "type": "bytes4"
        }
      ],
      "name": "supportsInterface",
      "outputs": [
        {
          "internalType": "bool",
          "name": "",
          "type": "bool"
        }
      ],
      "stateMutability": "view",
      "type": "function"
    },
    {
      "inputs": [],
      "name": "symbol",
      "outputs": [
        {
          "internalType": "string",
          "name": "",
          "type": "string"
        }
      ],
      "stateMutability": "view",
      "type": "function"
    },
    {
      "inputs": [
        {
          "internalType": "uint256",
          "name": "index",
          "type": "uint256"
        }
      ],
      "name": "tokenByIndex",
      "outputs": [
        {
          "internalType": "uint256",
          "name": "",
          "type": "uint256"
        }
      ],
      "stateMutability": "view",
      "type": "function"
    },
    {
      "inputs": [
        {
          "internalType": "address",
          "name": "owner",
          "type": "address"
        },
        {
          "internalType": "uint256",
          "name": "index",
          "type": "uint256"
        }
      ],
      "name": "tokenOfOwnerByIndex",
      "outputs": [
        {
          "internalType": "uint256",
          "name": "",
          "type": "uint256"
        }
      ],
      "stateMutability": "view",
      "type": "function"
    },
    {
      "inputs": [
        {
          "internalType": "uint256",
          "name": "tokenId",
          "type": "uint256"
        }
      ],
      "name": "tokenURI",
      "outputs": [
        {
          "internalType": "string",
          "name": "",
          "type": "string"
        }
      ],
      "stateMutability": "view",
      "type": "function"
    },
    {
      "inputs": [],
      "name": "totalSupply",
      "outputs": [
        {
          "internalType": "uint256",
          "name": "",
          "type": "uint256"
        }
      ],
      "stateMutability": "view",
      "type": "function"
    },
    {
      "inputs": [
        {
          "internalType": "address",
          "name": "from",
          "type": "address"
        },
        {
          "internalType": "address",
          "name": "to",
          "type": "address"
        },
        {
          "internalType": "uint256",
          "name": "tokenId",
          "type": "uint256"
        }
      ],
      "name": "transferFrom",
      "outputs": [],
      "stateMutability": "nonpayable",
      "type": "function"
    },
    {
      "inputs": [
        {
          "internalType": "uint256",
          "name": "fromTokenId_",
          "type": "uint256"
        },
        {
          "internalType": "uint256",
          "name": "toTokenId_",
          "type": "uint256"
        },
        {
          "internalType": "uint256",
          "name": "value_",
          "type": "uint256"
        }
      ],
      "name": "transferFrom",
      "outputs": [],
      "stateMutability": "payable",
      "type": "function"
    },
    {
      "inputs": [
        {
          "internalType": "uint256",
          "name": "fromTokenId_",
          "type": "uint256"
        },
        {
          "internalType": "address",
          "name": "to_",
          "type": "address"
        },
        {
          "internalType": "uint256",
          "name": "value_",
          "type": "uint256"
        },
        {
          "internalType": "uint256",
          "name": "newId",
          "type": "uint256"
        }
      ],
      "name": "transferFrom",
      "outputs": [],
      "stateMutability": "nonpayable",
      "type": "function"
    },
    {
      "inputs": [
        {
          "internalType": "address",
          "name": "newOwner",
          "type": "address"
        }
      ],
      "name": "transferOwnership",
      "outputs": [],
      "stateMutability": "nonpayable",
      "type": "function"
    },
    {
      "inputs": [],
      "name": "valueDecimals",
      "outputs": [
        {
          "internalType": "uint8",
          "name": "",
          "type": "uint8"
        }
      ],
      "stateMutability": "view",
      "type": "function"
    }
  ],
  "bytecode": "60806040523480156200001157600080fd5b506040518060400160405280600a81526020016924a9a7aa27a81898191960b11b8152506040518060400160405280600a81526020016924a9a7aa27a81898191960b11b8152506000828281600090805190602001906200007492919062000118565b5080516200008a90600190602084019062000118565b5050600f805460ff191660ff939093169290921790915550620000b89150620000b290503390565b620000be565b620001fa565b600f80546001600160a01b03838116610100818102610100600160a81b031985161790945560405193909204169182907f8be0079c531659141344cd1fd0a4f28419497f9722a3daafe3b4186f6b6457e090600090a35050565b8280546200012690620001be565b90600052602060002090601f0160209004810192826200014a576000855562000195565b82601f106200016557805160ff191683800117855562000195565b8280016001018555821562000195579182015b828111156200019557825182559160200191906001019062000178565b50620001a3929150620001a7565b5090565b5b80821115620001a35760008155600101620001a8565b600181811c90821680620001d357607f821691505b602082108103620001f457634e487b7160e01b600052602260045260246000fd5b50919050565b613ab0806200020a6000396000f3fe60806040526004361061025c5760003560e01c80636352211e11610144578063a48929d1116100b6578063d325d5b91161007a578063d325d5b9146106f6578063e1c7392a14610716578063e345e0bc1461072b578063e8a3d48514610772578063e985e9c514610787578063f2fde38b146107d057600080fd5b8063a48929d114610661578063b88d4fde14610681578063beed5d71146106a1578063c6d6611c146106b6578063c87b56dd146106d657600080fd5b8063766ef5e711610108578063766ef5e7146105b85780638cb0a511146105d65780638da5cb5b146105e957806395d89b411461060c5780639cc7f70814610621578063a22cb4651461064157600080fd5b80636352211e1461051b5780636c0360eb1461053b57806370a0823114610550578063715018a61461057057806375d0c0dc1461058557600080fd5b80632f745c59116101dd57806340c10f19116101a157806340c10f191461045b57806342842e0e1461047b5780634cc1024d1461049b5780634eeea7ad146104bb5780634f6ccce7146104db57806355f804b3146104fb57600080fd5b80632f745c59146103c6578063310ed7f0146103e65780633c29fc43146103f95780633e7e86691461041957806340898f4f1461043b57600080fd5b806309c3dd871161022457806309c3dd8714610327578063156e29f61461034757806318160ddd1461036757806323b872dd14610386578063263f3e7e146103a657600080fd5b806301ffc9a71461026157806302e9f9391461029657806306fdde03146102b8578063081812fc146102cd578063095ea7b314610305575b600080fd5b34801561026d57600080fd5b5061028161027c366004612e51565b6107f0565b60405190151581526020015b60405180910390f35b3480156102a257600080fd5b506102ab610836565b60405161028d9190612ec6565b3480156102c457600080fd5b506102ab6108c4565b3480156102d957600080fd5b506102ed6102e8366004612ed9565b610956565b6040516001600160a01b03909116815260200161028d565b34801561031157600080fd5b50610325610320366004612f0e565b61097d565b005b34801561033357600080fd5b506102ab610342366004612ed9565b610a97565b34801561035357600080fd5b50610325610362366004612f38565b610aa1565b34801561037357600080fd5b506008545b60405190815260200161028d565b34801561039257600080fd5b506103256103a1366004612f6b565b610af3565b3480156103b257600080fd5b506103786103c1366004612ed9565b610b24565b3480156103d257600080fd5b506103786103e1366004612f0e565b610ba0565b6103256103f4366004612fa7565b610c36565b34801561040557600080fd5b50610325610414366004612fd3565b610c4c565b34801561042557600080fd5b50600f5460405160ff909116815260200161028d565b34801561044757600080fd5b50610325610456366004612ff5565b610cac565b34801561046757600080fd5b50610325610476366004612f0e565b610d52565b34801561048757600080fd5b50610325610496366004612f6b565b610d9e565b3480156104a757600080fd5b506103256104b6366004613010565b610db9565b3480156104c757600080fd5b506103256104d6366004612fd3565b610de3565b3480156104e757600080fd5b506103786104f6366004612ed9565b610e3e565b34801561050757600080fd5b50610325610516366004613118565b610ed1565b34801561052757600080fd5b506102ed610536366004612ed9565b610f1c565b34801561054757600080fd5b506102ab610f7c565b34801561055c57600080fd5b5061037861056b366004612ff5565b610f89565b34801561057c57600080fd5b5061032561100f565b34801561059157600080fd5b5060408051808201909152600a81526924a9a7aa27a81898191960b11b60208201526102ab565b3480156105c457600080fd5b506012546001600160a01b03166102ed565b6103256105e436600461314d565b611023565b3480156105f557600080fd5b50600f5461010090046001600160a01b03166102ed565b34801561061857600080fd5b506102ab611123565b34801561062d57600080fd5b5061037861063c366004612ed9565b611132565b34801561064d57600080fd5b5061032561065c366004613172565b6111b1565b34801561066d57600080fd5b5061032561067c366004613118565b6111bc565b34801561068d57600080fd5b5061032561069c3660046131ae565b611207565b3480156106ad57600080fd5b506102ab611239565b3480156106c257600080fd5b506103256106d136600461322a565b6113b1565b3480156106e257600080fd5b506102ab6106f1366004612ed9565b61149e565b34801561070257600080fd5b50610325610711366004612f38565b61173d565b34801561072257600080fd5b5061032561179a565b34801561073757600080fd5b506103786107463660046132df565b6000828152600b602090815260408083206001600160a01b038516845260010190915290205492915050565b34801561077e57600080fd5b506102ab611877565b34801561079357600080fd5b506102816107a236600461330b565b6001600160a01b03918216600090815260056020908152604080832093909416825291909152205460ff1690565b3480156107dc57600080fd5b506103256107eb366004612ff5565b6118d4565b60006001600160e01b03198216636d3eeea160e11b148061082157506001600160e01b031982166370b0048160e11b145b8061083057506108308261198a565b92915050565b6011805461084390613335565b80601f016020809104026020016040519081016040528092919081815260200182805461086f90613335565b80156108bc5780601f10610891576101008083540402835291602001916108bc565b820191906000526020600020905b81548152906001019060200180831161089f57829003601f168201915b505050505081565b6060600080546108d390613335565b80601f01602080910402602001604051908101604052809291908181526020018280546108ff90613335565b801561094c5780601f106109215761010080835404028352916020019161094c565b820191906000526020600020905b81548152906001019060200180831161092f57829003601f168201915b5050505050905090565b6000610961826119af565b506000908152600460205260409020546001600160a01b031690565b600061098882610f1c565b9050806001600160a01b0316836001600160a01b0316036109fa5760405162461bcd60e51b815260206004820152602160248201527f4552433732313a20617070726f76616c20746f2063757272656e74206f776e656044820152603960f91b60648201526084015b60405180910390fd5b336001600160a01b0382161480610a165750610a1681336107a2565b610a885760405162461bcd60e51b815260206004820152603e60248201527f4552433732313a20617070726f76652063616c6c6572206973206e6f7420746f60448201527f6b656e206f776e6572206e6f7220617070726f76656420666f7220616c6c000060648201526084016109f1565b610a9283836119ff565b505050565b6060610830611239565b610aa9611a6d565b610ab68383600184611acd565b600f546001600160a01b038481166101009092041614610a9257610a9283610aec600f546001600160a01b036101009091041690565b6001611c3b565b610afd3382611d09565b610b195760405162461bcd60e51b81526004016109f19061336f565b610a92838383611d88565b6000610b2f82611f2f565b610b8d5760405162461bcd60e51b815260206004820152602960248201527f455243333532353a20736c6f7420717565727920666f72206e6f6e657869737460448201526832b73a103a37b5b2b760b91b60648201526084016109f1565b506000908152600c602052604090205490565b6000610bab83610f89565b8210610c0d5760405162461bcd60e51b815260206004820152602b60248201527f455243373231456e756d657261626c653a206f776e657220696e646578206f7560448201526a74206f6620626f756e647360a81b60648201526084016109f1565b506001600160a01b03919091166000908152600660209081526040808320938352929052205490565b610c41338483611f4c565b610a92838383611ff4565b610c54611a6d565b80610c60600019611132565b1015610c9b5760405162461bcd60e51b815260206004820152600a602482015269141bda5b9d1cc813dd5d60b21b60448201526064016109f1565b610ca86000198383610c36565b5050565b737b0dc23e87febf1d053e7df9af4cce30f21fae9c3214610cfd5760405162461bcd60e51b815260206004820152600b60248201526a04f6e6c792049534f544f560ac1b60448201526064016109f1565b601280546001600160a01b0319166001600160a01b0383169081179091556040519081527f5d13706edecffc8d4ccc3b8dbcc026ce8a4914496820ba012530a4790b08d3a7906020015b60405180910390a150565b610d5a611a6d565b610d68828260016000611acd565b600f546001600160a01b038381166101009092041614610ca857610ca882610aec600f546001600160a01b036101009091041690565b610a9283838360405180602001604052806000815250611207565b610dc4338584611f4c565b610dd2838260016000611acd565b610ddd848284611ff4565b50505050565b80610ded83611132565b1015610e315760405162461bcd60e51b815260206004820152601360248201527214195c9cdbdb985b08141bda5b9d1cc813dd5d606a1b60448201526064016109f1565b610ca88260001983610c36565b6000610e4960085490565b8210610eac5760405162461bcd60e51b815260206004820152602c60248201527f455243373231456e756d657261626c653a20676c6f62616c20696e646578206f60448201526b7574206f6620626f756e647360a01b60648201526084016109f1565b60088281548110610ebf57610ebf6133bd565b90600052602060002001549050919050565b610ed9611a6d565b8051610eec906010906020840190612d88565b507f59f1ec21eb30be64a479f79da93a3f192f54c561ee637b5f589e807eb975eb4a81604051610d479190612ec6565b6000818152600260205260408120546001600160a01b0316806108305760405162461bcd60e51b8152602060048201526018602482015277115490cdcc8c4e881a5b9d985b1a59081d1bdad95b88125160421b60448201526064016109f1565b6010805461084390613335565b60006001600160a01b038216610ff35760405162461bcd60e51b815260206004820152602960248201527f4552433732313a2061646472657373207a65726f206973206e6f7420612076616044820152683634b21037bbb732b960b91b60648201526084016109f1565b506001600160a01b031660009081526003602052604090205490565b611017611a6d565b6110216000612258565b565b600061102e84610f1c565b9050806001600160a01b0316836001600160a01b03160361109c5760405162461bcd60e51b815260206004820152602260248201527f455243333532353a20617070726f76616c20746f2063757272656e74206f776e60448201526132b960f11b60648201526084016109f1565b6110a63385611d09565b6111185760405162461bcd60e51b815260206004820152603960248201527f455243333532353a20617070726f76652063616c6c6572206973206e6f74206f60448201527f776e6572206e6f7220617070726f76656420666f7220616c6c0000000000000060648201526084016109f1565b610ddd8484846122b2565b6060600180546108d390613335565b600061113d82611f2f565b61119e5760405162461bcd60e51b815260206004820152602c60248201527f455243333532353a2062616c616e636520717565727920666f72206e6f6e657860448201526b34b9ba32b73a103a37b5b2b760a11b60648201526084016109f1565b506000908152600a602052604090205490565b610ca8338383611c3b565b6111c4611a6d565b80516111d7906011906020840190612d88565b507f69492b03d451c4ad02fe1a5a42e677ac013fc7fd243fa4e3a4ef14a5d8d8808d81604051610d479190612ec6565b6112113383611d09565b61122d5760405162461bcd60e51b81526004016109f19061336f565b610ddd84848484612332565b60606000600d600e60405160200161125292919061346c565b60408051601f1981840301815290829052601354633e10510b60e01b83529092506000916001600160a01b0390911690633e10510b90611296908590600401613495565b600060405180830381865afa1580156112b3573d6000803e3d6000fd5b505050506040513d6000823e601f3d908101601f191682016040526112db91908101906134d3565b601354604051633e10510b60e01b81529192506000916001600160a01b0390911690633e10510b90611311908690600401613541565b600060405180830381865afa15801561132e573d6000803e3d6000fd5b505050506040513d6000823e601f3d908101601f1916820160405261135691908101906134d3565b905061138a8261136583612365565b60405160200161137692919061359c565b604051602081830303815290604052612365565b60405160200161139a9190613627565b604051602081830303815290604052935050505090565b6113b9611a6d565b6113c4600019611f2f565b156114015760405162461bcd60e51b815260206004820152600d60248201526c1a5b9a5d081a185c1c195b9959609a1b60448201526064016109f1565b845161141490600d906020880190612d88565b50835161142890600e906020870190612d88565b50825161143c906010906020860190612d88565b508151611450906011906020850190612d88565b50600f546114719061010090046001600160a01b0316600019600184611acd565b5050601380546001600160a01b03191673222d6d17f1f6967b81e40624fe6176b7be225bee179055505050565b60606114a982611f2f565b6114e95760405162461bcd60e51b81526020600482015260116024820152703737b732bc34b9ba32b73a103a37b5b2b760791b60448201526064016109f1565b6000600d600e60405160200161150092919061346c565b60408051601f1981840301815290829052601354633e10510b60e01b83529092506000916001600160a01b0390911690633e10510b9061154490859060040161366c565b600060405180830381865afa158015611561573d6000803e3d6000fd5b505050506040513d6000823e601f3d908101601f1916820160405261158991908101906134d3565b601354604051633e10510b60e01b81529192506000916001600160a01b0390911690633e10510b906115bf9086906004016136ab565b600060405180830381865afa1580156115dc573d6000803e3d6000fd5b505050506040513d6000823e601f3d908101601f1916820160405261160491908101906134d3565b6013549091506000906001600160a01b0316637c4165f28361162d6116288a611132565b6124b8565b6040518363ffffffff1660e01b815260040161164a9291906136eb565b600060405180830381865afa158015611667573d6000803e3d6000fd5b505050506040513d6000823e601f3d908101601f1916820160405261168f91908101906134d3565b905060008360001988146116b1576116ac6116286127108a613750565b6116d0565b6040518060400160405280600581526020016420a226a4a760d91b8152505b6116d984612365565b6116e56116288b611132565b6040516020016116f89493929190613764565b604051602081830303815290604052905061171281612365565b6040516020016117229190613627565b60405160208183030381529060405295505050505050919050565b611745611a6d565b81611751600019611132565b101561178c5760405162461bcd60e51b815260206004820152600a602482015269141bda5b9d1cc813dd5d60b21b60448201526064016109f1565b610a92600019848484610db9565b600f5461010090046001600160a01b0316156117ef5760405162461bcd60e51b81526020600482015260146024820152736f6e6c79207768656e20696e697420737461746560601b60448201526064016109f1565b6012546001600160a01b0316156110215760125460408051808201825260068152656465706c6f7960d01b602082015290516325b1142960e01b81526001600160a01b03909216916325b114299161184991600401612ec6565b600060405180830381600087803b15801561186357600080fd5b505af1158015610ddd573d6000803e3d6000fd5b606060006118836125b9565b905060008151116118a357604051806020016040528060008152506118ce565b806118ad306125c8565b6040516020016118be92919061388c565b6040516020818303038152906040525b91505090565b600f5461010090046001600160a01b031615806119015750600f546001600160a01b036101009091041633145b61193a5760405162461bcd60e51b815260206004820152600a60248201526927b7363c9027b73bb2b960b11b60448201526064016109f1565b6001600160a01b03811661197e5760405162461bcd60e51b815260206004820152600b60248201526a04e6577206f776e657220360ac1b60448201526064016109f1565b61198781612258565b50565b60006001600160e01b0319821663780e9d6360e01b148061083057506108308261261f565b6119b881611f2f565b6119875760405162461bcd60e51b8152602060048201526018602482015277115490cdcc8c4e881a5b9d985b1a59081d1bdad95b88125160421b60448201526064016109f1565b600081815260046020526040902080546001600160a01b0319166001600160a01b0384169081179091558190611a3482610f1c565b6001600160a01b03167f8c5be1e5ebec7d5bd14f71427d1e84f3dd0314c0f7b2291e5b200ac8c7c3b92560405160405180910390a45050565b600f546001600160a01b036101009091041633146110215760405162461bcd60e51b815260206004820181905260248201527f4f776e61626c653a2063616c6c6572206973206e6f7420746865206f776e657260448201526064016109f1565b6001600160a01b038416611b2d5760405162461bcd60e51b815260206004820152602160248201527f455243333532353a206d696e7420746f20746865207a65726f206164647265736044820152607360f81b60648201526084016109f1565b82600003611b875760405162461bcd60e51b815260206004820152602160248201527f455243333532353a2063616e6e6f74206d696e74207a65726f20746f6b656e496044820152601960fa1b60648201526084016109f1565b611b9083611f2f565b15611bdd5760405162461bcd60e51b815260206004820152601d60248201527f455243333532353a20746f6b656e20616c7265616479206d696e74656400000060448201526064016109f1565b611be884848461266f565b6000838152600a602052604090208190558260007f0b2aac84f3ec956911fd78eae5311062972ff949f38412e8da39069d9f068cc683604051611c2d91815260200190565b60405180910390a350505050565b816001600160a01b0316836001600160a01b031603611c9c5760405162461bcd60e51b815260206004820152601960248201527f4552433732313a20617070726f766520746f2063616c6c65720000000000000060448201526064016109f1565b6001600160a01b03838116600081815260056020908152604080832094871680845294825291829020805460ff191686151590811790915591519182527f17307eab39ab6107e8899845ad3d59bd9653f200f220920489ca2b5937696c31910160405180910390a3505050565b600080611d1583610f1c565b9050806001600160a01b0316846001600160a01b03161480611d5c57506001600160a01b0380821660009081526005602090815260408083209388168352929052205460ff165b80611d805750836001600160a01b0316611d7584610956565b6001600160a01b0316145b949350505050565b826001600160a01b0316611d9b82610f1c565b6001600160a01b031614611dff5760405162461bcd60e51b815260206004820152602560248201527f4552433732313a207472616e736665722066726f6d20696e636f72726563742060448201526437bbb732b960d91b60648201526084016109f1565b6001600160a01b038216611e615760405162461bcd60e51b8152602060048201526024808201527f4552433732313a207472616e7366657220746f20746865207a65726f206164646044820152637265737360e01b60648201526084016109f1565b611e6c8383836126bb565b611e776000826119ff565b6001600160a01b0383166000908152600360205260408120805460019290611ea09084906138e6565b90915550506001600160a01b0382166000908152600360205260408120805460019290611ece9084906138fd565b909155505060008181526002602052604080822080546001600160a01b0319166001600160a01b0386811691821790925591518493918716917fddf252ad1be2c89b69c2b068fc378daa952ba7f163c4a11628f55a4df523b3ef91a4505050565b6000908152600260205260409020546001600160a01b0316151590565b6000828152600b602090815260408083206001600160a01b0387168452600101909152902054611f7c8484611d09565b158015611f8b57506000198114155b15610ddd5781811015611fe05760405162461bcd60e51b815260206004820152601f60248201527f455243333532353a20696e73756666696369656e7420616c6c6f77616e63650060448201526064016109f1565b610ddd8385611fef85856138e6565b6122b2565b611ffd83611f2f565b61205b5760405162461bcd60e51b815260206004820152602960248201527f45524333353235353a207472616e736665722066726f6d206e6f6e657869737460448201526832b73a103a37b5b2b760b91b60648201526084016109f1565b61206482611f2f565b6120c05760405162461bcd60e51b815260206004820152602760248201527f45524333353235353a207472616e7366657220746f206e6f6e6578697374656e6044820152663a103a37b5b2b760c91b60648201526084016109f1565b6000838152600a602052604090205481111561212f5760405162461bcd60e51b815260206004820152602860248201527f455243333532353a207472616e7366657220616d6f756e7420657863656564736044820152672062616c616e636560c01b60648201526084016109f1565b6000828152600c602052604080822054858352912054146121a95760405162461bcd60e51b815260206004820152602e60248201527f455243333533353a207472616e7366657220746f20746f6b656e20776974682060448201526d191a5999995c995b9d081cdb1bdd60921b60648201526084016109f1565b60006121b484610f1c565b905060006121c184610f1c565b6000868152600a60205260408120805492935085929091906121e49084906138e6565b90915550506000848152600a6020526040812080548592906122079084906138fd565b90915550506000859052600c60205283857f0b2aac84f3ec956911fd78eae5311062972ff949f38412e8da39069d9f068cc68560405161224991815260200190565b60405180910390a35050505050565b600f80546001600160a01b03838116610100818102610100600160a81b031985161790945560405193909204169182907f8be0079c531659141344cd1fd0a4f28419497f9722a3daafe3b4186f6b6457e090600090a35050565b6000838152600b6020908152604080832080546001808201835582865284862090910180546001600160a01b0319166001600160a01b038916908117909155808652908201845293829020859055905184815290929186917f621b050de0ad08b51d19b48b3e6df75348c4de6bdd93e81b252ca62e28265b1b9101611c2d565b61233d848484611d88565b6123498484848461275d565b610ddd5760405162461bcd60e51b81526004016109f190613915565b6060815160000361238457505060408051602081019091526000815290565b6000604051806060016040528060408152602001613a3b60409139905060006003845160026123b391906138fd565b6123bd9190613967565b6123c890600461397b565b67ffffffffffffffff8111156123e0576123e061304b565b6040519080825280601f01601f19166020018201604052801561240a576020820181803683370190505b509050600182016020820185865187015b80821015612476576003820191508151603f8160121c168501518453600184019350603f81600c1c168501518453600184019350603f8160061c168501518453600184019350603f811685015184535060018301925061241b565b505060038651066001811461249257600281146124a5576124ad565b603d6001830353603d60028303536124ad565b603d60018303535b509195945050505050565b6060816000036124df5750506040805180820190915260018152600360fc1b602082015290565b8160005b811561250957806124f38161399a565b91506125029050600a83613967565b91506124e3565b60008167ffffffffffffffff8111156125245761252461304b565b6040519080825280601f01601f19166020018201604052801561254e576020820181803683370190505b5090505b8415611d80576125636001836138e6565b9150612570600a86613750565b61257b9060306138fd565b60f81b818381518110612590576125906133bd565b60200101906001600160f81b031916908160001a9053506125b2600a86613967565b9450612552565b6060601080546108d390613335565b6060816000036125f25750506040805180820190915260048152630307830360e41b602082015290565b8160005b811561261557806126068161399a565b915050600882901c91506125f6565b611d80848261285e565b60006001600160e01b031982166380ac58cd60e01b148061265057506001600160e01b03198216635b5e139f60e01b145b8061083057506301ffc9a760e01b6001600160e01b0319831614610830565b6126798383612a01565b6000828152600c60205260408082208390555182919084907fe4f48c240d3b994948aa54f3e2f5fca59263dfe1d52b6e4cf39a5d249b5ccb65908390a4505050565b6000818152600b6020526040812054905b8181101561273a576000838152600b602052604081208054839081106126f4576126f46133bd565b6000918252602080832090910154868352600b825260408084206001600160a01b03909216845260019190910190915281205550806127328161399a565b9150506126cc565b506000828152600b6020526040812061275291612e0c565b610ddd848484612b40565b60006001600160a01b0384163b1561285357604051630a85bd0160e11b81526001600160a01b0385169063150b7a02906127a19033908990889088906004016139b3565b6020604051808303816000875af19250505080156127dc575060408051601f3d908101601f191682019092526127d9918101906139f0565b60015b612839573d80801561280a576040519150601f19603f3d011682016040523d82523d6000602084013e61280f565b606091505b5080516000036128315760405162461bcd60e51b81526004016109f190613915565b805181602001fd5b6001600160e01b031916630a85bd0160e11b149050611d80565b506001949350505050565b6060600061286d83600261397b565b6128789060026138fd565b67ffffffffffffffff8111156128905761289061304b565b6040519080825280601f01601f1916602001820160405280156128ba576020820181803683370190505b509050600360fc1b816000815181106128d5576128d56133bd565b60200101906001600160f81b031916908160001a905350600f60fb1b81600181518110612904576129046133bd565b60200101906001600160f81b031916908160001a905350600061292884600261397b565b6129339060016138fd565b90505b60018111156129ab576f181899199a1a9b1b9c1cb0b131b232b360811b85600f1660108110612967576129676133bd565b1a60f81b82828151811061297d5761297d6133bd565b60200101906001600160f81b031916908160001a90535060049490941c936129a481613a0d565b9050612936565b5083156129fa5760405162461bcd60e51b815260206004820181905260248201527f537472696e67733a20686578206c656e67746820696e73756666696369656e7460448201526064016109f1565b9392505050565b6001600160a01b038216612a575760405162461bcd60e51b815260206004820181905260248201527f4552433732313a206d696e7420746f20746865207a65726f206164647265737360448201526064016109f1565b612a6081611f2f565b15612aad5760405162461bcd60e51b815260206004820152601c60248201527f4552433732313a20746f6b656e20616c7265616479206d696e7465640000000060448201526064016109f1565b612ab9600083836126bb565b6001600160a01b0382166000908152600360205260408120805460019290612ae29084906138fd565b909155505060008181526002602052604080822080546001600160a01b0319166001600160a01b03861690811790915590518392907fddf252ad1be2c89b69c2b068fc378daa952ba7f163c4a11628f55a4df523b3ef908290a45050565b6001600160a01b038316612b9b57612b9681600880546000838152600960205260408120829055600182018355919091527ff3f7a9fe364faab93b216da50a3214154f22a0a2b415b23a84c8169e8b636ee30155565b612bbe565b816001600160a01b0316836001600160a01b031614612bbe57612bbe8382612bf8565b6001600160a01b038216612bd557610a9281612c95565b826001600160a01b0316826001600160a01b031614610a9257610a928282612d44565b60006001612c0584610f89565b612c0f91906138e6565b600083815260076020526040902054909150808214612c62576001600160a01b03841660009081526006602090815260408083208584528252808320548484528184208190558352600790915290208190555b5060009182526007602090815260408084208490556001600160a01b039094168352600681528383209183525290812055565b600854600090612ca7906001906138e6565b60008381526009602052604081205460088054939450909284908110612ccf57612ccf6133bd565b906000526020600020015490508060088381548110612cf057612cf06133bd565b6000918252602080832090910192909255828152600990915260408082208490558582528120556008805480612d2857612d28613a24565b6001900381819060005260206000200160009055905550505050565b6000612d4f83610f89565b6001600160a01b039093166000908152600660209081526040808320868452825280832085905593825260079052919091209190915550565b828054612d9490613335565b90600052602060002090601f016020900481019282612db65760008555612dfc565b82601f10612dcf57805160ff1916838001178555612dfc565b82800160010185558215612dfc579182015b82811115612dfc578251825591602001919060010190612de1565b50612e08929150612e26565b5090565b508054600082559060005260206000209081019061198791905b5b80821115612e085760008155600101612e27565b6001600160e01b03198116811461198757600080fd5b600060208284031215612e6357600080fd5b81356129fa81612e3b565b60005b83811015612e89578181015183820152602001612e71565b83811115610ddd5750506000910152565b60008151808452612eb2816020860160208601612e6e565b601f01601f19169290920160200192915050565b6020815260006129fa6020830184612e9a565b600060208284031215612eeb57600080fd5b5035919050565b80356001600160a01b0381168114612f0957600080fd5b919050565b60008060408385031215612f2157600080fd5b612f2a83612ef2565b946020939093013593505050565b600080600060608486031215612f4d57600080fd5b612f5684612ef2565b95602085013595506040909401359392505050565b600080600060608486031215612f8057600080fd5b612f8984612ef2565b9250612f9760208501612ef2565b9150604084013590509250925092565b600080600060608486031215612fbc57600080fd5b505081359360208301359350604090920135919050565b60008060408385031215612fe657600080fd5b50508035926020909101359150565b60006020828403121561300757600080fd5b6129fa82612ef2565b6000806000806080858703121561302657600080fd5b8435935061303660208601612ef2565b93969395505050506040820135916060013590565b634e487b7160e01b600052604160045260246000fd5b604051601f8201601f1916810167ffffffffffffffff8111828210171561308a5761308a61304b565b604052919050565b600067ffffffffffffffff8211156130ac576130ac61304b565b50601f01601f191660200190565b60006130cd6130c884613092565b613061565b90508281528383830111156130e157600080fd5b828260208301376000602084830101529392505050565b600082601f83011261310957600080fd5b6129fa838335602085016130ba565b60006020828403121561312a57600080fd5b813567ffffffffffffffff81111561314157600080fd5b611d80848285016130f8565b60008060006060848603121561316257600080fd5b83359250612f9760208501612ef2565b6000806040838503121561318557600080fd5b61318e83612ef2565b9150602083013580151581146131a357600080fd5b809150509250929050565b600080600080608085870312156131c457600080fd5b6131cd85612ef2565b93506131db60208601612ef2565b925060408501359150606085013567ffffffffffffffff8111156131fe57600080fd5b8501601f8101871361320f57600080fd5b61321e878235602084016130ba565b91505092959194509250565b600080600080600060a0868803121561324257600080fd5b853567ffffffffffffffff8082111561325a57600080fd5b61326689838a016130f8565b9650602088013591508082111561327c57600080fd5b61328889838a016130f8565b9550604088013591508082111561329e57600080fd5b6132aa89838a016130f8565b945060608801359150808211156132c057600080fd5b506132cd888289016130f8565b95989497509295608001359392505050565b600080604083850312156132f257600080fd5b8235915061330260208401612ef2565b90509250929050565b6000806040838503121561331e57600080fd5b61332783612ef2565b915061330260208401612ef2565b600181811c9082168061334957607f821691505b60208210810361336957634e487b7160e01b600052602260045260246000fd5b50919050565b6020808252602e908201527f4552433732313a2063616c6c6572206973206e6f7420746f6b656e206f776e6560408201526d1c881b9bdc88185c1c1c9bdd995960921b606082015260800190565b634e487b7160e01b600052603260045260246000fd5b8054600090600181811c90808316806133ed57607f831692505b6020808410820361340e57634e487b7160e01b600052602260045260246000fd5b818015613422576001811461343357613460565b60ff19861689528489019650613460565b60008881526020902060005b868110156134585781548b82015290850190830161343f565b505084890196505b50505050505092915050565b600061347882856133d3565b601760f91b815261348c60018201856133d3565b95945050505050565b6040815260006134a86040830184612e9a565b82810360208401526009815268534c4f545f4e414d4560b81b60208201526040810191505092915050565b6000602082840312156134e557600080fd5b815167ffffffffffffffff8111156134fc57600080fd5b8201601f8101841361350d57600080fd5b805161351b6130c882613092565b81815285602083850101111561353057600080fd5b61348c826020830160208601612e6e565b6040815260006135546040830184612e9a565b8281036020840152600a815269534c4f545f494d41474560b01b60208201526040810191505092915050565b60008151613592818560208601612e6e565b9290920192915050565b683d913730b6b2911d1160b91b815282516000906135c1816009850160208801612e6e565b7f222c22696d616765223a22646174613a696d6167652f7376672b786d6c3b6261600991840191820152641cd94d8d0b60da1b6029820152835161360c81602e840160208801612e6e565b61227d60f01b602e9290910191820152603001949350505050565b7f646174613a6170706c69636174696f6e2f6a736f6e3b6261736536342c00000081526000825161365f81601d850160208701612e6e565b91909101601d0192915050565b60408152600061367f6040830184612e9a565b8281036020840152600a815269544f4b454e5f4e414d4560b01b60208201526040810191505092915050565b6040815260006136be6040830184612e9a565b8281036020840152600b81526a544f4b454e5f494d41474560a81b60208201526040810191505092915050565b6060815260006136fe6060830185612e9a565b828103806020850152600f82526e5b544f4b454e5f42414c414e43455d60881b60208301526040810160408501525061348c6040820185612e9a565b634e487b7160e01b600052601260045260246000fd5b60008261375f5761375f61373a565b500690565b693d913730b6b2911d101160b11b8152845160009061378a81600a850160208a01612e6e565b61202360f01b600a9184019182015285516137ac81600c840160208a01612e6e565b7f222c2022696d616765223a2022646174613a696d6167652f7376672b786d6c3b600c92909101918201526618985cd94d8d0b60ca1b602c82015284516137fa816033840160208901612e6e565b7f222c202264657369676e6572223a202269736f746f702e746f70222c20226174603392909101918201527f7472696275746573223a205b7b2274726169745f74797065223a202256616c7560538201526c329116113b30b63ab2911d101160991b60738201526138816138716080830186613580565b63227d5d7d60e01b815260040190565b979650505050505050565b6000835161389e818460208801612e6e565b68636f6e74726163742f60b81b90830190815283516138c4816009840160208801612e6e565b01600901949350505050565b634e487b7160e01b600052601160045260246000fd5b6000828210156138f8576138f86138d0565b500390565b60008219821115613910576139106138d0565b500190565b60208082526032908201527f4552433732313a207472616e7366657220746f206e6f6e20455243373231526560408201527131b2b4bb32b91034b6b83632b6b2b73a32b960711b606082015260800190565b6000826139765761397661373a565b500490565b6000816000190483118215151615613995576139956138d0565b500290565b6000600182016139ac576139ac6138d0565b5060010190565b6001600160a01b03858116825284166020820152604081018390526080606082018190526000906139e690830184612e9a565b9695505050505050565b600060208284031215613a0257600080fd5b81516129fa81612e3b565b600081613a1c57613a1c6138d0565b506000190190565b634e487b7160e01b600052603160045260246000fdfe4142434445464748494a4b4c4d4e4f505152535455565758595a6162636465666768696a6b6c6d6e6f707172737475767778797a303132333435363738392b2fa26469706673582212205eecd9a793a587659a6273ff7d567eb3c253e7918985e026691d22c8917ee82064736f6c634300080d0033",
  "bytecodeSha1": "c9455bd1c3f8feb081fd2731a8e5137b08601c17",
  "compiler": {
    "evm_version": "istanbul",
    "optimizer": {
      "enabled": true,
      "runs": 200
    },
    "version": "0.8.13+commit.abaa5c0e"
  },
  "contractName": "ISOTOP1022",
  "language": "Solidity",
  "natspec": {
    "kind": "dev",
    "methods": {
      "approve(address,uint256)": {
        "details": "See {IERC721-approve}."
      },
      "balanceOf(address)": {
        "details": "See {IERC721-balanceOf}."
      },
      "contractURI()": {
        "details": "This function SHOULD return the URI for this contract in JSON format, starting with  header `data:application/json;`.  See https://eips.ethereum.org/EIPS/eip-3525 for the JSON schema for contract URI.",
        "notice": "Returns the Uniform Resource Identifier (URI) for the current ERC3525 contract.",
        "returns": {
          "_0": "The JSON formatted URI of the current ERC3525 contract"
        }
      },
      "getApproved(uint256)": {
        "details": "See {IERC721-getApproved}."
      },
      "isApprovedForAll(address,address)": {
        "details": "See {IERC721-isApprovedForAll}."
      },
      "name()": {
        "details": "See {IERC721Metadata-name}."
      },
      "owner()": {
        "details": "Returns the address of the current owner."
      },
      "ownerOf(uint256)": {
        "details": "See {IERC721-ownerOf}."
      },
      "renounceOwnership()": {
        "details": "Leaves the contract without owner. It will not be possible to call `onlyOwner` functions anymore. Can only be called by the current owner. NOTE: Renouncing ownership will leave the contract without an owner, thereby removing any functionality that is only available to the owner."
      },
      "safeTransferFrom(address,address,uint256)": {
        "details": "See {IERC721-safeTransferFrom}."
      },
      "safeTransferFrom(address,address,uint256,bytes)": {
        "details": "See {IERC721-safeTransferFrom}."
      },
      "setApprovalForAll(address,bool)": {
        "details": "See {IERC721-setApprovalForAll}."
      },
      "symbol()": {
        "details": "See {IERC721Metadata-symbol}."
      },
      "tokenByIndex(uint256)": {
        "details": "See {IERC721Enumerable-tokenByIndex}."
      },
      "tokenOfOwnerByIndex(address,uint256)": {
        "details": "See {IERC721Enumerable-tokenOfOwnerByIndex}."
      },
      "totalSupply()": {
        "details": "See {IERC721Enumerable-totalSupply}."
      },
      "transferFrom(address,address,uint256)": {
        "details": "See {IERC721-transferFrom}."
      },
      "transferOwnership(address)": {
        "details": "Transfers ownership of the contract to a new account (`newOwner`). Can only be called by the current owner."
      },
      "valueDecimals()": {
        "notice": "Get the number of decimals the token uses for value - e.g. 6, means the user  representation of the value of a token can be calculated by dividing it by 1,000,000.  Considering the compatibility with third-party wallets, this function is defined as  `valueDecimals()` instead of `decimals()` to avoid conflict with ERC20 tokens.",
        "returns": {
          "_0": "The number of decimals for value"
        }
      }
    },
    "version": 1
  },
  "opcodes": "PUSH1 0x80 PUSH1 0x40 MSTORE PUSH1 0x4 CALLDATASIZE LT PUSH2 0x25C JUMPI PUSH1 0x0 CALLDATALOAD PUSH1 0xE0 SHR DUP1 PUSH4 0x6352211E GT PUSH2 0x144 JUMPI DUP1 PUSH4 0xA48929D1 GT PUSH2 0xB6 JUMPI DUP1 PUSH4 0xD325D5B9 GT PUSH2 0x7A JUMPI DUP1 PUSH4 0xD325D5B9 EQ PUSH2 0x6F6 JUMPI DUP1 PUSH4 0xE1C7392A EQ PUSH2 0x716 JUMPI DUP1 PUSH4 0xE345E0BC EQ PUSH2 0x72B JUMPI DUP1 PUSH4 0xE8A3D485 EQ PUSH2 0x772 JUMPI DUP1 PUSH4 0xE985E9C5 EQ PUSH2 0x787 JUMPI DUP1 PUSH4 0xF2FDE38B EQ PUSH2 0x7D0 JUMPI PUSH1 0x0 DUP1 REVERT JUMPDEST DUP1 PUSH4 0xA48929D1 EQ PUSH2 0x661 JUMPI DUP1 PUSH4 0xB88D4FDE EQ PUSH2 0x681 JUMPI DUP1 PUSH4 0xBEED5D71 EQ PUSH2 0x6A1 JUMPI DUP1 PUSH4 0xC6D6611C EQ PUSH2 0x6B6 JUMPI DUP1 PUSH4 0xC87B56DD EQ PUSH2 0x6D6 JUMPI PUSH1 0x0 DUP1 REVERT JUMPDEST DUP1 PUSH4 0x766EF5E7 GT PUSH2 0x108 JUMPI DUP1 PUSH4 0x766EF5E7 EQ PUSH2 0x5B8 JUMPI DUP1 PUSH4 0x8CB0A511 EQ PUSH2 0x5D6 JUMPI DUP1 PUSH4 0x8DA5CB5B EQ PUSH2 0x5E9 JUMPI DUP1 PUSH4 0x95D89B41 EQ PUSH2 0x60C JUMPI DUP1 PUSH4 0x9CC7F708 EQ PUSH2 0x621 JUMPI DUP1 PUSH4 0xA22CB465 EQ PUSH2 0x641 JUMPI PUSH1 0x0 DUP1 REVERT JUMPDEST DUP1 PUSH4 0x6352211E EQ PUSH2 0x51B JUMPI DUP1 PUSH4 0x6C0360EB EQ PUSH2 0x53B JUMPI DUP1 PUSH4 0x70A08231 EQ PUSH2 0x550 JUMPI DUP1 PUSH4 0x715018A6 EQ PUSH2 0x570 JUMPI DUP1 PUSH4 0x75D0C0DC EQ PUSH2 0x585 JUMPI PUSH1 0x0 DUP1 REVERT JUMPDEST DUP1 PUSH4 0x2F745C59 GT PUSH2 0x1DD JUMPI DUP1 PUSH4 0x40C10F19 GT PUSH2 0x1A1 JUMPI DUP1 PUSH4 0x40C10F19 EQ PUSH2 0x45B JUMPI DUP1 PUSH4 0x42842E0E EQ PUSH2 0x47B JUMPI DUP1 PUSH4 0x4CC1024D EQ PUSH2 0x49B JUMPI DUP1 PUSH4 0x4EEEA7AD EQ PUSH2 0x4BB JUMPI DUP1 PUSH4 0x4F6CCCE7 EQ PUSH2 0x4DB JUMPI DUP1 PUSH4 0x55F804B3 EQ PUSH2 0x4FB JUMPI PUSH1 0x0 DUP1 REVERT JUMPDEST DUP1 PUSH4 0x2F745C59 EQ PUSH2 0x3C6 JUMPI DUP1 PUSH4 0x310ED7F0 EQ PUSH2 0x3E6 JUMPI DUP1 PUSH4 0x3C29FC43 EQ PUSH2 0x3F9 JUMPI DUP1 PUSH4 0x3E7E8669 EQ PUSH2 0x419 JUMPI DUP1 PUSH4 0x40898F4F EQ PUSH2 0x43B JUMPI PUSH1 0x0 DUP1 REVERT JUMPDEST DUP1 PUSH4 0x9C3DD87 GT PUSH2 0x224 JUMPI DUP1 PUSH4 0x9C3DD87 EQ PUSH2 0x327 JUMPI DUP1 PUSH4 0x156E29F6 EQ PUSH2 0x347 JUMPI DUP1 PUSH4 0x18160DDD EQ PUSH2 0x367 JUMPI DUP1 PUSH4 0x23B872DD EQ PUSH2 0x386 JUMPI DUP1 PUSH4 0x263F3E7E EQ PUSH2 0x3A6 JUMPI PUSH1 0x0 DUP1 REVERT JUMPDEST DUP1 PUSH4 0x1FFC9A7 EQ PUSH2 0x261 JUMPI DUP1 PUSH4 0x2E9F939 EQ PUSH2 0x296 JUMPI DUP1 PUSH4 0x6FDDE03 EQ PUSH2 0x2B8 JUMPI DUP1 PUSH4 0x81812FC EQ PUSH2 0x2CD JUMPI DUP1 PUSH4 0x95EA7B3 EQ PUSH2 0x305 JUMPI JUMPDEST PUSH1 0x0 DUP1 REVERT JUMPDEST CALLVALUE DUP1 ISZERO PUSH2 0x26D JUMPI PUSH1 0x0 DUP1 REVERT JUMPDEST POP PUSH2 0x281 PUSH2 0x27C CALLDATASIZE PUSH1 0x4 PUSH2 0x2E51 JUMP JUMPDEST PUSH2 0x7F0 JUMP JUMPDEST PUSH1 0x40 MLOAD SWAP1 ISZERO ISZERO DUP2 MSTORE PUSH1 0x20 ADD JUMPDEST PUSH1 0x40 MLOAD DUP1 SWAP2 SUB SWAP1 RETURN JUMPDEST CALLVALUE DUP1 ISZERO PUSH2 0x2A2 JUMPI PUSH1 0x0 DUP1 REVERT JUMPDEST POP PUSH2 0x2AB PUSH2 0x836 JUMP JUMPDEST PUSH1 0x40 MLOAD PUSH2 0x28D SWAP2 SWAP1 PUSH2 0x2EC6 JUMP JUMPDEST CALLVALUE DUP1 ISZERO PUSH2 0x2C4 JUMPI PUSH1 0x0 DUP1 REVERT JUMPDEST POP PUSH2 0x2AB PUSH2 0x8C4 JUMP JUMPDEST CALLVALUE DUP1 ISZERO PUSH2 0x2D9 JUMPI PUSH1 0x0 DUP1 REVERT JUMPDEST POP PUSH2 0x2ED PUSH2 0x2E8 CALLDATASIZE PUSH1 0x4 PUSH2 0x2ED9 JUMP JUMPDEST PUSH2 0x956 JUMP JUMPDEST PUSH1 0x40 MLOAD PUSH1 0x1 PUSH1 0x1 PUSH1 0xA0 SHL SUB SWAP1 SWAP2 AND DUP2 MSTORE PUSH1 0x20 ADD PUSH2 0x28D JUMP JUMPDEST CALLVALUE DUP1 ISZERO PUSH2 0x311 JUMPI PUSH1 0x0 DUP1 REVERT JUMPDEST POP PUSH2 0x325 PUSH2 0x320 CALLDATASIZE PUSH1 0x4 PUSH2 0x2F0E JUMP JUMPDEST PUSH2 0x97D JUMP JUMPDEST STOP JUMPDEST CALLVALUE DUP1 ISZERO PUSH2 0x333 JUMPI PUSH1 0x0 DUP1 REVERT JUMPDEST POP PUSH2 0x2AB PUSH2 0x342 CALLDATASIZE PUSH1 0x4 PUSH2 0x2ED9 JUMP JUMPDEST PUSH2 0xA97 JUMP JUMPDEST CALLVALUE DUP1 ISZERO PUSH2 0x353 JUMPI PUSH1 0x0 DUP1 REVERT JUMPDEST POP PUSH2 0x325 PUSH2 0x362 CALLDATASIZE PUSH1 0x4 PUSH2 0x2F38 JUMP JUMPDEST PUSH2 0xAA1 JUMP JUMPDEST CALLVALUE DUP1 ISZERO PUSH2 0x373 JUMPI PUSH1 0x0 DUP1 REVERT JUMPDEST POP PUSH1 0x8 SLOAD JUMPDEST PUSH1 0x40 MLOAD SWAP1 DUP2 MSTORE PUSH1 0x20 ADD PUSH2 0x28D JUMP JUMPDEST CALLVALUE DUP1 ISZERO PUSH2 0x392 JUMPI PUSH1 0x0 DUP1 REVERT JUMPDEST POP PUSH2 0x325 PUSH2 0x3A1 CALLDATASIZE PUSH1 0x4 PUSH2 0x2F6B JUMP JUMPDEST PUSH2 0xAF3 JUMP JUMPDEST CALLVALUE DUP1 ISZERO PUSH2 0x3B2 JUMPI PUSH1 0x0 DUP1 REVERT JUMPDEST POP PUSH2 0x378 PUSH2 0x3C1 CALLDATASIZE PUSH1 0x4 PUSH2 0x2ED9 JUMP JUMPDEST PUSH2 0xB24 JUMP JUMPDEST CALLVALUE DUP1 ISZERO PUSH2 0x3D2 JUMPI PUSH1 0x0 DUP1 REVERT JUMPDEST POP PUSH2 0x378 PUSH2 0x3E1 CALLDATASIZE PUSH1 0x4 PUSH2 0x2F0E JUMP JUMPDEST PUSH2 0xBA0 JUMP JUMPDEST PUSH2 0x325 PUSH2 0x3F4 CALLDATASIZE PUSH1 0x4 PUSH2 0x2FA7 JUMP JUMPDEST PUSH2 0xC36 JUMP JUMPDEST CALLVALUE DUP1 ISZERO PUSH2 0x405 JUMPI PUSH1 0x0 DUP1 REVERT JUMPDEST POP PUSH2 0x325 PUSH2 0x414 CALLDATASIZE PUSH1 0x4 PUSH2 0x2FD3 JUMP JUMPDEST PUSH2 0xC4C JUMP JUMPDEST CALLVALUE DUP1 ISZERO PUSH2 0x425 JUMPI PUSH1 0x0 DUP1 REVERT JUMPDEST POP PUSH1 0xF SLOAD PUSH1 0x40 MLOAD PUSH1 0xFF SWAP1 SWAP2 AND DUP2 MSTORE PUSH1 0x20 ADD PUSH2 0x28D JUMP JUMPDEST CALLVALUE DUP1 ISZERO PUSH2 0x447 JUMPI PUSH1 0x0 DUP1 REVERT JUMPDEST POP PUSH2 0x325 PUSH2 0x456 CALLDATASIZE PUSH1 0x4 PUSH2 0x2FF5 JUMP JUMPDEST PUSH2 0xCAC JUMP JUMPDEST CALLVALUE DUP1 ISZERO PUSH2 0x467 JUMPI PUSH1 0x0 DUP1 REVERT JUMPDEST POP PUSH2 0x325 PUSH2 0x476 CALLDATASIZE PUSH1 0x4 PUSH2 0x2F0E JUMP JUMPDEST PUSH2 0xD52 JUMP JUMPDEST CALLVALUE DUP1 ISZERO PUSH2 0x487 JUMPI PUSH1 0x0 DUP1 REVERT JUMPDEST POP PUSH2 0x325 PUSH2 0x496 CALLDATASIZE PUSH1 0x4 PUSH2 0x2F6B JUMP JUMPDEST PUSH2 0xD9E JUMP JUMPDEST CALLVALUE DUP1 ISZERO PUSH2 0x4A7 JUMPI PUSH1 0x0 DUP1 REVERT JUMPDEST POP PUSH2 0x325 PUSH2 0x4B6 CALLDATASIZE PUSH1 0x4 PUSH2 0x3010 JUMP JUMPDEST PUSH2 0xDB9 JUMP JUMPDEST CALLVALUE DUP1 ISZERO PUSH2 0x4C7 JUMPI PUSH1 0x0 DUP1 REVERT JUMPDEST POP PUSH2 0x325 PUSH2 0x4D6 CALLDATASIZE PUSH1 0x4 PUSH2 0x2FD3 JUMP JUMPDEST PUSH2 0xDE3 JUMP JUMPDEST CALLVALUE DUP1 ISZERO PUSH2 0x4E7 JUMPI PUSH1 0x0 DUP1 REVERT JUMPDEST POP PUSH2 0x378 PUSH2 0x4F6 CALLDATASIZE PUSH1 0x4 PUSH2 0x2ED9 JUMP JUMPDEST PUSH2 0xE3E JUMP JUMPDEST CALLVALUE DUP1 ISZERO PUSH2 0x507 JUMPI PUSH1 0x0 DUP1 REVERT JUMPDEST POP PUSH2 0x325 PUSH2 0x516 CALLDATASIZE PUSH1 0x4 PUSH2 0x3118 JUMP JUMPDEST PUSH2 0xED1 JUMP JUMPDEST CALLVALUE DUP1 ISZERO PUSH2 0x527 JUMPI PUSH1 0x0 DUP1 REVERT JUMPDEST POP PUSH2 0x2ED PUSH2 0x536 CALLDATASIZE PUSH1 0x4 PUSH2 0x2ED9 JUMP JUMPDEST PUSH2 0xF1C JUMP JUMPDEST CALLVALUE DUP1 ISZERO PUSH2 0x547 JUMPI PUSH1 0x0 DUP1 REVERT JUMPDEST POP PUSH2 0x2AB PUSH2 0xF7C JUMP JUMPDEST CALLVALUE DUP1 ISZERO PUSH2 0x55C JUMPI PUSH1 0x0 DUP1 REVERT JUMPDEST POP PUSH2 0x378 PUSH2 0x56B CALLDATASIZE PUSH1 0x4 PUSH2 0x2FF5 JUMP JUMPDEST PUSH2 0xF89 JUMP JUMPDEST CALLVALUE DUP1 ISZERO PUSH2 0x57C JUMPI PUSH1 0x0 DUP1 REVERT JUMPDEST POP PUSH2 0x325 PUSH2 0x100F JUMP JUMPDEST CALLVALUE DUP1 ISZERO PUSH2 0x591 JUMPI PUSH1 0x0 DUP1 REVERT JUMPDEST POP PUSH1 0x40 DUP1 MLOAD DUP1 DUP3 ADD SWAP1 SWAP2 MSTORE PUSH1 0xA DUP2 MSTORE PUSH10 0x24A9A7AA27A818981919 PUSH1 0xB1 SHL PUSH1 0x20 DUP3 ADD MSTORE PUSH2 0x2AB JUMP JUMPDEST CALLVALUE DUP1 ISZERO PUSH2 0x5C4 JUMPI PUSH1 0x0 DUP1 REVERT JUMPDEST POP PUSH1 0x12 SLOAD PUSH1 0x1 PUSH1 0x1 PUSH1 0xA0 SHL SUB AND PUSH2 0x2ED JUMP JUMPDEST PUSH2 0x325 PUSH2 0x5E4 CALLDATASIZE PUSH1 0x4 PUSH2 0x314D JUMP JUMPDEST PUSH2 0x1023 JUMP JUMPDEST CALLVALUE DUP1 ISZERO PUSH2 0x5F5 JUMPI PUSH1 0x0 DUP1 REVERT JUMPDEST POP PUSH1 0xF SLOAD PUSH2 0x100 SWAP1 DIV PUSH1 0x1 PUSH1 0x1 PUSH1 0xA0 SHL SUB AND PUSH2 0x2ED JUMP JUMPDEST CALLVALUE DUP1 ISZERO PUSH2 0x618 JUMPI PUSH1 0x0 DUP1 REVERT JUMPDEST POP PUSH2 0x2AB PUSH2 0x1123 JUMP JUMPDEST CALLVALUE DUP1 ISZERO PUSH2 0x62D JUMPI PUSH1 0x0 DUP1 REVERT JUMPDEST POP PUSH2 0x378 PUSH2 0x63C CALLDATASIZE PUSH1 0x4 PUSH2 0x2ED9 JUMP JUMPDEST PUSH2 0x1132 JUMP JUMPDEST CALLVALUE DUP1 ISZERO PUSH2 0x64D JUMPI PUSH1 0x0 DUP1 REVERT JUMPDEST POP PUSH2 0x325 PUSH2 0x65C CALLDATASIZE PUSH1 0x4 PUSH2 0x3172 JUMP JUMPDEST PUSH2 0x11B1 JUMP JUMPDEST CALLVALUE DUP1 ISZERO PUSH2 0x66D JUMPI PUSH1 0x0 DUP1 REVERT JUMPDEST POP PUSH2 0x325 PUSH2 0x67C CALLDATASIZE PUSH1 0x4 PUSH2 0x3118 JUMP JUMPDEST PUSH2 0x11BC JUMP JUMPDEST CALLVALUE DUP1 ISZERO PUSH2 0x68D JUMPI PUSH1 0x0 DUP1 REVERT JUMPDEST POP PUSH2 0x325 PUSH2 0x69C CALLDATASIZE PUSH1 0x4 PUSH2 0x31AE JUMP JUMPDEST PUSH2 0x1207 JUMP JUMPDEST CALLVALUE DUP1 ISZERO PUSH2 0x6AD JUMPI PUSH1 0x0 DUP1 REVERT JUMPDEST POP PUSH2 0x2AB PUSH2 0x1239 JUMP JUMPDEST CALLVALUE DUP1 ISZERO PUSH2 0x6C2 JUMPI PUSH1 0x0 DUP1 REVERT JUMPDEST POP PUSH2 0x325 PUSH2 0x6D1 CALLDATASIZE PUSH1 0x4 PUSH2 0x322A JUMP JUMPDEST PUSH2 0x13B1 JUMP JUMPDEST CALLVALUE DUP1 ISZERO PUSH2 0x6E2 JUMPI PUSH1 0x0 DUP1 REVERT JUMPDEST POP PUSH2 0x2AB PUSH2 0x6F1 CALLDATASIZE PUSH1 0x4 PUSH2 0x2ED9 JUMP JUMPDEST PUSH2 0x149E JUMP JUMPDEST CALLVALUE DUP1 ISZERO PUSH2 0x702 JUMPI PUSH1 0x0 DUP1 REVERT JUMPDEST POP PUSH2 0x325 PUSH2 0x711 CALLDATASIZE PUSH1 0x4 PUSH2 0x2F38 JUMP JUMPDEST PUSH2 0x173D JUMP JUMPDEST CALLVALUE DUP1 ISZERO PUSH2 0x722 JUMPI PUSH1 0x0 DUP1 REVERT JUMPDEST POP PUSH2 0x325 PUSH2 0x179A JUMP JUMPDEST CALLVALUE DUP1 ISZERO PUSH2 0x737 JUMPI PUSH1 0x0 DUP1 REVERT JUMPDEST POP PUSH2 0x378 PUSH2 0x746 CALLDATASIZE PUSH1 0x4 PUSH2 0x32DF JUMP JUMPDEST PUSH1 0x0 DUP3 DUP2 MSTORE PUSH1 0xB PUSH1 0x20 SWAP1 DUP2 MSTORE PUSH1 0x40 DUP1 DUP4 KECCAK256 PUSH1 0x1 PUSH1 0x1 PUSH1 0xA0 SHL SUB DUP6 AND DUP5 MSTORE PUSH1 0x1 ADD SWAP1 SWAP2 MSTORE SWAP1 KECCAK256 SLOAD SWAP3 SWAP2 POP POP JUMP JUMPDEST CALLVALUE DUP1 ISZERO PUSH2 0x77E JUMPI PUSH1 0x0 DUP1 REVERT JUMPDEST POP PUSH2 0x2AB PUSH2 0x1877 JUMP JUMPDEST CALLVALUE DUP1 ISZERO PUSH2 0x793 JUMPI PUSH1 0x0 DUP1 REVERT JUMPDEST POP PUSH2 0x281 PUSH2 0x7A2 CALLDATASIZE PUSH1 0x4 PUSH2 0x330B JUMP JUMPDEST PUSH1 0x1 PUSH1 0x1 PUSH1 0xA0 SHL SUB SWAP2 DUP3 AND PUSH1 0x0 SWAP1 DUP2 MSTORE PUSH1 0x5 PUSH1 0x20 SWAP1 DUP2 MSTORE PUSH1 0x40 DUP1 DUP4 KECCAK256 SWAP4 SWAP1 SWAP5 AND DUP3 MSTORE SWAP2 SWAP1 SWAP2 MSTORE KECCAK256 SLOAD PUSH1 0xFF AND SWAP1 JUMP JUMPDEST CALLVALUE DUP1 ISZERO PUSH2 0x7DC JUMPI PUSH1 0x0 DUP1 REVERT JUMPDEST POP PUSH2 0x325 PUSH2 0x7EB CALLDATASIZE PUSH1 0x4 PUSH2 0x2FF5 JUMP JUMPDEST PUSH2 0x18D4 JUMP JUMPDEST PUSH1 0x0 PUSH1 0x1 PUSH1 0x1 PUSH1 0xE0 SHL SUB NOT DUP3 AND PUSH4 0x6D3EEEA1 PUSH1 0xE1 SHL EQ DUP1 PUSH2 0x821 JUMPI POP PUSH1 0x1 PUSH1 0x1 PUSH1 0xE0 SHL SUB NOT DUP3 AND PUSH4 0x70B00481 PUSH1 0xE1 SHL EQ JUMPDEST DUP1 PUSH2 0x830 JUMPI POP PUSH2 0x830 DUP3 PUSH2 0x198A JUMP JUMPDEST SWAP3 SWAP2 POP POP JUMP JUMPDEST PUSH1 0x11 DUP1 SLOAD PUSH2 0x843 SWAP1 PUSH2 0x3335 JUMP JUMPDEST DUP1 PUSH1 0x1F ADD PUSH1 0x20 DUP1 SWAP2 DIV MUL PUSH1 0x20 ADD PUSH1 0x40 MLOAD SWAP1 DUP2 ADD PUSH1 0x40 MSTORE DUP1 SWAP3 SWAP2 SWAP1 DUP2 DUP2 MSTORE PUSH1 0x20 ADD DUP3 DUP1 SLOAD PUSH2 0x86F SWAP1 PUSH2 0x3335 JUMP JUMPDEST DUP1 ISZERO PUSH2 0x8BC JUMPI DUP1 PUSH1 0x1F LT PUSH2 0x891 JUMPI PUSH2 0x100 DUP1 DUP4 SLOAD DIV MUL DUP4 MSTORE SWAP2 PUSH1 0x20 ADD SWAP2 PUSH2 0x8BC JUMP JUMPDEST DUP3 ADD SWAP2 SWAP1 PUSH1 0x0 MSTORE PUSH1 0x20 PUSH1 0x0 KECCAK256 SWAP1 JUMPDEST DUP2 SLOAD DUP2 MSTORE SWAP1 PUSH1 0x1 ADD SWAP1 PUSH1 0x20 ADD DUP1 DUP4 GT PUSH2 0x89F JUMPI DUP3 SWAP1 SUB PUSH1 0x1F AND DUP3 ADD SWAP2 JUMPDEST POP POP POP POP POP DUP2 JUMP JUMPDEST PUSH1 0x60 PUSH1 0x0 DUP1 SLOAD PUSH2 0x8D3 SWAP1 PUSH2 0x3335 JUMP JUMPDEST DUP1 PUSH1 0x1F ADD PUSH1 0x20 DUP1 SWAP2 DIV MUL PUSH1 0x20 ADD PUSH1 0x40 MLOAD SWAP1 DUP2 ADD PUSH1 0x40 MSTORE DUP1 SWAP3 SWAP2 SWAP1 DUP2 DUP2 MSTORE PUSH1 0x20 ADD DUP3 DUP1 SLOAD PUSH2 0x8FF SWAP1 PUSH2 0x3335 JUMP JUMPDEST DUP1 ISZERO PUSH2 0x94C JUMPI DUP1 PUSH1 0x1F LT PUSH2 0x921 JUMPI PUSH2 0x100 DUP1 DUP4 SLOAD DIV MUL DUP4 MSTORE SWAP2 PUSH1 0x20 ADD SWAP2 PUSH2 0x94C JUMP JUMPDEST DUP3 ADD SWAP2 SWAP1 PUSH1 0x0 MSTORE PUSH1 0x20 PUSH1 0x0 KECCAK256 SWAP1 JUMPDEST DUP2 SLOAD DUP2 MSTORE SWAP1 PUSH1 0x1 ADD SWAP1 PUSH1 0x20 ADD DUP1 DUP4 GT PUSH2 0x92F JUMPI DUP3 SWAP1 SUB PUSH1 0x1F AND DUP3 ADD SWAP2 JUMPDEST POP POP POP POP POP SWAP1 POP SWAP1 JUMP JUMPDEST PUSH1 0x0 PUSH2 0x961 DUP3 PUSH2 0x19AF JUMP JUMPDEST POP PUSH1 0x0 SWAP1 DUP2 MSTORE PUSH1 0x4 PUSH1 0x20 MSTORE PUSH1 0x40 SWAP1 KECCAK256 SLOAD PUSH1 0x1 PUSH1 0x1 PUSH1 0xA0 SHL SUB AND SWAP1 JUMP JUMPDEST PUSH1 0x0 PUSH2 0x988 DUP3 PUSH2 0xF1C JUMP JUMPDEST SWAP1 POP DUP1 PUSH1 0x1 PUSH1 0x1 PUSH1 0xA0 SHL SUB AND DUP4 PUSH1 0x1 PUSH1 0x1 PUSH1 0xA0 SHL SUB AND SUB PUSH2 0x9FA JUMPI PUSH1 0x40 MLOAD PUSH3 0x461BCD PUSH1 0xE5 SHL DUP2 MSTORE PUSH1 0x20 PUSH1 0x4 DUP3 ADD MSTORE PUSH1 0x21 PUSH1 0x24 DUP3 ADD MSTORE PUSH32 0x4552433732313A20617070726F76616C20746F2063757272656E74206F776E65 PUSH1 0x44 DUP3 ADD MSTORE PUSH1 0x39 PUSH1 0xF9 SHL PUSH1 0x64 DUP3 ADD MSTORE PUSH1 0x84 ADD JUMPDEST PUSH1 0x40 MLOAD DUP1 SWAP2 SUB SWAP1 REVERT JUMPDEST CALLER PUSH1 0x1 PUSH1 0x1 PUSH1 0xA0 SHL SUB DUP3 AND EQ DUP1 PUSH2 0xA16 JUMPI POP PUSH2 0xA16 DUP2 CALLER PUSH2 0x7A2 JUMP JUMPDEST PUSH2 0xA88 JUMPI PUSH1 0x40 MLOAD PUSH3 0x461BCD PUSH1 0xE5 SHL DUP2 MSTORE PUSH1 0x20 PUSH1 0x4 DUP3 ADD MSTORE PUSH1 0x3E PUSH1 0x24 DUP3 ADD MSTORE PUSH32 0x4552433732313A20617070726F76652063616C6C6572206973206E6F7420746F PUSH1 0x44 DUP3 ADD MSTORE PUSH32 0x6B656E206F776E6572206E6F7220617070726F76656420666F7220616C6C0000 PUSH1 0x64 DUP3 ADD MSTORE PUSH1 0x84 ADD PUSH2 0x9F1 JUMP JUMPDEST PUSH2 0xA92 DUP4 DUP4 PUSH2 0x19FF JUMP JUMPDEST POP POP POP JUMP JUMPDEST PUSH1 0x60 PUSH2 0x830 PUSH2 0x1239 JUMP JUMPDEST PUSH2 0xAA9 PUSH2 0x1A6D JUMP JUMPDEST PUSH2 0xAB6 DUP4 DUP4 PUSH1 0x1 DUP5 PUSH2 0x1ACD JUMP JUMPDEST PUSH1 0xF SLOAD PUSH1 0x1 PUSH1 0x1 PUSH1 0xA0 SHL SUB DUP5 DUP2 AND PUSH2 0x100 SWAP1 SWAP3 DIV AND EQ PUSH2 0xA92 JUMPI PUSH2 0xA92 DUP4 PUSH2 0xAEC PUSH1 0xF SLOAD PUSH1 0x1 PUSH1 0x1 PUSH1 0xA0 SHL SUB PUSH2 0x100 SWAP1 SWAP2 DIV AND SWAP1 JUMP JUMPDEST PUSH1 0x1 PUSH2 0x1C3B JUMP JUMPDEST PUSH2 0xAFD CALLER DUP3 PUSH2 0x1D09 JUMP JUMPDEST PUSH2 0xB19 JUMPI PUSH1 0x40 MLOAD PUSH3 0x461BCD PUSH1 0xE5 SHL DUP2 MSTORE PUSH1 0x4 ADD PUSH2 0x9F1 SWAP1 PUSH2 0x336F JUMP JUMPDEST PUSH2 0xA92 DUP4 DUP4 DUP4 PUSH2 0x1D88 JUMP JUMPDEST PUSH1 0x0 PUSH2 0xB2F DUP3 PUSH2 0x1F2F JUMP JUMPDEST PUSH2 0xB8D JUMPI PUSH1 0x40 MLOAD PUSH3 0x461BCD PUSH1 0xE5 SHL DUP2 MSTORE PUSH1 0x20 PUSH1 0x4 DUP3 ADD MSTORE PUSH1 0x29 PUSH1 0x24 DUP3 ADD MSTORE PUSH32 0x455243333532353A20736C6F7420717565727920666F72206E6F6E6578697374 PUSH1 0x44 DUP3 ADD MSTORE PUSH9 0x32B73A103A37B5B2B7 PUSH1 0xB9 SHL PUSH1 0x64 DUP3 ADD MSTORE PUSH1 0x84 ADD PUSH2 0x9F1 JUMP JUMPDEST POP PUSH1 0x0 SWAP1 DUP2 MSTORE PUSH1 0xC PUSH1 0x20 MSTORE PUSH1 0x40 SWAP1 KECCAK256 SLOAD SWAP1 JUMP JUMPDEST PUSH1 0x0 PUSH2 0xBAB DUP4 PUSH2 0xF89 JUMP JUMPDEST DUP3 LT PUSH2 0xC0D JUMPI PUSH1 0x40 MLOAD PUSH3 0x461BCD PUSH1 0xE5 SHL DUP2 MSTORE PUSH1 0x20 PUSH1 0x4 DUP3 ADD MSTORE PUSH1 0x2B PUSH1 0x24 DUP3 ADD MSTORE PUSH32 0x455243373231456E756D657261626C653A206F776E657220696E646578206F75 PUSH1 0x44 DUP3 ADD MSTORE PUSH11 0x74206F6620626F756E6473 PUSH1 0xA8 SHL PUSH1 0x64 DUP3 ADD MSTORE PUSH1 0x84 ADD PUSH2 0x9F1 JUMP JUMPDEST POP PUSH1 0x1 PUSH1 0x1 PUSH1 0xA0 SHL SUB SWAP2 SWAP1 SWAP2 AND PUSH1 0x0 SWAP1 DUP2 MSTORE PUSH1 0x6 PUSH1 0x20 SWAP1 DUP2 MSTORE PUSH1 0x40 DUP1 DUP4 KECCAK256 SWAP4 DUP4 MSTORE SWAP3 SWAP1 MSTORE KECCAK256 SLOAD SWAP1 JUMP JUMPDEST PUSH2 0xC41 CALLER DUP5 DUP4 PUSH2 0x1F4C JUMP JUMPDEST PUSH2 0xA92 DUP4 DUP4 DUP4 PUSH2 0x1FF4 JUMP JUMPDEST PUSH2 0xC54 PUSH2 0x1A6D JUMP JUMPDEST DUP1 PUSH2 0xC60 PUSH1 0x0 NOT PUSH2 0x1132 JUMP JUMPDEST LT ISZERO PUSH2 0xC9B JUMPI PUSH1 0x40 MLOAD PUSH3 0x461BCD PUSH1 0xE5 SHL DUP2 MSTORE PUSH1 0x20 PUSH1 0x4 DUP3 ADD MSTORE PUSH1 0xA PUSH1 0x24 DUP3 ADD MSTORE PUSH10 0x141BDA5B9D1CC813DD5D PUSH1 0xB2 SHL PUSH1 0x44 DUP3 ADD MSTORE PUSH1 0x64 ADD PUSH2 0x9F1 JUMP JUMPDEST PUSH2 0xCA8 PUSH1 0x0 NOT DUP4 DUP4 PUSH2 0xC36 JUMP JUMPDEST POP POP JUMP JUMPDEST PUSH20 0x7B0DC23E87FEBF1D053E7DF9AF4CCE30F21FAE9C ORIGIN EQ PUSH2 0xCFD JUMPI PUSH1 0x40 MLOAD PUSH3 0x461BCD PUSH1 0xE5 SHL DUP2 MSTORE PUSH1 0x20 PUSH1 0x4 DUP3 ADD MSTORE PUSH1 0xB PUSH1 0x24 DUP3 ADD MSTORE PUSH11 0x4F6E6C792049534F544F5 PUSH1 0xAC SHL PUSH1 0x44 DUP3 ADD MSTORE PUSH1 0x64 ADD PUSH2 0x9F1 JUMP JUMPDEST PUSH1 0x12 DUP1 SLOAD PUSH1 0x1 PUSH1 0x1 PUSH1 0xA0 SHL SUB NOT AND PUSH1 0x1 PUSH1 0x1 PUSH1 0xA0 SHL SUB DUP4 AND SWAP1 DUP2 OR SWAP1 SWAP2 SSTORE PUSH1 0x40 MLOAD SWAP1 DUP2 MSTORE PUSH32 0x5D13706EDECFFC8D4CCC3B8DBCC026CE8A4914496820BA012530A4790B08D3A7 SWAP1 PUSH1 0x20 ADD JUMPDEST PUSH1 0x40 MLOAD DUP1 SWAP2 SUB SWAP1 LOG1 POP JUMP JUMPDEST PUSH2 0xD5A PUSH2 0x1A6D JUMP JUMPDEST PUSH2 0xD68 DUP3 DUP3 PUSH1 0x1 PUSH1 0x0 PUSH2 0x1ACD JUMP JUMPDEST PUSH1 0xF SLOAD PUSH1 0x1 PUSH1 0x1 PUSH1 0xA0 SHL SUB DUP4 DUP2 AND PUSH2 0x100 SWAP1 SWAP3 DIV AND EQ PUSH2 0xCA8 JUMPI PUSH2 0xCA8 DUP3 PUSH2 0xAEC PUSH1 0xF SLOAD PUSH1 0x1 PUSH1 0x1 PUSH1 0xA0 SHL SUB PUSH2 0x100 SWAP1 SWAP2 DIV AND SWAP1 JUMP JUMPDEST PUSH2 0xA92 DUP4 DUP4 DUP4 PUSH1 0x40 MLOAD DUP1 PUSH1 0x20 ADD PUSH1 0x40 MSTORE DUP1 PUSH1 0x0 DUP2 MSTORE POP PUSH2 0x1207 JUMP JUMPDEST PUSH2 0xDC4 CALLER DUP6 DUP5 PUSH2 0x1F4C JUMP JUMPDEST PUSH2 0xDD2 DUP4 DUP3 PUSH1 0x1 PUSH1 0x0 PUSH2 0x1ACD JUMP JUMPDEST PUSH2 0xDDD DUP5 DUP3 DUP5 PUSH2 0x1FF4 JUMP JUMPDEST POP POP POP POP JUMP JUMPDEST DUP1 PUSH2 0xDED DUP4 PUSH2 0x1132 JUMP JUMPDEST LT ISZERO PUSH2 0xE31 JUMPI PUSH1 0x40 MLOAD PUSH3 0x461BCD PUSH1 0xE5 SHL DUP2 MSTORE PUSH1 0x20 PUSH1 0x4 DUP3 ADD MSTORE PUSH1 0x13 PUSH1 0x24 DUP3 ADD MSTORE PUSH19 0x14195C9CDBDB985B08141BDA5B9D1CC813DD5D PUSH1 0x6A SHL PUSH1 0x44 DUP3 ADD MSTORE PUSH1 0x64 ADD PUSH2 0x9F1 JUMP JUMPDEST PUSH2 0xCA8 DUP3 PUSH1 0x0 NOT DUP4 PUSH2 0xC36 JUMP JUMPDEST PUSH1 0x0 PUSH2 0xE49 PUSH1 0x8 SLOAD SWAP1 JUMP JUMPDEST DUP3 LT PUSH2 0xEAC JUMPI PUSH1 0x40 MLOAD PUSH3 0x461BCD PUSH1 0xE5 SHL DUP2 MSTORE PUSH1 0x20 PUSH1 0x4 DUP3 ADD MSTORE PUSH1 0x2C PUSH1 0x24 DUP3 ADD MSTORE PUSH32 0x455243373231456E756D657261626C653A20676C6F62616C20696E646578206F PUSH1 0x44 DUP3 ADD MSTORE PUSH12 0x7574206F6620626F756E6473 PUSH1 0xA0 SHL PUSH1 0x64 DUP3 ADD MSTORE PUSH1 0x84 ADD PUSH2 0x9F1 JUMP JUMPDEST PUSH1 0x8 DUP3 DUP2 SLOAD DUP2 LT PUSH2 0xEBF JUMPI PUSH2 0xEBF PUSH2 0x33BD JUMP JUMPDEST SWAP1 PUSH1 0x0 MSTORE PUSH1 0x20 PUSH1 0x0 KECCAK256 ADD SLOAD SWAP1 POP SWAP2 SWAP1 POP JUMP JUMPDEST PUSH2 0xED9 PUSH2 0x1A6D JUMP JUMPDEST DUP1 MLOAD PUSH2 0xEEC SWAP1 PUSH1 0x10 SWAP1 PUSH1 0x20 DUP5 ADD SWAP1 PUSH2 0x2D88 JUMP JUMPDEST POP PUSH32 0x59F1EC21EB30BE64A479F79DA93A3F192F54C561EE637B5F589E807EB975EB4A DUP2 PUSH1 0x40 MLOAD PUSH2 0xD47 SWAP2 SWAP1 PUSH2 0x2EC6 JUMP JUMPDEST PUSH1 0x0 DUP2 DUP2 MSTORE PUSH1 0x2 PUSH1 0x20 MSTORE PUSH1 0x40 DUP2 KECCAK256 SLOAD PUSH1 0x1 PUSH1 0x1 PUSH1 0xA0 SHL SUB AND DUP1 PUSH2 0x830 JUMPI PUSH1 0x40 MLOAD PUSH3 0x461BCD PUSH1 0xE5 SHL DUP2 MSTORE PUSH1 0x20 PUSH1 0x4 DUP3 ADD MSTORE PUSH1 0x18 PUSH1 0x24 DUP3 ADD MSTORE PUSH24 0x115490CDCC8C4E881A5B9D985B1A59081D1BDAD95B881251 PUSH1 0x42 SHL PUSH1 0x44 DUP3 ADD MSTORE PUSH1 0x64 ADD PUSH2 0x9F1 JUMP JUMPDEST PUSH1 0x10 DUP1 SLOAD PUSH2 0x843 SWAP1 PUSH2 0x3335 JUMP JUMPDEST PUSH1 0x0 PUSH1 0x1 PUSH1 0x1 PUSH1 0xA0 SHL SUB DUP3 AND PUSH2 0xFF3 JUMPI PUSH1 0x40 MLOAD PUSH3 0x461BCD PUSH1 0xE5 SHL DUP2 MSTORE PUSH1 0x20 PUSH1 0x4 DUP3 ADD MSTORE PUSH1 0x29 PUSH1 0x24 DUP3 ADD MSTORE PUSH32 0x4552433732313A2061646472657373207A65726F206973206E6F742061207661 PUSH1 0x44 DUP3 ADD MSTORE PUSH9 0x3634B21037BBB732B9 PUSH1 0xB9 SHL PUSH1 0x64 DUP3 ADD MSTORE PUSH1 0x84 ADD PUSH2 0x9F1 JUMP JUMPDEST POP PUSH1 0x1 PUSH1 0x1 PUSH1 0xA0 SHL SUB AND PUSH1 0x0 SWAP1 DUP2 MSTORE PUSH1 0x3 PUSH1 0x20 MSTORE PUSH1 0x40 SWAP1 KECCAK256 SLOAD SWAP1 JUMP JUMPDEST PUSH2 0x1017 PUSH2 0x1A6D JUMP JUMPDEST PUSH2 0x1021 PUSH1 0x0 PUSH2 0x2258 JUMP JUMPDEST JUMP JUMPDEST PUSH1 0x0 PUSH2 0x102E DUP5 PUSH2 0xF1C JUMP JUMPDEST SWAP1 POP DUP1 PUSH1 0x1 PUSH1 0x1 PUSH1 0xA0 SHL SUB AND DUP4 PUSH1 0x1 PUSH1 0x1 PUSH1 0xA0 SHL SUB AND SUB PUSH2 0x109C JUMPI PUSH1 0x40 MLOAD PUSH3 0x461BCD PUSH1 0xE5 SHL DUP2 MSTORE PUSH1 0x20 PUSH1 0x4 DUP3 ADD MSTORE PUSH1 0x22 PUSH1 0x24 DUP3 ADD MSTORE PUSH32 0x455243333532353A20617070726F76616C20746F2063757272656E74206F776E PUSH1 0x44 DUP3 ADD MSTORE PUSH2 0x32B9 PUSH1 0xF1 SHL PUSH1 0x64 DUP3 ADD MSTORE PUSH1 0x84 ADD PUSH2 0x9F1 JUMP JUMPDEST PUSH2 0x10A6 CALLER DUP6 PUSH2 0x1D09 JUMP JUMPDEST PUSH2 0x1118 JUMPI PUSH1 0x40 MLOAD PUSH3 0x461BCD PUSH1 0xE5 SHL DUP2 MSTORE PUSH1 0x20 PUSH1 0x4 DUP3 ADD MSTORE PUSH1 0x39 PUSH1 0x24 DUP3 ADD MSTORE PUSH32 0x455243333532353A20617070726F76652063616C6C6572206973206E6F74206F PUSH1 0x44 DUP3 ADD MSTORE PUSH32 0x776E6572206E6F7220617070726F76656420666F7220616C6C00000000000000 PUSH1 0x64 DUP3 ADD MSTORE PUSH1 0x84 ADD PUSH2 0x9F1 JUMP JUMPDEST PUSH2 0xDDD DUP5 DUP5 DUP5 PUSH2 0x22B2 JUMP JUMPDEST PUSH1 0x60 PUSH1 0x1 DUP1 SLOAD PUSH2 0x8D3 SWAP1 PUSH2 0x3335 JUMP JUMPDEST PUSH1 0x0 PUSH2 0x113D DUP3 PUSH2 0x1F2F JUMP JUMPDEST PUSH2 0x119E JUMPI PUSH1 0x40 MLOAD PUSH3 0x461BCD PUSH1 0xE5 SHL DUP2 MSTORE PUSH1 0x20 PUSH1 0x4 DUP3 ADD MSTORE PUSH1 0x2C PUSH1 0x24 DUP3 ADD MSTORE PUSH32 0x455243333532353A2062616C616E636520717565727920666F72206E6F6E6578 PUSH1 0x44 DUP3 ADD MSTORE PUSH12 0x34B9BA32B73A103A37B5B2B7 PUSH1 0xA1 SHL PUSH1 0x64 DUP3 ADD MSTORE PUSH1 0x84 ADD PUSH2 0x9F1 JUMP JUMPDEST POP PUSH1 0x0 SWAP1 DUP2 MSTORE PUSH1 0xA PUSH1 0x20 MSTORE PUSH1 0x40 SWAP1 KECCAK256 SLOAD SWAP1 JUMP JUMPDEST PUSH2 0xCA8 CALLER DUP4 DUP4 PUSH2 0x1C3B JUMP JUMPDEST PUSH2 0x11C4 PUSH2 0x1A6D JUMP JUMPDEST DUP1 MLOAD PUSH2 0x11D7 SWAP1 PUSH1 0x11 SWAP1 PUSH1 0x20 DUP5 ADD SWAP1 PUSH2 0x2D88 JUMP JUMPDEST POP PUSH32 0x69492B03D451C4AD02FE1A5A42E677AC013FC7FD243FA4E3A4EF14A5D8D8808D DUP2 PUSH1 0x40 MLOAD PUSH2 0xD47 SWAP2 SWAP1 PUSH2 0x2EC6 JUMP JUMPDEST PUSH2 0x1211 CALLER DUP4 PUSH2 0x1D09 JUMP JUMPDEST PUSH2 0x122D JUMPI PUSH1 0x40 MLOAD PUSH3 0x461BCD PUSH1 0xE5 SHL DUP2 MSTORE PUSH1 0x4 ADD PUSH2 0x9F1 SWAP1 PUSH2 0x336F JUMP JUMPDEST PUSH2 0xDDD DUP5 DUP5 DUP5 DUP5 PUSH2 0x2332 JUMP JUMPDEST PUSH1 0x60 PUSH1 0x0 PUSH1 0xD PUSH1 0xE PUSH1 0x40 MLOAD PUSH1 0x20 ADD PUSH2 0x1252 SWAP3 SWAP2 SWAP1 PUSH2 0x346C JUMP JUMPDEST PUSH1 0x40 DUP1 MLOAD PUSH1 0x1F NOT DUP2 DUP5 SUB ADD DUP2 MSTORE SWAP1 DUP3 SWAP1 MSTORE PUSH1 0x13 SLOAD PUSH4 0x3E10510B PUSH1 0xE0 SHL DUP4 MSTORE SWAP1 SWAP3 POP PUSH1 0x0 SWAP2 PUSH1 0x1 PUSH1 0x1 PUSH1 0xA0 SHL SUB SWAP1 SWAP2 AND SWAP1 PUSH4 0x3E10510B SWAP1 PUSH2 0x1296 SWAP1 DUP6 SWAP1 PUSH1 0x4 ADD PUSH2 0x3495 JUMP JUMPDEST PUSH1 0x0 PUSH1 0x40 MLOAD DUP1 DUP4 SUB DUP2 DUP7 GAS STATICCALL ISZERO DUP1 ISZERO PUSH2 0x12B3 JUMPI RETURNDATASIZE PUSH1 0x0 DUP1 RETURNDATACOPY RETURNDATASIZE PUSH1 0x0 REVERT JUMPDEST POP POP POP POP PUSH1 0x40 MLOAD RETURNDATASIZE PUSH1 0x0 DUP3 RETURNDATACOPY PUSH1 0x1F RETURNDATASIZE SWAP1 DUP2 ADD PUSH1 0x1F NOT AND DUP3 ADD PUSH1 0x40 MSTORE PUSH2 0x12DB SWAP2 SWAP1 DUP2 ADD SWAP1 PUSH2 0x34D3 JUMP JUMPDEST PUSH1 0x13 SLOAD PUSH1 0x40 MLOAD PUSH4 0x3E10510B PUSH1 0xE0 SHL DUP2 MSTORE SWAP2 SWAP3 POP PUSH1 0x0 SWAP2 PUSH1 0x1 PUSH1 0x1 PUSH1 0xA0 SHL SUB SWAP1 SWAP2 AND SWAP1 PUSH4 0x3E10510B SWAP1 PUSH2 0x1311 SWAP1 DUP7 SWAP1 PUSH1 0x4 ADD PUSH2 0x3541 JUMP JUMPDEST PUSH1 0x0 PUSH1 0x40 MLOAD DUP1 DUP4 SUB DUP2 DUP7 GAS STATICCALL ISZERO DUP1 ISZERO PUSH2 0x132E JUMPI RETURNDATASIZE PUSH1 0x0 DUP1 RETURNDATACOPY RETURNDATASIZE PUSH1 0x0 REVERT JUMPDEST POP POP POP POP PUSH1 0x40 MLOAD RETURNDATASIZE PUSH1 0x0 DUP3 RETURNDATACOPY PUSH1 0x1F RETURNDATASIZE SWAP1 DUP2 ADD PUSH1 0x1F NOT AND DUP3 ADD PUSH1 0x40 MSTORE PUSH2 0x1356 SWAP2 SWAP1 DUP2 ADD SWAP1 PUSH2 0x34D3 JUMP JUMPDEST SWAP1 POP PUSH2 0x138A DUP3 PUSH2 0x1365 DUP4 PUSH2 0x2365 JUMP JUMPDEST PUSH1 0x40 MLOAD PUSH1 0x20 ADD PUSH2 0x1376 SWAP3 SWAP2 SWAP1 PUSH2 0x359C JUMP JUMPDEST PUSH1 0x40 MLOAD PUSH1 0x20 DUP2 DUP4 SUB SUB DUP2 MSTORE SWAP1 PUSH1 0x40 MSTORE PUSH2 0x2365 JUMP JUMPDEST PUSH1 0x40 MLOAD PUSH1 0x20 ADD PUSH2 0x139A SWAP2 SWAP1 PUSH2 0x3627 JUMP JUMPDEST PUSH1 0x40 MLOAD PUSH1 0x20 DUP2 DUP4 SUB SUB DUP2 MSTORE SWAP1 PUSH1 0x40 MSTORE SWAP4 POP POP POP POP SWAP1 JUMP JUMPDEST PUSH2 0x13B9 PUSH2 0x1A6D JUMP JUMPDEST PUSH2 0x13C4 PUSH1 0x0 NOT PUSH2 0x1F2F JUMP JUMPDEST ISZERO PUSH2 0x1401 JUMPI PUSH1 0x40 MLOAD PUSH3 0x461BCD PUSH1 0xE5 SHL DUP2 MSTORE PUSH1 0x20 PUSH1 0x4 DUP3 ADD MSTORE PUSH1 0xD PUSH1 0x24 DUP3 ADD MSTORE PUSH13 0x1A5B9A5D081A185C1C195B9959 PUSH1 0x9A SHL PUSH1 0x44 DUP3 ADD MSTORE PUSH1 0x64 ADD PUSH2 0x9F1 JUMP JUMPDEST DUP5 MLOAD PUSH2 0x1414 SWAP1 PUSH1 0xD SWAP1 PUSH1 0x20 DUP9 ADD SWAP1 PUSH2 0x2D88 JUMP JUMPDEST POP DUP4 MLOAD PUSH2 0x1428 SWAP1 PUSH1 0xE SWAP1 PUSH1 0x20 DUP8 ADD SWAP1 PUSH2 0x2D88 JUMP JUMPDEST POP DUP3 MLOAD PUSH2 0x143C SWAP1 PUSH1 0x10 SWAP1 PUSH1 0x20 DUP7 ADD SWAP1 PUSH2 0x2D88 JUMP JUMPDEST POP DUP2 MLOAD PUSH2 0x1450 SWAP1 PUSH1 0x11 SWAP1 PUSH1 0x20 DUP6 ADD SWAP1 PUSH2 0x2D88 JUMP JUMPDEST POP PUSH1 0xF SLOAD PUSH2 0x1471 SWAP1 PUSH2 0x100 SWAP1 DIV PUSH1 0x1 PUSH1 0x1 PUSH1 0xA0 SHL SUB AND PUSH1 0x0 NOT PUSH1 0x1 DUP5 PUSH2 0x1ACD JUMP JUMPDEST POP POP PUSH1 0x13 DUP1 SLOAD PUSH1 0x1 PUSH1 0x1 PUSH1 0xA0 SHL SUB NOT AND PUSH20 0x222D6D17F1F6967B81E40624FE6176B7BE225BEE OR SWAP1 SSTORE POP POP POP JUMP JUMPDEST PUSH1 0x60 PUSH2 0x14A9 DUP3 PUSH2 0x1F2F JUMP JUMPDEST PUSH2 0x14E9 JUMPI PUSH1 0x40 MLOAD PUSH3 0x461BCD PUSH1 0xE5 SHL DUP2 MSTORE PUSH1 0x20 PUSH1 0x4 DUP3 ADD MSTORE PUSH1 0x11 PUSH1 0x24 DUP3 ADD MSTORE PUSH17 0x3737B732BC34B9BA32B73A103A37B5B2B7 PUSH1 0x79 SHL PUSH1 0x44 DUP3 ADD MSTORE PUSH1 0x64 ADD PUSH2 0x9F1 JUMP JUMPDEST PUSH1 0x0 PUSH1 0xD PUSH1 0xE PUSH1 0x40 MLOAD PUSH1 0x20 ADD PUSH2 0x1500 SWAP3 SWAP2 SWAP1 PUSH2 0x346C JUMP JUMPDEST PUSH1 0x40 DUP1 MLOAD PUSH1 0x1F NOT DUP2 DUP5 SUB ADD DUP2 MSTORE SWAP1 DUP3 SWAP1 MSTORE PUSH1 0x13 SLOAD PUSH4 0x3E10510B PUSH1 0xE0 SHL DUP4 MSTORE SWAP1 SWAP3 POP PUSH1 0x0 SWAP2 PUSH1 0x1 PUSH1 0x1 PUSH1 0xA0 SHL SUB SWAP1 SWAP2 AND SWAP1 PUSH4 0x3E10510B SWAP1 PUSH2 0x1544 SWAP1 DUP6 SWAP1 PUSH1 0x4 ADD PUSH2 0x366C JUMP JUMPDEST PUSH1 0x0 PUSH1 0x40 MLOAD DUP1 DUP4 SUB DUP2 DUP7 GAS STATICCALL ISZERO DUP1 ISZERO PUSH2 0x1561 JUMPI RETURNDATASIZE PUSH1 0x0 DUP1 RETURNDATACOPY RETURNDATASIZE PUSH1 0x0 REVERT JUMPDEST POP POP POP POP PUSH1 0x40 MLOAD RETURNDATASIZE PUSH1 0x0 DUP3 RETURNDATACOPY PUSH1 0x1F RETURNDATASIZE SWAP1 DUP2 ADD PUSH1 0x1F NOT AND DUP3 ADD PUSH1 0x40 MSTORE PUSH2 0x1589 SWAP2 SWAP1 DUP2 ADD SWAP1 PUSH2 0x34D3 JUMP JUMPDEST PUSH1 0x13 SLOAD PUSH1 0x40 MLOAD PUSH4 0x3E10510B PUSH1 0xE0 SHL DUP2 MSTORE SWAP2 SWAP3 POP PUSH1 0x0 SWAP2 PUSH1 0x1 PUSH1 0x1 PUSH1 0xA0 SHL SUB SWAP1 SWAP2 AND SWAP1 PUSH4 0x3E10510B SWAP1 PUSH2 0x15BF SWAP1 DUP7 SWAP1 PUSH1 0x4 ADD PUSH2 0x36AB JUMP JUMPDEST PUSH1 0x0 PUSH1 0x40 MLOAD DUP1 DUP4 SUB DUP2 DUP7 GAS STATICCALL ISZERO DUP1 ISZERO PUSH2 0x15DC JUMPI RETURNDATASIZE PUSH1 0x0 DUP1 RETURNDATACOPY RETURNDATASIZE PUSH1 0x0 REVERT JUMPDEST POP POP POP POP PUSH1 0x40 MLOAD RETURNDATASIZE PUSH1 0x0 DUP3 RETURNDATACOPY PUSH1 0x1F RETURNDATASIZE SWAP1 DUP2 ADD PUSH1 0x1F NOT AND DUP3 ADD PUSH1 0x40 MSTORE PUSH2 0x1604 SWAP2 SWAP1 DUP2 ADD SWAP1 PUSH2 0x34D3 JUMP JUMPDEST PUSH1 0x13 SLOAD SWAP1 SWAP2 POP PUSH1 0x0 SWAP1 PUSH1 0x1 PUSH1 0x1 PUSH1 0xA0 SHL SUB AND PUSH4 0x7C4165F2 DUP4 PUSH2 0x162D PUSH2 0x1628 DUP11 PUSH2 0x1132 JUMP JUMPDEST PUSH2 0x24B8 JUMP JUMPDEST PUSH1 0x40 MLOAD DUP4 PUSH4 0xFFFFFFFF AND PUSH1 0xE0 SHL DUP2 MSTORE PUSH1 0x4 ADD PUSH2 0x164A SWAP3 SWAP2 SWAP1 PUSH2 0x36EB JUMP JUMPDEST PUSH1 0x0 PUSH1 0x40 MLOAD DUP1 DUP4 SUB DUP2 DUP7 GAS STATICCALL ISZERO DUP1 ISZERO PUSH2 0x1667 JUMPI RETURNDATASIZE PUSH1 0x0 DUP1 RETURNDATACOPY RETURNDATASIZE PUSH1 0x0 REVERT JUMPDEST POP POP POP POP PUSH1 0x40 MLOAD RETURNDATASIZE PUSH1 0x0 DUP3 RETURNDATACOPY PUSH1 0x1F RETURNDATASIZE SWAP1 DUP2 ADD PUSH1 0x1F NOT AND DUP3 ADD PUSH1 0x40 MSTORE PUSH2 0x168F SWAP2 SWAP1 DUP2 ADD SWAP1 PUSH2 0x34D3 JUMP JUMPDEST SWAP1 POP PUSH1 0x0 DUP4 PUSH1 0x0 NOT DUP9 EQ PUSH2 0x16B1 JUMPI PUSH2 0x16AC PUSH2 0x1628 PUSH2 0x2710 DUP11 PUSH2 0x3750 JUMP JUMPDEST PUSH2 0x16D0 JUMP JUMPDEST PUSH1 0x40 MLOAD DUP1 PUSH1 0x40 ADD PUSH1 0x40 MSTORE DUP1 PUSH1 0x5 DUP2 MSTORE PUSH1 0x20 ADD PUSH5 0x20A226A4A7 PUSH1 0xD9 SHL DUP2 MSTORE POP JUMPDEST PUSH2 0x16D9 DUP5 PUSH2 0x2365 JUMP JUMPDEST PUSH2 0x16E5 PUSH2 0x1628 DUP12 PUSH2 0x1132 JUMP JUMPDEST PUSH1 0x40 MLOAD PUSH1 0x20 ADD PUSH2 0x16F8 SWAP5 SWAP4 SWAP3 SWAP2 SWAP1 PUSH2 0x3764 JUMP JUMPDEST PUSH1 0x40 MLOAD PUSH1 0x20 DUP2 DUP4 SUB SUB DUP2 MSTORE SWAP1 PUSH1 0x40 MSTORE SWAP1 POP PUSH2 0x1712 DUP2 PUSH2 0x2365 JUMP JUMPDEST PUSH1 0x40 MLOAD PUSH1 0x20 ADD PUSH2 0x1722 SWAP2 SWAP1 PUSH2 0x3627 JUMP JUMPDEST PUSH1 0x40 MLOAD PUSH1 0x20 DUP2 DUP4 SUB SUB DUP2 MSTORE SWAP1 PUSH1 0x40 MSTORE SWAP6 POP POP POP POP POP POP SWAP2 SWAP1 POP JUMP JUMPDEST PUSH2 0x1745 PUSH2 0x1A6D JUMP JUMPDEST DUP2 PUSH2 0x1751 PUSH1 0x0 NOT PUSH2 0x1132 JUMP JUMPDEST LT ISZERO PUSH2 0x178C JUMPI PUSH1 0x40 MLOAD PUSH3 0x461BCD PUSH1 0xE5 SHL DUP2 MSTORE PUSH1 0x20 PUSH1 0x4 DUP3 ADD MSTORE PUSH1 0xA PUSH1 0x24 DUP3 ADD MSTORE PUSH10 0x141BDA5B9D1CC813DD5D PUSH1 0xB2 SHL PUSH1 0x44 DUP3 ADD MSTORE PUSH1 0x64 ADD PUSH2 0x9F1 JUMP JUMPDEST PUSH2 0xA92 PUSH1 0x0 NOT DUP5 DUP5 DUP5 PUSH2 0xDB9 JUMP JUMPDEST PUSH1 0xF SLOAD PUSH2 0x100 SWAP1 DIV PUSH1 0x1 PUSH1 0x1 PUSH1 0xA0 SHL SUB AND ISZERO PUSH2 0x17EF JUMPI PUSH1 0x40 MLOAD PUSH3 0x461BCD PUSH1 0xE5 SHL DUP2 MSTORE PUSH1 0x20 PUSH1 0x4 DUP3 ADD MSTORE PUSH1 0x14 PUSH1 0x24 DUP3 ADD MSTORE PUSH20 0x6F6E6C79207768656E20696E6974207374617465 PUSH1 0x60 SHL PUSH1 0x44 DUP3 ADD MSTORE PUSH1 0x64 ADD PUSH2 0x9F1 JUMP JUMPDEST PUSH1 0x12 SLOAD PUSH1 0x1 PUSH1 0x1 PUSH1 0xA0 SHL SUB AND ISZERO PUSH2 0x1021 JUMPI PUSH1 0x12 SLOAD PUSH1 0x40 DUP1 MLOAD DUP1 DUP3 ADD DUP3 MSTORE PUSH1 0x6 DUP2 MSTORE PUSH6 0x6465706C6F79 PUSH1 0xD0 SHL PUSH1 0x20 DUP3 ADD MSTORE SWAP1 MLOAD PUSH4 0x25B11429 PUSH1 0xE0 SHL DUP2 MSTORE PUSH1 0x1 PUSH1 0x1 PUSH1 0xA0 SHL SUB SWAP1 SWAP3 AND SWAP2 PUSH4 0x25B11429 SWAP2 PUSH2 0x1849 SWAP2 PUSH1 0x4 ADD PUSH2 0x2EC6 JUMP JUMPDEST PUSH1 0x0 PUSH1 0x40 MLOAD DUP1 DUP4 SUB DUP2 PUSH1 0x0 DUP8 DUP1 EXTCODESIZE ISZERO DUP1 ISZERO PUSH2 0x1863 JUMPI PUSH1 0x0 DUP1 REVERT JUMPDEST POP GAS CALL ISZERO DUP1 ISZERO PUSH2 0xDDD JUMPI RETURNDATASIZE PUSH1 0x0 DUP1 RETURNDATACOPY RETURNDATASIZE PUSH1 0x0 REVERT JUMPDEST PUSH1 0x60 PUSH1 0x0 PUSH2 0x1883 PUSH2 0x25B9 JUMP JUMPDEST SWAP1 POP PUSH1 0x0 DUP2 MLOAD GT PUSH2 0x18A3 JUMPI PUSH1 0x40 MLOAD DUP1 PUSH1 0x20 ADD PUSH1 0x40 MSTORE DUP1 PUSH1 0x0 DUP2 MSTORE POP PUSH2 0x18CE JUMP JUMPDEST DUP1 PUSH2 0x18AD ADDRESS PUSH2 0x25C8 JUMP JUMPDEST PUSH1 0x40 MLOAD PUSH1 0x20 ADD PUSH2 0x18BE SWAP3 SWAP2 SWAP1 PUSH2 0x388C JUMP JUMPDEST PUSH1 0x40 MLOAD PUSH1 0x20 DUP2 DUP4 SUB SUB DUP2 MSTORE SWAP1 PUSH1 0x40 MSTORE JUMPDEST SWAP2 POP POP SWAP1 JUMP JUMPDEST PUSH1 0xF SLOAD PUSH2 0x100 SWAP1 DIV PUSH1 0x1 PUSH1 0x1 PUSH1 0xA0 SHL SUB AND ISZERO DUP1 PUSH2 0x1901 JUMPI POP PUSH1 0xF SLOAD PUSH1 0x1 PUSH1 0x1 PUSH1 0xA0 SHL SUB PUSH2 0x100 SWAP1 SWAP2 DIV AND CALLER EQ JUMPDEST PUSH2 0x193A JUMPI PUSH1 0x40 MLOAD PUSH3 0x461BCD PUSH1 0xE5 SHL DUP2 MSTORE PUSH1 0x20 PUSH1 0x4 DUP3 ADD MSTORE PUSH1 0xA PUSH1 0x24 DUP3 ADD MSTORE PUSH10 0x27B7363C9027B73BB2B9 PUSH1 0xB1 SHL PUSH1 0x44 DUP3 ADD MSTORE PUSH1 0x64 ADD PUSH2 0x9F1 JUMP JUMPDEST PUSH1 0x1 PUSH1 0x1 PUSH1 0xA0 SHL SUB DUP2 AND PUSH2 0x197E JUMPI PUSH1 0x40 MLOAD PUSH3 0x461BCD PUSH1 0xE5 SHL DUP2 MSTORE PUSH1 0x20 PUSH1 0x4 DUP3 ADD MSTORE PUSH1 0xB PUSH1 0x24 DUP3 ADD MSTORE PUSH11 0x4E6577206F776E6572203 PUSH1 0xAC SHL PUSH1 0x44 DUP3 ADD MSTORE PUSH1 0x64 ADD PUSH2 0x9F1 JUMP JUMPDEST PUSH2 0x1987 DUP2 PUSH2 0x2258 JUMP JUMPDEST POP JUMP JUMPDEST PUSH1 0x0 PUSH1 0x1 PUSH1 0x1 PUSH1 0xE0 SHL SUB NOT DUP3 AND PUSH4 0x780E9D63 PUSH1 0xE0 SHL EQ DUP1 PUSH2 0x830 JUMPI POP PUSH2 0x830 DUP3 PUSH2 0x261F JUMP JUMPDEST PUSH2 0x19B8 DUP2 PUSH2 0x1F2F JUMP JUMPDEST PUSH2 0x1987 JUMPI PUSH1 0x40 MLOAD PUSH3 0x461BCD PUSH1 0xE5 SHL DUP2 MSTORE PUSH1 0x20 PUSH1 0x4 DUP3 ADD MSTORE PUSH1 0x18 PUSH1 0x24 DUP3 ADD MSTORE PUSH24 0x115490CDCC8C4E881A5B9D985B1A59081D1BDAD95B881251 PUSH1 0x42 SHL PUSH1 0x44 DUP3 ADD MSTORE PUSH1 0x64 ADD PUSH2 0x9F1 JUMP JUMPDEST PUSH1 0x0 DUP2 DUP2 MSTORE PUSH1 0x4 PUSH1 0x20 MSTORE PUSH1 0x40 SWAP1 KECCAK256 DUP1 SLOAD PUSH1 0x1 PUSH1 0x1 PUSH1 0xA0 SHL SUB NOT AND PUSH1 0x1 PUSH1 0x1 PUSH1 0xA0 SHL SUB DUP5 AND SWAP1 DUP2 OR SWAP1 SWAP2 SSTORE DUP2 SWAP1 PUSH2 0x1A34 DUP3 PUSH2 0xF1C JUMP JUMPDEST PUSH1 0x1 PUSH1 0x1 PUSH1 0xA0 SHL SUB AND PUSH32 0x8C5BE1E5EBEC7D5BD14F71427D1E84F3DD0314C0F7B2291E5B200AC8C7C3B925 PUSH1 0x40 MLOAD PUSH1 0x40 MLOAD DUP1 SWAP2 SUB SWAP1 LOG4 POP POP JUMP JUMPDEST PUSH1 0xF SLOAD PUSH1 0x1 PUSH1 0x1 PUSH1 0xA0 SHL SUB PUSH2 0x100 SWAP1 SWAP2 DIV AND CALLER EQ PUSH2 0x1021 JUMPI PUSH1 0x40 MLOAD PUSH3 0x461BCD PUSH1 0xE5 SHL DUP2 MSTORE PUSH1 0x20 PUSH1 0x4 DUP3 ADD DUP2 SWAP1 MSTORE PUSH1 0x24 DUP3 ADD MSTORE PUSH32 0x4F776E61626C653A2063616C6C6572206973206E6F7420746865206F776E6572 PUSH1 0x44 DUP3 ADD MSTORE PUSH1 0x64 ADD PUSH2 0x9F1 JUMP JUMPDEST PUSH1 0x1 PUSH1 0x1 PUSH1 0xA0 SHL SUB DUP5 AND PUSH2 0x1B2D JUMPI PUSH1 0x40 MLOAD PUSH3 0x461BCD PUSH1 0xE5 SHL DUP2 MSTORE PUSH1 0x20 PUSH1 0x4 DUP3 ADD MSTORE PUSH1 0x21 PUSH1 0x24 DUP3 ADD MSTORE PUSH32 0x455243333532353A206D696E7420746F20746865207A65726F20616464726573 PUSH1 0x44 DUP3 ADD MSTORE PUSH1 0x73 PUSH1 0xF8 SHL PUSH1 0x64 DUP3 ADD MSTORE PUSH1 0x84 ADD PUSH2 0x9F1 JUMP JUMPDEST DUP3 PUSH1 0x0 SUB PUSH2 0x1B87 JUMPI PUSH1 0x40 MLOAD PUSH3 0x461BCD PUSH1 0xE5 SHL DUP2 MSTORE PUSH1 0x20 PUSH1 0x4 DUP3 ADD MSTORE PUSH1 0x21 PUSH1 0x24 DUP3 ADD MSTORE PUSH32 0x455243333532353A2063616E6E6F74206D696E74207A65726F20746F6B656E49 PUSH1 0x44 DUP3 ADD MSTORE PUSH1 0x19 PUSH1 0xFA SHL PUSH1 0x64 DUP3 ADD MSTORE PUSH1 0x84 ADD PUSH2 0x9F1 JUMP JUMPDEST PUSH2 0x1B90 DUP4 PUSH2 0x1F2F JUMP JUMPDEST ISZERO PUSH2 0x1BDD JUMPI PUSH1 0x40 MLOAD PUSH3 0x461BCD PUSH1 0xE5 SHL DUP2 MSTORE PUSH1 0x20 PUSH1 0x4 DUP3 ADD MSTORE PUSH1 0x1D PUSH1 0x24 DUP3 ADD MSTORE PUSH32 0x455243333532353A20746F6B656E20616C7265616479206D696E746564000000 PUSH1 0x44 DUP3 ADD MSTORE PUSH1 0x64 ADD PUSH2 0x9F1 JUMP JUMPDEST PUSH2 0x1BE8 DUP5 DUP5 DUP5 PUSH2 0x266F JUMP JUMPDEST PUSH1 0x0 DUP4 DUP2 MSTORE PUSH1 0xA PUSH1 0x20 MSTORE PUSH1 0x40 SWAP1 KECCAK256 DUP2 SWAP1 SSTORE DUP3 PUSH1 0x0 PUSH32 0xB2AAC84F3EC956911FD78EAE5311062972FF949F38412E8DA39069D9F068CC6 DUP4 PUSH1 0x40 MLOAD PUSH2 0x1C2D SWAP2 DUP2 MSTORE PUSH1 0x20 ADD SWAP1 JUMP JUMPDEST PUSH1 0x40 MLOAD DUP1 SWAP2 SUB SWAP1 LOG3 POP POP POP POP JUMP JUMPDEST DUP2 PUSH1 0x1 PUSH1 0x1 PUSH1 0xA0 SHL SUB AND DUP4 PUSH1 0x1 PUSH1 0x1 PUSH1 0xA0 SHL SUB AND SUB PUSH2 0x1C9C JUMPI PUSH1 0x40 MLOAD PUSH3 0x461BCD PUSH1 0xE5 SHL DUP2 MSTORE PUSH1 0x20 PUSH1 0x4 DUP3 ADD MSTORE PUSH1 0x19 PUSH1 0x24 DUP3 ADD MSTORE PUSH32 0x4552433732313A20617070726F766520746F2063616C6C657200000000000000 PUSH1 0x44 DUP3 ADD MSTORE PUSH1 0x64 ADD PUSH2 0x9F1 JUMP JUMPDEST PUSH1 0x1 PUSH1 0x1 PUSH1 0xA0 SHL SUB DUP4 DUP2 AND PUSH1 0x0 DUP2 DUP2 MSTORE PUSH1 0x5 PUSH1 0x20 SWAP1 DUP2 MSTORE PUSH1 0x40 DUP1 DUP4 KECCAK256 SWAP5 DUP8 AND DUP1 DUP5 MSTORE SWAP5 DUP3 MSTORE SWAP2 DUP3 SWAP1 KECCAK256 DUP1 SLOAD PUSH1 0xFF NOT AND DUP7 ISZERO ISZERO SWAP1 DUP2 OR SWAP1 SWAP2 SSTORE SWAP2 MLOAD SWAP2 DUP3 MSTORE PUSH32 0x17307EAB39AB6107E8899845AD3D59BD9653F200F220920489CA2B5937696C31 SWAP2 ADD PUSH1 0x40 MLOAD DUP1 SWAP2 SUB SWAP1 LOG3 POP POP POP JUMP JUMPDEST PUSH1 0x0 DUP1 PUSH2 0x1D15 DUP4 PUSH2 0xF1C JUMP JUMPDEST SWAP1 POP DUP1 PUSH1 0x1 PUSH1 0x1 PUSH1 0xA0 SHL SUB AND DUP5 PUSH1 0x1 PUSH1 0x1 PUSH1 0xA0 SHL SUB AND EQ DUP1 PUSH2 0x1D5C JUMPI POP PUSH1 0x1 PUSH1 0x1 PUSH1 0xA0 SHL SUB DUP1 DUP3 AND PUSH1 0x0 SWAP1 DUP2 MSTORE PUSH1 0x5 PUSH1 0x20 SWAP1 DUP2 MSTORE PUSH1 0x40 DUP1 DUP4 KECCAK256 SWAP4 DUP9 AND DUP4 MSTORE SWAP3 SWAP1 MSTORE KECCAK256 SLOAD PUSH1 0xFF AND JUMPDEST DUP1 PUSH2 0x1D80 JUMPI POP DUP4 PUSH1 0x1 PUSH1 0x1 PUSH1 0xA0 SHL SUB AND PUSH2 0x1D75 DUP5 PUSH2 0x956 JUMP JUMPDEST PUSH1 0x1 PUSH1 0x1 PUSH1 0xA0 SHL SUB AND EQ JUMPDEST SWAP5 SWAP4 POP POP POP POP JUMP JUMPDEST DUP3 PUSH1 0x1 PUSH1 0x1 PUSH1 0xA0 SHL SUB AND PUSH2 0x1D9B DUP3 PUSH2 0xF1C JUMP JUMPDEST PUSH1 0x1 PUSH1 0x1 PUSH1 0xA0 SHL SUB AND EQ PUSH2 0x1DFF JUMPI PUSH1 0x40 MLOAD PUSH3 0x461BCD PUSH1 0xE5 SHL DUP2 MSTORE PUSH1 0x20 PUSH1 0x4 DUP3 ADD MSTORE PUSH1 0x25 PUSH1 0x24 DUP3 ADD MSTORE PUSH32 0x4552433732313A207472616E736665722066726F6D20696E636F727265637420 PUSH1 0x44 DUP3 ADD MSTORE PUSH5 0x37BBB732B9 PUSH1 0xD9 SHL PUSH1 0x64 DUP3 ADD MSTORE PUSH1 0x84 ADD PUSH2 0x9F1 JUMP JUMPDEST PUSH1 0x1 PUSH1 0x1 PUSH1 0xA0 SHL SUB DUP3 AND PUSH2 0x1E61 JUMPI PUSH1 0x40 MLOAD PUSH3 0x461BCD PUSH1 0xE5 SHL DUP2 MSTORE PUSH1 0x20 PUSH1 0x4 DUP3 ADD MSTORE PUSH1 0x24 DUP1 DUP3 ADD MSTORE PUSH32 0x4552433732313A207472616E7366657220746F20746865207A65726F20616464 PUSH1 0x44 DUP3 ADD MSTORE PUSH4 0x72657373 PUSH1 0xE0 SHL PUSH1 0x64 DUP3 ADD MSTORE PUSH1 0x84 ADD PUSH2 0x9F1 JUMP JUMPDEST PUSH2 0x1E6C DUP4 DUP4 DUP4 PUSH2 0x26BB JUMP JUMPDEST PUSH2 0x1E77 PUSH1 0x0 DUP3 PUSH2 0x19FF JUMP JUMPDEST PUSH1 0x1 PUSH1 0x1 PUSH1 0xA0 SHL SUB DUP4 AND PUSH1 0x0 SWAP1 DUP2 MSTORE PUSH1 0x3 PUSH1 0x20 MSTORE PUSH1 0x40 DUP2 KECCAK256 DUP1 SLOAD PUSH1 0x1 SWAP3 SWAP1 PUSH2 0x1EA0 SWAP1 DUP5 SWAP1 PUSH2 0x38E6 JUMP JUMPDEST SWAP1 SWAP2 SSTORE POP POP PUSH1 0x1 PUSH1 0x1 PUSH1 0xA0 SHL SUB DUP3 AND PUSH1 0x0 SWAP1 DUP2 MSTORE PUSH1 0x3 PUSH1 0x20 MSTORE PUSH1 0x40 DUP2 KECCAK256 DUP1 SLOAD PUSH1 0x1 SWAP3 SWAP1 PUSH2 0x1ECE SWAP1 DUP5 SWAP1 PUSH2 0x38FD JUMP JUMPDEST SWAP1 SWAP2 SSTORE POP POP PUSH1 0x0 DUP2 DUP2 MSTORE PUSH1 0x2 PUSH1 0x20 MSTORE PUSH1 0x40 DUP1 DUP3 KECCAK256 DUP1 SLOAD PUSH1 0x1 PUSH1 0x1 PUSH1 0xA0 SHL SUB NOT AND PUSH1 0x1 PUSH1 0x1 PUSH1 0xA0 SHL SUB DUP7 DUP2 AND SWAP2 DUP3 OR SWAP1 SWAP3 SSTORE SWAP2 MLOAD DUP5 SWAP4 SWAP2 DUP8 AND SWAP2 PUSH32 0xDDF252AD1BE2C89B69C2B068FC378DAA952BA7F163C4A11628F55A4DF523B3EF SWAP2 LOG4 POP POP POP JUMP JUMPDEST PUSH1 0x0 SWAP1 DUP2 MSTORE PUSH1 0x2 PUSH1 0x20 MSTORE PUSH1 0x40 SWAP1 KECCAK256 SLOAD PUSH1 0x1 PUSH1 0x1 PUSH1 0xA0 SHL SUB AND ISZERO ISZERO SWAP1 JUMP JUMPDEST PUSH1 0x0 DUP3 DUP2 MSTORE PUSH1 0xB PUSH1 0x20 SWAP1 DUP2 MSTORE PUSH1 0x40 DUP1 DUP4 KECCAK256 PUSH1 0x1 PUSH1 0x1 PUSH1 0xA0 SHL SUB DUP8 AND DUP5 MSTORE PUSH1 0x1 ADD SWAP1 SWAP2 MSTORE SWAP1 KECCAK256 SLOAD PUSH2 0x1F7C DUP5 DUP5 PUSH2 0x1D09 JUMP JUMPDEST ISZERO DUP1 ISZERO PUSH2 0x1F8B JUMPI POP PUSH1 0x0 NOT DUP2 EQ ISZERO JUMPDEST ISZERO PUSH2 0xDDD JUMPI DUP2 DUP2 LT ISZERO PUSH2 0x1FE0 JUMPI PUSH1 0x40 MLOAD PUSH3 0x461BCD PUSH1 0xE5 SHL DUP2 MSTORE PUSH1 0x20 PUSH1 0x4 DUP3 ADD MSTORE PUSH1 0x1F PUSH1 0x24 DUP3 ADD MSTORE PUSH32 0x455243333532353A20696E73756666696369656E7420616C6C6F77616E636500 PUSH1 0x44 DUP3 ADD MSTORE PUSH1 0x64 ADD PUSH2 0x9F1 JUMP JUMPDEST PUSH2 0xDDD DUP4 DUP6 PUSH2 0x1FEF DUP6 DUP6 PUSH2 0x38E6 JUMP JUMPDEST PUSH2 0x22B2 JUMP JUMPDEST PUSH2 0x1FFD DUP4 PUSH2 0x1F2F JUMP JUMPDEST PUSH2 0x205B JUMPI PUSH1 0x40 MLOAD PUSH3 0x461BCD PUSH1 0xE5 SHL DUP2 MSTORE PUSH1 0x20 PUSH1 0x4 DUP3 ADD MSTORE PUSH1 0x29 PUSH1 0x24 DUP3 ADD MSTORE PUSH32 0x45524333353235353A207472616E736665722066726F6D206E6F6E6578697374 PUSH1 0x44 DUP3 ADD MSTORE PUSH9 0x32B73A103A37B5B2B7 PUSH1 0xB9 SHL PUSH1 0x64 DUP3 ADD MSTORE PUSH1 0x84 ADD PUSH2 0x9F1 JUMP JUMPDEST PUSH2 0x2064 DUP3 PUSH2 0x1F2F JUMP JUMPDEST PUSH2 0x20C0 JUMPI PUSH1 0x40 MLOAD PUSH3 0x461BCD PUSH1 0xE5 SHL DUP2 MSTORE PUSH1 0x20 PUSH1 0x4 DUP3 ADD MSTORE PUSH1 0x27 PUSH1 0x24 DUP3 ADD MSTORE PUSH32 0x45524333353235353A207472616E7366657220746F206E6F6E6578697374656E PUSH1 0x44 DUP3 ADD MSTORE PUSH7 0x3A103A37B5B2B7 PUSH1 0xC9 SHL PUSH1 0x64 DUP3 ADD MSTORE PUSH1 0x84 ADD PUSH2 0x9F1 JUMP JUMPDEST PUSH1 0x0 DUP4 DUP2 MSTORE PUSH1 0xA PUSH1 0x20 MSTORE PUSH1 0x40 SWAP1 KECCAK256 SLOAD DUP2 GT ISZERO PUSH2 0x212F JUMPI PUSH1 0x40 MLOAD PUSH3 0x461BCD PUSH1 0xE5 SHL DUP2 MSTORE PUSH1 0x20 PUSH1 0x4 DUP3 ADD MSTORE PUSH1 0x28 PUSH1 0x24 DUP3 ADD MSTORE PUSH32 0x455243333532353A207472616E7366657220616D6F756E742065786365656473 PUSH1 0x44 DUP3 ADD MSTORE PUSH8 0x2062616C616E6365 PUSH1 0xC0 SHL PUSH1 0x64 DUP3 ADD MSTORE PUSH1 0x84 ADD PUSH2 0x9F1 JUMP JUMPDEST PUSH1 0x0 DUP3 DUP2 MSTORE PUSH1 0xC PUSH1 0x20 MSTORE PUSH1 0x40 DUP1 DUP3 KECCAK256 SLOAD DUP6 DUP4 MSTORE SWAP2 KECCAK256 SLOAD EQ PUSH2 0x21A9 JUMPI PUSH1 0x40 MLOAD PUSH3 0x461BCD PUSH1 0xE5 SHL DUP2 MSTORE PUSH1 0x20 PUSH1 0x4 DUP3 ADD MSTORE PUSH1 0x2E PUSH1 0x24 DUP3 ADD MSTORE PUSH32 0x455243333533353A207472616E7366657220746F20746F6B656E207769746820 PUSH1 0x44 DUP3 ADD MSTORE PUSH14 0x191A5999995C995B9D081CDB1BDD PUSH1 0x92 SHL PUSH1 0x64 DUP3 ADD MSTORE PUSH1 0x84 ADD PUSH2 0x9F1 JUMP JUMPDEST PUSH1 0x0 PUSH2 0x21B4 DUP5 PUSH2 0xF1C JUMP JUMPDEST SWAP1 POP PUSH1 0x0 PUSH2 0x21C1 DUP5 PUSH2 0xF1C JUMP JUMPDEST PUSH1 0x0 DUP7 DUP2 MSTORE PUSH1 0xA PUSH1 0x20 MSTORE PUSH1 0x40 DUP2 KECCAK256 DUP1 SLOAD SWAP3 SWAP4 POP DUP6 SWAP3 SWAP1 SWAP2 SWAP1 PUSH2 0x21E4 SWAP1 DUP5 SWAP1 PUSH2 0x38E6 JUMP JUMPDEST SWAP1 SWAP2 SSTORE POP POP PUSH1 0x0 DUP5 DUP2 MSTORE PUSH1 0xA PUSH1 0x20 MSTORE PUSH1 0x40 DUP2 KECCAK256 DUP1 SLOAD DUP6 SWAP3 SWAP1 PUSH2 0x2207 SWAP1 DUP5 SWAP1 PUSH2 0x38FD JUMP JUMPDEST SWAP1 SWAP2 SSTORE POP POP PUSH1 0x0 DUP6 SWAP1 MSTORE PUSH1 0xC PUSH1 0x20 MSTORE DUP4 DUP6 PUSH32 0xB2AAC84F3EC956911FD78EAE5311062972FF949F38412E8DA39069D9F068CC6 DUP6 PUSH1 0x40 MLOAD PUSH2 0x2249 SWAP2 DUP2 MSTORE PUSH1 0x20 ADD SWAP1 JUMP JUMPDEST PUSH1 0x40 MLOAD DUP1 SWAP2 SUB SWAP1 LOG3 POP POP POP POP POP JUMP JUMPDEST PUSH1 0xF DUP1 SLOAD PUSH1 0x1 PUSH1 0x1 PUSH1 0xA0 SHL SUB DUP4 DUP2 AND PUSH2 0x100 DUP2 DUP2 MUL PUSH2 0x100 PUSH1 0x1 PUSH1 0xA8 SHL SUB NOT DUP6 AND OR SWAP1 SWAP5 SSTORE PUSH1 0x40 MLOAD SWAP4 SWAP1 SWAP3 DIV AND SWAP2 DUP3 SWAP1 PUSH32 0x8BE0079C531659141344CD1FD0A4F28419497F9722A3DAAFE3B4186F6B6457E0 SWAP1 PUSH1 0x0 SWAP1 LOG3 POP POP JUMP JUMPDEST PUSH1 0x0 DUP4 DUP2 MSTORE PUSH1 0xB PUSH1 0x20 SWAP1 DUP2 MSTORE PUSH1 0x40 DUP1 DUP4 KECCAK256 DUP1 SLOAD PUSH1 0x1 DUP1 DUP3 ADD DUP4 SSTORE DUP3 DUP7 MSTORE DUP5 DUP7 KECCAK256 SWAP1 SWAP2 ADD DUP1 SLOAD PUSH1 0x1 PUSH1 0x1 PUSH1 0xA0 SHL SUB NOT AND PUSH1 0x1 PUSH1 0x1 PUSH1 0xA0 SHL SUB DUP10 AND SWAP1 DUP2 OR SWAP1 SWAP2 SSTORE DUP1 DUP7 MSTORE SWAP1 DUP3 ADD DUP5 MSTORE SWAP4 DUP3 SWAP1 KECCAK256 DUP6 SWAP1 SSTORE SWAP1 MLOAD DUP5 DUP2 MSTORE SWAP1 SWAP3 SWAP2 DUP7 SWAP2 PUSH32 0x621B050DE0AD08B51D19B48B3E6DF75348C4DE6BDD93E81B252CA62E28265B1B SWAP2 ADD PUSH2 0x1C2D JUMP JUMPDEST PUSH2 0x233D DUP5 DUP5 DUP5 PUSH2 0x1D88 JUMP JUMPDEST PUSH2 0x2349 DUP5 DUP5 DUP5 DUP5 PUSH2 0x275D JUMP JUMPDEST PUSH2 0xDDD JUMPI PUSH1 0x40 MLOAD PUSH3 0x461BCD PUSH1 0xE5 SHL DUP2 MSTORE PUSH1 0x4 ADD PUSH2 0x9F1 SWAP1 PUSH2 0x3915 JUMP JUMPDEST PUSH1 0x60 DUP2 MLOAD PUSH1 0x0 SUB PUSH2 0x2384 JUMPI POP POP PUSH1 0x40 DUP1 MLOAD PUSH1 0x20 DUP2 ADD SWAP1 SWAP2 MSTORE PUSH1 0x0 DUP2 MSTORE SWAP1 JUMP JUMPDEST PUSH1 0x0 PUSH1 0x40 MLOAD DUP1 PUSH1 0x60 ADD PUSH1 0x40 MSTORE DUP1 PUSH1 0x40 DUP2 MSTORE PUSH1 0x20 ADD PUSH2 0x3A3B PUSH1 0x40 SWAP2 CODECOPY SWAP1 POP PUSH1 0x0 PUSH1 0x3 DUP5 MLOAD PUSH1 0x2 PUSH2 0x23B3 SWAP2 SWAP1 PUSH2 0x38FD JUMP JUMPDEST PUSH2 0x23BD SWAP2 SWAP1 PUSH2 0x3967 JUMP JUMPDEST PUSH2 0x23C8 SWAP1 PUSH1 0x4 PUSH2 0x397B JUMP JUMPDEST PUSH8 0xFFFFFFFFFFFFFFFF DUP2 GT ISZERO PUSH2 0x23E0 JUMPI PUSH2 0x23E0 PUSH2 0x304B JUMP JUMPDEST PUSH1 0x40 MLOAD SWAP1 DUP1 DUP3 MSTORE DUP1 PUSH1 0x1F ADD PUSH1 0x1F NOT AND PUSH1 0x20 ADD DUP3 ADD PUSH1 0x40 MSTORE DUP1 ISZERO PUSH2 0x240A JUMPI PUSH1 0x20 DUP3 ADD DUP2 DUP1 CALLDATASIZE DUP4 CALLDATACOPY ADD SWAP1 POP JUMPDEST POP SWAP1 POP PUSH1 0x1 DUP3 ADD PUSH1 0x20 DUP3 ADD DUP6 DUP7 MLOAD DUP8 ADD JUMPDEST DUP1 DUP3 LT ISZERO PUSH2 0x2476 JUMPI PUSH1 0x3 DUP3 ADD SWAP2 POP DUP2 MLOAD PUSH1 0x3F DUP2 PUSH1 0x12 SHR AND DUP6 ADD MLOAD DUP5 MSTORE8 PUSH1 0x1 DUP5 ADD SWAP4 POP PUSH1 0x3F DUP2 PUSH1 0xC SHR AND DUP6 ADD MLOAD DUP5 MSTORE8 PUSH1 0x1 DUP5 ADD SWAP4 POP PUSH1 0x3F DUP2 PUSH1 0x6 SHR AND DUP6 ADD MLOAD DUP5 MSTORE8 PUSH1 0x1 DUP5 ADD SWAP4 POP PUSH1 0x3F DUP2 AND DUP6 ADD MLOAD DUP5 MSTORE8 POP PUSH1 0x1 DUP4 ADD SWAP3 POP PUSH2 0x241B JUMP JUMPDEST POP POP PUSH1 0x3 DUP7 MLOAD MOD PUSH1 0x1 DUP2 EQ PUSH2 0x2492 JUMPI PUSH1 0x2 DUP2 EQ PUSH2 0x24A5 JUMPI PUSH2 0x24AD JUMP JUMPDEST PUSH1 0x3D PUSH1 0x1 DUP4 SUB MSTORE8 PUSH1 0x3D PUSH1 0x2 DUP4 SUB MSTORE8 PUSH2 0x24AD JUMP JUMPDEST PUSH1 0x3D PUSH1 0x1 DUP4 SUB MSTORE8 JUMPDEST POP SWAP2 SWAP6 SWAP5 POP POP POP POP POP JUMP JUMPDEST PUSH1 0x60 DUP2 PUSH1 0x0 SUB PUSH2 0x24DF JUMPI POP POP PUSH1 0x40 DUP1 MLOAD DUP1 DUP3 ADD SWAP1 SWAP2 MSTORE PUSH1 0x1 DUP2 MSTORE PUSH1 0x3 PUSH1 0xFC SHL PUSH1 0x20 DUP3 ADD MSTORE SWAP1 JUMP JUMPDEST DUP2 PUSH1 0x0 JUMPDEST DUP2 ISZERO PUSH2 0x2509 JUMPI DUP1 PUSH2 0x24F3 DUP2 PUSH2 0x399A JUMP JUMPDEST SWAP2 POP PUSH2 0x2502 SWAP1 POP PUSH1 0xA DUP4 PUSH2 0x3967 JUMP JUMPDEST SWAP2 POP PUSH2 0x24E3 JUMP JUMPDEST PUSH1 0x0 DUP2 PUSH8 0xFFFFFFFFFFFFFFFF DUP2 GT ISZERO PUSH2 0x2524 JUMPI PUSH2 0x2524 PUSH2 0x304B JUMP JUMPDEST PUSH1 0x40 MLOAD SWAP1 DUP1 DUP3 MSTORE DUP1 PUSH1 0x1F ADD PUSH1 0x1F NOT AND PUSH1 0x20 ADD DUP3 ADD PUSH1 0x40 MSTORE DUP1 ISZERO PUSH2 0x254E JUMPI PUSH1 0x20 DUP3 ADD DUP2 DUP1 CALLDATASIZE DUP4 CALLDATACOPY ADD SWAP1 POP JUMPDEST POP SWAP1 POP JUMPDEST DUP5 ISZERO PUSH2 0x1D80 JUMPI PUSH2 0x2563 PUSH1 0x1 DUP4 PUSH2 0x38E6 JUMP JUMPDEST SWAP2 POP PUSH2 0x2570 PUSH1 0xA DUP7 PUSH2 0x3750 JUMP JUMPDEST PUSH2 0x257B SWAP1 PUSH1 0x30 PUSH2 0x38FD JUMP JUMPDEST PUSH1 0xF8 SHL DUP2 DUP4 DUP2 MLOAD DUP2 LT PUSH2 0x2590 JUMPI PUSH2 0x2590 PUSH2 0x33BD JUMP JUMPDEST PUSH1 0x20 ADD ADD SWAP1 PUSH1 0x1 PUSH1 0x1 PUSH1 0xF8 SHL SUB NOT AND SWAP1 DUP2 PUSH1 0x0 BYTE SWAP1 MSTORE8 POP PUSH2 0x25B2 PUSH1 0xA DUP7 PUSH2 0x3967 JUMP JUMPDEST SWAP5 POP PUSH2 0x2552 JUMP JUMPDEST PUSH1 0x60 PUSH1 0x10 DUP1 SLOAD PUSH2 0x8D3 SWAP1 PUSH2 0x3335 JUMP JUMPDEST PUSH1 0x60 DUP2 PUSH1 0x0 SUB PUSH2 0x25F2 JUMPI POP POP PUSH1 0x40 DUP1 MLOAD DUP1 DUP3 ADD SWAP1 SWAP2 MSTORE PUSH1 0x4 DUP2 MSTORE PUSH4 0x3078303 PUSH1 0xE4 SHL PUSH1 0x20 DUP3 ADD MSTORE SWAP1 JUMP JUMPDEST DUP2 PUSH1 0x0 JUMPDEST DUP2 ISZERO PUSH2 0x2615 JUMPI DUP1 PUSH2 0x2606 DUP2 PUSH2 0x399A JUMP JUMPDEST SWAP2 POP POP PUSH1 0x8 DUP3 SWAP1 SHR SWAP2 POP PUSH2 0x25F6 JUMP JUMPDEST PUSH2 0x1D80 DUP5 DUP3 PUSH2 0x285E JUMP JUMPDEST PUSH1 0x0 PUSH1 0x1 PUSH1 0x1 PUSH1 0xE0 SHL SUB NOT DUP3 AND PUSH4 0x80AC58CD PUSH1 0xE0 SHL EQ DUP1 PUSH2 0x2650 JUMPI POP PUSH1 0x1 PUSH1 0x1 PUSH1 0xE0 SHL SUB NOT DUP3 AND PUSH4 0x5B5E139F PUSH1 0xE0 SHL EQ JUMPDEST DUP1 PUSH2 0x830 JUMPI POP PUSH4 0x1FFC9A7 PUSH1 0xE0 SHL PUSH1 0x1 PUSH1 0x1 PUSH1 0xE0 SHL SUB NOT DUP4 AND EQ PUSH2 0x830 JUMP JUMPDEST PUSH2 0x2679 DUP4 DUP4 PUSH2 0x2A01 JUMP JUMPDEST PUSH1 0x0 DUP3 DUP2 MSTORE PUSH1 0xC PUSH1 0x20 MSTORE PUSH1 0x40 DUP1 DUP3 KECCAK256 DUP4 SWAP1 SSTORE MLOAD DUP3 SWAP2 SWAP1 DUP5 SWAP1 PUSH32 0xE4F48C240D3B994948AA54F3E2F5FCA59263DFE1D52B6E4CF39A5D249B5CCB65 SWAP1 DUP4 SWAP1 LOG4 POP POP POP JUMP JUMPDEST PUSH1 0x0 DUP2 DUP2 MSTORE PUSH1 0xB PUSH1 0x20 MSTORE PUSH1 0x40 DUP2 KECCAK256 SLOAD SWAP1 JUMPDEST DUP2 DUP2 LT ISZERO PUSH2 0x273A JUMPI PUSH1 0x0 DUP4 DUP2 MSTORE PUSH1 0xB PUSH1 0x20 MSTORE PUSH1 0x40 DUP2 KECCAK256 DUP1 SLOAD DUP4 SWAP1 DUP2 LT PUSH2 0x26F4 JUMPI PUSH2 0x26F4 PUSH2 0x33BD JUMP JUMPDEST PUSH1 0x0 SWAP2 DUP3 MSTORE PUSH1 0x20 DUP1 DUP4 KECCAK256 SWAP1 SWAP2 ADD SLOAD DUP7 DUP4 MSTORE PUSH1 0xB DUP3 MSTORE PUSH1 0x40 DUP1 DUP5 KECCAK256 PUSH1 0x1 PUSH1 0x1 PUSH1 0xA0 SHL SUB SWAP1 SWAP3 AND DUP5 MSTORE PUSH1 0x1 SWAP2 SWAP1 SWAP2 ADD SWAP1 SWAP2 MSTORE DUP2 KECCAK256 SSTORE POP DUP1 PUSH2 0x2732 DUP2 PUSH2 0x399A JUMP JUMPDEST SWAP2 POP POP PUSH2 0x26CC JUMP JUMPDEST POP PUSH1 0x0 DUP3 DUP2 MSTORE PUSH1 0xB PUSH1 0x20 MSTORE PUSH1 0x40 DUP2 KECCAK256 PUSH2 0x2752 SWAP2 PUSH2 0x2E0C JUMP JUMPDEST PUSH2 0xDDD DUP5 DUP5 DUP5 PUSH2 0x2B40 JUMP JUMPDEST PUSH1 0x0 PUSH1 0x1 PUSH1 0x1 PUSH1 0xA0 SHL SUB DUP5 AND EXTCODESIZE ISZERO PUSH2 0x2853 JUMPI PUSH1 0x40 MLOAD PUSH4 0xA85BD01 PUSH1 0xE1 SHL DUP2 MSTORE PUSH1 0x1 PUSH1 0x1 PUSH1 0xA0 SHL SUB DUP6 AND SWAP1 PUSH4 0x150B7A02 SWAP1 PUSH2 0x27A1 SWAP1 CALLER SWAP1 DUP10 SWAP1 DUP9 SWAP1 DUP9 SWAP1 PUSH1 0x4 ADD PUSH2 0x39B3 JUMP JUMPDEST PUSH1 0x20 PUSH1 0x40 MLOAD DUP1 DUP4 SUB DUP2 PUSH1 0x0 DUP8 GAS CALL SWAP3 POP POP POP DUP1 ISZERO PUSH2 0x27DC JUMPI POP PUSH1 0x40 DUP1 MLOAD PUSH1 0x1F RETURNDATASIZE SWAP1 DUP2 ADD PUSH1 0x1F NOT AND DUP3 ADD SWAP1 SWAP3 MSTORE PUSH2 0x27D9 SWAP2 DUP2 ADD SWAP1 PUSH2 0x39F0 JUMP JUMPDEST PUSH1 0x1 JUMPDEST PUSH2 0x2839 JUMPI RETURNDATASIZE DUP1 DUP1 ISZERO PUSH2 0x280A JUMPI PUSH1 0x40 MLOAD SWAP2 POP PUSH1 0x1F NOT PUSH1 0x3F RETURNDATASIZE ADD AND DUP3 ADD PUSH1 0x40 MSTORE RETURNDATASIZE DUP3 MSTORE RETURNDATASIZE PUSH1 0x0 PUSH1 0x20 DUP5 ADD RETURNDATACOPY PUSH2 0x280F JUMP JUMPDEST PUSH1 0x60 SWAP2 POP JUMPDEST POP DUP1 MLOAD PUSH1 0x0 SUB PUSH2 0x2831 JUMPI PUSH1 0x40 MLOAD PUSH3 0x461BCD PUSH1 0xE5 SHL DUP2 MSTORE PUSH1 0x4 ADD PUSH2 0x9F1 SWAP1 PUSH2 0x3915 JUMP JUMPDEST DUP1 MLOAD DUP2 PUSH1 0x20 ADD REVERT JUMPDEST PUSH1 0x1 PUSH1 0x1 PUSH1 0xE0 SHL SUB NOT AND PUSH4 0xA85BD01 PUSH1 0xE1 SHL EQ SWAP1 POP PUSH2 0x1D80 JUMP JUMPDEST POP PUSH1 0x1 SWAP5 SWAP4 POP POP POP POP JUMP JUMPDEST PUSH1 0x60 PUSH1 0x0 PUSH2 0x286D DUP4 PUSH1 0x2 PUSH2 0x397B JUMP JUMPDEST PUSH2 0x2878 SWAP1 PUSH1 0x2 PUSH2 0x38FD JUMP JUMPDEST PUSH8 0xFFFFFFFFFFFFFFFF DUP2 GT ISZERO PUSH2 0x2890 JUMPI PUSH2 0x2890 PUSH2 0x304B JUMP JUMPDEST PUSH1 0x40 MLOAD SWAP1 DUP1 DUP3 MSTORE DUP1 PUSH1 0x1F ADD PUSH1 0x1F NOT AND PUSH1 0x20 ADD DUP3 ADD PUSH1 0x40 MSTORE DUP1 ISZERO PUSH2 0x28BA JUMPI PUSH1 0x20 DUP3 ADD DUP2 DUP1 CALLDATASIZE DUP4 CALLDATACOPY ADD SWAP1 POP JUMPDEST POP SWAP1 POP PUSH1 0x3 PUSH1 0xFC SHL DUP2 PUSH1 0x0 DUP2 MLOAD DUP2 LT PUSH2 0x28D5 JUMPI PUSH2 0x28D5 PUSH2 0x33BD JUMP JUMPDEST PUSH1 0x20 ADD ADD SWAP1 PUSH1 0x1 PUSH1 0x1 PUSH1 0xF8 SHL SUB NOT AND SWAP1 DUP2 PUSH1 0x0 BYTE SWAP1 MSTORE8 POP PUSH1 0xF PUSH1 0xFB SHL DUP2 PUSH1 0x1 DUP2 MLOAD DUP2 LT PUSH2 0x2904 JUMPI PUSH2 0x2904 PUSH2 0x33BD JUMP JUMPDEST PUSH1 0x20 ADD ADD SWAP1 PUSH1 0x1 PUSH1 0x1 PUSH1 0xF8 SHL SUB NOT AND SWAP1 DUP2 PUSH1 0x0 BYTE SWAP1 MSTORE8 POP PUSH1 0x0 PUSH2 0x2928 DUP5 PUSH1 0x2 PUSH2 0x397B JUMP JUMPDEST PUSH2 0x2933 SWAP1 PUSH1 0x1 PUSH2 0x38FD JUMP JUMPDEST SWAP1 POP JUMPDEST PUSH1 0x1 DUP2 GT ISZERO PUSH2 0x29AB JUMPI PUSH16 0x181899199A1A9B1B9C1CB0B131B232B3 PUSH1 0x81 SHL DUP6 PUSH1 0xF AND PUSH1 0x10 DUP2 LT PUSH2 0x2967 JUMPI PUSH2 0x2967 PUSH2 0x33BD JUMP JUMPDEST BYTE PUSH1 0xF8 SHL DUP3 DUP3 DUP2 MLOAD DUP2 LT PUSH2 0x297D JUMPI PUSH2 0x297D PUSH2 0x33BD JUMP JUMPDEST PUSH1 0x20 ADD ADD SWAP1 PUSH1 0x1 PUSH1 0x1 PUSH1 0xF8 SHL SUB NOT AND SWAP1 DUP2 PUSH1 0x0 BYTE SWAP1 MSTORE8 POP PUSH1 0x4 SWAP5 SWAP1 SWAP5 SHR SWAP4 PUSH2 0x29A4 DUP2 PUSH2 0x3A0D JUMP JUMPDEST SWAP1 POP PUSH2 0x2936 JUMP JUMPDEST POP DUP4 ISZERO PUSH2 0x29FA JUMPI PUSH1 0x40 MLOAD PUSH3 0x461BCD PUSH1 0xE5 SHL DUP2 MSTORE PUSH1 0x20 PUSH1 0x4 DUP3 ADD DUP2 SWAP1 MSTORE PUSH1 0x24 DUP3 ADD MSTORE PUSH32 0x537472696E67733A20686578206C656E67746820696E73756666696369656E74 PUSH1 0x44 DUP3 ADD MSTORE PUSH1 0x64 ADD PUSH2 0x9F1 JUMP JUMPDEST SWAP4 SWAP3 POP POP POP JUMP JUMPDEST PUSH1 0x1 PUSH1 0x1 PUSH1 0xA0 SHL SUB DUP3 AND PUSH2 0x2A57 JUMPI PUSH1 0x40 MLOAD PUSH3 0x461BCD PUSH1 0xE5 SHL DUP2 MSTORE PUSH1 0x20 PUSH1 0x4 DUP3 ADD DUP2 SWAP1 MSTORE PUSH1 0x24 DUP3 ADD MSTORE PUSH32 0x4552433732313A206D696E7420746F20746865207A65726F2061646472657373 PUSH1 0x44 DUP3 ADD MSTORE PUSH1 0x64 ADD PUSH2 0x9F1 JUMP JUMPDEST PUSH2 0x2A60 DUP2 PUSH2 0x1F2F JUMP JUMPDEST ISZERO PUSH2 0x2AAD JUMPI PUSH1 0x40 MLOAD PUSH3 0x461BCD PUSH1 0xE5 SHL DUP2 MSTORE PUSH1 0x20 PUSH1 0x4 DUP3 ADD MSTORE PUSH1 0x1C PUSH1 0x24 DUP3 ADD MSTORE PUSH32 0x4552433732313A20746F6B656E20616C7265616479206D696E74656400000000 PUSH1 0x44 DUP3 ADD MSTORE PUSH1 0x64 ADD PUSH2 0x9F1 JUMP JUMPDEST PUSH2 0x2AB9 PUSH1 0x0 DUP4 DUP4 PUSH2 0x26BB JUMP JUMPDEST PUSH1 0x1 PUSH1 0x1 PUSH1 0xA0 SHL SUB DUP3 AND PUSH1 0x0 SWAP1 DUP2 MSTORE PUSH1 0x3 PUSH1 0x20 MSTORE PUSH1 0x40 DUP2 KECCAK256 DUP1 SLOAD PUSH1 0x1 SWAP3 SWAP1 PUSH2 0x2AE2 SWAP1 DUP5 SWAP1 PUSH2 0x38FD JUMP JUMPDEST SWAP1 SWAP2 SSTORE POP POP PUSH1 0x0 DUP2 DUP2 MSTORE PUSH1 0x2 PUSH1 0x20 MSTORE PUSH1 0x40 DUP1 DUP3 KECCAK256 DUP1 SLOAD PUSH1 0x1 PUSH1 0x1 PUSH1 0xA0 SHL SUB NOT AND PUSH1 0x1 PUSH1 0x1 PUSH1 0xA0 SHL SUB DUP7 AND SWAP1 DUP2 OR SWAP1 SWAP2 SSTORE SWAP1 MLOAD DUP4 SWAP3 SWAP1 PUSH32 0xDDF252AD1BE2C89B69C2B068FC378DAA952BA7F163C4A11628F55A4DF523B3EF SWAP1 DUP3 SWAP1 LOG4 POP POP JUMP JUMPDEST PUSH1 0x1 PUSH1 0x1 PUSH1 0xA0 SHL SUB DUP4 AND PUSH2 0x2B9B JUMPI PUSH2 0x2B96 DUP2 PUSH1 0x8 DUP1 SLOAD PUSH1 0x0 DUP4 DUP2 MSTORE PUSH1 0x9 PUSH1 0x20 MSTORE PUSH1 0x40 DUP2 KECCAK256 DUP3 SWAP1 SSTORE PUSH1 0x1 DUP3 ADD DUP4 SSTORE SWAP2 SWAP1 SWAP2 MSTORE PUSH32 0xF3F7A9FE364FAAB93B216DA50A3214154F22A0A2B415B23A84C8169E8B636EE3 ADD SSTORE JUMP JUMPDEST PUSH2 0x2BBE JUMP JUMPDEST DUP2 PUSH1 0x1 PUSH1 0x1 PUSH1 0xA0 SHL SUB AND DUP4 PUSH1 0x1 PUSH1 0x1 PUSH1 0xA0 SHL SUB AND EQ PUSH2 0x2BBE JUMPI PUSH2 0x2BBE DUP4 DUP3 PUSH2 0x2BF8 JUMP JUMPDEST PUSH1 0x1 PUSH1 0x1 PUSH1 0xA0 SHL SUB DUP3 AND PUSH2 0x2BD5 JUMPI PUSH2 0xA92 DUP2 PUSH2 0x2C95 JUMP JUMPDEST DUP3 PUSH1 0x1 PUSH1 0x1 PUSH1 0xA0 SHL SUB AND DUP3 PUSH1 0x1 PUSH1 0x1 PUSH1 0xA0 SHL SUB AND EQ PUSH2 0xA92 JUMPI PUSH2 0xA92 DUP3 DUP3 PUSH2 0x2D44 JUMP JUMPDEST PUSH1 0x0 PUSH1 0x1 PUSH2 0x2C05 DUP5 PUSH2 0xF89 JUMP JUMPDEST PUSH2 0x2C0F SWAP2 SWAP1 PUSH2 0x38E6 JUMP JUMPDEST PUSH1 0x0 DUP4 DUP2 MSTORE PUSH1 0x7 PUSH1 0x20 MSTORE PUSH1 0x40 SWAP1 KECCAK256 SLOAD SWAP1 SWAP2 POP DUP1 DUP3 EQ PUSH2 0x2C62 JUMPI PUSH1 0x1 PUSH1 0x1 PUSH1 0xA0 SHL SUB DUP5 AND PUSH1 0x0 SWAP1 DUP2 MSTORE PUSH1 0x6 PUSH1 0x20 SWAP1 DUP2 MSTORE PUSH1 0x40 DUP1 DUP4 KECCAK256 DUP6 DUP5 MSTORE DUP3 MSTORE DUP1 DUP4 KECCAK256 SLOAD DUP5 DUP5 MSTORE DUP2 DUP5 KECCAK256 DUP2 SWAP1 SSTORE DUP4 MSTORE PUSH1 0x7 SWAP1 SWAP2 MSTORE SWAP1 KECCAK256 DUP2 SWAP1 SSTORE JUMPDEST POP PUSH1 0x0 SWAP2 DUP3 MSTORE PUSH1 0x7 PUSH1 0x20 SWAP1 DUP2 MSTORE PUSH1 0x40 DUP1 DUP5 KECCAK256 DUP5 SWAP1 SSTORE PUSH1 0x1 PUSH1 0x1 PUSH1 0xA0 SHL SUB SWAP1 SWAP5 AND DUP4 MSTORE PUSH1 0x6 DUP2 MSTORE DUP4 DUP4 KECCAK256 SWAP2 DUP4 MSTORE MSTORE SWAP1 DUP2 KECCAK256 SSTORE JUMP JUMPDEST PUSH1 0x8 SLOAD PUSH1 0x0 SWAP1 PUSH2 0x2CA7 SWAP1 PUSH1 0x1 SWAP1 PUSH2 0x38E6 JUMP JUMPDEST PUSH1 0x0 DUP4 DUP2 MSTORE PUSH1 0x9 PUSH1 0x20 MSTORE PUSH1 0x40 DUP2 KECCAK256 SLOAD PUSH1 0x8 DUP1 SLOAD SWAP4 SWAP5 POP SWAP1 SWAP3 DUP5 SWAP1 DUP2 LT PUSH2 0x2CCF JUMPI PUSH2 0x2CCF PUSH2 0x33BD JUMP JUMPDEST SWAP1 PUSH1 0x0 MSTORE PUSH1 0x20 PUSH1 0x0 KECCAK256 ADD SLOAD SWAP1 POP DUP1 PUSH1 0x8 DUP4 DUP2 SLOAD DUP2 LT PUSH2 0x2CF0 JUMPI PUSH2 0x2CF0 PUSH2 0x33BD JUMP JUMPDEST PUSH1 0x0 SWAP2 DUP3 MSTORE PUSH1 0x20 DUP1 DUP4 KECCAK256 SWAP1 SWAP2 ADD SWAP3 SWAP1 SWAP3 SSTORE DUP3 DUP2 MSTORE PUSH1 0x9 SWAP1 SWAP2 MSTORE PUSH1 0x40 DUP1 DUP3 KECCAK256 DUP5 SWAP1 SSTORE DUP6 DUP3 MSTORE DUP2 KECCAK256 SSTORE PUSH1 0x8 DUP1 SLOAD DUP1 PUSH2 0x2D28 JUMPI PUSH2 0x2D28 PUSH2 0x3A24 JUMP JUMPDEST PUSH1 0x1 SWAP1 SUB DUP2 DUP2 SWAP1 PUSH1 0x0 MSTORE PUSH1 0x20 PUSH1 0x0 KECCAK256 ADD PUSH1 0x0 SWAP1 SSTORE SWAP1 SSTORE POP POP POP POP JUMP JUMPDEST PUSH1 0x0 PUSH2 0x2D4F DUP4 PUSH2 0xF89 JUMP JUMPDEST PUSH1 0x1 PUSH1 0x1 PUSH1 0xA0 SHL SUB SWAP1 SWAP4 AND PUSH1 0x0 SWAP1 DUP2 MSTORE PUSH1 0x6 PUSH1 0x20 SWAP1 DUP2 MSTORE PUSH1 0x40 DUP1 DUP4 KECCAK256 DUP7 DUP5 MSTORE DUP3 MSTORE DUP1 DUP4 KECCAK256 DUP6 SWAP1 SSTORE SWAP4 DUP3 MSTORE PUSH1 0x7 SWAP1 MSTORE SWAP2 SWAP1 SWAP2 KECCAK256 SWAP2 SWAP1 SWAP2 SSTORE POP JUMP JUMPDEST DUP3 DUP1 SLOAD PUSH2 0x2D94 SWAP1 PUSH2 0x3335 JUMP JUMPDEST SWAP1 PUSH1 0x0 MSTORE PUSH1 0x20 PUSH1 0x0 KECCAK256 SWAP1 PUSH1 0x1F ADD PUSH1 0x20 SWAP1 DIV DUP2 ADD SWAP3 DUP3 PUSH2 0x2DB6 JUMPI PUSH1 0x0 DUP6 SSTORE PUSH2 0x2DFC JUMP JUMPDEST DUP3 PUSH1 0x1F LT PUSH2 0x2DCF JUMPI DUP1 MLOAD PUSH1 0xFF NOT AND DUP4 DUP1 ADD OR DUP6 SSTORE PUSH2 0x2DFC JUMP JUMPDEST DUP3 DUP1 ADD PUSH1 0x1 ADD DUP6 SSTORE DUP3 ISZERO PUSH2 0x2DFC JUMPI SWAP2 DUP3 ADD JUMPDEST DUP3 DUP2 GT ISZERO PUSH2 0x2DFC JUMPI DUP3 MLOAD DUP3 SSTORE SWAP2 PUSH1 0x20 ADD SWAP2 SWAP1 PUSH1 0x1 ADD SWAP1 PUSH2 0x2DE1 JUMP JUMPDEST POP PUSH2 0x2E08 SWAP3 SWAP2 POP PUSH2 0x2E26 JUMP JUMPDEST POP SWAP1 JUMP JUMPDEST POP DUP1 SLOAD PUSH1 0x0 DUP3 SSTORE SWAP1 PUSH1 0x0 MSTORE PUSH1 0x20 PUSH1 0x0 KECCAK256 SWAP1 DUP2 ADD SWAP1 PUSH2 0x1987 SWAP2 SWAP1 JUMPDEST JUMPDEST DUP1 DUP3 GT ISZERO PUSH2 0x2E08 JUMPI PUSH1 0x0 DUP2 SSTORE PUSH1 0x1 ADD PUSH2 0x2E27 JUMP JUMPDEST PUSH1 0x1 PUSH1 0x1 PUSH1 0xE0 SHL SUB NOT DUP2 AND DUP2 EQ PUSH2 0x1987 JUMPI PUSH1 0x0 DUP1 REVERT JUMPDEST PUSH1 0x0 PUSH1 0x20 DUP3 DUP5 SUB SLT ISZERO PUSH2 0x2E63 JUMPI PUSH1 0x0 DUP1 REVERT JUMPDEST DUP2 CALLDATALOAD PUSH2 0x29FA DUP2 PUSH2 0x2E3B JUMP JUMPDEST PUSH1 0x0 JUMPDEST DUP4 DUP2 LT ISZERO PUSH2 0x2E89 JUMPI DUP2 DUP2 ADD MLOAD DUP4 DUP3 ADD MSTORE PUSH1 0x20 ADD PUSH2 0x2E71 JUMP JUMPDEST DUP4 DUP2 GT ISZERO PUSH2 0xDDD JUMPI POP POP PUSH1 0x0 SWAP2 ADD MSTORE JUMP JUMPDEST PUSH1 0x0 DUP2 MLOAD DUP1 DUP5 MSTORE PUSH2 0x2EB2 DUP2 PUSH1 0x20 DUP7 ADD PUSH1 0x20 DUP7 ADD PUSH2 0x2E6E JUMP JUMPDEST PUSH1 0x1F ADD PUSH1 0x1F NOT AND SWAP3 SWAP1 SWAP3 ADD PUSH1 0x20 ADD SWAP3 SWAP2 POP POP JUMP JUMPDEST PUSH1 0x20 DUP2 MSTORE PUSH1 0x0 PUSH2 0x29FA PUSH1 0x20 DUP4 ADD DUP5 PUSH2 0x2E9A JUMP JUMPDEST PUSH1 0x0 PUSH1 0x20 DUP3 DUP5 SUB SLT ISZERO PUSH2 0x2EEB JUMPI PUSH1 0x0 DUP1 REVERT JUMPDEST POP CALLDATALOAD SWAP2 SWAP1 POP JUMP JUMPDEST DUP1 CALLDATALOAD PUSH1 0x1 PUSH1 0x1 PUSH1 0xA0 SHL SUB DUP2 AND DUP2 EQ PUSH2 0x2F09 JUMPI PUSH1 0x0 DUP1 REVERT JUMPDEST SWAP2 SWAP1 POP JUMP JUMPDEST PUSH1 0x0 DUP1 PUSH1 0x40 DUP4 DUP6 SUB SLT ISZERO PUSH2 0x2F21 JUMPI PUSH1 0x0 DUP1 REVERT JUMPDEST PUSH2 0x2F2A DUP4 PUSH2 0x2EF2 JUMP JUMPDEST SWAP5 PUSH1 0x20 SWAP4 SWAP1 SWAP4 ADD CALLDATALOAD SWAP4 POP POP POP JUMP JUMPDEST PUSH1 0x0 DUP1 PUSH1 0x0 PUSH1 0x60 DUP5 DUP7 SUB SLT ISZERO PUSH2 0x2F4D JUMPI PUSH1 0x0 DUP1 REVERT JUMPDEST PUSH2 0x2F56 DUP5 PUSH2 0x2EF2 JUMP JUMPDEST SWAP6 PUSH1 0x20 DUP6 ADD CALLDATALOAD SWAP6 POP PUSH1 0x40 SWAP1 SWAP5 ADD CALLDATALOAD SWAP4 SWAP3 POP POP POP JUMP JUMPDEST PUSH1 0x0 DUP1 PUSH1 0x0 PUSH1 0x60 DUP5 DUP7 SUB SLT ISZERO PUSH2 0x2F80 JUMPI PUSH1 0x0 DUP1 REVERT JUMPDEST PUSH2 0x2F89 DUP5 PUSH2 0x2EF2 JUMP JUMPDEST SWAP3 POP PUSH2 0x2F97 PUSH1 0x20 DUP6 ADD PUSH2 0x2EF2 JUMP JUMPDEST SWAP2 POP PUSH1 0x40 DUP5 ADD CALLDATALOAD SWAP1 POP SWAP3 POP SWAP3 POP SWAP3 JUMP JUMPDEST PUSH1 0x0 DUP1 PUSH1 0x0 PUSH1 0x60 DUP5 DUP7 SUB SLT ISZERO PUSH2 0x2FBC JUMPI PUSH1 0x0 DUP1 REVERT JUMPDEST POP POP DUP2 CALLDATALOAD SWAP4 PUSH1 0x20 DUP4 ADD CALLDATALOAD SWAP4 POP PUSH1 0x40 SWAP1 SWAP3 ADD CALLDATALOAD SWAP2 SWAP1 POP JUMP JUMPDEST PUSH1 0x0 DUP1 PUSH1 0x40 DUP4 DUP6 SUB SLT ISZERO PUSH2 0x2FE6 JUMPI PUSH1 0x0 DUP1 REVERT JUMPDEST POP POP DUP1 CALLDATALOAD SWAP3 PUSH1 0x20 SWAP1 SWAP2 ADD CALLDATALOAD SWAP2 POP JUMP JUMPDEST PUSH1 0x0 PUSH1 0x20 DUP3 DUP5 SUB SLT ISZERO PUSH2 0x3007 JUMPI PUSH1 0x0 DUP1 REVERT JUMPDEST PUSH2 0x29FA DUP3 PUSH2 0x2EF2 JUMP JUMPDEST PUSH1 0x0 DUP1 PUSH1 0x0 DUP1 PUSH1 0x80 DUP6 DUP8 SUB SLT ISZERO PUSH2 0x3026 JUMPI PUSH1 0x0 DUP1 REVERT JUMPDEST DUP5 CALLDATALOAD SWAP4 POP PUSH2 0x3036 PUSH1 0x20 DUP7 ADD PUSH2 0x2EF2 JUMP JUMPDEST SWAP4 SWAP7 SWAP4 SWAP6 POP POP POP POP PUSH1 0x40 DUP3 ADD CALLDATALOAD SWAP2 PUSH1 0x60 ADD CALLDATALOAD SWAP1 JUMP JUMPDEST PUSH4 0x4E487B71 PUSH1 0xE0 SHL PUSH1 0x0 MSTORE PUSH1 0x41 PUSH1 0x4 MSTORE PUSH1 0x24 PUSH1 0x0 REVERT JUMPDEST PUSH1 0x40 MLOAD PUSH1 0x1F DUP3 ADD PUSH1 0x1F NOT AND DUP2 ADD PUSH8 0xFFFFFFFFFFFFFFFF DUP2 GT DUP3 DUP3 LT OR ISZERO PUSH2 0x308A JUMPI PUSH2 0x308A PUSH2 0x304B JUMP JUMPDEST PUSH1 0x40 MSTORE SWAP2 SWAP1 POP JUMP JUMPDEST PUSH1 0x0 PUSH8 0xFFFFFFFFFFFFFFFF DUP3 GT ISZERO PUSH2 0x30AC JUMPI PUSH2 0x30AC PUSH2 0x304B JUMP JUMPDEST POP PUSH1 0x1F ADD PUSH1 0x1F NOT AND PUSH1 0x20 ADD SWAP1 JUMP JUMPDEST PUSH1 0x0 PUSH2 0x30CD PUSH2 0x30C8 DUP5 PUSH2 0x3092 JUMP JUMPDEST PUSH2 0x3061 JUMP JUMPDEST SWAP1 POP DUP3 DUP2 MSTORE DUP4 DUP4 DUP4 ADD GT ISZERO PUSH2 0x30E1 JUMPI PUSH1 0x0 DUP1 REVERT JUMPDEST DUP3 DUP3 PUSH1 0x20 DUP4 ADD CALLDATACOPY PUSH1 0x0 PUSH1 0x20 DUP5 DUP4 ADD ADD MSTORE SWAP4 SWAP3 POP POP POP JUMP JUMPDEST PUSH1 0x0 DUP3 PUSH1 0x1F DUP4 ADD SLT PUSH2 0x3109 JUMPI PUSH1 0x0 DUP1 REVERT JUMPDEST PUSH2 0x29FA DUP4 DUP4 CALLDATALOAD PUSH1 0x20 DUP6 ADD PUSH2 0x30BA JUMP JUMPDEST PUSH1 0x0 PUSH1 0x20 DUP3 DUP5 SUB SLT ISZERO PUSH2 0x312A JUMPI PUSH1 0x0 DUP1 REVERT JUMPDEST DUP2 CALLDATALOAD PUSH8 0xFFFFFFFFFFFFFFFF DUP2 GT ISZERO PUSH2 0x3141 JUMPI PUSH1 0x0 DUP1 REVERT JUMPDEST PUSH2 0x1D80 DUP5 DUP3 DUP6 ADD PUSH2 0x30F8 JUMP JUMPDEST PUSH1 0x0 DUP1 PUSH1 0x0 PUSH1 0x60 DUP5 DUP7 SUB SLT ISZERO PUSH2 0x3162 JUMPI PUSH1 0x0 DUP1 REVERT JUMPDEST DUP4 CALLDATALOAD SWAP3 POP PUSH2 0x2F97 PUSH1 0x20 DUP6 ADD PUSH2 0x2EF2 JUMP JUMPDEST PUSH1 0x0 DUP1 PUSH1 0x40 DUP4 DUP6 SUB SLT ISZERO PUSH2 0x3185 JUMPI PUSH1 0x0 DUP1 REVERT JUMPDEST PUSH2 0x318E DUP4 PUSH2 0x2EF2 JUMP JUMPDEST SWAP2 POP PUSH1 0x20 DUP4 ADD CALLDATALOAD DUP1 ISZERO ISZERO DUP2 EQ PUSH2 0x31A3 JUMPI PUSH1 0x0 DUP1 REVERT JUMPDEST DUP1 SWAP2 POP POP SWAP3 POP SWAP3 SWAP1 POP JUMP JUMPDEST PUSH1 0x0 DUP1 PUSH1 0x0 DUP1 PUSH1 0x80 DUP6 DUP8 SUB SLT ISZERO PUSH2 0x31C4 JUMPI PUSH1 0x0 DUP1 REVERT JUMPDEST PUSH2 0x31CD DUP6 PUSH2 0x2EF2 JUMP JUMPDEST SWAP4 POP PUSH2 0x31DB PUSH1 0x20 DUP7 ADD PUSH2 0x2EF2 JUMP JUMPDEST SWAP3 POP PUSH1 0x40 DUP6 ADD CALLDATALOAD SWAP2 POP PUSH1 0x60 DUP6 ADD CALLDATALOAD PUSH8 0xFFFFFFFFFFFFFFFF DUP2 GT ISZERO PUSH2 0x31FE JUMPI PUSH1 0x0 DUP1 REVERT JUMPDEST DUP6 ADD PUSH1 0x1F DUP2 ADD DUP8 SGT PUSH2 0x320F JUMPI PUSH1 0x0 DUP1 REVERT JUMPDEST PUSH2 0x321E DUP8 DUP3 CALLDATALOAD PUSH1 0x20 DUP5 ADD PUSH2 0x30BA JUMP JUMPDEST SWAP2 POP POP SWAP3 SWAP6 SWAP2 SWAP5 POP SWAP3 POP JUMP JUMPDEST PUSH1 0x0 DUP1 PUSH1 0x0 DUP1 PUSH1 0x0 PUSH1 0xA0 DUP7 DUP9 SUB SLT ISZERO PUSH2 0x3242 JUMPI PUSH1 0x0 DUP1 REVERT JUMPDEST DUP6 CALLDATALOAD PUSH8 0xFFFFFFFFFFFFFFFF DUP1 DUP3 GT ISZERO PUSH2 0x325A JUMPI PUSH1 0x0 DUP1 REVERT JUMPDEST PUSH2 0x3266 DUP10 DUP4 DUP11 ADD PUSH2 0x30F8 JUMP JUMPDEST SWAP7 POP PUSH1 0x20 DUP9 ADD CALLDATALOAD SWAP2 POP DUP1 DUP3 GT ISZERO PUSH2 0x327C JUMPI PUSH1 0x0 DUP1 REVERT JUMPDEST PUSH2 0x3288 DUP10 DUP4 DUP11 ADD PUSH2 0x30F8 JUMP JUMPDEST SWAP6 POP PUSH1 0x40 DUP9 ADD CALLDATALOAD SWAP2 POP DUP1 DUP3 GT ISZERO PUSH2 0x329E JUMPI PUSH1 0x0 DUP1 REVERT JUMPDEST PUSH2 0x32AA DUP10 DUP4 DUP11 ADD PUSH2 0x30F8 JUMP JUMPDEST SWAP5 POP PUSH1 0x60 DUP9 ADD CALLDATALOAD SWAP2 POP DUP1 DUP3 GT ISZERO PUSH2 0x32C0 JUMPI PUSH1 0x0 DUP1 REVERT JUMPDEST POP PUSH2 0x32CD DUP9 DUP3 DUP10 ADD PUSH2 0x30F8 JUMP JUMPDEST SWAP6 SWAP9 SWAP5 SWAP8 POP SWAP3 SWAP6 PUSH1 0x80 ADD CALLDATALOAD SWAP4 SWAP3 POP POP POP JUMP JUMPDEST PUSH1 0x0 DUP1 PUSH1 0x40 DUP4 DUP6 SUB SLT ISZERO PUSH2 0x32F2 JUMPI PUSH1 0x0 DUP1 REVERT JUMPDEST DUP3 CALLDATALOAD SWAP2 POP PUSH2 0x3302 PUSH1 0x20 DUP5 ADD PUSH2 0x2EF2 JUMP JUMPDEST SWAP1 POP SWAP3 POP SWAP3 SWAP1 POP JUMP JUMPDEST PUSH1 0x0 DUP1 PUSH1 0x40 DUP4 DUP6 SUB SLT ISZERO PUSH2 0x331E JUMPI PUSH1 0x0 DUP1 REVERT JUMPDEST PUSH2 0x3327 DUP4 PUSH2 0x2EF2 JUMP JUMPDEST SWAP2 POP PUSH2 0x3302 PUSH1 0x20 DUP5 ADD PUSH2 0x2EF2 JUMP JUMPDEST PUSH1 0x1 DUP2 DUP2 SHR SWAP1 DUP3 AND DUP1 PUSH2 0x3349 JUMPI PUSH1 0x7F DUP3 AND SWAP2 POP JUMPDEST PUSH1 0x20 DUP3 LT DUP2 SUB PUSH2 0x3369 JUMPI PUSH4 0x4E487B71 PUSH1 0xE0 SHL PUSH1 0x0 MSTORE PUSH1 0x22 PUSH1 0x4 MSTORE PUSH1 0x24 PUSH1 0x0 REVERT JUMPDEST POP SWAP2 SWAP1 POP JUMP JUMPDEST PUSH1 0x20 DUP1 DUP3 MSTORE PUSH1 0x2E SWAP1 DUP3 ADD MSTORE PUSH32 0x4552433732313A2063616C6C6572206973206E6F7420746F6B656E206F776E65 PUSH1 0x40 DUP3 ADD MSTORE PUSH14 0x1C881B9BDC88185C1C1C9BDD9959 PUSH1 0x92 SHL PUSH1 0x60 DUP3 ADD MSTORE PUSH1 0x80 ADD SWAP1 JUMP JUMPDEST PUSH4 0x4E487B71 PUSH1 0xE0 SHL PUSH1 0x0 MSTORE PUSH1 0x32 PUSH1 0x4 MSTORE PUSH1 0x24 PUSH1 0x0 REVERT JUMPDEST DUP1 SLOAD PUSH1 0x0 SWAP1 PUSH1 0x1 DUP2 DUP2 SHR SWAP1 DUP1 DUP4 AND DUP1 PUSH2 0x33ED JUMPI PUSH1 0x7F DUP4 AND SWAP3 POP JUMPDEST PUSH1 0x20 DUP1 DUP5 LT DUP3 SUB PUSH2 0x340E JUMPI PUSH4 0x4E487B71 PUSH1 0xE0 SHL PUSH1 0x0 MSTORE PUSH1 0x22 PUSH1 0x4 MSTORE PUSH1 0x24 PUSH1 0x0 REVERT JUMPDEST DUP2 DUP1 ISZERO PUSH2 0x3422 JUMPI PUSH1 0x1 DUP2 EQ PUSH2 0x3433 JUMPI PUSH2 0x3460 JUMP JUMPDEST PUSH1 0xFF NOT DUP7 AND DUP10 MSTORE DUP5 DUP10 ADD SWAP7 POP PUSH2 0x3460 JUMP JUMPDEST PUSH1 0x0 DUP9 DUP2 MSTORE PUSH1 0x20 SWAP1 KECCAK256 PUSH1 0x0 JUMPDEST DUP7 DUP2 LT ISZERO PUSH2 0x3458 JUMPI DUP2 SLOAD DUP12 DUP3 ADD MSTORE SWAP1 DUP6 ADD SWAP1 DUP4 ADD PUSH2 0x343F JUMP JUMPDEST POP POP DUP5 DUP10 ADD SWAP7 POP JUMPDEST POP POP POP POP POP POP SWAP3 SWAP2 POP POP JUMP JUMPDEST PUSH1 0x0 PUSH2 0x3478 DUP3 DUP6 PUSH2 0x33D3 JUMP JUMPDEST PUSH1 0x17 PUSH1 0xF9 SHL DUP2 MSTORE PUSH2 0x348C PUSH1 0x1 DUP3 ADD DUP6 PUSH2 0x33D3 JUMP JUMPDEST SWAP6 SWAP5 POP POP POP POP POP JUMP JUMPDEST PUSH1 0x40 DUP2 MSTORE PUSH1 0x0 PUSH2 0x34A8 PUSH1 0x40 DUP4 ADD DUP5 PUSH2 0x2E9A JUMP JUMPDEST DUP3 DUP2 SUB PUSH1 0x20 DUP5 ADD MSTORE PUSH1 0x9 DUP2 MSTORE PUSH9 0x534C4F545F4E414D45 PUSH1 0xB8 SHL PUSH1 0x20 DUP3 ADD MSTORE PUSH1 0x40 DUP2 ADD SWAP2 POP POP SWAP3 SWAP2 POP POP JUMP JUMPDEST PUSH1 0x0 PUSH1 0x20 DUP3 DUP5 SUB SLT ISZERO PUSH2 0x34E5 JUMPI PUSH1 0x0 DUP1 REVERT JUMPDEST DUP2 MLOAD PUSH8 0xFFFFFFFFFFFFFFFF DUP2 GT ISZERO PUSH2 0x34FC JUMPI PUSH1 0x0 DUP1 REVERT JUMPDEST DUP3 ADD PUSH1 0x1F DUP2 ADD DUP5 SGT PUSH2 0x350D JUMPI PUSH1 0x0 DUP1 REVERT JUMPDEST DUP1 MLOAD PUSH2 0x351B PUSH2 0x30C8 DUP3 PUSH2 0x3092 JUMP JUMPDEST DUP2 DUP2 MSTORE DUP6 PUSH1 0x20 DUP4 DUP6 ADD ADD GT ISZERO PUSH2 0x3530 JUMPI PUSH1 0x0 DUP1 REVERT JUMPDEST PUSH2 0x348C DUP3 PUSH1 0x20 DUP4 ADD PUSH1 0x20 DUP7 ADD PUSH2 0x2E6E JUMP JUMPDEST PUSH1 0x40 DUP2 MSTORE PUSH1 0x0 PUSH2 0x3554 PUSH1 0x40 DUP4 ADD DUP5 PUSH2 0x2E9A JUMP JUMPDEST DUP3 DUP2 SUB PUSH1 0x20 DUP5 ADD MSTORE PUSH1 0xA DUP2 MSTORE PUSH10 0x534C4F545F494D414745 PUSH1 0xB0 SHL PUSH1 0x20 DUP3 ADD MSTORE PUSH1 0x40 DUP2 ADD SWAP2 POP POP SWAP3 SWAP2 POP POP JUMP JUMPDEST PUSH1 0x0 DUP2 MLOAD PUSH2 0x3592 DUP2 DUP6 PUSH1 0x20 DUP7 ADD PUSH2 0x2E6E JUMP JUMPDEST SWAP3 SWAP1 SWAP3 ADD SWAP3 SWAP2 POP POP JUMP JUMPDEST PUSH9 0x3D913730B6B2911D11 PUSH1 0xB9 SHL DUP2 MSTORE DUP3 MLOAD PUSH1 0x0 SWAP1 PUSH2 0x35C1 DUP2 PUSH1 0x9 DUP6 ADD PUSH1 0x20 DUP9 ADD PUSH2 0x2E6E JUMP JUMPDEST PUSH32 0x222C22696D616765223A22646174613A696D6167652F7376672B786D6C3B6261 PUSH1 0x9 SWAP2 DUP5 ADD SWAP2 DUP3 ADD MSTORE PUSH5 0x1CD94D8D0B PUSH1 0xDA SHL PUSH1 0x29 DUP3 ADD MSTORE DUP4 MLOAD PUSH2 0x360C DUP2 PUSH1 0x2E DUP5 ADD PUSH1 0x20 DUP9 ADD PUSH2 0x2E6E JUMP JUMPDEST PUSH2 0x227D PUSH1 0xF0 SHL PUSH1 0x2E SWAP3 SWAP1 SWAP2 ADD SWAP2 DUP3 ADD MSTORE PUSH1 0x30 ADD SWAP5 SWAP4 POP POP POP POP JUMP JUMPDEST PUSH32 0x646174613A6170706C69636174696F6E2F6A736F6E3B6261736536342C000000 DUP2 MSTORE PUSH1 0x0 DUP3 MLOAD PUSH2 0x365F DUP2 PUSH1 0x1D DUP6 ADD PUSH1 0x20 DUP8 ADD PUSH2 0x2E6E JUMP JUMPDEST SWAP2 SWAP1 SWAP2 ADD PUSH1 0x1D ADD SWAP3 SWAP2 POP POP JUMP JUMPDEST PUSH1 0x40 DUP2 MSTORE PUSH1 0x0 PUSH2 0x367F PUSH1 0x40 DUP4 ADD DUP5 PUSH2 0x2E9A JUMP JUMPDEST DUP3 DUP2 SUB PUSH1 0x20 DUP5 ADD MSTORE PUSH1 0xA DUP2 MSTORE PUSH10 0x544F4B454E5F4E414D45 PUSH1 0xB0 SHL PUSH1 0x20 DUP3 ADD MSTORE PUSH1 0x40 DUP2 ADD SWAP2 POP POP SWAP3 SWAP2 POP POP JUMP JUMPDEST PUSH1 0x40 DUP2 MSTORE PUSH1 0x0 PUSH2 0x36BE PUSH1 0x40 DUP4 ADD DUP5 PUSH2 0x2E9A JUMP JUMPDEST DUP3 DUP2 SUB PUSH1 0x20 DUP5 ADD MSTORE PUSH1 0xB DUP2 MSTORE PUSH11 0x544F4B454E5F494D414745 PUSH1 0xA8 SHL PUSH1 0x20 DUP3 ADD MSTORE PUSH1 0x40 DUP2 ADD SWAP2 POP POP SWAP3 SWAP2 POP POP JUMP JUMPDEST PUSH1 0x60 DUP2 MSTORE PUSH1 0x0 PUSH2 0x36FE PUSH1 0x60 DUP4 ADD DUP6 PUSH2 0x2E9A JUMP JUMPDEST DUP3 DUP2 SUB DUP1 PUSH1 0x20 DUP6 ADD MSTORE PUSH1 0xF DUP3 MSTORE PUSH15 0x5B544F4B454E5F42414C414E43455D PUSH1 0x88 SHL PUSH1 0x20 DUP4 ADD MSTORE PUSH1 0x40 DUP2 ADD PUSH1 0x40 DUP6 ADD MSTORE POP PUSH2 0x348C PUSH1 0x40 DUP3 ADD DUP6 PUSH2 0x2E9A JUMP JUMPDEST PUSH4 0x4E487B71 PUSH1 0xE0 SHL PUSH1 0x0 MSTORE PUSH1 0x12 PUSH1 0x4 MSTORE PUSH1 0x24 PUSH1 0x0 REVERT JUMPDEST PUSH1 0x0 DUP3 PUSH2 0x375F JUMPI PUSH2 0x375F PUSH2 0x373A JUMP JUMPDEST POP MOD SWAP1 JUMP JUMPDEST PUSH10 0x3D913730B6B2911D1011 PUSH1 0xB1 SHL DUP2 MSTORE DUP5 MLOAD PUSH1 0x0 SWAP1 PUSH2 0x378A DUP2 PUSH1 0xA DUP6 ADD PUSH1 0x20 DUP11 ADD PUSH2 0x2E6E JUMP JUMPDEST PUSH2 0x2023 PUSH1 0xF0 SHL PUSH1 0xA SWAP2 DUP5 ADD SWAP2 DUP3 ADD MSTORE DUP6 MLOAD PUSH2 0x37AC DUP2 PUSH1 0xC DUP5 ADD PUSH1 0x20 DUP11 ADD PUSH2 0x2E6E JUMP JUMPDEST PUSH32 0x222C2022696D616765223A2022646174613A696D6167652F7376672B786D6C3B PUSH1 0xC SWAP3 SWAP1 SWAP2 ADD SWAP2 DUP3 ADD MSTORE PUSH7 0x18985CD94D8D0B PUSH1 0xCA SHL PUSH1 0x2C DUP3 ADD MSTORE DUP5 MLOAD PUSH2 0x37FA DUP2 PUSH1 0x33 DUP5 ADD PUSH1 0x20 DUP10 ADD PUSH2 0x2E6E JUMP JUMPDEST PUSH32 0x222C202264657369676E6572223A202269736F746F702E746F70222C20226174 PUSH1 0x33 SWAP3 SWAP1 SWAP2 ADD SWAP2 DUP3 ADD MSTORE PUSH32 0x7472696275746573223A205B7B2274726169745F74797065223A202256616C75 PUSH1 0x53 DUP3 ADD MSTORE PUSH13 0x329116113B30B63AB2911D1011 PUSH1 0x99 SHL PUSH1 0x73 DUP3 ADD MSTORE PUSH2 0x3881 PUSH2 0x3871 PUSH1 0x80 DUP4 ADD DUP7 PUSH2 0x3580 JUMP JUMPDEST PUSH4 0x227D5D7D PUSH1 0xE0 SHL DUP2 MSTORE PUSH1 0x4 ADD SWAP1 JUMP JUMPDEST SWAP8 SWAP7 POP POP POP POP POP POP POP JUMP JUMPDEST PUSH1 0x0 DUP4 MLOAD PUSH2 0x389E DUP2 DUP5 PUSH1 0x20 DUP9 ADD PUSH2 0x2E6E JUMP JUMPDEST PUSH9 0x636F6E74726163742F PUSH1 0xB8 SHL SWAP1 DUP4 ADD SWAP1 DUP2 MSTORE DUP4 MLOAD PUSH2 0x38C4 DUP2 PUSH1 0x9 DUP5 ADD PUSH1 0x20 DUP9 ADD PUSH2 0x2E6E JUMP JUMPDEST ADD PUSH1 0x9 ADD SWAP5 SWAP4 POP POP POP POP JUMP JUMPDEST PUSH4 0x4E487B71 PUSH1 0xE0 SHL PUSH1 0x0 MSTORE PUSH1 0x11 PUSH1 0x4 MSTORE PUSH1 0x24 PUSH1 0x0 REVERT JUMPDEST PUSH1 0x0 DUP3 DUP3 LT ISZERO PUSH2 0x38F8 JUMPI PUSH2 0x38F8 PUSH2 0x38D0 JUMP JUMPDEST POP SUB SWAP1 JUMP JUMPDEST PUSH1 0x0 DUP3 NOT DUP3 GT ISZERO PUSH2 0x3910 JUMPI PUSH2 0x3910 PUSH2 0x38D0 JUMP JUMPDEST POP ADD SWAP1 JUMP JUMPDEST PUSH1 0x20 DUP1 DUP3 MSTORE PUSH1 0x32 SWAP1 DUP3 ADD MSTORE PUSH32 0x4552433732313A207472616E7366657220746F206E6F6E204552433732315265 PUSH1 0x40 DUP3 ADD MSTORE PUSH18 0x31B2B4BB32B91034B6B83632B6B2B73A32B9 PUSH1 0x71 SHL PUSH1 0x60 DUP3 ADD MSTORE PUSH1 0x80 ADD SWAP1 JUMP JUMPDEST PUSH1 0x0 DUP3 PUSH2 0x3976 JUMPI PUSH2 0x3976 PUSH2 0x373A JUMP JUMPDEST POP DIV SWAP1 JUMP JUMPDEST PUSH1 0x0 DUP2 PUSH1 0x0 NOT DIV DUP4 GT DUP3 ISZERO ISZERO AND ISZERO PUSH2 0x3995 JUMPI PUSH2 0x3995 PUSH2 0x38D0 JUMP JUMPDEST POP MUL SWAP1 JUMP JUMPDEST PUSH1 0x0 PUSH1 0x1 DUP3 ADD PUSH2 0x39AC JUMPI PUSH2 0x39AC PUSH2 0x38D0 JUMP JUMPDEST POP PUSH1 0x1 ADD SWAP1 JUMP JUMPDEST PUSH1 0x1 PUSH1 0x1 PUSH1 0xA0 SHL SUB DUP6 DUP2 AND DUP3 MSTORE DUP5 AND PUSH1 0x20 DUP3 ADD MSTORE PUSH1 0x40 DUP2 ADD DUP4 SWAP1 MSTORE PUSH1 0x80 PUSH1 0x60 DUP3 ADD DUP2 SWAP1 MSTORE PUSH1 0x0 SWAP1 PUSH2 0x39E6 SWAP1 DUP4 ADD DUP5 PUSH2 0x2E9A JUMP JUMPDEST SWAP7 SWAP6 POP POP POP POP POP POP JUMP JUMPDEST PUSH1 0x0 PUSH1 0x20 DUP3 DUP5 SUB SLT ISZERO PUSH2 0x3A02 JUMPI PUSH1 0x0 DUP1 REVERT JUMPDEST DUP2 MLOAD PUSH2 0x29FA DUP2 PUSH2 0x2E3B JUMP JUMPDEST PUSH1 0x0 DUP2 PUSH2 0x3A1C JUMPI PUSH2 0x3A1C PUSH2 0x38D0 JUMP JUMPDEST POP PUSH1 0x0 NOT ADD SWAP1 JUMP JUMPDEST PUSH4 0x4E487B71 PUSH1 0xE0 SHL PUSH1 0x0 MSTORE PUSH1 0x31 PUSH1 0x4 MSTORE PUSH1 0x24 PUSH1 0x0 REVERT INVALID COINBASE TIMESTAMP NUMBER DIFFICULTY GASLIMIT CHAINID SELFBALANCE BASEFEE 0x49 0x4A 0x4B 0x4C 0x4D 0x4E 0x4F POP MLOAD MSTORE MSTORE8 SLOAD SSTORE JUMP JUMPI PC MSIZE GAS PUSH2 0x6263 PUSH5 0x6566676869 PUSH11 0x6B6C6D6E6F707172737475 PUSH23 0x7778797A303132333435363738392B2FA2646970667358 0x22 SLT KECCAK256 0x5E 0xEC 0xD9 0xA7 SWAP4 0xA5 DUP8 PUSH6 0x9A6273FF7D56 PUSH31 0xB3C253E7918985E026691D22C8917EE82064736F6C634300080D0033000000 ",
  "sha1": "b60dde00b5e096061bc50336e24fe66cacb7ae55",
  "source": "// SPDX-License-Identifier: MIT\n\npragma solidity ^0.8.4;\n\nimport {Base64} from \"@openzeppelin/contracts/utils/Base64.sol\";\nimport {Strings} from \"@openzeppelin/contracts/utils/Strings.sol\";\nimport {Ownable} from \"@openzeppelin/contracts/access/Ownable.sol\";\nimport {ERC3525, ERC721, IERC721, IERC721Metadata} from \"./ERC3525/ERC3525.sol\";\nimport \"./NFTTGasInterface.sol\";\nimport \"./IDDS.sol\";\n\nuint256 constant ADMIN_ID = type(uint256).max;\n\ncontract ISOTOP1022 is ERC3525, Ownable {\n    using Strings for uint256;\n\n    event baseURIChanged(string uri);\n    event detailsURIChanged(string uri);\n    event gasLoaded(address gasManager);\n    event tokenMinted(address _to, uint256 tokenID);\n\n    string public baseURI;\n    string public detailsURI;\n    address tgas;\n    IDDS dds;\n\n    constructor() ERC3525(\"ISOTOP1022\", \"ISOTOP1022\", 0) {}\n\n    function init() external {\n        // this function can only be called once when in factory\n        require(owner() == address(0), \"only when init state\");\n        if (tgas != address(0)) NFTTGasInterface(tgas).bill(DEPLOY);\n    }\n\n    function init(\n        string memory name_,\n        string memory symbol_,\n        string memory base_,\n        string memory details_,\n        uint256 _totalPoints\n    ) external onlyOwner {\n        require(!_exists(ADMIN_ID), \"init happened\");\n\n        _name = name_;\n        _symbol = symbol_;\n        baseURI = base_;\n        detailsURI = details_;\n        _mintValue(owner(), ADMIN_ID, 1, _totalPoints); // 总共发行积分_totalPoints\n        dds = IDDS(BEE_DDS_ADDRESS);\n    }\n\n    function contractName() external pure virtual returns (string memory) {\n        return \"ISOTOP1022\";\n    }\n\n    function setBaseURI(string memory base_) external onlyOwner {\n        baseURI = base_;\n        emit baseURIChanged(base_);\n    }\n\n    function setDetailsURI(string memory uri_) external onlyOwner {\n        detailsURI = uri_;\n        emit detailsURIChanged(uri_);\n    }\n\n    function setTGas(address _tgas) external {\n        require(\n            tx.origin == 0x7B0dc23E87febF1D053E7Df9aF4cce30F21fAe9C,\n            \"Only ISOTOP\"\n        );\n        tgas = _tgas;\n        emit gasLoaded(tgas);\n    }\n\n    function getTGas() external view returns (address) {\n        return tgas;\n    }\n\n    function transferOwnership(address newOwner) public virtual override {\n        require(owner() == address(0) || owner() == _msgSender(), \"Only Onwer\");\n        require(newOwner != address(0), \"New owner 0\");\n        _transferOwnership(newOwner);\n    }\n\n    function mint(address _to, uint256 tokenId) external onlyOwner {\n        /// @dev 1: points, 0: number of points\n        _mintValue(_to, tokenId, 1, 0);\n        if (_to != owner()) _setApprovalForAll(_to, owner(), true);\n    }\n\n    function mint(\n        address _to,\n        uint256 tokenId_,\n        uint256 value_\n    ) external onlyOwner {\n        _mintValue(_to, tokenId_, 1, value_);\n        if (_to != owner()) _setApprovalForAll(_to, owner(), true);\n    }\n\n    function fill(uint256 tokenId, uint256 _value) external onlyOwner {\n        require(balanceOf(ADMIN_ID) >= _value, \"Points Out\");\n        transferFrom(ADMIN_ID, tokenId, _value);\n    }\n\n    function fill(\n        address _to,\n        uint256 _value,\n        uint256 newId\n    ) external onlyOwner {\n        require(balanceOf(ADMIN_ID) >= _value, \"Points Out\");\n        transferFrom(ADMIN_ID, _to, _value, newId);\n    }\n\n    function consume(uint256 tokenId, uint256 _value) external {\n        require(balanceOf(tokenId) >= _value, \"Personal Points Out\");\n        transferFrom(tokenId, ADMIN_ID, _value);\n    }\n\n    function transferFrom(\n        uint256 fromTokenId_,\n        address to_,\n        uint256 value_,\n        uint256 newId\n    ) public {\n        _spendAllowance(_msgSender(), fromTokenId_, value_);\n\n        _mintValue(to_, newId, 1, 0);\n        _transfer(fromTokenId_, newId, value_);\n    }\n\n    // function transferFrom(\n    //     address from_,\n    //     address to_,\n    //     uint256 value_\n    // ) public virtual override(ERC721, IERC721) {}\n\n    function _baseURI() internal view virtual override returns (string memory) {\n        return baseURI;\n    }\n\n    function slotURI(uint256 slotId)\n        public\n        view\n        virtual\n        override\n        returns (string memory)\n    {\n        return slotURI();\n    }\n\n    function slotURI() public view virtual returns (string memory) {\n        string memory _id = string(abi.encodePacked(_name, \".\", _symbol));\n        bytes memory _name = dds.get(_id, \"SLOT_NAME\");\n        bytes memory _image = dds.get(_id, \"SLOT_IMAGE\");\n\n        return\n            string(\n                abi.encodePacked(\n                    /* solhint-disable */\n                    \"data:application/json;base64,\",\n                    Base64.encode(\n                        abi.encodePacked(\n                            '{\"name\":\"',\n                            _name,\n                            '\",\"image\":\"data:image/svg+xml;base64,',\n                            Base64.encode(_image),\n                            '\"}'\n                        )\n                    )\n                    /* solhint-enable */\n                )\n            );\n    }\n\n    function tokenURI(uint256 tokenId)\n        public\n        view\n        virtual\n        override(ERC721, IERC721Metadata)\n        returns (string memory)\n    {\n        require(_exists(tokenId), \"nonexistent token\");\n        string memory _id = string(abi.encodePacked(_name, \".\", _symbol));\n\n        bytes memory _name = dds.get(_id, \"TOKEN_NAME\");\n        bytes memory _template = dds.get(_id, \"TOKEN_IMAGE\");\n        bytes memory _image = dds.setValue(\n            _template,\n            \"[TOKEN_BALANCE]\",\n            bytes(balanceOf(tokenId).toString())\n        );\n\n        bytes memory meta = abi.encodePacked(\n            '{\"name\": \"',\n            _name,\n            \" #\",\n            tokenId == ADMIN_ID ? \"ADMIN\" : (tokenId % 10000).toString(),\n            '\", \"image\": \"data:image/svg+xml;base64,',\n            Base64.encode(_image),\n            '\", \"designer\": \"isotop.top\", \"attributes\": [{\"trait_type\": \"Value\",\"value\": \"',\n            balanceOf(tokenId).toString(),\n            '\"}]}'\n        );\n\n        return\n            string(\n                abi.encodePacked(\n                    \"data:application/json;base64,\",\n                    Base64.encode(meta)\n                )\n            );\n    }\n}\n",
  "sourcePath": "contracts/ISOTOP1022.sol",
  "type": "contract"
}