{
  "abi": [
    {
      "anonymous": false,
      "inputs": [
        {
          "indexed": false,
          "internalType": "address",
          "name": "gasManager",
          "type": "address"
        }
      ],
      "name": "gasLoaded",
      "type": "event"
    },
    {
      "inputs": [],
      "name": "getTGas",
      "outputs": [
        {
          "internalType": "address",
          "name": "",
          "type": "address"
        }
      ],
      "stateMutability": "view",
      "type": "function"
    },
    {
      "inputs": [
        {
          "internalType": "uint32",
          "name": "numWords",
          "type": "uint32"
        }
      ],
      "name": "requestRandomWords",
      "outputs": [
        {
          "internalType": "uint256",
          "name": "requestId",
          "type": "uint256"
        }
      ],
      "stateMutability": "nonpayable",
      "type": "function"
    },
    {
      "inputs": [
        {
          "internalType": "address",
          "name": "_tgas",
          "type": "address"
        }
      ],
      "name": "setTGas",
      "outputs": [],
      "stateMutability": "nonpayable",
      "type": "function"
    }
  ],
  "bytecode": "60806040526040516100109061005f565b604051809103906000f08015801561002c573d6000803e3d6000fd5b50600180546001600160a01b0319166001600160a01b039290921691909117905534801561005957600080fd5b5061006c565b6117158061034b83390190565b6102d08061007b6000396000f3fe608060405234801561001057600080fd5b50600436106100415760003560e01c806340898f4f14610046578063766ef5e71461005b578063e726f2e11461007b575b600080fd5b61005961005436600461022b565b61009c565b005b6000546040516001600160a01b0390911681526020015b60405180910390f35b61008e61008936600461025b565b610145565b604051908152602001610072565b737b0dc23e87febf1d053e7df9af4cce30f21fae9c32146100f15760405162461bcd60e51b815260206004820152600b60248201526a04f6e6c792049534f544f560ac1b604482015260640160405180910390fd5b600080546001600160a01b0319166001600160a01b0383169081179091556040519081527f5d13706edecffc8d4ccc3b8dbcc026ce8a4914496820ba012530a4790b08d3a79060200160405180910390a150565b600080546001600160a01b0316156101b1576000805460408051631b8f33bd60e11b815290516001600160a01b039092169263371e677a9260048084019382900301818387803b15801561019857600080fd5b505af11580156101ac573d6000803e3d6000fd5b505050505b60015460405163e726f2e160e01b815263ffffffff841660048201526001600160a01b039091169063e726f2e1906024016020604051808303816000875af1158015610201573d6000803e3d6000fd5b505050506040513d601f19601f820116820180604052508101906102259190610281565b92915050565b60006020828403121561023d57600080fd5b81356001600160a01b038116811461025457600080fd5b9392505050565b60006020828403121561026d57600080fd5b813563ffffffff8116811461025457600080fd5b60006020828403121561029357600080fd5b505191905056fea264697066735822122087742dd0fe720a324b5978f5dad817cc5d23cb8f61e8bcd156b2b4073445f27e64736f6c634300080d003360a06040526005805465ffffffffffff19166403000186a01790553480156200002757600080fd5b506200003262000079565b6001600160a01b03166080526200004933620001a3565b6200005362000079565b600280546001600160a01b0319166001600160a01b03929092169190911790556200035b565b60408051633e10510b60e01b815260048101919091526006604482015265049534f544f560d41b606482015260806024820152600b60848201526a21a7a7a92224a720aa27a960a91b60a482015260009073222d6d17f1f6967b81e40624fe6176b7be225bee908190632d888869908290633e10510b9060c401600060405180830381865afa15801562000111573d6000803e3d6000fd5b505050506040513d6000823e601f3d908101601f191682016040526200013b91908101906200023c565b6040518263ffffffff1660e01b8152600401620001599190620002f4565b602060405180830381865afa15801562000177573d6000803e3d6000fd5b505050506040513d601f19601f820116820180604052508101906200019d919062000329565b91505090565b600080546001600160a01b038381166001600160a01b0319831681178455604051919092169283917f8be0079c531659141344cd1fd0a4f28419497f9722a3daafe3b4186f6b6457e09190a35050565b634e487b7160e01b600052604160045260246000fd5b60005b83811015620002265781810151838201526020016200020c565b8381111562000236576000848401525b50505050565b6000602082840312156200024f57600080fd5b81516001600160401b03808211156200026757600080fd5b818401915084601f8301126200027c57600080fd5b815181811115620002915762000291620001f3565b604051601f8201601f19908116603f01168101908382118183101715620002bc57620002bc620001f3565b81604052828152876020848701011115620002d657600080fd5b620002e983602083016020880162000209565b979650505050505050565b60208152600082518060208401526200031581604085016020870162000209565b601f01601f19169190910160400192915050565b6000602082840312156200033c57600080fd5b81516001600160a01b03811681146200035457600080fd5b9392505050565b6080516113976200037e600039600081816101d1015261021301526113976000f3fe608060405234801561001057600080fd5b50600436106100b45760003560e01c80638da5cb5b116100715780638da5cb5b14610153578063d826f88f1461016e578063d8a4676f14610176578063e726f2e114610197578063f2fde38b146101aa578063fc2a88c3146101bd57600080fd5b80631fe543e3146100b957806329fa6d02146100ce578063715018a6146100f757806377754136146100ff5780638073afce146101125780638796ba8c14610132575b600080fd5b6100cc6100c7366004610e40565b6101c6565b005b6100e16100dc366004610ef2565b610253565b6040516100ee9190610f4f565b60405180910390f35b6100cc610405565b6100cc61010d366004610f80565b610419565b610125610120366004610faa565b61043d565b6040516100ee9190610fcf565b610145610140366004611017565b610622565b6040519081526020016100ee565b6000546040516001600160a01b0390911681526020016100ee565b6100cc610643565b610189610184366004611017565b610659565b6040516100ee929190611030565b6101456101a5366004611053565b6107ba565b6100cc6101b8366004611079565b610a40565b61014560045481565b336001600160a01b037f000000000000000000000000000000000000000000000000000000000000000016146102455760405163073e64fd60e21b81523360048201526001600160a01b037f00000000000000000000000000000000000000000000000000000000000000001660248201526044015b60405180910390fd5b61024f8282610ab9565b5050565b606060008367ffffffffffffffff81111561027057610270610df9565b604051908082528060200260200182016040528015610299578160200160208202803683370190505b50905060005b848110156102d757808282815181106102ba576102ba611094565b6020908102919091010152806102cf816110c0565b91505061029f565b506000836040516020016102ed91815260200190565b604051602081830303815290604052805190602001209050600060018661031491906110d9565b905060015b6103246001886110d9565b8110156103fa57600061033783856110f0565b9050600085848151811061034d5761034d611094565b6020026020010151905085828151811061036957610369611094565b602002602001015186858151811061038357610383611094565b602002602001018181525050808683815181106103a2576103a2611094565b6020908102919091010152836103b781611112565b945050846040516020016103cd91815260200190565b604051602081830303815290604052805190602001209450505080806103f2906110c0565b915050610319565b509195945050505050565b61040d610b7d565b6104176000610bd7565b565b610421610b7d565b6001600160a01b03909116600090815260066020526040902055565b606060008361ffff1667ffffffffffffffff81111561045e5761045e610df9565b604051908082528060200260200182016040528015610487578160200160208202803683370190505b50905060005b8461ffff168161ffff1610156104d95780828261ffff16815181106104b4576104b4611094565b61ffff90921660209283029190910190910152806104d181611129565b91505061048d565b506000836040516020016104ef91815260200190565b6040516020818303038152906040528051906020012090506000600186610516919061114a565b61ffff16905060015b61052a60018861114a565b61ffff168161ffff1610156103fa57600061054583856110f0565b9050600085848151811061055b5761055b611094565b60200260200101519050858261ffff168151811061057b5761057b611094565b602002602001015186858151811061059557610595611094565b602002602001019061ffff16908161ffff168152505080868361ffff16815181106105c2576105c2611094565b61ffff90921660209283029190910190910152836105df81611112565b945050846040516020016105f591815260200190565b6040516020818303038152906040528051906020012094505050808061061a90611129565b91505061051f565b6003818154811061063257600080fd5b600091825260209091200154905081565b61064b610b7d565b6000546001600160a01b0316ff5b600081815260016020526040812054606090610100900460ff166106b35760405162461bcd60e51b81526020600482015260116024820152701c995c5d595cdd081b9bdd08199bdd5b99607a1b604482015260640161023c565b6000838152600160205260409020546201000090046001600160a01b0316331461070c5760405162461bcd60e51b815260206004820152600a60248201526937b7363c9037bbb732b960b11b604482015260640161023c565b60008381526001602081815260408084208151608081018352815460ff808216151583526101008204161515828601526201000090046001600160a01b031681840152938101805483518186028101860190945280845291936060860193929083018282801561079b57602002820191906000526020600020905b815481526020019060010190808311610787575b5050505050815250509050806000015181606001519250925050915091565b600080546001600160a01b03163314806107e1575033600090815260066020526040902054155b806107fa57503360009081526006602052604090205442105b6108465760405162461bcd60e51b815260206004820152601d60248201527f4f70657261746f72204e6f742056616c6964204f722045787069726564000000604482015260640161023c565b61084e610c27565b67ffffffffffffffff1660000361086757506000919050565b6002546001600160a01b0316635d3b1d30610880610d11565b610888610c27565b60055460405160e085901b6001600160e01b0319168152600481019390935267ffffffffffffffff9091166024830152640100000000810461ffff16604483015263ffffffff90811660648301528516608482015260a4016020604051808303816000875af11580156108ff573d6000803e3d6000fd5b505050506040513d601f19601f82011682018060405250810190610923919061116d565b604080516080810182526000808252600160208084018281523385870190815286518581528084018852606087019081528886528484529690942085518154925195516001600160a01b0316620100000262010000600160b01b03199615156101000261ff00199215159290921661ffff1990941693909317179490941617835593518051959650929491936109bf9391850192910190610d99565b5050600380546001810182556000919091527fc2575a0e9e593c00f959f8c92f12db2869c3395a3b0502d05e2516446f71f85b018290555060048190556040805182815263ffffffff841660208201527fcc58b13ad3eab50626c6a6300b1d139cd6ebb1688a7cced9461c2f7e762665ee910160405180910390a15b919050565b610a48610b7d565b6001600160a01b038116610aad5760405162461bcd60e51b815260206004820152602660248201527f4f776e61626c653a206e6577206f776e657220697320746865207a65726f206160448201526564647265737360d01b606482015260840161023c565b610ab681610bd7565b50565b600082815260016020526040902054610100900460ff16610b105760405162461bcd60e51b81526020600482015260116024820152701c995c5d595cdd081b9bdd08199bdd5b99607a1b604482015260640161023c565b6000828152600160208181526040909220805460ff1916821781558351610b3f93919092019190840190610d99565b507ffe2e2d779dba245964d4e3ef9b994be63856fd568bf7d3ca9e224755cb1bd54d8282604051610b71929190611186565b60405180910390a15050565b6000546001600160a01b031633146104175760405162461bcd60e51b815260206004820181905260248201527f4f776e61626c653a2063616c6c6572206973206e6f7420746865206f776e6572604482015260640161023c565b600080546001600160a01b038381166001600160a01b0319831681178455604051919092169283917f8be0079c531659141344cd1fd0a4f28419497f9722a3daafe3b4186f6b6457e09190a35050565b604051633e10510b60e01b815260009073222d6d17f1f6967b81e40624fe6176b7be225bee90819063187560ca908290633e10510b90610c699060040161119f565b600060405180830381865afa158015610c86573d6000803e3d6000fd5b505050506040513d6000823e601f3d908101601f19168201604052610cae9190810190611222565b6040518263ffffffff1660e01b8152600401610cca91906112b6565b602060405180830381865afa158015610ce7573d6000803e3d6000fd5b505050506040513d601f19601f82011682018060405250810190610d0b919061116d565b91505090565b604051633e10510b60e01b815260009073222d6d17f1f6967b81e40624fe6176b7be225bee908190633e10510b90610d4b906004016112e9565b600060405180830381865afa158015610d68573d6000803e3d6000fd5b505050506040513d6000823e601f3d908101601f19168201604052610d909190810190611222565b610d0b9061133a565b828054828255906000526020600020908101928215610dd4579160200282015b82811115610dd4578251825591602001919060010190610db9565b50610de0929150610de4565b5090565b5b80821115610de05760008155600101610de5565b634e487b7160e01b600052604160045260246000fd5b604051601f8201601f1916810167ffffffffffffffff81118282101715610e3857610e38610df9565b604052919050565b60008060408385031215610e5357600080fd5b8235915060208084013567ffffffffffffffff80821115610e7357600080fd5b818601915086601f830112610e8757600080fd5b813581811115610e9957610e99610df9565b8060051b9150610eaa848301610e0f565b8181529183018401918481019089841115610ec457600080fd5b938501935b83851015610ee257843582529385019390850190610ec9565b8096505050505050509250929050565b60008060408385031215610f0557600080fd5b50508035926020909101359150565b600081518084526020808501945080840160005b83811015610f4457815187529582019590820190600101610f28565b509495945050505050565b602081526000610f626020830184610f14565b9392505050565b80356001600160a01b0381168114610a3b57600080fd5b60008060408385031215610f9357600080fd5b610f9c83610f69565b946020939093013593505050565b60008060408385031215610fbd57600080fd5b823561ffff81168114610f9c57600080fd5b6020808252825182820181905260009190848201906040850190845b8181101561100b57835161ffff1683529284019291840191600101610feb565b50909695505050505050565b60006020828403121561102957600080fd5b5035919050565b821515815260406020820152600061104b6040830184610f14565b949350505050565b60006020828403121561106557600080fd5b813563ffffffff81168114610f6257600080fd5b60006020828403121561108b57600080fd5b610f6282610f69565b634e487b7160e01b600052603260045260246000fd5b634e487b7160e01b600052601160045260246000fd5b6000600182016110d2576110d26110aa565b5060010190565b6000828210156110eb576110eb6110aa565b500390565b60008261110d57634e487b7160e01b600052601260045260246000fd5b500690565b600081611121576111216110aa565b506000190190565b600061ffff808316818103611140576111406110aa565b6001019392505050565b600061ffff83811690831681811015611165576111656110aa565b039392505050565b60006020828403121561117f57600080fd5b5051919050565b82815260406020820152600061104b6040830184610f14565b6040815260006111c5604083016006815265049534f544f560d41b602082015260400190565b828103602093840152600e81526d14dd589cd8dc9a5c1d1a5bdb925160921b928101929092525060400190565b60005b8381101561120d5781810151838201526020016111f5565b8381111561121c576000848401525b50505050565b60006020828403121561123457600080fd5b815167ffffffffffffffff8082111561124c57600080fd5b818401915084601f83011261126057600080fd5b81518181111561127257611272610df9565b611285601f8201601f1916602001610e0f565b915080825285602082850101111561129c57600080fd5b6112ad8160208401602086016111f2565b50949350505050565b60208152600082518060208401526112d58160408501602087016111f2565b601f01601f19169190910160400192915050565b60408152600061130f604083016006815265049534f544f560d41b602082015260400190565b828103602093840152600c81526b4b45595f484153485f57454960a01b928101929092525060400190565b8051602080830151919081101561135b576000198160200360031b1b821691505b5091905056fea2646970667358221220e6cac204602d3ea6ab452c1576816f6d0c956f8cdc89249e42e8af2ab276400064736f6c634300080d0033",
  "bytecodeSha1": "e369dfa6a76465945dbed35886c293d5c9daefc1",
  "compiler": {
    "evm_version": "istanbul",
    "optimizer": {
      "enabled": true,
      "runs": 200
    },
    "version": "0.8.13+commit.abaa5c0e"
  },
  "contractName": "ISOTOP1030",
  "language": "Solidity",
  "natspec": {
    "kind": "dev",
    "methods": {},
    "version": 1
  },
  "opcodes": "PUSH1 0x80 PUSH1 0x40 MSTORE CALLVALUE DUP1 ISZERO PUSH2 0x10 JUMPI PUSH1 0x0 DUP1 REVERT JUMPDEST POP PUSH1 0x4 CALLDATASIZE LT PUSH2 0x41 JUMPI PUSH1 0x0 CALLDATALOAD PUSH1 0xE0 SHR DUP1 PUSH4 0x40898F4F EQ PUSH2 0x46 JUMPI DUP1 PUSH4 0x766EF5E7 EQ PUSH2 0x5B JUMPI DUP1 PUSH4 0xE726F2E1 EQ PUSH2 0x7B JUMPI JUMPDEST PUSH1 0x0 DUP1 REVERT JUMPDEST PUSH2 0x59 PUSH2 0x54 CALLDATASIZE PUSH1 0x4 PUSH2 0x22B JUMP JUMPDEST PUSH2 0x9C JUMP JUMPDEST STOP JUMPDEST PUSH1 0x0 SLOAD PUSH1 0x40 MLOAD PUSH1 0x1 PUSH1 0x1 PUSH1 0xA0 SHL SUB SWAP1 SWAP2 AND DUP2 MSTORE PUSH1 0x20 ADD JUMPDEST PUSH1 0x40 MLOAD DUP1 SWAP2 SUB SWAP1 RETURN JUMPDEST PUSH2 0x8E PUSH2 0x89 CALLDATASIZE PUSH1 0x4 PUSH2 0x25B JUMP JUMPDEST PUSH2 0x145 JUMP JUMPDEST PUSH1 0x40 MLOAD SWAP1 DUP2 MSTORE PUSH1 0x20 ADD PUSH2 0x72 JUMP JUMPDEST PUSH20 0x7B0DC23E87FEBF1D053E7DF9AF4CCE30F21FAE9C ORIGIN EQ PUSH2 0xF1 JUMPI PUSH1 0x40 MLOAD PUSH3 0x461BCD PUSH1 0xE5 SHL DUP2 MSTORE PUSH1 0x20 PUSH1 0x4 DUP3 ADD MSTORE PUSH1 0xB PUSH1 0x24 DUP3 ADD MSTORE PUSH11 0x4F6E6C792049534F544F5 PUSH1 0xAC SHL PUSH1 0x44 DUP3 ADD MSTORE PUSH1 0x64 ADD PUSH1 0x40 MLOAD DUP1 SWAP2 SUB SWAP1 REVERT JUMPDEST PUSH1 0x0 DUP1 SLOAD PUSH1 0x1 PUSH1 0x1 PUSH1 0xA0 SHL SUB NOT AND PUSH1 0x1 PUSH1 0x1 PUSH1 0xA0 SHL SUB DUP4 AND SWAP1 DUP2 OR SWAP1 SWAP2 SSTORE PUSH1 0x40 MLOAD SWAP1 DUP2 MSTORE PUSH32 0x5D13706EDECFFC8D4CCC3B8DBCC026CE8A4914496820BA012530A4790B08D3A7 SWAP1 PUSH1 0x20 ADD PUSH1 0x40 MLOAD DUP1 SWAP2 SUB SWAP1 LOG1 POP JUMP JUMPDEST PUSH1 0x0 DUP1 SLOAD PUSH1 0x1 PUSH1 0x1 PUSH1 0xA0 SHL SUB AND ISZERO PUSH2 0x1B1 JUMPI PUSH1 0x0 DUP1 SLOAD PUSH1 0x40 DUP1 MLOAD PUSH4 0x1B8F33BD PUSH1 0xE1 SHL DUP2 MSTORE SWAP1 MLOAD PUSH1 0x1 PUSH1 0x1 PUSH1 0xA0 SHL SUB SWAP1 SWAP3 AND SWAP3 PUSH4 0x371E677A SWAP3 PUSH1 0x4 DUP1 DUP5 ADD SWAP4 DUP3 SWAP1 SUB ADD DUP2 DUP4 DUP8 DUP1 EXTCODESIZE ISZERO DUP1 ISZERO PUSH2 0x198 JUMPI PUSH1 0x0 DUP1 REVERT JUMPDEST POP GAS CALL ISZERO DUP1 ISZERO PUSH2 0x1AC JUMPI RETURNDATASIZE PUSH1 0x0 DUP1 RETURNDATACOPY RETURNDATASIZE PUSH1 0x0 REVERT JUMPDEST POP POP POP POP JUMPDEST PUSH1 0x1 SLOAD PUSH1 0x40 MLOAD PUSH4 0xE726F2E1 PUSH1 0xE0 SHL DUP2 MSTORE PUSH4 0xFFFFFFFF DUP5 AND PUSH1 0x4 DUP3 ADD MSTORE PUSH1 0x1 PUSH1 0x1 PUSH1 0xA0 SHL SUB SWAP1 SWAP2 AND SWAP1 PUSH4 0xE726F2E1 SWAP1 PUSH1 0x24 ADD PUSH1 0x20 PUSH1 0x40 MLOAD DUP1 DUP4 SUB DUP2 PUSH1 0x0 DUP8 GAS CALL ISZERO DUP1 ISZERO PUSH2 0x201 JUMPI RETURNDATASIZE PUSH1 0x0 DUP1 RETURNDATACOPY RETURNDATASIZE PUSH1 0x0 REVERT JUMPDEST POP POP POP POP PUSH1 0x40 MLOAD RETURNDATASIZE PUSH1 0x1F NOT PUSH1 0x1F DUP3 ADD AND DUP3 ADD DUP1 PUSH1 0x40 MSTORE POP DUP2 ADD SWAP1 PUSH2 0x225 SWAP2 SWAP1 PUSH2 0x281 JUMP JUMPDEST SWAP3 SWAP2 POP POP JUMP JUMPDEST PUSH1 0x0 PUSH1 0x20 DUP3 DUP5 SUB SLT ISZERO PUSH2 0x23D JUMPI PUSH1 0x0 DUP1 REVERT JUMPDEST DUP2 CALLDATALOAD PUSH1 0x1 PUSH1 0x1 PUSH1 0xA0 SHL SUB DUP2 AND DUP2 EQ PUSH2 0x254 JUMPI PUSH1 0x0 DUP1 REVERT JUMPDEST SWAP4 SWAP3 POP POP POP JUMP JUMPDEST PUSH1 0x0 PUSH1 0x20 DUP3 DUP5 SUB SLT ISZERO PUSH2 0x26D JUMPI PUSH1 0x0 DUP1 REVERT JUMPDEST DUP2 CALLDATALOAD PUSH4 0xFFFFFFFF DUP2 AND DUP2 EQ PUSH2 0x254 JUMPI PUSH1 0x0 DUP1 REVERT JUMPDEST PUSH1 0x0 PUSH1 0x20 DUP3 DUP5 SUB SLT ISZERO PUSH2 0x293 JUMPI PUSH1 0x0 DUP1 REVERT JUMPDEST POP MLOAD SWAP2 SWAP1 POP JUMP INVALID LOG2 PUSH5 0x6970667358 0x22 SLT KECCAK256 DUP8 PUSH21 0x2DD0FE720A324B5978F5DAD817CC5D23CB8F61E8BC 0xD1 JUMP 0xB2 0xB4 SMOD CALLVALUE GASLIMIT CALLCODE PUSH31 0x64736F6C634300080D00330000000000000000000000000000000000000000 ",
  "sha1": "559cc6787cc07d2a10c316199320f40b342b9ffe",
  "source": "// SPDX-License-Identifier: MIT\n\npragma solidity ^0.8.4;\n\nimport \"./VRF/VRFGenerator.sol\";\n\nimport \"./VRFTGasInterface.sol\";\n\ncontract ISOTOP1030 {\n    event gasLoaded(address gasManager);\n\n    address tgas;\n    VRFGenerator vrf = new VRFGenerator();\n\n    function setTGas(address _tgas) external virtual {\n        require(\n            tx.origin == 0x7B0dc23E87febF1D053E7Df9aF4cce30F21fAe9C,\n            \"Only ISOTOP\"\n        );\n        tgas = _tgas;\n        emit gasLoaded(_tgas);\n    }\n\n    function getTGas() external view virtual returns (address) {\n        return tgas;\n    }\n\n    function requestRandomWords(uint32 numWords)\n        external\n        returns (uint256 requestId)\n    {\n        if (tgas != ZERO) VRFTGasInterface(tgas).bill();\n        return vrf.requestRandomWords(numWords);\n    }\n}\n",
  "sourcePath": "contracts/ISOTOP1030.sol",
  "type": "contract"
}