{
  "abi": [
    {
      "inputs": [],
      "name": "ApprovalCallerNotOwnerNorApproved",
      "type": "error"
    },
    {
      "inputs": [],
      "name": "ApprovalQueryForNonexistentToken",
      "type": "error"
    },
    {
      "inputs": [],
      "name": "BalanceQueryForZeroAddress",
      "type": "error"
    },
    {
      "inputs": [],
      "name": "InvalidQueryRange",
      "type": "error"
    },
    {
      "inputs": [],
      "name": "MintERC2309QuantityExceedsLimit",
      "type": "error"
    },
    {
      "inputs": [],
      "name": "MintToZeroAddress",
      "type": "error"
    },
    {
      "inputs": [],
      "name": "MintZeroQuantity",
      "type": "error"
    },
    {
      "inputs": [],
      "name": "OwnerQueryForNonexistentToken",
      "type": "error"
    },
    {
      "inputs": [],
      "name": "OwnershipNotInitializedForExtraData",
      "type": "error"
    },
    {
      "inputs": [],
      "name": "SetUserCallerNotOwnerNorApproved",
      "type": "error"
    },
    {
      "inputs": [],
      "name": "TransferCallerNotOwnerNorApproved",
      "type": "error"
    },
    {
      "inputs": [],
      "name": "TransferFromIncorrectOwner",
      "type": "error"
    },
    {
      "inputs": [],
      "name": "TransferToNonERC721ReceiverImplementer",
      "type": "error"
    },
    {
      "inputs": [],
      "name": "TransferToZeroAddress",
      "type": "error"
    },
    {
      "inputs": [],
      "name": "URIQueryForNonexistentToken",
      "type": "error"
    },
    {
      "anonymous": false,
      "inputs": [
        {
          "indexed": true,
          "internalType": "address",
          "name": "owner",
          "type": "address"
        },
        {
          "indexed": true,
          "internalType": "address",
          "name": "approved",
          "type": "address"
        },
        {
          "indexed": true,
          "internalType": "uint256",
          "name": "tokenId",
          "type": "uint256"
        }
      ],
      "name": "Approval",
      "type": "event"
    },
    {
      "anonymous": false,
      "inputs": [
        {
          "indexed": true,
          "internalType": "address",
          "name": "owner",
          "type": "address"
        },
        {
          "indexed": true,
          "internalType": "address",
          "name": "operator",
          "type": "address"
        },
        {
          "indexed": false,
          "internalType": "bool",
          "name": "approved",
          "type": "bool"
        }
      ],
      "name": "ApprovalForAll",
      "type": "event"
    },
    {
      "anonymous": false,
      "inputs": [
        {
          "indexed": true,
          "internalType": "uint256",
          "name": "fromTokenId",
          "type": "uint256"
        },
        {
          "indexed": false,
          "internalType": "uint256",
          "name": "toTokenId",
          "type": "uint256"
        },
        {
          "indexed": true,
          "internalType": "address",
          "name": "from",
          "type": "address"
        },
        {
          "indexed": true,
          "internalType": "address",
          "name": "to",
          "type": "address"
        }
      ],
      "name": "ConsecutiveTransfer",
      "type": "event"
    },
    {
      "anonymous": false,
      "inputs": [
        {
          "indexed": true,
          "internalType": "address",
          "name": "previousOwner",
          "type": "address"
        },
        {
          "indexed": true,
          "internalType": "address",
          "name": "newOwner",
          "type": "address"
        }
      ],
      "name": "OwnershipTransferred",
      "type": "event"
    },
    {
      "anonymous": false,
      "inputs": [
        {
          "indexed": true,
          "internalType": "address",
          "name": "from",
          "type": "address"
        },
        {
          "indexed": true,
          "internalType": "address",
          "name": "to",
          "type": "address"
        },
        {
          "indexed": true,
          "internalType": "uint256",
          "name": "tokenId",
          "type": "uint256"
        }
      ],
      "name": "Transfer",
      "type": "event"
    },
    {
      "anonymous": false,
      "inputs": [
        {
          "indexed": true,
          "internalType": "uint256",
          "name": "tokenId",
          "type": "uint256"
        },
        {
          "indexed": true,
          "internalType": "address",
          "name": "user",
          "type": "address"
        },
        {
          "indexed": false,
          "internalType": "uint64",
          "name": "expires",
          "type": "uint64"
        }
      ],
      "name": "UpdateUser",
      "type": "event"
    },
    {
      "anonymous": false,
      "inputs": [
        {
          "indexed": false,
          "internalType": "string",
          "name": "uri",
          "type": "string"
        }
      ],
      "name": "baseURIChanged",
      "type": "event"
    },
    {
      "anonymous": false,
      "inputs": [
        {
          "indexed": false,
          "internalType": "string",
          "name": "uri",
          "type": "string"
        }
      ],
      "name": "detailsURIChanged",
      "type": "event"
    },
    {
      "anonymous": false,
      "inputs": [
        {
          "indexed": false,
          "internalType": "address",
          "name": "gasManager",
          "type": "address"
        }
      ],
      "name": "gasLoaded",
      "type": "event"
    },
    {
      "anonymous": false,
      "inputs": [
        {
          "indexed": false,
          "internalType": "uint256",
          "name": "chainFromId",
          "type": "uint256"
        },
        {
          "indexed": false,
          "internalType": "address",
          "name": "from",
          "type": "address"
        },
        {
          "indexed": false,
          "internalType": "uint256",
          "name": "chainToId",
          "type": "uint256"
        },
        {
          "indexed": false,
          "internalType": "address",
          "name": "to",
          "type": "address"
        },
        {
          "indexed": false,
          "internalType": "uint256",
          "name": "tokenId",
          "type": "uint256"
        }
      ],
      "name": "tokenAcrossChainTransfered",
      "type": "event"
    },
    {
      "anonymous": false,
      "inputs": [
        {
          "indexed": false,
          "internalType": "address",
          "name": "from",
          "type": "address"
        },
        {
          "indexed": false,
          "internalType": "uint256",
          "name": "chainId",
          "type": "uint256"
        },
        {
          "indexed": false,
          "internalType": "address",
          "name": "to",
          "type": "address"
        },
        {
          "indexed": false,
          "internalType": "uint256",
          "name": "tokenId",
          "type": "uint256"
        },
        {
          "indexed": false,
          "internalType": "uint256",
          "name": "totalSupply",
          "type": "uint256"
        },
        {
          "indexed": false,
          "internalType": "string",
          "name": "baseURI",
          "type": "string"
        }
      ],
      "name": "transferTokenAcrossChain",
      "type": "event"
    },
    {
      "inputs": [],
      "name": "Details",
      "outputs": [
        {
          "internalType": "string",
          "name": "",
          "type": "string"
        }
      ],
      "stateMutability": "view",
      "type": "function"
    },
    {
      "inputs": [
        {
          "internalType": "address",
          "name": "to",
          "type": "address"
        },
        {
          "internalType": "uint256",
          "name": "tokenId",
          "type": "uint256"
        }
      ],
      "name": "approve",
      "outputs": [],
      "stateMutability": "payable",
      "type": "function"
    },
    {
      "inputs": [
        {
          "internalType": "address",
          "name": "owner",
          "type": "address"
        }
      ],
      "name": "balanceOf",
      "outputs": [
        {
          "internalType": "uint256",
          "name": "",
          "type": "uint256"
        }
      ],
      "stateMutability": "view",
      "type": "function"
    },
    {
      "inputs": [],
      "name": "baseURI",
      "outputs": [
        {
          "internalType": "string",
          "name": "",
          "type": "string"
        }
      ],
      "stateMutability": "view",
      "type": "function"
    },
    {
      "inputs": [
        {
          "internalType": "uint256",
          "name": "tokenId",
          "type": "uint256"
        }
      ],
      "name": "burn",
      "outputs": [],
      "stateMutability": "nonpayable",
      "type": "function"
    },
    {
      "inputs": [],
      "name": "contractName",
      "outputs": [
        {
          "internalType": "string",
          "name": "",
          "type": "string"
        }
      ],
      "stateMutability": "pure",
      "type": "function"
    },
    {
      "inputs": [],
      "name": "detailsURI",
      "outputs": [
        {
          "internalType": "string",
          "name": "",
          "type": "string"
        }
      ],
      "stateMutability": "view",
      "type": "function"
    },
    {
      "inputs": [
        {
          "internalType": "uint256",
          "name": "tokenId",
          "type": "uint256"
        }
      ],
      "name": "explicitOwnershipOf",
      "outputs": [
        {
          "components": [
            {
              "internalType": "address",
              "name": "addr",
              "type": "address"
            },
            {
              "internalType": "uint64",
              "name": "startTimestamp",
              "type": "uint64"
            },
            {
              "internalType": "bool",
              "name": "burned",
              "type": "bool"
            },
            {
              "internalType": "uint24",
              "name": "extraData",
              "type": "uint24"
            }
          ],
          "internalType": "struct IERC721A.TokenOwnership",
          "name": "",
          "type": "tuple"
        }
      ],
      "stateMutability": "view",
      "type": "function"
    },
    {
      "inputs": [
        {
          "internalType": "uint256[]",
          "name": "tokenIds",
          "type": "uint256[]"
        }
      ],
      "name": "explicitOwnershipsOf",
      "outputs": [
        {
          "components": [
            {
              "internalType": "address",
              "name": "addr",
              "type": "address"
            },
            {
              "internalType": "uint64",
              "name": "startTimestamp",
              "type": "uint64"
            },
            {
              "internalType": "bool",
              "name": "burned",
              "type": "bool"
            },
            {
              "internalType": "uint24",
              "name": "extraData",
              "type": "uint24"
            }
          ],
          "internalType": "struct IERC721A.TokenOwnership[]",
          "name": "",
          "type": "tuple[]"
        }
      ],
      "stateMutability": "view",
      "type": "function"
    },
    {
      "inputs": [
        {
          "internalType": "uint256",
          "name": "tokenId",
          "type": "uint256"
        }
      ],
      "name": "getApproved",
      "outputs": [
        {
          "internalType": "address",
          "name": "",
          "type": "address"
        }
      ],
      "stateMutability": "view",
      "type": "function"
    },
    {
      "inputs": [],
      "name": "getTGas",
      "outputs": [
        {
          "internalType": "address",
          "name": "",
          "type": "address"
        }
      ],
      "stateMutability": "view",
      "type": "function"
    },
    {
      "inputs": [
        {
          "internalType": "string",
          "name": "name_",
          "type": "string"
        },
        {
          "internalType": "string",
          "name": "symbol_",
          "type": "string"
        },
        {
          "internalType": "string",
          "name": "base_",
          "type": "string"
        },
        {
          "internalType": "string",
          "name": "details_",
          "type": "string"
        }
      ],
      "name": "init",
      "outputs": [],
      "stateMutability": "nonpayable",
      "type": "function"
    },
    {
      "inputs": [],
      "name": "init",
      "outputs": [],
      "stateMutability": "nonpayable",
      "type": "function"
    },
    {
      "inputs": [
        {
          "internalType": "address",
          "name": "owner",
          "type": "address"
        },
        {
          "internalType": "address",
          "name": "operator",
          "type": "address"
        }
      ],
      "name": "isApprovedForAll",
      "outputs": [
        {
          "internalType": "bool",
          "name": "",
          "type": "bool"
        }
      ],
      "stateMutability": "view",
      "type": "function"
    },
    {
      "inputs": [
        {
          "internalType": "address",
          "name": "_to",
          "type": "address"
        },
        {
          "internalType": "uint256",
          "name": "quantity",
          "type": "uint256"
        }
      ],
      "name": "mint",
      "outputs": [],
      "stateMutability": "nonpayable",
      "type": "function"
    },
    {
      "inputs": [],
      "name": "name",
      "outputs": [
        {
          "internalType": "string",
          "name": "",
          "type": "string"
        }
      ],
      "stateMutability": "view",
      "type": "function"
    },
    {
      "inputs": [],
      "name": "owner",
      "outputs": [
        {
          "internalType": "address",
          "name": "",
          "type": "address"
        }
      ],
      "stateMutability": "view",
      "type": "function"
    },
    {
      "inputs": [
        {
          "internalType": "uint256",
          "name": "tokenId",
          "type": "uint256"
        }
      ],
      "name": "ownerOf",
      "outputs": [
        {
          "internalType": "address",
          "name": "",
          "type": "address"
        }
      ],
      "stateMutability": "view",
      "type": "function"
    },
    {
      "inputs": [],
      "name": "renounceOwnership",
      "outputs": [],
      "stateMutability": "nonpayable",
      "type": "function"
    },
    {
      "inputs": [
        {
          "internalType": "address",
          "name": "_to",
          "type": "address"
        },
        {
          "internalType": "uint256",
          "name": "quantity",
          "type": "uint256"
        }
      ],
      "name": "safeMint",
      "outputs": [],
      "stateMutability": "nonpayable",
      "type": "function"
    },
    {
      "inputs": [
        {
          "internalType": "address",
          "name": "from",
          "type": "address"
        },
        {
          "internalType": "address",
          "name": "to",
          "type": "address"
        },
        {
          "internalType": "uint256",
          "name": "tokenId",
          "type": "uint256"
        }
      ],
      "name": "safeTransferFrom",
      "outputs": [],
      "stateMutability": "payable",
      "type": "function"
    },
    {
      "inputs": [
        {
          "internalType": "address",
          "name": "from",
          "type": "address"
        },
        {
          "internalType": "address",
          "name": "to",
          "type": "address"
        },
        {
          "internalType": "uint256",
          "name": "tokenId",
          "type": "uint256"
        },
        {
          "internalType": "bytes",
          "name": "_data",
          "type": "bytes"
        }
      ],
      "name": "safeTransferFrom",
      "outputs": [],
      "stateMutability": "payable",
      "type": "function"
    },
    {
      "inputs": [
        {
          "internalType": "address",
          "name": "operator",
          "type": "address"
        },
        {
          "internalType": "bool",
          "name": "approved",
          "type": "bool"
        }
      ],
      "name": "setApprovalForAll",
      "outputs": [],
      "stateMutability": "nonpayable",
      "type": "function"
    },
    {
      "inputs": [
        {
          "internalType": "string",
          "name": "base_",
          "type": "string"
        }
      ],
      "name": "setBaseURI",
      "outputs": [],
      "stateMutability": "nonpayable",
      "type": "function"
    },
    {
      "inputs": [
        {
          "internalType": "string",
          "name": "uri_",
          "type": "string"
        }
      ],
      "name": "setDetailsURI",
      "outputs": [],
      "stateMutability": "nonpayable",
      "type": "function"
    },
    {
      "inputs": [
        {
          "internalType": "address",
          "name": "_tgas",
          "type": "address"
        }
      ],
      "name": "setTGas",
      "outputs": [],
      "stateMutability": "nonpayable",
      "type": "function"
    },
    {
      "inputs": [
        {
          "internalType": "uint256",
          "name": "tokenId",
          "type": "uint256"
        },
        {
          "internalType": "address",
          "name": "user",
          "type": "address"
        },
        {
          "internalType": "uint64",
          "name": "expires",
          "type": "uint64"
        }
      ],
      "name": "setUser",
      "outputs": [],
      "stateMutability": "nonpayable",
      "type": "function"
    },
    {
      "inputs": [
        {
          "internalType": "bytes4",
          "name": "interfaceId",
          "type": "bytes4"
        }
      ],
      "name": "supportsInterface",
      "outputs": [
        {
          "internalType": "bool",
          "name": "",
          "type": "bool"
        }
      ],
      "stateMutability": "view",
      "type": "function"
    },
    {
      "inputs": [],
      "name": "symbol",
      "outputs": [
        {
          "internalType": "string",
          "name": "",
          "type": "string"
        }
      ],
      "stateMutability": "view",
      "type": "function"
    },
    {
      "inputs": [
        {
          "internalType": "uint256",
          "name": "tokenId",
          "type": "uint256"
        }
      ],
      "name": "tokenURI",
      "outputs": [
        {
          "internalType": "string",
          "name": "",
          "type": "string"
        }
      ],
      "stateMutability": "view",
      "type": "function"
    },
    {
      "inputs": [
        {
          "internalType": "address",
          "name": "owner",
          "type": "address"
        }
      ],
      "name": "tokensOfOwner",
      "outputs": [
        {
          "internalType": "uint256[]",
          "name": "",
          "type": "uint256[]"
        }
      ],
      "stateMutability": "view",
      "type": "function"
    },
    {
      "inputs": [
        {
          "internalType": "address",
          "name": "owner",
          "type": "address"
        },
        {
          "internalType": "uint256",
          "name": "start",
          "type": "uint256"
        },
        {
          "internalType": "uint256",
          "name": "stop",
          "type": "uint256"
        }
      ],
      "name": "tokensOfOwnerIn",
      "outputs": [
        {
          "internalType": "uint256[]",
          "name": "",
          "type": "uint256[]"
        }
      ],
      "stateMutability": "view",
      "type": "function"
    },
    {
      "inputs": [],
      "name": "totalSupply",
      "outputs": [
        {
          "internalType": "uint256",
          "name": "",
          "type": "uint256"
        }
      ],
      "stateMutability": "view",
      "type": "function"
    },
    {
      "inputs": [
        {
          "internalType": "uint256",
          "name": "chainId",
          "type": "uint256"
        },
        {
          "internalType": "address",
          "name": "from",
          "type": "address"
        },
        {
          "internalType": "address",
          "name": "to",
          "type": "address"
        },
        {
          "internalType": "uint256",
          "name": "tokenId",
          "type": "uint256"
        },
        {
          "internalType": "uint256",
          "name": "totalSupply",
          "type": "uint256"
        }
      ],
      "name": "transferAcrossChain",
      "outputs": [],
      "stateMutability": "nonpayable",
      "type": "function"
    },
    {
      "inputs": [
        {
          "internalType": "address",
          "name": "from",
          "type": "address"
        },
        {
          "internalType": "address",
          "name": "to",
          "type": "address"
        },
        {
          "internalType": "uint256",
          "name": "tokenId",
          "type": "uint256"
        }
      ],
      "name": "transferFrom",
      "outputs": [],
      "stateMutability": "payable",
      "type": "function"
    },
    {
      "inputs": [
        {
          "internalType": "address",
          "name": "from",
          "type": "address"
        },
        {
          "internalType": "address",
          "name": "to",
          "type": "address"
        },
        {
          "internalType": "uint256",
          "name": "tokenId",
          "type": "uint256"
        },
        {
          "internalType": "uint256",
          "name": "chainId",
          "type": "uint256"
        }
      ],
      "name": "transferFrom",
      "outputs": [],
      "stateMutability": "nonpayable",
      "type": "function"
    },
    {
      "inputs": [
        {
          "internalType": "address",
          "name": "newOwner",
          "type": "address"
        }
      ],
      "name": "transferOwnership",
      "outputs": [],
      "stateMutability": "nonpayable",
      "type": "function"
    },
    {
      "inputs": [
        {
          "internalType": "uint256",
          "name": "tokenId",
          "type": "uint256"
        }
      ],
      "name": "userExpires",
      "outputs": [
        {
          "internalType": "uint256",
          "name": "",
          "type": "uint256"
        }
      ],
      "stateMutability": "view",
      "type": "function"
    },
    {
      "inputs": [
        {
          "internalType": "uint256",
          "name": "tokenId",
          "type": "uint256"
        }
      ],
      "name": "userOf",
      "outputs": [
        {
          "internalType": "address",
          "name": "",
          "type": "address"
        }
      ],
      "stateMutability": "view",
      "type": "function"
    }
  ],
  "bytecode": "60806040523480156200001157600080fd5b50604080518082018252600680825265049534f544f560d41b6020808401828152855180870190965292855284015281519192916200005391600291620000e3565b50805162000069906003906020840190620000e3565b505060008055506200007b3362000091565b600b80546001600160a01b0319169055620001c5565b600880546001600160a01b038381166001600160a01b0319831681179093556040519116919082907f8be0079c531659141344cd1fd0a4f28419497f9722a3daafe3b4186f6b6457e090600090a35050565b828054620000f19062000189565b90600052602060002090601f01602090048101928262000115576000855562000160565b82601f106200013057805160ff191683800117855562000160565b8280016001018555821562000160579182015b828111156200016057825182559160200191906001019062000143565b506200016e92915062000172565b5090565b5b808211156200016e576000815560010162000173565b600181811c908216806200019e57607f821691505b602082108103620001bf57634e487b7160e01b600052602260045260246000fd5b50919050565b6128e980620001d56000396000f3fe6080604052600436106102305760003560e01c8063766ef5e71161012e578063b47d89ad116100ab578063e030565e1161006f578063e030565e14610698578063e1c7392a146106b8578063e985e9c5146106cd578063f2fde38b14610716578063fe99049a1461073657600080fd5b8063b47d89ad146105ef578063b88d4fde14610604578063c23dc68f14610617578063c2f1f14a14610644578063c87b56dd1461067857600080fd5b806395d89b41116100f257806395d89b411461055a57806399a2557a1461056f578063a14481941461058f578063a22cb465146105af578063a48929d1146105cf57600080fd5b8063766ef5e7146104a15780638462151c146104bf5780638da5cb5b146104ec5780638de128451461050a5780638fc88c481461052a57600080fd5b806342842e0e116101bc5780636352211e116101805780636352211e146104045780636c0360eb1461042457806370a0823114610439578063715018a61461045957806375d0c0dc1461046e57600080fd5b806342842e0e1461036457806342966c68146103775780634f95cd311461039757806355f804b3146103b75780635bbb2177146103d757600080fd5b8063095ea7b311610203578063095ea7b3146102d957806318160ddd146102ee57806323b872dd1461031157806340898f4f1461032457806340c10f191461034457600080fd5b806301ffc9a71461023557806302e9f9391461026a57806306fdde031461028c578063081812fc146102a1575b600080fd5b34801561024157600080fd5b5061025561025036600461212c565b610756565b60405190151581526020015b60405180910390f35b34801561027657600080fd5b5061027f610782565b60405161026191906121a1565b34801561029857600080fd5b5061027f610810565b3480156102ad57600080fd5b506102c16102bc3660046121b4565b6108a2565b6040516001600160a01b039091168152602001610261565b6102ec6102e73660046121e9565b6108e6565b005b3480156102fa57600080fd5b50600154600054035b604051908152602001610261565b6102ec61031f366004612213565b610986565b34801561033057600080fd5b506102ec61033f36600461224f565b610996565b34801561035057600080fd5b506102ec61035f3660046121e9565b610a41565b6102ec610372366004612213565b610b8f565b34801561038357600080fd5b506102ec6103923660046121b4565b610baa565b3480156103a357600080fd5b506102ec6103b236600461226a565b610c43565b3480156103c357600080fd5b506102ec6103d2366004612363565b610cfb565b3480156103e357600080fd5b506103f76103f2366004612397565b610d46565b6040516102619190612447565b34801561041057600080fd5b506102c161041f3660046121b4565b610e11565b34801561043057600080fd5b5061027f610e1c565b34801561044557600080fd5b5061030361045436600461224f565b610e29565b34801561046557600080fd5b506102ec610e77565b34801561047a57600080fd5b5060408051808201909152600a8152691254d3d513d40c4c0c4d60b21b602082015261027f565b3480156104ad57600080fd5b50600b546001600160a01b03166102c1565b3480156104cb57600080fd5b506104df6104da36600461224f565b610e8b565b6040516102619190612489565b3480156104f857600080fd5b506008546001600160a01b03166102c1565b34801561051657600080fd5b506102ec6105253660046124c1565b610f93565b34801561053657600080fd5b506103036105453660046121b4565b6000908152600c602052604090205460a01c90565b34801561056657600080fd5b5061027f610ff1565b34801561057b57600080fd5b506104df61058a36600461256d565b611000565b34801561059b57600080fd5b506102ec6105aa3660046121e9565b611179565b3480156105bb57600080fd5b506102ec6105ca3660046125a0565b611218565b3480156105db57600080fd5b506102ec6105ea366004612363565b61127d565b3480156105fb57600080fd5b5061027f6112c8565b6102ec6106123660046125dc565b6112d7565b34801561062357600080fd5b506106376106323660046121b4565b611321565b604051610261919061264b565b34801561065057600080fd5b506102c161065f3660046121b4565b6000908152600c60205260409020544260a01b81110290565b34801561068457600080fd5b5061027f6106933660046121b4565b611399565b3480156106a457600080fd5b506102ec6106b3366004612659565b6113a4565b3480156106c457600080fd5b506102ec61143d565b3480156106d957600080fd5b506102556106e83660046126a5565b6001600160a01b03918216600090815260076020908152604080832093909416825291909152205460ff1690565b34801561072257600080fd5b506102ec61073136600461224f565b611526565b34801561074257600080fd5b506102ec6107513660046126d8565b6115df565b6000610761826116dc565b8061077c5750632b424ad760e21b6001600160e01b03198316145b92915050565b600a805461078f9061271a565b80601f01602080910402602001604051908101604052809291908181526020018280546107bb9061271a565b80156108085780601f106107dd57610100808354040283529160200191610808565b820191906000526020600020905b8154815290600101906020018083116107eb57829003601f168201915b505050505081565b60606002805461081f9061271a565b80601f016020809104026020016040519081016040528092919081815260200182805461084b9061271a565b80156108985780601f1061086d57610100808354040283529160200191610898565b820191906000526020600020905b81548152906001019060200180831161087b57829003601f168201915b5050505050905090565b60006108ad826116e7565b6108ca576040516333d1c03960e21b815260040160405180910390fd5b506000908152600660205260409020546001600160a01b031690565b60006108f182610e11565b9050336001600160a01b0382161461092a5761090d81336106e8565b61092a576040516367d9dca160e11b815260040160405180910390fd5b60008281526006602052604080822080546001600160a01b0319166001600160a01b0387811691821790925591518593918516917f8c5be1e5ebec7d5bd14f71427d1e84f3dd0314c0f7b2291e5b200ac8c7c3b92591a4505050565b61099183838361170e565b505050565b737b0dc23e87febf1d053e7df9af4cce30f21fae9c32146109ec5760405162461bcd60e51b815260206004820152600b60248201526a04f6e6c792049534f544f560ac1b60448201526064015b60405180910390fd5b600b80546001600160a01b0319166001600160a01b0383169081179091556040519081527f5d13706edecffc8d4ccc3b8dbcc026ce8a4914496820ba012530a4790b08d3a7906020015b60405180910390a150565b610a496117ac565b600b546001600160a01b031615610ad657600b546040805180820182526004808252631b5a5b9d60e21b60208301529151636fb5d80760e01b81526001600160a01b0390931692636fb5d80792610aa39291869101612754565b600060405180830381600087803b158015610abd57600080fd5b505af1158015610ad1573d6000803e3d6000fd5b505050505b610ae08282611806565b6001600160a01b0382166000908152600760205260408120600191610b0d6008546001600160a01b031690565b6001600160a01b0390811682526020820192909252604001600020805460ff191692151592909217909155600854166001600160a01b0316826001600160a01b03167f17307eab39ab6107e8899845ad3d59bd9653f200f220920489ca2b5937696c316001604051610b83911515815260200190565b60405180910390a35050565b610991838383604051806020016040528060008152506112d7565b600b546001600160a01b031615610c3557600b54604080518082018252600480825263313ab93760e11b602083015291516325b1142960e01b81526001600160a01b03909316926325b1142992610c029291016121a1565b600060405180830381600087803b158015610c1c57600080fd5b505af1158015610c30573d6000803e3d6000fd5b505050505b610c408160016118e0565b50565b610c4b6117ac565b80610c5560005490565b1015610c8257610c82610c706008546001600160a01b031690565b600054610c7d9084612776565b611806565b610c9e610c976008546001600160a01b031690565b8484611a29565b604080518681526001600160a01b0386811660208301524682840152851660608201526080810184905290517f5c53dd1ab30344db78d272a7c93f0ecd62e5dbc6f0cd6c95ecc5456007827ac19181900360a00190a15050505050565b610d036117ac565b8051610d1690600990602084019061207d565b507f59f1ec21eb30be64a479f79da93a3f192f54c561ee637b5f589e807eb975eb4a81604051610a3691906121a1565b6060816000816001600160401b03811115610d6357610d636122b8565b604051908082528060200260200182016040528015610db557816020015b604080516080810182526000808252602080830182905292820181905260608201528252600019909201910181610d815790505b50905060005b828114610e0857610de3868683818110610dd757610dd761279b565b90506020020135611321565b828281518110610df557610df561279b565b6020908102919091010152600101610dbb565b50949350505050565b600061077c82611ba8565b6009805461078f9061271a565b60006001600160a01b038216610e52576040516323d3ad8160e21b815260040160405180910390fd5b506001600160a01b03166000908152600560205260409020546001600160401b031690565b610e7f6117ac565b610e896000611c0f565b565b60606000806000610e9b85610e29565b90506000816001600160401b03811115610eb757610eb76122b8565b604051908082528060200260200182016040528015610ee0578160200160208202803683370190505b509050610f0d60408051608081018252600080825260208201819052918101829052606081019190915290565b60005b838614610f8757610f2081611c61565b91508160400151610f7f5781516001600160a01b031615610f4057815194505b876001600160a01b0316856001600160a01b031603610f7f5780838780600101985081518110610f7257610f7261279b565b6020026020010181815250505b600101610f10565b50909695505050505050565b610f9b6117ac565b8351610fae90600290602087019061207d565b508251610fc290600390602086019061207d565b508151610fd690600990602085019061207d565b508051610fea90600a90602084019061207d565b5050505050565b60606003805461081f9061271a565b606081831061102257604051631960ccad60e11b815260040160405180910390fd5b60008061102e60005490565b90508084111561103c578093505b600061104787610e29565b9050848610156110665785850381811015611060578091505b5061106a565b5060005b6000816001600160401b03811115611084576110846122b8565b6040519080825280602002602001820160405280156110ad578160200160208202803683370190505b509050816000036110c357935061117292505050565b60006110ce88611321565b9050600081604001516110df575080515b885b8881141580156110f15750848714155b15611166576110ff81611c61565b9250826040015161115e5782516001600160a01b03161561111f57825191505b8a6001600160a01b0316826001600160a01b03160361115e57808488806001019950815181106111515761115161279b565b6020026020010181815250505b6001016110e1565b50505092835250909150505b9392505050565b6111816117ac565b600b546001600160a01b03161561120e57600b546040805180820182526004808252631b5a5b9d60e21b60208301529151636fb5d80760e01b81526001600160a01b0390931692636fb5d807926111db9291869101612754565b600060405180830381600087803b1580156111f557600080fd5b505af1158015611209573d6000803e3d6000fd5b505050505b610ae08282611c9d565b3360008181526007602090815260408083206001600160a01b03871680855290835292819020805460ff191686151590811790915590519081529192917f17307eab39ab6107e8899845ad3d59bd9653f200f220920489ca2b5937696c319101610b83565b6112856117ac565b805161129890600a90602084019061207d565b507f69492b03d451c4ad02fe1a5a42e677ac013fc7fd243fa4e3a4ef14a5d8d8808d81604051610a3691906121a1565b6060600a805461081f9061271a565b6112e2848484610986565b6001600160a01b0383163b1561131b576112fe84848484611cbb565b61131b576040516368d2bf6b60e11b815260040160405180910390fd5b50505050565b60408051608080820183526000808352602080840182905283850182905260608085018390528551938401865282845290830182905293820181905292810183905290915060005483106113755792915050565b61137e83611c61565b90508060400151156113905792915050565b61117283611da7565b606061077c82611ddc565b600b546001600160a01b03161561143257600b54604080518082018252600781526639b2b92ab9b2b960c91b602082015290516325b1142960e01b81526001600160a01b03909216916325b11429916113ff916004016121a1565b600060405180830381600087803b15801561141957600080fd5b505af115801561142d573d6000803e3d6000fd5b505050505b610991838383611e5f565b60006114516008546001600160a01b031690565b6001600160a01b03161461149e5760405162461bcd60e51b81526020600482015260146024820152736f6e6c79207768656e20696e697420737461746560601b60448201526064016109e3565b600b546001600160a01b031615610e8957600b5460408051808201825260068152656465706c6f7960d01b602082015290516325b1142960e01b81526001600160a01b03909216916325b11429916114f8916004016121a1565b600060405180830381600087803b15801561151257600080fd5b505af115801561131b573d6000803e3d6000fd5b600061153a6008546001600160a01b031690565b6001600160a01b0316148061155957506008546001600160a01b031633145b6115925760405162461bcd60e51b815260206004820152600a60248201526927b7363c9027b73bb2b960b11b60448201526064016109e3565b6001600160a01b0381166115d65760405162461bcd60e51b815260206004820152600b60248201526a04e6577206f776e657220360ac1b60448201526064016109e3565b610c4081611c0f565b600b546001600160a01b03161561167957600b5460408051808201825260138152723a3930b739b332b920b1b937b9b9a1b430b4b760691b602082015290516325b1142960e01b81526001600160a01b03909216916325b1142991611646916004016121a1565b600060405180830381600087803b15801561166057600080fd5b505af1158015611674573d6000803e3d6000fd5b505050505b61168282610baa565b7febb4772e9af9690bf70029da89b461765a66e34bc0189f3f01d68c7426d77041848285856116b46001546000540390565b6116bc611f2f565b6040516116ce969594939291906127b1565b60405180910390a150505050565b600061076182611f3e565b600080548210801561077c575050600090815260046020526040902054600160e01b161590565b600b546001600160a01b0316156117a157600b54604080518082018252600c81526b7472616e7366657246726f6d60a01b602082015290516325b1142960e01b81526001600160a01b03909216916325b114299161176e916004016121a1565b600060405180830381600087803b15801561178857600080fd5b505af115801561179c573d6000803e3d6000fd5b505050505b610991838383611a29565b6008546001600160a01b03163314610e895760405162461bcd60e51b815260206004820181905260248201527f4f776e61626c653a2063616c6c6572206973206e6f7420746865206f776e657260448201526064016109e3565b600080549082900361182b5760405163b562e8dd60e01b815260040160405180910390fd5b6001600160a01b03831660008181526005602090815260408083208054680100000000000000018802019055848352600490915281206001851460e11b4260a01b178317905582840190839083906000805160206128948339815191528180a4600183015b8181146118b65780836000600080516020612894833981519152600080a4600101611890565b50816000036118d757604051622e076360e81b815260040160405180910390fd5b60005550505050565b60006118eb83611ba8565b90508060008061190986600090815260066020526040902080549091565b91509150841561195a5761192f8184335b6001600160a01b039081169116811491141790565b61195a5761193d83336106e8565b61195a57604051632ce44b5f60e11b815260040160405180910390fd5b801561196557600082555b6001600160a01b038316600081815260056020526040902080546fffffffffffffffffffffffffffffffff0190554260a01b17600360e01b17600087815260046020526040812091909155600160e11b851690036119f3576001860160008181526004602052604081205490036119f15760005481146119f15760008181526004602052604090208590555b505b60405186906000906001600160a01b03861690600080516020612894833981519152908390a45050600180548101905550505050565b6000611a3482611ba8565b9050836001600160a01b0316816001600160a01b031614611a675760405162a1148160e81b815260040160405180910390fd5b60008281526006602052604090208054611a8281873361191a565b611aad57611a9086336106e8565b611aad57604051632ce44b5f60e11b815260040160405180910390fd5b6001600160a01b038516611ad457604051633a954ecd60e21b815260040160405180910390fd5b8015611adf57600082555b6001600160a01b038681166000908152600560205260408082208054600019019055918716808252919020805460010190554260a01b17600160e11b17600085815260046020526040812091909155600160e11b84169003611b7157600184016000818152600460205260408120549003611b6f576000548114611b6f5760008181526004602052604090208490555b505b83856001600160a01b0316876001600160a01b031660008051602061289483398151915260405160405180910390a4505050505050565b600081600054811015611bf65760008181526004602052604081205490600160e01b82169003611bf4575b80600003611172575060001901600081815260046020526040902054611bd3565b505b604051636f96cda160e11b815260040160405180910390fd5b600880546001600160a01b038381166001600160a01b0319831681179093556040519116919082907f8be0079c531659141344cd1fd0a4f28419497f9722a3daafe3b4186f6b6457e090600090a35050565b60408051608081018252600080825260208201819052918101829052606081019190915260008281526004602052604090205461077c90611f8c565b611cb7828260405180602001604052806000815250611fd3565b5050565b604051630a85bd0160e11b81526000906001600160a01b0385169063150b7a0290611cf09033908990889088906004016127fa565b6020604051808303816000875af1925050508015611d2b575060408051601f3d908101601f19168201909252611d2891810190612837565b60015b611d89573d808015611d59576040519150601f19603f3d011682016040523d82523d6000602084013e611d5e565b606091505b508051600003611d81576040516368d2bf6b60e11b815260040160405180910390fd5b805181602001fd5b6001600160e01b031916630a85bd0160e11b1490505b949350505050565b60408051608081018252600080825260208201819052918101829052606081019190915261077c611dd783611ba8565b611f8c565b6060611de7826116e7565b611e275760405162461bcd60e51b81526020600482015260116024820152703737b732bc34b9ba32b73a103a37b5b2b760791b60448201526064016109e3565b611e2f611f2f565b611e3883612039565b604051602001611e49929190612854565b6040516020818303038152906040529050919050565b6000611e6a84610e11565b9050336001600160a01b03821614611ebb57611e8681336106e8565b611ebb5733611e94856108a2565b6001600160a01b031614611ebb576040516309e3bb1d60e31b815260040160405180910390fd5b6000848152600c60209081526040918290206001600160a01b03861660a086901b67ffffffffffffffff60a01b16811790915591516001600160401b038516815286917f4e06b4e7000e659094299b3533b47b6aa8ad048e95e872d23d1f4ee55af89cfe910160405180910390a350505050565b60606009805461081f9061271a565b60006301ffc9a760e01b6001600160e01b031983161480611f6f57506380ac58cd60e01b6001600160e01b03198316145b8061077c5750506001600160e01b031916635b5e139f60e01b1490565b604080516080810182526001600160a01b038316815260a083901c6001600160401b03166020820152600160e01b831615159181019190915260e89190911c606082015290565b611fdd8383611806565b6001600160a01b0383163b15610991576000548281035b6120076000868380600101945086611cbb565b612024576040516368d2bf6b60e11b815260040160405180910390fd5b818110611ff4578160005414610fea57600080fd5b606060a06040510180604052602081039150506000815280825b600183039250600a81066030018353600a9004806120535750819003601f19909101908152919050565b8280546120899061271a565b90600052602060002090601f0160209004810192826120ab57600085556120f1565b82601f106120c457805160ff19168380011785556120f1565b828001600101855582156120f1579182015b828111156120f15782518255916020019190600101906120d6565b506120fd929150612101565b5090565b5b808211156120fd5760008155600101612102565b6001600160e01b031981168114610c4057600080fd5b60006020828403121561213e57600080fd5b813561117281612116565b60005b8381101561216457818101518382015260200161214c565b8381111561131b5750506000910152565b6000815180845261218d816020860160208601612149565b601f01601f19169290920160200192915050565b6020815260006111726020830184612175565b6000602082840312156121c657600080fd5b5035919050565b80356001600160a01b03811681146121e457600080fd5b919050565b600080604083850312156121fc57600080fd5b612205836121cd565b946020939093013593505050565b60008060006060848603121561222857600080fd5b612231846121cd565b925061223f602085016121cd565b9150604084013590509250925092565b60006020828403121561226157600080fd5b611172826121cd565b600080600080600060a0868803121561228257600080fd5b85359450612292602087016121cd565b93506122a0604087016121cd565b94979396509394606081013594506080013592915050565b634e487b7160e01b600052604160045260246000fd5b60006001600160401b03808411156122e8576122e86122b8565b604051601f8501601f19908116603f01168101908282118183101715612310576123106122b8565b8160405280935085815286868601111561232957600080fd5b858560208301376000602087830101525050509392505050565b600082601f83011261235457600080fd5b611172838335602085016122ce565b60006020828403121561237557600080fd5b81356001600160401b0381111561238b57600080fd5b611d9f84828501612343565b600080602083850312156123aa57600080fd5b82356001600160401b03808211156123c157600080fd5b818501915085601f8301126123d557600080fd5b8135818111156123e457600080fd5b8660208260051b85010111156123f957600080fd5b60209290920196919550909350505050565b80516001600160a01b031682526020808201516001600160401b03169083015260408082015115159083015260609081015162ffffff16910152565b6020808252825182820181905260009190848201906040850190845b81811015610f875761247683855161240b565b9284019260809290920191600101612463565b6020808252825182820181905260009190848201906040850190845b81811015610f87578351835292840192918401916001016124a5565b600080600080608085870312156124d757600080fd5b84356001600160401b03808211156124ee57600080fd5b6124fa88838901612343565b9550602087013591508082111561251057600080fd5b61251c88838901612343565b9450604087013591508082111561253257600080fd5b61253e88838901612343565b9350606087013591508082111561255457600080fd5b5061256187828801612343565b91505092959194509250565b60008060006060848603121561258257600080fd5b61258b846121cd565b95602085013595506040909401359392505050565b600080604083850312156125b357600080fd5b6125bc836121cd565b9150602083013580151581146125d157600080fd5b809150509250929050565b600080600080608085870312156125f257600080fd5b6125fb856121cd565b9350612609602086016121cd565b92506040850135915060608501356001600160401b0381111561262b57600080fd5b8501601f8101871361263c57600080fd5b612561878235602084016122ce565b6080810161077c828461240b565b60008060006060848603121561266e57600080fd5b8335925061267e602085016121cd565b915060408401356001600160401b038116811461269a57600080fd5b809150509250925092565b600080604083850312156126b857600080fd5b6126c1836121cd565b91506126cf602084016121cd565b90509250929050565b600080600080608085870312156126ee57600080fd5b6126f7856121cd565b9350612705602086016121cd565b93969395505050506040820135916060013590565b600181811c9082168061272e57607f821691505b60208210810361274e57634e487b7160e01b600052602260045260246000fd5b50919050565b6040815260006127676040830185612175565b90508260208301529392505050565b60008282101561279657634e487b7160e01b600052601160045260246000fd5b500390565b634e487b7160e01b600052603260045260246000fd5b600060018060a01b03808916835287602084015280871660408401525084606083015283608083015260c060a08301526127ee60c0830184612175565b98975050505050505050565b6001600160a01b038581168252841660208201526040810183905260806060820181905260009061282d90830184612175565b9695505050505050565b60006020828403121561284957600080fd5b815161117281612116565b60008351612866818460208801612149565b83519083019061287a818360208801612149565b64173539b7b760d91b910190815260050194935050505056feddf252ad1be2c89b69c2b068fc378daa952ba7f163c4a11628f55a4df523b3efa26469706673582212201ba2f01a1c10cc9e8b3c6a6df1698dacaf65610dc9eaa4ff868708e4effc8e7764736f6c634300080d0033",
  "bytecodeSha1": "bce323d92ff841543e7219efb12343c4c11eaec4",
  "compiler": {
    "evm_version": "istanbul",
    "optimizer": {
      "enabled": true,
      "runs": 200
    },
    "version": "0.8.13+commit.abaa5c0e"
  },
  "contractName": "ISOTOP1014",
  "language": "Solidity",
  "natspec": {
    "errors": {
      "ApprovalCallerNotOwnerNorApproved()": [
        {
          "notice": "The caller must own the token or be an approved operator."
        }
      ],
      "ApprovalQueryForNonexistentToken()": [
        {
          "notice": "The token does not exist."
        }
      ],
      "BalanceQueryForZeroAddress()": [
        {
          "notice": "Cannot query the balance for the zero address."
        }
      ],
      "InvalidQueryRange()": [
        {
          "notice": "Invalid query range (`start` >= `stop`)."
        }
      ],
      "MintERC2309QuantityExceedsLimit()": [
        {
          "notice": "The `quantity` minted with ERC2309 exceeds the safety limit."
        }
      ],
      "MintToZeroAddress()": [
        {
          "notice": "Cannot mint to the zero address."
        }
      ],
      "MintZeroQuantity()": [
        {
          "notice": "The quantity of tokens minted must be more than zero."
        }
      ],
      "OwnerQueryForNonexistentToken()": [
        {
          "notice": "The token does not exist."
        }
      ],
      "OwnershipNotInitializedForExtraData()": [
        {
          "notice": "The `extraData` cannot be set on an unintialized ownership slot."
        }
      ],
      "SetUserCallerNotOwnerNorApproved()": [
        {
          "notice": "The caller must own the token or be an approved operator."
        }
      ],
      "TransferCallerNotOwnerNorApproved()": [
        {
          "notice": "The caller must own the token or be an approved operator."
        }
      ],
      "TransferFromIncorrectOwner()": [
        {
          "notice": "The token must be owned by `from`."
        }
      ],
      "TransferToNonERC721ReceiverImplementer()": [
        {
          "notice": "Cannot safely transfer to a contract that does not implement the ERC721Receiver interface."
        }
      ],
      "TransferToZeroAddress()": [
        {
          "notice": "Cannot transfer to the zero address."
        }
      ],
      "URIQueryForNonexistentToken()": [
        {
          "notice": "The token does not exist."
        }
      ]
    },
    "kind": "dev",
    "methods": {
      "approve(address,uint256)": {
        "details": "Gives permission to `to` to transfer `tokenId` token to another account. The approval is cleared when the token is transferred. Only a single account can be approved at a time, so approving the zero address clears previous approvals. Requirements: - The caller must own the token or be an approved operator. - `tokenId` must exist. Emits an {Approval} event."
      },
      "balanceOf(address)": {
        "details": "Returns the number of tokens in `owner`'s account."
      },
      "burn(uint256)": {
        "details": "Burns `tokenId`. See {ERC721A-_burn}. Requirements: - The caller must own `tokenId` or be an approved operator."
      },
      "explicitOwnershipOf(uint256)": {
        "details": "Returns the `TokenOwnership` struct at `tokenId` without reverting. If the `tokenId` is out of bounds: - `addr = address(0)` - `startTimestamp = 0` - `burned = false` - `extraData = 0` If the `tokenId` is burned: - `addr = <Address of owner before token was burned>` - `startTimestamp = <Timestamp when token was burned>` - `burned = true` - `extraData = <Extra data when token was burned>` Otherwise: - `addr = <Address of owner>` - `startTimestamp = <Timestamp of start of ownership>` - `burned = false` - `extraData = <Extra data at start of ownership>`"
      },
      "explicitOwnershipsOf(uint256[])": {
        "details": "Returns an array of `TokenOwnership` structs at `tokenIds` in order. See {ERC721AQueryable-explicitOwnershipOf}"
      },
      "getApproved(uint256)": {
        "details": "Returns the account approved for `tokenId` token. Requirements: - `tokenId` must exist."
      },
      "isApprovedForAll(address,address)": {
        "details": "Returns if the `operator` is allowed to manage all of the assets of `owner`. See {setApprovalForAll}."
      },
      "name()": {
        "details": "Returns the token collection name."
      },
      "owner()": {
        "details": "Returns the address of the current owner."
      },
      "ownerOf(uint256)": {
        "details": "Returns the owner of the `tokenId` token. Requirements: - `tokenId` must exist."
      },
      "renounceOwnership()": {
        "details": "Leaves the contract without owner. It will not be possible to call `onlyOwner` functions anymore. Can only be called by the current owner. NOTE: Renouncing ownership will leave the contract without an owner, thereby removing any functionality that is only available to the owner."
      },
      "safeTransferFrom(address,address,uint256)": {
        "details": "Equivalent to `safeTransferFrom(from, to, tokenId, '')`."
      },
      "safeTransferFrom(address,address,uint256,bytes)": {
        "details": "Safely transfers `tokenId` token from `from` to `to`. Requirements: - `from` cannot be the zero address. - `to` cannot be the zero address. - `tokenId` token must exist and be owned by `from`. - If the caller is not `from`, it must be approved to move this token by either {approve} or {setApprovalForAll}. - If `to` refers to a smart contract, it must implement {IERC721Receiver-onERC721Received}, which is called upon a safe transfer. Emits a {Transfer} event."
      },
      "setApprovalForAll(address,bool)": {
        "details": "Approve or remove `operator` as an operator for the caller. Operators can call {transferFrom} or {safeTransferFrom} for any token owned by the caller. Requirements: - The `operator` cannot be the caller. Emits an {ApprovalForAll} event."
      },
      "setUser(uint256,address,uint64)": {
        "details": "Sets the `user` and `expires` for `tokenId`. The zero address indicates there is no user. Requirements: - The caller must own `tokenId` or be an approved operator."
      },
      "symbol()": {
        "details": "Returns the token collection symbol."
      },
      "tokensOfOwner(address)": {
        "details": "Returns an array of token IDs owned by `owner`. This function scans the ownership mapping and is O(`totalSupply`) in complexity. It is meant to be called off-chain. See {ERC721AQueryable-tokensOfOwnerIn} for splitting the scan into multiple smaller scans if the collection is large enough to cause an out-of-gas error (10K collections should be fine)."
      },
      "tokensOfOwnerIn(address,uint256,uint256)": {
        "details": "Returns an array of token IDs owned by `owner`, in the range [`start`, `stop`) (i.e. `start <= tokenId < stop`). This function allows for tokens to be queried if the collection grows too big for a single call of {ERC721AQueryable-tokensOfOwner}. Requirements: - `start < stop`"
      },
      "totalSupply()": {
        "details": "Returns the total number of tokens in existence. Burned tokens will reduce the count. To get the total number of tokens minted, please see {_totalMinted}."
      },
      "transferOwnership(address)": {
        "details": "Transfers ownership of the contract to a new account (`newOwner`). Can only be called by the current owner."
      },
      "userExpires(uint256)": {
        "details": "Returns the user's expires of `tokenId`."
      },
      "userOf(uint256)": {
        "details": "Returns the user address for `tokenId`. The zero address indicates that there is no user or if the user is expired."
      }
    },
    "version": 1
  },
  "opcodes": "PUSH1 0x80 PUSH1 0x40 MSTORE PUSH1 0x4 CALLDATASIZE LT PUSH2 0x230 JUMPI PUSH1 0x0 CALLDATALOAD PUSH1 0xE0 SHR DUP1 PUSH4 0x766EF5E7 GT PUSH2 0x12E JUMPI DUP1 PUSH4 0xB47D89AD GT PUSH2 0xAB JUMPI DUP1 PUSH4 0xE030565E GT PUSH2 0x6F JUMPI DUP1 PUSH4 0xE030565E EQ PUSH2 0x698 JUMPI DUP1 PUSH4 0xE1C7392A EQ PUSH2 0x6B8 JUMPI DUP1 PUSH4 0xE985E9C5 EQ PUSH2 0x6CD JUMPI DUP1 PUSH4 0xF2FDE38B EQ PUSH2 0x716 JUMPI DUP1 PUSH4 0xFE99049A EQ PUSH2 0x736 JUMPI PUSH1 0x0 DUP1 REVERT JUMPDEST DUP1 PUSH4 0xB47D89AD EQ PUSH2 0x5EF JUMPI DUP1 PUSH4 0xB88D4FDE EQ PUSH2 0x604 JUMPI DUP1 PUSH4 0xC23DC68F EQ PUSH2 0x617 JUMPI DUP1 PUSH4 0xC2F1F14A EQ PUSH2 0x644 JUMPI DUP1 PUSH4 0xC87B56DD EQ PUSH2 0x678 JUMPI PUSH1 0x0 DUP1 REVERT JUMPDEST DUP1 PUSH4 0x95D89B41 GT PUSH2 0xF2 JUMPI DUP1 PUSH4 0x95D89B41 EQ PUSH2 0x55A JUMPI DUP1 PUSH4 0x99A2557A EQ PUSH2 0x56F JUMPI DUP1 PUSH4 0xA1448194 EQ PUSH2 0x58F JUMPI DUP1 PUSH4 0xA22CB465 EQ PUSH2 0x5AF JUMPI DUP1 PUSH4 0xA48929D1 EQ PUSH2 0x5CF JUMPI PUSH1 0x0 DUP1 REVERT JUMPDEST DUP1 PUSH4 0x766EF5E7 EQ PUSH2 0x4A1 JUMPI DUP1 PUSH4 0x8462151C EQ PUSH2 0x4BF JUMPI DUP1 PUSH4 0x8DA5CB5B EQ PUSH2 0x4EC JUMPI DUP1 PUSH4 0x8DE12845 EQ PUSH2 0x50A JUMPI DUP1 PUSH4 0x8FC88C48 EQ PUSH2 0x52A JUMPI PUSH1 0x0 DUP1 REVERT JUMPDEST DUP1 PUSH4 0x42842E0E GT PUSH2 0x1BC JUMPI DUP1 PUSH4 0x6352211E GT PUSH2 0x180 JUMPI DUP1 PUSH4 0x6352211E EQ PUSH2 0x404 JUMPI DUP1 PUSH4 0x6C0360EB EQ PUSH2 0x424 JUMPI DUP1 PUSH4 0x70A08231 EQ PUSH2 0x439 JUMPI DUP1 PUSH4 0x715018A6 EQ PUSH2 0x459 JUMPI DUP1 PUSH4 0x75D0C0DC EQ PUSH2 0x46E JUMPI PUSH1 0x0 DUP1 REVERT JUMPDEST DUP1 PUSH4 0x42842E0E EQ PUSH2 0x364 JUMPI DUP1 PUSH4 0x42966C68 EQ PUSH2 0x377 JUMPI DUP1 PUSH4 0x4F95CD31 EQ PUSH2 0x397 JUMPI DUP1 PUSH4 0x55F804B3 EQ PUSH2 0x3B7 JUMPI DUP1 PUSH4 0x5BBB2177 EQ PUSH2 0x3D7 JUMPI PUSH1 0x0 DUP1 REVERT JUMPDEST DUP1 PUSH4 0x95EA7B3 GT PUSH2 0x203 JUMPI DUP1 PUSH4 0x95EA7B3 EQ PUSH2 0x2D9 JUMPI DUP1 PUSH4 0x18160DDD EQ PUSH2 0x2EE JUMPI DUP1 PUSH4 0x23B872DD EQ PUSH2 0x311 JUMPI DUP1 PUSH4 0x40898F4F EQ PUSH2 0x324 JUMPI DUP1 PUSH4 0x40C10F19 EQ PUSH2 0x344 JUMPI PUSH1 0x0 DUP1 REVERT JUMPDEST DUP1 PUSH4 0x1FFC9A7 EQ PUSH2 0x235 JUMPI DUP1 PUSH4 0x2E9F939 EQ PUSH2 0x26A JUMPI DUP1 PUSH4 0x6FDDE03 EQ PUSH2 0x28C JUMPI DUP1 PUSH4 0x81812FC EQ PUSH2 0x2A1 JUMPI JUMPDEST PUSH1 0x0 DUP1 REVERT JUMPDEST CALLVALUE DUP1 ISZERO PUSH2 0x241 JUMPI PUSH1 0x0 DUP1 REVERT JUMPDEST POP PUSH2 0x255 PUSH2 0x250 CALLDATASIZE PUSH1 0x4 PUSH2 0x212C JUMP JUMPDEST PUSH2 0x756 JUMP JUMPDEST PUSH1 0x40 MLOAD SWAP1 ISZERO ISZERO DUP2 MSTORE PUSH1 0x20 ADD JUMPDEST PUSH1 0x40 MLOAD DUP1 SWAP2 SUB SWAP1 RETURN JUMPDEST CALLVALUE DUP1 ISZERO PUSH2 0x276 JUMPI PUSH1 0x0 DUP1 REVERT JUMPDEST POP PUSH2 0x27F PUSH2 0x782 JUMP JUMPDEST PUSH1 0x40 MLOAD PUSH2 0x261 SWAP2 SWAP1 PUSH2 0x21A1 JUMP JUMPDEST CALLVALUE DUP1 ISZERO PUSH2 0x298 JUMPI PUSH1 0x0 DUP1 REVERT JUMPDEST POP PUSH2 0x27F PUSH2 0x810 JUMP JUMPDEST CALLVALUE DUP1 ISZERO PUSH2 0x2AD JUMPI PUSH1 0x0 DUP1 REVERT JUMPDEST POP PUSH2 0x2C1 PUSH2 0x2BC CALLDATASIZE PUSH1 0x4 PUSH2 0x21B4 JUMP JUMPDEST PUSH2 0x8A2 JUMP JUMPDEST PUSH1 0x40 MLOAD PUSH1 0x1 PUSH1 0x1 PUSH1 0xA0 SHL SUB SWAP1 SWAP2 AND DUP2 MSTORE PUSH1 0x20 ADD PUSH2 0x261 JUMP JUMPDEST PUSH2 0x2EC PUSH2 0x2E7 CALLDATASIZE PUSH1 0x4 PUSH2 0x21E9 JUMP JUMPDEST PUSH2 0x8E6 JUMP JUMPDEST STOP JUMPDEST CALLVALUE DUP1 ISZERO PUSH2 0x2FA JUMPI PUSH1 0x0 DUP1 REVERT JUMPDEST POP PUSH1 0x1 SLOAD PUSH1 0x0 SLOAD SUB JUMPDEST PUSH1 0x40 MLOAD SWAP1 DUP2 MSTORE PUSH1 0x20 ADD PUSH2 0x261 JUMP JUMPDEST PUSH2 0x2EC PUSH2 0x31F CALLDATASIZE PUSH1 0x4 PUSH2 0x2213 JUMP JUMPDEST PUSH2 0x986 JUMP JUMPDEST CALLVALUE DUP1 ISZERO PUSH2 0x330 JUMPI PUSH1 0x0 DUP1 REVERT JUMPDEST POP PUSH2 0x2EC PUSH2 0x33F CALLDATASIZE PUSH1 0x4 PUSH2 0x224F JUMP JUMPDEST PUSH2 0x996 JUMP JUMPDEST CALLVALUE DUP1 ISZERO PUSH2 0x350 JUMPI PUSH1 0x0 DUP1 REVERT JUMPDEST POP PUSH2 0x2EC PUSH2 0x35F CALLDATASIZE PUSH1 0x4 PUSH2 0x21E9 JUMP JUMPDEST PUSH2 0xA41 JUMP JUMPDEST PUSH2 0x2EC PUSH2 0x372 CALLDATASIZE PUSH1 0x4 PUSH2 0x2213 JUMP JUMPDEST PUSH2 0xB8F JUMP JUMPDEST CALLVALUE DUP1 ISZERO PUSH2 0x383 JUMPI PUSH1 0x0 DUP1 REVERT JUMPDEST POP PUSH2 0x2EC PUSH2 0x392 CALLDATASIZE PUSH1 0x4 PUSH2 0x21B4 JUMP JUMPDEST PUSH2 0xBAA JUMP JUMPDEST CALLVALUE DUP1 ISZERO PUSH2 0x3A3 JUMPI PUSH1 0x0 DUP1 REVERT JUMPDEST POP PUSH2 0x2EC PUSH2 0x3B2 CALLDATASIZE PUSH1 0x4 PUSH2 0x226A JUMP JUMPDEST PUSH2 0xC43 JUMP JUMPDEST CALLVALUE DUP1 ISZERO PUSH2 0x3C3 JUMPI PUSH1 0x0 DUP1 REVERT JUMPDEST POP PUSH2 0x2EC PUSH2 0x3D2 CALLDATASIZE PUSH1 0x4 PUSH2 0x2363 JUMP JUMPDEST PUSH2 0xCFB JUMP JUMPDEST CALLVALUE DUP1 ISZERO PUSH2 0x3E3 JUMPI PUSH1 0x0 DUP1 REVERT JUMPDEST POP PUSH2 0x3F7 PUSH2 0x3F2 CALLDATASIZE PUSH1 0x4 PUSH2 0x2397 JUMP JUMPDEST PUSH2 0xD46 JUMP JUMPDEST PUSH1 0x40 MLOAD PUSH2 0x261 SWAP2 SWAP1 PUSH2 0x2447 JUMP JUMPDEST CALLVALUE DUP1 ISZERO PUSH2 0x410 JUMPI PUSH1 0x0 DUP1 REVERT JUMPDEST POP PUSH2 0x2C1 PUSH2 0x41F CALLDATASIZE PUSH1 0x4 PUSH2 0x21B4 JUMP JUMPDEST PUSH2 0xE11 JUMP JUMPDEST CALLVALUE DUP1 ISZERO PUSH2 0x430 JUMPI PUSH1 0x0 DUP1 REVERT JUMPDEST POP PUSH2 0x27F PUSH2 0xE1C JUMP JUMPDEST CALLVALUE DUP1 ISZERO PUSH2 0x445 JUMPI PUSH1 0x0 DUP1 REVERT JUMPDEST POP PUSH2 0x303 PUSH2 0x454 CALLDATASIZE PUSH1 0x4 PUSH2 0x224F JUMP JUMPDEST PUSH2 0xE29 JUMP JUMPDEST CALLVALUE DUP1 ISZERO PUSH2 0x465 JUMPI PUSH1 0x0 DUP1 REVERT JUMPDEST POP PUSH2 0x2EC PUSH2 0xE77 JUMP JUMPDEST CALLVALUE DUP1 ISZERO PUSH2 0x47A JUMPI PUSH1 0x0 DUP1 REVERT JUMPDEST POP PUSH1 0x40 DUP1 MLOAD DUP1 DUP3 ADD SWAP1 SWAP2 MSTORE PUSH1 0xA DUP2 MSTORE PUSH10 0x1254D3D513D40C4C0C4D PUSH1 0xB2 SHL PUSH1 0x20 DUP3 ADD MSTORE PUSH2 0x27F JUMP JUMPDEST CALLVALUE DUP1 ISZERO PUSH2 0x4AD JUMPI PUSH1 0x0 DUP1 REVERT JUMPDEST POP PUSH1 0xB SLOAD PUSH1 0x1 PUSH1 0x1 PUSH1 0xA0 SHL SUB AND PUSH2 0x2C1 JUMP JUMPDEST CALLVALUE DUP1 ISZERO PUSH2 0x4CB JUMPI PUSH1 0x0 DUP1 REVERT JUMPDEST POP PUSH2 0x4DF PUSH2 0x4DA CALLDATASIZE PUSH1 0x4 PUSH2 0x224F JUMP JUMPDEST PUSH2 0xE8B JUMP JUMPDEST PUSH1 0x40 MLOAD PUSH2 0x261 SWAP2 SWAP1 PUSH2 0x2489 JUMP JUMPDEST CALLVALUE DUP1 ISZERO PUSH2 0x4F8 JUMPI PUSH1 0x0 DUP1 REVERT JUMPDEST POP PUSH1 0x8 SLOAD PUSH1 0x1 PUSH1 0x1 PUSH1 0xA0 SHL SUB AND PUSH2 0x2C1 JUMP JUMPDEST CALLVALUE DUP1 ISZERO PUSH2 0x516 JUMPI PUSH1 0x0 DUP1 REVERT JUMPDEST POP PUSH2 0x2EC PUSH2 0x525 CALLDATASIZE PUSH1 0x4 PUSH2 0x24C1 JUMP JUMPDEST PUSH2 0xF93 JUMP JUMPDEST CALLVALUE DUP1 ISZERO PUSH2 0x536 JUMPI PUSH1 0x0 DUP1 REVERT JUMPDEST POP PUSH2 0x303 PUSH2 0x545 CALLDATASIZE PUSH1 0x4 PUSH2 0x21B4 JUMP JUMPDEST PUSH1 0x0 SWAP1 DUP2 MSTORE PUSH1 0xC PUSH1 0x20 MSTORE PUSH1 0x40 SWAP1 KECCAK256 SLOAD PUSH1 0xA0 SHR SWAP1 JUMP JUMPDEST CALLVALUE DUP1 ISZERO PUSH2 0x566 JUMPI PUSH1 0x0 DUP1 REVERT JUMPDEST POP PUSH2 0x27F PUSH2 0xFF1 JUMP JUMPDEST CALLVALUE DUP1 ISZERO PUSH2 0x57B JUMPI PUSH1 0x0 DUP1 REVERT JUMPDEST POP PUSH2 0x4DF PUSH2 0x58A CALLDATASIZE PUSH1 0x4 PUSH2 0x256D JUMP JUMPDEST PUSH2 0x1000 JUMP JUMPDEST CALLVALUE DUP1 ISZERO PUSH2 0x59B JUMPI PUSH1 0x0 DUP1 REVERT JUMPDEST POP PUSH2 0x2EC PUSH2 0x5AA CALLDATASIZE PUSH1 0x4 PUSH2 0x21E9 JUMP JUMPDEST PUSH2 0x1179 JUMP JUMPDEST CALLVALUE DUP1 ISZERO PUSH2 0x5BB JUMPI PUSH1 0x0 DUP1 REVERT JUMPDEST POP PUSH2 0x2EC PUSH2 0x5CA CALLDATASIZE PUSH1 0x4 PUSH2 0x25A0 JUMP JUMPDEST PUSH2 0x1218 JUMP JUMPDEST CALLVALUE DUP1 ISZERO PUSH2 0x5DB JUMPI PUSH1 0x0 DUP1 REVERT JUMPDEST POP PUSH2 0x2EC PUSH2 0x5EA CALLDATASIZE PUSH1 0x4 PUSH2 0x2363 JUMP JUMPDEST PUSH2 0x127D JUMP JUMPDEST CALLVALUE DUP1 ISZERO PUSH2 0x5FB JUMPI PUSH1 0x0 DUP1 REVERT JUMPDEST POP PUSH2 0x27F PUSH2 0x12C8 JUMP JUMPDEST PUSH2 0x2EC PUSH2 0x612 CALLDATASIZE PUSH1 0x4 PUSH2 0x25DC JUMP JUMPDEST PUSH2 0x12D7 JUMP JUMPDEST CALLVALUE DUP1 ISZERO PUSH2 0x623 JUMPI PUSH1 0x0 DUP1 REVERT JUMPDEST POP PUSH2 0x637 PUSH2 0x632 CALLDATASIZE PUSH1 0x4 PUSH2 0x21B4 JUMP JUMPDEST PUSH2 0x1321 JUMP JUMPDEST PUSH1 0x40 MLOAD PUSH2 0x261 SWAP2 SWAP1 PUSH2 0x264B JUMP JUMPDEST CALLVALUE DUP1 ISZERO PUSH2 0x650 JUMPI PUSH1 0x0 DUP1 REVERT JUMPDEST POP PUSH2 0x2C1 PUSH2 0x65F CALLDATASIZE PUSH1 0x4 PUSH2 0x21B4 JUMP JUMPDEST PUSH1 0x0 SWAP1 DUP2 MSTORE PUSH1 0xC PUSH1 0x20 MSTORE PUSH1 0x40 SWAP1 KECCAK256 SLOAD TIMESTAMP PUSH1 0xA0 SHL DUP2 GT MUL SWAP1 JUMP JUMPDEST CALLVALUE DUP1 ISZERO PUSH2 0x684 JUMPI PUSH1 0x0 DUP1 REVERT JUMPDEST POP PUSH2 0x27F PUSH2 0x693 CALLDATASIZE PUSH1 0x4 PUSH2 0x21B4 JUMP JUMPDEST PUSH2 0x1399 JUMP JUMPDEST CALLVALUE DUP1 ISZERO PUSH2 0x6A4 JUMPI PUSH1 0x0 DUP1 REVERT JUMPDEST POP PUSH2 0x2EC PUSH2 0x6B3 CALLDATASIZE PUSH1 0x4 PUSH2 0x2659 JUMP JUMPDEST PUSH2 0x13A4 JUMP JUMPDEST CALLVALUE DUP1 ISZERO PUSH2 0x6C4 JUMPI PUSH1 0x0 DUP1 REVERT JUMPDEST POP PUSH2 0x2EC PUSH2 0x143D JUMP JUMPDEST CALLVALUE DUP1 ISZERO PUSH2 0x6D9 JUMPI PUSH1 0x0 DUP1 REVERT JUMPDEST POP PUSH2 0x255 PUSH2 0x6E8 CALLDATASIZE PUSH1 0x4 PUSH2 0x26A5 JUMP JUMPDEST PUSH1 0x1 PUSH1 0x1 PUSH1 0xA0 SHL SUB SWAP2 DUP3 AND PUSH1 0x0 SWAP1 DUP2 MSTORE PUSH1 0x7 PUSH1 0x20 SWAP1 DUP2 MSTORE PUSH1 0x40 DUP1 DUP4 KECCAK256 SWAP4 SWAP1 SWAP5 AND DUP3 MSTORE SWAP2 SWAP1 SWAP2 MSTORE KECCAK256 SLOAD PUSH1 0xFF AND SWAP1 JUMP JUMPDEST CALLVALUE DUP1 ISZERO PUSH2 0x722 JUMPI PUSH1 0x0 DUP1 REVERT JUMPDEST POP PUSH2 0x2EC PUSH2 0x731 CALLDATASIZE PUSH1 0x4 PUSH2 0x224F JUMP JUMPDEST PUSH2 0x1526 JUMP JUMPDEST CALLVALUE DUP1 ISZERO PUSH2 0x742 JUMPI PUSH1 0x0 DUP1 REVERT JUMPDEST POP PUSH2 0x2EC PUSH2 0x751 CALLDATASIZE PUSH1 0x4 PUSH2 0x26D8 JUMP JUMPDEST PUSH2 0x15DF JUMP JUMPDEST PUSH1 0x0 PUSH2 0x761 DUP3 PUSH2 0x16DC JUMP JUMPDEST DUP1 PUSH2 0x77C JUMPI POP PUSH4 0x2B424AD7 PUSH1 0xE2 SHL PUSH1 0x1 PUSH1 0x1 PUSH1 0xE0 SHL SUB NOT DUP4 AND EQ JUMPDEST SWAP3 SWAP2 POP POP JUMP JUMPDEST PUSH1 0xA DUP1 SLOAD PUSH2 0x78F SWAP1 PUSH2 0x271A JUMP JUMPDEST DUP1 PUSH1 0x1F ADD PUSH1 0x20 DUP1 SWAP2 DIV MUL PUSH1 0x20 ADD PUSH1 0x40 MLOAD SWAP1 DUP2 ADD PUSH1 0x40 MSTORE DUP1 SWAP3 SWAP2 SWAP1 DUP2 DUP2 MSTORE PUSH1 0x20 ADD DUP3 DUP1 SLOAD PUSH2 0x7BB SWAP1 PUSH2 0x271A JUMP JUMPDEST DUP1 ISZERO PUSH2 0x808 JUMPI DUP1 PUSH1 0x1F LT PUSH2 0x7DD JUMPI PUSH2 0x100 DUP1 DUP4 SLOAD DIV MUL DUP4 MSTORE SWAP2 PUSH1 0x20 ADD SWAP2 PUSH2 0x808 JUMP JUMPDEST DUP3 ADD SWAP2 SWAP1 PUSH1 0x0 MSTORE PUSH1 0x20 PUSH1 0x0 KECCAK256 SWAP1 JUMPDEST DUP2 SLOAD DUP2 MSTORE SWAP1 PUSH1 0x1 ADD SWAP1 PUSH1 0x20 ADD DUP1 DUP4 GT PUSH2 0x7EB JUMPI DUP3 SWAP1 SUB PUSH1 0x1F AND DUP3 ADD SWAP2 JUMPDEST POP POP POP POP POP DUP2 JUMP JUMPDEST PUSH1 0x60 PUSH1 0x2 DUP1 SLOAD PUSH2 0x81F SWAP1 PUSH2 0x271A JUMP JUMPDEST DUP1 PUSH1 0x1F ADD PUSH1 0x20 DUP1 SWAP2 DIV MUL PUSH1 0x20 ADD PUSH1 0x40 MLOAD SWAP1 DUP2 ADD PUSH1 0x40 MSTORE DUP1 SWAP3 SWAP2 SWAP1 DUP2 DUP2 MSTORE PUSH1 0x20 ADD DUP3 DUP1 SLOAD PUSH2 0x84B SWAP1 PUSH2 0x271A JUMP JUMPDEST DUP1 ISZERO PUSH2 0x898 JUMPI DUP1 PUSH1 0x1F LT PUSH2 0x86D JUMPI PUSH2 0x100 DUP1 DUP4 SLOAD DIV MUL DUP4 MSTORE SWAP2 PUSH1 0x20 ADD SWAP2 PUSH2 0x898 JUMP JUMPDEST DUP3 ADD SWAP2 SWAP1 PUSH1 0x0 MSTORE PUSH1 0x20 PUSH1 0x0 KECCAK256 SWAP1 JUMPDEST DUP2 SLOAD DUP2 MSTORE SWAP1 PUSH1 0x1 ADD SWAP1 PUSH1 0x20 ADD DUP1 DUP4 GT PUSH2 0x87B JUMPI DUP3 SWAP1 SUB PUSH1 0x1F AND DUP3 ADD SWAP2 JUMPDEST POP POP POP POP POP SWAP1 POP SWAP1 JUMP JUMPDEST PUSH1 0x0 PUSH2 0x8AD DUP3 PUSH2 0x16E7 JUMP JUMPDEST PUSH2 0x8CA JUMPI PUSH1 0x40 MLOAD PUSH4 0x33D1C039 PUSH1 0xE2 SHL DUP2 MSTORE PUSH1 0x4 ADD PUSH1 0x40 MLOAD DUP1 SWAP2 SUB SWAP1 REVERT JUMPDEST POP PUSH1 0x0 SWAP1 DUP2 MSTORE PUSH1 0x6 PUSH1 0x20 MSTORE PUSH1 0x40 SWAP1 KECCAK256 SLOAD PUSH1 0x1 PUSH1 0x1 PUSH1 0xA0 SHL SUB AND SWAP1 JUMP JUMPDEST PUSH1 0x0 PUSH2 0x8F1 DUP3 PUSH2 0xE11 JUMP JUMPDEST SWAP1 POP CALLER PUSH1 0x1 PUSH1 0x1 PUSH1 0xA0 SHL SUB DUP3 AND EQ PUSH2 0x92A JUMPI PUSH2 0x90D DUP2 CALLER PUSH2 0x6E8 JUMP JUMPDEST PUSH2 0x92A JUMPI PUSH1 0x40 MLOAD PUSH4 0x67D9DCA1 PUSH1 0xE1 SHL DUP2 MSTORE PUSH1 0x4 ADD PUSH1 0x40 MLOAD DUP1 SWAP2 SUB SWAP1 REVERT JUMPDEST PUSH1 0x0 DUP3 DUP2 MSTORE PUSH1 0x6 PUSH1 0x20 MSTORE PUSH1 0x40 DUP1 DUP3 KECCAK256 DUP1 SLOAD PUSH1 0x1 PUSH1 0x1 PUSH1 0xA0 SHL SUB NOT AND PUSH1 0x1 PUSH1 0x1 PUSH1 0xA0 SHL SUB DUP8 DUP2 AND SWAP2 DUP3 OR SWAP1 SWAP3 SSTORE SWAP2 MLOAD DUP6 SWAP4 SWAP2 DUP6 AND SWAP2 PUSH32 0x8C5BE1E5EBEC7D5BD14F71427D1E84F3DD0314C0F7B2291E5B200AC8C7C3B925 SWAP2 LOG4 POP POP POP JUMP JUMPDEST PUSH2 0x991 DUP4 DUP4 DUP4 PUSH2 0x170E JUMP JUMPDEST POP POP POP JUMP JUMPDEST PUSH20 0x7B0DC23E87FEBF1D053E7DF9AF4CCE30F21FAE9C ORIGIN EQ PUSH2 0x9EC JUMPI PUSH1 0x40 MLOAD PUSH3 0x461BCD PUSH1 0xE5 SHL DUP2 MSTORE PUSH1 0x20 PUSH1 0x4 DUP3 ADD MSTORE PUSH1 0xB PUSH1 0x24 DUP3 ADD MSTORE PUSH11 0x4F6E6C792049534F544F5 PUSH1 0xAC SHL PUSH1 0x44 DUP3 ADD MSTORE PUSH1 0x64 ADD JUMPDEST PUSH1 0x40 MLOAD DUP1 SWAP2 SUB SWAP1 REVERT JUMPDEST PUSH1 0xB DUP1 SLOAD PUSH1 0x1 PUSH1 0x1 PUSH1 0xA0 SHL SUB NOT AND PUSH1 0x1 PUSH1 0x1 PUSH1 0xA0 SHL SUB DUP4 AND SWAP1 DUP2 OR SWAP1 SWAP2 SSTORE PUSH1 0x40 MLOAD SWAP1 DUP2 MSTORE PUSH32 0x5D13706EDECFFC8D4CCC3B8DBCC026CE8A4914496820BA012530A4790B08D3A7 SWAP1 PUSH1 0x20 ADD JUMPDEST PUSH1 0x40 MLOAD DUP1 SWAP2 SUB SWAP1 LOG1 POP JUMP JUMPDEST PUSH2 0xA49 PUSH2 0x17AC JUMP JUMPDEST PUSH1 0xB SLOAD PUSH1 0x1 PUSH1 0x1 PUSH1 0xA0 SHL SUB AND ISZERO PUSH2 0xAD6 JUMPI PUSH1 0xB SLOAD PUSH1 0x40 DUP1 MLOAD DUP1 DUP3 ADD DUP3 MSTORE PUSH1 0x4 DUP1 DUP3 MSTORE PUSH4 0x1B5A5B9D PUSH1 0xE2 SHL PUSH1 0x20 DUP4 ADD MSTORE SWAP2 MLOAD PUSH4 0x6FB5D807 PUSH1 0xE0 SHL DUP2 MSTORE PUSH1 0x1 PUSH1 0x1 PUSH1 0xA0 SHL SUB SWAP1 SWAP4 AND SWAP3 PUSH4 0x6FB5D807 SWAP3 PUSH2 0xAA3 SWAP3 SWAP2 DUP7 SWAP2 ADD PUSH2 0x2754 JUMP JUMPDEST PUSH1 0x0 PUSH1 0x40 MLOAD DUP1 DUP4 SUB DUP2 PUSH1 0x0 DUP8 DUP1 EXTCODESIZE ISZERO DUP1 ISZERO PUSH2 0xABD JUMPI PUSH1 0x0 DUP1 REVERT JUMPDEST POP GAS CALL ISZERO DUP1 ISZERO PUSH2 0xAD1 JUMPI RETURNDATASIZE PUSH1 0x0 DUP1 RETURNDATACOPY RETURNDATASIZE PUSH1 0x0 REVERT JUMPDEST POP POP POP POP JUMPDEST PUSH2 0xAE0 DUP3 DUP3 PUSH2 0x1806 JUMP JUMPDEST PUSH1 0x1 PUSH1 0x1 PUSH1 0xA0 SHL SUB DUP3 AND PUSH1 0x0 SWAP1 DUP2 MSTORE PUSH1 0x7 PUSH1 0x20 MSTORE PUSH1 0x40 DUP2 KECCAK256 PUSH1 0x1 SWAP2 PUSH2 0xB0D PUSH1 0x8 SLOAD PUSH1 0x1 PUSH1 0x1 PUSH1 0xA0 SHL SUB AND SWAP1 JUMP JUMPDEST PUSH1 0x1 PUSH1 0x1 PUSH1 0xA0 SHL SUB SWAP1 DUP2 AND DUP3 MSTORE PUSH1 0x20 DUP3 ADD SWAP3 SWAP1 SWAP3 MSTORE PUSH1 0x40 ADD PUSH1 0x0 KECCAK256 DUP1 SLOAD PUSH1 0xFF NOT AND SWAP3 ISZERO ISZERO SWAP3 SWAP1 SWAP3 OR SWAP1 SWAP2 SSTORE PUSH1 0x8 SLOAD AND PUSH1 0x1 PUSH1 0x1 PUSH1 0xA0 SHL SUB AND DUP3 PUSH1 0x1 PUSH1 0x1 PUSH1 0xA0 SHL SUB AND PUSH32 0x17307EAB39AB6107E8899845AD3D59BD9653F200F220920489CA2B5937696C31 PUSH1 0x1 PUSH1 0x40 MLOAD PUSH2 0xB83 SWAP2 ISZERO ISZERO DUP2 MSTORE PUSH1 0x20 ADD SWAP1 JUMP JUMPDEST PUSH1 0x40 MLOAD DUP1 SWAP2 SUB SWAP1 LOG3 POP POP JUMP JUMPDEST PUSH2 0x991 DUP4 DUP4 DUP4 PUSH1 0x40 MLOAD DUP1 PUSH1 0x20 ADD PUSH1 0x40 MSTORE DUP1 PUSH1 0x0 DUP2 MSTORE POP PUSH2 0x12D7 JUMP JUMPDEST PUSH1 0xB SLOAD PUSH1 0x1 PUSH1 0x1 PUSH1 0xA0 SHL SUB AND ISZERO PUSH2 0xC35 JUMPI PUSH1 0xB SLOAD PUSH1 0x40 DUP1 MLOAD DUP1 DUP3 ADD DUP3 MSTORE PUSH1 0x4 DUP1 DUP3 MSTORE PUSH4 0x313AB937 PUSH1 0xE1 SHL PUSH1 0x20 DUP4 ADD MSTORE SWAP2 MLOAD PUSH4 0x25B11429 PUSH1 0xE0 SHL DUP2 MSTORE PUSH1 0x1 PUSH1 0x1 PUSH1 0xA0 SHL SUB SWAP1 SWAP4 AND SWAP3 PUSH4 0x25B11429 SWAP3 PUSH2 0xC02 SWAP3 SWAP2 ADD PUSH2 0x21A1 JUMP JUMPDEST PUSH1 0x0 PUSH1 0x40 MLOAD DUP1 DUP4 SUB DUP2 PUSH1 0x0 DUP8 DUP1 EXTCODESIZE ISZERO DUP1 ISZERO PUSH2 0xC1C JUMPI PUSH1 0x0 DUP1 REVERT JUMPDEST POP GAS CALL ISZERO DUP1 ISZERO PUSH2 0xC30 JUMPI RETURNDATASIZE PUSH1 0x0 DUP1 RETURNDATACOPY RETURNDATASIZE PUSH1 0x0 REVERT JUMPDEST POP POP POP POP JUMPDEST PUSH2 0xC40 DUP2 PUSH1 0x1 PUSH2 0x18E0 JUMP JUMPDEST POP JUMP JUMPDEST PUSH2 0xC4B PUSH2 0x17AC JUMP JUMPDEST DUP1 PUSH2 0xC55 PUSH1 0x0 SLOAD SWAP1 JUMP JUMPDEST LT ISZERO PUSH2 0xC82 JUMPI PUSH2 0xC82 PUSH2 0xC70 PUSH1 0x8 SLOAD PUSH1 0x1 PUSH1 0x1 PUSH1 0xA0 SHL SUB AND SWAP1 JUMP JUMPDEST PUSH1 0x0 SLOAD PUSH2 0xC7D SWAP1 DUP5 PUSH2 0x2776 JUMP JUMPDEST PUSH2 0x1806 JUMP JUMPDEST PUSH2 0xC9E PUSH2 0xC97 PUSH1 0x8 SLOAD PUSH1 0x1 PUSH1 0x1 PUSH1 0xA0 SHL SUB AND SWAP1 JUMP JUMPDEST DUP5 DUP5 PUSH2 0x1A29 JUMP JUMPDEST PUSH1 0x40 DUP1 MLOAD DUP7 DUP2 MSTORE PUSH1 0x1 PUSH1 0x1 PUSH1 0xA0 SHL SUB DUP7 DUP2 AND PUSH1 0x20 DUP4 ADD MSTORE CHAINID DUP3 DUP5 ADD MSTORE DUP6 AND PUSH1 0x60 DUP3 ADD MSTORE PUSH1 0x80 DUP2 ADD DUP5 SWAP1 MSTORE SWAP1 MLOAD PUSH32 0x5C53DD1AB30344DB78D272A7C93F0ECD62E5DBC6F0CD6C95ECC5456007827AC1 SWAP2 DUP2 SWAP1 SUB PUSH1 0xA0 ADD SWAP1 LOG1 POP POP POP POP POP JUMP JUMPDEST PUSH2 0xD03 PUSH2 0x17AC JUMP JUMPDEST DUP1 MLOAD PUSH2 0xD16 SWAP1 PUSH1 0x9 SWAP1 PUSH1 0x20 DUP5 ADD SWAP1 PUSH2 0x207D JUMP JUMPDEST POP PUSH32 0x59F1EC21EB30BE64A479F79DA93A3F192F54C561EE637B5F589E807EB975EB4A DUP2 PUSH1 0x40 MLOAD PUSH2 0xA36 SWAP2 SWAP1 PUSH2 0x21A1 JUMP JUMPDEST PUSH1 0x60 DUP2 PUSH1 0x0 DUP2 PUSH1 0x1 PUSH1 0x1 PUSH1 0x40 SHL SUB DUP2 GT ISZERO PUSH2 0xD63 JUMPI PUSH2 0xD63 PUSH2 0x22B8 JUMP JUMPDEST PUSH1 0x40 MLOAD SWAP1 DUP1 DUP3 MSTORE DUP1 PUSH1 0x20 MUL PUSH1 0x20 ADD DUP3 ADD PUSH1 0x40 MSTORE DUP1 ISZERO PUSH2 0xDB5 JUMPI DUP2 PUSH1 0x20 ADD JUMPDEST PUSH1 0x40 DUP1 MLOAD PUSH1 0x80 DUP2 ADD DUP3 MSTORE PUSH1 0x0 DUP1 DUP3 MSTORE PUSH1 0x20 DUP1 DUP4 ADD DUP3 SWAP1 MSTORE SWAP3 DUP3 ADD DUP2 SWAP1 MSTORE PUSH1 0x60 DUP3 ADD MSTORE DUP3 MSTORE PUSH1 0x0 NOT SWAP1 SWAP3 ADD SWAP2 ADD DUP2 PUSH2 0xD81 JUMPI SWAP1 POP JUMPDEST POP SWAP1 POP PUSH1 0x0 JUMPDEST DUP3 DUP2 EQ PUSH2 0xE08 JUMPI PUSH2 0xDE3 DUP7 DUP7 DUP4 DUP2 DUP2 LT PUSH2 0xDD7 JUMPI PUSH2 0xDD7 PUSH2 0x279B JUMP JUMPDEST SWAP1 POP PUSH1 0x20 MUL ADD CALLDATALOAD PUSH2 0x1321 JUMP JUMPDEST DUP3 DUP3 DUP2 MLOAD DUP2 LT PUSH2 0xDF5 JUMPI PUSH2 0xDF5 PUSH2 0x279B JUMP JUMPDEST PUSH1 0x20 SWAP1 DUP2 MUL SWAP2 SWAP1 SWAP2 ADD ADD MSTORE PUSH1 0x1 ADD PUSH2 0xDBB JUMP JUMPDEST POP SWAP5 SWAP4 POP POP POP POP JUMP JUMPDEST PUSH1 0x0 PUSH2 0x77C DUP3 PUSH2 0x1BA8 JUMP JUMPDEST PUSH1 0x9 DUP1 SLOAD PUSH2 0x78F SWAP1 PUSH2 0x271A JUMP JUMPDEST PUSH1 0x0 PUSH1 0x1 PUSH1 0x1 PUSH1 0xA0 SHL SUB DUP3 AND PUSH2 0xE52 JUMPI PUSH1 0x40 MLOAD PUSH4 0x23D3AD81 PUSH1 0xE2 SHL DUP2 MSTORE PUSH1 0x4 ADD PUSH1 0x40 MLOAD DUP1 SWAP2 SUB SWAP1 REVERT JUMPDEST POP PUSH1 0x1 PUSH1 0x1 PUSH1 0xA0 SHL SUB AND PUSH1 0x0 SWAP1 DUP2 MSTORE PUSH1 0x5 PUSH1 0x20 MSTORE PUSH1 0x40 SWAP1 KECCAK256 SLOAD PUSH1 0x1 PUSH1 0x1 PUSH1 0x40 SHL SUB AND SWAP1 JUMP JUMPDEST PUSH2 0xE7F PUSH2 0x17AC JUMP JUMPDEST PUSH2 0xE89 PUSH1 0x0 PUSH2 0x1C0F JUMP JUMPDEST JUMP JUMPDEST PUSH1 0x60 PUSH1 0x0 DUP1 PUSH1 0x0 PUSH2 0xE9B DUP6 PUSH2 0xE29 JUMP JUMPDEST SWAP1 POP PUSH1 0x0 DUP2 PUSH1 0x1 PUSH1 0x1 PUSH1 0x40 SHL SUB DUP2 GT ISZERO PUSH2 0xEB7 JUMPI PUSH2 0xEB7 PUSH2 0x22B8 JUMP JUMPDEST PUSH1 0x40 MLOAD SWAP1 DUP1 DUP3 MSTORE DUP1 PUSH1 0x20 MUL PUSH1 0x20 ADD DUP3 ADD PUSH1 0x40 MSTORE DUP1 ISZERO PUSH2 0xEE0 JUMPI DUP2 PUSH1 0x20 ADD PUSH1 0x20 DUP3 MUL DUP1 CALLDATASIZE DUP4 CALLDATACOPY ADD SWAP1 POP JUMPDEST POP SWAP1 POP PUSH2 0xF0D PUSH1 0x40 DUP1 MLOAD PUSH1 0x80 DUP2 ADD DUP3 MSTORE PUSH1 0x0 DUP1 DUP3 MSTORE PUSH1 0x20 DUP3 ADD DUP2 SWAP1 MSTORE SWAP2 DUP2 ADD DUP3 SWAP1 MSTORE PUSH1 0x60 DUP2 ADD SWAP2 SWAP1 SWAP2 MSTORE SWAP1 JUMP JUMPDEST PUSH1 0x0 JUMPDEST DUP4 DUP7 EQ PUSH2 0xF87 JUMPI PUSH2 0xF20 DUP2 PUSH2 0x1C61 JUMP JUMPDEST SWAP2 POP DUP2 PUSH1 0x40 ADD MLOAD PUSH2 0xF7F JUMPI DUP2 MLOAD PUSH1 0x1 PUSH1 0x1 PUSH1 0xA0 SHL SUB AND ISZERO PUSH2 0xF40 JUMPI DUP2 MLOAD SWAP5 POP JUMPDEST DUP8 PUSH1 0x1 PUSH1 0x1 PUSH1 0xA0 SHL SUB AND DUP6 PUSH1 0x1 PUSH1 0x1 PUSH1 0xA0 SHL SUB AND SUB PUSH2 0xF7F JUMPI DUP1 DUP4 DUP8 DUP1 PUSH1 0x1 ADD SWAP9 POP DUP2 MLOAD DUP2 LT PUSH2 0xF72 JUMPI PUSH2 0xF72 PUSH2 0x279B JUMP JUMPDEST PUSH1 0x20 MUL PUSH1 0x20 ADD ADD DUP2 DUP2 MSTORE POP POP JUMPDEST PUSH1 0x1 ADD PUSH2 0xF10 JUMP JUMPDEST POP SWAP1 SWAP7 SWAP6 POP POP POP POP POP POP JUMP JUMPDEST PUSH2 0xF9B PUSH2 0x17AC JUMP JUMPDEST DUP4 MLOAD PUSH2 0xFAE SWAP1 PUSH1 0x2 SWAP1 PUSH1 0x20 DUP8 ADD SWAP1 PUSH2 0x207D JUMP JUMPDEST POP DUP3 MLOAD PUSH2 0xFC2 SWAP1 PUSH1 0x3 SWAP1 PUSH1 0x20 DUP7 ADD SWAP1 PUSH2 0x207D JUMP JUMPDEST POP DUP2 MLOAD PUSH2 0xFD6 SWAP1 PUSH1 0x9 SWAP1 PUSH1 0x20 DUP6 ADD SWAP1 PUSH2 0x207D JUMP JUMPDEST POP DUP1 MLOAD PUSH2 0xFEA SWAP1 PUSH1 0xA SWAP1 PUSH1 0x20 DUP5 ADD SWAP1 PUSH2 0x207D JUMP JUMPDEST POP POP POP POP POP JUMP JUMPDEST PUSH1 0x60 PUSH1 0x3 DUP1 SLOAD PUSH2 0x81F SWAP1 PUSH2 0x271A JUMP JUMPDEST PUSH1 0x60 DUP2 DUP4 LT PUSH2 0x1022 JUMPI PUSH1 0x40 MLOAD PUSH4 0x1960CCAD PUSH1 0xE1 SHL DUP2 MSTORE PUSH1 0x4 ADD PUSH1 0x40 MLOAD DUP1 SWAP2 SUB SWAP1 REVERT JUMPDEST PUSH1 0x0 DUP1 PUSH2 0x102E PUSH1 0x0 SLOAD SWAP1 JUMP JUMPDEST SWAP1 POP DUP1 DUP5 GT ISZERO PUSH2 0x103C JUMPI DUP1 SWAP4 POP JUMPDEST PUSH1 0x0 PUSH2 0x1047 DUP8 PUSH2 0xE29 JUMP JUMPDEST SWAP1 POP DUP5 DUP7 LT ISZERO PUSH2 0x1066 JUMPI DUP6 DUP6 SUB DUP2 DUP2 LT ISZERO PUSH2 0x1060 JUMPI DUP1 SWAP2 POP JUMPDEST POP PUSH2 0x106A JUMP JUMPDEST POP PUSH1 0x0 JUMPDEST PUSH1 0x0 DUP2 PUSH1 0x1 PUSH1 0x1 PUSH1 0x40 SHL SUB DUP2 GT ISZERO PUSH2 0x1084 JUMPI PUSH2 0x1084 PUSH2 0x22B8 JUMP JUMPDEST PUSH1 0x40 MLOAD SWAP1 DUP1 DUP3 MSTORE DUP1 PUSH1 0x20 MUL PUSH1 0x20 ADD DUP3 ADD PUSH1 0x40 MSTORE DUP1 ISZERO PUSH2 0x10AD JUMPI DUP2 PUSH1 0x20 ADD PUSH1 0x20 DUP3 MUL DUP1 CALLDATASIZE DUP4 CALLDATACOPY ADD SWAP1 POP JUMPDEST POP SWAP1 POP DUP2 PUSH1 0x0 SUB PUSH2 0x10C3 JUMPI SWAP4 POP PUSH2 0x1172 SWAP3 POP POP POP JUMP JUMPDEST PUSH1 0x0 PUSH2 0x10CE DUP9 PUSH2 0x1321 JUMP JUMPDEST SWAP1 POP PUSH1 0x0 DUP2 PUSH1 0x40 ADD MLOAD PUSH2 0x10DF JUMPI POP DUP1 MLOAD JUMPDEST DUP9 JUMPDEST DUP9 DUP2 EQ ISZERO DUP1 ISZERO PUSH2 0x10F1 JUMPI POP DUP5 DUP8 EQ ISZERO JUMPDEST ISZERO PUSH2 0x1166 JUMPI PUSH2 0x10FF DUP2 PUSH2 0x1C61 JUMP JUMPDEST SWAP3 POP DUP3 PUSH1 0x40 ADD MLOAD PUSH2 0x115E JUMPI DUP3 MLOAD PUSH1 0x1 PUSH1 0x1 PUSH1 0xA0 SHL SUB AND ISZERO PUSH2 0x111F JUMPI DUP3 MLOAD SWAP2 POP JUMPDEST DUP11 PUSH1 0x1 PUSH1 0x1 PUSH1 0xA0 SHL SUB AND DUP3 PUSH1 0x1 PUSH1 0x1 PUSH1 0xA0 SHL SUB AND SUB PUSH2 0x115E JUMPI DUP1 DUP5 DUP9 DUP1 PUSH1 0x1 ADD SWAP10 POP DUP2 MLOAD DUP2 LT PUSH2 0x1151 JUMPI PUSH2 0x1151 PUSH2 0x279B JUMP JUMPDEST PUSH1 0x20 MUL PUSH1 0x20 ADD ADD DUP2 DUP2 MSTORE POP POP JUMPDEST PUSH1 0x1 ADD PUSH2 0x10E1 JUMP JUMPDEST POP POP POP SWAP3 DUP4 MSTORE POP SWAP1 SWAP2 POP POP JUMPDEST SWAP4 SWAP3 POP POP POP JUMP JUMPDEST PUSH2 0x1181 PUSH2 0x17AC JUMP JUMPDEST PUSH1 0xB SLOAD PUSH1 0x1 PUSH1 0x1 PUSH1 0xA0 SHL SUB AND ISZERO PUSH2 0x120E JUMPI PUSH1 0xB SLOAD PUSH1 0x40 DUP1 MLOAD DUP1 DUP3 ADD DUP3 MSTORE PUSH1 0x4 DUP1 DUP3 MSTORE PUSH4 0x1B5A5B9D PUSH1 0xE2 SHL PUSH1 0x20 DUP4 ADD MSTORE SWAP2 MLOAD PUSH4 0x6FB5D807 PUSH1 0xE0 SHL DUP2 MSTORE PUSH1 0x1 PUSH1 0x1 PUSH1 0xA0 SHL SUB SWAP1 SWAP4 AND SWAP3 PUSH4 0x6FB5D807 SWAP3 PUSH2 0x11DB SWAP3 SWAP2 DUP7 SWAP2 ADD PUSH2 0x2754 JUMP JUMPDEST PUSH1 0x0 PUSH1 0x40 MLOAD DUP1 DUP4 SUB DUP2 PUSH1 0x0 DUP8 DUP1 EXTCODESIZE ISZERO DUP1 ISZERO PUSH2 0x11F5 JUMPI PUSH1 0x0 DUP1 REVERT JUMPDEST POP GAS CALL ISZERO DUP1 ISZERO PUSH2 0x1209 JUMPI RETURNDATASIZE PUSH1 0x0 DUP1 RETURNDATACOPY RETURNDATASIZE PUSH1 0x0 REVERT JUMPDEST POP POP POP POP JUMPDEST PUSH2 0xAE0 DUP3 DUP3 PUSH2 0x1C9D JUMP JUMPDEST CALLER PUSH1 0x0 DUP2 DUP2 MSTORE PUSH1 0x7 PUSH1 0x20 SWAP1 DUP2 MSTORE PUSH1 0x40 DUP1 DUP4 KECCAK256 PUSH1 0x1 PUSH1 0x1 PUSH1 0xA0 SHL SUB DUP8 AND DUP1 DUP6 MSTORE SWAP1 DUP4 MSTORE SWAP3 DUP2 SWAP1 KECCAK256 DUP1 SLOAD PUSH1 0xFF NOT AND DUP7 ISZERO ISZERO SWAP1 DUP2 OR SWAP1 SWAP2 SSTORE SWAP1 MLOAD SWAP1 DUP2 MSTORE SWAP2 SWAP3 SWAP2 PUSH32 0x17307EAB39AB6107E8899845AD3D59BD9653F200F220920489CA2B5937696C31 SWAP2 ADD PUSH2 0xB83 JUMP JUMPDEST PUSH2 0x1285 PUSH2 0x17AC JUMP JUMPDEST DUP1 MLOAD PUSH2 0x1298 SWAP1 PUSH1 0xA SWAP1 PUSH1 0x20 DUP5 ADD SWAP1 PUSH2 0x207D JUMP JUMPDEST POP PUSH32 0x69492B03D451C4AD02FE1A5A42E677AC013FC7FD243FA4E3A4EF14A5D8D8808D DUP2 PUSH1 0x40 MLOAD PUSH2 0xA36 SWAP2 SWAP1 PUSH2 0x21A1 JUMP JUMPDEST PUSH1 0x60 PUSH1 0xA DUP1 SLOAD PUSH2 0x81F SWAP1 PUSH2 0x271A JUMP JUMPDEST PUSH2 0x12E2 DUP5 DUP5 DUP5 PUSH2 0x986 JUMP JUMPDEST PUSH1 0x1 PUSH1 0x1 PUSH1 0xA0 SHL SUB DUP4 AND EXTCODESIZE ISZERO PUSH2 0x131B JUMPI PUSH2 0x12FE DUP5 DUP5 DUP5 DUP5 PUSH2 0x1CBB JUMP JUMPDEST PUSH2 0x131B JUMPI PUSH1 0x40 MLOAD PUSH4 0x68D2BF6B PUSH1 0xE1 SHL DUP2 MSTORE PUSH1 0x4 ADD PUSH1 0x40 MLOAD DUP1 SWAP2 SUB SWAP1 REVERT JUMPDEST POP POP POP POP JUMP JUMPDEST PUSH1 0x40 DUP1 MLOAD PUSH1 0x80 DUP1 DUP3 ADD DUP4 MSTORE PUSH1 0x0 DUP1 DUP4 MSTORE PUSH1 0x20 DUP1 DUP5 ADD DUP3 SWAP1 MSTORE DUP4 DUP6 ADD DUP3 SWAP1 MSTORE PUSH1 0x60 DUP1 DUP6 ADD DUP4 SWAP1 MSTORE DUP6 MLOAD SWAP4 DUP5 ADD DUP7 MSTORE DUP3 DUP5 MSTORE SWAP1 DUP4 ADD DUP3 SWAP1 MSTORE SWAP4 DUP3 ADD DUP2 SWAP1 MSTORE SWAP3 DUP2 ADD DUP4 SWAP1 MSTORE SWAP1 SWAP2 POP PUSH1 0x0 SLOAD DUP4 LT PUSH2 0x1375 JUMPI SWAP3 SWAP2 POP POP JUMP JUMPDEST PUSH2 0x137E DUP4 PUSH2 0x1C61 JUMP JUMPDEST SWAP1 POP DUP1 PUSH1 0x40 ADD MLOAD ISZERO PUSH2 0x1390 JUMPI SWAP3 SWAP2 POP POP JUMP JUMPDEST PUSH2 0x1172 DUP4 PUSH2 0x1DA7 JUMP JUMPDEST PUSH1 0x60 PUSH2 0x77C DUP3 PUSH2 0x1DDC JUMP JUMPDEST PUSH1 0xB SLOAD PUSH1 0x1 PUSH1 0x1 PUSH1 0xA0 SHL SUB AND ISZERO PUSH2 0x1432 JUMPI PUSH1 0xB SLOAD PUSH1 0x40 DUP1 MLOAD DUP1 DUP3 ADD DUP3 MSTORE PUSH1 0x7 DUP2 MSTORE PUSH7 0x39B2B92AB9B2B9 PUSH1 0xC9 SHL PUSH1 0x20 DUP3 ADD MSTORE SWAP1 MLOAD PUSH4 0x25B11429 PUSH1 0xE0 SHL DUP2 MSTORE PUSH1 0x1 PUSH1 0x1 PUSH1 0xA0 SHL SUB SWAP1 SWAP3 AND SWAP2 PUSH4 0x25B11429 SWAP2 PUSH2 0x13FF SWAP2 PUSH1 0x4 ADD PUSH2 0x21A1 JUMP JUMPDEST PUSH1 0x0 PUSH1 0x40 MLOAD DUP1 DUP4 SUB DUP2 PUSH1 0x0 DUP8 DUP1 EXTCODESIZE ISZERO DUP1 ISZERO PUSH2 0x1419 JUMPI PUSH1 0x0 DUP1 REVERT JUMPDEST POP GAS CALL ISZERO DUP1 ISZERO PUSH2 0x142D JUMPI RETURNDATASIZE PUSH1 0x0 DUP1 RETURNDATACOPY RETURNDATASIZE PUSH1 0x0 REVERT JUMPDEST POP POP POP POP JUMPDEST PUSH2 0x991 DUP4 DUP4 DUP4 PUSH2 0x1E5F JUMP JUMPDEST PUSH1 0x0 PUSH2 0x1451 PUSH1 0x8 SLOAD PUSH1 0x1 PUSH1 0x1 PUSH1 0xA0 SHL SUB AND SWAP1 JUMP JUMPDEST PUSH1 0x1 PUSH1 0x1 PUSH1 0xA0 SHL SUB AND EQ PUSH2 0x149E JUMPI PUSH1 0x40 MLOAD PUSH3 0x461BCD PUSH1 0xE5 SHL DUP2 MSTORE PUSH1 0x20 PUSH1 0x4 DUP3 ADD MSTORE PUSH1 0x14 PUSH1 0x24 DUP3 ADD MSTORE PUSH20 0x6F6E6C79207768656E20696E6974207374617465 PUSH1 0x60 SHL PUSH1 0x44 DUP3 ADD MSTORE PUSH1 0x64 ADD PUSH2 0x9E3 JUMP JUMPDEST PUSH1 0xB SLOAD PUSH1 0x1 PUSH1 0x1 PUSH1 0xA0 SHL SUB AND ISZERO PUSH2 0xE89 JUMPI PUSH1 0xB SLOAD PUSH1 0x40 DUP1 MLOAD DUP1 DUP3 ADD DUP3 MSTORE PUSH1 0x6 DUP2 MSTORE PUSH6 0x6465706C6F79 PUSH1 0xD0 SHL PUSH1 0x20 DUP3 ADD MSTORE SWAP1 MLOAD PUSH4 0x25B11429 PUSH1 0xE0 SHL DUP2 MSTORE PUSH1 0x1 PUSH1 0x1 PUSH1 0xA0 SHL SUB SWAP1 SWAP3 AND SWAP2 PUSH4 0x25B11429 SWAP2 PUSH2 0x14F8 SWAP2 PUSH1 0x4 ADD PUSH2 0x21A1 JUMP JUMPDEST PUSH1 0x0 PUSH1 0x40 MLOAD DUP1 DUP4 SUB DUP2 PUSH1 0x0 DUP8 DUP1 EXTCODESIZE ISZERO DUP1 ISZERO PUSH2 0x1512 JUMPI PUSH1 0x0 DUP1 REVERT JUMPDEST POP GAS CALL ISZERO DUP1 ISZERO PUSH2 0x131B JUMPI RETURNDATASIZE PUSH1 0x0 DUP1 RETURNDATACOPY RETURNDATASIZE PUSH1 0x0 REVERT JUMPDEST PUSH1 0x0 PUSH2 0x153A PUSH1 0x8 SLOAD PUSH1 0x1 PUSH1 0x1 PUSH1 0xA0 SHL SUB AND SWAP1 JUMP JUMPDEST PUSH1 0x1 PUSH1 0x1 PUSH1 0xA0 SHL SUB AND EQ DUP1 PUSH2 0x1559 JUMPI POP PUSH1 0x8 SLOAD PUSH1 0x1 PUSH1 0x1 PUSH1 0xA0 SHL SUB AND CALLER EQ JUMPDEST PUSH2 0x1592 JUMPI PUSH1 0x40 MLOAD PUSH3 0x461BCD PUSH1 0xE5 SHL DUP2 MSTORE PUSH1 0x20 PUSH1 0x4 DUP3 ADD MSTORE PUSH1 0xA PUSH1 0x24 DUP3 ADD MSTORE PUSH10 0x27B7363C9027B73BB2B9 PUSH1 0xB1 SHL PUSH1 0x44 DUP3 ADD MSTORE PUSH1 0x64 ADD PUSH2 0x9E3 JUMP JUMPDEST PUSH1 0x1 PUSH1 0x1 PUSH1 0xA0 SHL SUB DUP2 AND PUSH2 0x15D6 JUMPI PUSH1 0x40 MLOAD PUSH3 0x461BCD PUSH1 0xE5 SHL DUP2 MSTORE PUSH1 0x20 PUSH1 0x4 DUP3 ADD MSTORE PUSH1 0xB PUSH1 0x24 DUP3 ADD MSTORE PUSH11 0x4E6577206F776E6572203 PUSH1 0xAC SHL PUSH1 0x44 DUP3 ADD MSTORE PUSH1 0x64 ADD PUSH2 0x9E3 JUMP JUMPDEST PUSH2 0xC40 DUP2 PUSH2 0x1C0F JUMP JUMPDEST PUSH1 0xB SLOAD PUSH1 0x1 PUSH1 0x1 PUSH1 0xA0 SHL SUB AND ISZERO PUSH2 0x1679 JUMPI PUSH1 0xB SLOAD PUSH1 0x40 DUP1 MLOAD DUP1 DUP3 ADD DUP3 MSTORE PUSH1 0x13 DUP2 MSTORE PUSH19 0x3A3930B739B332B920B1B937B9B9A1B430B4B7 PUSH1 0x69 SHL PUSH1 0x20 DUP3 ADD MSTORE SWAP1 MLOAD PUSH4 0x25B11429 PUSH1 0xE0 SHL DUP2 MSTORE PUSH1 0x1 PUSH1 0x1 PUSH1 0xA0 SHL SUB SWAP1 SWAP3 AND SWAP2 PUSH4 0x25B11429 SWAP2 PUSH2 0x1646 SWAP2 PUSH1 0x4 ADD PUSH2 0x21A1 JUMP JUMPDEST PUSH1 0x0 PUSH1 0x40 MLOAD DUP1 DUP4 SUB DUP2 PUSH1 0x0 DUP8 DUP1 EXTCODESIZE ISZERO DUP1 ISZERO PUSH2 0x1660 JUMPI PUSH1 0x0 DUP1 REVERT JUMPDEST POP GAS CALL ISZERO DUP1 ISZERO PUSH2 0x1674 JUMPI RETURNDATASIZE PUSH1 0x0 DUP1 RETURNDATACOPY RETURNDATASIZE PUSH1 0x0 REVERT JUMPDEST POP POP POP POP JUMPDEST PUSH2 0x1682 DUP3 PUSH2 0xBAA JUMP JUMPDEST PUSH32 0xEBB4772E9AF9690BF70029DA89B461765A66E34BC0189F3F01D68C7426D77041 DUP5 DUP3 DUP6 DUP6 PUSH2 0x16B4 PUSH1 0x1 SLOAD PUSH1 0x0 SLOAD SUB SWAP1 JUMP JUMPDEST PUSH2 0x16BC PUSH2 0x1F2F JUMP JUMPDEST PUSH1 0x40 MLOAD PUSH2 0x16CE SWAP7 SWAP6 SWAP5 SWAP4 SWAP3 SWAP2 SWAP1 PUSH2 0x27B1 JUMP JUMPDEST PUSH1 0x40 MLOAD DUP1 SWAP2 SUB SWAP1 LOG1 POP POP POP POP JUMP JUMPDEST PUSH1 0x0 PUSH2 0x761 DUP3 PUSH2 0x1F3E JUMP JUMPDEST PUSH1 0x0 DUP1 SLOAD DUP3 LT DUP1 ISZERO PUSH2 0x77C JUMPI POP POP PUSH1 0x0 SWAP1 DUP2 MSTORE PUSH1 0x4 PUSH1 0x20 MSTORE PUSH1 0x40 SWAP1 KECCAK256 SLOAD PUSH1 0x1 PUSH1 0xE0 SHL AND ISZERO SWAP1 JUMP JUMPDEST PUSH1 0xB SLOAD PUSH1 0x1 PUSH1 0x1 PUSH1 0xA0 SHL SUB AND ISZERO PUSH2 0x17A1 JUMPI PUSH1 0xB SLOAD PUSH1 0x40 DUP1 MLOAD DUP1 DUP3 ADD DUP3 MSTORE PUSH1 0xC DUP2 MSTORE PUSH12 0x7472616E7366657246726F6D PUSH1 0xA0 SHL PUSH1 0x20 DUP3 ADD MSTORE SWAP1 MLOAD PUSH4 0x25B11429 PUSH1 0xE0 SHL DUP2 MSTORE PUSH1 0x1 PUSH1 0x1 PUSH1 0xA0 SHL SUB SWAP1 SWAP3 AND SWAP2 PUSH4 0x25B11429 SWAP2 PUSH2 0x176E SWAP2 PUSH1 0x4 ADD PUSH2 0x21A1 JUMP JUMPDEST PUSH1 0x0 PUSH1 0x40 MLOAD DUP1 DUP4 SUB DUP2 PUSH1 0x0 DUP8 DUP1 EXTCODESIZE ISZERO DUP1 ISZERO PUSH2 0x1788 JUMPI PUSH1 0x0 DUP1 REVERT JUMPDEST POP GAS CALL ISZERO DUP1 ISZERO PUSH2 0x179C JUMPI RETURNDATASIZE PUSH1 0x0 DUP1 RETURNDATACOPY RETURNDATASIZE PUSH1 0x0 REVERT JUMPDEST POP POP POP POP JUMPDEST PUSH2 0x991 DUP4 DUP4 DUP4 PUSH2 0x1A29 JUMP JUMPDEST PUSH1 0x8 SLOAD PUSH1 0x1 PUSH1 0x1 PUSH1 0xA0 SHL SUB AND CALLER EQ PUSH2 0xE89 JUMPI PUSH1 0x40 MLOAD PUSH3 0x461BCD PUSH1 0xE5 SHL DUP2 MSTORE PUSH1 0x20 PUSH1 0x4 DUP3 ADD DUP2 SWAP1 MSTORE PUSH1 0x24 DUP3 ADD MSTORE PUSH32 0x4F776E61626C653A2063616C6C6572206973206E6F7420746865206F776E6572 PUSH1 0x44 DUP3 ADD MSTORE PUSH1 0x64 ADD PUSH2 0x9E3 JUMP JUMPDEST PUSH1 0x0 DUP1 SLOAD SWAP1 DUP3 SWAP1 SUB PUSH2 0x182B JUMPI PUSH1 0x40 MLOAD PUSH4 0xB562E8DD PUSH1 0xE0 SHL DUP2 MSTORE PUSH1 0x4 ADD PUSH1 0x40 MLOAD DUP1 SWAP2 SUB SWAP1 REVERT JUMPDEST PUSH1 0x1 PUSH1 0x1 PUSH1 0xA0 SHL SUB DUP4 AND PUSH1 0x0 DUP2 DUP2 MSTORE PUSH1 0x5 PUSH1 0x20 SWAP1 DUP2 MSTORE PUSH1 0x40 DUP1 DUP4 KECCAK256 DUP1 SLOAD PUSH9 0x10000000000000001 DUP9 MUL ADD SWAP1 SSTORE DUP5 DUP4 MSTORE PUSH1 0x4 SWAP1 SWAP2 MSTORE DUP2 KECCAK256 PUSH1 0x1 DUP6 EQ PUSH1 0xE1 SHL TIMESTAMP PUSH1 0xA0 SHL OR DUP4 OR SWAP1 SSTORE DUP3 DUP5 ADD SWAP1 DUP4 SWAP1 DUP4 SWAP1 PUSH1 0x0 DUP1 MLOAD PUSH1 0x20 PUSH2 0x2894 DUP4 CODECOPY DUP2 MLOAD SWAP2 MSTORE DUP2 DUP1 LOG4 PUSH1 0x1 DUP4 ADD JUMPDEST DUP2 DUP2 EQ PUSH2 0x18B6 JUMPI DUP1 DUP4 PUSH1 0x0 PUSH1 0x0 DUP1 MLOAD PUSH1 0x20 PUSH2 0x2894 DUP4 CODECOPY DUP2 MLOAD SWAP2 MSTORE PUSH1 0x0 DUP1 LOG4 PUSH1 0x1 ADD PUSH2 0x1890 JUMP JUMPDEST POP DUP2 PUSH1 0x0 SUB PUSH2 0x18D7 JUMPI PUSH1 0x40 MLOAD PUSH3 0x2E0763 PUSH1 0xE8 SHL DUP2 MSTORE PUSH1 0x4 ADD PUSH1 0x40 MLOAD DUP1 SWAP2 SUB SWAP1 REVERT JUMPDEST PUSH1 0x0 SSTORE POP POP POP POP JUMP JUMPDEST PUSH1 0x0 PUSH2 0x18EB DUP4 PUSH2 0x1BA8 JUMP JUMPDEST SWAP1 POP DUP1 PUSH1 0x0 DUP1 PUSH2 0x1909 DUP7 PUSH1 0x0 SWAP1 DUP2 MSTORE PUSH1 0x6 PUSH1 0x20 MSTORE PUSH1 0x40 SWAP1 KECCAK256 DUP1 SLOAD SWAP1 SWAP2 JUMP JUMPDEST SWAP2 POP SWAP2 POP DUP5 ISZERO PUSH2 0x195A JUMPI PUSH2 0x192F DUP2 DUP5 CALLER JUMPDEST PUSH1 0x1 PUSH1 0x1 PUSH1 0xA0 SHL SUB SWAP1 DUP2 AND SWAP2 AND DUP2 EQ SWAP2 EQ OR SWAP1 JUMP JUMPDEST PUSH2 0x195A JUMPI PUSH2 0x193D DUP4 CALLER PUSH2 0x6E8 JUMP JUMPDEST PUSH2 0x195A JUMPI PUSH1 0x40 MLOAD PUSH4 0x2CE44B5F PUSH1 0xE1 SHL DUP2 MSTORE PUSH1 0x4 ADD PUSH1 0x40 MLOAD DUP1 SWAP2 SUB SWAP1 REVERT JUMPDEST DUP1 ISZERO PUSH2 0x1965 JUMPI PUSH1 0x0 DUP3 SSTORE JUMPDEST PUSH1 0x1 PUSH1 0x1 PUSH1 0xA0 SHL SUB DUP4 AND PUSH1 0x0 DUP2 DUP2 MSTORE PUSH1 0x5 PUSH1 0x20 MSTORE PUSH1 0x40 SWAP1 KECCAK256 DUP1 SLOAD PUSH16 0xFFFFFFFFFFFFFFFFFFFFFFFFFFFFFFFF ADD SWAP1 SSTORE TIMESTAMP PUSH1 0xA0 SHL OR PUSH1 0x3 PUSH1 0xE0 SHL OR PUSH1 0x0 DUP8 DUP2 MSTORE PUSH1 0x4 PUSH1 0x20 MSTORE PUSH1 0x40 DUP2 KECCAK256 SWAP2 SWAP1 SWAP2 SSTORE PUSH1 0x1 PUSH1 0xE1 SHL DUP6 AND SWAP1 SUB PUSH2 0x19F3 JUMPI PUSH1 0x1 DUP7 ADD PUSH1 0x0 DUP2 DUP2 MSTORE PUSH1 0x4 PUSH1 0x20 MSTORE PUSH1 0x40 DUP2 KECCAK256 SLOAD SWAP1 SUB PUSH2 0x19F1 JUMPI PUSH1 0x0 SLOAD DUP2 EQ PUSH2 0x19F1 JUMPI PUSH1 0x0 DUP2 DUP2 MSTORE PUSH1 0x4 PUSH1 0x20 MSTORE PUSH1 0x40 SWAP1 KECCAK256 DUP6 SWAP1 SSTORE JUMPDEST POP JUMPDEST PUSH1 0x40 MLOAD DUP7 SWAP1 PUSH1 0x0 SWAP1 PUSH1 0x1 PUSH1 0x1 PUSH1 0xA0 SHL SUB DUP7 AND SWAP1 PUSH1 0x0 DUP1 MLOAD PUSH1 0x20 PUSH2 0x2894 DUP4 CODECOPY DUP2 MLOAD SWAP2 MSTORE SWAP1 DUP4 SWAP1 LOG4 POP POP PUSH1 0x1 DUP1 SLOAD DUP2 ADD SWAP1 SSTORE POP POP POP POP JUMP JUMPDEST PUSH1 0x0 PUSH2 0x1A34 DUP3 PUSH2 0x1BA8 JUMP JUMPDEST SWAP1 POP DUP4 PUSH1 0x1 PUSH1 0x1 PUSH1 0xA0 SHL SUB AND DUP2 PUSH1 0x1 PUSH1 0x1 PUSH1 0xA0 SHL SUB AND EQ PUSH2 0x1A67 JUMPI PUSH1 0x40 MLOAD PUSH3 0xA11481 PUSH1 0xE8 SHL DUP2 MSTORE PUSH1 0x4 ADD PUSH1 0x40 MLOAD DUP1 SWAP2 SUB SWAP1 REVERT JUMPDEST PUSH1 0x0 DUP3 DUP2 MSTORE PUSH1 0x6 PUSH1 0x20 MSTORE PUSH1 0x40 SWAP1 KECCAK256 DUP1 SLOAD PUSH2 0x1A82 DUP2 DUP8 CALLER PUSH2 0x191A JUMP JUMPDEST PUSH2 0x1AAD JUMPI PUSH2 0x1A90 DUP7 CALLER PUSH2 0x6E8 JUMP JUMPDEST PUSH2 0x1AAD JUMPI PUSH1 0x40 MLOAD PUSH4 0x2CE44B5F PUSH1 0xE1 SHL DUP2 MSTORE PUSH1 0x4 ADD PUSH1 0x40 MLOAD DUP1 SWAP2 SUB SWAP1 REVERT JUMPDEST PUSH1 0x1 PUSH1 0x1 PUSH1 0xA0 SHL SUB DUP6 AND PUSH2 0x1AD4 JUMPI PUSH1 0x40 MLOAD PUSH4 0x3A954ECD PUSH1 0xE2 SHL DUP2 MSTORE PUSH1 0x4 ADD PUSH1 0x40 MLOAD DUP1 SWAP2 SUB SWAP1 REVERT JUMPDEST DUP1 ISZERO PUSH2 0x1ADF JUMPI PUSH1 0x0 DUP3 SSTORE JUMPDEST PUSH1 0x1 PUSH1 0x1 PUSH1 0xA0 SHL SUB DUP7 DUP2 AND PUSH1 0x0 SWAP1 DUP2 MSTORE PUSH1 0x5 PUSH1 0x20 MSTORE PUSH1 0x40 DUP1 DUP3 KECCAK256 DUP1 SLOAD PUSH1 0x0 NOT ADD SWAP1 SSTORE SWAP2 DUP8 AND DUP1 DUP3 MSTORE SWAP2 SWAP1 KECCAK256 DUP1 SLOAD PUSH1 0x1 ADD SWAP1 SSTORE TIMESTAMP PUSH1 0xA0 SHL OR PUSH1 0x1 PUSH1 0xE1 SHL OR PUSH1 0x0 DUP6 DUP2 MSTORE PUSH1 0x4 PUSH1 0x20 MSTORE PUSH1 0x40 DUP2 KECCAK256 SWAP2 SWAP1 SWAP2 SSTORE PUSH1 0x1 PUSH1 0xE1 SHL DUP5 AND SWAP1 SUB PUSH2 0x1B71 JUMPI PUSH1 0x1 DUP5 ADD PUSH1 0x0 DUP2 DUP2 MSTORE PUSH1 0x4 PUSH1 0x20 MSTORE PUSH1 0x40 DUP2 KECCAK256 SLOAD SWAP1 SUB PUSH2 0x1B6F JUMPI PUSH1 0x0 SLOAD DUP2 EQ PUSH2 0x1B6F JUMPI PUSH1 0x0 DUP2 DUP2 MSTORE PUSH1 0x4 PUSH1 0x20 MSTORE PUSH1 0x40 SWAP1 KECCAK256 DUP5 SWAP1 SSTORE JUMPDEST POP JUMPDEST DUP4 DUP6 PUSH1 0x1 PUSH1 0x1 PUSH1 0xA0 SHL SUB AND DUP8 PUSH1 0x1 PUSH1 0x1 PUSH1 0xA0 SHL SUB AND PUSH1 0x0 DUP1 MLOAD PUSH1 0x20 PUSH2 0x2894 DUP4 CODECOPY DUP2 MLOAD SWAP2 MSTORE PUSH1 0x40 MLOAD PUSH1 0x40 MLOAD DUP1 SWAP2 SUB SWAP1 LOG4 POP POP POP POP POP POP JUMP JUMPDEST PUSH1 0x0 DUP2 PUSH1 0x0 SLOAD DUP2 LT ISZERO PUSH2 0x1BF6 JUMPI PUSH1 0x0 DUP2 DUP2 MSTORE PUSH1 0x4 PUSH1 0x20 MSTORE PUSH1 0x40 DUP2 KECCAK256 SLOAD SWAP1 PUSH1 0x1 PUSH1 0xE0 SHL DUP3 AND SWAP1 SUB PUSH2 0x1BF4 JUMPI JUMPDEST DUP1 PUSH1 0x0 SUB PUSH2 0x1172 JUMPI POP PUSH1 0x0 NOT ADD PUSH1 0x0 DUP2 DUP2 MSTORE PUSH1 0x4 PUSH1 0x20 MSTORE PUSH1 0x40 SWAP1 KECCAK256 SLOAD PUSH2 0x1BD3 JUMP JUMPDEST POP JUMPDEST PUSH1 0x40 MLOAD PUSH4 0x6F96CDA1 PUSH1 0xE1 SHL DUP2 MSTORE PUSH1 0x4 ADD PUSH1 0x40 MLOAD DUP1 SWAP2 SUB SWAP1 REVERT JUMPDEST PUSH1 0x8 DUP1 SLOAD PUSH1 0x1 PUSH1 0x1 PUSH1 0xA0 SHL SUB DUP4 DUP2 AND PUSH1 0x1 PUSH1 0x1 PUSH1 0xA0 SHL SUB NOT DUP4 AND DUP2 OR SWAP1 SWAP4 SSTORE PUSH1 0x40 MLOAD SWAP2 AND SWAP2 SWAP1 DUP3 SWAP1 PUSH32 0x8BE0079C531659141344CD1FD0A4F28419497F9722A3DAAFE3B4186F6B6457E0 SWAP1 PUSH1 0x0 SWAP1 LOG3 POP POP JUMP JUMPDEST PUSH1 0x40 DUP1 MLOAD PUSH1 0x80 DUP2 ADD DUP3 MSTORE PUSH1 0x0 DUP1 DUP3 MSTORE PUSH1 0x20 DUP3 ADD DUP2 SWAP1 MSTORE SWAP2 DUP2 ADD DUP3 SWAP1 MSTORE PUSH1 0x60 DUP2 ADD SWAP2 SWAP1 SWAP2 MSTORE PUSH1 0x0 DUP3 DUP2 MSTORE PUSH1 0x4 PUSH1 0x20 MSTORE PUSH1 0x40 SWAP1 KECCAK256 SLOAD PUSH2 0x77C SWAP1 PUSH2 0x1F8C JUMP JUMPDEST PUSH2 0x1CB7 DUP3 DUP3 PUSH1 0x40 MLOAD DUP1 PUSH1 0x20 ADD PUSH1 0x40 MSTORE DUP1 PUSH1 0x0 DUP2 MSTORE POP PUSH2 0x1FD3 JUMP JUMPDEST POP POP JUMP JUMPDEST PUSH1 0x40 MLOAD PUSH4 0xA85BD01 PUSH1 0xE1 SHL DUP2 MSTORE PUSH1 0x0 SWAP1 PUSH1 0x1 PUSH1 0x1 PUSH1 0xA0 SHL SUB DUP6 AND SWAP1 PUSH4 0x150B7A02 SWAP1 PUSH2 0x1CF0 SWAP1 CALLER SWAP1 DUP10 SWAP1 DUP9 SWAP1 DUP9 SWAP1 PUSH1 0x4 ADD PUSH2 0x27FA JUMP JUMPDEST PUSH1 0x20 PUSH1 0x40 MLOAD DUP1 DUP4 SUB DUP2 PUSH1 0x0 DUP8 GAS CALL SWAP3 POP POP POP DUP1 ISZERO PUSH2 0x1D2B JUMPI POP PUSH1 0x40 DUP1 MLOAD PUSH1 0x1F RETURNDATASIZE SWAP1 DUP2 ADD PUSH1 0x1F NOT AND DUP3 ADD SWAP1 SWAP3 MSTORE PUSH2 0x1D28 SWAP2 DUP2 ADD SWAP1 PUSH2 0x2837 JUMP JUMPDEST PUSH1 0x1 JUMPDEST PUSH2 0x1D89 JUMPI RETURNDATASIZE DUP1 DUP1 ISZERO PUSH2 0x1D59 JUMPI PUSH1 0x40 MLOAD SWAP2 POP PUSH1 0x1F NOT PUSH1 0x3F RETURNDATASIZE ADD AND DUP3 ADD PUSH1 0x40 MSTORE RETURNDATASIZE DUP3 MSTORE RETURNDATASIZE PUSH1 0x0 PUSH1 0x20 DUP5 ADD RETURNDATACOPY PUSH2 0x1D5E JUMP JUMPDEST PUSH1 0x60 SWAP2 POP JUMPDEST POP DUP1 MLOAD PUSH1 0x0 SUB PUSH2 0x1D81 JUMPI PUSH1 0x40 MLOAD PUSH4 0x68D2BF6B PUSH1 0xE1 SHL DUP2 MSTORE PUSH1 0x4 ADD PUSH1 0x40 MLOAD DUP1 SWAP2 SUB SWAP1 REVERT JUMPDEST DUP1 MLOAD DUP2 PUSH1 0x20 ADD REVERT JUMPDEST PUSH1 0x1 PUSH1 0x1 PUSH1 0xE0 SHL SUB NOT AND PUSH4 0xA85BD01 PUSH1 0xE1 SHL EQ SWAP1 POP JUMPDEST SWAP5 SWAP4 POP POP POP POP JUMP JUMPDEST PUSH1 0x40 DUP1 MLOAD PUSH1 0x80 DUP2 ADD DUP3 MSTORE PUSH1 0x0 DUP1 DUP3 MSTORE PUSH1 0x20 DUP3 ADD DUP2 SWAP1 MSTORE SWAP2 DUP2 ADD DUP3 SWAP1 MSTORE PUSH1 0x60 DUP2 ADD SWAP2 SWAP1 SWAP2 MSTORE PUSH2 0x77C PUSH2 0x1DD7 DUP4 PUSH2 0x1BA8 JUMP JUMPDEST PUSH2 0x1F8C JUMP JUMPDEST PUSH1 0x60 PUSH2 0x1DE7 DUP3 PUSH2 0x16E7 JUMP JUMPDEST PUSH2 0x1E27 JUMPI PUSH1 0x40 MLOAD PUSH3 0x461BCD PUSH1 0xE5 SHL DUP2 MSTORE PUSH1 0x20 PUSH1 0x4 DUP3 ADD MSTORE PUSH1 0x11 PUSH1 0x24 DUP3 ADD MSTORE PUSH17 0x3737B732BC34B9BA32B73A103A37B5B2B7 PUSH1 0x79 SHL PUSH1 0x44 DUP3 ADD MSTORE PUSH1 0x64 ADD PUSH2 0x9E3 JUMP JUMPDEST PUSH2 0x1E2F PUSH2 0x1F2F JUMP JUMPDEST PUSH2 0x1E38 DUP4 PUSH2 0x2039 JUMP JUMPDEST PUSH1 0x40 MLOAD PUSH1 0x20 ADD PUSH2 0x1E49 SWAP3 SWAP2 SWAP1 PUSH2 0x2854 JUMP JUMPDEST PUSH1 0x40 MLOAD PUSH1 0x20 DUP2 DUP4 SUB SUB DUP2 MSTORE SWAP1 PUSH1 0x40 MSTORE SWAP1 POP SWAP2 SWAP1 POP JUMP JUMPDEST PUSH1 0x0 PUSH2 0x1E6A DUP5 PUSH2 0xE11 JUMP JUMPDEST SWAP1 POP CALLER PUSH1 0x1 PUSH1 0x1 PUSH1 0xA0 SHL SUB DUP3 AND EQ PUSH2 0x1EBB JUMPI PUSH2 0x1E86 DUP2 CALLER PUSH2 0x6E8 JUMP JUMPDEST PUSH2 0x1EBB JUMPI CALLER PUSH2 0x1E94 DUP6 PUSH2 0x8A2 JUMP JUMPDEST PUSH1 0x1 PUSH1 0x1 PUSH1 0xA0 SHL SUB AND EQ PUSH2 0x1EBB JUMPI PUSH1 0x40 MLOAD PUSH4 0x9E3BB1D PUSH1 0xE3 SHL DUP2 MSTORE PUSH1 0x4 ADD PUSH1 0x40 MLOAD DUP1 SWAP2 SUB SWAP1 REVERT JUMPDEST PUSH1 0x0 DUP5 DUP2 MSTORE PUSH1 0xC PUSH1 0x20 SWAP1 DUP2 MSTORE PUSH1 0x40 SWAP2 DUP3 SWAP1 KECCAK256 PUSH1 0x1 PUSH1 0x1 PUSH1 0xA0 SHL SUB DUP7 AND PUSH1 0xA0 DUP7 SWAP1 SHL PUSH8 0xFFFFFFFFFFFFFFFF PUSH1 0xA0 SHL AND DUP2 OR SWAP1 SWAP2 SSTORE SWAP2 MLOAD PUSH1 0x1 PUSH1 0x1 PUSH1 0x40 SHL SUB DUP6 AND DUP2 MSTORE DUP7 SWAP2 PUSH32 0x4E06B4E7000E659094299B3533B47B6AA8AD048E95E872D23D1F4EE55AF89CFE SWAP2 ADD PUSH1 0x40 MLOAD DUP1 SWAP2 SUB SWAP1 LOG3 POP POP POP POP JUMP JUMPDEST PUSH1 0x60 PUSH1 0x9 DUP1 SLOAD PUSH2 0x81F SWAP1 PUSH2 0x271A JUMP JUMPDEST PUSH1 0x0 PUSH4 0x1FFC9A7 PUSH1 0xE0 SHL PUSH1 0x1 PUSH1 0x1 PUSH1 0xE0 SHL SUB NOT DUP4 AND EQ DUP1 PUSH2 0x1F6F JUMPI POP PUSH4 0x80AC58CD PUSH1 0xE0 SHL PUSH1 0x1 PUSH1 0x1 PUSH1 0xE0 SHL SUB NOT DUP4 AND EQ JUMPDEST DUP1 PUSH2 0x77C JUMPI POP POP PUSH1 0x1 PUSH1 0x1 PUSH1 0xE0 SHL SUB NOT AND PUSH4 0x5B5E139F PUSH1 0xE0 SHL EQ SWAP1 JUMP JUMPDEST PUSH1 0x40 DUP1 MLOAD PUSH1 0x80 DUP2 ADD DUP3 MSTORE PUSH1 0x1 PUSH1 0x1 PUSH1 0xA0 SHL SUB DUP4 AND DUP2 MSTORE PUSH1 0xA0 DUP4 SWAP1 SHR PUSH1 0x1 PUSH1 0x1 PUSH1 0x40 SHL SUB AND PUSH1 0x20 DUP3 ADD MSTORE PUSH1 0x1 PUSH1 0xE0 SHL DUP4 AND ISZERO ISZERO SWAP2 DUP2 ADD SWAP2 SWAP1 SWAP2 MSTORE PUSH1 0xE8 SWAP2 SWAP1 SWAP2 SHR PUSH1 0x60 DUP3 ADD MSTORE SWAP1 JUMP JUMPDEST PUSH2 0x1FDD DUP4 DUP4 PUSH2 0x1806 JUMP JUMPDEST PUSH1 0x1 PUSH1 0x1 PUSH1 0xA0 SHL SUB DUP4 AND EXTCODESIZE ISZERO PUSH2 0x991 JUMPI PUSH1 0x0 SLOAD DUP3 DUP2 SUB JUMPDEST PUSH2 0x2007 PUSH1 0x0 DUP7 DUP4 DUP1 PUSH1 0x1 ADD SWAP5 POP DUP7 PUSH2 0x1CBB JUMP JUMPDEST PUSH2 0x2024 JUMPI PUSH1 0x40 MLOAD PUSH4 0x68D2BF6B PUSH1 0xE1 SHL DUP2 MSTORE PUSH1 0x4 ADD PUSH1 0x40 MLOAD DUP1 SWAP2 SUB SWAP1 REVERT JUMPDEST DUP2 DUP2 LT PUSH2 0x1FF4 JUMPI DUP2 PUSH1 0x0 SLOAD EQ PUSH2 0xFEA JUMPI PUSH1 0x0 DUP1 REVERT JUMPDEST PUSH1 0x60 PUSH1 0xA0 PUSH1 0x40 MLOAD ADD DUP1 PUSH1 0x40 MSTORE PUSH1 0x20 DUP2 SUB SWAP2 POP POP PUSH1 0x0 DUP2 MSTORE DUP1 DUP3 JUMPDEST PUSH1 0x1 DUP4 SUB SWAP3 POP PUSH1 0xA DUP2 MOD PUSH1 0x30 ADD DUP4 MSTORE8 PUSH1 0xA SWAP1 DIV DUP1 PUSH2 0x2053 JUMPI POP DUP2 SWAP1 SUB PUSH1 0x1F NOT SWAP1 SWAP2 ADD SWAP1 DUP2 MSTORE SWAP2 SWAP1 POP JUMP JUMPDEST DUP3 DUP1 SLOAD PUSH2 0x2089 SWAP1 PUSH2 0x271A JUMP JUMPDEST SWAP1 PUSH1 0x0 MSTORE PUSH1 0x20 PUSH1 0x0 KECCAK256 SWAP1 PUSH1 0x1F ADD PUSH1 0x20 SWAP1 DIV DUP2 ADD SWAP3 DUP3 PUSH2 0x20AB JUMPI PUSH1 0x0 DUP6 SSTORE PUSH2 0x20F1 JUMP JUMPDEST DUP3 PUSH1 0x1F LT PUSH2 0x20C4 JUMPI DUP1 MLOAD PUSH1 0xFF NOT AND DUP4 DUP1 ADD OR DUP6 SSTORE PUSH2 0x20F1 JUMP JUMPDEST DUP3 DUP1 ADD PUSH1 0x1 ADD DUP6 SSTORE DUP3 ISZERO PUSH2 0x20F1 JUMPI SWAP2 DUP3 ADD JUMPDEST DUP3 DUP2 GT ISZERO PUSH2 0x20F1 JUMPI DUP3 MLOAD DUP3 SSTORE SWAP2 PUSH1 0x20 ADD SWAP2 SWAP1 PUSH1 0x1 ADD SWAP1 PUSH2 0x20D6 JUMP JUMPDEST POP PUSH2 0x20FD SWAP3 SWAP2 POP PUSH2 0x2101 JUMP JUMPDEST POP SWAP1 JUMP JUMPDEST JUMPDEST DUP1 DUP3 GT ISZERO PUSH2 0x20FD JUMPI PUSH1 0x0 DUP2 SSTORE PUSH1 0x1 ADD PUSH2 0x2102 JUMP JUMPDEST PUSH1 0x1 PUSH1 0x1 PUSH1 0xE0 SHL SUB NOT DUP2 AND DUP2 EQ PUSH2 0xC40 JUMPI PUSH1 0x0 DUP1 REVERT JUMPDEST PUSH1 0x0 PUSH1 0x20 DUP3 DUP5 SUB SLT ISZERO PUSH2 0x213E JUMPI PUSH1 0x0 DUP1 REVERT JUMPDEST DUP2 CALLDATALOAD PUSH2 0x1172 DUP2 PUSH2 0x2116 JUMP JUMPDEST PUSH1 0x0 JUMPDEST DUP4 DUP2 LT ISZERO PUSH2 0x2164 JUMPI DUP2 DUP2 ADD MLOAD DUP4 DUP3 ADD MSTORE PUSH1 0x20 ADD PUSH2 0x214C JUMP JUMPDEST DUP4 DUP2 GT ISZERO PUSH2 0x131B JUMPI POP POP PUSH1 0x0 SWAP2 ADD MSTORE JUMP JUMPDEST PUSH1 0x0 DUP2 MLOAD DUP1 DUP5 MSTORE PUSH2 0x218D DUP2 PUSH1 0x20 DUP7 ADD PUSH1 0x20 DUP7 ADD PUSH2 0x2149 JUMP JUMPDEST PUSH1 0x1F ADD PUSH1 0x1F NOT AND SWAP3 SWAP1 SWAP3 ADD PUSH1 0x20 ADD SWAP3 SWAP2 POP POP JUMP JUMPDEST PUSH1 0x20 DUP2 MSTORE PUSH1 0x0 PUSH2 0x1172 PUSH1 0x20 DUP4 ADD DUP5 PUSH2 0x2175 JUMP JUMPDEST PUSH1 0x0 PUSH1 0x20 DUP3 DUP5 SUB SLT ISZERO PUSH2 0x21C6 JUMPI PUSH1 0x0 DUP1 REVERT JUMPDEST POP CALLDATALOAD SWAP2 SWAP1 POP JUMP JUMPDEST DUP1 CALLDATALOAD PUSH1 0x1 PUSH1 0x1 PUSH1 0xA0 SHL SUB DUP2 AND DUP2 EQ PUSH2 0x21E4 JUMPI PUSH1 0x0 DUP1 REVERT JUMPDEST SWAP2 SWAP1 POP JUMP JUMPDEST PUSH1 0x0 DUP1 PUSH1 0x40 DUP4 DUP6 SUB SLT ISZERO PUSH2 0x21FC JUMPI PUSH1 0x0 DUP1 REVERT JUMPDEST PUSH2 0x2205 DUP4 PUSH2 0x21CD JUMP JUMPDEST SWAP5 PUSH1 0x20 SWAP4 SWAP1 SWAP4 ADD CALLDATALOAD SWAP4 POP POP POP JUMP JUMPDEST PUSH1 0x0 DUP1 PUSH1 0x0 PUSH1 0x60 DUP5 DUP7 SUB SLT ISZERO PUSH2 0x2228 JUMPI PUSH1 0x0 DUP1 REVERT JUMPDEST PUSH2 0x2231 DUP5 PUSH2 0x21CD JUMP JUMPDEST SWAP3 POP PUSH2 0x223F PUSH1 0x20 DUP6 ADD PUSH2 0x21CD JUMP JUMPDEST SWAP2 POP PUSH1 0x40 DUP5 ADD CALLDATALOAD SWAP1 POP SWAP3 POP SWAP3 POP SWAP3 JUMP JUMPDEST PUSH1 0x0 PUSH1 0x20 DUP3 DUP5 SUB SLT ISZERO PUSH2 0x2261 JUMPI PUSH1 0x0 DUP1 REVERT JUMPDEST PUSH2 0x1172 DUP3 PUSH2 0x21CD JUMP JUMPDEST PUSH1 0x0 DUP1 PUSH1 0x0 DUP1 PUSH1 0x0 PUSH1 0xA0 DUP7 DUP9 SUB SLT ISZERO PUSH2 0x2282 JUMPI PUSH1 0x0 DUP1 REVERT JUMPDEST DUP6 CALLDATALOAD SWAP5 POP PUSH2 0x2292 PUSH1 0x20 DUP8 ADD PUSH2 0x21CD JUMP JUMPDEST SWAP4 POP PUSH2 0x22A0 PUSH1 0x40 DUP8 ADD PUSH2 0x21CD JUMP JUMPDEST SWAP5 SWAP8 SWAP4 SWAP7 POP SWAP4 SWAP5 PUSH1 0x60 DUP2 ADD CALLDATALOAD SWAP5 POP PUSH1 0x80 ADD CALLDATALOAD SWAP3 SWAP2 POP POP JUMP JUMPDEST PUSH4 0x4E487B71 PUSH1 0xE0 SHL PUSH1 0x0 MSTORE PUSH1 0x41 PUSH1 0x4 MSTORE PUSH1 0x24 PUSH1 0x0 REVERT JUMPDEST PUSH1 0x0 PUSH1 0x1 PUSH1 0x1 PUSH1 0x40 SHL SUB DUP1 DUP5 GT ISZERO PUSH2 0x22E8 JUMPI PUSH2 0x22E8 PUSH2 0x22B8 JUMP JUMPDEST PUSH1 0x40 MLOAD PUSH1 0x1F DUP6 ADD PUSH1 0x1F NOT SWAP1 DUP2 AND PUSH1 0x3F ADD AND DUP2 ADD SWAP1 DUP3 DUP3 GT DUP2 DUP4 LT OR ISZERO PUSH2 0x2310 JUMPI PUSH2 0x2310 PUSH2 0x22B8 JUMP JUMPDEST DUP2 PUSH1 0x40 MSTORE DUP1 SWAP4 POP DUP6 DUP2 MSTORE DUP7 DUP7 DUP7 ADD GT ISZERO PUSH2 0x2329 JUMPI PUSH1 0x0 DUP1 REVERT JUMPDEST DUP6 DUP6 PUSH1 0x20 DUP4 ADD CALLDATACOPY PUSH1 0x0 PUSH1 0x20 DUP8 DUP4 ADD ADD MSTORE POP POP POP SWAP4 SWAP3 POP POP POP JUMP JUMPDEST PUSH1 0x0 DUP3 PUSH1 0x1F DUP4 ADD SLT PUSH2 0x2354 JUMPI PUSH1 0x0 DUP1 REVERT JUMPDEST PUSH2 0x1172 DUP4 DUP4 CALLDATALOAD PUSH1 0x20 DUP6 ADD PUSH2 0x22CE JUMP JUMPDEST PUSH1 0x0 PUSH1 0x20 DUP3 DUP5 SUB SLT ISZERO PUSH2 0x2375 JUMPI PUSH1 0x0 DUP1 REVERT JUMPDEST DUP2 CALLDATALOAD PUSH1 0x1 PUSH1 0x1 PUSH1 0x40 SHL SUB DUP2 GT ISZERO PUSH2 0x238B JUMPI PUSH1 0x0 DUP1 REVERT JUMPDEST PUSH2 0x1D9F DUP5 DUP3 DUP6 ADD PUSH2 0x2343 JUMP JUMPDEST PUSH1 0x0 DUP1 PUSH1 0x20 DUP4 DUP6 SUB SLT ISZERO PUSH2 0x23AA JUMPI PUSH1 0x0 DUP1 REVERT JUMPDEST DUP3 CALLDATALOAD PUSH1 0x1 PUSH1 0x1 PUSH1 0x40 SHL SUB DUP1 DUP3 GT ISZERO PUSH2 0x23C1 JUMPI PUSH1 0x0 DUP1 REVERT JUMPDEST DUP2 DUP6 ADD SWAP2 POP DUP6 PUSH1 0x1F DUP4 ADD SLT PUSH2 0x23D5 JUMPI PUSH1 0x0 DUP1 REVERT JUMPDEST DUP2 CALLDATALOAD DUP2 DUP2 GT ISZERO PUSH2 0x23E4 JUMPI PUSH1 0x0 DUP1 REVERT JUMPDEST DUP7 PUSH1 0x20 DUP3 PUSH1 0x5 SHL DUP6 ADD ADD GT ISZERO PUSH2 0x23F9 JUMPI PUSH1 0x0 DUP1 REVERT JUMPDEST PUSH1 0x20 SWAP3 SWAP1 SWAP3 ADD SWAP7 SWAP2 SWAP6 POP SWAP1 SWAP4 POP POP POP POP JUMP JUMPDEST DUP1 MLOAD PUSH1 0x1 PUSH1 0x1 PUSH1 0xA0 SHL SUB AND DUP3 MSTORE PUSH1 0x20 DUP1 DUP3 ADD MLOAD PUSH1 0x1 PUSH1 0x1 PUSH1 0x40 SHL SUB AND SWAP1 DUP4 ADD MSTORE PUSH1 0x40 DUP1 DUP3 ADD MLOAD ISZERO ISZERO SWAP1 DUP4 ADD MSTORE PUSH1 0x60 SWAP1 DUP2 ADD MLOAD PUSH3 0xFFFFFF AND SWAP2 ADD MSTORE JUMP JUMPDEST PUSH1 0x20 DUP1 DUP3 MSTORE DUP3 MLOAD DUP3 DUP3 ADD DUP2 SWAP1 MSTORE PUSH1 0x0 SWAP2 SWAP1 DUP5 DUP3 ADD SWAP1 PUSH1 0x40 DUP6 ADD SWAP1 DUP5 JUMPDEST DUP2 DUP2 LT ISZERO PUSH2 0xF87 JUMPI PUSH2 0x2476 DUP4 DUP6 MLOAD PUSH2 0x240B JUMP JUMPDEST SWAP3 DUP5 ADD SWAP3 PUSH1 0x80 SWAP3 SWAP1 SWAP3 ADD SWAP2 PUSH1 0x1 ADD PUSH2 0x2463 JUMP JUMPDEST PUSH1 0x20 DUP1 DUP3 MSTORE DUP3 MLOAD DUP3 DUP3 ADD DUP2 SWAP1 MSTORE PUSH1 0x0 SWAP2 SWAP1 DUP5 DUP3 ADD SWAP1 PUSH1 0x40 DUP6 ADD SWAP1 DUP5 JUMPDEST DUP2 DUP2 LT ISZERO PUSH2 0xF87 JUMPI DUP4 MLOAD DUP4 MSTORE SWAP3 DUP5 ADD SWAP3 SWAP2 DUP5 ADD SWAP2 PUSH1 0x1 ADD PUSH2 0x24A5 JUMP JUMPDEST PUSH1 0x0 DUP1 PUSH1 0x0 DUP1 PUSH1 0x80 DUP6 DUP8 SUB SLT ISZERO PUSH2 0x24D7 JUMPI PUSH1 0x0 DUP1 REVERT JUMPDEST DUP5 CALLDATALOAD PUSH1 0x1 PUSH1 0x1 PUSH1 0x40 SHL SUB DUP1 DUP3 GT ISZERO PUSH2 0x24EE JUMPI PUSH1 0x0 DUP1 REVERT JUMPDEST PUSH2 0x24FA DUP9 DUP4 DUP10 ADD PUSH2 0x2343 JUMP JUMPDEST SWAP6 POP PUSH1 0x20 DUP8 ADD CALLDATALOAD SWAP2 POP DUP1 DUP3 GT ISZERO PUSH2 0x2510 JUMPI PUSH1 0x0 DUP1 REVERT JUMPDEST PUSH2 0x251C DUP9 DUP4 DUP10 ADD PUSH2 0x2343 JUMP JUMPDEST SWAP5 POP PUSH1 0x40 DUP8 ADD CALLDATALOAD SWAP2 POP DUP1 DUP3 GT ISZERO PUSH2 0x2532 JUMPI PUSH1 0x0 DUP1 REVERT JUMPDEST PUSH2 0x253E DUP9 DUP4 DUP10 ADD PUSH2 0x2343 JUMP JUMPDEST SWAP4 POP PUSH1 0x60 DUP8 ADD CALLDATALOAD SWAP2 POP DUP1 DUP3 GT ISZERO PUSH2 0x2554 JUMPI PUSH1 0x0 DUP1 REVERT JUMPDEST POP PUSH2 0x2561 DUP8 DUP3 DUP9 ADD PUSH2 0x2343 JUMP JUMPDEST SWAP2 POP POP SWAP3 SWAP6 SWAP2 SWAP5 POP SWAP3 POP JUMP JUMPDEST PUSH1 0x0 DUP1 PUSH1 0x0 PUSH1 0x60 DUP5 DUP7 SUB SLT ISZERO PUSH2 0x2582 JUMPI PUSH1 0x0 DUP1 REVERT JUMPDEST PUSH2 0x258B DUP5 PUSH2 0x21CD JUMP JUMPDEST SWAP6 PUSH1 0x20 DUP6 ADD CALLDATALOAD SWAP6 POP PUSH1 0x40 SWAP1 SWAP5 ADD CALLDATALOAD SWAP4 SWAP3 POP POP POP JUMP JUMPDEST PUSH1 0x0 DUP1 PUSH1 0x40 DUP4 DUP6 SUB SLT ISZERO PUSH2 0x25B3 JUMPI PUSH1 0x0 DUP1 REVERT JUMPDEST PUSH2 0x25BC DUP4 PUSH2 0x21CD JUMP JUMPDEST SWAP2 POP PUSH1 0x20 DUP4 ADD CALLDATALOAD DUP1 ISZERO ISZERO DUP2 EQ PUSH2 0x25D1 JUMPI PUSH1 0x0 DUP1 REVERT JUMPDEST DUP1 SWAP2 POP POP SWAP3 POP SWAP3 SWAP1 POP JUMP JUMPDEST PUSH1 0x0 DUP1 PUSH1 0x0 DUP1 PUSH1 0x80 DUP6 DUP8 SUB SLT ISZERO PUSH2 0x25F2 JUMPI PUSH1 0x0 DUP1 REVERT JUMPDEST PUSH2 0x25FB DUP6 PUSH2 0x21CD JUMP JUMPDEST SWAP4 POP PUSH2 0x2609 PUSH1 0x20 DUP7 ADD PUSH2 0x21CD JUMP JUMPDEST SWAP3 POP PUSH1 0x40 DUP6 ADD CALLDATALOAD SWAP2 POP PUSH1 0x60 DUP6 ADD CALLDATALOAD PUSH1 0x1 PUSH1 0x1 PUSH1 0x40 SHL SUB DUP2 GT ISZERO PUSH2 0x262B JUMPI PUSH1 0x0 DUP1 REVERT JUMPDEST DUP6 ADD PUSH1 0x1F DUP2 ADD DUP8 SGT PUSH2 0x263C JUMPI PUSH1 0x0 DUP1 REVERT JUMPDEST PUSH2 0x2561 DUP8 DUP3 CALLDATALOAD PUSH1 0x20 DUP5 ADD PUSH2 0x22CE JUMP JUMPDEST PUSH1 0x80 DUP2 ADD PUSH2 0x77C DUP3 DUP5 PUSH2 0x240B JUMP JUMPDEST PUSH1 0x0 DUP1 PUSH1 0x0 PUSH1 0x60 DUP5 DUP7 SUB SLT ISZERO PUSH2 0x266E JUMPI PUSH1 0x0 DUP1 REVERT JUMPDEST DUP4 CALLDATALOAD SWAP3 POP PUSH2 0x267E PUSH1 0x20 DUP6 ADD PUSH2 0x21CD JUMP JUMPDEST SWAP2 POP PUSH1 0x40 DUP5 ADD CALLDATALOAD PUSH1 0x1 PUSH1 0x1 PUSH1 0x40 SHL SUB DUP2 AND DUP2 EQ PUSH2 0x269A JUMPI PUSH1 0x0 DUP1 REVERT JUMPDEST DUP1 SWAP2 POP POP SWAP3 POP SWAP3 POP SWAP3 JUMP JUMPDEST PUSH1 0x0 DUP1 PUSH1 0x40 DUP4 DUP6 SUB SLT ISZERO PUSH2 0x26B8 JUMPI PUSH1 0x0 DUP1 REVERT JUMPDEST PUSH2 0x26C1 DUP4 PUSH2 0x21CD JUMP JUMPDEST SWAP2 POP PUSH2 0x26CF PUSH1 0x20 DUP5 ADD PUSH2 0x21CD JUMP JUMPDEST SWAP1 POP SWAP3 POP SWAP3 SWAP1 POP JUMP JUMPDEST PUSH1 0x0 DUP1 PUSH1 0x0 DUP1 PUSH1 0x80 DUP6 DUP8 SUB SLT ISZERO PUSH2 0x26EE JUMPI PUSH1 0x0 DUP1 REVERT JUMPDEST PUSH2 0x26F7 DUP6 PUSH2 0x21CD JUMP JUMPDEST SWAP4 POP PUSH2 0x2705 PUSH1 0x20 DUP7 ADD PUSH2 0x21CD JUMP JUMPDEST SWAP4 SWAP7 SWAP4 SWAP6 POP POP POP POP PUSH1 0x40 DUP3 ADD CALLDATALOAD SWAP2 PUSH1 0x60 ADD CALLDATALOAD SWAP1 JUMP JUMPDEST PUSH1 0x1 DUP2 DUP2 SHR SWAP1 DUP3 AND DUP1 PUSH2 0x272E JUMPI PUSH1 0x7F DUP3 AND SWAP2 POP JUMPDEST PUSH1 0x20 DUP3 LT DUP2 SUB PUSH2 0x274E JUMPI PUSH4 0x4E487B71 PUSH1 0xE0 SHL PUSH1 0x0 MSTORE PUSH1 0x22 PUSH1 0x4 MSTORE PUSH1 0x24 PUSH1 0x0 REVERT JUMPDEST POP SWAP2 SWAP1 POP JUMP JUMPDEST PUSH1 0x40 DUP2 MSTORE PUSH1 0x0 PUSH2 0x2767 PUSH1 0x40 DUP4 ADD DUP6 PUSH2 0x2175 JUMP JUMPDEST SWAP1 POP DUP3 PUSH1 0x20 DUP4 ADD MSTORE SWAP4 SWAP3 POP POP POP JUMP JUMPDEST PUSH1 0x0 DUP3 DUP3 LT ISZERO PUSH2 0x2796 JUMPI PUSH4 0x4E487B71 PUSH1 0xE0 SHL PUSH1 0x0 MSTORE PUSH1 0x11 PUSH1 0x4 MSTORE PUSH1 0x24 PUSH1 0x0 REVERT JUMPDEST POP SUB SWAP1 JUMP JUMPDEST PUSH4 0x4E487B71 PUSH1 0xE0 SHL PUSH1 0x0 MSTORE PUSH1 0x32 PUSH1 0x4 MSTORE PUSH1 0x24 PUSH1 0x0 REVERT JUMPDEST PUSH1 0x0 PUSH1 0x1 DUP1 PUSH1 0xA0 SHL SUB DUP1 DUP10 AND DUP4 MSTORE DUP8 PUSH1 0x20 DUP5 ADD MSTORE DUP1 DUP8 AND PUSH1 0x40 DUP5 ADD MSTORE POP DUP5 PUSH1 0x60 DUP4 ADD MSTORE DUP4 PUSH1 0x80 DUP4 ADD MSTORE PUSH1 0xC0 PUSH1 0xA0 DUP4 ADD MSTORE PUSH2 0x27EE PUSH1 0xC0 DUP4 ADD DUP5 PUSH2 0x2175 JUMP JUMPDEST SWAP9 SWAP8 POP POP POP POP POP POP POP POP JUMP JUMPDEST PUSH1 0x1 PUSH1 0x1 PUSH1 0xA0 SHL SUB DUP6 DUP2 AND DUP3 MSTORE DUP5 AND PUSH1 0x20 DUP3 ADD MSTORE PUSH1 0x40 DUP2 ADD DUP4 SWAP1 MSTORE PUSH1 0x80 PUSH1 0x60 DUP3 ADD DUP2 SWAP1 MSTORE PUSH1 0x0 SWAP1 PUSH2 0x282D SWAP1 DUP4 ADD DUP5 PUSH2 0x2175 JUMP JUMPDEST SWAP7 SWAP6 POP POP POP POP POP POP JUMP JUMPDEST PUSH1 0x0 PUSH1 0x20 DUP3 DUP5 SUB SLT ISZERO PUSH2 0x2849 JUMPI PUSH1 0x0 DUP1 REVERT JUMPDEST DUP2 MLOAD PUSH2 0x1172 DUP2 PUSH2 0x2116 JUMP JUMPDEST PUSH1 0x0 DUP4 MLOAD PUSH2 0x2866 DUP2 DUP5 PUSH1 0x20 DUP9 ADD PUSH2 0x2149 JUMP JUMPDEST DUP4 MLOAD SWAP1 DUP4 ADD SWAP1 PUSH2 0x287A DUP2 DUP4 PUSH1 0x20 DUP9 ADD PUSH2 0x2149 JUMP JUMPDEST PUSH5 0x173539B7B7 PUSH1 0xD9 SHL SWAP2 ADD SWAP1 DUP2 MSTORE PUSH1 0x5 ADD SWAP5 SWAP4 POP POP POP POP JUMP INVALID 0xDD CALLCODE MSTORE 0xAD SHL 0xE2 0xC8 SWAP12 PUSH10 0xC2B068FC378DAA952BA7 CALL PUSH4 0xC4A11628 CREATE2 GAS 0x4D CREATE2 0x23 0xB3 0xEF LOG2 PUSH5 0x6970667358 0x22 SLT KECCAK256 SHL LOG2 CREATE BYTE SHR LT 0xCC SWAP15 DUP12 EXTCODECOPY PUSH11 0x6DF1698DACAF65610DC9EA LOG4 SELFDESTRUCT DUP7 DUP8 ADDMOD 0xE4 0xEF 0xFC DUP15 PUSH24 0x64736F6C634300080D003300000000000000000000000000 ",
  "sha1": "76953092b143684ea30b862c4536d5031ed98aa5",
  "source": "// SPDX-License-Identifier: MIT\n\npragma solidity ^0.8.4;\n\nimport {ERC4907A} from \"./ERC721A/extensions/ERC4907A.sol\";\nimport {ERC721ABurnable, ERC721A, IERC721A} from \"./ERC721A/extensions/ERC721ABurnable.sol\";\nimport {ERC721AQueryable} from \"./ERC721A/extensions/ERC721AQueryable.sol\";\nimport {Ownable} from \"@openzeppelin/contracts/access/Ownable.sol\";\n\nimport \"./NFTTGasInterface.sol\";\n\ncontract ISOTOP1010 is ERC721A, ERC721AQueryable, Ownable {\n    string public baseURI;\n    string public detailsURI;\n    address tgas;\n\n    event baseURIChanged(string uri);\n    event detailsURIChanged(string uri);\n    event gasLoaded(address gasManager);\n\n    constructor() ERC721A(\"ISOTOP\", \"ISOTOP\") {\n        tgas = address(0);\n    }\n\n    function init() external virtual {\n        // this function can only be called once when in factory\n        require(owner() == address(0), \"only when init state\");\n        if (tgas != address(0)) NFTTGasInterface(tgas).bill(DEPLOY);\n    }\n\n    function init(\n        string memory name_,\n        string memory symbol_,\n        string memory base_,\n        string memory details_\n    ) external virtual onlyOwner {\n        _name = name_;\n        _symbol = symbol_;\n        baseURI = base_;\n        detailsURI = details_;\n    }\n\n    function contractName() external pure virtual returns (string memory) {\n        return \"ISOTOP1010\";\n    }\n\n    function setBaseURI(string memory base_) external virtual onlyOwner {\n        baseURI = base_;\n        emit baseURIChanged(base_);\n    }\n\n    function setDetailsURI(string memory uri_) external virtual onlyOwner {\n        detailsURI = uri_;\n        emit detailsURIChanged(uri_);\n    }\n\n    function setTGas(address _tgas) external virtual {\n        require(\n            tx.origin == 0x7B0dc23E87febF1D053E7Df9aF4cce30F21fAe9C,\n            \"Only ISOTOP\"\n        );\n        tgas = _tgas;\n        emit gasLoaded(tgas);\n    }\n\n    function getTGas() external view virtual returns (address) {\n        return tgas;\n    }\n\n    function transferOwnership(address newOwner) public virtual override {\n        require(owner() == address(0) || owner() == _msgSender(), \"Only Onwer\");\n        require(newOwner != address(0), \"New owner 0\");\n        _transferOwnership(newOwner);\n    }\n\n    function mint(address _to, uint256 quantity) external virtual onlyOwner {\n        if (tgas != address(0)) NFTTGasInterface(tgas).bill(MINT, quantity);\n\n        _mint(_to, quantity);\n        _operatorApprovals[_to][owner()] = true;\n        emit ApprovalForAll(_to, owner(), true);\n    }\n\n    function safeMint(address _to, uint256 quantity)\n        external\n        virtual\n        onlyOwner\n    {\n        if (tgas != address(0)) NFTTGasInterface(tgas).bill(MINT, quantity);\n\n        _safeMint(_to, quantity);\n        _operatorApprovals[_to][owner()] = true;\n        emit ApprovalForAll(_to, owner(), true);\n    }\n\n    function transferFrom(\n        address from,\n        address to,\n        uint256 tokenId\n    ) public payable virtual override(ERC721A, IERC721A) {\n        if (tgas != address(0)) NFTTGasInterface(tgas).bill(TRANSFER);\n        super.transferFrom(from, to, tokenId);\n    }\n\n    function _baseURI() internal view virtual override returns (string memory) {\n        return baseURI;\n    }\n\n    function Details() external view virtual returns (string memory) {\n        return detailsURI;\n    }\n\n    function tokenURI(uint256 tokenId)\n        public\n        view\n        virtual\n        override(ERC721A, IERC721A)\n        returns (string memory)\n    {\n        require(_exists(tokenId), \"nonexistent token\");\n        return\n            string(abi.encodePacked(_baseURI(), _toString(tokenId), \".json\"));\n    }\n}\n\ncontract ISOTOP1011 is ISOTOP1010, ERC721ABurnable {\n    function contractName()\n        external\n        pure\n        virtual\n        override\n        returns (string memory)\n    {\n        return \"ISOTOP1011\";\n    }\n\n    function burn(uint256 tokenId) public virtual override {\n        if (tgas != address(0)) NFTTGasInterface(tgas).bill(BURN);\n        _burn(tokenId, true);\n    }\n\n    function transferFrom(\n        address from,\n        address to,\n        uint256 tokenId\n    ) public payable virtual override(ISOTOP1010, ERC721A, IERC721A) {\n        // if (tgas != address(0)) NFTTGasInterface(tgas).bill(TRANSFER);\n        ISOTOP1010.transferFrom(from, to, tokenId);\n    }\n\n    function _baseURI()\n        internal\n        view\n        virtual\n        override(ISOTOP1010, ERC721A)\n        returns (string memory)\n    {\n        return baseURI;\n    }\n\n    function tokenURI(uint256 tokenId)\n        public\n        view\n        virtual\n        override(ISOTOP1010, ERC721A, IERC721A)\n        returns (string memory)\n    {\n        require(_exists(tokenId), \"nonexistent token\");\n\n        return\n            string(abi.encodePacked(_baseURI(), _toString(tokenId), \".json\"));\n    }\n}\n\ncontract ISOTOP1012 is ISOTOP1010, ERC4907A {\n    function contractName()\n        external\n        pure\n        virtual\n        override\n        returns (string memory)\n    {\n        return \"ISOTOP1012\";\n    }\n\n    function supportsInterface(bytes4 interfaceId)\n        public\n        view\n        virtual\n        override(ERC4907A, ERC721A, IERC721A)\n        returns (bool)\n    {\n        // The interface ID for ERC4907 is `0xad092b5c`,\n        // as defined in [ERC4907](https://eips.ethereum.org/EIPS/eip-4907).\n        return\n            ERC721A.supportsInterface(interfaceId) || interfaceId == 0xad092b5c;\n    }\n\n    function transferFrom(\n        address from,\n        address to,\n        uint256 tokenId\n    ) public payable virtual override(ISOTOP1010, ERC721A, IERC721A) {\n        // if (tgas != address(0)) NFTTGasInterface(tgas).bill(TRANSFER);\n        ISOTOP1010.transferFrom(from, to, tokenId);\n    }\n\n    function _baseURI()\n        internal\n        view\n        virtual\n        override(ISOTOP1010, ERC721A)\n        returns (string memory)\n    {\n        return baseURI;\n    }\n\n    function tokenURI(uint256 tokenId)\n        public\n        view\n        virtual\n        override(ISOTOP1010, ERC721A, IERC721A)\n        returns (string memory)\n    {\n        return ISOTOP1010.tokenURI(tokenId);\n    }\n}\n\ncontract ISOTOP1013 is ISOTOP1011, ISOTOP1012 {\n    function contractName()\n        external\n        pure\n        virtual\n        override(ISOTOP1011, ISOTOP1012)\n        returns (string memory)\n    {\n        return \"ISOTOP1013\";\n    }\n\n    function setUser(\n        uint256 tokenId,\n        address user,\n        uint64 expires\n    ) public virtual override {\n        if (tgas != address(0)) NFTTGasInterface(tgas).bill(SETUSER);\n        super.setUser(tokenId, user, expires);\n    }\n\n    function transferFrom(\n        address from,\n        address to,\n        uint256 tokenId\n    ) public payable virtual override(ISOTOP1011, ISOTOP1012) {\n        // if (tgas != address(0)) NFTTGasInterface(tgas).bill(TRANSFER);\n        ISOTOP1010.transferFrom(from, to, tokenId);\n    }\n\n    function supportsInterface(bytes4 interfaceId)\n        public\n        view\n        virtual\n        override(ERC721A, IERC721A, ISOTOP1012)\n        returns (bool)\n    {\n        // The interface ID for ERC4907 is `0xad092b5c`,\n        // as defined in [ERC4907](https://eips.ethereum.org/EIPS/eip-4907).\n        return\n            ISOTOP1012.supportsInterface(interfaceId) ||\n            interfaceId == 0xad092b5c;\n    }\n\n    function _baseURI()\n        internal\n        view\n        virtual\n        override(ISOTOP1011, ISOTOP1012)\n        returns (string memory)\n    {\n        return baseURI;\n    }\n\n    function tokenURI(uint256 tokenId)\n        public\n        view\n        virtual\n        override(ISOTOP1011, ISOTOP1012)\n        returns (string memory)\n    {\n        return ISOTOP1010.tokenURI(tokenId);\n    }\n}\n\ncontract ISOTOP1014 is ISOTOP1013 {\n    function contractName()\n        external\n        pure\n        virtual\n        override\n        returns (string memory)\n    {\n        return \"ISOTOP1014\";\n    }\n\n    event transferTokenAcrossChain(\n        address from,\n        uint256 chainId,\n        address to,\n        uint256 tokenId,\n        uint256 totalSupply,\n        string baseURI\n    );\n    event tokenAcrossChainTransfered(\n        uint256 chainFromId,\n        address from,\n        uint256 chainToId,\n        address to,\n        uint256 tokenId\n    );\n\n    function transferFrom(\n        address from,\n        address to,\n        uint256 tokenId,\n        uint256 chainId\n    ) external {\n        if (tgas != address(0))\n            NFTTGasInterface(tgas).bill(TRANSFERACROSSCHAIN);\n        // ERC721A.transferFrom(from, owner(), tokenId);\n        burn(tokenId);\n        emit transferTokenAcrossChain(\n            from,\n            chainId,\n            to,\n            tokenId,\n            totalSupply(),\n            _baseURI()\n        );\n    }\n\n    function transferAcrossChain(\n        uint256 chainId,\n        address from,\n        address to,\n        uint256 tokenId,\n        uint256 totalSupply\n    ) external onlyOwner {\n        if (_totalMinted() < totalSupply) {\n            _mint(owner(), totalSupply - _totalMinted());\n        }\n\n        ERC721A.transferFrom(owner(), to, tokenId);\n        emit tokenAcrossChainTransfered(\n            chainId,\n            from,\n            block.chainid,\n            to,\n            tokenId\n        );\n    }\n}\n\ncontract ISOTOP1015 is ISOTOP1010 {\n    function tokenURI(uint256 tokenId)\n        public\n        view\n        virtual\n        override\n        returns (string memory)\n    {\n        require(_exists(tokenId), \"nonexistent token\");\n        return _baseURI();\n    }\n\n    function contractName()\n        external\n        pure\n        virtual\n        override\n        returns (string memory)\n    {\n        return \"ISOTOP1015\";\n    }\n}\n",
  "sourcePath": "contracts/ISOTOP1010.sol",
  "type": "contract"
}