{
  "abi": [
    {
      "inputs": [],
      "name": "ApprovalCallerNotOwnerNorApproved",
      "type": "error"
    },
    {
      "inputs": [],
      "name": "ApprovalQueryForNonexistentToken",
      "type": "error"
    },
    {
      "inputs": [],
      "name": "BalanceQueryForZeroAddress",
      "type": "error"
    },
    {
      "inputs": [],
      "name": "InvalidQueryRange",
      "type": "error"
    },
    {
      "inputs": [],
      "name": "MintERC2309QuantityExceedsLimit",
      "type": "error"
    },
    {
      "inputs": [],
      "name": "MintToZeroAddress",
      "type": "error"
    },
    {
      "inputs": [],
      "name": "MintZeroQuantity",
      "type": "error"
    },
    {
      "inputs": [],
      "name": "OwnerQueryForNonexistentToken",
      "type": "error"
    },
    {
      "inputs": [],
      "name": "OwnershipNotInitializedForExtraData",
      "type": "error"
    },
    {
      "inputs": [],
      "name": "SetUserCallerNotOwnerNorApproved",
      "type": "error"
    },
    {
      "inputs": [],
      "name": "TransferCallerNotOwnerNorApproved",
      "type": "error"
    },
    {
      "inputs": [],
      "name": "TransferFromIncorrectOwner",
      "type": "error"
    },
    {
      "inputs": [],
      "name": "TransferToNonERC721ReceiverImplementer",
      "type": "error"
    },
    {
      "inputs": [],
      "name": "TransferToZeroAddress",
      "type": "error"
    },
    {
      "inputs": [],
      "name": "URIQueryForNonexistentToken",
      "type": "error"
    },
    {
      "anonymous": false,
      "inputs": [
        {
          "indexed": true,
          "internalType": "address",
          "name": "owner",
          "type": "address"
        },
        {
          "indexed": true,
          "internalType": "address",
          "name": "approved",
          "type": "address"
        },
        {
          "indexed": true,
          "internalType": "uint256",
          "name": "tokenId",
          "type": "uint256"
        }
      ],
      "name": "Approval",
      "type": "event"
    },
    {
      "anonymous": false,
      "inputs": [
        {
          "indexed": true,
          "internalType": "address",
          "name": "owner",
          "type": "address"
        },
        {
          "indexed": true,
          "internalType": "address",
          "name": "operator",
          "type": "address"
        },
        {
          "indexed": false,
          "internalType": "bool",
          "name": "approved",
          "type": "bool"
        }
      ],
      "name": "ApprovalForAll",
      "type": "event"
    },
    {
      "anonymous": false,
      "inputs": [
        {
          "indexed": true,
          "internalType": "uint256",
          "name": "fromTokenId",
          "type": "uint256"
        },
        {
          "indexed": false,
          "internalType": "uint256",
          "name": "toTokenId",
          "type": "uint256"
        },
        {
          "indexed": true,
          "internalType": "address",
          "name": "from",
          "type": "address"
        },
        {
          "indexed": true,
          "internalType": "address",
          "name": "to",
          "type": "address"
        }
      ],
      "name": "ConsecutiveTransfer",
      "type": "event"
    },
    {
      "anonymous": false,
      "inputs": [
        {
          "indexed": true,
          "internalType": "address",
          "name": "previousOwner",
          "type": "address"
        },
        {
          "indexed": true,
          "internalType": "address",
          "name": "newOwner",
          "type": "address"
        }
      ],
      "name": "OwnershipTransferred",
      "type": "event"
    },
    {
      "anonymous": false,
      "inputs": [
        {
          "indexed": true,
          "internalType": "address",
          "name": "from",
          "type": "address"
        },
        {
          "indexed": true,
          "internalType": "address",
          "name": "to",
          "type": "address"
        },
        {
          "indexed": true,
          "internalType": "uint256",
          "name": "tokenId",
          "type": "uint256"
        }
      ],
      "name": "Transfer",
      "type": "event"
    },
    {
      "anonymous": false,
      "inputs": [
        {
          "indexed": true,
          "internalType": "uint256",
          "name": "tokenId",
          "type": "uint256"
        },
        {
          "indexed": true,
          "internalType": "address",
          "name": "user",
          "type": "address"
        },
        {
          "indexed": false,
          "internalType": "uint64",
          "name": "expires",
          "type": "uint64"
        }
      ],
      "name": "UpdateUser",
      "type": "event"
    },
    {
      "anonymous": false,
      "inputs": [
        {
          "indexed": false,
          "internalType": "string",
          "name": "uri",
          "type": "string"
        }
      ],
      "name": "baseURIChanged",
      "type": "event"
    },
    {
      "anonymous": false,
      "inputs": [
        {
          "indexed": false,
          "internalType": "string",
          "name": "uri",
          "type": "string"
        }
      ],
      "name": "detailsURIChanged",
      "type": "event"
    },
    {
      "anonymous": false,
      "inputs": [
        {
          "indexed": false,
          "internalType": "address",
          "name": "gasManager",
          "type": "address"
        }
      ],
      "name": "gasLoaded",
      "type": "event"
    },
    {
      "inputs": [],
      "name": "Details",
      "outputs": [
        {
          "internalType": "string",
          "name": "",
          "type": "string"
        }
      ],
      "stateMutability": "view",
      "type": "function"
    },
    {
      "inputs": [
        {
          "internalType": "address",
          "name": "to",
          "type": "address"
        },
        {
          "internalType": "uint256",
          "name": "tokenId",
          "type": "uint256"
        }
      ],
      "name": "approve",
      "outputs": [],
      "stateMutability": "payable",
      "type": "function"
    },
    {
      "inputs": [
        {
          "internalType": "address",
          "name": "owner",
          "type": "address"
        }
      ],
      "name": "balanceOf",
      "outputs": [
        {
          "internalType": "uint256",
          "name": "",
          "type": "uint256"
        }
      ],
      "stateMutability": "view",
      "type": "function"
    },
    {
      "inputs": [],
      "name": "baseURI",
      "outputs": [
        {
          "internalType": "string",
          "name": "",
          "type": "string"
        }
      ],
      "stateMutability": "view",
      "type": "function"
    },
    {
      "inputs": [
        {
          "internalType": "uint256",
          "name": "tokenId",
          "type": "uint256"
        }
      ],
      "name": "burn",
      "outputs": [],
      "stateMutability": "nonpayable",
      "type": "function"
    },
    {
      "inputs": [],
      "name": "contractName",
      "outputs": [
        {
          "internalType": "string",
          "name": "",
          "type": "string"
        }
      ],
      "stateMutability": "pure",
      "type": "function"
    },
    {
      "inputs": [],
      "name": "detailsURI",
      "outputs": [
        {
          "internalType": "string",
          "name": "",
          "type": "string"
        }
      ],
      "stateMutability": "view",
      "type": "function"
    },
    {
      "inputs": [
        {
          "internalType": "uint256",
          "name": "tokenId",
          "type": "uint256"
        }
      ],
      "name": "explicitOwnershipOf",
      "outputs": [
        {
          "components": [
            {
              "internalType": "address",
              "name": "addr",
              "type": "address"
            },
            {
              "internalType": "uint64",
              "name": "startTimestamp",
              "type": "uint64"
            },
            {
              "internalType": "bool",
              "name": "burned",
              "type": "bool"
            },
            {
              "internalType": "uint24",
              "name": "extraData",
              "type": "uint24"
            }
          ],
          "internalType": "struct IERC721A.TokenOwnership",
          "name": "",
          "type": "tuple"
        }
      ],
      "stateMutability": "view",
      "type": "function"
    },
    {
      "inputs": [
        {
          "internalType": "uint256[]",
          "name": "tokenIds",
          "type": "uint256[]"
        }
      ],
      "name": "explicitOwnershipsOf",
      "outputs": [
        {
          "components": [
            {
              "internalType": "address",
              "name": "addr",
              "type": "address"
            },
            {
              "internalType": "uint64",
              "name": "startTimestamp",
              "type": "uint64"
            },
            {
              "internalType": "bool",
              "name": "burned",
              "type": "bool"
            },
            {
              "internalType": "uint24",
              "name": "extraData",
              "type": "uint24"
            }
          ],
          "internalType": "struct IERC721A.TokenOwnership[]",
          "name": "",
          "type": "tuple[]"
        }
      ],
      "stateMutability": "view",
      "type": "function"
    },
    {
      "inputs": [
        {
          "internalType": "uint256",
          "name": "tokenId",
          "type": "uint256"
        }
      ],
      "name": "getApproved",
      "outputs": [
        {
          "internalType": "address",
          "name": "",
          "type": "address"
        }
      ],
      "stateMutability": "view",
      "type": "function"
    },
    {
      "inputs": [],
      "name": "getTGas",
      "outputs": [
        {
          "internalType": "address",
          "name": "",
          "type": "address"
        }
      ],
      "stateMutability": "view",
      "type": "function"
    },
    {
      "inputs": [
        {
          "internalType": "string",
          "name": "name_",
          "type": "string"
        },
        {
          "internalType": "string",
          "name": "symbol_",
          "type": "string"
        },
        {
          "internalType": "string",
          "name": "base_",
          "type": "string"
        },
        {
          "internalType": "string",
          "name": "details_",
          "type": "string"
        }
      ],
      "name": "init",
      "outputs": [],
      "stateMutability": "nonpayable",
      "type": "function"
    },
    {
      "inputs": [],
      "name": "init",
      "outputs": [],
      "stateMutability": "nonpayable",
      "type": "function"
    },
    {
      "inputs": [
        {
          "internalType": "address",
          "name": "owner",
          "type": "address"
        },
        {
          "internalType": "address",
          "name": "operator",
          "type": "address"
        }
      ],
      "name": "isApprovedForAll",
      "outputs": [
        {
          "internalType": "bool",
          "name": "",
          "type": "bool"
        }
      ],
      "stateMutability": "view",
      "type": "function"
    },
    {
      "inputs": [
        {
          "internalType": "address",
          "name": "_to",
          "type": "address"
        },
        {
          "internalType": "uint256",
          "name": "quantity",
          "type": "uint256"
        }
      ],
      "name": "mint",
      "outputs": [],
      "stateMutability": "nonpayable",
      "type": "function"
    },
    {
      "inputs": [],
      "name": "name",
      "outputs": [
        {
          "internalType": "string",
          "name": "",
          "type": "string"
        }
      ],
      "stateMutability": "view",
      "type": "function"
    },
    {
      "inputs": [],
      "name": "owner",
      "outputs": [
        {
          "internalType": "address",
          "name": "",
          "type": "address"
        }
      ],
      "stateMutability": "view",
      "type": "function"
    },
    {
      "inputs": [
        {
          "internalType": "uint256",
          "name": "tokenId",
          "type": "uint256"
        }
      ],
      "name": "ownerOf",
      "outputs": [
        {
          "internalType": "address",
          "name": "",
          "type": "address"
        }
      ],
      "stateMutability": "view",
      "type": "function"
    },
    {
      "inputs": [],
      "name": "renounceOwnership",
      "outputs": [],
      "stateMutability": "nonpayable",
      "type": "function"
    },
    {
      "inputs": [
        {
          "internalType": "address",
          "name": "_to",
          "type": "address"
        },
        {
          "internalType": "uint256",
          "name": "quantity",
          "type": "uint256"
        }
      ],
      "name": "safeMint",
      "outputs": [],
      "stateMutability": "nonpayable",
      "type": "function"
    },
    {
      "inputs": [
        {
          "internalType": "address",
          "name": "from",
          "type": "address"
        },
        {
          "internalType": "address",
          "name": "to",
          "type": "address"
        },
        {
          "internalType": "uint256",
          "name": "tokenId",
          "type": "uint256"
        }
      ],
      "name": "safeTransferFrom",
      "outputs": [],
      "stateMutability": "payable",
      "type": "function"
    },
    {
      "inputs": [
        {
          "internalType": "address",
          "name": "from",
          "type": "address"
        },
        {
          "internalType": "address",
          "name": "to",
          "type": "address"
        },
        {
          "internalType": "uint256",
          "name": "tokenId",
          "type": "uint256"
        },
        {
          "internalType": "bytes",
          "name": "_data",
          "type": "bytes"
        }
      ],
      "name": "safeTransferFrom",
      "outputs": [],
      "stateMutability": "payable",
      "type": "function"
    },
    {
      "inputs": [
        {
          "internalType": "address",
          "name": "operator",
          "type": "address"
        },
        {
          "internalType": "bool",
          "name": "approved",
          "type": "bool"
        }
      ],
      "name": "setApprovalForAll",
      "outputs": [],
      "stateMutability": "nonpayable",
      "type": "function"
    },
    {
      "inputs": [
        {
          "internalType": "string",
          "name": "base_",
          "type": "string"
        }
      ],
      "name": "setBaseURI",
      "outputs": [],
      "stateMutability": "nonpayable",
      "type": "function"
    },
    {
      "inputs": [
        {
          "internalType": "string",
          "name": "uri_",
          "type": "string"
        }
      ],
      "name": "setDetailsURI",
      "outputs": [],
      "stateMutability": "nonpayable",
      "type": "function"
    },
    {
      "inputs": [
        {
          "internalType": "address",
          "name": "_tgas",
          "type": "address"
        }
      ],
      "name": "setTGas",
      "outputs": [],
      "stateMutability": "nonpayable",
      "type": "function"
    },
    {
      "inputs": [
        {
          "internalType": "uint256",
          "name": "tokenId",
          "type": "uint256"
        },
        {
          "internalType": "address",
          "name": "user",
          "type": "address"
        },
        {
          "internalType": "uint64",
          "name": "expires",
          "type": "uint64"
        }
      ],
      "name": "setUser",
      "outputs": [],
      "stateMutability": "nonpayable",
      "type": "function"
    },
    {
      "inputs": [
        {
          "internalType": "bytes4",
          "name": "interfaceId",
          "type": "bytes4"
        }
      ],
      "name": "supportsInterface",
      "outputs": [
        {
          "internalType": "bool",
          "name": "",
          "type": "bool"
        }
      ],
      "stateMutability": "view",
      "type": "function"
    },
    {
      "inputs": [],
      "name": "symbol",
      "outputs": [
        {
          "internalType": "string",
          "name": "",
          "type": "string"
        }
      ],
      "stateMutability": "view",
      "type": "function"
    },
    {
      "inputs": [
        {
          "internalType": "uint256",
          "name": "tokenId",
          "type": "uint256"
        }
      ],
      "name": "tokenURI",
      "outputs": [
        {
          "internalType": "string",
          "name": "",
          "type": "string"
        }
      ],
      "stateMutability": "view",
      "type": "function"
    },
    {
      "inputs": [
        {
          "internalType": "address",
          "name": "owner",
          "type": "address"
        }
      ],
      "name": "tokensOfOwner",
      "outputs": [
        {
          "internalType": "uint256[]",
          "name": "",
          "type": "uint256[]"
        }
      ],
      "stateMutability": "view",
      "type": "function"
    },
    {
      "inputs": [
        {
          "internalType": "address",
          "name": "owner",
          "type": "address"
        },
        {
          "internalType": "uint256",
          "name": "start",
          "type": "uint256"
        },
        {
          "internalType": "uint256",
          "name": "stop",
          "type": "uint256"
        }
      ],
      "name": "tokensOfOwnerIn",
      "outputs": [
        {
          "internalType": "uint256[]",
          "name": "",
          "type": "uint256[]"
        }
      ],
      "stateMutability": "view",
      "type": "function"
    },
    {
      "inputs": [],
      "name": "totalSupply",
      "outputs": [
        {
          "internalType": "uint256",
          "name": "",
          "type": "uint256"
        }
      ],
      "stateMutability": "view",
      "type": "function"
    },
    {
      "inputs": [
        {
          "internalType": "address",
          "name": "from",
          "type": "address"
        },
        {
          "internalType": "address",
          "name": "to",
          "type": "address"
        },
        {
          "internalType": "uint256",
          "name": "tokenId",
          "type": "uint256"
        }
      ],
      "name": "transferFrom",
      "outputs": [],
      "stateMutability": "payable",
      "type": "function"
    },
    {
      "inputs": [
        {
          "internalType": "address",
          "name": "newOwner",
          "type": "address"
        }
      ],
      "name": "transferOwnership",
      "outputs": [],
      "stateMutability": "nonpayable",
      "type": "function"
    },
    {
      "inputs": [
        {
          "internalType": "uint256",
          "name": "tokenId",
          "type": "uint256"
        }
      ],
      "name": "userExpires",
      "outputs": [
        {
          "internalType": "uint256",
          "name": "",
          "type": "uint256"
        }
      ],
      "stateMutability": "view",
      "type": "function"
    },
    {
      "inputs": [
        {
          "internalType": "uint256",
          "name": "tokenId",
          "type": "uint256"
        }
      ],
      "name": "userOf",
      "outputs": [
        {
          "internalType": "address",
          "name": "",
          "type": "address"
        }
      ],
      "stateMutability": "view",
      "type": "function"
    }
  ],
  "bytecode": "60806040523480156200001157600080fd5b50604080518082018252600680825265049534f544f560d41b6020808401828152855180870190965292855284015281519192916200005391600291620000e3565b50805162000069906003906020840190620000e3565b505060008055506200007b3362000091565b600b80546001600160a01b0319169055620001c5565b600880546001600160a01b038381166001600160a01b0319831681179093556040519116919082907f8be0079c531659141344cd1fd0a4f28419497f9722a3daafe3b4186f6b6457e090600090a35050565b828054620000f19062000189565b90600052602060002090601f01602090048101928262000115576000855562000160565b82601f106200013057805160ff191683800117855562000160565b8280016001018555821562000160579182015b828111156200016057825182559160200191906001019062000143565b506200016e92915062000172565b5090565b5b808211156200016e576000815560010162000173565b600181811c908216806200019e57607f821691505b602082108103620001bf57634e487b7160e01b600052602260045260246000fd5b50919050565b6125e080620001d56000396000f3fe60806040526004361061021a5760003560e01c8063766ef5e711610123578063a48929d1116100ab578063c87b56dd1161006f578063c87b56dd14610642578063e030565e14610662578063e1c7392a14610682578063e985e9c514610697578063f2fde38b146106e057600080fd5b8063a48929d114610599578063b47d89ad146105b9578063b88d4fde146105ce578063c23dc68f146105e1578063c2f1f14a1461060e57600080fd5b80638fc88c48116100f25780638fc88c48146104f457806395d89b411461052457806399a2557a14610539578063a144819414610559578063a22cb4651461057957600080fd5b8063766ef5e71461046b5780638462151c146104895780638da5cb5b146104b65780638de12845146104d457600080fd5b806342842e0e116101a65780636352211e116101755780636352211e146103ce5780636c0360eb146103ee57806370a0823114610403578063715018a61461042357806375d0c0dc1461043857600080fd5b806342842e0e1461034e57806342966c681461036157806355f804b3146103815780635bbb2177146103a157600080fd5b8063095ea7b3116101ed578063095ea7b3146102c357806318160ddd146102d857806323b872dd146102fb57806340898f4f1461030e57806340c10f191461032e57600080fd5b806301ffc9a71461021f57806302e9f9391461025457806306fdde0314610276578063081812fc1461028b575b600080fd5b34801561022b57600080fd5b5061023f61023a366004611f21565b610700565b60405190151581526020015b60405180910390f35b34801561026057600080fd5b5061026961072c565b60405161024b9190611f96565b34801561028257600080fd5b506102696107ba565b34801561029757600080fd5b506102ab6102a6366004611fa9565b61084c565b6040516001600160a01b03909116815260200161024b565b6102d66102d1366004611fde565b610890565b005b3480156102e457600080fd5b50600154600054035b60405190815260200161024b565b6102d6610309366004612008565b610930565b34801561031a57600080fd5b506102d6610329366004612044565b610940565b34801561033a57600080fd5b506102d6610349366004611fde565b6109eb565b6102d661035c366004612008565b610b39565b34801561036d57600080fd5b506102d661037c366004611fa9565b610b54565b34801561038d57600080fd5b506102d661039c36600461210a565b610bed565b3480156103ad57600080fd5b506103c16103bc36600461213e565b610c38565b60405161024b91906121ee565b3480156103da57600080fd5b506102ab6103e9366004611fa9565b610d03565b3480156103fa57600080fd5b50610269610d0e565b34801561040f57600080fd5b506102ed61041e366004612044565b610d1b565b34801561042f57600080fd5b506102d6610d69565b34801561044457600080fd5b5060408051808201909152600a81526949534f544f503130313360b01b6020820152610269565b34801561047757600080fd5b50600b546001600160a01b03166102ab565b34801561049557600080fd5b506104a96104a4366004612044565b610d7d565b60405161024b9190612230565b3480156104c257600080fd5b506008546001600160a01b03166102ab565b3480156104e057600080fd5b506102d66104ef366004612268565b610e85565b34801561050057600080fd5b506102ed61050f366004611fa9565b6000908152600c602052604090205460a01c90565b34801561053057600080fd5b50610269610ee3565b34801561054557600080fd5b506104a9610554366004612314565b610ef2565b34801561056557600080fd5b506102d6610574366004611fde565b61106b565b34801561058557600080fd5b506102d6610594366004612347565b61110a565b3480156105a557600080fd5b506102d66105b436600461210a565b61116f565b3480156105c557600080fd5b506102696111ba565b6102d66105dc366004612383565b6111c9565b3480156105ed57600080fd5b506106016105fc366004611fa9565b611213565b60405161024b91906123f2565b34801561061a57600080fd5b506102ab610629366004611fa9565b6000908152600c60205260409020544260a01b81110290565b34801561064e57600080fd5b5061026961065d366004611fa9565b61128b565b34801561066e57600080fd5b506102d661067d366004612400565b611296565b34801561068e57600080fd5b506102d661132f565b3480156106a357600080fd5b5061023f6106b236600461244c565b6001600160a01b03918216600090815260076020908152604080832093909416825291909152205460ff1690565b3480156106ec57600080fd5b506102d66106fb366004612044565b611418565b600061070b826114d1565b806107265750632b424ad760e21b6001600160e01b03198316145b92915050565b600a80546107399061247f565b80601f01602080910402602001604051908101604052809291908181526020018280546107659061247f565b80156107b25780601f10610787576101008083540402835291602001916107b2565b820191906000526020600020905b81548152906001019060200180831161079557829003601f168201915b505050505081565b6060600280546107c99061247f565b80601f01602080910402602001604051908101604052809291908181526020018280546107f59061247f565b80156108425780601f1061081757610100808354040283529160200191610842565b820191906000526020600020905b81548152906001019060200180831161082557829003601f168201915b5050505050905090565b6000610857826114dc565b610874576040516333d1c03960e21b815260040160405180910390fd5b506000908152600660205260409020546001600160a01b031690565b600061089b82610d03565b9050336001600160a01b038216146108d4576108b781336106b2565b6108d4576040516367d9dca160e11b815260040160405180910390fd5b60008281526006602052604080822080546001600160a01b0319166001600160a01b0387811691821790925591518593918516917f8c5be1e5ebec7d5bd14f71427d1e84f3dd0314c0f7b2291e5b200ac8c7c3b92591a4505050565b61093b838383611503565b505050565b737b0dc23e87febf1d053e7df9af4cce30f21fae9c32146109965760405162461bcd60e51b815260206004820152600b60248201526a04f6e6c792049534f544f560ac1b60448201526064015b60405180910390fd5b600b80546001600160a01b0319166001600160a01b0383169081179091556040519081527f5d13706edecffc8d4ccc3b8dbcc026ce8a4914496820ba012530a4790b08d3a7906020015b60405180910390a150565b6109f36115a1565b600b546001600160a01b031615610a8057600b546040805180820182526004808252631b5a5b9d60e21b60208301529151636fb5d80760e01b81526001600160a01b0390931692636fb5d80792610a4d92918691016124b9565b600060405180830381600087803b158015610a6757600080fd5b505af1158015610a7b573d6000803e3d6000fd5b505050505b610a8a82826115fb565b6001600160a01b0382166000908152600760205260408120600191610ab76008546001600160a01b031690565b6001600160a01b0390811682526020820192909252604001600020805460ff191692151592909217909155600854166001600160a01b0316826001600160a01b03167f17307eab39ab6107e8899845ad3d59bd9653f200f220920489ca2b5937696c316001604051610b2d911515815260200190565b60405180910390a35050565b61093b838383604051806020016040528060008152506111c9565b600b546001600160a01b031615610bdf57600b54604080518082018252600480825263313ab93760e11b602083015291516325b1142960e01b81526001600160a01b03909316926325b1142992610bac929101611f96565b600060405180830381600087803b158015610bc657600080fd5b505af1158015610bda573d6000803e3d6000fd5b505050505b610bea8160016116d5565b50565b610bf56115a1565b8051610c08906009906020840190611e72565b507f59f1ec21eb30be64a479f79da93a3f192f54c561ee637b5f589e807eb975eb4a816040516109e09190611f96565b6060816000816001600160401b03811115610c5557610c5561205f565b604051908082528060200260200182016040528015610ca757816020015b604080516080810182526000808252602080830182905292820181905260608201528252600019909201910181610c735790505b50905060005b828114610cfa57610cd5868683818110610cc957610cc96124db565b90506020020135611213565b828281518110610ce757610ce76124db565b6020908102919091010152600101610cad565b50949350505050565b60006107268261181e565b600980546107399061247f565b60006001600160a01b038216610d44576040516323d3ad8160e21b815260040160405180910390fd5b506001600160a01b03166000908152600560205260409020546001600160401b031690565b610d716115a1565b610d7b6000611885565b565b60606000806000610d8d85610d1b565b90506000816001600160401b03811115610da957610da961205f565b604051908082528060200260200182016040528015610dd2578160200160208202803683370190505b509050610dff60408051608081018252600080825260208201819052918101829052606081019190915290565b60005b838614610e7957610e12816118d7565b91508160400151610e715781516001600160a01b031615610e3257815194505b876001600160a01b0316856001600160a01b031603610e715780838780600101985081518110610e6457610e646124db565b6020026020010181815250505b600101610e02565b50909695505050505050565b610e8d6115a1565b8351610ea0906002906020870190611e72565b508251610eb4906003906020860190611e72565b508151610ec8906009906020850190611e72565b508051610edc90600a906020840190611e72565b5050505050565b6060600380546107c99061247f565b6060818310610f1457604051631960ccad60e11b815260040160405180910390fd5b600080610f2060005490565b905080841115610f2e578093505b6000610f3987610d1b565b905084861015610f585785850381811015610f52578091505b50610f5c565b5060005b6000816001600160401b03811115610f7657610f7661205f565b604051908082528060200260200182016040528015610f9f578160200160208202803683370190505b50905081600003610fb557935061106492505050565b6000610fc088611213565b905060008160400151610fd1575080515b885b888114158015610fe35750848714155b1561105857610ff1816118d7565b925082604001516110505782516001600160a01b03161561101157825191505b8a6001600160a01b0316826001600160a01b0316036110505780848880600101995081518110611043576110436124db565b6020026020010181815250505b600101610fd3565b50505092835250909150505b9392505050565b6110736115a1565b600b546001600160a01b03161561110057600b546040805180820182526004808252631b5a5b9d60e21b60208301529151636fb5d80760e01b81526001600160a01b0390931692636fb5d807926110cd92918691016124b9565b600060405180830381600087803b1580156110e757600080fd5b505af11580156110fb573d6000803e3d6000fd5b505050505b610a8a8282611913565b3360008181526007602090815260408083206001600160a01b03871680855290835292819020805460ff191686151590811790915590519081529192917f17307eab39ab6107e8899845ad3d59bd9653f200f220920489ca2b5937696c319101610b2d565b6111776115a1565b805161118a90600a906020840190611e72565b507f69492b03d451c4ad02fe1a5a42e677ac013fc7fd243fa4e3a4ef14a5d8d8808d816040516109e09190611f96565b6060600a80546107c99061247f565b6111d4848484610930565b6001600160a01b0383163b1561120d576111f084848484611931565b61120d576040516368d2bf6b60e11b815260040160405180910390fd5b50505050565b60408051608080820183526000808352602080840182905283850182905260608085018390528551938401865282845290830182905293820181905292810183905290915060005483106112675792915050565b611270836118d7565b90508060400151156112825792915050565b61106483611a1d565b606061072682611a52565b600b546001600160a01b03161561132457600b54604080518082018252600781526639b2b92ab9b2b960c91b602082015290516325b1142960e01b81526001600160a01b03909216916325b11429916112f191600401611f96565b600060405180830381600087803b15801561130b57600080fd5b505af115801561131f573d6000803e3d6000fd5b505050505b61093b838383611ad5565b60006113436008546001600160a01b031690565b6001600160a01b0316146113905760405162461bcd60e51b81526020600482015260146024820152736f6e6c79207768656e20696e697420737461746560601b604482015260640161098d565b600b546001600160a01b031615610d7b57600b5460408051808201825260068152656465706c6f7960d01b602082015290516325b1142960e01b81526001600160a01b03909216916325b11429916113ea91600401611f96565b600060405180830381600087803b15801561140457600080fd5b505af115801561120d573d6000803e3d6000fd5b600061142c6008546001600160a01b031690565b6001600160a01b0316148061144b57506008546001600160a01b031633145b6114845760405162461bcd60e51b815260206004820152600a60248201526927b7363c9027b73bb2b960b11b604482015260640161098d565b6001600160a01b0381166114c85760405162461bcd60e51b815260206004820152600b60248201526a04e6577206f776e657220360ac1b604482015260640161098d565b610bea81611885565b600061070b82611ba5565b6000805482108015610726575050600090815260046020526040902054600160e01b161590565b600b546001600160a01b03161561159657600b54604080518082018252600c81526b7472616e7366657246726f6d60a01b602082015290516325b1142960e01b81526001600160a01b03909216916325b114299161156391600401611f96565b600060405180830381600087803b15801561157d57600080fd5b505af1158015611591573d6000803e3d6000fd5b505050505b61093b838383611bf3565b6008546001600160a01b03163314610d7b5760405162461bcd60e51b815260206004820181905260248201527f4f776e61626c653a2063616c6c6572206973206e6f7420746865206f776e6572604482015260640161098d565b60008054908290036116205760405163b562e8dd60e01b815260040160405180910390fd5b6001600160a01b03831660008181526005602090815260408083208054680100000000000000018802019055848352600490915281206001851460e11b4260a01b1783179055828401908390839060008051602061258b8339815191528180a4600183015b8181146116ab578083600060008051602061258b833981519152600080a4600101611685565b50816000036116cc57604051622e076360e81b815260040160405180910390fd5b60005550505050565b60006116e08361181e565b9050806000806116fe86600090815260066020526040902080549091565b91509150841561174f576117248184335b6001600160a01b039081169116811491141790565b61174f5761173283336106b2565b61174f57604051632ce44b5f60e11b815260040160405180910390fd5b801561175a57600082555b6001600160a01b038316600081815260056020526040902080546fffffffffffffffffffffffffffffffff0190554260a01b17600360e01b17600087815260046020526040812091909155600160e11b851690036117e8576001860160008181526004602052604081205490036117e65760005481146117e65760008181526004602052604090208590555b505b60405186906000906001600160a01b0386169060008051602061258b833981519152908390a45050600180548101905550505050565b60008160005481101561186c5760008181526004602052604081205490600160e01b8216900361186a575b80600003611064575060001901600081815260046020526040902054611849565b505b604051636f96cda160e11b815260040160405180910390fd5b600880546001600160a01b038381166001600160a01b0319831681179093556040519116919082907f8be0079c531659141344cd1fd0a4f28419497f9722a3daafe3b4186f6b6457e090600090a35050565b60408051608081018252600080825260208201819052918101829052606081019190915260008281526004602052604090205461072690611d72565b61192d828260405180602001604052806000815250611db9565b5050565b604051630a85bd0160e11b81526000906001600160a01b0385169063150b7a02906119669033908990889088906004016124f1565b6020604051808303816000875af19250505080156119a1575060408051601f3d908101601f1916820190925261199e9181019061252e565b60015b6119ff573d8080156119cf576040519150601f19603f3d011682016040523d82523d6000602084013e6119d4565b606091505b5080516000036119f7576040516368d2bf6b60e11b815260040160405180910390fd5b805181602001fd5b6001600160e01b031916630a85bd0160e11b1490505b949350505050565b604080516080810182526000808252602082018190529181018290526060810191909152610726611a4d8361181e565b611d72565b6060611a5d826114dc565b611a9d5760405162461bcd60e51b81526020600482015260116024820152703737b732bc34b9ba32b73a103a37b5b2b760791b604482015260640161098d565b611aa5611e1f565b611aae83611e2e565b604051602001611abf92919061254b565b6040516020818303038152906040529050919050565b6000611ae084610d03565b9050336001600160a01b03821614611b3157611afc81336106b2565b611b315733611b0a8561084c565b6001600160a01b031614611b31576040516309e3bb1d60e31b815260040160405180910390fd5b6000848152600c60209081526040918290206001600160a01b03861660a086901b67ffffffffffffffff60a01b16811790915591516001600160401b038516815286917f4e06b4e7000e659094299b3533b47b6aa8ad048e95e872d23d1f4ee55af89cfe910160405180910390a350505050565b60006301ffc9a760e01b6001600160e01b031983161480611bd657506380ac58cd60e01b6001600160e01b03198316145b806107265750506001600160e01b031916635b5e139f60e01b1490565b6000611bfe8261181e565b9050836001600160a01b0316816001600160a01b031614611c315760405162a1148160e81b815260040160405180910390fd5b60008281526006602052604090208054611c4c81873361170f565b611c7757611c5a86336106b2565b611c7757604051632ce44b5f60e11b815260040160405180910390fd5b6001600160a01b038516611c9e57604051633a954ecd60e21b815260040160405180910390fd5b8015611ca957600082555b6001600160a01b038681166000908152600560205260408082208054600019019055918716808252919020805460010190554260a01b17600160e11b17600085815260046020526040812091909155600160e11b84169003611d3b57600184016000818152600460205260408120549003611d39576000548114611d395760008181526004602052604090208490555b505b83856001600160a01b0316876001600160a01b031660008051602061258b83398151915260405160405180910390a4505050505050565b604080516080810182526001600160a01b038316815260a083901c6001600160401b03166020820152600160e01b831615159181019190915260e89190911c606082015290565b611dc383836115fb565b6001600160a01b0383163b1561093b576000548281035b611ded6000868380600101945086611931565b611e0a576040516368d2bf6b60e11b815260040160405180910390fd5b818110611dda578160005414610edc57600080fd5b6060600980546107c99061247f565b606060a06040510180604052602081039150506000815280825b600183039250600a81066030018353600a900480611e485750819003601f19909101908152919050565b828054611e7e9061247f565b90600052602060002090601f016020900481019282611ea05760008555611ee6565b82601f10611eb957805160ff1916838001178555611ee6565b82800160010185558215611ee6579182015b82811115611ee6578251825591602001919060010190611ecb565b50611ef2929150611ef6565b5090565b5b80821115611ef25760008155600101611ef7565b6001600160e01b031981168114610bea57600080fd5b600060208284031215611f3357600080fd5b813561106481611f0b565b60005b83811015611f59578181015183820152602001611f41565b8381111561120d5750506000910152565b60008151808452611f82816020860160208601611f3e565b601f01601f19169290920160200192915050565b6020815260006110646020830184611f6a565b600060208284031215611fbb57600080fd5b5035919050565b80356001600160a01b0381168114611fd957600080fd5b919050565b60008060408385031215611ff157600080fd5b611ffa83611fc2565b946020939093013593505050565b60008060006060848603121561201d57600080fd5b61202684611fc2565b925061203460208501611fc2565b9150604084013590509250925092565b60006020828403121561205657600080fd5b61106482611fc2565b634e487b7160e01b600052604160045260246000fd5b60006001600160401b038084111561208f5761208f61205f565b604051601f8501601f19908116603f011681019082821181831017156120b7576120b761205f565b816040528093508581528686860111156120d057600080fd5b858560208301376000602087830101525050509392505050565b600082601f8301126120fb57600080fd5b61106483833560208501612075565b60006020828403121561211c57600080fd5b81356001600160401b0381111561213257600080fd5b611a15848285016120ea565b6000806020838503121561215157600080fd5b82356001600160401b038082111561216857600080fd5b818501915085601f83011261217c57600080fd5b81358181111561218b57600080fd5b8660208260051b85010111156121a057600080fd5b60209290920196919550909350505050565b80516001600160a01b031682526020808201516001600160401b03169083015260408082015115159083015260609081015162ffffff16910152565b6020808252825182820181905260009190848201906040850190845b81811015610e795761221d8385516121b2565b928401926080929092019160010161220a565b6020808252825182820181905260009190848201906040850190845b81811015610e795783518352928401929184019160010161224c565b6000806000806080858703121561227e57600080fd5b84356001600160401b038082111561229557600080fd5b6122a1888389016120ea565b955060208701359150808211156122b757600080fd5b6122c3888389016120ea565b945060408701359150808211156122d957600080fd5b6122e5888389016120ea565b935060608701359150808211156122fb57600080fd5b50612308878288016120ea565b91505092959194509250565b60008060006060848603121561232957600080fd5b61233284611fc2565b95602085013595506040909401359392505050565b6000806040838503121561235a57600080fd5b61236383611fc2565b91506020830135801515811461237857600080fd5b809150509250929050565b6000806000806080858703121561239957600080fd5b6123a285611fc2565b93506123b060208601611fc2565b92506040850135915060608501356001600160401b038111156123d257600080fd5b8501601f810187136123e357600080fd5b61230887823560208401612075565b6080810161072682846121b2565b60008060006060848603121561241557600080fd5b8335925061242560208501611fc2565b915060408401356001600160401b038116811461244157600080fd5b809150509250925092565b6000806040838503121561245f57600080fd5b61246883611fc2565b915061247660208401611fc2565b90509250929050565b600181811c9082168061249357607f821691505b6020821081036124b357634e487b7160e01b600052602260045260246000fd5b50919050565b6040815260006124cc6040830185611f6a565b90508260208301529392505050565b634e487b7160e01b600052603260045260246000fd5b6001600160a01b038581168252841660208201526040810183905260806060820181905260009061252490830184611f6a565b9695505050505050565b60006020828403121561254057600080fd5b815161106481611f0b565b6000835161255d818460208801611f3e565b835190830190612571818360208801611f3e565b64173539b7b760d91b910190815260050194935050505056feddf252ad1be2c89b69c2b068fc378daa952ba7f163c4a11628f55a4df523b3efa26469706673582212204f2800afdae7a80b9ce116b27f1e4db73535765fe3b2ea519eafd35bc6089d3064736f6c634300080d0033",
  "bytecodeSha1": "ba5e3d64fe8048a9728df55017196d6898c5b364",
  "compiler": {
    "evm_version": "istanbul",
    "optimizer": {
      "enabled": true,
      "runs": 200
    },
    "version": "0.8.13+commit.abaa5c0e"
  },
  "contractName": "ISOTOP1013",
  "language": "Solidity",
  "natspec": {
    "errors": {
      "ApprovalCallerNotOwnerNorApproved()": [
        {
          "notice": "The caller must own the token or be an approved operator."
        }
      ],
      "ApprovalQueryForNonexistentToken()": [
        {
          "notice": "The token does not exist."
        }
      ],
      "BalanceQueryForZeroAddress()": [
        {
          "notice": "Cannot query the balance for the zero address."
        }
      ],
      "InvalidQueryRange()": [
        {
          "notice": "Invalid query range (`start` >= `stop`)."
        }
      ],
      "MintERC2309QuantityExceedsLimit()": [
        {
          "notice": "The `quantity` minted with ERC2309 exceeds the safety limit."
        }
      ],
      "MintToZeroAddress()": [
        {
          "notice": "Cannot mint to the zero address."
        }
      ],
      "MintZeroQuantity()": [
        {
          "notice": "The quantity of tokens minted must be more than zero."
        }
      ],
      "OwnerQueryForNonexistentToken()": [
        {
          "notice": "The token does not exist."
        }
      ],
      "OwnershipNotInitializedForExtraData()": [
        {
          "notice": "The `extraData` cannot be set on an unintialized ownership slot."
        }
      ],
      "SetUserCallerNotOwnerNorApproved()": [
        {
          "notice": "The caller must own the token or be an approved operator."
        }
      ],
      "TransferCallerNotOwnerNorApproved()": [
        {
          "notice": "The caller must own the token or be an approved operator."
        }
      ],
      "TransferFromIncorrectOwner()": [
        {
          "notice": "The token must be owned by `from`."
        }
      ],
      "TransferToNonERC721ReceiverImplementer()": [
        {
          "notice": "Cannot safely transfer to a contract that does not implement the ERC721Receiver interface."
        }
      ],
      "TransferToZeroAddress()": [
        {
          "notice": "Cannot transfer to the zero address."
        }
      ],
      "URIQueryForNonexistentToken()": [
        {
          "notice": "The token does not exist."
        }
      ]
    },
    "kind": "dev",
    "methods": {
      "approve(address,uint256)": {
        "details": "Gives permission to `to` to transfer `tokenId` token to another account. The approval is cleared when the token is transferred. Only a single account can be approved at a time, so approving the zero address clears previous approvals. Requirements: - The caller must own the token or be an approved operator. - `tokenId` must exist. Emits an {Approval} event."
      },
      "balanceOf(address)": {
        "details": "Returns the number of tokens in `owner`'s account."
      },
      "burn(uint256)": {
        "details": "Burns `tokenId`. See {ERC721A-_burn}. Requirements: - The caller must own `tokenId` or be an approved operator."
      },
      "explicitOwnershipOf(uint256)": {
        "details": "Returns the `TokenOwnership` struct at `tokenId` without reverting. If the `tokenId` is out of bounds: - `addr = address(0)` - `startTimestamp = 0` - `burned = false` - `extraData = 0` If the `tokenId` is burned: - `addr = <Address of owner before token was burned>` - `startTimestamp = <Timestamp when token was burned>` - `burned = true` - `extraData = <Extra data when token was burned>` Otherwise: - `addr = <Address of owner>` - `startTimestamp = <Timestamp of start of ownership>` - `burned = false` - `extraData = <Extra data at start of ownership>`"
      },
      "explicitOwnershipsOf(uint256[])": {
        "details": "Returns an array of `TokenOwnership` structs at `tokenIds` in order. See {ERC721AQueryable-explicitOwnershipOf}"
      },
      "getApproved(uint256)": {
        "details": "Returns the account approved for `tokenId` token. Requirements: - `tokenId` must exist."
      },
      "isApprovedForAll(address,address)": {
        "details": "Returns if the `operator` is allowed to manage all of the assets of `owner`. See {setApprovalForAll}."
      },
      "name()": {
        "details": "Returns the token collection name."
      },
      "owner()": {
        "details": "Returns the address of the current owner."
      },
      "ownerOf(uint256)": {
        "details": "Returns the owner of the `tokenId` token. Requirements: - `tokenId` must exist."
      },
      "renounceOwnership()": {
        "details": "Leaves the contract without owner. It will not be possible to call `onlyOwner` functions anymore. Can only be called by the current owner. NOTE: Renouncing ownership will leave the contract without an owner, thereby removing any functionality that is only available to the owner."
      },
      "safeTransferFrom(address,address,uint256)": {
        "details": "Equivalent to `safeTransferFrom(from, to, tokenId, '')`."
      },
      "safeTransferFrom(address,address,uint256,bytes)": {
        "details": "Safely transfers `tokenId` token from `from` to `to`. Requirements: - `from` cannot be the zero address. - `to` cannot be the zero address. - `tokenId` token must exist and be owned by `from`. - If the caller is not `from`, it must be approved to move this token by either {approve} or {setApprovalForAll}. - If `to` refers to a smart contract, it must implement {IERC721Receiver-onERC721Received}, which is called upon a safe transfer. Emits a {Transfer} event."
      },
      "setApprovalForAll(address,bool)": {
        "details": "Approve or remove `operator` as an operator for the caller. Operators can call {transferFrom} or {safeTransferFrom} for any token owned by the caller. Requirements: - The `operator` cannot be the caller. Emits an {ApprovalForAll} event."
      },
      "setUser(uint256,address,uint64)": {
        "details": "Sets the `user` and `expires` for `tokenId`. The zero address indicates there is no user. Requirements: - The caller must own `tokenId` or be an approved operator."
      },
      "symbol()": {
        "details": "Returns the token collection symbol."
      },
      "tokensOfOwner(address)": {
        "details": "Returns an array of token IDs owned by `owner`. This function scans the ownership mapping and is O(`totalSupply`) in complexity. It is meant to be called off-chain. See {ERC721AQueryable-tokensOfOwnerIn} for splitting the scan into multiple smaller scans if the collection is large enough to cause an out-of-gas error (10K collections should be fine)."
      },
      "tokensOfOwnerIn(address,uint256,uint256)": {
        "details": "Returns an array of token IDs owned by `owner`, in the range [`start`, `stop`) (i.e. `start <= tokenId < stop`). This function allows for tokens to be queried if the collection grows too big for a single call of {ERC721AQueryable-tokensOfOwner}. Requirements: - `start < stop`"
      },
      "totalSupply()": {
        "details": "Returns the total number of tokens in existence. Burned tokens will reduce the count. To get the total number of tokens minted, please see {_totalMinted}."
      },
      "transferOwnership(address)": {
        "details": "Transfers ownership of the contract to a new account (`newOwner`). Can only be called by the current owner."
      },
      "userExpires(uint256)": {
        "details": "Returns the user's expires of `tokenId`."
      },
      "userOf(uint256)": {
        "details": "Returns the user address for `tokenId`. The zero address indicates that there is no user or if the user is expired."
      }
    },
    "version": 1
  },
  "opcodes": "PUSH1 0x80 PUSH1 0x40 MSTORE PUSH1 0x4 CALLDATASIZE LT PUSH2 0x21A JUMPI PUSH1 0x0 CALLDATALOAD PUSH1 0xE0 SHR DUP1 PUSH4 0x766EF5E7 GT PUSH2 0x123 JUMPI DUP1 PUSH4 0xA48929D1 GT PUSH2 0xAB JUMPI DUP1 PUSH4 0xC87B56DD GT PUSH2 0x6F JUMPI DUP1 PUSH4 0xC87B56DD EQ PUSH2 0x642 JUMPI DUP1 PUSH4 0xE030565E EQ PUSH2 0x662 JUMPI DUP1 PUSH4 0xE1C7392A EQ PUSH2 0x682 JUMPI DUP1 PUSH4 0xE985E9C5 EQ PUSH2 0x697 JUMPI DUP1 PUSH4 0xF2FDE38B EQ PUSH2 0x6E0 JUMPI PUSH1 0x0 DUP1 REVERT JUMPDEST DUP1 PUSH4 0xA48929D1 EQ PUSH2 0x599 JUMPI DUP1 PUSH4 0xB47D89AD EQ PUSH2 0x5B9 JUMPI DUP1 PUSH4 0xB88D4FDE EQ PUSH2 0x5CE JUMPI DUP1 PUSH4 0xC23DC68F EQ PUSH2 0x5E1 JUMPI DUP1 PUSH4 0xC2F1F14A EQ PUSH2 0x60E JUMPI PUSH1 0x0 DUP1 REVERT JUMPDEST DUP1 PUSH4 0x8FC88C48 GT PUSH2 0xF2 JUMPI DUP1 PUSH4 0x8FC88C48 EQ PUSH2 0x4F4 JUMPI DUP1 PUSH4 0x95D89B41 EQ PUSH2 0x524 JUMPI DUP1 PUSH4 0x99A2557A EQ PUSH2 0x539 JUMPI DUP1 PUSH4 0xA1448194 EQ PUSH2 0x559 JUMPI DUP1 PUSH4 0xA22CB465 EQ PUSH2 0x579 JUMPI PUSH1 0x0 DUP1 REVERT JUMPDEST DUP1 PUSH4 0x766EF5E7 EQ PUSH2 0x46B JUMPI DUP1 PUSH4 0x8462151C EQ PUSH2 0x489 JUMPI DUP1 PUSH4 0x8DA5CB5B EQ PUSH2 0x4B6 JUMPI DUP1 PUSH4 0x8DE12845 EQ PUSH2 0x4D4 JUMPI PUSH1 0x0 DUP1 REVERT JUMPDEST DUP1 PUSH4 0x42842E0E GT PUSH2 0x1A6 JUMPI DUP1 PUSH4 0x6352211E GT PUSH2 0x175 JUMPI DUP1 PUSH4 0x6352211E EQ PUSH2 0x3CE JUMPI DUP1 PUSH4 0x6C0360EB EQ PUSH2 0x3EE JUMPI DUP1 PUSH4 0x70A08231 EQ PUSH2 0x403 JUMPI DUP1 PUSH4 0x715018A6 EQ PUSH2 0x423 JUMPI DUP1 PUSH4 0x75D0C0DC EQ PUSH2 0x438 JUMPI PUSH1 0x0 DUP1 REVERT JUMPDEST DUP1 PUSH4 0x42842E0E EQ PUSH2 0x34E JUMPI DUP1 PUSH4 0x42966C68 EQ PUSH2 0x361 JUMPI DUP1 PUSH4 0x55F804B3 EQ PUSH2 0x381 JUMPI DUP1 PUSH4 0x5BBB2177 EQ PUSH2 0x3A1 JUMPI PUSH1 0x0 DUP1 REVERT JUMPDEST DUP1 PUSH4 0x95EA7B3 GT PUSH2 0x1ED JUMPI DUP1 PUSH4 0x95EA7B3 EQ PUSH2 0x2C3 JUMPI DUP1 PUSH4 0x18160DDD EQ PUSH2 0x2D8 JUMPI DUP1 PUSH4 0x23B872DD EQ PUSH2 0x2FB JUMPI DUP1 PUSH4 0x40898F4F EQ PUSH2 0x30E JUMPI DUP1 PUSH4 0x40C10F19 EQ PUSH2 0x32E JUMPI PUSH1 0x0 DUP1 REVERT JUMPDEST DUP1 PUSH4 0x1FFC9A7 EQ PUSH2 0x21F JUMPI DUP1 PUSH4 0x2E9F939 EQ PUSH2 0x254 JUMPI DUP1 PUSH4 0x6FDDE03 EQ PUSH2 0x276 JUMPI DUP1 PUSH4 0x81812FC EQ PUSH2 0x28B JUMPI JUMPDEST PUSH1 0x0 DUP1 REVERT JUMPDEST CALLVALUE DUP1 ISZERO PUSH2 0x22B JUMPI PUSH1 0x0 DUP1 REVERT JUMPDEST POP PUSH2 0x23F PUSH2 0x23A CALLDATASIZE PUSH1 0x4 PUSH2 0x1F21 JUMP JUMPDEST PUSH2 0x700 JUMP JUMPDEST PUSH1 0x40 MLOAD SWAP1 ISZERO ISZERO DUP2 MSTORE PUSH1 0x20 ADD JUMPDEST PUSH1 0x40 MLOAD DUP1 SWAP2 SUB SWAP1 RETURN JUMPDEST CALLVALUE DUP1 ISZERO PUSH2 0x260 JUMPI PUSH1 0x0 DUP1 REVERT JUMPDEST POP PUSH2 0x269 PUSH2 0x72C JUMP JUMPDEST PUSH1 0x40 MLOAD PUSH2 0x24B SWAP2 SWAP1 PUSH2 0x1F96 JUMP JUMPDEST CALLVALUE DUP1 ISZERO PUSH2 0x282 JUMPI PUSH1 0x0 DUP1 REVERT JUMPDEST POP PUSH2 0x269 PUSH2 0x7BA JUMP JUMPDEST CALLVALUE DUP1 ISZERO PUSH2 0x297 JUMPI PUSH1 0x0 DUP1 REVERT JUMPDEST POP PUSH2 0x2AB PUSH2 0x2A6 CALLDATASIZE PUSH1 0x4 PUSH2 0x1FA9 JUMP JUMPDEST PUSH2 0x84C JUMP JUMPDEST PUSH1 0x40 MLOAD PUSH1 0x1 PUSH1 0x1 PUSH1 0xA0 SHL SUB SWAP1 SWAP2 AND DUP2 MSTORE PUSH1 0x20 ADD PUSH2 0x24B JUMP JUMPDEST PUSH2 0x2D6 PUSH2 0x2D1 CALLDATASIZE PUSH1 0x4 PUSH2 0x1FDE JUMP JUMPDEST PUSH2 0x890 JUMP JUMPDEST STOP JUMPDEST CALLVALUE DUP1 ISZERO PUSH2 0x2E4 JUMPI PUSH1 0x0 DUP1 REVERT JUMPDEST POP PUSH1 0x1 SLOAD PUSH1 0x0 SLOAD SUB JUMPDEST PUSH1 0x40 MLOAD SWAP1 DUP2 MSTORE PUSH1 0x20 ADD PUSH2 0x24B JUMP JUMPDEST PUSH2 0x2D6 PUSH2 0x309 CALLDATASIZE PUSH1 0x4 PUSH2 0x2008 JUMP JUMPDEST PUSH2 0x930 JUMP JUMPDEST CALLVALUE DUP1 ISZERO PUSH2 0x31A JUMPI PUSH1 0x0 DUP1 REVERT JUMPDEST POP PUSH2 0x2D6 PUSH2 0x329 CALLDATASIZE PUSH1 0x4 PUSH2 0x2044 JUMP JUMPDEST PUSH2 0x940 JUMP JUMPDEST CALLVALUE DUP1 ISZERO PUSH2 0x33A JUMPI PUSH1 0x0 DUP1 REVERT JUMPDEST POP PUSH2 0x2D6 PUSH2 0x349 CALLDATASIZE PUSH1 0x4 PUSH2 0x1FDE JUMP JUMPDEST PUSH2 0x9EB JUMP JUMPDEST PUSH2 0x2D6 PUSH2 0x35C CALLDATASIZE PUSH1 0x4 PUSH2 0x2008 JUMP JUMPDEST PUSH2 0xB39 JUMP JUMPDEST CALLVALUE DUP1 ISZERO PUSH2 0x36D JUMPI PUSH1 0x0 DUP1 REVERT JUMPDEST POP PUSH2 0x2D6 PUSH2 0x37C CALLDATASIZE PUSH1 0x4 PUSH2 0x1FA9 JUMP JUMPDEST PUSH2 0xB54 JUMP JUMPDEST CALLVALUE DUP1 ISZERO PUSH2 0x38D JUMPI PUSH1 0x0 DUP1 REVERT JUMPDEST POP PUSH2 0x2D6 PUSH2 0x39C CALLDATASIZE PUSH1 0x4 PUSH2 0x210A JUMP JUMPDEST PUSH2 0xBED JUMP JUMPDEST CALLVALUE DUP1 ISZERO PUSH2 0x3AD JUMPI PUSH1 0x0 DUP1 REVERT JUMPDEST POP PUSH2 0x3C1 PUSH2 0x3BC CALLDATASIZE PUSH1 0x4 PUSH2 0x213E JUMP JUMPDEST PUSH2 0xC38 JUMP JUMPDEST PUSH1 0x40 MLOAD PUSH2 0x24B SWAP2 SWAP1 PUSH2 0x21EE JUMP JUMPDEST CALLVALUE DUP1 ISZERO PUSH2 0x3DA JUMPI PUSH1 0x0 DUP1 REVERT JUMPDEST POP PUSH2 0x2AB PUSH2 0x3E9 CALLDATASIZE PUSH1 0x4 PUSH2 0x1FA9 JUMP JUMPDEST PUSH2 0xD03 JUMP JUMPDEST CALLVALUE DUP1 ISZERO PUSH2 0x3FA JUMPI PUSH1 0x0 DUP1 REVERT JUMPDEST POP PUSH2 0x269 PUSH2 0xD0E JUMP JUMPDEST CALLVALUE DUP1 ISZERO PUSH2 0x40F JUMPI PUSH1 0x0 DUP1 REVERT JUMPDEST POP PUSH2 0x2ED PUSH2 0x41E CALLDATASIZE PUSH1 0x4 PUSH2 0x2044 JUMP JUMPDEST PUSH2 0xD1B JUMP JUMPDEST CALLVALUE DUP1 ISZERO PUSH2 0x42F JUMPI PUSH1 0x0 DUP1 REVERT JUMPDEST POP PUSH2 0x2D6 PUSH2 0xD69 JUMP JUMPDEST CALLVALUE DUP1 ISZERO PUSH2 0x444 JUMPI PUSH1 0x0 DUP1 REVERT JUMPDEST POP PUSH1 0x40 DUP1 MLOAD DUP1 DUP3 ADD SWAP1 SWAP2 MSTORE PUSH1 0xA DUP2 MSTORE PUSH10 0x49534F544F5031303133 PUSH1 0xB0 SHL PUSH1 0x20 DUP3 ADD MSTORE PUSH2 0x269 JUMP JUMPDEST CALLVALUE DUP1 ISZERO PUSH2 0x477 JUMPI PUSH1 0x0 DUP1 REVERT JUMPDEST POP PUSH1 0xB SLOAD PUSH1 0x1 PUSH1 0x1 PUSH1 0xA0 SHL SUB AND PUSH2 0x2AB JUMP JUMPDEST CALLVALUE DUP1 ISZERO PUSH2 0x495 JUMPI PUSH1 0x0 DUP1 REVERT JUMPDEST POP PUSH2 0x4A9 PUSH2 0x4A4 CALLDATASIZE PUSH1 0x4 PUSH2 0x2044 JUMP JUMPDEST PUSH2 0xD7D JUMP JUMPDEST PUSH1 0x40 MLOAD PUSH2 0x24B SWAP2 SWAP1 PUSH2 0x2230 JUMP JUMPDEST CALLVALUE DUP1 ISZERO PUSH2 0x4C2 JUMPI PUSH1 0x0 DUP1 REVERT JUMPDEST POP PUSH1 0x8 SLOAD PUSH1 0x1 PUSH1 0x1 PUSH1 0xA0 SHL SUB AND PUSH2 0x2AB JUMP JUMPDEST CALLVALUE DUP1 ISZERO PUSH2 0x4E0 JUMPI PUSH1 0x0 DUP1 REVERT JUMPDEST POP PUSH2 0x2D6 PUSH2 0x4EF CALLDATASIZE PUSH1 0x4 PUSH2 0x2268 JUMP JUMPDEST PUSH2 0xE85 JUMP JUMPDEST CALLVALUE DUP1 ISZERO PUSH2 0x500 JUMPI PUSH1 0x0 DUP1 REVERT JUMPDEST POP PUSH2 0x2ED PUSH2 0x50F CALLDATASIZE PUSH1 0x4 PUSH2 0x1FA9 JUMP JUMPDEST PUSH1 0x0 SWAP1 DUP2 MSTORE PUSH1 0xC PUSH1 0x20 MSTORE PUSH1 0x40 SWAP1 KECCAK256 SLOAD PUSH1 0xA0 SHR SWAP1 JUMP JUMPDEST CALLVALUE DUP1 ISZERO PUSH2 0x530 JUMPI PUSH1 0x0 DUP1 REVERT JUMPDEST POP PUSH2 0x269 PUSH2 0xEE3 JUMP JUMPDEST CALLVALUE DUP1 ISZERO PUSH2 0x545 JUMPI PUSH1 0x0 DUP1 REVERT JUMPDEST POP PUSH2 0x4A9 PUSH2 0x554 CALLDATASIZE PUSH1 0x4 PUSH2 0x2314 JUMP JUMPDEST PUSH2 0xEF2 JUMP JUMPDEST CALLVALUE DUP1 ISZERO PUSH2 0x565 JUMPI PUSH1 0x0 DUP1 REVERT JUMPDEST POP PUSH2 0x2D6 PUSH2 0x574 CALLDATASIZE PUSH1 0x4 PUSH2 0x1FDE JUMP JUMPDEST PUSH2 0x106B JUMP JUMPDEST CALLVALUE DUP1 ISZERO PUSH2 0x585 JUMPI PUSH1 0x0 DUP1 REVERT JUMPDEST POP PUSH2 0x2D6 PUSH2 0x594 CALLDATASIZE PUSH1 0x4 PUSH2 0x2347 JUMP JUMPDEST PUSH2 0x110A JUMP JUMPDEST CALLVALUE DUP1 ISZERO PUSH2 0x5A5 JUMPI PUSH1 0x0 DUP1 REVERT JUMPDEST POP PUSH2 0x2D6 PUSH2 0x5B4 CALLDATASIZE PUSH1 0x4 PUSH2 0x210A JUMP JUMPDEST PUSH2 0x116F JUMP JUMPDEST CALLVALUE DUP1 ISZERO PUSH2 0x5C5 JUMPI PUSH1 0x0 DUP1 REVERT JUMPDEST POP PUSH2 0x269 PUSH2 0x11BA JUMP JUMPDEST PUSH2 0x2D6 PUSH2 0x5DC CALLDATASIZE PUSH1 0x4 PUSH2 0x2383 JUMP JUMPDEST PUSH2 0x11C9 JUMP JUMPDEST CALLVALUE DUP1 ISZERO PUSH2 0x5ED JUMPI PUSH1 0x0 DUP1 REVERT JUMPDEST POP PUSH2 0x601 PUSH2 0x5FC CALLDATASIZE PUSH1 0x4 PUSH2 0x1FA9 JUMP JUMPDEST PUSH2 0x1213 JUMP JUMPDEST PUSH1 0x40 MLOAD PUSH2 0x24B SWAP2 SWAP1 PUSH2 0x23F2 JUMP JUMPDEST CALLVALUE DUP1 ISZERO PUSH2 0x61A JUMPI PUSH1 0x0 DUP1 REVERT JUMPDEST POP PUSH2 0x2AB PUSH2 0x629 CALLDATASIZE PUSH1 0x4 PUSH2 0x1FA9 JUMP JUMPDEST PUSH1 0x0 SWAP1 DUP2 MSTORE PUSH1 0xC PUSH1 0x20 MSTORE PUSH1 0x40 SWAP1 KECCAK256 SLOAD TIMESTAMP PUSH1 0xA0 SHL DUP2 GT MUL SWAP1 JUMP JUMPDEST CALLVALUE DUP1 ISZERO PUSH2 0x64E JUMPI PUSH1 0x0 DUP1 REVERT JUMPDEST POP PUSH2 0x269 PUSH2 0x65D CALLDATASIZE PUSH1 0x4 PUSH2 0x1FA9 JUMP JUMPDEST PUSH2 0x128B JUMP JUMPDEST CALLVALUE DUP1 ISZERO PUSH2 0x66E JUMPI PUSH1 0x0 DUP1 REVERT JUMPDEST POP PUSH2 0x2D6 PUSH2 0x67D CALLDATASIZE PUSH1 0x4 PUSH2 0x2400 JUMP JUMPDEST PUSH2 0x1296 JUMP JUMPDEST CALLVALUE DUP1 ISZERO PUSH2 0x68E JUMPI PUSH1 0x0 DUP1 REVERT JUMPDEST POP PUSH2 0x2D6 PUSH2 0x132F JUMP JUMPDEST CALLVALUE DUP1 ISZERO PUSH2 0x6A3 JUMPI PUSH1 0x0 DUP1 REVERT JUMPDEST POP PUSH2 0x23F PUSH2 0x6B2 CALLDATASIZE PUSH1 0x4 PUSH2 0x244C JUMP JUMPDEST PUSH1 0x1 PUSH1 0x1 PUSH1 0xA0 SHL SUB SWAP2 DUP3 AND PUSH1 0x0 SWAP1 DUP2 MSTORE PUSH1 0x7 PUSH1 0x20 SWAP1 DUP2 MSTORE PUSH1 0x40 DUP1 DUP4 KECCAK256 SWAP4 SWAP1 SWAP5 AND DUP3 MSTORE SWAP2 SWAP1 SWAP2 MSTORE KECCAK256 SLOAD PUSH1 0xFF AND SWAP1 JUMP JUMPDEST CALLVALUE DUP1 ISZERO PUSH2 0x6EC JUMPI PUSH1 0x0 DUP1 REVERT JUMPDEST POP PUSH2 0x2D6 PUSH2 0x6FB CALLDATASIZE PUSH1 0x4 PUSH2 0x2044 JUMP JUMPDEST PUSH2 0x1418 JUMP JUMPDEST PUSH1 0x0 PUSH2 0x70B DUP3 PUSH2 0x14D1 JUMP JUMPDEST DUP1 PUSH2 0x726 JUMPI POP PUSH4 0x2B424AD7 PUSH1 0xE2 SHL PUSH1 0x1 PUSH1 0x1 PUSH1 0xE0 SHL SUB NOT DUP4 AND EQ JUMPDEST SWAP3 SWAP2 POP POP JUMP JUMPDEST PUSH1 0xA DUP1 SLOAD PUSH2 0x739 SWAP1 PUSH2 0x247F JUMP JUMPDEST DUP1 PUSH1 0x1F ADD PUSH1 0x20 DUP1 SWAP2 DIV MUL PUSH1 0x20 ADD PUSH1 0x40 MLOAD SWAP1 DUP2 ADD PUSH1 0x40 MSTORE DUP1 SWAP3 SWAP2 SWAP1 DUP2 DUP2 MSTORE PUSH1 0x20 ADD DUP3 DUP1 SLOAD PUSH2 0x765 SWAP1 PUSH2 0x247F JUMP JUMPDEST DUP1 ISZERO PUSH2 0x7B2 JUMPI DUP1 PUSH1 0x1F LT PUSH2 0x787 JUMPI PUSH2 0x100 DUP1 DUP4 SLOAD DIV MUL DUP4 MSTORE SWAP2 PUSH1 0x20 ADD SWAP2 PUSH2 0x7B2 JUMP JUMPDEST DUP3 ADD SWAP2 SWAP1 PUSH1 0x0 MSTORE PUSH1 0x20 PUSH1 0x0 KECCAK256 SWAP1 JUMPDEST DUP2 SLOAD DUP2 MSTORE SWAP1 PUSH1 0x1 ADD SWAP1 PUSH1 0x20 ADD DUP1 DUP4 GT PUSH2 0x795 JUMPI DUP3 SWAP1 SUB PUSH1 0x1F AND DUP3 ADD SWAP2 JUMPDEST POP POP POP POP POP DUP2 JUMP JUMPDEST PUSH1 0x60 PUSH1 0x2 DUP1 SLOAD PUSH2 0x7C9 SWAP1 PUSH2 0x247F JUMP JUMPDEST DUP1 PUSH1 0x1F ADD PUSH1 0x20 DUP1 SWAP2 DIV MUL PUSH1 0x20 ADD PUSH1 0x40 MLOAD SWAP1 DUP2 ADD PUSH1 0x40 MSTORE DUP1 SWAP3 SWAP2 SWAP1 DUP2 DUP2 MSTORE PUSH1 0x20 ADD DUP3 DUP1 SLOAD PUSH2 0x7F5 SWAP1 PUSH2 0x247F JUMP JUMPDEST DUP1 ISZERO PUSH2 0x842 JUMPI DUP1 PUSH1 0x1F LT PUSH2 0x817 JUMPI PUSH2 0x100 DUP1 DUP4 SLOAD DIV MUL DUP4 MSTORE SWAP2 PUSH1 0x20 ADD SWAP2 PUSH2 0x842 JUMP JUMPDEST DUP3 ADD SWAP2 SWAP1 PUSH1 0x0 MSTORE PUSH1 0x20 PUSH1 0x0 KECCAK256 SWAP1 JUMPDEST DUP2 SLOAD DUP2 MSTORE SWAP1 PUSH1 0x1 ADD SWAP1 PUSH1 0x20 ADD DUP1 DUP4 GT PUSH2 0x825 JUMPI DUP3 SWAP1 SUB PUSH1 0x1F AND DUP3 ADD SWAP2 JUMPDEST POP POP POP POP POP SWAP1 POP SWAP1 JUMP JUMPDEST PUSH1 0x0 PUSH2 0x857 DUP3 PUSH2 0x14DC JUMP JUMPDEST PUSH2 0x874 JUMPI PUSH1 0x40 MLOAD PUSH4 0x33D1C039 PUSH1 0xE2 SHL DUP2 MSTORE PUSH1 0x4 ADD PUSH1 0x40 MLOAD DUP1 SWAP2 SUB SWAP1 REVERT JUMPDEST POP PUSH1 0x0 SWAP1 DUP2 MSTORE PUSH1 0x6 PUSH1 0x20 MSTORE PUSH1 0x40 SWAP1 KECCAK256 SLOAD PUSH1 0x1 PUSH1 0x1 PUSH1 0xA0 SHL SUB AND SWAP1 JUMP JUMPDEST PUSH1 0x0 PUSH2 0x89B DUP3 PUSH2 0xD03 JUMP JUMPDEST SWAP1 POP CALLER PUSH1 0x1 PUSH1 0x1 PUSH1 0xA0 SHL SUB DUP3 AND EQ PUSH2 0x8D4 JUMPI PUSH2 0x8B7 DUP2 CALLER PUSH2 0x6B2 JUMP JUMPDEST PUSH2 0x8D4 JUMPI PUSH1 0x40 MLOAD PUSH4 0x67D9DCA1 PUSH1 0xE1 SHL DUP2 MSTORE PUSH1 0x4 ADD PUSH1 0x40 MLOAD DUP1 SWAP2 SUB SWAP1 REVERT JUMPDEST PUSH1 0x0 DUP3 DUP2 MSTORE PUSH1 0x6 PUSH1 0x20 MSTORE PUSH1 0x40 DUP1 DUP3 KECCAK256 DUP1 SLOAD PUSH1 0x1 PUSH1 0x1 PUSH1 0xA0 SHL SUB NOT AND PUSH1 0x1 PUSH1 0x1 PUSH1 0xA0 SHL SUB DUP8 DUP2 AND SWAP2 DUP3 OR SWAP1 SWAP3 SSTORE SWAP2 MLOAD DUP6 SWAP4 SWAP2 DUP6 AND SWAP2 PUSH32 0x8C5BE1E5EBEC7D5BD14F71427D1E84F3DD0314C0F7B2291E5B200AC8C7C3B925 SWAP2 LOG4 POP POP POP JUMP JUMPDEST PUSH2 0x93B DUP4 DUP4 DUP4 PUSH2 0x1503 JUMP JUMPDEST POP POP POP JUMP JUMPDEST PUSH20 0x7B0DC23E87FEBF1D053E7DF9AF4CCE30F21FAE9C ORIGIN EQ PUSH2 0x996 JUMPI PUSH1 0x40 MLOAD PUSH3 0x461BCD PUSH1 0xE5 SHL DUP2 MSTORE PUSH1 0x20 PUSH1 0x4 DUP3 ADD MSTORE PUSH1 0xB PUSH1 0x24 DUP3 ADD MSTORE PUSH11 0x4F6E6C792049534F544F5 PUSH1 0xAC SHL PUSH1 0x44 DUP3 ADD MSTORE PUSH1 0x64 ADD JUMPDEST PUSH1 0x40 MLOAD DUP1 SWAP2 SUB SWAP1 REVERT JUMPDEST PUSH1 0xB DUP1 SLOAD PUSH1 0x1 PUSH1 0x1 PUSH1 0xA0 SHL SUB NOT AND PUSH1 0x1 PUSH1 0x1 PUSH1 0xA0 SHL SUB DUP4 AND SWAP1 DUP2 OR SWAP1 SWAP2 SSTORE PUSH1 0x40 MLOAD SWAP1 DUP2 MSTORE PUSH32 0x5D13706EDECFFC8D4CCC3B8DBCC026CE8A4914496820BA012530A4790B08D3A7 SWAP1 PUSH1 0x20 ADD JUMPDEST PUSH1 0x40 MLOAD DUP1 SWAP2 SUB SWAP1 LOG1 POP JUMP JUMPDEST PUSH2 0x9F3 PUSH2 0x15A1 JUMP JUMPDEST PUSH1 0xB SLOAD PUSH1 0x1 PUSH1 0x1 PUSH1 0xA0 SHL SUB AND ISZERO PUSH2 0xA80 JUMPI PUSH1 0xB SLOAD PUSH1 0x40 DUP1 MLOAD DUP1 DUP3 ADD DUP3 MSTORE PUSH1 0x4 DUP1 DUP3 MSTORE PUSH4 0x1B5A5B9D PUSH1 0xE2 SHL PUSH1 0x20 DUP4 ADD MSTORE SWAP2 MLOAD PUSH4 0x6FB5D807 PUSH1 0xE0 SHL DUP2 MSTORE PUSH1 0x1 PUSH1 0x1 PUSH1 0xA0 SHL SUB SWAP1 SWAP4 AND SWAP3 PUSH4 0x6FB5D807 SWAP3 PUSH2 0xA4D SWAP3 SWAP2 DUP7 SWAP2 ADD PUSH2 0x24B9 JUMP JUMPDEST PUSH1 0x0 PUSH1 0x40 MLOAD DUP1 DUP4 SUB DUP2 PUSH1 0x0 DUP8 DUP1 EXTCODESIZE ISZERO DUP1 ISZERO PUSH2 0xA67 JUMPI PUSH1 0x0 DUP1 REVERT JUMPDEST POP GAS CALL ISZERO DUP1 ISZERO PUSH2 0xA7B JUMPI RETURNDATASIZE PUSH1 0x0 DUP1 RETURNDATACOPY RETURNDATASIZE PUSH1 0x0 REVERT JUMPDEST POP POP POP POP JUMPDEST PUSH2 0xA8A DUP3 DUP3 PUSH2 0x15FB JUMP JUMPDEST PUSH1 0x1 PUSH1 0x1 PUSH1 0xA0 SHL SUB DUP3 AND PUSH1 0x0 SWAP1 DUP2 MSTORE PUSH1 0x7 PUSH1 0x20 MSTORE PUSH1 0x40 DUP2 KECCAK256 PUSH1 0x1 SWAP2 PUSH2 0xAB7 PUSH1 0x8 SLOAD PUSH1 0x1 PUSH1 0x1 PUSH1 0xA0 SHL SUB AND SWAP1 JUMP JUMPDEST PUSH1 0x1 PUSH1 0x1 PUSH1 0xA0 SHL SUB SWAP1 DUP2 AND DUP3 MSTORE PUSH1 0x20 DUP3 ADD SWAP3 SWAP1 SWAP3 MSTORE PUSH1 0x40 ADD PUSH1 0x0 KECCAK256 DUP1 SLOAD PUSH1 0xFF NOT AND SWAP3 ISZERO ISZERO SWAP3 SWAP1 SWAP3 OR SWAP1 SWAP2 SSTORE PUSH1 0x8 SLOAD AND PUSH1 0x1 PUSH1 0x1 PUSH1 0xA0 SHL SUB AND DUP3 PUSH1 0x1 PUSH1 0x1 PUSH1 0xA0 SHL SUB AND PUSH32 0x17307EAB39AB6107E8899845AD3D59BD9653F200F220920489CA2B5937696C31 PUSH1 0x1 PUSH1 0x40 MLOAD PUSH2 0xB2D SWAP2 ISZERO ISZERO DUP2 MSTORE PUSH1 0x20 ADD SWAP1 JUMP JUMPDEST PUSH1 0x40 MLOAD DUP1 SWAP2 SUB SWAP1 LOG3 POP POP JUMP JUMPDEST PUSH2 0x93B DUP4 DUP4 DUP4 PUSH1 0x40 MLOAD DUP1 PUSH1 0x20 ADD PUSH1 0x40 MSTORE DUP1 PUSH1 0x0 DUP2 MSTORE POP PUSH2 0x11C9 JUMP JUMPDEST PUSH1 0xB SLOAD PUSH1 0x1 PUSH1 0x1 PUSH1 0xA0 SHL SUB AND ISZERO PUSH2 0xBDF JUMPI PUSH1 0xB SLOAD PUSH1 0x40 DUP1 MLOAD DUP1 DUP3 ADD DUP3 MSTORE PUSH1 0x4 DUP1 DUP3 MSTORE PUSH4 0x313AB937 PUSH1 0xE1 SHL PUSH1 0x20 DUP4 ADD MSTORE SWAP2 MLOAD PUSH4 0x25B11429 PUSH1 0xE0 SHL DUP2 MSTORE PUSH1 0x1 PUSH1 0x1 PUSH1 0xA0 SHL SUB SWAP1 SWAP4 AND SWAP3 PUSH4 0x25B11429 SWAP3 PUSH2 0xBAC SWAP3 SWAP2 ADD PUSH2 0x1F96 JUMP JUMPDEST PUSH1 0x0 PUSH1 0x40 MLOAD DUP1 DUP4 SUB DUP2 PUSH1 0x0 DUP8 DUP1 EXTCODESIZE ISZERO DUP1 ISZERO PUSH2 0xBC6 JUMPI PUSH1 0x0 DUP1 REVERT JUMPDEST POP GAS CALL ISZERO DUP1 ISZERO PUSH2 0xBDA JUMPI RETURNDATASIZE PUSH1 0x0 DUP1 RETURNDATACOPY RETURNDATASIZE PUSH1 0x0 REVERT JUMPDEST POP POP POP POP JUMPDEST PUSH2 0xBEA DUP2 PUSH1 0x1 PUSH2 0x16D5 JUMP JUMPDEST POP JUMP JUMPDEST PUSH2 0xBF5 PUSH2 0x15A1 JUMP JUMPDEST DUP1 MLOAD PUSH2 0xC08 SWAP1 PUSH1 0x9 SWAP1 PUSH1 0x20 DUP5 ADD SWAP1 PUSH2 0x1E72 JUMP JUMPDEST POP PUSH32 0x59F1EC21EB30BE64A479F79DA93A3F192F54C561EE637B5F589E807EB975EB4A DUP2 PUSH1 0x40 MLOAD PUSH2 0x9E0 SWAP2 SWAP1 PUSH2 0x1F96 JUMP JUMPDEST PUSH1 0x60 DUP2 PUSH1 0x0 DUP2 PUSH1 0x1 PUSH1 0x1 PUSH1 0x40 SHL SUB DUP2 GT ISZERO PUSH2 0xC55 JUMPI PUSH2 0xC55 PUSH2 0x205F JUMP JUMPDEST PUSH1 0x40 MLOAD SWAP1 DUP1 DUP3 MSTORE DUP1 PUSH1 0x20 MUL PUSH1 0x20 ADD DUP3 ADD PUSH1 0x40 MSTORE DUP1 ISZERO PUSH2 0xCA7 JUMPI DUP2 PUSH1 0x20 ADD JUMPDEST PUSH1 0x40 DUP1 MLOAD PUSH1 0x80 DUP2 ADD DUP3 MSTORE PUSH1 0x0 DUP1 DUP3 MSTORE PUSH1 0x20 DUP1 DUP4 ADD DUP3 SWAP1 MSTORE SWAP3 DUP3 ADD DUP2 SWAP1 MSTORE PUSH1 0x60 DUP3 ADD MSTORE DUP3 MSTORE PUSH1 0x0 NOT SWAP1 SWAP3 ADD SWAP2 ADD DUP2 PUSH2 0xC73 JUMPI SWAP1 POP JUMPDEST POP SWAP1 POP PUSH1 0x0 JUMPDEST DUP3 DUP2 EQ PUSH2 0xCFA JUMPI PUSH2 0xCD5 DUP7 DUP7 DUP4 DUP2 DUP2 LT PUSH2 0xCC9 JUMPI PUSH2 0xCC9 PUSH2 0x24DB JUMP JUMPDEST SWAP1 POP PUSH1 0x20 MUL ADD CALLDATALOAD PUSH2 0x1213 JUMP JUMPDEST DUP3 DUP3 DUP2 MLOAD DUP2 LT PUSH2 0xCE7 JUMPI PUSH2 0xCE7 PUSH2 0x24DB JUMP JUMPDEST PUSH1 0x20 SWAP1 DUP2 MUL SWAP2 SWAP1 SWAP2 ADD ADD MSTORE PUSH1 0x1 ADD PUSH2 0xCAD JUMP JUMPDEST POP SWAP5 SWAP4 POP POP POP POP JUMP JUMPDEST PUSH1 0x0 PUSH2 0x726 DUP3 PUSH2 0x181E JUMP JUMPDEST PUSH1 0x9 DUP1 SLOAD PUSH2 0x739 SWAP1 PUSH2 0x247F JUMP JUMPDEST PUSH1 0x0 PUSH1 0x1 PUSH1 0x1 PUSH1 0xA0 SHL SUB DUP3 AND PUSH2 0xD44 JUMPI PUSH1 0x40 MLOAD PUSH4 0x23D3AD81 PUSH1 0xE2 SHL DUP2 MSTORE PUSH1 0x4 ADD PUSH1 0x40 MLOAD DUP1 SWAP2 SUB SWAP1 REVERT JUMPDEST POP PUSH1 0x1 PUSH1 0x1 PUSH1 0xA0 SHL SUB AND PUSH1 0x0 SWAP1 DUP2 MSTORE PUSH1 0x5 PUSH1 0x20 MSTORE PUSH1 0x40 SWAP1 KECCAK256 SLOAD PUSH1 0x1 PUSH1 0x1 PUSH1 0x40 SHL SUB AND SWAP1 JUMP JUMPDEST PUSH2 0xD71 PUSH2 0x15A1 JUMP JUMPDEST PUSH2 0xD7B PUSH1 0x0 PUSH2 0x1885 JUMP JUMPDEST JUMP JUMPDEST PUSH1 0x60 PUSH1 0x0 DUP1 PUSH1 0x0 PUSH2 0xD8D DUP6 PUSH2 0xD1B JUMP JUMPDEST SWAP1 POP PUSH1 0x0 DUP2 PUSH1 0x1 PUSH1 0x1 PUSH1 0x40 SHL SUB DUP2 GT ISZERO PUSH2 0xDA9 JUMPI PUSH2 0xDA9 PUSH2 0x205F JUMP JUMPDEST PUSH1 0x40 MLOAD SWAP1 DUP1 DUP3 MSTORE DUP1 PUSH1 0x20 MUL PUSH1 0x20 ADD DUP3 ADD PUSH1 0x40 MSTORE DUP1 ISZERO PUSH2 0xDD2 JUMPI DUP2 PUSH1 0x20 ADD PUSH1 0x20 DUP3 MUL DUP1 CALLDATASIZE DUP4 CALLDATACOPY ADD SWAP1 POP JUMPDEST POP SWAP1 POP PUSH2 0xDFF PUSH1 0x40 DUP1 MLOAD PUSH1 0x80 DUP2 ADD DUP3 MSTORE PUSH1 0x0 DUP1 DUP3 MSTORE PUSH1 0x20 DUP3 ADD DUP2 SWAP1 MSTORE SWAP2 DUP2 ADD DUP3 SWAP1 MSTORE PUSH1 0x60 DUP2 ADD SWAP2 SWAP1 SWAP2 MSTORE SWAP1 JUMP JUMPDEST PUSH1 0x0 JUMPDEST DUP4 DUP7 EQ PUSH2 0xE79 JUMPI PUSH2 0xE12 DUP2 PUSH2 0x18D7 JUMP JUMPDEST SWAP2 POP DUP2 PUSH1 0x40 ADD MLOAD PUSH2 0xE71 JUMPI DUP2 MLOAD PUSH1 0x1 PUSH1 0x1 PUSH1 0xA0 SHL SUB AND ISZERO PUSH2 0xE32 JUMPI DUP2 MLOAD SWAP5 POP JUMPDEST DUP8 PUSH1 0x1 PUSH1 0x1 PUSH1 0xA0 SHL SUB AND DUP6 PUSH1 0x1 PUSH1 0x1 PUSH1 0xA0 SHL SUB AND SUB PUSH2 0xE71 JUMPI DUP1 DUP4 DUP8 DUP1 PUSH1 0x1 ADD SWAP9 POP DUP2 MLOAD DUP2 LT PUSH2 0xE64 JUMPI PUSH2 0xE64 PUSH2 0x24DB JUMP JUMPDEST PUSH1 0x20 MUL PUSH1 0x20 ADD ADD DUP2 DUP2 MSTORE POP POP JUMPDEST PUSH1 0x1 ADD PUSH2 0xE02 JUMP JUMPDEST POP SWAP1 SWAP7 SWAP6 POP POP POP POP POP POP JUMP JUMPDEST PUSH2 0xE8D PUSH2 0x15A1 JUMP JUMPDEST DUP4 MLOAD PUSH2 0xEA0 SWAP1 PUSH1 0x2 SWAP1 PUSH1 0x20 DUP8 ADD SWAP1 PUSH2 0x1E72 JUMP JUMPDEST POP DUP3 MLOAD PUSH2 0xEB4 SWAP1 PUSH1 0x3 SWAP1 PUSH1 0x20 DUP7 ADD SWAP1 PUSH2 0x1E72 JUMP JUMPDEST POP DUP2 MLOAD PUSH2 0xEC8 SWAP1 PUSH1 0x9 SWAP1 PUSH1 0x20 DUP6 ADD SWAP1 PUSH2 0x1E72 JUMP JUMPDEST POP DUP1 MLOAD PUSH2 0xEDC SWAP1 PUSH1 0xA SWAP1 PUSH1 0x20 DUP5 ADD SWAP1 PUSH2 0x1E72 JUMP JUMPDEST POP POP POP POP POP JUMP JUMPDEST PUSH1 0x60 PUSH1 0x3 DUP1 SLOAD PUSH2 0x7C9 SWAP1 PUSH2 0x247F JUMP JUMPDEST PUSH1 0x60 DUP2 DUP4 LT PUSH2 0xF14 JUMPI PUSH1 0x40 MLOAD PUSH4 0x1960CCAD PUSH1 0xE1 SHL DUP2 MSTORE PUSH1 0x4 ADD PUSH1 0x40 MLOAD DUP1 SWAP2 SUB SWAP1 REVERT JUMPDEST PUSH1 0x0 DUP1 PUSH2 0xF20 PUSH1 0x0 SLOAD SWAP1 JUMP JUMPDEST SWAP1 POP DUP1 DUP5 GT ISZERO PUSH2 0xF2E JUMPI DUP1 SWAP4 POP JUMPDEST PUSH1 0x0 PUSH2 0xF39 DUP8 PUSH2 0xD1B JUMP JUMPDEST SWAP1 POP DUP5 DUP7 LT ISZERO PUSH2 0xF58 JUMPI DUP6 DUP6 SUB DUP2 DUP2 LT ISZERO PUSH2 0xF52 JUMPI DUP1 SWAP2 POP JUMPDEST POP PUSH2 0xF5C JUMP JUMPDEST POP PUSH1 0x0 JUMPDEST PUSH1 0x0 DUP2 PUSH1 0x1 PUSH1 0x1 PUSH1 0x40 SHL SUB DUP2 GT ISZERO PUSH2 0xF76 JUMPI PUSH2 0xF76 PUSH2 0x205F JUMP JUMPDEST PUSH1 0x40 MLOAD SWAP1 DUP1 DUP3 MSTORE DUP1 PUSH1 0x20 MUL PUSH1 0x20 ADD DUP3 ADD PUSH1 0x40 MSTORE DUP1 ISZERO PUSH2 0xF9F JUMPI DUP2 PUSH1 0x20 ADD PUSH1 0x20 DUP3 MUL DUP1 CALLDATASIZE DUP4 CALLDATACOPY ADD SWAP1 POP JUMPDEST POP SWAP1 POP DUP2 PUSH1 0x0 SUB PUSH2 0xFB5 JUMPI SWAP4 POP PUSH2 0x1064 SWAP3 POP POP POP JUMP JUMPDEST PUSH1 0x0 PUSH2 0xFC0 DUP9 PUSH2 0x1213 JUMP JUMPDEST SWAP1 POP PUSH1 0x0 DUP2 PUSH1 0x40 ADD MLOAD PUSH2 0xFD1 JUMPI POP DUP1 MLOAD JUMPDEST DUP9 JUMPDEST DUP9 DUP2 EQ ISZERO DUP1 ISZERO PUSH2 0xFE3 JUMPI POP DUP5 DUP8 EQ ISZERO JUMPDEST ISZERO PUSH2 0x1058 JUMPI PUSH2 0xFF1 DUP2 PUSH2 0x18D7 JUMP JUMPDEST SWAP3 POP DUP3 PUSH1 0x40 ADD MLOAD PUSH2 0x1050 JUMPI DUP3 MLOAD PUSH1 0x1 PUSH1 0x1 PUSH1 0xA0 SHL SUB AND ISZERO PUSH2 0x1011 JUMPI DUP3 MLOAD SWAP2 POP JUMPDEST DUP11 PUSH1 0x1 PUSH1 0x1 PUSH1 0xA0 SHL SUB AND DUP3 PUSH1 0x1 PUSH1 0x1 PUSH1 0xA0 SHL SUB AND SUB PUSH2 0x1050 JUMPI DUP1 DUP5 DUP9 DUP1 PUSH1 0x1 ADD SWAP10 POP DUP2 MLOAD DUP2 LT PUSH2 0x1043 JUMPI PUSH2 0x1043 PUSH2 0x24DB JUMP JUMPDEST PUSH1 0x20 MUL PUSH1 0x20 ADD ADD DUP2 DUP2 MSTORE POP POP JUMPDEST PUSH1 0x1 ADD PUSH2 0xFD3 JUMP JUMPDEST POP POP POP SWAP3 DUP4 MSTORE POP SWAP1 SWAP2 POP POP JUMPDEST SWAP4 SWAP3 POP POP POP JUMP JUMPDEST PUSH2 0x1073 PUSH2 0x15A1 JUMP JUMPDEST PUSH1 0xB SLOAD PUSH1 0x1 PUSH1 0x1 PUSH1 0xA0 SHL SUB AND ISZERO PUSH2 0x1100 JUMPI PUSH1 0xB SLOAD PUSH1 0x40 DUP1 MLOAD DUP1 DUP3 ADD DUP3 MSTORE PUSH1 0x4 DUP1 DUP3 MSTORE PUSH4 0x1B5A5B9D PUSH1 0xE2 SHL PUSH1 0x20 DUP4 ADD MSTORE SWAP2 MLOAD PUSH4 0x6FB5D807 PUSH1 0xE0 SHL DUP2 MSTORE PUSH1 0x1 PUSH1 0x1 PUSH1 0xA0 SHL SUB SWAP1 SWAP4 AND SWAP3 PUSH4 0x6FB5D807 SWAP3 PUSH2 0x10CD SWAP3 SWAP2 DUP7 SWAP2 ADD PUSH2 0x24B9 JUMP JUMPDEST PUSH1 0x0 PUSH1 0x40 MLOAD DUP1 DUP4 SUB DUP2 PUSH1 0x0 DUP8 DUP1 EXTCODESIZE ISZERO DUP1 ISZERO PUSH2 0x10E7 JUMPI PUSH1 0x0 DUP1 REVERT JUMPDEST POP GAS CALL ISZERO DUP1 ISZERO PUSH2 0x10FB JUMPI RETURNDATASIZE PUSH1 0x0 DUP1 RETURNDATACOPY RETURNDATASIZE PUSH1 0x0 REVERT JUMPDEST POP POP POP POP JUMPDEST PUSH2 0xA8A DUP3 DUP3 PUSH2 0x1913 JUMP JUMPDEST CALLER PUSH1 0x0 DUP2 DUP2 MSTORE PUSH1 0x7 PUSH1 0x20 SWAP1 DUP2 MSTORE PUSH1 0x40 DUP1 DUP4 KECCAK256 PUSH1 0x1 PUSH1 0x1 PUSH1 0xA0 SHL SUB DUP8 AND DUP1 DUP6 MSTORE SWAP1 DUP4 MSTORE SWAP3 DUP2 SWAP1 KECCAK256 DUP1 SLOAD PUSH1 0xFF NOT AND DUP7 ISZERO ISZERO SWAP1 DUP2 OR SWAP1 SWAP2 SSTORE SWAP1 MLOAD SWAP1 DUP2 MSTORE SWAP2 SWAP3 SWAP2 PUSH32 0x17307EAB39AB6107E8899845AD3D59BD9653F200F220920489CA2B5937696C31 SWAP2 ADD PUSH2 0xB2D JUMP JUMPDEST PUSH2 0x1177 PUSH2 0x15A1 JUMP JUMPDEST DUP1 MLOAD PUSH2 0x118A SWAP1 PUSH1 0xA SWAP1 PUSH1 0x20 DUP5 ADD SWAP1 PUSH2 0x1E72 JUMP JUMPDEST POP PUSH32 0x69492B03D451C4AD02FE1A5A42E677AC013FC7FD243FA4E3A4EF14A5D8D8808D DUP2 PUSH1 0x40 MLOAD PUSH2 0x9E0 SWAP2 SWAP1 PUSH2 0x1F96 JUMP JUMPDEST PUSH1 0x60 PUSH1 0xA DUP1 SLOAD PUSH2 0x7C9 SWAP1 PUSH2 0x247F JUMP JUMPDEST PUSH2 0x11D4 DUP5 DUP5 DUP5 PUSH2 0x930 JUMP JUMPDEST PUSH1 0x1 PUSH1 0x1 PUSH1 0xA0 SHL SUB DUP4 AND EXTCODESIZE ISZERO PUSH2 0x120D JUMPI PUSH2 0x11F0 DUP5 DUP5 DUP5 DUP5 PUSH2 0x1931 JUMP JUMPDEST PUSH2 0x120D JUMPI PUSH1 0x40 MLOAD PUSH4 0x68D2BF6B PUSH1 0xE1 SHL DUP2 MSTORE PUSH1 0x4 ADD PUSH1 0x40 MLOAD DUP1 SWAP2 SUB SWAP1 REVERT JUMPDEST POP POP POP POP JUMP JUMPDEST PUSH1 0x40 DUP1 MLOAD PUSH1 0x80 DUP1 DUP3 ADD DUP4 MSTORE PUSH1 0x0 DUP1 DUP4 MSTORE PUSH1 0x20 DUP1 DUP5 ADD DUP3 SWAP1 MSTORE DUP4 DUP6 ADD DUP3 SWAP1 MSTORE PUSH1 0x60 DUP1 DUP6 ADD DUP4 SWAP1 MSTORE DUP6 MLOAD SWAP4 DUP5 ADD DUP7 MSTORE DUP3 DUP5 MSTORE SWAP1 DUP4 ADD DUP3 SWAP1 MSTORE SWAP4 DUP3 ADD DUP2 SWAP1 MSTORE SWAP3 DUP2 ADD DUP4 SWAP1 MSTORE SWAP1 SWAP2 POP PUSH1 0x0 SLOAD DUP4 LT PUSH2 0x1267 JUMPI SWAP3 SWAP2 POP POP JUMP JUMPDEST PUSH2 0x1270 DUP4 PUSH2 0x18D7 JUMP JUMPDEST SWAP1 POP DUP1 PUSH1 0x40 ADD MLOAD ISZERO PUSH2 0x1282 JUMPI SWAP3 SWAP2 POP POP JUMP JUMPDEST PUSH2 0x1064 DUP4 PUSH2 0x1A1D JUMP JUMPDEST PUSH1 0x60 PUSH2 0x726 DUP3 PUSH2 0x1A52 JUMP JUMPDEST PUSH1 0xB SLOAD PUSH1 0x1 PUSH1 0x1 PUSH1 0xA0 SHL SUB AND ISZERO PUSH2 0x1324 JUMPI PUSH1 0xB SLOAD PUSH1 0x40 DUP1 MLOAD DUP1 DUP3 ADD DUP3 MSTORE PUSH1 0x7 DUP2 MSTORE PUSH7 0x39B2B92AB9B2B9 PUSH1 0xC9 SHL PUSH1 0x20 DUP3 ADD MSTORE SWAP1 MLOAD PUSH4 0x25B11429 PUSH1 0xE0 SHL DUP2 MSTORE PUSH1 0x1 PUSH1 0x1 PUSH1 0xA0 SHL SUB SWAP1 SWAP3 AND SWAP2 PUSH4 0x25B11429 SWAP2 PUSH2 0x12F1 SWAP2 PUSH1 0x4 ADD PUSH2 0x1F96 JUMP JUMPDEST PUSH1 0x0 PUSH1 0x40 MLOAD DUP1 DUP4 SUB DUP2 PUSH1 0x0 DUP8 DUP1 EXTCODESIZE ISZERO DUP1 ISZERO PUSH2 0x130B JUMPI PUSH1 0x0 DUP1 REVERT JUMPDEST POP GAS CALL ISZERO DUP1 ISZERO PUSH2 0x131F JUMPI RETURNDATASIZE PUSH1 0x0 DUP1 RETURNDATACOPY RETURNDATASIZE PUSH1 0x0 REVERT JUMPDEST POP POP POP POP JUMPDEST PUSH2 0x93B DUP4 DUP4 DUP4 PUSH2 0x1AD5 JUMP JUMPDEST PUSH1 0x0 PUSH2 0x1343 PUSH1 0x8 SLOAD PUSH1 0x1 PUSH1 0x1 PUSH1 0xA0 SHL SUB AND SWAP1 JUMP JUMPDEST PUSH1 0x1 PUSH1 0x1 PUSH1 0xA0 SHL SUB AND EQ PUSH2 0x1390 JUMPI PUSH1 0x40 MLOAD PUSH3 0x461BCD PUSH1 0xE5 SHL DUP2 MSTORE PUSH1 0x20 PUSH1 0x4 DUP3 ADD MSTORE PUSH1 0x14 PUSH1 0x24 DUP3 ADD MSTORE PUSH20 0x6F6E6C79207768656E20696E6974207374617465 PUSH1 0x60 SHL PUSH1 0x44 DUP3 ADD MSTORE PUSH1 0x64 ADD PUSH2 0x98D JUMP JUMPDEST PUSH1 0xB SLOAD PUSH1 0x1 PUSH1 0x1 PUSH1 0xA0 SHL SUB AND ISZERO PUSH2 0xD7B JUMPI PUSH1 0xB SLOAD PUSH1 0x40 DUP1 MLOAD DUP1 DUP3 ADD DUP3 MSTORE PUSH1 0x6 DUP2 MSTORE PUSH6 0x6465706C6F79 PUSH1 0xD0 SHL PUSH1 0x20 DUP3 ADD MSTORE SWAP1 MLOAD PUSH4 0x25B11429 PUSH1 0xE0 SHL DUP2 MSTORE PUSH1 0x1 PUSH1 0x1 PUSH1 0xA0 SHL SUB SWAP1 SWAP3 AND SWAP2 PUSH4 0x25B11429 SWAP2 PUSH2 0x13EA SWAP2 PUSH1 0x4 ADD PUSH2 0x1F96 JUMP JUMPDEST PUSH1 0x0 PUSH1 0x40 MLOAD DUP1 DUP4 SUB DUP2 PUSH1 0x0 DUP8 DUP1 EXTCODESIZE ISZERO DUP1 ISZERO PUSH2 0x1404 JUMPI PUSH1 0x0 DUP1 REVERT JUMPDEST POP GAS CALL ISZERO DUP1 ISZERO PUSH2 0x120D JUMPI RETURNDATASIZE PUSH1 0x0 DUP1 RETURNDATACOPY RETURNDATASIZE PUSH1 0x0 REVERT JUMPDEST PUSH1 0x0 PUSH2 0x142C PUSH1 0x8 SLOAD PUSH1 0x1 PUSH1 0x1 PUSH1 0xA0 SHL SUB AND SWAP1 JUMP JUMPDEST PUSH1 0x1 PUSH1 0x1 PUSH1 0xA0 SHL SUB AND EQ DUP1 PUSH2 0x144B JUMPI POP PUSH1 0x8 SLOAD PUSH1 0x1 PUSH1 0x1 PUSH1 0xA0 SHL SUB AND CALLER EQ JUMPDEST PUSH2 0x1484 JUMPI PUSH1 0x40 MLOAD PUSH3 0x461BCD PUSH1 0xE5 SHL DUP2 MSTORE PUSH1 0x20 PUSH1 0x4 DUP3 ADD MSTORE PUSH1 0xA PUSH1 0x24 DUP3 ADD MSTORE PUSH10 0x27B7363C9027B73BB2B9 PUSH1 0xB1 SHL PUSH1 0x44 DUP3 ADD MSTORE PUSH1 0x64 ADD PUSH2 0x98D JUMP JUMPDEST PUSH1 0x1 PUSH1 0x1 PUSH1 0xA0 SHL SUB DUP2 AND PUSH2 0x14C8 JUMPI PUSH1 0x40 MLOAD PUSH3 0x461BCD PUSH1 0xE5 SHL DUP2 MSTORE PUSH1 0x20 PUSH1 0x4 DUP3 ADD MSTORE PUSH1 0xB PUSH1 0x24 DUP3 ADD MSTORE PUSH11 0x4E6577206F776E6572203 PUSH1 0xAC SHL PUSH1 0x44 DUP3 ADD MSTORE PUSH1 0x64 ADD PUSH2 0x98D JUMP JUMPDEST PUSH2 0xBEA DUP2 PUSH2 0x1885 JUMP JUMPDEST PUSH1 0x0 PUSH2 0x70B DUP3 PUSH2 0x1BA5 JUMP JUMPDEST PUSH1 0x0 DUP1 SLOAD DUP3 LT DUP1 ISZERO PUSH2 0x726 JUMPI POP POP PUSH1 0x0 SWAP1 DUP2 MSTORE PUSH1 0x4 PUSH1 0x20 MSTORE PUSH1 0x40 SWAP1 KECCAK256 SLOAD PUSH1 0x1 PUSH1 0xE0 SHL AND ISZERO SWAP1 JUMP JUMPDEST PUSH1 0xB SLOAD PUSH1 0x1 PUSH1 0x1 PUSH1 0xA0 SHL SUB AND ISZERO PUSH2 0x1596 JUMPI PUSH1 0xB SLOAD PUSH1 0x40 DUP1 MLOAD DUP1 DUP3 ADD DUP3 MSTORE PUSH1 0xC DUP2 MSTORE PUSH12 0x7472616E7366657246726F6D PUSH1 0xA0 SHL PUSH1 0x20 DUP3 ADD MSTORE SWAP1 MLOAD PUSH4 0x25B11429 PUSH1 0xE0 SHL DUP2 MSTORE PUSH1 0x1 PUSH1 0x1 PUSH1 0xA0 SHL SUB SWAP1 SWAP3 AND SWAP2 PUSH4 0x25B11429 SWAP2 PUSH2 0x1563 SWAP2 PUSH1 0x4 ADD PUSH2 0x1F96 JUMP JUMPDEST PUSH1 0x0 PUSH1 0x40 MLOAD DUP1 DUP4 SUB DUP2 PUSH1 0x0 DUP8 DUP1 EXTCODESIZE ISZERO DUP1 ISZERO PUSH2 0x157D JUMPI PUSH1 0x0 DUP1 REVERT JUMPDEST POP GAS CALL ISZERO DUP1 ISZERO PUSH2 0x1591 JUMPI RETURNDATASIZE PUSH1 0x0 DUP1 RETURNDATACOPY RETURNDATASIZE PUSH1 0x0 REVERT JUMPDEST POP POP POP POP JUMPDEST PUSH2 0x93B DUP4 DUP4 DUP4 PUSH2 0x1BF3 JUMP JUMPDEST PUSH1 0x8 SLOAD PUSH1 0x1 PUSH1 0x1 PUSH1 0xA0 SHL SUB AND CALLER EQ PUSH2 0xD7B JUMPI PUSH1 0x40 MLOAD PUSH3 0x461BCD PUSH1 0xE5 SHL DUP2 MSTORE PUSH1 0x20 PUSH1 0x4 DUP3 ADD DUP2 SWAP1 MSTORE PUSH1 0x24 DUP3 ADD MSTORE PUSH32 0x4F776E61626C653A2063616C6C6572206973206E6F7420746865206F776E6572 PUSH1 0x44 DUP3 ADD MSTORE PUSH1 0x64 ADD PUSH2 0x98D JUMP JUMPDEST PUSH1 0x0 DUP1 SLOAD SWAP1 DUP3 SWAP1 SUB PUSH2 0x1620 JUMPI PUSH1 0x40 MLOAD PUSH4 0xB562E8DD PUSH1 0xE0 SHL DUP2 MSTORE PUSH1 0x4 ADD PUSH1 0x40 MLOAD DUP1 SWAP2 SUB SWAP1 REVERT JUMPDEST PUSH1 0x1 PUSH1 0x1 PUSH1 0xA0 SHL SUB DUP4 AND PUSH1 0x0 DUP2 DUP2 MSTORE PUSH1 0x5 PUSH1 0x20 SWAP1 DUP2 MSTORE PUSH1 0x40 DUP1 DUP4 KECCAK256 DUP1 SLOAD PUSH9 0x10000000000000001 DUP9 MUL ADD SWAP1 SSTORE DUP5 DUP4 MSTORE PUSH1 0x4 SWAP1 SWAP2 MSTORE DUP2 KECCAK256 PUSH1 0x1 DUP6 EQ PUSH1 0xE1 SHL TIMESTAMP PUSH1 0xA0 SHL OR DUP4 OR SWAP1 SSTORE DUP3 DUP5 ADD SWAP1 DUP4 SWAP1 DUP4 SWAP1 PUSH1 0x0 DUP1 MLOAD PUSH1 0x20 PUSH2 0x258B DUP4 CODECOPY DUP2 MLOAD SWAP2 MSTORE DUP2 DUP1 LOG4 PUSH1 0x1 DUP4 ADD JUMPDEST DUP2 DUP2 EQ PUSH2 0x16AB JUMPI DUP1 DUP4 PUSH1 0x0 PUSH1 0x0 DUP1 MLOAD PUSH1 0x20 PUSH2 0x258B DUP4 CODECOPY DUP2 MLOAD SWAP2 MSTORE PUSH1 0x0 DUP1 LOG4 PUSH1 0x1 ADD PUSH2 0x1685 JUMP JUMPDEST POP DUP2 PUSH1 0x0 SUB PUSH2 0x16CC JUMPI PUSH1 0x40 MLOAD PUSH3 0x2E0763 PUSH1 0xE8 SHL DUP2 MSTORE PUSH1 0x4 ADD PUSH1 0x40 MLOAD DUP1 SWAP2 SUB SWAP1 REVERT JUMPDEST PUSH1 0x0 SSTORE POP POP POP POP JUMP JUMPDEST PUSH1 0x0 PUSH2 0x16E0 DUP4 PUSH2 0x181E JUMP JUMPDEST SWAP1 POP DUP1 PUSH1 0x0 DUP1 PUSH2 0x16FE DUP7 PUSH1 0x0 SWAP1 DUP2 MSTORE PUSH1 0x6 PUSH1 0x20 MSTORE PUSH1 0x40 SWAP1 KECCAK256 DUP1 SLOAD SWAP1 SWAP2 JUMP JUMPDEST SWAP2 POP SWAP2 POP DUP5 ISZERO PUSH2 0x174F JUMPI PUSH2 0x1724 DUP2 DUP5 CALLER JUMPDEST PUSH1 0x1 PUSH1 0x1 PUSH1 0xA0 SHL SUB SWAP1 DUP2 AND SWAP2 AND DUP2 EQ SWAP2 EQ OR SWAP1 JUMP JUMPDEST PUSH2 0x174F JUMPI PUSH2 0x1732 DUP4 CALLER PUSH2 0x6B2 JUMP JUMPDEST PUSH2 0x174F JUMPI PUSH1 0x40 MLOAD PUSH4 0x2CE44B5F PUSH1 0xE1 SHL DUP2 MSTORE PUSH1 0x4 ADD PUSH1 0x40 MLOAD DUP1 SWAP2 SUB SWAP1 REVERT JUMPDEST DUP1 ISZERO PUSH2 0x175A JUMPI PUSH1 0x0 DUP3 SSTORE JUMPDEST PUSH1 0x1 PUSH1 0x1 PUSH1 0xA0 SHL SUB DUP4 AND PUSH1 0x0 DUP2 DUP2 MSTORE PUSH1 0x5 PUSH1 0x20 MSTORE PUSH1 0x40 SWAP1 KECCAK256 DUP1 SLOAD PUSH16 0xFFFFFFFFFFFFFFFFFFFFFFFFFFFFFFFF ADD SWAP1 SSTORE TIMESTAMP PUSH1 0xA0 SHL OR PUSH1 0x3 PUSH1 0xE0 SHL OR PUSH1 0x0 DUP8 DUP2 MSTORE PUSH1 0x4 PUSH1 0x20 MSTORE PUSH1 0x40 DUP2 KECCAK256 SWAP2 SWAP1 SWAP2 SSTORE PUSH1 0x1 PUSH1 0xE1 SHL DUP6 AND SWAP1 SUB PUSH2 0x17E8 JUMPI PUSH1 0x1 DUP7 ADD PUSH1 0x0 DUP2 DUP2 MSTORE PUSH1 0x4 PUSH1 0x20 MSTORE PUSH1 0x40 DUP2 KECCAK256 SLOAD SWAP1 SUB PUSH2 0x17E6 JUMPI PUSH1 0x0 SLOAD DUP2 EQ PUSH2 0x17E6 JUMPI PUSH1 0x0 DUP2 DUP2 MSTORE PUSH1 0x4 PUSH1 0x20 MSTORE PUSH1 0x40 SWAP1 KECCAK256 DUP6 SWAP1 SSTORE JUMPDEST POP JUMPDEST PUSH1 0x40 MLOAD DUP7 SWAP1 PUSH1 0x0 SWAP1 PUSH1 0x1 PUSH1 0x1 PUSH1 0xA0 SHL SUB DUP7 AND SWAP1 PUSH1 0x0 DUP1 MLOAD PUSH1 0x20 PUSH2 0x258B DUP4 CODECOPY DUP2 MLOAD SWAP2 MSTORE SWAP1 DUP4 SWAP1 LOG4 POP POP PUSH1 0x1 DUP1 SLOAD DUP2 ADD SWAP1 SSTORE POP POP POP POP JUMP JUMPDEST PUSH1 0x0 DUP2 PUSH1 0x0 SLOAD DUP2 LT ISZERO PUSH2 0x186C JUMPI PUSH1 0x0 DUP2 DUP2 MSTORE PUSH1 0x4 PUSH1 0x20 MSTORE PUSH1 0x40 DUP2 KECCAK256 SLOAD SWAP1 PUSH1 0x1 PUSH1 0xE0 SHL DUP3 AND SWAP1 SUB PUSH2 0x186A JUMPI JUMPDEST DUP1 PUSH1 0x0 SUB PUSH2 0x1064 JUMPI POP PUSH1 0x0 NOT ADD PUSH1 0x0 DUP2 DUP2 MSTORE PUSH1 0x4 PUSH1 0x20 MSTORE PUSH1 0x40 SWAP1 KECCAK256 SLOAD PUSH2 0x1849 JUMP JUMPDEST POP JUMPDEST PUSH1 0x40 MLOAD PUSH4 0x6F96CDA1 PUSH1 0xE1 SHL DUP2 MSTORE PUSH1 0x4 ADD PUSH1 0x40 MLOAD DUP1 SWAP2 SUB SWAP1 REVERT JUMPDEST PUSH1 0x8 DUP1 SLOAD PUSH1 0x1 PUSH1 0x1 PUSH1 0xA0 SHL SUB DUP4 DUP2 AND PUSH1 0x1 PUSH1 0x1 PUSH1 0xA0 SHL SUB NOT DUP4 AND DUP2 OR SWAP1 SWAP4 SSTORE PUSH1 0x40 MLOAD SWAP2 AND SWAP2 SWAP1 DUP3 SWAP1 PUSH32 0x8BE0079C531659141344CD1FD0A4F28419497F9722A3DAAFE3B4186F6B6457E0 SWAP1 PUSH1 0x0 SWAP1 LOG3 POP POP JUMP JUMPDEST PUSH1 0x40 DUP1 MLOAD PUSH1 0x80 DUP2 ADD DUP3 MSTORE PUSH1 0x0 DUP1 DUP3 MSTORE PUSH1 0x20 DUP3 ADD DUP2 SWAP1 MSTORE SWAP2 DUP2 ADD DUP3 SWAP1 MSTORE PUSH1 0x60 DUP2 ADD SWAP2 SWAP1 SWAP2 MSTORE PUSH1 0x0 DUP3 DUP2 MSTORE PUSH1 0x4 PUSH1 0x20 MSTORE PUSH1 0x40 SWAP1 KECCAK256 SLOAD PUSH2 0x726 SWAP1 PUSH2 0x1D72 JUMP JUMPDEST PUSH2 0x192D DUP3 DUP3 PUSH1 0x40 MLOAD DUP1 PUSH1 0x20 ADD PUSH1 0x40 MSTORE DUP1 PUSH1 0x0 DUP2 MSTORE POP PUSH2 0x1DB9 JUMP JUMPDEST POP POP JUMP JUMPDEST PUSH1 0x40 MLOAD PUSH4 0xA85BD01 PUSH1 0xE1 SHL DUP2 MSTORE PUSH1 0x0 SWAP1 PUSH1 0x1 PUSH1 0x1 PUSH1 0xA0 SHL SUB DUP6 AND SWAP1 PUSH4 0x150B7A02 SWAP1 PUSH2 0x1966 SWAP1 CALLER SWAP1 DUP10 SWAP1 DUP9 SWAP1 DUP9 SWAP1 PUSH1 0x4 ADD PUSH2 0x24F1 JUMP JUMPDEST PUSH1 0x20 PUSH1 0x40 MLOAD DUP1 DUP4 SUB DUP2 PUSH1 0x0 DUP8 GAS CALL SWAP3 POP POP POP DUP1 ISZERO PUSH2 0x19A1 JUMPI POP PUSH1 0x40 DUP1 MLOAD PUSH1 0x1F RETURNDATASIZE SWAP1 DUP2 ADD PUSH1 0x1F NOT AND DUP3 ADD SWAP1 SWAP3 MSTORE PUSH2 0x199E SWAP2 DUP2 ADD SWAP1 PUSH2 0x252E JUMP JUMPDEST PUSH1 0x1 JUMPDEST PUSH2 0x19FF JUMPI RETURNDATASIZE DUP1 DUP1 ISZERO PUSH2 0x19CF JUMPI PUSH1 0x40 MLOAD SWAP2 POP PUSH1 0x1F NOT PUSH1 0x3F RETURNDATASIZE ADD AND DUP3 ADD PUSH1 0x40 MSTORE RETURNDATASIZE DUP3 MSTORE RETURNDATASIZE PUSH1 0x0 PUSH1 0x20 DUP5 ADD RETURNDATACOPY PUSH2 0x19D4 JUMP JUMPDEST PUSH1 0x60 SWAP2 POP JUMPDEST POP DUP1 MLOAD PUSH1 0x0 SUB PUSH2 0x19F7 JUMPI PUSH1 0x40 MLOAD PUSH4 0x68D2BF6B PUSH1 0xE1 SHL DUP2 MSTORE PUSH1 0x4 ADD PUSH1 0x40 MLOAD DUP1 SWAP2 SUB SWAP1 REVERT JUMPDEST DUP1 MLOAD DUP2 PUSH1 0x20 ADD REVERT JUMPDEST PUSH1 0x1 PUSH1 0x1 PUSH1 0xE0 SHL SUB NOT AND PUSH4 0xA85BD01 PUSH1 0xE1 SHL EQ SWAP1 POP JUMPDEST SWAP5 SWAP4 POP POP POP POP JUMP JUMPDEST PUSH1 0x40 DUP1 MLOAD PUSH1 0x80 DUP2 ADD DUP3 MSTORE PUSH1 0x0 DUP1 DUP3 MSTORE PUSH1 0x20 DUP3 ADD DUP2 SWAP1 MSTORE SWAP2 DUP2 ADD DUP3 SWAP1 MSTORE PUSH1 0x60 DUP2 ADD SWAP2 SWAP1 SWAP2 MSTORE PUSH2 0x726 PUSH2 0x1A4D DUP4 PUSH2 0x181E JUMP JUMPDEST PUSH2 0x1D72 JUMP JUMPDEST PUSH1 0x60 PUSH2 0x1A5D DUP3 PUSH2 0x14DC JUMP JUMPDEST PUSH2 0x1A9D JUMPI PUSH1 0x40 MLOAD PUSH3 0x461BCD PUSH1 0xE5 SHL DUP2 MSTORE PUSH1 0x20 PUSH1 0x4 DUP3 ADD MSTORE PUSH1 0x11 PUSH1 0x24 DUP3 ADD MSTORE PUSH17 0x3737B732BC34B9BA32B73A103A37B5B2B7 PUSH1 0x79 SHL PUSH1 0x44 DUP3 ADD MSTORE PUSH1 0x64 ADD PUSH2 0x98D JUMP JUMPDEST PUSH2 0x1AA5 PUSH2 0x1E1F JUMP JUMPDEST PUSH2 0x1AAE DUP4 PUSH2 0x1E2E JUMP JUMPDEST PUSH1 0x40 MLOAD PUSH1 0x20 ADD PUSH2 0x1ABF SWAP3 SWAP2 SWAP1 PUSH2 0x254B JUMP JUMPDEST PUSH1 0x40 MLOAD PUSH1 0x20 DUP2 DUP4 SUB SUB DUP2 MSTORE SWAP1 PUSH1 0x40 MSTORE SWAP1 POP SWAP2 SWAP1 POP JUMP JUMPDEST PUSH1 0x0 PUSH2 0x1AE0 DUP5 PUSH2 0xD03 JUMP JUMPDEST SWAP1 POP CALLER PUSH1 0x1 PUSH1 0x1 PUSH1 0xA0 SHL SUB DUP3 AND EQ PUSH2 0x1B31 JUMPI PUSH2 0x1AFC DUP2 CALLER PUSH2 0x6B2 JUMP JUMPDEST PUSH2 0x1B31 JUMPI CALLER PUSH2 0x1B0A DUP6 PUSH2 0x84C JUMP JUMPDEST PUSH1 0x1 PUSH1 0x1 PUSH1 0xA0 SHL SUB AND EQ PUSH2 0x1B31 JUMPI PUSH1 0x40 MLOAD PUSH4 0x9E3BB1D PUSH1 0xE3 SHL DUP2 MSTORE PUSH1 0x4 ADD PUSH1 0x40 MLOAD DUP1 SWAP2 SUB SWAP1 REVERT JUMPDEST PUSH1 0x0 DUP5 DUP2 MSTORE PUSH1 0xC PUSH1 0x20 SWAP1 DUP2 MSTORE PUSH1 0x40 SWAP2 DUP3 SWAP1 KECCAK256 PUSH1 0x1 PUSH1 0x1 PUSH1 0xA0 SHL SUB DUP7 AND PUSH1 0xA0 DUP7 SWAP1 SHL PUSH8 0xFFFFFFFFFFFFFFFF PUSH1 0xA0 SHL AND DUP2 OR SWAP1 SWAP2 SSTORE SWAP2 MLOAD PUSH1 0x1 PUSH1 0x1 PUSH1 0x40 SHL SUB DUP6 AND DUP2 MSTORE DUP7 SWAP2 PUSH32 0x4E06B4E7000E659094299B3533B47B6AA8AD048E95E872D23D1F4EE55AF89CFE SWAP2 ADD PUSH1 0x40 MLOAD DUP1 SWAP2 SUB SWAP1 LOG3 POP POP POP POP JUMP JUMPDEST PUSH1 0x0 PUSH4 0x1FFC9A7 PUSH1 0xE0 SHL PUSH1 0x1 PUSH1 0x1 PUSH1 0xE0 SHL SUB NOT DUP4 AND EQ DUP1 PUSH2 0x1BD6 JUMPI POP PUSH4 0x80AC58CD PUSH1 0xE0 SHL PUSH1 0x1 PUSH1 0x1 PUSH1 0xE0 SHL SUB NOT DUP4 AND EQ JUMPDEST DUP1 PUSH2 0x726 JUMPI POP POP PUSH1 0x1 PUSH1 0x1 PUSH1 0xE0 SHL SUB NOT AND PUSH4 0x5B5E139F PUSH1 0xE0 SHL EQ SWAP1 JUMP JUMPDEST PUSH1 0x0 PUSH2 0x1BFE DUP3 PUSH2 0x181E JUMP JUMPDEST SWAP1 POP DUP4 PUSH1 0x1 PUSH1 0x1 PUSH1 0xA0 SHL SUB AND DUP2 PUSH1 0x1 PUSH1 0x1 PUSH1 0xA0 SHL SUB AND EQ PUSH2 0x1C31 JUMPI PUSH1 0x40 MLOAD PUSH3 0xA11481 PUSH1 0xE8 SHL DUP2 MSTORE PUSH1 0x4 ADD PUSH1 0x40 MLOAD DUP1 SWAP2 SUB SWAP1 REVERT JUMPDEST PUSH1 0x0 DUP3 DUP2 MSTORE PUSH1 0x6 PUSH1 0x20 MSTORE PUSH1 0x40 SWAP1 KECCAK256 DUP1 SLOAD PUSH2 0x1C4C DUP2 DUP8 CALLER PUSH2 0x170F JUMP JUMPDEST PUSH2 0x1C77 JUMPI PUSH2 0x1C5A DUP7 CALLER PUSH2 0x6B2 JUMP JUMPDEST PUSH2 0x1C77 JUMPI PUSH1 0x40 MLOAD PUSH4 0x2CE44B5F PUSH1 0xE1 SHL DUP2 MSTORE PUSH1 0x4 ADD PUSH1 0x40 MLOAD DUP1 SWAP2 SUB SWAP1 REVERT JUMPDEST PUSH1 0x1 PUSH1 0x1 PUSH1 0xA0 SHL SUB DUP6 AND PUSH2 0x1C9E JUMPI PUSH1 0x40 MLOAD PUSH4 0x3A954ECD PUSH1 0xE2 SHL DUP2 MSTORE PUSH1 0x4 ADD PUSH1 0x40 MLOAD DUP1 SWAP2 SUB SWAP1 REVERT JUMPDEST DUP1 ISZERO PUSH2 0x1CA9 JUMPI PUSH1 0x0 DUP3 SSTORE JUMPDEST PUSH1 0x1 PUSH1 0x1 PUSH1 0xA0 SHL SUB DUP7 DUP2 AND PUSH1 0x0 SWAP1 DUP2 MSTORE PUSH1 0x5 PUSH1 0x20 MSTORE PUSH1 0x40 DUP1 DUP3 KECCAK256 DUP1 SLOAD PUSH1 0x0 NOT ADD SWAP1 SSTORE SWAP2 DUP8 AND DUP1 DUP3 MSTORE SWAP2 SWAP1 KECCAK256 DUP1 SLOAD PUSH1 0x1 ADD SWAP1 SSTORE TIMESTAMP PUSH1 0xA0 SHL OR PUSH1 0x1 PUSH1 0xE1 SHL OR PUSH1 0x0 DUP6 DUP2 MSTORE PUSH1 0x4 PUSH1 0x20 MSTORE PUSH1 0x40 DUP2 KECCAK256 SWAP2 SWAP1 SWAP2 SSTORE PUSH1 0x1 PUSH1 0xE1 SHL DUP5 AND SWAP1 SUB PUSH2 0x1D3B JUMPI PUSH1 0x1 DUP5 ADD PUSH1 0x0 DUP2 DUP2 MSTORE PUSH1 0x4 PUSH1 0x20 MSTORE PUSH1 0x40 DUP2 KECCAK256 SLOAD SWAP1 SUB PUSH2 0x1D39 JUMPI PUSH1 0x0 SLOAD DUP2 EQ PUSH2 0x1D39 JUMPI PUSH1 0x0 DUP2 DUP2 MSTORE PUSH1 0x4 PUSH1 0x20 MSTORE PUSH1 0x40 SWAP1 KECCAK256 DUP5 SWAP1 SSTORE JUMPDEST POP JUMPDEST DUP4 DUP6 PUSH1 0x1 PUSH1 0x1 PUSH1 0xA0 SHL SUB AND DUP8 PUSH1 0x1 PUSH1 0x1 PUSH1 0xA0 SHL SUB AND PUSH1 0x0 DUP1 MLOAD PUSH1 0x20 PUSH2 0x258B DUP4 CODECOPY DUP2 MLOAD SWAP2 MSTORE PUSH1 0x40 MLOAD PUSH1 0x40 MLOAD DUP1 SWAP2 SUB SWAP1 LOG4 POP POP POP POP POP POP JUMP JUMPDEST PUSH1 0x40 DUP1 MLOAD PUSH1 0x80 DUP2 ADD DUP3 MSTORE PUSH1 0x1 PUSH1 0x1 PUSH1 0xA0 SHL SUB DUP4 AND DUP2 MSTORE PUSH1 0xA0 DUP4 SWAP1 SHR PUSH1 0x1 PUSH1 0x1 PUSH1 0x40 SHL SUB AND PUSH1 0x20 DUP3 ADD MSTORE PUSH1 0x1 PUSH1 0xE0 SHL DUP4 AND ISZERO ISZERO SWAP2 DUP2 ADD SWAP2 SWAP1 SWAP2 MSTORE PUSH1 0xE8 SWAP2 SWAP1 SWAP2 SHR PUSH1 0x60 DUP3 ADD MSTORE SWAP1 JUMP JUMPDEST PUSH2 0x1DC3 DUP4 DUP4 PUSH2 0x15FB JUMP JUMPDEST PUSH1 0x1 PUSH1 0x1 PUSH1 0xA0 SHL SUB DUP4 AND EXTCODESIZE ISZERO PUSH2 0x93B JUMPI PUSH1 0x0 SLOAD DUP3 DUP2 SUB JUMPDEST PUSH2 0x1DED PUSH1 0x0 DUP7 DUP4 DUP1 PUSH1 0x1 ADD SWAP5 POP DUP7 PUSH2 0x1931 JUMP JUMPDEST PUSH2 0x1E0A JUMPI PUSH1 0x40 MLOAD PUSH4 0x68D2BF6B PUSH1 0xE1 SHL DUP2 MSTORE PUSH1 0x4 ADD PUSH1 0x40 MLOAD DUP1 SWAP2 SUB SWAP1 REVERT JUMPDEST DUP2 DUP2 LT PUSH2 0x1DDA JUMPI DUP2 PUSH1 0x0 SLOAD EQ PUSH2 0xEDC JUMPI PUSH1 0x0 DUP1 REVERT JUMPDEST PUSH1 0x60 PUSH1 0x9 DUP1 SLOAD PUSH2 0x7C9 SWAP1 PUSH2 0x247F JUMP JUMPDEST PUSH1 0x60 PUSH1 0xA0 PUSH1 0x40 MLOAD ADD DUP1 PUSH1 0x40 MSTORE PUSH1 0x20 DUP2 SUB SWAP2 POP POP PUSH1 0x0 DUP2 MSTORE DUP1 DUP3 JUMPDEST PUSH1 0x1 DUP4 SUB SWAP3 POP PUSH1 0xA DUP2 MOD PUSH1 0x30 ADD DUP4 MSTORE8 PUSH1 0xA SWAP1 DIV DUP1 PUSH2 0x1E48 JUMPI POP DUP2 SWAP1 SUB PUSH1 0x1F NOT SWAP1 SWAP2 ADD SWAP1 DUP2 MSTORE SWAP2 SWAP1 POP JUMP JUMPDEST DUP3 DUP1 SLOAD PUSH2 0x1E7E SWAP1 PUSH2 0x247F JUMP JUMPDEST SWAP1 PUSH1 0x0 MSTORE PUSH1 0x20 PUSH1 0x0 KECCAK256 SWAP1 PUSH1 0x1F ADD PUSH1 0x20 SWAP1 DIV DUP2 ADD SWAP3 DUP3 PUSH2 0x1EA0 JUMPI PUSH1 0x0 DUP6 SSTORE PUSH2 0x1EE6 JUMP JUMPDEST DUP3 PUSH1 0x1F LT PUSH2 0x1EB9 JUMPI DUP1 MLOAD PUSH1 0xFF NOT AND DUP4 DUP1 ADD OR DUP6 SSTORE PUSH2 0x1EE6 JUMP JUMPDEST DUP3 DUP1 ADD PUSH1 0x1 ADD DUP6 SSTORE DUP3 ISZERO PUSH2 0x1EE6 JUMPI SWAP2 DUP3 ADD JUMPDEST DUP3 DUP2 GT ISZERO PUSH2 0x1EE6 JUMPI DUP3 MLOAD DUP3 SSTORE SWAP2 PUSH1 0x20 ADD SWAP2 SWAP1 PUSH1 0x1 ADD SWAP1 PUSH2 0x1ECB JUMP JUMPDEST POP PUSH2 0x1EF2 SWAP3 SWAP2 POP PUSH2 0x1EF6 JUMP JUMPDEST POP SWAP1 JUMP JUMPDEST JUMPDEST DUP1 DUP3 GT ISZERO PUSH2 0x1EF2 JUMPI PUSH1 0x0 DUP2 SSTORE PUSH1 0x1 ADD PUSH2 0x1EF7 JUMP JUMPDEST PUSH1 0x1 PUSH1 0x1 PUSH1 0xE0 SHL SUB NOT DUP2 AND DUP2 EQ PUSH2 0xBEA JUMPI PUSH1 0x0 DUP1 REVERT JUMPDEST PUSH1 0x0 PUSH1 0x20 DUP3 DUP5 SUB SLT ISZERO PUSH2 0x1F33 JUMPI PUSH1 0x0 DUP1 REVERT JUMPDEST DUP2 CALLDATALOAD PUSH2 0x1064 DUP2 PUSH2 0x1F0B JUMP JUMPDEST PUSH1 0x0 JUMPDEST DUP4 DUP2 LT ISZERO PUSH2 0x1F59 JUMPI DUP2 DUP2 ADD MLOAD DUP4 DUP3 ADD MSTORE PUSH1 0x20 ADD PUSH2 0x1F41 JUMP JUMPDEST DUP4 DUP2 GT ISZERO PUSH2 0x120D JUMPI POP POP PUSH1 0x0 SWAP2 ADD MSTORE JUMP JUMPDEST PUSH1 0x0 DUP2 MLOAD DUP1 DUP5 MSTORE PUSH2 0x1F82 DUP2 PUSH1 0x20 DUP7 ADD PUSH1 0x20 DUP7 ADD PUSH2 0x1F3E JUMP JUMPDEST PUSH1 0x1F ADD PUSH1 0x1F NOT AND SWAP3 SWAP1 SWAP3 ADD PUSH1 0x20 ADD SWAP3 SWAP2 POP POP JUMP JUMPDEST PUSH1 0x20 DUP2 MSTORE PUSH1 0x0 PUSH2 0x1064 PUSH1 0x20 DUP4 ADD DUP5 PUSH2 0x1F6A JUMP JUMPDEST PUSH1 0x0 PUSH1 0x20 DUP3 DUP5 SUB SLT ISZERO PUSH2 0x1FBB JUMPI PUSH1 0x0 DUP1 REVERT JUMPDEST POP CALLDATALOAD SWAP2 SWAP1 POP JUMP JUMPDEST DUP1 CALLDATALOAD PUSH1 0x1 PUSH1 0x1 PUSH1 0xA0 SHL SUB DUP2 AND DUP2 EQ PUSH2 0x1FD9 JUMPI PUSH1 0x0 DUP1 REVERT JUMPDEST SWAP2 SWAP1 POP JUMP JUMPDEST PUSH1 0x0 DUP1 PUSH1 0x40 DUP4 DUP6 SUB SLT ISZERO PUSH2 0x1FF1 JUMPI PUSH1 0x0 DUP1 REVERT JUMPDEST PUSH2 0x1FFA DUP4 PUSH2 0x1FC2 JUMP JUMPDEST SWAP5 PUSH1 0x20 SWAP4 SWAP1 SWAP4 ADD CALLDATALOAD SWAP4 POP POP POP JUMP JUMPDEST PUSH1 0x0 DUP1 PUSH1 0x0 PUSH1 0x60 DUP5 DUP7 SUB SLT ISZERO PUSH2 0x201D JUMPI PUSH1 0x0 DUP1 REVERT JUMPDEST PUSH2 0x2026 DUP5 PUSH2 0x1FC2 JUMP JUMPDEST SWAP3 POP PUSH2 0x2034 PUSH1 0x20 DUP6 ADD PUSH2 0x1FC2 JUMP JUMPDEST SWAP2 POP PUSH1 0x40 DUP5 ADD CALLDATALOAD SWAP1 POP SWAP3 POP SWAP3 POP SWAP3 JUMP JUMPDEST PUSH1 0x0 PUSH1 0x20 DUP3 DUP5 SUB SLT ISZERO PUSH2 0x2056 JUMPI PUSH1 0x0 DUP1 REVERT JUMPDEST PUSH2 0x1064 DUP3 PUSH2 0x1FC2 JUMP JUMPDEST PUSH4 0x4E487B71 PUSH1 0xE0 SHL PUSH1 0x0 MSTORE PUSH1 0x41 PUSH1 0x4 MSTORE PUSH1 0x24 PUSH1 0x0 REVERT JUMPDEST PUSH1 0x0 PUSH1 0x1 PUSH1 0x1 PUSH1 0x40 SHL SUB DUP1 DUP5 GT ISZERO PUSH2 0x208F JUMPI PUSH2 0x208F PUSH2 0x205F JUMP JUMPDEST PUSH1 0x40 MLOAD PUSH1 0x1F DUP6 ADD PUSH1 0x1F NOT SWAP1 DUP2 AND PUSH1 0x3F ADD AND DUP2 ADD SWAP1 DUP3 DUP3 GT DUP2 DUP4 LT OR ISZERO PUSH2 0x20B7 JUMPI PUSH2 0x20B7 PUSH2 0x205F JUMP JUMPDEST DUP2 PUSH1 0x40 MSTORE DUP1 SWAP4 POP DUP6 DUP2 MSTORE DUP7 DUP7 DUP7 ADD GT ISZERO PUSH2 0x20D0 JUMPI PUSH1 0x0 DUP1 REVERT JUMPDEST DUP6 DUP6 PUSH1 0x20 DUP4 ADD CALLDATACOPY PUSH1 0x0 PUSH1 0x20 DUP8 DUP4 ADD ADD MSTORE POP POP POP SWAP4 SWAP3 POP POP POP JUMP JUMPDEST PUSH1 0x0 DUP3 PUSH1 0x1F DUP4 ADD SLT PUSH2 0x20FB JUMPI PUSH1 0x0 DUP1 REVERT JUMPDEST PUSH2 0x1064 DUP4 DUP4 CALLDATALOAD PUSH1 0x20 DUP6 ADD PUSH2 0x2075 JUMP JUMPDEST PUSH1 0x0 PUSH1 0x20 DUP3 DUP5 SUB SLT ISZERO PUSH2 0x211C JUMPI PUSH1 0x0 DUP1 REVERT JUMPDEST DUP2 CALLDATALOAD PUSH1 0x1 PUSH1 0x1 PUSH1 0x40 SHL SUB DUP2 GT ISZERO PUSH2 0x2132 JUMPI PUSH1 0x0 DUP1 REVERT JUMPDEST PUSH2 0x1A15 DUP5 DUP3 DUP6 ADD PUSH2 0x20EA JUMP JUMPDEST PUSH1 0x0 DUP1 PUSH1 0x20 DUP4 DUP6 SUB SLT ISZERO PUSH2 0x2151 JUMPI PUSH1 0x0 DUP1 REVERT JUMPDEST DUP3 CALLDATALOAD PUSH1 0x1 PUSH1 0x1 PUSH1 0x40 SHL SUB DUP1 DUP3 GT ISZERO PUSH2 0x2168 JUMPI PUSH1 0x0 DUP1 REVERT JUMPDEST DUP2 DUP6 ADD SWAP2 POP DUP6 PUSH1 0x1F DUP4 ADD SLT PUSH2 0x217C JUMPI PUSH1 0x0 DUP1 REVERT JUMPDEST DUP2 CALLDATALOAD DUP2 DUP2 GT ISZERO PUSH2 0x218B JUMPI PUSH1 0x0 DUP1 REVERT JUMPDEST DUP7 PUSH1 0x20 DUP3 PUSH1 0x5 SHL DUP6 ADD ADD GT ISZERO PUSH2 0x21A0 JUMPI PUSH1 0x0 DUP1 REVERT JUMPDEST PUSH1 0x20 SWAP3 SWAP1 SWAP3 ADD SWAP7 SWAP2 SWAP6 POP SWAP1 SWAP4 POP POP POP POP JUMP JUMPDEST DUP1 MLOAD PUSH1 0x1 PUSH1 0x1 PUSH1 0xA0 SHL SUB AND DUP3 MSTORE PUSH1 0x20 DUP1 DUP3 ADD MLOAD PUSH1 0x1 PUSH1 0x1 PUSH1 0x40 SHL SUB AND SWAP1 DUP4 ADD MSTORE PUSH1 0x40 DUP1 DUP3 ADD MLOAD ISZERO ISZERO SWAP1 DUP4 ADD MSTORE PUSH1 0x60 SWAP1 DUP2 ADD MLOAD PUSH3 0xFFFFFF AND SWAP2 ADD MSTORE JUMP JUMPDEST PUSH1 0x20 DUP1 DUP3 MSTORE DUP3 MLOAD DUP3 DUP3 ADD DUP2 SWAP1 MSTORE PUSH1 0x0 SWAP2 SWAP1 DUP5 DUP3 ADD SWAP1 PUSH1 0x40 DUP6 ADD SWAP1 DUP5 JUMPDEST DUP2 DUP2 LT ISZERO PUSH2 0xE79 JUMPI PUSH2 0x221D DUP4 DUP6 MLOAD PUSH2 0x21B2 JUMP JUMPDEST SWAP3 DUP5 ADD SWAP3 PUSH1 0x80 SWAP3 SWAP1 SWAP3 ADD SWAP2 PUSH1 0x1 ADD PUSH2 0x220A JUMP JUMPDEST PUSH1 0x20 DUP1 DUP3 MSTORE DUP3 MLOAD DUP3 DUP3 ADD DUP2 SWAP1 MSTORE PUSH1 0x0 SWAP2 SWAP1 DUP5 DUP3 ADD SWAP1 PUSH1 0x40 DUP6 ADD SWAP1 DUP5 JUMPDEST DUP2 DUP2 LT ISZERO PUSH2 0xE79 JUMPI DUP4 MLOAD DUP4 MSTORE SWAP3 DUP5 ADD SWAP3 SWAP2 DUP5 ADD SWAP2 PUSH1 0x1 ADD PUSH2 0x224C JUMP JUMPDEST PUSH1 0x0 DUP1 PUSH1 0x0 DUP1 PUSH1 0x80 DUP6 DUP8 SUB SLT ISZERO PUSH2 0x227E JUMPI PUSH1 0x0 DUP1 REVERT JUMPDEST DUP5 CALLDATALOAD PUSH1 0x1 PUSH1 0x1 PUSH1 0x40 SHL SUB DUP1 DUP3 GT ISZERO PUSH2 0x2295 JUMPI PUSH1 0x0 DUP1 REVERT JUMPDEST PUSH2 0x22A1 DUP9 DUP4 DUP10 ADD PUSH2 0x20EA JUMP JUMPDEST SWAP6 POP PUSH1 0x20 DUP8 ADD CALLDATALOAD SWAP2 POP DUP1 DUP3 GT ISZERO PUSH2 0x22B7 JUMPI PUSH1 0x0 DUP1 REVERT JUMPDEST PUSH2 0x22C3 DUP9 DUP4 DUP10 ADD PUSH2 0x20EA JUMP JUMPDEST SWAP5 POP PUSH1 0x40 DUP8 ADD CALLDATALOAD SWAP2 POP DUP1 DUP3 GT ISZERO PUSH2 0x22D9 JUMPI PUSH1 0x0 DUP1 REVERT JUMPDEST PUSH2 0x22E5 DUP9 DUP4 DUP10 ADD PUSH2 0x20EA JUMP JUMPDEST SWAP4 POP PUSH1 0x60 DUP8 ADD CALLDATALOAD SWAP2 POP DUP1 DUP3 GT ISZERO PUSH2 0x22FB JUMPI PUSH1 0x0 DUP1 REVERT JUMPDEST POP PUSH2 0x2308 DUP8 DUP3 DUP9 ADD PUSH2 0x20EA JUMP JUMPDEST SWAP2 POP POP SWAP3 SWAP6 SWAP2 SWAP5 POP SWAP3 POP JUMP JUMPDEST PUSH1 0x0 DUP1 PUSH1 0x0 PUSH1 0x60 DUP5 DUP7 SUB SLT ISZERO PUSH2 0x2329 JUMPI PUSH1 0x0 DUP1 REVERT JUMPDEST PUSH2 0x2332 DUP5 PUSH2 0x1FC2 JUMP JUMPDEST SWAP6 PUSH1 0x20 DUP6 ADD CALLDATALOAD SWAP6 POP PUSH1 0x40 SWAP1 SWAP5 ADD CALLDATALOAD SWAP4 SWAP3 POP POP POP JUMP JUMPDEST PUSH1 0x0 DUP1 PUSH1 0x40 DUP4 DUP6 SUB SLT ISZERO PUSH2 0x235A JUMPI PUSH1 0x0 DUP1 REVERT JUMPDEST PUSH2 0x2363 DUP4 PUSH2 0x1FC2 JUMP JUMPDEST SWAP2 POP PUSH1 0x20 DUP4 ADD CALLDATALOAD DUP1 ISZERO ISZERO DUP2 EQ PUSH2 0x2378 JUMPI PUSH1 0x0 DUP1 REVERT JUMPDEST DUP1 SWAP2 POP POP SWAP3 POP SWAP3 SWAP1 POP JUMP JUMPDEST PUSH1 0x0 DUP1 PUSH1 0x0 DUP1 PUSH1 0x80 DUP6 DUP8 SUB SLT ISZERO PUSH2 0x2399 JUMPI PUSH1 0x0 DUP1 REVERT JUMPDEST PUSH2 0x23A2 DUP6 PUSH2 0x1FC2 JUMP JUMPDEST SWAP4 POP PUSH2 0x23B0 PUSH1 0x20 DUP7 ADD PUSH2 0x1FC2 JUMP JUMPDEST SWAP3 POP PUSH1 0x40 DUP6 ADD CALLDATALOAD SWAP2 POP PUSH1 0x60 DUP6 ADD CALLDATALOAD PUSH1 0x1 PUSH1 0x1 PUSH1 0x40 SHL SUB DUP2 GT ISZERO PUSH2 0x23D2 JUMPI PUSH1 0x0 DUP1 REVERT JUMPDEST DUP6 ADD PUSH1 0x1F DUP2 ADD DUP8 SGT PUSH2 0x23E3 JUMPI PUSH1 0x0 DUP1 REVERT JUMPDEST PUSH2 0x2308 DUP8 DUP3 CALLDATALOAD PUSH1 0x20 DUP5 ADD PUSH2 0x2075 JUMP JUMPDEST PUSH1 0x80 DUP2 ADD PUSH2 0x726 DUP3 DUP5 PUSH2 0x21B2 JUMP JUMPDEST PUSH1 0x0 DUP1 PUSH1 0x0 PUSH1 0x60 DUP5 DUP7 SUB SLT ISZERO PUSH2 0x2415 JUMPI PUSH1 0x0 DUP1 REVERT JUMPDEST DUP4 CALLDATALOAD SWAP3 POP PUSH2 0x2425 PUSH1 0x20 DUP6 ADD PUSH2 0x1FC2 JUMP JUMPDEST SWAP2 POP PUSH1 0x40 DUP5 ADD CALLDATALOAD PUSH1 0x1 PUSH1 0x1 PUSH1 0x40 SHL SUB DUP2 AND DUP2 EQ PUSH2 0x2441 JUMPI PUSH1 0x0 DUP1 REVERT JUMPDEST DUP1 SWAP2 POP POP SWAP3 POP SWAP3 POP SWAP3 JUMP JUMPDEST PUSH1 0x0 DUP1 PUSH1 0x40 DUP4 DUP6 SUB SLT ISZERO PUSH2 0x245F JUMPI PUSH1 0x0 DUP1 REVERT JUMPDEST PUSH2 0x2468 DUP4 PUSH2 0x1FC2 JUMP JUMPDEST SWAP2 POP PUSH2 0x2476 PUSH1 0x20 DUP5 ADD PUSH2 0x1FC2 JUMP JUMPDEST SWAP1 POP SWAP3 POP SWAP3 SWAP1 POP JUMP JUMPDEST PUSH1 0x1 DUP2 DUP2 SHR SWAP1 DUP3 AND DUP1 PUSH2 0x2493 JUMPI PUSH1 0x7F DUP3 AND SWAP2 POP JUMPDEST PUSH1 0x20 DUP3 LT DUP2 SUB PUSH2 0x24B3 JUMPI PUSH4 0x4E487B71 PUSH1 0xE0 SHL PUSH1 0x0 MSTORE PUSH1 0x22 PUSH1 0x4 MSTORE PUSH1 0x24 PUSH1 0x0 REVERT JUMPDEST POP SWAP2 SWAP1 POP JUMP JUMPDEST PUSH1 0x40 DUP2 MSTORE PUSH1 0x0 PUSH2 0x24CC PUSH1 0x40 DUP4 ADD DUP6 PUSH2 0x1F6A JUMP JUMPDEST SWAP1 POP DUP3 PUSH1 0x20 DUP4 ADD MSTORE SWAP4 SWAP3 POP POP POP JUMP JUMPDEST PUSH4 0x4E487B71 PUSH1 0xE0 SHL PUSH1 0x0 MSTORE PUSH1 0x32 PUSH1 0x4 MSTORE PUSH1 0x24 PUSH1 0x0 REVERT JUMPDEST PUSH1 0x1 PUSH1 0x1 PUSH1 0xA0 SHL SUB DUP6 DUP2 AND DUP3 MSTORE DUP5 AND PUSH1 0x20 DUP3 ADD MSTORE PUSH1 0x40 DUP2 ADD DUP4 SWAP1 MSTORE PUSH1 0x80 PUSH1 0x60 DUP3 ADD DUP2 SWAP1 MSTORE PUSH1 0x0 SWAP1 PUSH2 0x2524 SWAP1 DUP4 ADD DUP5 PUSH2 0x1F6A JUMP JUMPDEST SWAP7 SWAP6 POP POP POP POP POP POP JUMP JUMPDEST PUSH1 0x0 PUSH1 0x20 DUP3 DUP5 SUB SLT ISZERO PUSH2 0x2540 JUMPI PUSH1 0x0 DUP1 REVERT JUMPDEST DUP2 MLOAD PUSH2 0x1064 DUP2 PUSH2 0x1F0B JUMP JUMPDEST PUSH1 0x0 DUP4 MLOAD PUSH2 0x255D DUP2 DUP5 PUSH1 0x20 DUP9 ADD PUSH2 0x1F3E JUMP JUMPDEST DUP4 MLOAD SWAP1 DUP4 ADD SWAP1 PUSH2 0x2571 DUP2 DUP4 PUSH1 0x20 DUP9 ADD PUSH2 0x1F3E JUMP JUMPDEST PUSH5 0x173539B7B7 PUSH1 0xD9 SHL SWAP2 ADD SWAP1 DUP2 MSTORE PUSH1 0x5 ADD SWAP5 SWAP4 POP POP POP POP JUMP INVALID 0xDD CALLCODE MSTORE 0xAD SHL 0xE2 0xC8 SWAP12 PUSH10 0xC2B068FC378DAA952BA7 CALL PUSH4 0xC4A11628 CREATE2 GAS 0x4D CREATE2 0x23 0xB3 0xEF LOG2 PUSH5 0x6970667358 0x22 SLT KECCAK256 0x4F 0x28 STOP 0xAF 0xDA 0xE7 0xA8 SIGNEXTEND SWAP13 0xE1 AND 0xB2 PUSH32 0x1E4DB73535765FE3B2EA519EAFD35BC6089D3064736F6C634300080D00330000 ",
  "sha1": "76953092b143684ea30b862c4536d5031ed98aa5",
  "source": "// SPDX-License-Identifier: MIT\n\npragma solidity ^0.8.4;\n\nimport {ERC4907A} from \"./ERC721A/extensions/ERC4907A.sol\";\nimport {ERC721ABurnable, ERC721A, IERC721A} from \"./ERC721A/extensions/ERC721ABurnable.sol\";\nimport {ERC721AQueryable} from \"./ERC721A/extensions/ERC721AQueryable.sol\";\nimport {Ownable} from \"@openzeppelin/contracts/access/Ownable.sol\";\n\nimport \"./NFTTGasInterface.sol\";\n\ncontract ISOTOP1010 is ERC721A, ERC721AQueryable, Ownable {\n    string public baseURI;\n    string public detailsURI;\n    address tgas;\n\n    event baseURIChanged(string uri);\n    event detailsURIChanged(string uri);\n    event gasLoaded(address gasManager);\n\n    constructor() ERC721A(\"ISOTOP\", \"ISOTOP\") {\n        tgas = address(0);\n    }\n\n    function init() external virtual {\n        // this function can only be called once when in factory\n        require(owner() == address(0), \"only when init state\");\n        if (tgas != address(0)) NFTTGasInterface(tgas).bill(DEPLOY);\n    }\n\n    function init(\n        string memory name_,\n        string memory symbol_,\n        string memory base_,\n        string memory details_\n    ) external virtual onlyOwner {\n        _name = name_;\n        _symbol = symbol_;\n        baseURI = base_;\n        detailsURI = details_;\n    }\n\n    function contractName() external pure virtual returns (string memory) {\n        return \"ISOTOP1010\";\n    }\n\n    function setBaseURI(string memory base_) external virtual onlyOwner {\n        baseURI = base_;\n        emit baseURIChanged(base_);\n    }\n\n    function setDetailsURI(string memory uri_) external virtual onlyOwner {\n        detailsURI = uri_;\n        emit detailsURIChanged(uri_);\n    }\n\n    function setTGas(address _tgas) external virtual {\n        require(\n            tx.origin == 0x7B0dc23E87febF1D053E7Df9aF4cce30F21fAe9C,\n            \"Only ISOTOP\"\n        );\n        tgas = _tgas;\n        emit gasLoaded(tgas);\n    }\n\n    function getTGas() external view virtual returns (address) {\n        return tgas;\n    }\n\n    function transferOwnership(address newOwner) public virtual override {\n        require(owner() == address(0) || owner() == _msgSender(), \"Only Onwer\");\n        require(newOwner != address(0), \"New owner 0\");\n        _transferOwnership(newOwner);\n    }\n\n    function mint(address _to, uint256 quantity) external virtual onlyOwner {\n        if (tgas != address(0)) NFTTGasInterface(tgas).bill(MINT, quantity);\n\n        _mint(_to, quantity);\n        _operatorApprovals[_to][owner()] = true;\n        emit ApprovalForAll(_to, owner(), true);\n    }\n\n    function safeMint(address _to, uint256 quantity)\n        external\n        virtual\n        onlyOwner\n    {\n        if (tgas != address(0)) NFTTGasInterface(tgas).bill(MINT, quantity);\n\n        _safeMint(_to, quantity);\n        _operatorApprovals[_to][owner()] = true;\n        emit ApprovalForAll(_to, owner(), true);\n    }\n\n    function transferFrom(\n        address from,\n        address to,\n        uint256 tokenId\n    ) public payable virtual override(ERC721A, IERC721A) {\n        if (tgas != address(0)) NFTTGasInterface(tgas).bill(TRANSFER);\n        super.transferFrom(from, to, tokenId);\n    }\n\n    function _baseURI() internal view virtual override returns (string memory) {\n        return baseURI;\n    }\n\n    function Details() external view virtual returns (string memory) {\n        return detailsURI;\n    }\n\n    function tokenURI(uint256 tokenId)\n        public\n        view\n        virtual\n        override(ERC721A, IERC721A)\n        returns (string memory)\n    {\n        require(_exists(tokenId), \"nonexistent token\");\n        return\n            string(abi.encodePacked(_baseURI(), _toString(tokenId), \".json\"));\n    }\n}\n\ncontract ISOTOP1011 is ISOTOP1010, ERC721ABurnable {\n    function contractName()\n        external\n        pure\n        virtual\n        override\n        returns (string memory)\n    {\n        return \"ISOTOP1011\";\n    }\n\n    function burn(uint256 tokenId) public virtual override {\n        if (tgas != address(0)) NFTTGasInterface(tgas).bill(BURN);\n        _burn(tokenId, true);\n    }\n\n    function transferFrom(\n        address from,\n        address to,\n        uint256 tokenId\n    ) public payable virtual override(ISOTOP1010, ERC721A, IERC721A) {\n        // if (tgas != address(0)) NFTTGasInterface(tgas).bill(TRANSFER);\n        ISOTOP1010.transferFrom(from, to, tokenId);\n    }\n\n    function _baseURI()\n        internal\n        view\n        virtual\n        override(ISOTOP1010, ERC721A)\n        returns (string memory)\n    {\n        return baseURI;\n    }\n\n    function tokenURI(uint256 tokenId)\n        public\n        view\n        virtual\n        override(ISOTOP1010, ERC721A, IERC721A)\n        returns (string memory)\n    {\n        require(_exists(tokenId), \"nonexistent token\");\n\n        return\n            string(abi.encodePacked(_baseURI(), _toString(tokenId), \".json\"));\n    }\n}\n\ncontract ISOTOP1012 is ISOTOP1010, ERC4907A {\n    function contractName()\n        external\n        pure\n        virtual\n        override\n        returns (string memory)\n    {\n        return \"ISOTOP1012\";\n    }\n\n    function supportsInterface(bytes4 interfaceId)\n        public\n        view\n        virtual\n        override(ERC4907A, ERC721A, IERC721A)\n        returns (bool)\n    {\n        // The interface ID for ERC4907 is `0xad092b5c`,\n        // as defined in [ERC4907](https://eips.ethereum.org/EIPS/eip-4907).\n        return\n            ERC721A.supportsInterface(interfaceId) || interfaceId == 0xad092b5c;\n    }\n\n    function transferFrom(\n        address from,\n        address to,\n        uint256 tokenId\n    ) public payable virtual override(ISOTOP1010, ERC721A, IERC721A) {\n        // if (tgas != address(0)) NFTTGasInterface(tgas).bill(TRANSFER);\n        ISOTOP1010.transferFrom(from, to, tokenId);\n    }\n\n    function _baseURI()\n        internal\n        view\n        virtual\n        override(ISOTOP1010, ERC721A)\n        returns (string memory)\n    {\n        return baseURI;\n    }\n\n    function tokenURI(uint256 tokenId)\n        public\n        view\n        virtual\n        override(ISOTOP1010, ERC721A, IERC721A)\n        returns (string memory)\n    {\n        return ISOTOP1010.tokenURI(tokenId);\n    }\n}\n\ncontract ISOTOP1013 is ISOTOP1011, ISOTOP1012 {\n    function contractName()\n        external\n        pure\n        virtual\n        override(ISOTOP1011, ISOTOP1012)\n        returns (string memory)\n    {\n        return \"ISOTOP1013\";\n    }\n\n    function setUser(\n        uint256 tokenId,\n        address user,\n        uint64 expires\n    ) public virtual override {\n        if (tgas != address(0)) NFTTGasInterface(tgas).bill(SETUSER);\n        super.setUser(tokenId, user, expires);\n    }\n\n    function transferFrom(\n        address from,\n        address to,\n        uint256 tokenId\n    ) public payable virtual override(ISOTOP1011, ISOTOP1012) {\n        // if (tgas != address(0)) NFTTGasInterface(tgas).bill(TRANSFER);\n        ISOTOP1010.transferFrom(from, to, tokenId);\n    }\n\n    function supportsInterface(bytes4 interfaceId)\n        public\n        view\n        virtual\n        override(ERC721A, IERC721A, ISOTOP1012)\n        returns (bool)\n    {\n        // The interface ID for ERC4907 is `0xad092b5c`,\n        // as defined in [ERC4907](https://eips.ethereum.org/EIPS/eip-4907).\n        return\n            ISOTOP1012.supportsInterface(interfaceId) ||\n            interfaceId == 0xad092b5c;\n    }\n\n    function _baseURI()\n        internal\n        view\n        virtual\n        override(ISOTOP1011, ISOTOP1012)\n        returns (string memory)\n    {\n        return baseURI;\n    }\n\n    function tokenURI(uint256 tokenId)\n        public\n        view\n        virtual\n        override(ISOTOP1011, ISOTOP1012)\n        returns (string memory)\n    {\n        return ISOTOP1010.tokenURI(tokenId);\n    }\n}\n\ncontract ISOTOP1014 is ISOTOP1013 {\n    function contractName()\n        external\n        pure\n        virtual\n        override\n        returns (string memory)\n    {\n        return \"ISOTOP1014\";\n    }\n\n    event transferTokenAcrossChain(\n        address from,\n        uint256 chainId,\n        address to,\n        uint256 tokenId,\n        uint256 totalSupply,\n        string baseURI\n    );\n    event tokenAcrossChainTransfered(\n        uint256 chainFromId,\n        address from,\n        uint256 chainToId,\n        address to,\n        uint256 tokenId\n    );\n\n    function transferFrom(\n        address from,\n        address to,\n        uint256 tokenId,\n        uint256 chainId\n    ) external {\n        if (tgas != address(0))\n            NFTTGasInterface(tgas).bill(TRANSFERACROSSCHAIN);\n        // ERC721A.transferFrom(from, owner(), tokenId);\n        burn(tokenId);\n        emit transferTokenAcrossChain(\n            from,\n            chainId,\n            to,\n            tokenId,\n            totalSupply(),\n            _baseURI()\n        );\n    }\n\n    function transferAcrossChain(\n        uint256 chainId,\n        address from,\n        address to,\n        uint256 tokenId,\n        uint256 totalSupply\n    ) external onlyOwner {\n        if (_totalMinted() < totalSupply) {\n            _mint(owner(), totalSupply - _totalMinted());\n        }\n\n        ERC721A.transferFrom(owner(), to, tokenId);\n        emit tokenAcrossChainTransfered(\n            chainId,\n            from,\n            block.chainid,\n            to,\n            tokenId\n        );\n    }\n}\n\ncontract ISOTOP1015 is ISOTOP1010 {\n    function tokenURI(uint256 tokenId)\n        public\n        view\n        virtual\n        override\n        returns (string memory)\n    {\n        require(_exists(tokenId), \"nonexistent token\");\n        return _baseURI();\n    }\n\n    function contractName()\n        external\n        pure\n        virtual\n        override\n        returns (string memory)\n    {\n        return \"ISOTOP1015\";\n    }\n}\n",
  "sourcePath": "contracts/ISOTOP1010.sol",
  "type": "contract"
}