{
  "abi": [
    {
      "inputs": [],
      "name": "ApprovalCallerNotOwnerNorApproved",
      "type": "error"
    },
    {
      "inputs": [],
      "name": "ApprovalQueryForNonexistentToken",
      "type": "error"
    },
    {
      "inputs": [],
      "name": "BalanceQueryForZeroAddress",
      "type": "error"
    },
    {
      "inputs": [],
      "name": "InvalidQueryRange",
      "type": "error"
    },
    {
      "inputs": [],
      "name": "MintERC2309QuantityExceedsLimit",
      "type": "error"
    },
    {
      "inputs": [],
      "name": "MintToZeroAddress",
      "type": "error"
    },
    {
      "inputs": [],
      "name": "MintZeroQuantity",
      "type": "error"
    },
    {
      "inputs": [],
      "name": "OwnerQueryForNonexistentToken",
      "type": "error"
    },
    {
      "inputs": [],
      "name": "OwnershipNotInitializedForExtraData",
      "type": "error"
    },
    {
      "inputs": [],
      "name": "TransferCallerNotOwnerNorApproved",
      "type": "error"
    },
    {
      "inputs": [],
      "name": "TransferFromIncorrectOwner",
      "type": "error"
    },
    {
      "inputs": [],
      "name": "TransferToNonERC721ReceiverImplementer",
      "type": "error"
    },
    {
      "inputs": [],
      "name": "TransferToZeroAddress",
      "type": "error"
    },
    {
      "inputs": [],
      "name": "URIQueryForNonexistentToken",
      "type": "error"
    },
    {
      "anonymous": false,
      "inputs": [
        {
          "indexed": true,
          "internalType": "address",
          "name": "owner",
          "type": "address"
        },
        {
          "indexed": true,
          "internalType": "address",
          "name": "approved",
          "type": "address"
        },
        {
          "indexed": true,
          "internalType": "uint256",
          "name": "tokenId",
          "type": "uint256"
        }
      ],
      "name": "Approval",
      "type": "event"
    },
    {
      "anonymous": false,
      "inputs": [
        {
          "indexed": true,
          "internalType": "address",
          "name": "owner",
          "type": "address"
        },
        {
          "indexed": true,
          "internalType": "address",
          "name": "operator",
          "type": "address"
        },
        {
          "indexed": false,
          "internalType": "bool",
          "name": "approved",
          "type": "bool"
        }
      ],
      "name": "ApprovalForAll",
      "type": "event"
    },
    {
      "anonymous": false,
      "inputs": [
        {
          "indexed": true,
          "internalType": "uint256",
          "name": "fromTokenId",
          "type": "uint256"
        },
        {
          "indexed": false,
          "internalType": "uint256",
          "name": "toTokenId",
          "type": "uint256"
        },
        {
          "indexed": true,
          "internalType": "address",
          "name": "from",
          "type": "address"
        },
        {
          "indexed": true,
          "internalType": "address",
          "name": "to",
          "type": "address"
        }
      ],
      "name": "ConsecutiveTransfer",
      "type": "event"
    },
    {
      "anonymous": false,
      "inputs": [
        {
          "indexed": true,
          "internalType": "address",
          "name": "previousOwner",
          "type": "address"
        },
        {
          "indexed": true,
          "internalType": "address",
          "name": "newOwner",
          "type": "address"
        }
      ],
      "name": "OwnershipTransferred",
      "type": "event"
    },
    {
      "anonymous": false,
      "inputs": [
        {
          "indexed": true,
          "internalType": "address",
          "name": "from",
          "type": "address"
        },
        {
          "indexed": true,
          "internalType": "address",
          "name": "to",
          "type": "address"
        },
        {
          "indexed": true,
          "internalType": "uint256",
          "name": "tokenId",
          "type": "uint256"
        }
      ],
      "name": "Transfer",
      "type": "event"
    },
    {
      "anonymous": false,
      "inputs": [
        {
          "indexed": false,
          "internalType": "string",
          "name": "uri",
          "type": "string"
        }
      ],
      "name": "baseURIChanged",
      "type": "event"
    },
    {
      "anonymous": false,
      "inputs": [
        {
          "indexed": false,
          "internalType": "string",
          "name": "uri",
          "type": "string"
        }
      ],
      "name": "detailsURIChanged",
      "type": "event"
    },
    {
      "anonymous": false,
      "inputs": [
        {
          "indexed": false,
          "internalType": "address",
          "name": "gasManager",
          "type": "address"
        }
      ],
      "name": "gasLoaded",
      "type": "event"
    },
    {
      "inputs": [],
      "name": "Details",
      "outputs": [
        {
          "internalType": "string",
          "name": "",
          "type": "string"
        }
      ],
      "stateMutability": "view",
      "type": "function"
    },
    {
      "inputs": [
        {
          "internalType": "address",
          "name": "to",
          "type": "address"
        },
        {
          "internalType": "uint256",
          "name": "tokenId",
          "type": "uint256"
        }
      ],
      "name": "approve",
      "outputs": [],
      "stateMutability": "payable",
      "type": "function"
    },
    {
      "inputs": [
        {
          "internalType": "address",
          "name": "owner",
          "type": "address"
        }
      ],
      "name": "balanceOf",
      "outputs": [
        {
          "internalType": "uint256",
          "name": "",
          "type": "uint256"
        }
      ],
      "stateMutability": "view",
      "type": "function"
    },
    {
      "inputs": [],
      "name": "baseURI",
      "outputs": [
        {
          "internalType": "string",
          "name": "",
          "type": "string"
        }
      ],
      "stateMutability": "view",
      "type": "function"
    },
    {
      "inputs": [
        {
          "internalType": "uint256",
          "name": "tokenId",
          "type": "uint256"
        }
      ],
      "name": "burn",
      "outputs": [],
      "stateMutability": "nonpayable",
      "type": "function"
    },
    {
      "inputs": [],
      "name": "contractName",
      "outputs": [
        {
          "internalType": "string",
          "name": "",
          "type": "string"
        }
      ],
      "stateMutability": "pure",
      "type": "function"
    },
    {
      "inputs": [],
      "name": "detailsURI",
      "outputs": [
        {
          "internalType": "string",
          "name": "",
          "type": "string"
        }
      ],
      "stateMutability": "view",
      "type": "function"
    },
    {
      "inputs": [
        {
          "internalType": "uint256",
          "name": "tokenId",
          "type": "uint256"
        }
      ],
      "name": "explicitOwnershipOf",
      "outputs": [
        {
          "components": [
            {
              "internalType": "address",
              "name": "addr",
              "type": "address"
            },
            {
              "internalType": "uint64",
              "name": "startTimestamp",
              "type": "uint64"
            },
            {
              "internalType": "bool",
              "name": "burned",
              "type": "bool"
            },
            {
              "internalType": "uint24",
              "name": "extraData",
              "type": "uint24"
            }
          ],
          "internalType": "struct IERC721A.TokenOwnership",
          "name": "",
          "type": "tuple"
        }
      ],
      "stateMutability": "view",
      "type": "function"
    },
    {
      "inputs": [
        {
          "internalType": "uint256[]",
          "name": "tokenIds",
          "type": "uint256[]"
        }
      ],
      "name": "explicitOwnershipsOf",
      "outputs": [
        {
          "components": [
            {
              "internalType": "address",
              "name": "addr",
              "type": "address"
            },
            {
              "internalType": "uint64",
              "name": "startTimestamp",
              "type": "uint64"
            },
            {
              "internalType": "bool",
              "name": "burned",
              "type": "bool"
            },
            {
              "internalType": "uint24",
              "name": "extraData",
              "type": "uint24"
            }
          ],
          "internalType": "struct IERC721A.TokenOwnership[]",
          "name": "",
          "type": "tuple[]"
        }
      ],
      "stateMutability": "view",
      "type": "function"
    },
    {
      "inputs": [
        {
          "internalType": "uint256",
          "name": "tokenId",
          "type": "uint256"
        }
      ],
      "name": "getApproved",
      "outputs": [
        {
          "internalType": "address",
          "name": "",
          "type": "address"
        }
      ],
      "stateMutability": "view",
      "type": "function"
    },
    {
      "inputs": [],
      "name": "getTGas",
      "outputs": [
        {
          "internalType": "address",
          "name": "",
          "type": "address"
        }
      ],
      "stateMutability": "view",
      "type": "function"
    },
    {
      "inputs": [
        {
          "internalType": "string",
          "name": "name_",
          "type": "string"
        },
        {
          "internalType": "string",
          "name": "symbol_",
          "type": "string"
        },
        {
          "internalType": "string",
          "name": "base_",
          "type": "string"
        },
        {
          "internalType": "string",
          "name": "details_",
          "type": "string"
        }
      ],
      "name": "init",
      "outputs": [],
      "stateMutability": "nonpayable",
      "type": "function"
    },
    {
      "inputs": [],
      "name": "init",
      "outputs": [],
      "stateMutability": "nonpayable",
      "type": "function"
    },
    {
      "inputs": [
        {
          "internalType": "address",
          "name": "owner",
          "type": "address"
        },
        {
          "internalType": "address",
          "name": "operator",
          "type": "address"
        }
      ],
      "name": "isApprovedForAll",
      "outputs": [
        {
          "internalType": "bool",
          "name": "",
          "type": "bool"
        }
      ],
      "stateMutability": "view",
      "type": "function"
    },
    {
      "inputs": [
        {
          "internalType": "address",
          "name": "_to",
          "type": "address"
        },
        {
          "internalType": "uint256",
          "name": "quantity",
          "type": "uint256"
        }
      ],
      "name": "mint",
      "outputs": [],
      "stateMutability": "nonpayable",
      "type": "function"
    },
    {
      "inputs": [],
      "name": "name",
      "outputs": [
        {
          "internalType": "string",
          "name": "",
          "type": "string"
        }
      ],
      "stateMutability": "view",
      "type": "function"
    },
    {
      "inputs": [],
      "name": "owner",
      "outputs": [
        {
          "internalType": "address",
          "name": "",
          "type": "address"
        }
      ],
      "stateMutability": "view",
      "type": "function"
    },
    {
      "inputs": [
        {
          "internalType": "uint256",
          "name": "tokenId",
          "type": "uint256"
        }
      ],
      "name": "ownerOf",
      "outputs": [
        {
          "internalType": "address",
          "name": "",
          "type": "address"
        }
      ],
      "stateMutability": "view",
      "type": "function"
    },
    {
      "inputs": [],
      "name": "renounceOwnership",
      "outputs": [],
      "stateMutability": "nonpayable",
      "type": "function"
    },
    {
      "inputs": [
        {
          "internalType": "address",
          "name": "_to",
          "type": "address"
        },
        {
          "internalType": "uint256",
          "name": "quantity",
          "type": "uint256"
        }
      ],
      "name": "safeMint",
      "outputs": [],
      "stateMutability": "nonpayable",
      "type": "function"
    },
    {
      "inputs": [
        {
          "internalType": "address",
          "name": "from",
          "type": "address"
        },
        {
          "internalType": "address",
          "name": "to",
          "type": "address"
        },
        {
          "internalType": "uint256",
          "name": "tokenId",
          "type": "uint256"
        }
      ],
      "name": "safeTransferFrom",
      "outputs": [],
      "stateMutability": "payable",
      "type": "function"
    },
    {
      "inputs": [
        {
          "internalType": "address",
          "name": "from",
          "type": "address"
        },
        {
          "internalType": "address",
          "name": "to",
          "type": "address"
        },
        {
          "internalType": "uint256",
          "name": "tokenId",
          "type": "uint256"
        },
        {
          "internalType": "bytes",
          "name": "_data",
          "type": "bytes"
        }
      ],
      "name": "safeTransferFrom",
      "outputs": [],
      "stateMutability": "payable",
      "type": "function"
    },
    {
      "inputs": [
        {
          "internalType": "address",
          "name": "operator",
          "type": "address"
        },
        {
          "internalType": "bool",
          "name": "approved",
          "type": "bool"
        }
      ],
      "name": "setApprovalForAll",
      "outputs": [],
      "stateMutability": "nonpayable",
      "type": "function"
    },
    {
      "inputs": [
        {
          "internalType": "string",
          "name": "base_",
          "type": "string"
        }
      ],
      "name": "setBaseURI",
      "outputs": [],
      "stateMutability": "nonpayable",
      "type": "function"
    },
    {
      "inputs": [
        {
          "internalType": "string",
          "name": "uri_",
          "type": "string"
        }
      ],
      "name": "setDetailsURI",
      "outputs": [],
      "stateMutability": "nonpayable",
      "type": "function"
    },
    {
      "inputs": [
        {
          "internalType": "address",
          "name": "_tgas",
          "type": "address"
        }
      ],
      "name": "setTGas",
      "outputs": [],
      "stateMutability": "nonpayable",
      "type": "function"
    },
    {
      "inputs": [
        {
          "internalType": "bytes4",
          "name": "interfaceId",
          "type": "bytes4"
        }
      ],
      "name": "supportsInterface",
      "outputs": [
        {
          "internalType": "bool",
          "name": "",
          "type": "bool"
        }
      ],
      "stateMutability": "view",
      "type": "function"
    },
    {
      "inputs": [],
      "name": "symbol",
      "outputs": [
        {
          "internalType": "string",
          "name": "",
          "type": "string"
        }
      ],
      "stateMutability": "view",
      "type": "function"
    },
    {
      "inputs": [
        {
          "internalType": "uint256",
          "name": "tokenId",
          "type": "uint256"
        }
      ],
      "name": "tokenURI",
      "outputs": [
        {
          "internalType": "string",
          "name": "",
          "type": "string"
        }
      ],
      "stateMutability": "view",
      "type": "function"
    },
    {
      "inputs": [
        {
          "internalType": "address",
          "name": "owner",
          "type": "address"
        }
      ],
      "name": "tokensOfOwner",
      "outputs": [
        {
          "internalType": "uint256[]",
          "name": "",
          "type": "uint256[]"
        }
      ],
      "stateMutability": "view",
      "type": "function"
    },
    {
      "inputs": [
        {
          "internalType": "address",
          "name": "owner",
          "type": "address"
        },
        {
          "internalType": "uint256",
          "name": "start",
          "type": "uint256"
        },
        {
          "internalType": "uint256",
          "name": "stop",
          "type": "uint256"
        }
      ],
      "name": "tokensOfOwnerIn",
      "outputs": [
        {
          "internalType": "uint256[]",
          "name": "",
          "type": "uint256[]"
        }
      ],
      "stateMutability": "view",
      "type": "function"
    },
    {
      "inputs": [],
      "name": "totalSupply",
      "outputs": [
        {
          "internalType": "uint256",
          "name": "",
          "type": "uint256"
        }
      ],
      "stateMutability": "view",
      "type": "function"
    },
    {
      "inputs": [
        {
          "internalType": "address",
          "name": "from",
          "type": "address"
        },
        {
          "internalType": "address",
          "name": "to",
          "type": "address"
        },
        {
          "internalType": "uint256",
          "name": "tokenId",
          "type": "uint256"
        }
      ],
      "name": "transferFrom",
      "outputs": [],
      "stateMutability": "payable",
      "type": "function"
    },
    {
      "inputs": [
        {
          "internalType": "address",
          "name": "newOwner",
          "type": "address"
        }
      ],
      "name": "transferOwnership",
      "outputs": [],
      "stateMutability": "nonpayable",
      "type": "function"
    }
  ],
  "bytecode": "60806040523480156200001157600080fd5b50604080518082018252600680825265049534f544f560d41b6020808401828152855180870190965292855284015281519192916200005391600291620000e3565b50805162000069906003906020840190620000e3565b505060008055506200007b3362000091565b600b80546001600160a01b0319169055620001c5565b600880546001600160a01b038381166001600160a01b0319831681179093556040519116919082907f8be0079c531659141344cd1fd0a4f28419497f9722a3daafe3b4186f6b6457e090600090a35050565b828054620000f19062000189565b90600052602060002090601f01602090048101928262000115576000855562000160565b82601f106200013057805160ff191683800117855562000160565b8280016001018555821562000160579182015b828111156200016057825182559160200191906001019062000143565b506200016e92915062000172565b5090565b5b808211156200016e576000815560010162000173565b600181811c908216806200019e57607f821691505b602082108103620001bf57634e487b7160e01b600052602260045260246000fd5b50919050565b61235380620001d56000396000f3fe6080604052600436106101f95760003560e01c806375d0c0dc1161010d578063a22cb465116100a0578063c23dc68f1161006f578063c23dc68f14610590578063c87b56dd146105bd578063e1c7392a146105dd578063e985e9c5146105f2578063f2fde38b1461063b57600080fd5b8063a22cb46514610528578063a48929d114610548578063b47d89ad14610568578063b88d4fde1461057d57600080fd5b80638de12845116100dc5780638de12845146104b357806395d89b41146104d357806399a2557a146104e8578063a14481941461050857600080fd5b806375d0c0dc14610417578063766ef5e71461044a5780638462151c146104685780638da5cb5b1461049557600080fd5b806340c10f19116101905780635bbb21771161015f5780635bbb2177146103805780636352211e146103ad5780636c0360eb146103cd57806370a08231146103e2578063715018a61461040257600080fd5b806340c10f191461030d57806342842e0e1461032d57806342966c681461034057806355f804b31461036057600080fd5b8063095ea7b3116101cc578063095ea7b3146102a257806318160ddd146102b757806323b872dd146102da57806340898f4f146102ed57600080fd5b806301ffc9a7146101fe57806302e9f9391461023357806306fdde0314610255578063081812fc1461026a575b600080fd5b34801561020a57600080fd5b5061021e610219366004611cda565b61065b565b60405190151581526020015b60405180910390f35b34801561023f57600080fd5b506102486106ad565b60405161022a9190611d4f565b34801561026157600080fd5b5061024861073b565b34801561027657600080fd5b5061028a610285366004611d62565b6107cd565b6040516001600160a01b03909116815260200161022a565b6102b56102b0366004611d97565b610811565b005b3480156102c357600080fd5b50600154600054035b60405190815260200161022a565b6102b56102e8366004611dc1565b6108b1565b3480156102f957600080fd5b506102b5610308366004611dfd565b6108c1565b34801561031957600080fd5b506102b5610328366004611d97565b61096c565b6102b561033b366004611dc1565b610aba565b34801561034c57600080fd5b506102b561035b366004611d62565b610ad5565b34801561036c57600080fd5b506102b561037b366004611ec4565b610b6e565b34801561038c57600080fd5b506103a061039b366004611ef9565b610bb9565b60405161022a9190611fab565b3480156103b957600080fd5b5061028a6103c8366004611d62565b610c85565b3480156103d957600080fd5b50610248610c90565b3480156103ee57600080fd5b506102cc6103fd366004611dfd565b610c9d565b34801561040e57600080fd5b506102b5610cec565b34801561042357600080fd5b5060408051808201909152600a81526949534f544f503130313160b01b6020820152610248565b34801561045657600080fd5b50600b546001600160a01b031661028a565b34801561047457600080fd5b50610488610483366004611dfd565b610d00565b60405161022a9190611fed565b3480156104a157600080fd5b506008546001600160a01b031661028a565b3480156104bf57600080fd5b506102b56104ce366004612025565b610e09565b3480156104df57600080fd5b50610248610e67565b3480156104f457600080fd5b506104886105033660046120d2565b610e76565b34801561051457600080fd5b506102b5610523366004611d97565b610ff0565b34801561053457600080fd5b506102b5610543366004612105565b61108f565b34801561055457600080fd5b506102b5610563366004611ec4565b6110f4565b34801561057457600080fd5b5061024861113f565b6102b561058b366004612141565b61114e565b34801561059c57600080fd5b506105b06105ab366004611d62565b611198565b60405161022a91906121b1565b3480156105c957600080fd5b506102486105d8366004611d62565b611210565b3480156105e957600080fd5b506102b5611293565b3480156105fe57600080fd5b5061021e61060d3660046121bf565b6001600160a01b03918216600090815260076020908152604080832093909416825291909152205460ff1690565b34801561064757600080fd5b506102b5610656366004611dfd565b61137c565b60006301ffc9a760e01b6001600160e01b03198316148061068c57506380ac58cd60e01b6001600160e01b03198316145b806106a75750635b5e139f60e01b6001600160e01b03198316145b92915050565b600a80546106ba906121f2565b80601f01602080910402602001604051908101604052809291908181526020018280546106e6906121f2565b80156107335780601f1061070857610100808354040283529160200191610733565b820191906000526020600020905b81548152906001019060200180831161071657829003601f168201915b505050505081565b60606002805461074a906121f2565b80601f0160208091040260200160405190810160405280929190818152602001828054610776906121f2565b80156107c35780601f10610798576101008083540402835291602001916107c3565b820191906000526020600020905b8154815290600101906020018083116107a657829003601f168201915b5050505050905090565b60006107d882611435565b6107f5576040516333d1c03960e21b815260040160405180910390fd5b506000908152600660205260409020546001600160a01b031690565b600061081c82610c85565b9050336001600160a01b0382161461085557610838813361060d565b610855576040516367d9dca160e11b815260040160405180910390fd5b60008281526006602052604080822080546001600160a01b0319166001600160a01b0387811691821790925591518593918516917f8c5be1e5ebec7d5bd14f71427d1e84f3dd0314c0f7b2291e5b200ac8c7c3b92591a4505050565b6108bc83838361145c565b505050565b737b0dc23e87febf1d053e7df9af4cce30f21fae9c32146109175760405162461bcd60e51b815260206004820152600b60248201526a04f6e6c792049534f544f560ac1b60448201526064015b60405180910390fd5b600b80546001600160a01b0319166001600160a01b0383169081179091556040519081527f5d13706edecffc8d4ccc3b8dbcc026ce8a4914496820ba012530a4790b08d3a7906020015b60405180910390a150565b6109746114fa565b600b546001600160a01b031615610a0157600b546040805180820182526004808252631b5a5b9d60e21b60208301529151636fb5d80760e01b81526001600160a01b0390931692636fb5d807926109ce929186910161222c565b600060405180830381600087803b1580156109e857600080fd5b505af11580156109fc573d6000803e3d6000fd5b505050505b610a0b8282611554565b6001600160a01b0382166000908152600760205260408120600191610a386008546001600160a01b031690565b6001600160a01b0390811682526020820192909252604001600020805460ff191692151592909217909155600854166001600160a01b0316826001600160a01b03167f17307eab39ab6107e8899845ad3d59bd9653f200f220920489ca2b5937696c316001604051610aae911515815260200190565b60405180910390a35050565b6108bc8383836040518060200160405280600081525061114e565b600b546001600160a01b031615610b6057600b54604080518082018252600480825263313ab93760e11b602083015291516325b1142960e01b81526001600160a01b03909316926325b1142992610b2d929101611d4f565b600060405180830381600087803b158015610b4757600080fd5b505af1158015610b5b573d6000803e3d6000fd5b505050505b610b6b81600161162e565b50565b610b766114fa565b8051610b89906009906020840190611c2b565b507f59f1ec21eb30be64a479f79da93a3f192f54c561ee637b5f589e807eb975eb4a816040516109619190611d4f565b60608160008167ffffffffffffffff811115610bd757610bd7611e18565b604051908082528060200260200182016040528015610c2957816020015b604080516080810182526000808252602080830182905292820181905260608201528252600019909201910181610bf55790505b50905060005b828114610c7c57610c57868683818110610c4b57610c4b61224e565b90506020020135611198565b828281518110610c6957610c6961224e565b6020908102919091010152600101610c2f565b50949350505050565b60006106a782611777565b600980546106ba906121f2565b60006001600160a01b038216610cc6576040516323d3ad8160e21b815260040160405180910390fd5b506001600160a01b031660009081526005602052604090205467ffffffffffffffff1690565b610cf46114fa565b610cfe60006117de565b565b60606000806000610d1085610c9d565b905060008167ffffffffffffffff811115610d2d57610d2d611e18565b604051908082528060200260200182016040528015610d56578160200160208202803683370190505b509050610d8360408051608081018252600080825260208201819052918101829052606081019190915290565b60005b838614610dfd57610d9681611830565b91508160400151610df55781516001600160a01b031615610db657815194505b876001600160a01b0316856001600160a01b031603610df55780838780600101985081518110610de857610de861224e565b6020026020010181815250505b600101610d86565b50909695505050505050565b610e116114fa565b8351610e24906002906020870190611c2b565b508251610e38906003906020860190611c2b565b508151610e4c906009906020850190611c2b565b508051610e6090600a906020840190611c2b565b5050505050565b60606003805461074a906121f2565b6060818310610e9857604051631960ccad60e11b815260040160405180910390fd5b600080610ea460005490565b905080841115610eb2578093505b6000610ebd87610c9d565b905084861015610edc5785850381811015610ed6578091505b50610ee0565b5060005b60008167ffffffffffffffff811115610efb57610efb611e18565b604051908082528060200260200182016040528015610f24578160200160208202803683370190505b50905081600003610f3a579350610fe992505050565b6000610f4588611198565b905060008160400151610f56575080515b885b888114158015610f685750848714155b15610fdd57610f7681611830565b92508260400151610fd55782516001600160a01b031615610f9657825191505b8a6001600160a01b0316826001600160a01b031603610fd55780848880600101995081518110610fc857610fc861224e565b6020026020010181815250505b600101610f58565b50505092835250909150505b9392505050565b610ff86114fa565b600b546001600160a01b03161561108557600b546040805180820182526004808252631b5a5b9d60e21b60208301529151636fb5d80760e01b81526001600160a01b0390931692636fb5d80792611052929186910161222c565b600060405180830381600087803b15801561106c57600080fd5b505af1158015611080573d6000803e3d6000fd5b505050505b610a0b828261186c565b3360008181526007602090815260408083206001600160a01b03871680855290835292819020805460ff191686151590811790915590519081529192917f17307eab39ab6107e8899845ad3d59bd9653f200f220920489ca2b5937696c319101610aae565b6110fc6114fa565b805161110f90600a906020840190611c2b565b507f69492b03d451c4ad02fe1a5a42e677ac013fc7fd243fa4e3a4ef14a5d8d8808d816040516109619190611d4f565b6060600a805461074a906121f2565b6111598484846108b1565b6001600160a01b0383163b15611192576111758484848461188a565b611192576040516368d2bf6b60e11b815260040160405180910390fd5b50505050565b60408051608080820183526000808352602080840182905283850182905260608085018390528551938401865282845290830182905293820181905292810183905290915060005483106111ec5792915050565b6111f583611830565b90508060400151156112075792915050565b610fe983611976565b606061121b82611435565b61125b5760405162461bcd60e51b81526020600482015260116024820152703737b732bc34b9ba32b73a103a37b5b2b760791b604482015260640161090e565b6112636119ab565b61126c836119ba565b60405160200161127d929190612264565b6040516020818303038152906040529050919050565b60006112a76008546001600160a01b031690565b6001600160a01b0316146112f45760405162461bcd60e51b81526020600482015260146024820152736f6e6c79207768656e20696e697420737461746560601b604482015260640161090e565b600b546001600160a01b031615610cfe57600b5460408051808201825260068152656465706c6f7960d01b602082015290516325b1142960e01b81526001600160a01b03909216916325b114299161134e91600401611d4f565b600060405180830381600087803b15801561136857600080fd5b505af1158015611192573d6000803e3d6000fd5b60006113906008546001600160a01b031690565b6001600160a01b031614806113af57506008546001600160a01b031633145b6113e85760405162461bcd60e51b815260206004820152600a60248201526927b7363c9027b73bb2b960b11b604482015260640161090e565b6001600160a01b03811661142c5760405162461bcd60e51b815260206004820152600b60248201526a04e6577206f776e657220360ac1b604482015260640161090e565b610b6b816117de565b60008054821080156106a7575050600090815260046020526040902054600160e01b161590565b600b546001600160a01b0316156114ef57600b54604080518082018252600c81526b7472616e7366657246726f6d60a01b602082015290516325b1142960e01b81526001600160a01b03909216916325b11429916114bc91600401611d4f565b600060405180830381600087803b1580156114d657600080fd5b505af11580156114ea573d6000803e3d6000fd5b505050505b6108bc8383836119fe565b6008546001600160a01b03163314610cfe5760405162461bcd60e51b815260206004820181905260248201527f4f776e61626c653a2063616c6c6572206973206e6f7420746865206f776e6572604482015260640161090e565b60008054908290036115795760405163b562e8dd60e01b815260040160405180910390fd5b6001600160a01b03831660008181526005602090815260408083208054680100000000000000018802019055848352600490915281206001851460e11b4260a01b178317905582840190839083906000805160206122fe8339815191528180a4600183015b81811461160457808360006000805160206122fe833981519152600080a46001016115de565b508160000361162557604051622e076360e81b815260040160405180910390fd5b60005550505050565b600061163983611777565b90508060008061165786600090815260066020526040902080549091565b9150915084156116a85761167d8184335b6001600160a01b039081169116811491141790565b6116a85761168b833361060d565b6116a857604051632ce44b5f60e11b815260040160405180910390fd5b80156116b357600082555b6001600160a01b038316600081815260056020526040902080546fffffffffffffffffffffffffffffffff0190554260a01b17600360e01b17600087815260046020526040812091909155600160e11b851690036117415760018601600081815260046020526040812054900361173f57600054811461173f5760008181526004602052604090208590555b505b60405186906000906001600160a01b038616906000805160206122fe833981519152908390a45050600180548101905550505050565b6000816000548110156117c55760008181526004602052604081205490600160e01b821690036117c3575b80600003610fe95750600019016000818152600460205260409020546117a2565b505b604051636f96cda160e11b815260040160405180910390fd5b600880546001600160a01b038381166001600160a01b0319831681179093556040519116919082907f8be0079c531659141344cd1fd0a4f28419497f9722a3daafe3b4186f6b6457e090600090a35050565b6040805160808101825260008082526020820181905291810182905260608101919091526000828152600460205260409020546106a790611b7d565b611886828260405180602001604052806000815250611bc5565b5050565b604051630a85bd0160e11b81526000906001600160a01b0385169063150b7a02906118bf9033908990889088906004016122a3565b6020604051808303816000875af19250505080156118fa575060408051601f3d908101601f191682019092526118f7918101906122e0565b60015b611958573d808015611928576040519150601f19603f3d011682016040523d82523d6000602084013e61192d565b606091505b508051600003611950576040516368d2bf6b60e11b815260040160405180910390fd5b805181602001fd5b6001600160e01b031916630a85bd0160e11b1490505b949350505050565b6040805160808101825260008082526020820181905291810182905260608101919091526106a76119a683611777565b611b7d565b60606009805461074a906121f2565b606060a06040510180604052602081039150506000815280825b600183039250600a81066030018353600a9004806119d45750819003601f19909101908152919050565b6000611a0982611777565b9050836001600160a01b0316816001600160a01b031614611a3c5760405162a1148160e81b815260040160405180910390fd5b60008281526006602052604090208054611a57818733611668565b611a8257611a65863361060d565b611a8257604051632ce44b5f60e11b815260040160405180910390fd5b6001600160a01b038516611aa957604051633a954ecd60e21b815260040160405180910390fd5b8015611ab457600082555b6001600160a01b038681166000908152600560205260408082208054600019019055918716808252919020805460010190554260a01b17600160e11b17600085815260046020526040812091909155600160e11b84169003611b4657600184016000818152600460205260408120549003611b44576000548114611b445760008181526004602052604090208490555b505b83856001600160a01b0316876001600160a01b03166000805160206122fe83398151915260405160405180910390a4505050505050565b604080516080810182526001600160a01b038316815260a083901c67ffffffffffffffff166020820152600160e01b831615159181019190915260e89190911c606082015290565b611bcf8383611554565b6001600160a01b0383163b156108bc576000548281035b611bf9600086838060010194508661188a565b611c16576040516368d2bf6b60e11b815260040160405180910390fd5b818110611be6578160005414610e6057600080fd5b828054611c37906121f2565b90600052602060002090601f016020900481019282611c595760008555611c9f565b82601f10611c7257805160ff1916838001178555611c9f565b82800160010185558215611c9f579182015b82811115611c9f578251825591602001919060010190611c84565b50611cab929150611caf565b5090565b5b80821115611cab5760008155600101611cb0565b6001600160e01b031981168114610b6b57600080fd5b600060208284031215611cec57600080fd5b8135610fe981611cc4565b60005b83811015611d12578181015183820152602001611cfa565b838111156111925750506000910152565b60008151808452611d3b816020860160208601611cf7565b601f01601f19169290920160200192915050565b602081526000610fe96020830184611d23565b600060208284031215611d7457600080fd5b5035919050565b80356001600160a01b0381168114611d9257600080fd5b919050565b60008060408385031215611daa57600080fd5b611db383611d7b565b946020939093013593505050565b600080600060608486031215611dd657600080fd5b611ddf84611d7b565b9250611ded60208501611d7b565b9150604084013590509250925092565b600060208284031215611e0f57600080fd5b610fe982611d7b565b634e487b7160e01b600052604160045260246000fd5b600067ffffffffffffffff80841115611e4957611e49611e18565b604051601f8501601f19908116603f01168101908282118183101715611e7157611e71611e18565b81604052809350858152868686011115611e8a57600080fd5b858560208301376000602087830101525050509392505050565b600082601f830112611eb557600080fd5b610fe983833560208501611e2e565b600060208284031215611ed657600080fd5b813567ffffffffffffffff811115611eed57600080fd5b61196e84828501611ea4565b60008060208385031215611f0c57600080fd5b823567ffffffffffffffff80821115611f2457600080fd5b818501915085601f830112611f3857600080fd5b813581811115611f4757600080fd5b8660208260051b8501011115611f5c57600080fd5b60209290920196919550909350505050565b80516001600160a01b0316825260208082015167ffffffffffffffff169083015260408082015115159083015260609081015162ffffff16910152565b6020808252825182820181905260009190848201906040850190845b81811015610dfd57611fda838551611f6e565b9284019260809290920191600101611fc7565b6020808252825182820181905260009190848201906040850190845b81811015610dfd57835183529284019291840191600101612009565b6000806000806080858703121561203b57600080fd5b843567ffffffffffffffff8082111561205357600080fd5b61205f88838901611ea4565b9550602087013591508082111561207557600080fd5b61208188838901611ea4565b9450604087013591508082111561209757600080fd5b6120a388838901611ea4565b935060608701359150808211156120b957600080fd5b506120c687828801611ea4565b91505092959194509250565b6000806000606084860312156120e757600080fd5b6120f084611d7b565b95602085013595506040909401359392505050565b6000806040838503121561211857600080fd5b61212183611d7b565b91506020830135801515811461213657600080fd5b809150509250929050565b6000806000806080858703121561215757600080fd5b61216085611d7b565b935061216e60208601611d7b565b925060408501359150606085013567ffffffffffffffff81111561219157600080fd5b8501601f810187136121a257600080fd5b6120c687823560208401611e2e565b608081016106a78284611f6e565b600080604083850312156121d257600080fd5b6121db83611d7b565b91506121e960208401611d7b565b90509250929050565b600181811c9082168061220657607f821691505b60208210810361222657634e487b7160e01b600052602260045260246000fd5b50919050565b60408152600061223f6040830185611d23565b90508260208301529392505050565b634e487b7160e01b600052603260045260246000fd5b60008351612276818460208801611cf7565b83519083019061228a818360208801611cf7565b64173539b7b760d91b9101908152600501949350505050565b6001600160a01b03858116825284166020820152604081018390526080606082018190526000906122d690830184611d23565b9695505050505050565b6000602082840312156122f257600080fd5b8151610fe981611cc456feddf252ad1be2c89b69c2b068fc378daa952ba7f163c4a11628f55a4df523b3efa2646970667358221220d1e4c3715924dcc7f40d458937e364c0c1a2defad889ee1b9a35234f6cbb800864736f6c634300080d0033",
  "bytecodeSha1": "edcd93df3223a8397c33e12d9011011bcaef66f0",
  "compiler": {
    "evm_version": "istanbul",
    "optimizer": {
      "enabled": true,
      "runs": 200
    },
    "version": "0.8.13+commit.abaa5c0e"
  },
  "contractName": "ISOTOP1011",
  "language": "Solidity",
  "natspec": {
    "errors": {
      "ApprovalCallerNotOwnerNorApproved()": [
        {
          "notice": "The caller must own the token or be an approved operator."
        }
      ],
      "ApprovalQueryForNonexistentToken()": [
        {
          "notice": "The token does not exist."
        }
      ],
      "BalanceQueryForZeroAddress()": [
        {
          "notice": "Cannot query the balance for the zero address."
        }
      ],
      "InvalidQueryRange()": [
        {
          "notice": "Invalid query range (`start` >= `stop`)."
        }
      ],
      "MintERC2309QuantityExceedsLimit()": [
        {
          "notice": "The `quantity` minted with ERC2309 exceeds the safety limit."
        }
      ],
      "MintToZeroAddress()": [
        {
          "notice": "Cannot mint to the zero address."
        }
      ],
      "MintZeroQuantity()": [
        {
          "notice": "The quantity of tokens minted must be more than zero."
        }
      ],
      "OwnerQueryForNonexistentToken()": [
        {
          "notice": "The token does not exist."
        }
      ],
      "OwnershipNotInitializedForExtraData()": [
        {
          "notice": "The `extraData` cannot be set on an unintialized ownership slot."
        }
      ],
      "TransferCallerNotOwnerNorApproved()": [
        {
          "notice": "The caller must own the token or be an approved operator."
        }
      ],
      "TransferFromIncorrectOwner()": [
        {
          "notice": "The token must be owned by `from`."
        }
      ],
      "TransferToNonERC721ReceiverImplementer()": [
        {
          "notice": "Cannot safely transfer to a contract that does not implement the ERC721Receiver interface."
        }
      ],
      "TransferToZeroAddress()": [
        {
          "notice": "Cannot transfer to the zero address."
        }
      ],
      "URIQueryForNonexistentToken()": [
        {
          "notice": "The token does not exist."
        }
      ]
    },
    "kind": "dev",
    "methods": {
      "approve(address,uint256)": {
        "details": "Gives permission to `to` to transfer `tokenId` token to another account. The approval is cleared when the token is transferred. Only a single account can be approved at a time, so approving the zero address clears previous approvals. Requirements: - The caller must own the token or be an approved operator. - `tokenId` must exist. Emits an {Approval} event."
      },
      "balanceOf(address)": {
        "details": "Returns the number of tokens in `owner`'s account."
      },
      "burn(uint256)": {
        "details": "Burns `tokenId`. See {ERC721A-_burn}. Requirements: - The caller must own `tokenId` or be an approved operator."
      },
      "explicitOwnershipOf(uint256)": {
        "details": "Returns the `TokenOwnership` struct at `tokenId` without reverting. If the `tokenId` is out of bounds: - `addr = address(0)` - `startTimestamp = 0` - `burned = false` - `extraData = 0` If the `tokenId` is burned: - `addr = <Address of owner before token was burned>` - `startTimestamp = <Timestamp when token was burned>` - `burned = true` - `extraData = <Extra data when token was burned>` Otherwise: - `addr = <Address of owner>` - `startTimestamp = <Timestamp of start of ownership>` - `burned = false` - `extraData = <Extra data at start of ownership>`"
      },
      "explicitOwnershipsOf(uint256[])": {
        "details": "Returns an array of `TokenOwnership` structs at `tokenIds` in order. See {ERC721AQueryable-explicitOwnershipOf}"
      },
      "getApproved(uint256)": {
        "details": "Returns the account approved for `tokenId` token. Requirements: - `tokenId` must exist."
      },
      "isApprovedForAll(address,address)": {
        "details": "Returns if the `operator` is allowed to manage all of the assets of `owner`. See {setApprovalForAll}."
      },
      "name()": {
        "details": "Returns the token collection name."
      },
      "owner()": {
        "details": "Returns the address of the current owner."
      },
      "ownerOf(uint256)": {
        "details": "Returns the owner of the `tokenId` token. Requirements: - `tokenId` must exist."
      },
      "renounceOwnership()": {
        "details": "Leaves the contract without owner. It will not be possible to call `onlyOwner` functions anymore. Can only be called by the current owner. NOTE: Renouncing ownership will leave the contract without an owner, thereby removing any functionality that is only available to the owner."
      },
      "safeTransferFrom(address,address,uint256)": {
        "details": "Equivalent to `safeTransferFrom(from, to, tokenId, '')`."
      },
      "safeTransferFrom(address,address,uint256,bytes)": {
        "details": "Safely transfers `tokenId` token from `from` to `to`. Requirements: - `from` cannot be the zero address. - `to` cannot be the zero address. - `tokenId` token must exist and be owned by `from`. - If the caller is not `from`, it must be approved to move this token by either {approve} or {setApprovalForAll}. - If `to` refers to a smart contract, it must implement {IERC721Receiver-onERC721Received}, which is called upon a safe transfer. Emits a {Transfer} event."
      },
      "setApprovalForAll(address,bool)": {
        "details": "Approve or remove `operator` as an operator for the caller. Operators can call {transferFrom} or {safeTransferFrom} for any token owned by the caller. Requirements: - The `operator` cannot be the caller. Emits an {ApprovalForAll} event."
      },
      "supportsInterface(bytes4)": {
        "details": "Returns true if this contract implements the interface defined by `interfaceId`. See the corresponding [EIP section](https://eips.ethereum.org/EIPS/eip-165#how-interfaces-are-identified) to learn more about how these ids are created. This function call must use less than 30000 gas."
      },
      "symbol()": {
        "details": "Returns the token collection symbol."
      },
      "tokensOfOwner(address)": {
        "details": "Returns an array of token IDs owned by `owner`. This function scans the ownership mapping and is O(`totalSupply`) in complexity. It is meant to be called off-chain. See {ERC721AQueryable-tokensOfOwnerIn} for splitting the scan into multiple smaller scans if the collection is large enough to cause an out-of-gas error (10K collections should be fine)."
      },
      "tokensOfOwnerIn(address,uint256,uint256)": {
        "details": "Returns an array of token IDs owned by `owner`, in the range [`start`, `stop`) (i.e. `start <= tokenId < stop`). This function allows for tokens to be queried if the collection grows too big for a single call of {ERC721AQueryable-tokensOfOwner}. Requirements: - `start < stop`"
      },
      "totalSupply()": {
        "details": "Returns the total number of tokens in existence. Burned tokens will reduce the count. To get the total number of tokens minted, please see {_totalMinted}."
      },
      "transferOwnership(address)": {
        "details": "Transfers ownership of the contract to a new account (`newOwner`). Can only be called by the current owner."
      }
    },
    "version": 1
  },
  "opcodes": "PUSH1 0x80 PUSH1 0x40 MSTORE PUSH1 0x4 CALLDATASIZE LT PUSH2 0x1F9 JUMPI PUSH1 0x0 CALLDATALOAD PUSH1 0xE0 SHR DUP1 PUSH4 0x75D0C0DC GT PUSH2 0x10D JUMPI DUP1 PUSH4 0xA22CB465 GT PUSH2 0xA0 JUMPI DUP1 PUSH4 0xC23DC68F GT PUSH2 0x6F JUMPI DUP1 PUSH4 0xC23DC68F EQ PUSH2 0x590 JUMPI DUP1 PUSH4 0xC87B56DD EQ PUSH2 0x5BD JUMPI DUP1 PUSH4 0xE1C7392A EQ PUSH2 0x5DD JUMPI DUP1 PUSH4 0xE985E9C5 EQ PUSH2 0x5F2 JUMPI DUP1 PUSH4 0xF2FDE38B EQ PUSH2 0x63B JUMPI PUSH1 0x0 DUP1 REVERT JUMPDEST DUP1 PUSH4 0xA22CB465 EQ PUSH2 0x528 JUMPI DUP1 PUSH4 0xA48929D1 EQ PUSH2 0x548 JUMPI DUP1 PUSH4 0xB47D89AD EQ PUSH2 0x568 JUMPI DUP1 PUSH4 0xB88D4FDE EQ PUSH2 0x57D JUMPI PUSH1 0x0 DUP1 REVERT JUMPDEST DUP1 PUSH4 0x8DE12845 GT PUSH2 0xDC JUMPI DUP1 PUSH4 0x8DE12845 EQ PUSH2 0x4B3 JUMPI DUP1 PUSH4 0x95D89B41 EQ PUSH2 0x4D3 JUMPI DUP1 PUSH4 0x99A2557A EQ PUSH2 0x4E8 JUMPI DUP1 PUSH4 0xA1448194 EQ PUSH2 0x508 JUMPI PUSH1 0x0 DUP1 REVERT JUMPDEST DUP1 PUSH4 0x75D0C0DC EQ PUSH2 0x417 JUMPI DUP1 PUSH4 0x766EF5E7 EQ PUSH2 0x44A JUMPI DUP1 PUSH4 0x8462151C EQ PUSH2 0x468 JUMPI DUP1 PUSH4 0x8DA5CB5B EQ PUSH2 0x495 JUMPI PUSH1 0x0 DUP1 REVERT JUMPDEST DUP1 PUSH4 0x40C10F19 GT PUSH2 0x190 JUMPI DUP1 PUSH4 0x5BBB2177 GT PUSH2 0x15F JUMPI DUP1 PUSH4 0x5BBB2177 EQ PUSH2 0x380 JUMPI DUP1 PUSH4 0x6352211E EQ PUSH2 0x3AD JUMPI DUP1 PUSH4 0x6C0360EB EQ PUSH2 0x3CD JUMPI DUP1 PUSH4 0x70A08231 EQ PUSH2 0x3E2 JUMPI DUP1 PUSH4 0x715018A6 EQ PUSH2 0x402 JUMPI PUSH1 0x0 DUP1 REVERT JUMPDEST DUP1 PUSH4 0x40C10F19 EQ PUSH2 0x30D JUMPI DUP1 PUSH4 0x42842E0E EQ PUSH2 0x32D JUMPI DUP1 PUSH4 0x42966C68 EQ PUSH2 0x340 JUMPI DUP1 PUSH4 0x55F804B3 EQ PUSH2 0x360 JUMPI PUSH1 0x0 DUP1 REVERT JUMPDEST DUP1 PUSH4 0x95EA7B3 GT PUSH2 0x1CC JUMPI DUP1 PUSH4 0x95EA7B3 EQ PUSH2 0x2A2 JUMPI DUP1 PUSH4 0x18160DDD EQ PUSH2 0x2B7 JUMPI DUP1 PUSH4 0x23B872DD EQ PUSH2 0x2DA JUMPI DUP1 PUSH4 0x40898F4F EQ PUSH2 0x2ED JUMPI PUSH1 0x0 DUP1 REVERT JUMPDEST DUP1 PUSH4 0x1FFC9A7 EQ PUSH2 0x1FE JUMPI DUP1 PUSH4 0x2E9F939 EQ PUSH2 0x233 JUMPI DUP1 PUSH4 0x6FDDE03 EQ PUSH2 0x255 JUMPI DUP1 PUSH4 0x81812FC EQ PUSH2 0x26A JUMPI JUMPDEST PUSH1 0x0 DUP1 REVERT JUMPDEST CALLVALUE DUP1 ISZERO PUSH2 0x20A JUMPI PUSH1 0x0 DUP1 REVERT JUMPDEST POP PUSH2 0x21E PUSH2 0x219 CALLDATASIZE PUSH1 0x4 PUSH2 0x1CDA JUMP JUMPDEST PUSH2 0x65B JUMP JUMPDEST PUSH1 0x40 MLOAD SWAP1 ISZERO ISZERO DUP2 MSTORE PUSH1 0x20 ADD JUMPDEST PUSH1 0x40 MLOAD DUP1 SWAP2 SUB SWAP1 RETURN JUMPDEST CALLVALUE DUP1 ISZERO PUSH2 0x23F JUMPI PUSH1 0x0 DUP1 REVERT JUMPDEST POP PUSH2 0x248 PUSH2 0x6AD JUMP JUMPDEST PUSH1 0x40 MLOAD PUSH2 0x22A SWAP2 SWAP1 PUSH2 0x1D4F JUMP JUMPDEST CALLVALUE DUP1 ISZERO PUSH2 0x261 JUMPI PUSH1 0x0 DUP1 REVERT JUMPDEST POP PUSH2 0x248 PUSH2 0x73B JUMP JUMPDEST CALLVALUE DUP1 ISZERO PUSH2 0x276 JUMPI PUSH1 0x0 DUP1 REVERT JUMPDEST POP PUSH2 0x28A PUSH2 0x285 CALLDATASIZE PUSH1 0x4 PUSH2 0x1D62 JUMP JUMPDEST PUSH2 0x7CD JUMP JUMPDEST PUSH1 0x40 MLOAD PUSH1 0x1 PUSH1 0x1 PUSH1 0xA0 SHL SUB SWAP1 SWAP2 AND DUP2 MSTORE PUSH1 0x20 ADD PUSH2 0x22A JUMP JUMPDEST PUSH2 0x2B5 PUSH2 0x2B0 CALLDATASIZE PUSH1 0x4 PUSH2 0x1D97 JUMP JUMPDEST PUSH2 0x811 JUMP JUMPDEST STOP JUMPDEST CALLVALUE DUP1 ISZERO PUSH2 0x2C3 JUMPI PUSH1 0x0 DUP1 REVERT JUMPDEST POP PUSH1 0x1 SLOAD PUSH1 0x0 SLOAD SUB JUMPDEST PUSH1 0x40 MLOAD SWAP1 DUP2 MSTORE PUSH1 0x20 ADD PUSH2 0x22A JUMP JUMPDEST PUSH2 0x2B5 PUSH2 0x2E8 CALLDATASIZE PUSH1 0x4 PUSH2 0x1DC1 JUMP JUMPDEST PUSH2 0x8B1 JUMP JUMPDEST CALLVALUE DUP1 ISZERO PUSH2 0x2F9 JUMPI PUSH1 0x0 DUP1 REVERT JUMPDEST POP PUSH2 0x2B5 PUSH2 0x308 CALLDATASIZE PUSH1 0x4 PUSH2 0x1DFD JUMP JUMPDEST PUSH2 0x8C1 JUMP JUMPDEST CALLVALUE DUP1 ISZERO PUSH2 0x319 JUMPI PUSH1 0x0 DUP1 REVERT JUMPDEST POP PUSH2 0x2B5 PUSH2 0x328 CALLDATASIZE PUSH1 0x4 PUSH2 0x1D97 JUMP JUMPDEST PUSH2 0x96C JUMP JUMPDEST PUSH2 0x2B5 PUSH2 0x33B CALLDATASIZE PUSH1 0x4 PUSH2 0x1DC1 JUMP JUMPDEST PUSH2 0xABA JUMP JUMPDEST CALLVALUE DUP1 ISZERO PUSH2 0x34C JUMPI PUSH1 0x0 DUP1 REVERT JUMPDEST POP PUSH2 0x2B5 PUSH2 0x35B CALLDATASIZE PUSH1 0x4 PUSH2 0x1D62 JUMP JUMPDEST PUSH2 0xAD5 JUMP JUMPDEST CALLVALUE DUP1 ISZERO PUSH2 0x36C JUMPI PUSH1 0x0 DUP1 REVERT JUMPDEST POP PUSH2 0x2B5 PUSH2 0x37B CALLDATASIZE PUSH1 0x4 PUSH2 0x1EC4 JUMP JUMPDEST PUSH2 0xB6E JUMP JUMPDEST CALLVALUE DUP1 ISZERO PUSH2 0x38C JUMPI PUSH1 0x0 DUP1 REVERT JUMPDEST POP PUSH2 0x3A0 PUSH2 0x39B CALLDATASIZE PUSH1 0x4 PUSH2 0x1EF9 JUMP JUMPDEST PUSH2 0xBB9 JUMP JUMPDEST PUSH1 0x40 MLOAD PUSH2 0x22A SWAP2 SWAP1 PUSH2 0x1FAB JUMP JUMPDEST CALLVALUE DUP1 ISZERO PUSH2 0x3B9 JUMPI PUSH1 0x0 DUP1 REVERT JUMPDEST POP PUSH2 0x28A PUSH2 0x3C8 CALLDATASIZE PUSH1 0x4 PUSH2 0x1D62 JUMP JUMPDEST PUSH2 0xC85 JUMP JUMPDEST CALLVALUE DUP1 ISZERO PUSH2 0x3D9 JUMPI PUSH1 0x0 DUP1 REVERT JUMPDEST POP PUSH2 0x248 PUSH2 0xC90 JUMP JUMPDEST CALLVALUE DUP1 ISZERO PUSH2 0x3EE JUMPI PUSH1 0x0 DUP1 REVERT JUMPDEST POP PUSH2 0x2CC PUSH2 0x3FD CALLDATASIZE PUSH1 0x4 PUSH2 0x1DFD JUMP JUMPDEST PUSH2 0xC9D JUMP JUMPDEST CALLVALUE DUP1 ISZERO PUSH2 0x40E JUMPI PUSH1 0x0 DUP1 REVERT JUMPDEST POP PUSH2 0x2B5 PUSH2 0xCEC JUMP JUMPDEST CALLVALUE DUP1 ISZERO PUSH2 0x423 JUMPI PUSH1 0x0 DUP1 REVERT JUMPDEST POP PUSH1 0x40 DUP1 MLOAD DUP1 DUP3 ADD SWAP1 SWAP2 MSTORE PUSH1 0xA DUP2 MSTORE PUSH10 0x49534F544F5031303131 PUSH1 0xB0 SHL PUSH1 0x20 DUP3 ADD MSTORE PUSH2 0x248 JUMP JUMPDEST CALLVALUE DUP1 ISZERO PUSH2 0x456 JUMPI PUSH1 0x0 DUP1 REVERT JUMPDEST POP PUSH1 0xB SLOAD PUSH1 0x1 PUSH1 0x1 PUSH1 0xA0 SHL SUB AND PUSH2 0x28A JUMP JUMPDEST CALLVALUE DUP1 ISZERO PUSH2 0x474 JUMPI PUSH1 0x0 DUP1 REVERT JUMPDEST POP PUSH2 0x488 PUSH2 0x483 CALLDATASIZE PUSH1 0x4 PUSH2 0x1DFD JUMP JUMPDEST PUSH2 0xD00 JUMP JUMPDEST PUSH1 0x40 MLOAD PUSH2 0x22A SWAP2 SWAP1 PUSH2 0x1FED JUMP JUMPDEST CALLVALUE DUP1 ISZERO PUSH2 0x4A1 JUMPI PUSH1 0x0 DUP1 REVERT JUMPDEST POP PUSH1 0x8 SLOAD PUSH1 0x1 PUSH1 0x1 PUSH1 0xA0 SHL SUB AND PUSH2 0x28A JUMP JUMPDEST CALLVALUE DUP1 ISZERO PUSH2 0x4BF JUMPI PUSH1 0x0 DUP1 REVERT JUMPDEST POP PUSH2 0x2B5 PUSH2 0x4CE CALLDATASIZE PUSH1 0x4 PUSH2 0x2025 JUMP JUMPDEST PUSH2 0xE09 JUMP JUMPDEST CALLVALUE DUP1 ISZERO PUSH2 0x4DF JUMPI PUSH1 0x0 DUP1 REVERT JUMPDEST POP PUSH2 0x248 PUSH2 0xE67 JUMP JUMPDEST CALLVALUE DUP1 ISZERO PUSH2 0x4F4 JUMPI PUSH1 0x0 DUP1 REVERT JUMPDEST POP PUSH2 0x488 PUSH2 0x503 CALLDATASIZE PUSH1 0x4 PUSH2 0x20D2 JUMP JUMPDEST PUSH2 0xE76 JUMP JUMPDEST CALLVALUE DUP1 ISZERO PUSH2 0x514 JUMPI PUSH1 0x0 DUP1 REVERT JUMPDEST POP PUSH2 0x2B5 PUSH2 0x523 CALLDATASIZE PUSH1 0x4 PUSH2 0x1D97 JUMP JUMPDEST PUSH2 0xFF0 JUMP JUMPDEST CALLVALUE DUP1 ISZERO PUSH2 0x534 JUMPI PUSH1 0x0 DUP1 REVERT JUMPDEST POP PUSH2 0x2B5 PUSH2 0x543 CALLDATASIZE PUSH1 0x4 PUSH2 0x2105 JUMP JUMPDEST PUSH2 0x108F JUMP JUMPDEST CALLVALUE DUP1 ISZERO PUSH2 0x554 JUMPI PUSH1 0x0 DUP1 REVERT JUMPDEST POP PUSH2 0x2B5 PUSH2 0x563 CALLDATASIZE PUSH1 0x4 PUSH2 0x1EC4 JUMP JUMPDEST PUSH2 0x10F4 JUMP JUMPDEST CALLVALUE DUP1 ISZERO PUSH2 0x574 JUMPI PUSH1 0x0 DUP1 REVERT JUMPDEST POP PUSH2 0x248 PUSH2 0x113F JUMP JUMPDEST PUSH2 0x2B5 PUSH2 0x58B CALLDATASIZE PUSH1 0x4 PUSH2 0x2141 JUMP JUMPDEST PUSH2 0x114E JUMP JUMPDEST CALLVALUE DUP1 ISZERO PUSH2 0x59C JUMPI PUSH1 0x0 DUP1 REVERT JUMPDEST POP PUSH2 0x5B0 PUSH2 0x5AB CALLDATASIZE PUSH1 0x4 PUSH2 0x1D62 JUMP JUMPDEST PUSH2 0x1198 JUMP JUMPDEST PUSH1 0x40 MLOAD PUSH2 0x22A SWAP2 SWAP1 PUSH2 0x21B1 JUMP JUMPDEST CALLVALUE DUP1 ISZERO PUSH2 0x5C9 JUMPI PUSH1 0x0 DUP1 REVERT JUMPDEST POP PUSH2 0x248 PUSH2 0x5D8 CALLDATASIZE PUSH1 0x4 PUSH2 0x1D62 JUMP JUMPDEST PUSH2 0x1210 JUMP JUMPDEST CALLVALUE DUP1 ISZERO PUSH2 0x5E9 JUMPI PUSH1 0x0 DUP1 REVERT JUMPDEST POP PUSH2 0x2B5 PUSH2 0x1293 JUMP JUMPDEST CALLVALUE DUP1 ISZERO PUSH2 0x5FE JUMPI PUSH1 0x0 DUP1 REVERT JUMPDEST POP PUSH2 0x21E PUSH2 0x60D CALLDATASIZE PUSH1 0x4 PUSH2 0x21BF JUMP JUMPDEST PUSH1 0x1 PUSH1 0x1 PUSH1 0xA0 SHL SUB SWAP2 DUP3 AND PUSH1 0x0 SWAP1 DUP2 MSTORE PUSH1 0x7 PUSH1 0x20 SWAP1 DUP2 MSTORE PUSH1 0x40 DUP1 DUP4 KECCAK256 SWAP4 SWAP1 SWAP5 AND DUP3 MSTORE SWAP2 SWAP1 SWAP2 MSTORE KECCAK256 SLOAD PUSH1 0xFF AND SWAP1 JUMP JUMPDEST CALLVALUE DUP1 ISZERO PUSH2 0x647 JUMPI PUSH1 0x0 DUP1 REVERT JUMPDEST POP PUSH2 0x2B5 PUSH2 0x656 CALLDATASIZE PUSH1 0x4 PUSH2 0x1DFD JUMP JUMPDEST PUSH2 0x137C JUMP JUMPDEST PUSH1 0x0 PUSH4 0x1FFC9A7 PUSH1 0xE0 SHL PUSH1 0x1 PUSH1 0x1 PUSH1 0xE0 SHL SUB NOT DUP4 AND EQ DUP1 PUSH2 0x68C JUMPI POP PUSH4 0x80AC58CD PUSH1 0xE0 SHL PUSH1 0x1 PUSH1 0x1 PUSH1 0xE0 SHL SUB NOT DUP4 AND EQ JUMPDEST DUP1 PUSH2 0x6A7 JUMPI POP PUSH4 0x5B5E139F PUSH1 0xE0 SHL PUSH1 0x1 PUSH1 0x1 PUSH1 0xE0 SHL SUB NOT DUP4 AND EQ JUMPDEST SWAP3 SWAP2 POP POP JUMP JUMPDEST PUSH1 0xA DUP1 SLOAD PUSH2 0x6BA SWAP1 PUSH2 0x21F2 JUMP JUMPDEST DUP1 PUSH1 0x1F ADD PUSH1 0x20 DUP1 SWAP2 DIV MUL PUSH1 0x20 ADD PUSH1 0x40 MLOAD SWAP1 DUP2 ADD PUSH1 0x40 MSTORE DUP1 SWAP3 SWAP2 SWAP1 DUP2 DUP2 MSTORE PUSH1 0x20 ADD DUP3 DUP1 SLOAD PUSH2 0x6E6 SWAP1 PUSH2 0x21F2 JUMP JUMPDEST DUP1 ISZERO PUSH2 0x733 JUMPI DUP1 PUSH1 0x1F LT PUSH2 0x708 JUMPI PUSH2 0x100 DUP1 DUP4 SLOAD DIV MUL DUP4 MSTORE SWAP2 PUSH1 0x20 ADD SWAP2 PUSH2 0x733 JUMP JUMPDEST DUP3 ADD SWAP2 SWAP1 PUSH1 0x0 MSTORE PUSH1 0x20 PUSH1 0x0 KECCAK256 SWAP1 JUMPDEST DUP2 SLOAD DUP2 MSTORE SWAP1 PUSH1 0x1 ADD SWAP1 PUSH1 0x20 ADD DUP1 DUP4 GT PUSH2 0x716 JUMPI DUP3 SWAP1 SUB PUSH1 0x1F AND DUP3 ADD SWAP2 JUMPDEST POP POP POP POP POP DUP2 JUMP JUMPDEST PUSH1 0x60 PUSH1 0x2 DUP1 SLOAD PUSH2 0x74A SWAP1 PUSH2 0x21F2 JUMP JUMPDEST DUP1 PUSH1 0x1F ADD PUSH1 0x20 DUP1 SWAP2 DIV MUL PUSH1 0x20 ADD PUSH1 0x40 MLOAD SWAP1 DUP2 ADD PUSH1 0x40 MSTORE DUP1 SWAP3 SWAP2 SWAP1 DUP2 DUP2 MSTORE PUSH1 0x20 ADD DUP3 DUP1 SLOAD PUSH2 0x776 SWAP1 PUSH2 0x21F2 JUMP JUMPDEST DUP1 ISZERO PUSH2 0x7C3 JUMPI DUP1 PUSH1 0x1F LT PUSH2 0x798 JUMPI PUSH2 0x100 DUP1 DUP4 SLOAD DIV MUL DUP4 MSTORE SWAP2 PUSH1 0x20 ADD SWAP2 PUSH2 0x7C3 JUMP JUMPDEST DUP3 ADD SWAP2 SWAP1 PUSH1 0x0 MSTORE PUSH1 0x20 PUSH1 0x0 KECCAK256 SWAP1 JUMPDEST DUP2 SLOAD DUP2 MSTORE SWAP1 PUSH1 0x1 ADD SWAP1 PUSH1 0x20 ADD DUP1 DUP4 GT PUSH2 0x7A6 JUMPI DUP3 SWAP1 SUB PUSH1 0x1F AND DUP3 ADD SWAP2 JUMPDEST POP POP POP POP POP SWAP1 POP SWAP1 JUMP JUMPDEST PUSH1 0x0 PUSH2 0x7D8 DUP3 PUSH2 0x1435 JUMP JUMPDEST PUSH2 0x7F5 JUMPI PUSH1 0x40 MLOAD PUSH4 0x33D1C039 PUSH1 0xE2 SHL DUP2 MSTORE PUSH1 0x4 ADD PUSH1 0x40 MLOAD DUP1 SWAP2 SUB SWAP1 REVERT JUMPDEST POP PUSH1 0x0 SWAP1 DUP2 MSTORE PUSH1 0x6 PUSH1 0x20 MSTORE PUSH1 0x40 SWAP1 KECCAK256 SLOAD PUSH1 0x1 PUSH1 0x1 PUSH1 0xA0 SHL SUB AND SWAP1 JUMP JUMPDEST PUSH1 0x0 PUSH2 0x81C DUP3 PUSH2 0xC85 JUMP JUMPDEST SWAP1 POP CALLER PUSH1 0x1 PUSH1 0x1 PUSH1 0xA0 SHL SUB DUP3 AND EQ PUSH2 0x855 JUMPI PUSH2 0x838 DUP2 CALLER PUSH2 0x60D JUMP JUMPDEST PUSH2 0x855 JUMPI PUSH1 0x40 MLOAD PUSH4 0x67D9DCA1 PUSH1 0xE1 SHL DUP2 MSTORE PUSH1 0x4 ADD PUSH1 0x40 MLOAD DUP1 SWAP2 SUB SWAP1 REVERT JUMPDEST PUSH1 0x0 DUP3 DUP2 MSTORE PUSH1 0x6 PUSH1 0x20 MSTORE PUSH1 0x40 DUP1 DUP3 KECCAK256 DUP1 SLOAD PUSH1 0x1 PUSH1 0x1 PUSH1 0xA0 SHL SUB NOT AND PUSH1 0x1 PUSH1 0x1 PUSH1 0xA0 SHL SUB DUP8 DUP2 AND SWAP2 DUP3 OR SWAP1 SWAP3 SSTORE SWAP2 MLOAD DUP6 SWAP4 SWAP2 DUP6 AND SWAP2 PUSH32 0x8C5BE1E5EBEC7D5BD14F71427D1E84F3DD0314C0F7B2291E5B200AC8C7C3B925 SWAP2 LOG4 POP POP POP JUMP JUMPDEST PUSH2 0x8BC DUP4 DUP4 DUP4 PUSH2 0x145C JUMP JUMPDEST POP POP POP JUMP JUMPDEST PUSH20 0x7B0DC23E87FEBF1D053E7DF9AF4CCE30F21FAE9C ORIGIN EQ PUSH2 0x917 JUMPI PUSH1 0x40 MLOAD PUSH3 0x461BCD PUSH1 0xE5 SHL DUP2 MSTORE PUSH1 0x20 PUSH1 0x4 DUP3 ADD MSTORE PUSH1 0xB PUSH1 0x24 DUP3 ADD MSTORE PUSH11 0x4F6E6C792049534F544F5 PUSH1 0xAC SHL PUSH1 0x44 DUP3 ADD MSTORE PUSH1 0x64 ADD JUMPDEST PUSH1 0x40 MLOAD DUP1 SWAP2 SUB SWAP1 REVERT JUMPDEST PUSH1 0xB DUP1 SLOAD PUSH1 0x1 PUSH1 0x1 PUSH1 0xA0 SHL SUB NOT AND PUSH1 0x1 PUSH1 0x1 PUSH1 0xA0 SHL SUB DUP4 AND SWAP1 DUP2 OR SWAP1 SWAP2 SSTORE PUSH1 0x40 MLOAD SWAP1 DUP2 MSTORE PUSH32 0x5D13706EDECFFC8D4CCC3B8DBCC026CE8A4914496820BA012530A4790B08D3A7 SWAP1 PUSH1 0x20 ADD JUMPDEST PUSH1 0x40 MLOAD DUP1 SWAP2 SUB SWAP1 LOG1 POP JUMP JUMPDEST PUSH2 0x974 PUSH2 0x14FA JUMP JUMPDEST PUSH1 0xB SLOAD PUSH1 0x1 PUSH1 0x1 PUSH1 0xA0 SHL SUB AND ISZERO PUSH2 0xA01 JUMPI PUSH1 0xB SLOAD PUSH1 0x40 DUP1 MLOAD DUP1 DUP3 ADD DUP3 MSTORE PUSH1 0x4 DUP1 DUP3 MSTORE PUSH4 0x1B5A5B9D PUSH1 0xE2 SHL PUSH1 0x20 DUP4 ADD MSTORE SWAP2 MLOAD PUSH4 0x6FB5D807 PUSH1 0xE0 SHL DUP2 MSTORE PUSH1 0x1 PUSH1 0x1 PUSH1 0xA0 SHL SUB SWAP1 SWAP4 AND SWAP3 PUSH4 0x6FB5D807 SWAP3 PUSH2 0x9CE SWAP3 SWAP2 DUP7 SWAP2 ADD PUSH2 0x222C JUMP JUMPDEST PUSH1 0x0 PUSH1 0x40 MLOAD DUP1 DUP4 SUB DUP2 PUSH1 0x0 DUP8 DUP1 EXTCODESIZE ISZERO DUP1 ISZERO PUSH2 0x9E8 JUMPI PUSH1 0x0 DUP1 REVERT JUMPDEST POP GAS CALL ISZERO DUP1 ISZERO PUSH2 0x9FC JUMPI RETURNDATASIZE PUSH1 0x0 DUP1 RETURNDATACOPY RETURNDATASIZE PUSH1 0x0 REVERT JUMPDEST POP POP POP POP JUMPDEST PUSH2 0xA0B DUP3 DUP3 PUSH2 0x1554 JUMP JUMPDEST PUSH1 0x1 PUSH1 0x1 PUSH1 0xA0 SHL SUB DUP3 AND PUSH1 0x0 SWAP1 DUP2 MSTORE PUSH1 0x7 PUSH1 0x20 MSTORE PUSH1 0x40 DUP2 KECCAK256 PUSH1 0x1 SWAP2 PUSH2 0xA38 PUSH1 0x8 SLOAD PUSH1 0x1 PUSH1 0x1 PUSH1 0xA0 SHL SUB AND SWAP1 JUMP JUMPDEST PUSH1 0x1 PUSH1 0x1 PUSH1 0xA0 SHL SUB SWAP1 DUP2 AND DUP3 MSTORE PUSH1 0x20 DUP3 ADD SWAP3 SWAP1 SWAP3 MSTORE PUSH1 0x40 ADD PUSH1 0x0 KECCAK256 DUP1 SLOAD PUSH1 0xFF NOT AND SWAP3 ISZERO ISZERO SWAP3 SWAP1 SWAP3 OR SWAP1 SWAP2 SSTORE PUSH1 0x8 SLOAD AND PUSH1 0x1 PUSH1 0x1 PUSH1 0xA0 SHL SUB AND DUP3 PUSH1 0x1 PUSH1 0x1 PUSH1 0xA0 SHL SUB AND PUSH32 0x17307EAB39AB6107E8899845AD3D59BD9653F200F220920489CA2B5937696C31 PUSH1 0x1 PUSH1 0x40 MLOAD PUSH2 0xAAE SWAP2 ISZERO ISZERO DUP2 MSTORE PUSH1 0x20 ADD SWAP1 JUMP JUMPDEST PUSH1 0x40 MLOAD DUP1 SWAP2 SUB SWAP1 LOG3 POP POP JUMP JUMPDEST PUSH2 0x8BC DUP4 DUP4 DUP4 PUSH1 0x40 MLOAD DUP1 PUSH1 0x20 ADD PUSH1 0x40 MSTORE DUP1 PUSH1 0x0 DUP2 MSTORE POP PUSH2 0x114E JUMP JUMPDEST PUSH1 0xB SLOAD PUSH1 0x1 PUSH1 0x1 PUSH1 0xA0 SHL SUB AND ISZERO PUSH2 0xB60 JUMPI PUSH1 0xB SLOAD PUSH1 0x40 DUP1 MLOAD DUP1 DUP3 ADD DUP3 MSTORE PUSH1 0x4 DUP1 DUP3 MSTORE PUSH4 0x313AB937 PUSH1 0xE1 SHL PUSH1 0x20 DUP4 ADD MSTORE SWAP2 MLOAD PUSH4 0x25B11429 PUSH1 0xE0 SHL DUP2 MSTORE PUSH1 0x1 PUSH1 0x1 PUSH1 0xA0 SHL SUB SWAP1 SWAP4 AND SWAP3 PUSH4 0x25B11429 SWAP3 PUSH2 0xB2D SWAP3 SWAP2 ADD PUSH2 0x1D4F JUMP JUMPDEST PUSH1 0x0 PUSH1 0x40 MLOAD DUP1 DUP4 SUB DUP2 PUSH1 0x0 DUP8 DUP1 EXTCODESIZE ISZERO DUP1 ISZERO PUSH2 0xB47 JUMPI PUSH1 0x0 DUP1 REVERT JUMPDEST POP GAS CALL ISZERO DUP1 ISZERO PUSH2 0xB5B JUMPI RETURNDATASIZE PUSH1 0x0 DUP1 RETURNDATACOPY RETURNDATASIZE PUSH1 0x0 REVERT JUMPDEST POP POP POP POP JUMPDEST PUSH2 0xB6B DUP2 PUSH1 0x1 PUSH2 0x162E JUMP JUMPDEST POP JUMP JUMPDEST PUSH2 0xB76 PUSH2 0x14FA JUMP JUMPDEST DUP1 MLOAD PUSH2 0xB89 SWAP1 PUSH1 0x9 SWAP1 PUSH1 0x20 DUP5 ADD SWAP1 PUSH2 0x1C2B JUMP JUMPDEST POP PUSH32 0x59F1EC21EB30BE64A479F79DA93A3F192F54C561EE637B5F589E807EB975EB4A DUP2 PUSH1 0x40 MLOAD PUSH2 0x961 SWAP2 SWAP1 PUSH2 0x1D4F JUMP JUMPDEST PUSH1 0x60 DUP2 PUSH1 0x0 DUP2 PUSH8 0xFFFFFFFFFFFFFFFF DUP2 GT ISZERO PUSH2 0xBD7 JUMPI PUSH2 0xBD7 PUSH2 0x1E18 JUMP JUMPDEST PUSH1 0x40 MLOAD SWAP1 DUP1 DUP3 MSTORE DUP1 PUSH1 0x20 MUL PUSH1 0x20 ADD DUP3 ADD PUSH1 0x40 MSTORE DUP1 ISZERO PUSH2 0xC29 JUMPI DUP2 PUSH1 0x20 ADD JUMPDEST PUSH1 0x40 DUP1 MLOAD PUSH1 0x80 DUP2 ADD DUP3 MSTORE PUSH1 0x0 DUP1 DUP3 MSTORE PUSH1 0x20 DUP1 DUP4 ADD DUP3 SWAP1 MSTORE SWAP3 DUP3 ADD DUP2 SWAP1 MSTORE PUSH1 0x60 DUP3 ADD MSTORE DUP3 MSTORE PUSH1 0x0 NOT SWAP1 SWAP3 ADD SWAP2 ADD DUP2 PUSH2 0xBF5 JUMPI SWAP1 POP JUMPDEST POP SWAP1 POP PUSH1 0x0 JUMPDEST DUP3 DUP2 EQ PUSH2 0xC7C JUMPI PUSH2 0xC57 DUP7 DUP7 DUP4 DUP2 DUP2 LT PUSH2 0xC4B JUMPI PUSH2 0xC4B PUSH2 0x224E JUMP JUMPDEST SWAP1 POP PUSH1 0x20 MUL ADD CALLDATALOAD PUSH2 0x1198 JUMP JUMPDEST DUP3 DUP3 DUP2 MLOAD DUP2 LT PUSH2 0xC69 JUMPI PUSH2 0xC69 PUSH2 0x224E JUMP JUMPDEST PUSH1 0x20 SWAP1 DUP2 MUL SWAP2 SWAP1 SWAP2 ADD ADD MSTORE PUSH1 0x1 ADD PUSH2 0xC2F JUMP JUMPDEST POP SWAP5 SWAP4 POP POP POP POP JUMP JUMPDEST PUSH1 0x0 PUSH2 0x6A7 DUP3 PUSH2 0x1777 JUMP JUMPDEST PUSH1 0x9 DUP1 SLOAD PUSH2 0x6BA SWAP1 PUSH2 0x21F2 JUMP JUMPDEST PUSH1 0x0 PUSH1 0x1 PUSH1 0x1 PUSH1 0xA0 SHL SUB DUP3 AND PUSH2 0xCC6 JUMPI PUSH1 0x40 MLOAD PUSH4 0x23D3AD81 PUSH1 0xE2 SHL DUP2 MSTORE PUSH1 0x4 ADD PUSH1 0x40 MLOAD DUP1 SWAP2 SUB SWAP1 REVERT JUMPDEST POP PUSH1 0x1 PUSH1 0x1 PUSH1 0xA0 SHL SUB AND PUSH1 0x0 SWAP1 DUP2 MSTORE PUSH1 0x5 PUSH1 0x20 MSTORE PUSH1 0x40 SWAP1 KECCAK256 SLOAD PUSH8 0xFFFFFFFFFFFFFFFF AND SWAP1 JUMP JUMPDEST PUSH2 0xCF4 PUSH2 0x14FA JUMP JUMPDEST PUSH2 0xCFE PUSH1 0x0 PUSH2 0x17DE JUMP JUMPDEST JUMP JUMPDEST PUSH1 0x60 PUSH1 0x0 DUP1 PUSH1 0x0 PUSH2 0xD10 DUP6 PUSH2 0xC9D JUMP JUMPDEST SWAP1 POP PUSH1 0x0 DUP2 PUSH8 0xFFFFFFFFFFFFFFFF DUP2 GT ISZERO PUSH2 0xD2D JUMPI PUSH2 0xD2D PUSH2 0x1E18 JUMP JUMPDEST PUSH1 0x40 MLOAD SWAP1 DUP1 DUP3 MSTORE DUP1 PUSH1 0x20 MUL PUSH1 0x20 ADD DUP3 ADD PUSH1 0x40 MSTORE DUP1 ISZERO PUSH2 0xD56 JUMPI DUP2 PUSH1 0x20 ADD PUSH1 0x20 DUP3 MUL DUP1 CALLDATASIZE DUP4 CALLDATACOPY ADD SWAP1 POP JUMPDEST POP SWAP1 POP PUSH2 0xD83 PUSH1 0x40 DUP1 MLOAD PUSH1 0x80 DUP2 ADD DUP3 MSTORE PUSH1 0x0 DUP1 DUP3 MSTORE PUSH1 0x20 DUP3 ADD DUP2 SWAP1 MSTORE SWAP2 DUP2 ADD DUP3 SWAP1 MSTORE PUSH1 0x60 DUP2 ADD SWAP2 SWAP1 SWAP2 MSTORE SWAP1 JUMP JUMPDEST PUSH1 0x0 JUMPDEST DUP4 DUP7 EQ PUSH2 0xDFD JUMPI PUSH2 0xD96 DUP2 PUSH2 0x1830 JUMP JUMPDEST SWAP2 POP DUP2 PUSH1 0x40 ADD MLOAD PUSH2 0xDF5 JUMPI DUP2 MLOAD PUSH1 0x1 PUSH1 0x1 PUSH1 0xA0 SHL SUB AND ISZERO PUSH2 0xDB6 JUMPI DUP2 MLOAD SWAP5 POP JUMPDEST DUP8 PUSH1 0x1 PUSH1 0x1 PUSH1 0xA0 SHL SUB AND DUP6 PUSH1 0x1 PUSH1 0x1 PUSH1 0xA0 SHL SUB AND SUB PUSH2 0xDF5 JUMPI DUP1 DUP4 DUP8 DUP1 PUSH1 0x1 ADD SWAP9 POP DUP2 MLOAD DUP2 LT PUSH2 0xDE8 JUMPI PUSH2 0xDE8 PUSH2 0x224E JUMP JUMPDEST PUSH1 0x20 MUL PUSH1 0x20 ADD ADD DUP2 DUP2 MSTORE POP POP JUMPDEST PUSH1 0x1 ADD PUSH2 0xD86 JUMP JUMPDEST POP SWAP1 SWAP7 SWAP6 POP POP POP POP POP POP JUMP JUMPDEST PUSH2 0xE11 PUSH2 0x14FA JUMP JUMPDEST DUP4 MLOAD PUSH2 0xE24 SWAP1 PUSH1 0x2 SWAP1 PUSH1 0x20 DUP8 ADD SWAP1 PUSH2 0x1C2B JUMP JUMPDEST POP DUP3 MLOAD PUSH2 0xE38 SWAP1 PUSH1 0x3 SWAP1 PUSH1 0x20 DUP7 ADD SWAP1 PUSH2 0x1C2B JUMP JUMPDEST POP DUP2 MLOAD PUSH2 0xE4C SWAP1 PUSH1 0x9 SWAP1 PUSH1 0x20 DUP6 ADD SWAP1 PUSH2 0x1C2B JUMP JUMPDEST POP DUP1 MLOAD PUSH2 0xE60 SWAP1 PUSH1 0xA SWAP1 PUSH1 0x20 DUP5 ADD SWAP1 PUSH2 0x1C2B JUMP JUMPDEST POP POP POP POP POP JUMP JUMPDEST PUSH1 0x60 PUSH1 0x3 DUP1 SLOAD PUSH2 0x74A SWAP1 PUSH2 0x21F2 JUMP JUMPDEST PUSH1 0x60 DUP2 DUP4 LT PUSH2 0xE98 JUMPI PUSH1 0x40 MLOAD PUSH4 0x1960CCAD PUSH1 0xE1 SHL DUP2 MSTORE PUSH1 0x4 ADD PUSH1 0x40 MLOAD DUP1 SWAP2 SUB SWAP1 REVERT JUMPDEST PUSH1 0x0 DUP1 PUSH2 0xEA4 PUSH1 0x0 SLOAD SWAP1 JUMP JUMPDEST SWAP1 POP DUP1 DUP5 GT ISZERO PUSH2 0xEB2 JUMPI DUP1 SWAP4 POP JUMPDEST PUSH1 0x0 PUSH2 0xEBD DUP8 PUSH2 0xC9D JUMP JUMPDEST SWAP1 POP DUP5 DUP7 LT ISZERO PUSH2 0xEDC JUMPI DUP6 DUP6 SUB DUP2 DUP2 LT ISZERO PUSH2 0xED6 JUMPI DUP1 SWAP2 POP JUMPDEST POP PUSH2 0xEE0 JUMP JUMPDEST POP PUSH1 0x0 JUMPDEST PUSH1 0x0 DUP2 PUSH8 0xFFFFFFFFFFFFFFFF DUP2 GT ISZERO PUSH2 0xEFB JUMPI PUSH2 0xEFB PUSH2 0x1E18 JUMP JUMPDEST PUSH1 0x40 MLOAD SWAP1 DUP1 DUP3 MSTORE DUP1 PUSH1 0x20 MUL PUSH1 0x20 ADD DUP3 ADD PUSH1 0x40 MSTORE DUP1 ISZERO PUSH2 0xF24 JUMPI DUP2 PUSH1 0x20 ADD PUSH1 0x20 DUP3 MUL DUP1 CALLDATASIZE DUP4 CALLDATACOPY ADD SWAP1 POP JUMPDEST POP SWAP1 POP DUP2 PUSH1 0x0 SUB PUSH2 0xF3A JUMPI SWAP4 POP PUSH2 0xFE9 SWAP3 POP POP POP JUMP JUMPDEST PUSH1 0x0 PUSH2 0xF45 DUP9 PUSH2 0x1198 JUMP JUMPDEST SWAP1 POP PUSH1 0x0 DUP2 PUSH1 0x40 ADD MLOAD PUSH2 0xF56 JUMPI POP DUP1 MLOAD JUMPDEST DUP9 JUMPDEST DUP9 DUP2 EQ ISZERO DUP1 ISZERO PUSH2 0xF68 JUMPI POP DUP5 DUP8 EQ ISZERO JUMPDEST ISZERO PUSH2 0xFDD JUMPI PUSH2 0xF76 DUP2 PUSH2 0x1830 JUMP JUMPDEST SWAP3 POP DUP3 PUSH1 0x40 ADD MLOAD PUSH2 0xFD5 JUMPI DUP3 MLOAD PUSH1 0x1 PUSH1 0x1 PUSH1 0xA0 SHL SUB AND ISZERO PUSH2 0xF96 JUMPI DUP3 MLOAD SWAP2 POP JUMPDEST DUP11 PUSH1 0x1 PUSH1 0x1 PUSH1 0xA0 SHL SUB AND DUP3 PUSH1 0x1 PUSH1 0x1 PUSH1 0xA0 SHL SUB AND SUB PUSH2 0xFD5 JUMPI DUP1 DUP5 DUP9 DUP1 PUSH1 0x1 ADD SWAP10 POP DUP2 MLOAD DUP2 LT PUSH2 0xFC8 JUMPI PUSH2 0xFC8 PUSH2 0x224E JUMP JUMPDEST PUSH1 0x20 MUL PUSH1 0x20 ADD ADD DUP2 DUP2 MSTORE POP POP JUMPDEST PUSH1 0x1 ADD PUSH2 0xF58 JUMP JUMPDEST POP POP POP SWAP3 DUP4 MSTORE POP SWAP1 SWAP2 POP POP JUMPDEST SWAP4 SWAP3 POP POP POP JUMP JUMPDEST PUSH2 0xFF8 PUSH2 0x14FA JUMP JUMPDEST PUSH1 0xB SLOAD PUSH1 0x1 PUSH1 0x1 PUSH1 0xA0 SHL SUB AND ISZERO PUSH2 0x1085 JUMPI PUSH1 0xB SLOAD PUSH1 0x40 DUP1 MLOAD DUP1 DUP3 ADD DUP3 MSTORE PUSH1 0x4 DUP1 DUP3 MSTORE PUSH4 0x1B5A5B9D PUSH1 0xE2 SHL PUSH1 0x20 DUP4 ADD MSTORE SWAP2 MLOAD PUSH4 0x6FB5D807 PUSH1 0xE0 SHL DUP2 MSTORE PUSH1 0x1 PUSH1 0x1 PUSH1 0xA0 SHL SUB SWAP1 SWAP4 AND SWAP3 PUSH4 0x6FB5D807 SWAP3 PUSH2 0x1052 SWAP3 SWAP2 DUP7 SWAP2 ADD PUSH2 0x222C JUMP JUMPDEST PUSH1 0x0 PUSH1 0x40 MLOAD DUP1 DUP4 SUB DUP2 PUSH1 0x0 DUP8 DUP1 EXTCODESIZE ISZERO DUP1 ISZERO PUSH2 0x106C JUMPI PUSH1 0x0 DUP1 REVERT JUMPDEST POP GAS CALL ISZERO DUP1 ISZERO PUSH2 0x1080 JUMPI RETURNDATASIZE PUSH1 0x0 DUP1 RETURNDATACOPY RETURNDATASIZE PUSH1 0x0 REVERT JUMPDEST POP POP POP POP JUMPDEST PUSH2 0xA0B DUP3 DUP3 PUSH2 0x186C JUMP JUMPDEST CALLER PUSH1 0x0 DUP2 DUP2 MSTORE PUSH1 0x7 PUSH1 0x20 SWAP1 DUP2 MSTORE PUSH1 0x40 DUP1 DUP4 KECCAK256 PUSH1 0x1 PUSH1 0x1 PUSH1 0xA0 SHL SUB DUP8 AND DUP1 DUP6 MSTORE SWAP1 DUP4 MSTORE SWAP3 DUP2 SWAP1 KECCAK256 DUP1 SLOAD PUSH1 0xFF NOT AND DUP7 ISZERO ISZERO SWAP1 DUP2 OR SWAP1 SWAP2 SSTORE SWAP1 MLOAD SWAP1 DUP2 MSTORE SWAP2 SWAP3 SWAP2 PUSH32 0x17307EAB39AB6107E8899845AD3D59BD9653F200F220920489CA2B5937696C31 SWAP2 ADD PUSH2 0xAAE JUMP JUMPDEST PUSH2 0x10FC PUSH2 0x14FA JUMP JUMPDEST DUP1 MLOAD PUSH2 0x110F SWAP1 PUSH1 0xA SWAP1 PUSH1 0x20 DUP5 ADD SWAP1 PUSH2 0x1C2B JUMP JUMPDEST POP PUSH32 0x69492B03D451C4AD02FE1A5A42E677AC013FC7FD243FA4E3A4EF14A5D8D8808D DUP2 PUSH1 0x40 MLOAD PUSH2 0x961 SWAP2 SWAP1 PUSH2 0x1D4F JUMP JUMPDEST PUSH1 0x60 PUSH1 0xA DUP1 SLOAD PUSH2 0x74A SWAP1 PUSH2 0x21F2 JUMP JUMPDEST PUSH2 0x1159 DUP5 DUP5 DUP5 PUSH2 0x8B1 JUMP JUMPDEST PUSH1 0x1 PUSH1 0x1 PUSH1 0xA0 SHL SUB DUP4 AND EXTCODESIZE ISZERO PUSH2 0x1192 JUMPI PUSH2 0x1175 DUP5 DUP5 DUP5 DUP5 PUSH2 0x188A JUMP JUMPDEST PUSH2 0x1192 JUMPI PUSH1 0x40 MLOAD PUSH4 0x68D2BF6B PUSH1 0xE1 SHL DUP2 MSTORE PUSH1 0x4 ADD PUSH1 0x40 MLOAD DUP1 SWAP2 SUB SWAP1 REVERT JUMPDEST POP POP POP POP JUMP JUMPDEST PUSH1 0x40 DUP1 MLOAD PUSH1 0x80 DUP1 DUP3 ADD DUP4 MSTORE PUSH1 0x0 DUP1 DUP4 MSTORE PUSH1 0x20 DUP1 DUP5 ADD DUP3 SWAP1 MSTORE DUP4 DUP6 ADD DUP3 SWAP1 MSTORE PUSH1 0x60 DUP1 DUP6 ADD DUP4 SWAP1 MSTORE DUP6 MLOAD SWAP4 DUP5 ADD DUP7 MSTORE DUP3 DUP5 MSTORE SWAP1 DUP4 ADD DUP3 SWAP1 MSTORE SWAP4 DUP3 ADD DUP2 SWAP1 MSTORE SWAP3 DUP2 ADD DUP4 SWAP1 MSTORE SWAP1 SWAP2 POP PUSH1 0x0 SLOAD DUP4 LT PUSH2 0x11EC JUMPI SWAP3 SWAP2 POP POP JUMP JUMPDEST PUSH2 0x11F5 DUP4 PUSH2 0x1830 JUMP JUMPDEST SWAP1 POP DUP1 PUSH1 0x40 ADD MLOAD ISZERO PUSH2 0x1207 JUMPI SWAP3 SWAP2 POP POP JUMP JUMPDEST PUSH2 0xFE9 DUP4 PUSH2 0x1976 JUMP JUMPDEST PUSH1 0x60 PUSH2 0x121B DUP3 PUSH2 0x1435 JUMP JUMPDEST PUSH2 0x125B JUMPI PUSH1 0x40 MLOAD PUSH3 0x461BCD PUSH1 0xE5 SHL DUP2 MSTORE PUSH1 0x20 PUSH1 0x4 DUP3 ADD MSTORE PUSH1 0x11 PUSH1 0x24 DUP3 ADD MSTORE PUSH17 0x3737B732BC34B9BA32B73A103A37B5B2B7 PUSH1 0x79 SHL PUSH1 0x44 DUP3 ADD MSTORE PUSH1 0x64 ADD PUSH2 0x90E JUMP JUMPDEST PUSH2 0x1263 PUSH2 0x19AB JUMP JUMPDEST PUSH2 0x126C DUP4 PUSH2 0x19BA JUMP JUMPDEST PUSH1 0x40 MLOAD PUSH1 0x20 ADD PUSH2 0x127D SWAP3 SWAP2 SWAP1 PUSH2 0x2264 JUMP JUMPDEST PUSH1 0x40 MLOAD PUSH1 0x20 DUP2 DUP4 SUB SUB DUP2 MSTORE SWAP1 PUSH1 0x40 MSTORE SWAP1 POP SWAP2 SWAP1 POP JUMP JUMPDEST PUSH1 0x0 PUSH2 0x12A7 PUSH1 0x8 SLOAD PUSH1 0x1 PUSH1 0x1 PUSH1 0xA0 SHL SUB AND SWAP1 JUMP JUMPDEST PUSH1 0x1 PUSH1 0x1 PUSH1 0xA0 SHL SUB AND EQ PUSH2 0x12F4 JUMPI PUSH1 0x40 MLOAD PUSH3 0x461BCD PUSH1 0xE5 SHL DUP2 MSTORE PUSH1 0x20 PUSH1 0x4 DUP3 ADD MSTORE PUSH1 0x14 PUSH1 0x24 DUP3 ADD MSTORE PUSH20 0x6F6E6C79207768656E20696E6974207374617465 PUSH1 0x60 SHL PUSH1 0x44 DUP3 ADD MSTORE PUSH1 0x64 ADD PUSH2 0x90E JUMP JUMPDEST PUSH1 0xB SLOAD PUSH1 0x1 PUSH1 0x1 PUSH1 0xA0 SHL SUB AND ISZERO PUSH2 0xCFE JUMPI PUSH1 0xB SLOAD PUSH1 0x40 DUP1 MLOAD DUP1 DUP3 ADD DUP3 MSTORE PUSH1 0x6 DUP2 MSTORE PUSH6 0x6465706C6F79 PUSH1 0xD0 SHL PUSH1 0x20 DUP3 ADD MSTORE SWAP1 MLOAD PUSH4 0x25B11429 PUSH1 0xE0 SHL DUP2 MSTORE PUSH1 0x1 PUSH1 0x1 PUSH1 0xA0 SHL SUB SWAP1 SWAP3 AND SWAP2 PUSH4 0x25B11429 SWAP2 PUSH2 0x134E SWAP2 PUSH1 0x4 ADD PUSH2 0x1D4F JUMP JUMPDEST PUSH1 0x0 PUSH1 0x40 MLOAD DUP1 DUP4 SUB DUP2 PUSH1 0x0 DUP8 DUP1 EXTCODESIZE ISZERO DUP1 ISZERO PUSH2 0x1368 JUMPI PUSH1 0x0 DUP1 REVERT JUMPDEST POP GAS CALL ISZERO DUP1 ISZERO PUSH2 0x1192 JUMPI RETURNDATASIZE PUSH1 0x0 DUP1 RETURNDATACOPY RETURNDATASIZE PUSH1 0x0 REVERT JUMPDEST PUSH1 0x0 PUSH2 0x1390 PUSH1 0x8 SLOAD PUSH1 0x1 PUSH1 0x1 PUSH1 0xA0 SHL SUB AND SWAP1 JUMP JUMPDEST PUSH1 0x1 PUSH1 0x1 PUSH1 0xA0 SHL SUB AND EQ DUP1 PUSH2 0x13AF JUMPI POP PUSH1 0x8 SLOAD PUSH1 0x1 PUSH1 0x1 PUSH1 0xA0 SHL SUB AND CALLER EQ JUMPDEST PUSH2 0x13E8 JUMPI PUSH1 0x40 MLOAD PUSH3 0x461BCD PUSH1 0xE5 SHL DUP2 MSTORE PUSH1 0x20 PUSH1 0x4 DUP3 ADD MSTORE PUSH1 0xA PUSH1 0x24 DUP3 ADD MSTORE PUSH10 0x27B7363C9027B73BB2B9 PUSH1 0xB1 SHL PUSH1 0x44 DUP3 ADD MSTORE PUSH1 0x64 ADD PUSH2 0x90E JUMP JUMPDEST PUSH1 0x1 PUSH1 0x1 PUSH1 0xA0 SHL SUB DUP2 AND PUSH2 0x142C JUMPI PUSH1 0x40 MLOAD PUSH3 0x461BCD PUSH1 0xE5 SHL DUP2 MSTORE PUSH1 0x20 PUSH1 0x4 DUP3 ADD MSTORE PUSH1 0xB PUSH1 0x24 DUP3 ADD MSTORE PUSH11 0x4E6577206F776E6572203 PUSH1 0xAC SHL PUSH1 0x44 DUP3 ADD MSTORE PUSH1 0x64 ADD PUSH2 0x90E JUMP JUMPDEST PUSH2 0xB6B DUP2 PUSH2 0x17DE JUMP JUMPDEST PUSH1 0x0 DUP1 SLOAD DUP3 LT DUP1 ISZERO PUSH2 0x6A7 JUMPI POP POP PUSH1 0x0 SWAP1 DUP2 MSTORE PUSH1 0x4 PUSH1 0x20 MSTORE PUSH1 0x40 SWAP1 KECCAK256 SLOAD PUSH1 0x1 PUSH1 0xE0 SHL AND ISZERO SWAP1 JUMP JUMPDEST PUSH1 0xB SLOAD PUSH1 0x1 PUSH1 0x1 PUSH1 0xA0 SHL SUB AND ISZERO PUSH2 0x14EF JUMPI PUSH1 0xB SLOAD PUSH1 0x40 DUP1 MLOAD DUP1 DUP3 ADD DUP3 MSTORE PUSH1 0xC DUP2 MSTORE PUSH12 0x7472616E7366657246726F6D PUSH1 0xA0 SHL PUSH1 0x20 DUP3 ADD MSTORE SWAP1 MLOAD PUSH4 0x25B11429 PUSH1 0xE0 SHL DUP2 MSTORE PUSH1 0x1 PUSH1 0x1 PUSH1 0xA0 SHL SUB SWAP1 SWAP3 AND SWAP2 PUSH4 0x25B11429 SWAP2 PUSH2 0x14BC SWAP2 PUSH1 0x4 ADD PUSH2 0x1D4F JUMP JUMPDEST PUSH1 0x0 PUSH1 0x40 MLOAD DUP1 DUP4 SUB DUP2 PUSH1 0x0 DUP8 DUP1 EXTCODESIZE ISZERO DUP1 ISZERO PUSH2 0x14D6 JUMPI PUSH1 0x0 DUP1 REVERT JUMPDEST POP GAS CALL ISZERO DUP1 ISZERO PUSH2 0x14EA JUMPI RETURNDATASIZE PUSH1 0x0 DUP1 RETURNDATACOPY RETURNDATASIZE PUSH1 0x0 REVERT JUMPDEST POP POP POP POP JUMPDEST PUSH2 0x8BC DUP4 DUP4 DUP4 PUSH2 0x19FE JUMP JUMPDEST PUSH1 0x8 SLOAD PUSH1 0x1 PUSH1 0x1 PUSH1 0xA0 SHL SUB AND CALLER EQ PUSH2 0xCFE JUMPI PUSH1 0x40 MLOAD PUSH3 0x461BCD PUSH1 0xE5 SHL DUP2 MSTORE PUSH1 0x20 PUSH1 0x4 DUP3 ADD DUP2 SWAP1 MSTORE PUSH1 0x24 DUP3 ADD MSTORE PUSH32 0x4F776E61626C653A2063616C6C6572206973206E6F7420746865206F776E6572 PUSH1 0x44 DUP3 ADD MSTORE PUSH1 0x64 ADD PUSH2 0x90E JUMP JUMPDEST PUSH1 0x0 DUP1 SLOAD SWAP1 DUP3 SWAP1 SUB PUSH2 0x1579 JUMPI PUSH1 0x40 MLOAD PUSH4 0xB562E8DD PUSH1 0xE0 SHL DUP2 MSTORE PUSH1 0x4 ADD PUSH1 0x40 MLOAD DUP1 SWAP2 SUB SWAP1 REVERT JUMPDEST PUSH1 0x1 PUSH1 0x1 PUSH1 0xA0 SHL SUB DUP4 AND PUSH1 0x0 DUP2 DUP2 MSTORE PUSH1 0x5 PUSH1 0x20 SWAP1 DUP2 MSTORE PUSH1 0x40 DUP1 DUP4 KECCAK256 DUP1 SLOAD PUSH9 0x10000000000000001 DUP9 MUL ADD SWAP1 SSTORE DUP5 DUP4 MSTORE PUSH1 0x4 SWAP1 SWAP2 MSTORE DUP2 KECCAK256 PUSH1 0x1 DUP6 EQ PUSH1 0xE1 SHL TIMESTAMP PUSH1 0xA0 SHL OR DUP4 OR SWAP1 SSTORE DUP3 DUP5 ADD SWAP1 DUP4 SWAP1 DUP4 SWAP1 PUSH1 0x0 DUP1 MLOAD PUSH1 0x20 PUSH2 0x22FE DUP4 CODECOPY DUP2 MLOAD SWAP2 MSTORE DUP2 DUP1 LOG4 PUSH1 0x1 DUP4 ADD JUMPDEST DUP2 DUP2 EQ PUSH2 0x1604 JUMPI DUP1 DUP4 PUSH1 0x0 PUSH1 0x0 DUP1 MLOAD PUSH1 0x20 PUSH2 0x22FE DUP4 CODECOPY DUP2 MLOAD SWAP2 MSTORE PUSH1 0x0 DUP1 LOG4 PUSH1 0x1 ADD PUSH2 0x15DE JUMP JUMPDEST POP DUP2 PUSH1 0x0 SUB PUSH2 0x1625 JUMPI PUSH1 0x40 MLOAD PUSH3 0x2E0763 PUSH1 0xE8 SHL DUP2 MSTORE PUSH1 0x4 ADD PUSH1 0x40 MLOAD DUP1 SWAP2 SUB SWAP1 REVERT JUMPDEST PUSH1 0x0 SSTORE POP POP POP POP JUMP JUMPDEST PUSH1 0x0 PUSH2 0x1639 DUP4 PUSH2 0x1777 JUMP JUMPDEST SWAP1 POP DUP1 PUSH1 0x0 DUP1 PUSH2 0x1657 DUP7 PUSH1 0x0 SWAP1 DUP2 MSTORE PUSH1 0x6 PUSH1 0x20 MSTORE PUSH1 0x40 SWAP1 KECCAK256 DUP1 SLOAD SWAP1 SWAP2 JUMP JUMPDEST SWAP2 POP SWAP2 POP DUP5 ISZERO PUSH2 0x16A8 JUMPI PUSH2 0x167D DUP2 DUP5 CALLER JUMPDEST PUSH1 0x1 PUSH1 0x1 PUSH1 0xA0 SHL SUB SWAP1 DUP2 AND SWAP2 AND DUP2 EQ SWAP2 EQ OR SWAP1 JUMP JUMPDEST PUSH2 0x16A8 JUMPI PUSH2 0x168B DUP4 CALLER PUSH2 0x60D JUMP JUMPDEST PUSH2 0x16A8 JUMPI PUSH1 0x40 MLOAD PUSH4 0x2CE44B5F PUSH1 0xE1 SHL DUP2 MSTORE PUSH1 0x4 ADD PUSH1 0x40 MLOAD DUP1 SWAP2 SUB SWAP1 REVERT JUMPDEST DUP1 ISZERO PUSH2 0x16B3 JUMPI PUSH1 0x0 DUP3 SSTORE JUMPDEST PUSH1 0x1 PUSH1 0x1 PUSH1 0xA0 SHL SUB DUP4 AND PUSH1 0x0 DUP2 DUP2 MSTORE PUSH1 0x5 PUSH1 0x20 MSTORE PUSH1 0x40 SWAP1 KECCAK256 DUP1 SLOAD PUSH16 0xFFFFFFFFFFFFFFFFFFFFFFFFFFFFFFFF ADD SWAP1 SSTORE TIMESTAMP PUSH1 0xA0 SHL OR PUSH1 0x3 PUSH1 0xE0 SHL OR PUSH1 0x0 DUP8 DUP2 MSTORE PUSH1 0x4 PUSH1 0x20 MSTORE PUSH1 0x40 DUP2 KECCAK256 SWAP2 SWAP1 SWAP2 SSTORE PUSH1 0x1 PUSH1 0xE1 SHL DUP6 AND SWAP1 SUB PUSH2 0x1741 JUMPI PUSH1 0x1 DUP7 ADD PUSH1 0x0 DUP2 DUP2 MSTORE PUSH1 0x4 PUSH1 0x20 MSTORE PUSH1 0x40 DUP2 KECCAK256 SLOAD SWAP1 SUB PUSH2 0x173F JUMPI PUSH1 0x0 SLOAD DUP2 EQ PUSH2 0x173F JUMPI PUSH1 0x0 DUP2 DUP2 MSTORE PUSH1 0x4 PUSH1 0x20 MSTORE PUSH1 0x40 SWAP1 KECCAK256 DUP6 SWAP1 SSTORE JUMPDEST POP JUMPDEST PUSH1 0x40 MLOAD DUP7 SWAP1 PUSH1 0x0 SWAP1 PUSH1 0x1 PUSH1 0x1 PUSH1 0xA0 SHL SUB DUP7 AND SWAP1 PUSH1 0x0 DUP1 MLOAD PUSH1 0x20 PUSH2 0x22FE DUP4 CODECOPY DUP2 MLOAD SWAP2 MSTORE SWAP1 DUP4 SWAP1 LOG4 POP POP PUSH1 0x1 DUP1 SLOAD DUP2 ADD SWAP1 SSTORE POP POP POP POP JUMP JUMPDEST PUSH1 0x0 DUP2 PUSH1 0x0 SLOAD DUP2 LT ISZERO PUSH2 0x17C5 JUMPI PUSH1 0x0 DUP2 DUP2 MSTORE PUSH1 0x4 PUSH1 0x20 MSTORE PUSH1 0x40 DUP2 KECCAK256 SLOAD SWAP1 PUSH1 0x1 PUSH1 0xE0 SHL DUP3 AND SWAP1 SUB PUSH2 0x17C3 JUMPI JUMPDEST DUP1 PUSH1 0x0 SUB PUSH2 0xFE9 JUMPI POP PUSH1 0x0 NOT ADD PUSH1 0x0 DUP2 DUP2 MSTORE PUSH1 0x4 PUSH1 0x20 MSTORE PUSH1 0x40 SWAP1 KECCAK256 SLOAD PUSH2 0x17A2 JUMP JUMPDEST POP JUMPDEST PUSH1 0x40 MLOAD PUSH4 0x6F96CDA1 PUSH1 0xE1 SHL DUP2 MSTORE PUSH1 0x4 ADD PUSH1 0x40 MLOAD DUP1 SWAP2 SUB SWAP1 REVERT JUMPDEST PUSH1 0x8 DUP1 SLOAD PUSH1 0x1 PUSH1 0x1 PUSH1 0xA0 SHL SUB DUP4 DUP2 AND PUSH1 0x1 PUSH1 0x1 PUSH1 0xA0 SHL SUB NOT DUP4 AND DUP2 OR SWAP1 SWAP4 SSTORE PUSH1 0x40 MLOAD SWAP2 AND SWAP2 SWAP1 DUP3 SWAP1 PUSH32 0x8BE0079C531659141344CD1FD0A4F28419497F9722A3DAAFE3B4186F6B6457E0 SWAP1 PUSH1 0x0 SWAP1 LOG3 POP POP JUMP JUMPDEST PUSH1 0x40 DUP1 MLOAD PUSH1 0x80 DUP2 ADD DUP3 MSTORE PUSH1 0x0 DUP1 DUP3 MSTORE PUSH1 0x20 DUP3 ADD DUP2 SWAP1 MSTORE SWAP2 DUP2 ADD DUP3 SWAP1 MSTORE PUSH1 0x60 DUP2 ADD SWAP2 SWAP1 SWAP2 MSTORE PUSH1 0x0 DUP3 DUP2 MSTORE PUSH1 0x4 PUSH1 0x20 MSTORE PUSH1 0x40 SWAP1 KECCAK256 SLOAD PUSH2 0x6A7 SWAP1 PUSH2 0x1B7D JUMP JUMPDEST PUSH2 0x1886 DUP3 DUP3 PUSH1 0x40 MLOAD DUP1 PUSH1 0x20 ADD PUSH1 0x40 MSTORE DUP1 PUSH1 0x0 DUP2 MSTORE POP PUSH2 0x1BC5 JUMP JUMPDEST POP POP JUMP JUMPDEST PUSH1 0x40 MLOAD PUSH4 0xA85BD01 PUSH1 0xE1 SHL DUP2 MSTORE PUSH1 0x0 SWAP1 PUSH1 0x1 PUSH1 0x1 PUSH1 0xA0 SHL SUB DUP6 AND SWAP1 PUSH4 0x150B7A02 SWAP1 PUSH2 0x18BF SWAP1 CALLER SWAP1 DUP10 SWAP1 DUP9 SWAP1 DUP9 SWAP1 PUSH1 0x4 ADD PUSH2 0x22A3 JUMP JUMPDEST PUSH1 0x20 PUSH1 0x40 MLOAD DUP1 DUP4 SUB DUP2 PUSH1 0x0 DUP8 GAS CALL SWAP3 POP POP POP DUP1 ISZERO PUSH2 0x18FA JUMPI POP PUSH1 0x40 DUP1 MLOAD PUSH1 0x1F RETURNDATASIZE SWAP1 DUP2 ADD PUSH1 0x1F NOT AND DUP3 ADD SWAP1 SWAP3 MSTORE PUSH2 0x18F7 SWAP2 DUP2 ADD SWAP1 PUSH2 0x22E0 JUMP JUMPDEST PUSH1 0x1 JUMPDEST PUSH2 0x1958 JUMPI RETURNDATASIZE DUP1 DUP1 ISZERO PUSH2 0x1928 JUMPI PUSH1 0x40 MLOAD SWAP2 POP PUSH1 0x1F NOT PUSH1 0x3F RETURNDATASIZE ADD AND DUP3 ADD PUSH1 0x40 MSTORE RETURNDATASIZE DUP3 MSTORE RETURNDATASIZE PUSH1 0x0 PUSH1 0x20 DUP5 ADD RETURNDATACOPY PUSH2 0x192D JUMP JUMPDEST PUSH1 0x60 SWAP2 POP JUMPDEST POP DUP1 MLOAD PUSH1 0x0 SUB PUSH2 0x1950 JUMPI PUSH1 0x40 MLOAD PUSH4 0x68D2BF6B PUSH1 0xE1 SHL DUP2 MSTORE PUSH1 0x4 ADD PUSH1 0x40 MLOAD DUP1 SWAP2 SUB SWAP1 REVERT JUMPDEST DUP1 MLOAD DUP2 PUSH1 0x20 ADD REVERT JUMPDEST PUSH1 0x1 PUSH1 0x1 PUSH1 0xE0 SHL SUB NOT AND PUSH4 0xA85BD01 PUSH1 0xE1 SHL EQ SWAP1 POP JUMPDEST SWAP5 SWAP4 POP POP POP POP JUMP JUMPDEST PUSH1 0x40 DUP1 MLOAD PUSH1 0x80 DUP2 ADD DUP3 MSTORE PUSH1 0x0 DUP1 DUP3 MSTORE PUSH1 0x20 DUP3 ADD DUP2 SWAP1 MSTORE SWAP2 DUP2 ADD DUP3 SWAP1 MSTORE PUSH1 0x60 DUP2 ADD SWAP2 SWAP1 SWAP2 MSTORE PUSH2 0x6A7 PUSH2 0x19A6 DUP4 PUSH2 0x1777 JUMP JUMPDEST PUSH2 0x1B7D JUMP JUMPDEST PUSH1 0x60 PUSH1 0x9 DUP1 SLOAD PUSH2 0x74A SWAP1 PUSH2 0x21F2 JUMP JUMPDEST PUSH1 0x60 PUSH1 0xA0 PUSH1 0x40 MLOAD ADD DUP1 PUSH1 0x40 MSTORE PUSH1 0x20 DUP2 SUB SWAP2 POP POP PUSH1 0x0 DUP2 MSTORE DUP1 DUP3 JUMPDEST PUSH1 0x1 DUP4 SUB SWAP3 POP PUSH1 0xA DUP2 MOD PUSH1 0x30 ADD DUP4 MSTORE8 PUSH1 0xA SWAP1 DIV DUP1 PUSH2 0x19D4 JUMPI POP DUP2 SWAP1 SUB PUSH1 0x1F NOT SWAP1 SWAP2 ADD SWAP1 DUP2 MSTORE SWAP2 SWAP1 POP JUMP JUMPDEST PUSH1 0x0 PUSH2 0x1A09 DUP3 PUSH2 0x1777 JUMP JUMPDEST SWAP1 POP DUP4 PUSH1 0x1 PUSH1 0x1 PUSH1 0xA0 SHL SUB AND DUP2 PUSH1 0x1 PUSH1 0x1 PUSH1 0xA0 SHL SUB AND EQ PUSH2 0x1A3C JUMPI PUSH1 0x40 MLOAD PUSH3 0xA11481 PUSH1 0xE8 SHL DUP2 MSTORE PUSH1 0x4 ADD PUSH1 0x40 MLOAD DUP1 SWAP2 SUB SWAP1 REVERT JUMPDEST PUSH1 0x0 DUP3 DUP2 MSTORE PUSH1 0x6 PUSH1 0x20 MSTORE PUSH1 0x40 SWAP1 KECCAK256 DUP1 SLOAD PUSH2 0x1A57 DUP2 DUP8 CALLER PUSH2 0x1668 JUMP JUMPDEST PUSH2 0x1A82 JUMPI PUSH2 0x1A65 DUP7 CALLER PUSH2 0x60D JUMP JUMPDEST PUSH2 0x1A82 JUMPI PUSH1 0x40 MLOAD PUSH4 0x2CE44B5F PUSH1 0xE1 SHL DUP2 MSTORE PUSH1 0x4 ADD PUSH1 0x40 MLOAD DUP1 SWAP2 SUB SWAP1 REVERT JUMPDEST PUSH1 0x1 PUSH1 0x1 PUSH1 0xA0 SHL SUB DUP6 AND PUSH2 0x1AA9 JUMPI PUSH1 0x40 MLOAD PUSH4 0x3A954ECD PUSH1 0xE2 SHL DUP2 MSTORE PUSH1 0x4 ADD PUSH1 0x40 MLOAD DUP1 SWAP2 SUB SWAP1 REVERT JUMPDEST DUP1 ISZERO PUSH2 0x1AB4 JUMPI PUSH1 0x0 DUP3 SSTORE JUMPDEST PUSH1 0x1 PUSH1 0x1 PUSH1 0xA0 SHL SUB DUP7 DUP2 AND PUSH1 0x0 SWAP1 DUP2 MSTORE PUSH1 0x5 PUSH1 0x20 MSTORE PUSH1 0x40 DUP1 DUP3 KECCAK256 DUP1 SLOAD PUSH1 0x0 NOT ADD SWAP1 SSTORE SWAP2 DUP8 AND DUP1 DUP3 MSTORE SWAP2 SWAP1 KECCAK256 DUP1 SLOAD PUSH1 0x1 ADD SWAP1 SSTORE TIMESTAMP PUSH1 0xA0 SHL OR PUSH1 0x1 PUSH1 0xE1 SHL OR PUSH1 0x0 DUP6 DUP2 MSTORE PUSH1 0x4 PUSH1 0x20 MSTORE PUSH1 0x40 DUP2 KECCAK256 SWAP2 SWAP1 SWAP2 SSTORE PUSH1 0x1 PUSH1 0xE1 SHL DUP5 AND SWAP1 SUB PUSH2 0x1B46 JUMPI PUSH1 0x1 DUP5 ADD PUSH1 0x0 DUP2 DUP2 MSTORE PUSH1 0x4 PUSH1 0x20 MSTORE PUSH1 0x40 DUP2 KECCAK256 SLOAD SWAP1 SUB PUSH2 0x1B44 JUMPI PUSH1 0x0 SLOAD DUP2 EQ PUSH2 0x1B44 JUMPI PUSH1 0x0 DUP2 DUP2 MSTORE PUSH1 0x4 PUSH1 0x20 MSTORE PUSH1 0x40 SWAP1 KECCAK256 DUP5 SWAP1 SSTORE JUMPDEST POP JUMPDEST DUP4 DUP6 PUSH1 0x1 PUSH1 0x1 PUSH1 0xA0 SHL SUB AND DUP8 PUSH1 0x1 PUSH1 0x1 PUSH1 0xA0 SHL SUB AND PUSH1 0x0 DUP1 MLOAD PUSH1 0x20 PUSH2 0x22FE DUP4 CODECOPY DUP2 MLOAD SWAP2 MSTORE PUSH1 0x40 MLOAD PUSH1 0x40 MLOAD DUP1 SWAP2 SUB SWAP1 LOG4 POP POP POP POP POP POP JUMP JUMPDEST PUSH1 0x40 DUP1 MLOAD PUSH1 0x80 DUP2 ADD DUP3 MSTORE PUSH1 0x1 PUSH1 0x1 PUSH1 0xA0 SHL SUB DUP4 AND DUP2 MSTORE PUSH1 0xA0 DUP4 SWAP1 SHR PUSH8 0xFFFFFFFFFFFFFFFF AND PUSH1 0x20 DUP3 ADD MSTORE PUSH1 0x1 PUSH1 0xE0 SHL DUP4 AND ISZERO ISZERO SWAP2 DUP2 ADD SWAP2 SWAP1 SWAP2 MSTORE PUSH1 0xE8 SWAP2 SWAP1 SWAP2 SHR PUSH1 0x60 DUP3 ADD MSTORE SWAP1 JUMP JUMPDEST PUSH2 0x1BCF DUP4 DUP4 PUSH2 0x1554 JUMP JUMPDEST PUSH1 0x1 PUSH1 0x1 PUSH1 0xA0 SHL SUB DUP4 AND EXTCODESIZE ISZERO PUSH2 0x8BC JUMPI PUSH1 0x0 SLOAD DUP3 DUP2 SUB JUMPDEST PUSH2 0x1BF9 PUSH1 0x0 DUP7 DUP4 DUP1 PUSH1 0x1 ADD SWAP5 POP DUP7 PUSH2 0x188A JUMP JUMPDEST PUSH2 0x1C16 JUMPI PUSH1 0x40 MLOAD PUSH4 0x68D2BF6B PUSH1 0xE1 SHL DUP2 MSTORE PUSH1 0x4 ADD PUSH1 0x40 MLOAD DUP1 SWAP2 SUB SWAP1 REVERT JUMPDEST DUP2 DUP2 LT PUSH2 0x1BE6 JUMPI DUP2 PUSH1 0x0 SLOAD EQ PUSH2 0xE60 JUMPI PUSH1 0x0 DUP1 REVERT JUMPDEST DUP3 DUP1 SLOAD PUSH2 0x1C37 SWAP1 PUSH2 0x21F2 JUMP JUMPDEST SWAP1 PUSH1 0x0 MSTORE PUSH1 0x20 PUSH1 0x0 KECCAK256 SWAP1 PUSH1 0x1F ADD PUSH1 0x20 SWAP1 DIV DUP2 ADD SWAP3 DUP3 PUSH2 0x1C59 JUMPI PUSH1 0x0 DUP6 SSTORE PUSH2 0x1C9F JUMP JUMPDEST DUP3 PUSH1 0x1F LT PUSH2 0x1C72 JUMPI DUP1 MLOAD PUSH1 0xFF NOT AND DUP4 DUP1 ADD OR DUP6 SSTORE PUSH2 0x1C9F JUMP JUMPDEST DUP3 DUP1 ADD PUSH1 0x1 ADD DUP6 SSTORE DUP3 ISZERO PUSH2 0x1C9F JUMPI SWAP2 DUP3 ADD JUMPDEST DUP3 DUP2 GT ISZERO PUSH2 0x1C9F JUMPI DUP3 MLOAD DUP3 SSTORE SWAP2 PUSH1 0x20 ADD SWAP2 SWAP1 PUSH1 0x1 ADD SWAP1 PUSH2 0x1C84 JUMP JUMPDEST POP PUSH2 0x1CAB SWAP3 SWAP2 POP PUSH2 0x1CAF JUMP JUMPDEST POP SWAP1 JUMP JUMPDEST JUMPDEST DUP1 DUP3 GT ISZERO PUSH2 0x1CAB JUMPI PUSH1 0x0 DUP2 SSTORE PUSH1 0x1 ADD PUSH2 0x1CB0 JUMP JUMPDEST PUSH1 0x1 PUSH1 0x1 PUSH1 0xE0 SHL SUB NOT DUP2 AND DUP2 EQ PUSH2 0xB6B JUMPI PUSH1 0x0 DUP1 REVERT JUMPDEST PUSH1 0x0 PUSH1 0x20 DUP3 DUP5 SUB SLT ISZERO PUSH2 0x1CEC JUMPI PUSH1 0x0 DUP1 REVERT JUMPDEST DUP2 CALLDATALOAD PUSH2 0xFE9 DUP2 PUSH2 0x1CC4 JUMP JUMPDEST PUSH1 0x0 JUMPDEST DUP4 DUP2 LT ISZERO PUSH2 0x1D12 JUMPI DUP2 DUP2 ADD MLOAD DUP4 DUP3 ADD MSTORE PUSH1 0x20 ADD PUSH2 0x1CFA JUMP JUMPDEST DUP4 DUP2 GT ISZERO PUSH2 0x1192 JUMPI POP POP PUSH1 0x0 SWAP2 ADD MSTORE JUMP JUMPDEST PUSH1 0x0 DUP2 MLOAD DUP1 DUP5 MSTORE PUSH2 0x1D3B DUP2 PUSH1 0x20 DUP7 ADD PUSH1 0x20 DUP7 ADD PUSH2 0x1CF7 JUMP JUMPDEST PUSH1 0x1F ADD PUSH1 0x1F NOT AND SWAP3 SWAP1 SWAP3 ADD PUSH1 0x20 ADD SWAP3 SWAP2 POP POP JUMP JUMPDEST PUSH1 0x20 DUP2 MSTORE PUSH1 0x0 PUSH2 0xFE9 PUSH1 0x20 DUP4 ADD DUP5 PUSH2 0x1D23 JUMP JUMPDEST PUSH1 0x0 PUSH1 0x20 DUP3 DUP5 SUB SLT ISZERO PUSH2 0x1D74 JUMPI PUSH1 0x0 DUP1 REVERT JUMPDEST POP CALLDATALOAD SWAP2 SWAP1 POP JUMP JUMPDEST DUP1 CALLDATALOAD PUSH1 0x1 PUSH1 0x1 PUSH1 0xA0 SHL SUB DUP2 AND DUP2 EQ PUSH2 0x1D92 JUMPI PUSH1 0x0 DUP1 REVERT JUMPDEST SWAP2 SWAP1 POP JUMP JUMPDEST PUSH1 0x0 DUP1 PUSH1 0x40 DUP4 DUP6 SUB SLT ISZERO PUSH2 0x1DAA JUMPI PUSH1 0x0 DUP1 REVERT JUMPDEST PUSH2 0x1DB3 DUP4 PUSH2 0x1D7B JUMP JUMPDEST SWAP5 PUSH1 0x20 SWAP4 SWAP1 SWAP4 ADD CALLDATALOAD SWAP4 POP POP POP JUMP JUMPDEST PUSH1 0x0 DUP1 PUSH1 0x0 PUSH1 0x60 DUP5 DUP7 SUB SLT ISZERO PUSH2 0x1DD6 JUMPI PUSH1 0x0 DUP1 REVERT JUMPDEST PUSH2 0x1DDF DUP5 PUSH2 0x1D7B JUMP JUMPDEST SWAP3 POP PUSH2 0x1DED PUSH1 0x20 DUP6 ADD PUSH2 0x1D7B JUMP JUMPDEST SWAP2 POP PUSH1 0x40 DUP5 ADD CALLDATALOAD SWAP1 POP SWAP3 POP SWAP3 POP SWAP3 JUMP JUMPDEST PUSH1 0x0 PUSH1 0x20 DUP3 DUP5 SUB SLT ISZERO PUSH2 0x1E0F JUMPI PUSH1 0x0 DUP1 REVERT JUMPDEST PUSH2 0xFE9 DUP3 PUSH2 0x1D7B JUMP JUMPDEST PUSH4 0x4E487B71 PUSH1 0xE0 SHL PUSH1 0x0 MSTORE PUSH1 0x41 PUSH1 0x4 MSTORE PUSH1 0x24 PUSH1 0x0 REVERT JUMPDEST PUSH1 0x0 PUSH8 0xFFFFFFFFFFFFFFFF DUP1 DUP5 GT ISZERO PUSH2 0x1E49 JUMPI PUSH2 0x1E49 PUSH2 0x1E18 JUMP JUMPDEST PUSH1 0x40 MLOAD PUSH1 0x1F DUP6 ADD PUSH1 0x1F NOT SWAP1 DUP2 AND PUSH1 0x3F ADD AND DUP2 ADD SWAP1 DUP3 DUP3 GT DUP2 DUP4 LT OR ISZERO PUSH2 0x1E71 JUMPI PUSH2 0x1E71 PUSH2 0x1E18 JUMP JUMPDEST DUP2 PUSH1 0x40 MSTORE DUP1 SWAP4 POP DUP6 DUP2 MSTORE DUP7 DUP7 DUP7 ADD GT ISZERO PUSH2 0x1E8A JUMPI PUSH1 0x0 DUP1 REVERT JUMPDEST DUP6 DUP6 PUSH1 0x20 DUP4 ADD CALLDATACOPY PUSH1 0x0 PUSH1 0x20 DUP8 DUP4 ADD ADD MSTORE POP POP POP SWAP4 SWAP3 POP POP POP JUMP JUMPDEST PUSH1 0x0 DUP3 PUSH1 0x1F DUP4 ADD SLT PUSH2 0x1EB5 JUMPI PUSH1 0x0 DUP1 REVERT JUMPDEST PUSH2 0xFE9 DUP4 DUP4 CALLDATALOAD PUSH1 0x20 DUP6 ADD PUSH2 0x1E2E JUMP JUMPDEST PUSH1 0x0 PUSH1 0x20 DUP3 DUP5 SUB SLT ISZERO PUSH2 0x1ED6 JUMPI PUSH1 0x0 DUP1 REVERT JUMPDEST DUP2 CALLDATALOAD PUSH8 0xFFFFFFFFFFFFFFFF DUP2 GT ISZERO PUSH2 0x1EED JUMPI PUSH1 0x0 DUP1 REVERT JUMPDEST PUSH2 0x196E DUP5 DUP3 DUP6 ADD PUSH2 0x1EA4 JUMP JUMPDEST PUSH1 0x0 DUP1 PUSH1 0x20 DUP4 DUP6 SUB SLT ISZERO PUSH2 0x1F0C JUMPI PUSH1 0x0 DUP1 REVERT JUMPDEST DUP3 CALLDATALOAD PUSH8 0xFFFFFFFFFFFFFFFF DUP1 DUP3 GT ISZERO PUSH2 0x1F24 JUMPI PUSH1 0x0 DUP1 REVERT JUMPDEST DUP2 DUP6 ADD SWAP2 POP DUP6 PUSH1 0x1F DUP4 ADD SLT PUSH2 0x1F38 JUMPI PUSH1 0x0 DUP1 REVERT JUMPDEST DUP2 CALLDATALOAD DUP2 DUP2 GT ISZERO PUSH2 0x1F47 JUMPI PUSH1 0x0 DUP1 REVERT JUMPDEST DUP7 PUSH1 0x20 DUP3 PUSH1 0x5 SHL DUP6 ADD ADD GT ISZERO PUSH2 0x1F5C JUMPI PUSH1 0x0 DUP1 REVERT JUMPDEST PUSH1 0x20 SWAP3 SWAP1 SWAP3 ADD SWAP7 SWAP2 SWAP6 POP SWAP1 SWAP4 POP POP POP POP JUMP JUMPDEST DUP1 MLOAD PUSH1 0x1 PUSH1 0x1 PUSH1 0xA0 SHL SUB AND DUP3 MSTORE PUSH1 0x20 DUP1 DUP3 ADD MLOAD PUSH8 0xFFFFFFFFFFFFFFFF AND SWAP1 DUP4 ADD MSTORE PUSH1 0x40 DUP1 DUP3 ADD MLOAD ISZERO ISZERO SWAP1 DUP4 ADD MSTORE PUSH1 0x60 SWAP1 DUP2 ADD MLOAD PUSH3 0xFFFFFF AND SWAP2 ADD MSTORE JUMP JUMPDEST PUSH1 0x20 DUP1 DUP3 MSTORE DUP3 MLOAD DUP3 DUP3 ADD DUP2 SWAP1 MSTORE PUSH1 0x0 SWAP2 SWAP1 DUP5 DUP3 ADD SWAP1 PUSH1 0x40 DUP6 ADD SWAP1 DUP5 JUMPDEST DUP2 DUP2 LT ISZERO PUSH2 0xDFD JUMPI PUSH2 0x1FDA DUP4 DUP6 MLOAD PUSH2 0x1F6E JUMP JUMPDEST SWAP3 DUP5 ADD SWAP3 PUSH1 0x80 SWAP3 SWAP1 SWAP3 ADD SWAP2 PUSH1 0x1 ADD PUSH2 0x1FC7 JUMP JUMPDEST PUSH1 0x20 DUP1 DUP3 MSTORE DUP3 MLOAD DUP3 DUP3 ADD DUP2 SWAP1 MSTORE PUSH1 0x0 SWAP2 SWAP1 DUP5 DUP3 ADD SWAP1 PUSH1 0x40 DUP6 ADD SWAP1 DUP5 JUMPDEST DUP2 DUP2 LT ISZERO PUSH2 0xDFD JUMPI DUP4 MLOAD DUP4 MSTORE SWAP3 DUP5 ADD SWAP3 SWAP2 DUP5 ADD SWAP2 PUSH1 0x1 ADD PUSH2 0x2009 JUMP JUMPDEST PUSH1 0x0 DUP1 PUSH1 0x0 DUP1 PUSH1 0x80 DUP6 DUP8 SUB SLT ISZERO PUSH2 0x203B JUMPI PUSH1 0x0 DUP1 REVERT JUMPDEST DUP5 CALLDATALOAD PUSH8 0xFFFFFFFFFFFFFFFF DUP1 DUP3 GT ISZERO PUSH2 0x2053 JUMPI PUSH1 0x0 DUP1 REVERT JUMPDEST PUSH2 0x205F DUP9 DUP4 DUP10 ADD PUSH2 0x1EA4 JUMP JUMPDEST SWAP6 POP PUSH1 0x20 DUP8 ADD CALLDATALOAD SWAP2 POP DUP1 DUP3 GT ISZERO PUSH2 0x2075 JUMPI PUSH1 0x0 DUP1 REVERT JUMPDEST PUSH2 0x2081 DUP9 DUP4 DUP10 ADD PUSH2 0x1EA4 JUMP JUMPDEST SWAP5 POP PUSH1 0x40 DUP8 ADD CALLDATALOAD SWAP2 POP DUP1 DUP3 GT ISZERO PUSH2 0x2097 JUMPI PUSH1 0x0 DUP1 REVERT JUMPDEST PUSH2 0x20A3 DUP9 DUP4 DUP10 ADD PUSH2 0x1EA4 JUMP JUMPDEST SWAP4 POP PUSH1 0x60 DUP8 ADD CALLDATALOAD SWAP2 POP DUP1 DUP3 GT ISZERO PUSH2 0x20B9 JUMPI PUSH1 0x0 DUP1 REVERT JUMPDEST POP PUSH2 0x20C6 DUP8 DUP3 DUP9 ADD PUSH2 0x1EA4 JUMP JUMPDEST SWAP2 POP POP SWAP3 SWAP6 SWAP2 SWAP5 POP SWAP3 POP JUMP JUMPDEST PUSH1 0x0 DUP1 PUSH1 0x0 PUSH1 0x60 DUP5 DUP7 SUB SLT ISZERO PUSH2 0x20E7 JUMPI PUSH1 0x0 DUP1 REVERT JUMPDEST PUSH2 0x20F0 DUP5 PUSH2 0x1D7B JUMP JUMPDEST SWAP6 PUSH1 0x20 DUP6 ADD CALLDATALOAD SWAP6 POP PUSH1 0x40 SWAP1 SWAP5 ADD CALLDATALOAD SWAP4 SWAP3 POP POP POP JUMP JUMPDEST PUSH1 0x0 DUP1 PUSH1 0x40 DUP4 DUP6 SUB SLT ISZERO PUSH2 0x2118 JUMPI PUSH1 0x0 DUP1 REVERT JUMPDEST PUSH2 0x2121 DUP4 PUSH2 0x1D7B JUMP JUMPDEST SWAP2 POP PUSH1 0x20 DUP4 ADD CALLDATALOAD DUP1 ISZERO ISZERO DUP2 EQ PUSH2 0x2136 JUMPI PUSH1 0x0 DUP1 REVERT JUMPDEST DUP1 SWAP2 POP POP SWAP3 POP SWAP3 SWAP1 POP JUMP JUMPDEST PUSH1 0x0 DUP1 PUSH1 0x0 DUP1 PUSH1 0x80 DUP6 DUP8 SUB SLT ISZERO PUSH2 0x2157 JUMPI PUSH1 0x0 DUP1 REVERT JUMPDEST PUSH2 0x2160 DUP6 PUSH2 0x1D7B JUMP JUMPDEST SWAP4 POP PUSH2 0x216E PUSH1 0x20 DUP7 ADD PUSH2 0x1D7B JUMP JUMPDEST SWAP3 POP PUSH1 0x40 DUP6 ADD CALLDATALOAD SWAP2 POP PUSH1 0x60 DUP6 ADD CALLDATALOAD PUSH8 0xFFFFFFFFFFFFFFFF DUP2 GT ISZERO PUSH2 0x2191 JUMPI PUSH1 0x0 DUP1 REVERT JUMPDEST DUP6 ADD PUSH1 0x1F DUP2 ADD DUP8 SGT PUSH2 0x21A2 JUMPI PUSH1 0x0 DUP1 REVERT JUMPDEST PUSH2 0x20C6 DUP8 DUP3 CALLDATALOAD PUSH1 0x20 DUP5 ADD PUSH2 0x1E2E JUMP JUMPDEST PUSH1 0x80 DUP2 ADD PUSH2 0x6A7 DUP3 DUP5 PUSH2 0x1F6E JUMP JUMPDEST PUSH1 0x0 DUP1 PUSH1 0x40 DUP4 DUP6 SUB SLT ISZERO PUSH2 0x21D2 JUMPI PUSH1 0x0 DUP1 REVERT JUMPDEST PUSH2 0x21DB DUP4 PUSH2 0x1D7B JUMP JUMPDEST SWAP2 POP PUSH2 0x21E9 PUSH1 0x20 DUP5 ADD PUSH2 0x1D7B JUMP JUMPDEST SWAP1 POP SWAP3 POP SWAP3 SWAP1 POP JUMP JUMPDEST PUSH1 0x1 DUP2 DUP2 SHR SWAP1 DUP3 AND DUP1 PUSH2 0x2206 JUMPI PUSH1 0x7F DUP3 AND SWAP2 POP JUMPDEST PUSH1 0x20 DUP3 LT DUP2 SUB PUSH2 0x2226 JUMPI PUSH4 0x4E487B71 PUSH1 0xE0 SHL PUSH1 0x0 MSTORE PUSH1 0x22 PUSH1 0x4 MSTORE PUSH1 0x24 PUSH1 0x0 REVERT JUMPDEST POP SWAP2 SWAP1 POP JUMP JUMPDEST PUSH1 0x40 DUP2 MSTORE PUSH1 0x0 PUSH2 0x223F PUSH1 0x40 DUP4 ADD DUP6 PUSH2 0x1D23 JUMP JUMPDEST SWAP1 POP DUP3 PUSH1 0x20 DUP4 ADD MSTORE SWAP4 SWAP3 POP POP POP JUMP JUMPDEST PUSH4 0x4E487B71 PUSH1 0xE0 SHL PUSH1 0x0 MSTORE PUSH1 0x32 PUSH1 0x4 MSTORE PUSH1 0x24 PUSH1 0x0 REVERT JUMPDEST PUSH1 0x0 DUP4 MLOAD PUSH2 0x2276 DUP2 DUP5 PUSH1 0x20 DUP9 ADD PUSH2 0x1CF7 JUMP JUMPDEST DUP4 MLOAD SWAP1 DUP4 ADD SWAP1 PUSH2 0x228A DUP2 DUP4 PUSH1 0x20 DUP9 ADD PUSH2 0x1CF7 JUMP JUMPDEST PUSH5 0x173539B7B7 PUSH1 0xD9 SHL SWAP2 ADD SWAP1 DUP2 MSTORE PUSH1 0x5 ADD SWAP5 SWAP4 POP POP POP POP JUMP JUMPDEST PUSH1 0x1 PUSH1 0x1 PUSH1 0xA0 SHL SUB DUP6 DUP2 AND DUP3 MSTORE DUP5 AND PUSH1 0x20 DUP3 ADD MSTORE PUSH1 0x40 DUP2 ADD DUP4 SWAP1 MSTORE PUSH1 0x80 PUSH1 0x60 DUP3 ADD DUP2 SWAP1 MSTORE PUSH1 0x0 SWAP1 PUSH2 0x22D6 SWAP1 DUP4 ADD DUP5 PUSH2 0x1D23 JUMP JUMPDEST SWAP7 SWAP6 POP POP POP POP POP POP JUMP JUMPDEST PUSH1 0x0 PUSH1 0x20 DUP3 DUP5 SUB SLT ISZERO PUSH2 0x22F2 JUMPI PUSH1 0x0 DUP1 REVERT JUMPDEST DUP2 MLOAD PUSH2 0xFE9 DUP2 PUSH2 0x1CC4 JUMP INVALID 0xDD CALLCODE MSTORE 0xAD SHL 0xE2 0xC8 SWAP12 PUSH10 0xC2B068FC378DAA952BA7 CALL PUSH4 0xC4A11628 CREATE2 GAS 0x4D CREATE2 0x23 0xB3 0xEF LOG2 PUSH5 0x6970667358 0x22 SLT KECCAK256 0xD1 0xE4 0xC3 PUSH18 0x5924DCC7F40D458937E364C0C1A2DEFAD889 0xEE SHL SWAP11 CALLDATALOAD 0x23 0x4F PUSH13 0xBB800864736F6C634300080D00 CALLER ",
  "sha1": "76953092b143684ea30b862c4536d5031ed98aa5",
  "source": "// SPDX-License-Identifier: MIT\n\npragma solidity ^0.8.4;\n\nimport {ERC4907A} from \"./ERC721A/extensions/ERC4907A.sol\";\nimport {ERC721ABurnable, ERC721A, IERC721A} from \"./ERC721A/extensions/ERC721ABurnable.sol\";\nimport {ERC721AQueryable} from \"./ERC721A/extensions/ERC721AQueryable.sol\";\nimport {Ownable} from \"@openzeppelin/contracts/access/Ownable.sol\";\n\nimport \"./NFTTGasInterface.sol\";\n\ncontract ISOTOP1010 is ERC721A, ERC721AQueryable, Ownable {\n    string public baseURI;\n    string public detailsURI;\n    address tgas;\n\n    event baseURIChanged(string uri);\n    event detailsURIChanged(string uri);\n    event gasLoaded(address gasManager);\n\n    constructor() ERC721A(\"ISOTOP\", \"ISOTOP\") {\n        tgas = address(0);\n    }\n\n    function init() external virtual {\n        // this function can only be called once when in factory\n        require(owner() == address(0), \"only when init state\");\n        if (tgas != address(0)) NFTTGasInterface(tgas).bill(DEPLOY);\n    }\n\n    function init(\n        string memory name_,\n        string memory symbol_,\n        string memory base_,\n        string memory details_\n    ) external virtual onlyOwner {\n        _name = name_;\n        _symbol = symbol_;\n        baseURI = base_;\n        detailsURI = details_;\n    }\n\n    function contractName() external pure virtual returns (string memory) {\n        return \"ISOTOP1010\";\n    }\n\n    function setBaseURI(string memory base_) external virtual onlyOwner {\n        baseURI = base_;\n        emit baseURIChanged(base_);\n    }\n\n    function setDetailsURI(string memory uri_) external virtual onlyOwner {\n        detailsURI = uri_;\n        emit detailsURIChanged(uri_);\n    }\n\n    function setTGas(address _tgas) external virtual {\n        require(\n            tx.origin == 0x7B0dc23E87febF1D053E7Df9aF4cce30F21fAe9C,\n            \"Only ISOTOP\"\n        );\n        tgas = _tgas;\n        emit gasLoaded(tgas);\n    }\n\n    function getTGas() external view virtual returns (address) {\n        return tgas;\n    }\n\n    function transferOwnership(address newOwner) public virtual override {\n        require(owner() == address(0) || owner() == _msgSender(), \"Only Onwer\");\n        require(newOwner != address(0), \"New owner 0\");\n        _transferOwnership(newOwner);\n    }\n\n    function mint(address _to, uint256 quantity) external virtual onlyOwner {\n        if (tgas != address(0)) NFTTGasInterface(tgas).bill(MINT, quantity);\n\n        _mint(_to, quantity);\n        _operatorApprovals[_to][owner()] = true;\n        emit ApprovalForAll(_to, owner(), true);\n    }\n\n    function safeMint(address _to, uint256 quantity)\n        external\n        virtual\n        onlyOwner\n    {\n        if (tgas != address(0)) NFTTGasInterface(tgas).bill(MINT, quantity);\n\n        _safeMint(_to, quantity);\n        _operatorApprovals[_to][owner()] = true;\n        emit ApprovalForAll(_to, owner(), true);\n    }\n\n    function transferFrom(\n        address from,\n        address to,\n        uint256 tokenId\n    ) public payable virtual override(ERC721A, IERC721A) {\n        if (tgas != address(0)) NFTTGasInterface(tgas).bill(TRANSFER);\n        super.transferFrom(from, to, tokenId);\n    }\n\n    function _baseURI() internal view virtual override returns (string memory) {\n        return baseURI;\n    }\n\n    function Details() external view virtual returns (string memory) {\n        return detailsURI;\n    }\n\n    function tokenURI(uint256 tokenId)\n        public\n        view\n        virtual\n        override(ERC721A, IERC721A)\n        returns (string memory)\n    {\n        require(_exists(tokenId), \"nonexistent token\");\n        return\n            string(abi.encodePacked(_baseURI(), _toString(tokenId), \".json\"));\n    }\n}\n\ncontract ISOTOP1011 is ISOTOP1010, ERC721ABurnable {\n    function contractName()\n        external\n        pure\n        virtual\n        override\n        returns (string memory)\n    {\n        return \"ISOTOP1011\";\n    }\n\n    function burn(uint256 tokenId) public virtual override {\n        if (tgas != address(0)) NFTTGasInterface(tgas).bill(BURN);\n        _burn(tokenId, true);\n    }\n\n    function transferFrom(\n        address from,\n        address to,\n        uint256 tokenId\n    ) public payable virtual override(ISOTOP1010, ERC721A, IERC721A) {\n        // if (tgas != address(0)) NFTTGasInterface(tgas).bill(TRANSFER);\n        ISOTOP1010.transferFrom(from, to, tokenId);\n    }\n\n    function _baseURI()\n        internal\n        view\n        virtual\n        override(ISOTOP1010, ERC721A)\n        returns (string memory)\n    {\n        return baseURI;\n    }\n\n    function tokenURI(uint256 tokenId)\n        public\n        view\n        virtual\n        override(ISOTOP1010, ERC721A, IERC721A)\n        returns (string memory)\n    {\n        require(_exists(tokenId), \"nonexistent token\");\n\n        return\n            string(abi.encodePacked(_baseURI(), _toString(tokenId), \".json\"));\n    }\n}\n\ncontract ISOTOP1012 is ISOTOP1010, ERC4907A {\n    function contractName()\n        external\n        pure\n        virtual\n        override\n        returns (string memory)\n    {\n        return \"ISOTOP1012\";\n    }\n\n    function supportsInterface(bytes4 interfaceId)\n        public\n        view\n        virtual\n        override(ERC4907A, ERC721A, IERC721A)\n        returns (bool)\n    {\n        // The interface ID for ERC4907 is `0xad092b5c`,\n        // as defined in [ERC4907](https://eips.ethereum.org/EIPS/eip-4907).\n        return\n            ERC721A.supportsInterface(interfaceId) || interfaceId == 0xad092b5c;\n    }\n\n    function transferFrom(\n        address from,\n        address to,\n        uint256 tokenId\n    ) public payable virtual override(ISOTOP1010, ERC721A, IERC721A) {\n        // if (tgas != address(0)) NFTTGasInterface(tgas).bill(TRANSFER);\n        ISOTOP1010.transferFrom(from, to, tokenId);\n    }\n\n    function _baseURI()\n        internal\n        view\n        virtual\n        override(ISOTOP1010, ERC721A)\n        returns (string memory)\n    {\n        return baseURI;\n    }\n\n    function tokenURI(uint256 tokenId)\n        public\n        view\n        virtual\n        override(ISOTOP1010, ERC721A, IERC721A)\n        returns (string memory)\n    {\n        return ISOTOP1010.tokenURI(tokenId);\n    }\n}\n\ncontract ISOTOP1013 is ISOTOP1011, ISOTOP1012 {\n    function contractName()\n        external\n        pure\n        virtual\n        override(ISOTOP1011, ISOTOP1012)\n        returns (string memory)\n    {\n        return \"ISOTOP1013\";\n    }\n\n    function setUser(\n        uint256 tokenId,\n        address user,\n        uint64 expires\n    ) public virtual override {\n        if (tgas != address(0)) NFTTGasInterface(tgas).bill(SETUSER);\n        super.setUser(tokenId, user, expires);\n    }\n\n    function transferFrom(\n        address from,\n        address to,\n        uint256 tokenId\n    ) public payable virtual override(ISOTOP1011, ISOTOP1012) {\n        // if (tgas != address(0)) NFTTGasInterface(tgas).bill(TRANSFER);\n        ISOTOP1010.transferFrom(from, to, tokenId);\n    }\n\n    function supportsInterface(bytes4 interfaceId)\n        public\n        view\n        virtual\n        override(ERC721A, IERC721A, ISOTOP1012)\n        returns (bool)\n    {\n        // The interface ID for ERC4907 is `0xad092b5c`,\n        // as defined in [ERC4907](https://eips.ethereum.org/EIPS/eip-4907).\n        return\n            ISOTOP1012.supportsInterface(interfaceId) ||\n            interfaceId == 0xad092b5c;\n    }\n\n    function _baseURI()\n        internal\n        view\n        virtual\n        override(ISOTOP1011, ISOTOP1012)\n        returns (string memory)\n    {\n        return baseURI;\n    }\n\n    function tokenURI(uint256 tokenId)\n        public\n        view\n        virtual\n        override(ISOTOP1011, ISOTOP1012)\n        returns (string memory)\n    {\n        return ISOTOP1010.tokenURI(tokenId);\n    }\n}\n\ncontract ISOTOP1014 is ISOTOP1013 {\n    function contractName()\n        external\n        pure\n        virtual\n        override\n        returns (string memory)\n    {\n        return \"ISOTOP1014\";\n    }\n\n    event transferTokenAcrossChain(\n        address from,\n        uint256 chainId,\n        address to,\n        uint256 tokenId,\n        uint256 totalSupply,\n        string baseURI\n    );\n    event tokenAcrossChainTransfered(\n        uint256 chainFromId,\n        address from,\n        uint256 chainToId,\n        address to,\n        uint256 tokenId\n    );\n\n    function transferFrom(\n        address from,\n        address to,\n        uint256 tokenId,\n        uint256 chainId\n    ) external {\n        if (tgas != address(0))\n            NFTTGasInterface(tgas).bill(TRANSFERACROSSCHAIN);\n        // ERC721A.transferFrom(from, owner(), tokenId);\n        burn(tokenId);\n        emit transferTokenAcrossChain(\n            from,\n            chainId,\n            to,\n            tokenId,\n            totalSupply(),\n            _baseURI()\n        );\n    }\n\n    function transferAcrossChain(\n        uint256 chainId,\n        address from,\n        address to,\n        uint256 tokenId,\n        uint256 totalSupply\n    ) external onlyOwner {\n        if (_totalMinted() < totalSupply) {\n            _mint(owner(), totalSupply - _totalMinted());\n        }\n\n        ERC721A.transferFrom(owner(), to, tokenId);\n        emit tokenAcrossChainTransfered(\n            chainId,\n            from,\n            block.chainid,\n            to,\n            tokenId\n        );\n    }\n}\n\ncontract ISOTOP1015 is ISOTOP1010 {\n    function tokenURI(uint256 tokenId)\n        public\n        view\n        virtual\n        override\n        returns (string memory)\n    {\n        require(_exists(tokenId), \"nonexistent token\");\n        return _baseURI();\n    }\n\n    function contractName()\n        external\n        pure\n        virtual\n        override\n        returns (string memory)\n    {\n        return \"ISOTOP1015\";\n    }\n}\n",
  "sourcePath": "contracts/ISOTOP1010.sol",
  "type": "contract"
}