{
  "abi": [
    {
      "anonymous": false,
      "inputs": [
        {
          "indexed": true,
          "internalType": "address",
          "name": "previousOwner",
          "type": "address"
        },
        {
          "indexed": true,
          "internalType": "address",
          "name": "newOwner",
          "type": "address"
        }
      ],
      "name": "OwnershipTransferred",
      "type": "event"
    },
    {
      "inputs": [
        {
          "internalType": "string",
          "name": "func",
          "type": "string"
        }
      ],
      "name": "bill",
      "outputs": [],
      "stateMutability": "nonpayable",
      "type": "function"
    },
    {
      "inputs": [
        {
          "internalType": "string",
          "name": "func",
          "type": "string"
        },
        {
          "internalType": "uint256",
          "name": "quantity",
          "type": "uint256"
        }
      ],
      "name": "bill",
      "outputs": [],
      "stateMutability": "nonpayable",
      "type": "function"
    },
    {
      "inputs": [],
      "name": "currentMonth",
      "outputs": [
        {
          "internalType": "uint8",
          "name": "",
          "type": "uint8"
        }
      ],
      "stateMutability": "view",
      "type": "function"
    },
    {
      "inputs": [],
      "name": "owner",
      "outputs": [
        {
          "internalType": "address",
          "name": "",
          "type": "address"
        }
      ],
      "stateMutability": "view",
      "type": "function"
    },
    {
      "inputs": [],
      "name": "renounceOwnership",
      "outputs": [],
      "stateMutability": "nonpayable",
      "type": "function"
    },
    {
      "inputs": [
        {
          "internalType": "address",
          "name": "newOwner",
          "type": "address"
        }
      ],
      "name": "transferOwnership",
      "outputs": [],
      "stateMutability": "nonpayable",
      "type": "function"
    }
  ],
  "bytecode": "60806040819052600180546001600160a01b03191673222d6d17f1f6967b81e40624fe6176b7be225bee908117909155633e10510b60e01b909152632d88886981633e10510b62000051608462000284565b600060405180830381865afa1580156200006f573d6000803e3d6000fd5b505050506040513d6000823e601f3d908101601f1916820160405262000099919081019062000323565b6040518263ffffffff1660e01b8152600401620000b79190620003db565b602060405180830381865afa158015620000d5573d6000803e3d6000fd5b505050506040513d601f19601f82011682018060405250810190620000fb919062000410565b600280546001600160a01b0319166001600160a01b03928316179055600154604051633e10510b60e01b8152911690632d888869908290633e10510b90620001469060040162000442565b600060405180830381865afa15801562000164573d6000803e3d6000fd5b505050506040513d6000823e601f3d908101601f191682016040526200018e919081019062000323565b6040518263ffffffff1660e01b8152600401620001ac9190620003db565b602060405180830381865afa158015620001ca573d6000803e3d6000fd5b505050506040513d601f19601f82011682018060405250810190620001f0919062000410565b600380546001600160a81b0319166001600160a01b039290921691909117905560006004553480156200022257600080fd5b506200022e3362000234565b620004a5565b600080546001600160a01b038381166001600160a01b0319831681178455604051919092169283917f8be0079c531659141344cd1fd0a4f28419497f9722a3daafe3b4186f6b6457e09190a35050565b604081526000620002ab604083016006815265049534f544f560d41b602082015260400190565b828103602093840152601081526f4245455f544741535f4144445245535360801b928101929092525060400190565b634e487b7160e01b600052604160045260246000fd5b60005b838110156200030d578181015183820152602001620002f3565b838111156200031d576000848401525b50505050565b6000602082840312156200033657600080fd5b81516001600160401b03808211156200034e57600080fd5b818401915084601f8301126200036357600080fd5b815181811115620003785762000378620002da565b604051601f8201601f19908116603f01168101908382118183101715620003a357620003a3620002da565b81604052828152876020848701011115620003bd57600080fd5b620003d0836020830160208801620002f0565b979650505050505050565b6020815260008251806020840152620003fc816040850160208701620002f0565b601f01601f19169190910160400192915050565b6000602082840312156200042357600080fd5b81516001600160a01b03811681146200043b57600080fd5b9392505050565b60408152600062000469604083016006815265049534f544f560d41b602082015260400190565b828103602093840152601481527f4245455f4441544554494d455f41444452455353000000000000000000000000928101929092525060400190565b610b4e80620004b56000396000f3fe608060405234801561001057600080fd5b50600436106100625760003560e01c806325b11429146100675780636fb5d8071461007c578063715018a61461008f578063862a4d47146100975780638da5cb5b146100c2578063f2fde38b146100dd575b600080fd5b61007a6100753660046107cc565b6100f0565b005b61007a61008a36600461080e565b610267565b61007a6103e8565b6003546100ab90600160a01b900460ff1681565b60405160ff90911681526020015b60405180910390f35b6000546040516001600160a01b0390911681526020016100b9565b61007a6100eb36600461085a565b6103fc565b6000336001600160a01b03166375d0c0dc6040518163ffffffff1660e01b81526004016000604051808303816000875af1158015610132573d6000803e3d6000fd5b505050506040513d6000823e601f3d908101601f1916820160405261015a9190810190610939565b838360405160200161016e9392919061098a565b60408051601f1981840301815290829052600154633e10510b60e01b83529092506102629183916001600160a01b03169063187560ca908290633e10510b906101bb9086906004016109ed565b600060405180830381865afa1580156101d8573d6000803e3d6000fd5b505050506040513d6000823e601f3d908101601f191682016040526102009190810190610939565b6040518263ffffffff1660e01b815260040161021c9190610a1d565b602060405180830381865afa158015610239573d6000803e3d6000fd5b505050506040513d601f19601f8201168201806040525081019061025d9190610a30565b61047a565b505050565b6000336001600160a01b03166375d0c0dc6040518163ffffffff1660e01b81526004016000604051808303816000875af11580156102a9573d6000803e3d6000fd5b505050506040513d6000823e601f3d908101601f191682016040526102d19190810190610939565b84846040516020016102e59392919061098a565b60408051601f1981840301815290829052600154633e10510b60e01b83529092506103e291839185916001600160a01b039091169063187560ca908290633e10510b906103369087906004016109ed565b600060405180830381865afa158015610353573d6000803e3d6000fd5b505050506040513d6000823e601f3d908101601f1916820160405261037b9190810190610939565b6040518263ffffffff1660e01b81526004016103979190610a1d565b602060405180830381865afa1580156103b4573d6000803e3d6000fd5b505050506040513d601f19601f820116820180604052508101906103d89190610a30565b61025d9190610a5f565b50505050565b6103f06106ba565b6103fa6000610714565b565b6104046106ba565b6001600160a01b03811661046e5760405162461bcd60e51b815260206004820152602660248201527f4f776e61626c653a206e6577206f776e657220697320746865207a65726f206160448201526564647265737360d01b60648201526084015b60405180910390fd5b61047781610714565b50565b6003546040516328c92b4960e21b81524260048201526000916001600160a01b03169063a324ad2490602401602060405180830381865afa1580156104c3573d6000803e3d6000fd5b505050506040513d601f19601f820116820180604052508101906104e79190610a7e565b60035490915060ff808316600160a01b909204161461051e576003805460ff60a01b1916600160a01b60ff84160217905560006004555b6305f5e100600454111561053e57610537826002610764565b9150610564565b62989680600454111561056457610561600a61055b846008610777565b90610764565b91505b600280546001600160a01b03169063556cf47d90737b0dc23e87febf1d053e7df9af4cce30f21fae9c90738ce68c53ec6c8a55a32dd6c84c9207bfbd901eab906105af908790610764565b876040518563ffffffff1660e01b81526004016105cf9493929190610aa1565b600060405180830381600087803b1580156105e957600080fd5b505af11580156105fd573d6000803e3d6000fd5b5050600280546001600160a01b0316925063556cf47d9150737b0dc23e87febf1d053e7df9af4cce30f21fae9c9073ab1fdd3f84b2019bef47939e66fb6194532f96409061064c908790610764565b876040518563ffffffff1660e01b815260040161066c9493929190610aa1565b600060405180830381600087803b15801561068657600080fd5b505af115801561069a573d6000803e3d6000fd5b5050505081600460008282546106b09190610ade565b9091555050505050565b6000546001600160a01b031633146103fa5760405162461bcd60e51b815260206004820181905260248201527f4f776e61626c653a2063616c6c6572206973206e6f7420746865206f776e65726044820152606401610465565b600080546001600160a01b038381166001600160a01b0319831681178455604051919092169283917f8be0079c531659141344cd1fd0a4f28419497f9722a3daafe3b4186f6b6457e09190a35050565b60006107708284610af6565b9392505050565b60006107708284610a5f565b60008083601f84011261079557600080fd5b50813567ffffffffffffffff8111156107ad57600080fd5b6020830191508360208285010111156107c557600080fd5b9250929050565b600080602083850312156107df57600080fd5b823567ffffffffffffffff8111156107f657600080fd5b61080285828601610783565b90969095509350505050565b60008060006040848603121561082357600080fd5b833567ffffffffffffffff81111561083a57600080fd5b61084686828701610783565b909790965060209590950135949350505050565b60006020828403121561086c57600080fd5b81356001600160a01b038116811461077057600080fd5b634e487b7160e01b600052604160045260246000fd5b60005b838110156108b457818101518382015260200161089c565b838111156103e25750506000910152565b600067ffffffffffffffff808411156108e0576108e0610883565b604051601f8501601f19908116603f0116810190828211818310171561090857610908610883565b8160405280935085815286868601111561092157600080fd5b61092f866020830187610899565b5050509392505050565b60006020828403121561094b57600080fd5b815167ffffffffffffffff81111561096257600080fd5b8201601f8101841361097357600080fd5b610982848251602084016108c5565b949350505050565b6000845161099c818460208901610899565b601760f91b908301908152838560018301376000930160010192835250909392505050565b600081518084526109d9816020860160208601610899565b601f01601f19169290920160200192915050565b604081526006604082015265049534f544f560d41b606082015260806020820152600061077060808301846109c1565b60208152600061077060208301846109c1565b600060208284031215610a4257600080fd5b5051919050565b634e487b7160e01b600052601160045260246000fd5b6000816000190483118215151615610a7957610a79610a49565b500290565b600060208284031215610a9057600080fd5b815160ff8116811461077057600080fd5b6001600160a01b0385811682528416602082015260408101839052608060608201819052600090610ad4908301846109c1565b9695505050505050565b60008219821115610af157610af1610a49565b500190565b600082610b1357634e487b7160e01b600052601260045260246000fd5b50049056fea2646970667358221220eed2a170c772c75efa5e8da16061b381e546d5ab9a76a745730759b013f333b864736f6c634300080d0033",
  "bytecodeSha1": "6bcb19add998cd175d002b73598d38919c1f55ba",
  "compiler": {
    "evm_version": "istanbul",
    "optimizer": {
      "enabled": true,
      "runs": 200
    },
    "version": "0.8.13+commit.abaa5c0e"
  },
  "contractName": "NFTTGas",
  "language": "Solidity",
  "natspec": {
    "kind": "dev",
    "methods": {
      "owner()": {
        "details": "Returns the address of the current owner."
      },
      "renounceOwnership()": {
        "details": "Leaves the contract without owner. It will not be possible to call `onlyOwner` functions anymore. Can only be called by the current owner. NOTE: Renouncing ownership will leave the contract without an owner, thereby removing any functionality that is only available to the owner."
      },
      "transferOwnership(address)": {
        "details": "Transfers ownership of the contract to a new account (`newOwner`). Can only be called by the current owner."
      }
    },
    "version": 1
  },
  "opcodes": "PUSH1 0x80 PUSH1 0x40 MSTORE CALLVALUE DUP1 ISZERO PUSH2 0x10 JUMPI PUSH1 0x0 DUP1 REVERT JUMPDEST POP PUSH1 0x4 CALLDATASIZE LT PUSH2 0x62 JUMPI PUSH1 0x0 CALLDATALOAD PUSH1 0xE0 SHR DUP1 PUSH4 0x25B11429 EQ PUSH2 0x67 JUMPI DUP1 PUSH4 0x6FB5D807 EQ PUSH2 0x7C JUMPI DUP1 PUSH4 0x715018A6 EQ PUSH2 0x8F JUMPI DUP1 PUSH4 0x862A4D47 EQ PUSH2 0x97 JUMPI DUP1 PUSH4 0x8DA5CB5B EQ PUSH2 0xC2 JUMPI DUP1 PUSH4 0xF2FDE38B EQ PUSH2 0xDD JUMPI JUMPDEST PUSH1 0x0 DUP1 REVERT JUMPDEST PUSH2 0x7A PUSH2 0x75 CALLDATASIZE PUSH1 0x4 PUSH2 0x7CC JUMP JUMPDEST PUSH2 0xF0 JUMP JUMPDEST STOP JUMPDEST PUSH2 0x7A PUSH2 0x8A CALLDATASIZE PUSH1 0x4 PUSH2 0x80E JUMP JUMPDEST PUSH2 0x267 JUMP JUMPDEST PUSH2 0x7A PUSH2 0x3E8 JUMP JUMPDEST PUSH1 0x3 SLOAD PUSH2 0xAB SWAP1 PUSH1 0x1 PUSH1 0xA0 SHL SWAP1 DIV PUSH1 0xFF AND DUP2 JUMP JUMPDEST PUSH1 0x40 MLOAD PUSH1 0xFF SWAP1 SWAP2 AND DUP2 MSTORE PUSH1 0x20 ADD JUMPDEST PUSH1 0x40 MLOAD DUP1 SWAP2 SUB SWAP1 RETURN JUMPDEST PUSH1 0x0 SLOAD PUSH1 0x40 MLOAD PUSH1 0x1 PUSH1 0x1 PUSH1 0xA0 SHL SUB SWAP1 SWAP2 AND DUP2 MSTORE PUSH1 0x20 ADD PUSH2 0xB9 JUMP JUMPDEST PUSH2 0x7A PUSH2 0xEB CALLDATASIZE PUSH1 0x4 PUSH2 0x85A JUMP JUMPDEST PUSH2 0x3FC JUMP JUMPDEST PUSH1 0x0 CALLER PUSH1 0x1 PUSH1 0x1 PUSH1 0xA0 SHL SUB AND PUSH4 0x75D0C0DC PUSH1 0x40 MLOAD DUP2 PUSH4 0xFFFFFFFF AND PUSH1 0xE0 SHL DUP2 MSTORE PUSH1 0x4 ADD PUSH1 0x0 PUSH1 0x40 MLOAD DUP1 DUP4 SUB DUP2 PUSH1 0x0 DUP8 GAS CALL ISZERO DUP1 ISZERO PUSH2 0x132 JUMPI RETURNDATASIZE PUSH1 0x0 DUP1 RETURNDATACOPY RETURNDATASIZE PUSH1 0x0 REVERT JUMPDEST POP POP POP POP PUSH1 0x40 MLOAD RETURNDATASIZE PUSH1 0x0 DUP3 RETURNDATACOPY PUSH1 0x1F RETURNDATASIZE SWAP1 DUP2 ADD PUSH1 0x1F NOT AND DUP3 ADD PUSH1 0x40 MSTORE PUSH2 0x15A SWAP2 SWAP1 DUP2 ADD SWAP1 PUSH2 0x939 JUMP JUMPDEST DUP4 DUP4 PUSH1 0x40 MLOAD PUSH1 0x20 ADD PUSH2 0x16E SWAP4 SWAP3 SWAP2 SWAP1 PUSH2 0x98A JUMP JUMPDEST PUSH1 0x40 DUP1 MLOAD PUSH1 0x1F NOT DUP2 DUP5 SUB ADD DUP2 MSTORE SWAP1 DUP3 SWAP1 MSTORE PUSH1 0x1 SLOAD PUSH4 0x3E10510B PUSH1 0xE0 SHL DUP4 MSTORE SWAP1 SWAP3 POP PUSH2 0x262 SWAP2 DUP4 SWAP2 PUSH1 0x1 PUSH1 0x1 PUSH1 0xA0 SHL SUB AND SWAP1 PUSH4 0x187560CA SWAP1 DUP3 SWAP1 PUSH4 0x3E10510B SWAP1 PUSH2 0x1BB SWAP1 DUP7 SWAP1 PUSH1 0x4 ADD PUSH2 0x9ED JUMP JUMPDEST PUSH1 0x0 PUSH1 0x40 MLOAD DUP1 DUP4 SUB DUP2 DUP7 GAS STATICCALL ISZERO DUP1 ISZERO PUSH2 0x1D8 JUMPI RETURNDATASIZE PUSH1 0x0 DUP1 RETURNDATACOPY RETURNDATASIZE PUSH1 0x0 REVERT JUMPDEST POP POP POP POP PUSH1 0x40 MLOAD RETURNDATASIZE PUSH1 0x0 DUP3 RETURNDATACOPY PUSH1 0x1F RETURNDATASIZE SWAP1 DUP2 ADD PUSH1 0x1F NOT AND DUP3 ADD PUSH1 0x40 MSTORE PUSH2 0x200 SWAP2 SWAP1 DUP2 ADD SWAP1 PUSH2 0x939 JUMP JUMPDEST PUSH1 0x40 MLOAD DUP3 PUSH4 0xFFFFFFFF AND PUSH1 0xE0 SHL DUP2 MSTORE PUSH1 0x4 ADD PUSH2 0x21C SWAP2 SWAP1 PUSH2 0xA1D JUMP JUMPDEST PUSH1 0x20 PUSH1 0x40 MLOAD DUP1 DUP4 SUB DUP2 DUP7 GAS STATICCALL ISZERO DUP1 ISZERO PUSH2 0x239 JUMPI RETURNDATASIZE PUSH1 0x0 DUP1 RETURNDATACOPY RETURNDATASIZE PUSH1 0x0 REVERT JUMPDEST POP POP POP POP PUSH1 0x40 MLOAD RETURNDATASIZE PUSH1 0x1F NOT PUSH1 0x1F DUP3 ADD AND DUP3 ADD DUP1 PUSH1 0x40 MSTORE POP DUP2 ADD SWAP1 PUSH2 0x25D SWAP2 SWAP1 PUSH2 0xA30 JUMP JUMPDEST PUSH2 0x47A JUMP JUMPDEST POP POP POP JUMP JUMPDEST PUSH1 0x0 CALLER PUSH1 0x1 PUSH1 0x1 PUSH1 0xA0 SHL SUB AND PUSH4 0x75D0C0DC PUSH1 0x40 MLOAD DUP2 PUSH4 0xFFFFFFFF AND PUSH1 0xE0 SHL DUP2 MSTORE PUSH1 0x4 ADD PUSH1 0x0 PUSH1 0x40 MLOAD DUP1 DUP4 SUB DUP2 PUSH1 0x0 DUP8 GAS CALL ISZERO DUP1 ISZERO PUSH2 0x2A9 JUMPI RETURNDATASIZE PUSH1 0x0 DUP1 RETURNDATACOPY RETURNDATASIZE PUSH1 0x0 REVERT JUMPDEST POP POP POP POP PUSH1 0x40 MLOAD RETURNDATASIZE PUSH1 0x0 DUP3 RETURNDATACOPY PUSH1 0x1F RETURNDATASIZE SWAP1 DUP2 ADD PUSH1 0x1F NOT AND DUP3 ADD PUSH1 0x40 MSTORE PUSH2 0x2D1 SWAP2 SWAP1 DUP2 ADD SWAP1 PUSH2 0x939 JUMP JUMPDEST DUP5 DUP5 PUSH1 0x40 MLOAD PUSH1 0x20 ADD PUSH2 0x2E5 SWAP4 SWAP3 SWAP2 SWAP1 PUSH2 0x98A JUMP JUMPDEST PUSH1 0x40 DUP1 MLOAD PUSH1 0x1F NOT DUP2 DUP5 SUB ADD DUP2 MSTORE SWAP1 DUP3 SWAP1 MSTORE PUSH1 0x1 SLOAD PUSH4 0x3E10510B PUSH1 0xE0 SHL DUP4 MSTORE SWAP1 SWAP3 POP PUSH2 0x3E2 SWAP2 DUP4 SWAP2 DUP6 SWAP2 PUSH1 0x1 PUSH1 0x1 PUSH1 0xA0 SHL SUB SWAP1 SWAP2 AND SWAP1 PUSH4 0x187560CA SWAP1 DUP3 SWAP1 PUSH4 0x3E10510B SWAP1 PUSH2 0x336 SWAP1 DUP8 SWAP1 PUSH1 0x4 ADD PUSH2 0x9ED JUMP JUMPDEST PUSH1 0x0 PUSH1 0x40 MLOAD DUP1 DUP4 SUB DUP2 DUP7 GAS STATICCALL ISZERO DUP1 ISZERO PUSH2 0x353 JUMPI RETURNDATASIZE PUSH1 0x0 DUP1 RETURNDATACOPY RETURNDATASIZE PUSH1 0x0 REVERT JUMPDEST POP POP POP POP PUSH1 0x40 MLOAD RETURNDATASIZE PUSH1 0x0 DUP3 RETURNDATACOPY PUSH1 0x1F RETURNDATASIZE SWAP1 DUP2 ADD PUSH1 0x1F NOT AND DUP3 ADD PUSH1 0x40 MSTORE PUSH2 0x37B SWAP2 SWAP1 DUP2 ADD SWAP1 PUSH2 0x939 JUMP JUMPDEST PUSH1 0x40 MLOAD DUP3 PUSH4 0xFFFFFFFF AND PUSH1 0xE0 SHL DUP2 MSTORE PUSH1 0x4 ADD PUSH2 0x397 SWAP2 SWAP1 PUSH2 0xA1D JUMP JUMPDEST PUSH1 0x20 PUSH1 0x40 MLOAD DUP1 DUP4 SUB DUP2 DUP7 GAS STATICCALL ISZERO DUP1 ISZERO PUSH2 0x3B4 JUMPI RETURNDATASIZE PUSH1 0x0 DUP1 RETURNDATACOPY RETURNDATASIZE PUSH1 0x0 REVERT JUMPDEST POP POP POP POP PUSH1 0x40 MLOAD RETURNDATASIZE PUSH1 0x1F NOT PUSH1 0x1F DUP3 ADD AND DUP3 ADD DUP1 PUSH1 0x40 MSTORE POP DUP2 ADD SWAP1 PUSH2 0x3D8 SWAP2 SWAP1 PUSH2 0xA30 JUMP JUMPDEST PUSH2 0x25D SWAP2 SWAP1 PUSH2 0xA5F JUMP JUMPDEST POP POP POP POP JUMP JUMPDEST PUSH2 0x3F0 PUSH2 0x6BA JUMP JUMPDEST PUSH2 0x3FA PUSH1 0x0 PUSH2 0x714 JUMP JUMPDEST JUMP JUMPDEST PUSH2 0x404 PUSH2 0x6BA JUMP JUMPDEST PUSH1 0x1 PUSH1 0x1 PUSH1 0xA0 SHL SUB DUP2 AND PUSH2 0x46E JUMPI PUSH1 0x40 MLOAD PUSH3 0x461BCD PUSH1 0xE5 SHL DUP2 MSTORE PUSH1 0x20 PUSH1 0x4 DUP3 ADD MSTORE PUSH1 0x26 PUSH1 0x24 DUP3 ADD MSTORE PUSH32 0x4F776E61626C653A206E6577206F776E657220697320746865207A65726F2061 PUSH1 0x44 DUP3 ADD MSTORE PUSH6 0x646472657373 PUSH1 0xD0 SHL PUSH1 0x64 DUP3 ADD MSTORE PUSH1 0x84 ADD JUMPDEST PUSH1 0x40 MLOAD DUP1 SWAP2 SUB SWAP1 REVERT JUMPDEST PUSH2 0x477 DUP2 PUSH2 0x714 JUMP JUMPDEST POP JUMP JUMPDEST PUSH1 0x3 SLOAD PUSH1 0x40 MLOAD PUSH4 0x28C92B49 PUSH1 0xE2 SHL DUP2 MSTORE TIMESTAMP PUSH1 0x4 DUP3 ADD MSTORE PUSH1 0x0 SWAP2 PUSH1 0x1 PUSH1 0x1 PUSH1 0xA0 SHL SUB AND SWAP1 PUSH4 0xA324AD24 SWAP1 PUSH1 0x24 ADD PUSH1 0x20 PUSH1 0x40 MLOAD DUP1 DUP4 SUB DUP2 DUP7 GAS STATICCALL ISZERO DUP1 ISZERO PUSH2 0x4C3 JUMPI RETURNDATASIZE PUSH1 0x0 DUP1 RETURNDATACOPY RETURNDATASIZE PUSH1 0x0 REVERT JUMPDEST POP POP POP POP PUSH1 0x40 MLOAD RETURNDATASIZE PUSH1 0x1F NOT PUSH1 0x1F DUP3 ADD AND DUP3 ADD DUP1 PUSH1 0x40 MSTORE POP DUP2 ADD SWAP1 PUSH2 0x4E7 SWAP2 SWAP1 PUSH2 0xA7E JUMP JUMPDEST PUSH1 0x3 SLOAD SWAP1 SWAP2 POP PUSH1 0xFF DUP1 DUP4 AND PUSH1 0x1 PUSH1 0xA0 SHL SWAP1 SWAP3 DIV AND EQ PUSH2 0x51E JUMPI PUSH1 0x3 DUP1 SLOAD PUSH1 0xFF PUSH1 0xA0 SHL NOT AND PUSH1 0x1 PUSH1 0xA0 SHL PUSH1 0xFF DUP5 AND MUL OR SWAP1 SSTORE PUSH1 0x0 PUSH1 0x4 SSTORE JUMPDEST PUSH4 0x5F5E100 PUSH1 0x4 SLOAD GT ISZERO PUSH2 0x53E JUMPI PUSH2 0x537 DUP3 PUSH1 0x2 PUSH2 0x764 JUMP JUMPDEST SWAP2 POP PUSH2 0x564 JUMP JUMPDEST PUSH3 0x989680 PUSH1 0x4 SLOAD GT ISZERO PUSH2 0x564 JUMPI PUSH2 0x561 PUSH1 0xA PUSH2 0x55B DUP5 PUSH1 0x8 PUSH2 0x777 JUMP JUMPDEST SWAP1 PUSH2 0x764 JUMP JUMPDEST SWAP2 POP JUMPDEST PUSH1 0x2 DUP1 SLOAD PUSH1 0x1 PUSH1 0x1 PUSH1 0xA0 SHL SUB AND SWAP1 PUSH4 0x556CF47D SWAP1 PUSH20 0x7B0DC23E87FEBF1D053E7DF9AF4CCE30F21FAE9C SWAP1 PUSH20 0x8CE68C53EC6C8A55A32DD6C84C9207BFBD901EAB SWAP1 PUSH2 0x5AF SWAP1 DUP8 SWAP1 PUSH2 0x764 JUMP JUMPDEST DUP8 PUSH1 0x40 MLOAD DUP6 PUSH4 0xFFFFFFFF AND PUSH1 0xE0 SHL DUP2 MSTORE PUSH1 0x4 ADD PUSH2 0x5CF SWAP5 SWAP4 SWAP3 SWAP2 SWAP1 PUSH2 0xAA1 JUMP JUMPDEST PUSH1 0x0 PUSH1 0x40 MLOAD DUP1 DUP4 SUB DUP2 PUSH1 0x0 DUP8 DUP1 EXTCODESIZE ISZERO DUP1 ISZERO PUSH2 0x5E9 JUMPI PUSH1 0x0 DUP1 REVERT JUMPDEST POP GAS CALL ISZERO DUP1 ISZERO PUSH2 0x5FD JUMPI RETURNDATASIZE PUSH1 0x0 DUP1 RETURNDATACOPY RETURNDATASIZE PUSH1 0x0 REVERT JUMPDEST POP POP PUSH1 0x2 DUP1 SLOAD PUSH1 0x1 PUSH1 0x1 PUSH1 0xA0 SHL SUB AND SWAP3 POP PUSH4 0x556CF47D SWAP2 POP PUSH20 0x7B0DC23E87FEBF1D053E7DF9AF4CCE30F21FAE9C SWAP1 PUSH20 0xAB1FDD3F84B2019BEF47939E66FB6194532F9640 SWAP1 PUSH2 0x64C SWAP1 DUP8 SWAP1 PUSH2 0x764 JUMP JUMPDEST DUP8 PUSH1 0x40 MLOAD DUP6 PUSH4 0xFFFFFFFF AND PUSH1 0xE0 SHL DUP2 MSTORE PUSH1 0x4 ADD PUSH2 0x66C SWAP5 SWAP4 SWAP3 SWAP2 SWAP1 PUSH2 0xAA1 JUMP JUMPDEST PUSH1 0x0 PUSH1 0x40 MLOAD DUP1 DUP4 SUB DUP2 PUSH1 0x0 DUP8 DUP1 EXTCODESIZE ISZERO DUP1 ISZERO PUSH2 0x686 JUMPI PUSH1 0x0 DUP1 REVERT JUMPDEST POP GAS CALL ISZERO DUP1 ISZERO PUSH2 0x69A JUMPI RETURNDATASIZE PUSH1 0x0 DUP1 RETURNDATACOPY RETURNDATASIZE PUSH1 0x0 REVERT JUMPDEST POP POP POP POP DUP2 PUSH1 0x4 PUSH1 0x0 DUP3 DUP3 SLOAD PUSH2 0x6B0 SWAP2 SWAP1 PUSH2 0xADE JUMP JUMPDEST SWAP1 SWAP2 SSTORE POP POP POP POP POP JUMP JUMPDEST PUSH1 0x0 SLOAD PUSH1 0x1 PUSH1 0x1 PUSH1 0xA0 SHL SUB AND CALLER EQ PUSH2 0x3FA JUMPI PUSH1 0x40 MLOAD PUSH3 0x461BCD PUSH1 0xE5 SHL DUP2 MSTORE PUSH1 0x20 PUSH1 0x4 DUP3 ADD DUP2 SWAP1 MSTORE PUSH1 0x24 DUP3 ADD MSTORE PUSH32 0x4F776E61626C653A2063616C6C6572206973206E6F7420746865206F776E6572 PUSH1 0x44 DUP3 ADD MSTORE PUSH1 0x64 ADD PUSH2 0x465 JUMP JUMPDEST PUSH1 0x0 DUP1 SLOAD PUSH1 0x1 PUSH1 0x1 PUSH1 0xA0 SHL SUB DUP4 DUP2 AND PUSH1 0x1 PUSH1 0x1 PUSH1 0xA0 SHL SUB NOT DUP4 AND DUP2 OR DUP5 SSTORE PUSH1 0x40 MLOAD SWAP2 SWAP1 SWAP3 AND SWAP3 DUP4 SWAP2 PUSH32 0x8BE0079C531659141344CD1FD0A4F28419497F9722A3DAAFE3B4186F6B6457E0 SWAP2 SWAP1 LOG3 POP POP JUMP JUMPDEST PUSH1 0x0 PUSH2 0x770 DUP3 DUP5 PUSH2 0xAF6 JUMP JUMPDEST SWAP4 SWAP3 POP POP POP JUMP JUMPDEST PUSH1 0x0 PUSH2 0x770 DUP3 DUP5 PUSH2 0xA5F JUMP JUMPDEST PUSH1 0x0 DUP1 DUP4 PUSH1 0x1F DUP5 ADD SLT PUSH2 0x795 JUMPI PUSH1 0x0 DUP1 REVERT JUMPDEST POP DUP2 CALLDATALOAD PUSH8 0xFFFFFFFFFFFFFFFF DUP2 GT ISZERO PUSH2 0x7AD JUMPI PUSH1 0x0 DUP1 REVERT JUMPDEST PUSH1 0x20 DUP4 ADD SWAP2 POP DUP4 PUSH1 0x20 DUP3 DUP6 ADD ADD GT ISZERO PUSH2 0x7C5 JUMPI PUSH1 0x0 DUP1 REVERT JUMPDEST SWAP3 POP SWAP3 SWAP1 POP JUMP JUMPDEST PUSH1 0x0 DUP1 PUSH1 0x20 DUP4 DUP6 SUB SLT ISZERO PUSH2 0x7DF JUMPI PUSH1 0x0 DUP1 REVERT JUMPDEST DUP3 CALLDATALOAD PUSH8 0xFFFFFFFFFFFFFFFF DUP2 GT ISZERO PUSH2 0x7F6 JUMPI PUSH1 0x0 DUP1 REVERT JUMPDEST PUSH2 0x802 DUP6 DUP3 DUP7 ADD PUSH2 0x783 JUMP JUMPDEST SWAP1 SWAP7 SWAP1 SWAP6 POP SWAP4 POP POP POP POP JUMP JUMPDEST PUSH1 0x0 DUP1 PUSH1 0x0 PUSH1 0x40 DUP5 DUP7 SUB SLT ISZERO PUSH2 0x823 JUMPI PUSH1 0x0 DUP1 REVERT JUMPDEST DUP4 CALLDATALOAD PUSH8 0xFFFFFFFFFFFFFFFF DUP2 GT ISZERO PUSH2 0x83A JUMPI PUSH1 0x0 DUP1 REVERT JUMPDEST PUSH2 0x846 DUP7 DUP3 DUP8 ADD PUSH2 0x783 JUMP JUMPDEST SWAP1 SWAP8 SWAP1 SWAP7 POP PUSH1 0x20 SWAP6 SWAP1 SWAP6 ADD CALLDATALOAD SWAP5 SWAP4 POP POP POP POP JUMP JUMPDEST PUSH1 0x0 PUSH1 0x20 DUP3 DUP5 SUB SLT ISZERO PUSH2 0x86C JUMPI PUSH1 0x0 DUP1 REVERT JUMPDEST DUP2 CALLDATALOAD PUSH1 0x1 PUSH1 0x1 PUSH1 0xA0 SHL SUB DUP2 AND DUP2 EQ PUSH2 0x770 JUMPI PUSH1 0x0 DUP1 REVERT JUMPDEST PUSH4 0x4E487B71 PUSH1 0xE0 SHL PUSH1 0x0 MSTORE PUSH1 0x41 PUSH1 0x4 MSTORE PUSH1 0x24 PUSH1 0x0 REVERT JUMPDEST PUSH1 0x0 JUMPDEST DUP4 DUP2 LT ISZERO PUSH2 0x8B4 JUMPI DUP2 DUP2 ADD MLOAD DUP4 DUP3 ADD MSTORE PUSH1 0x20 ADD PUSH2 0x89C JUMP JUMPDEST DUP4 DUP2 GT ISZERO PUSH2 0x3E2 JUMPI POP POP PUSH1 0x0 SWAP2 ADD MSTORE JUMP JUMPDEST PUSH1 0x0 PUSH8 0xFFFFFFFFFFFFFFFF DUP1 DUP5 GT ISZERO PUSH2 0x8E0 JUMPI PUSH2 0x8E0 PUSH2 0x883 JUMP JUMPDEST PUSH1 0x40 MLOAD PUSH1 0x1F DUP6 ADD PUSH1 0x1F NOT SWAP1 DUP2 AND PUSH1 0x3F ADD AND DUP2 ADD SWAP1 DUP3 DUP3 GT DUP2 DUP4 LT OR ISZERO PUSH2 0x908 JUMPI PUSH2 0x908 PUSH2 0x883 JUMP JUMPDEST DUP2 PUSH1 0x40 MSTORE DUP1 SWAP4 POP DUP6 DUP2 MSTORE DUP7 DUP7 DUP7 ADD GT ISZERO PUSH2 0x921 JUMPI PUSH1 0x0 DUP1 REVERT JUMPDEST PUSH2 0x92F DUP7 PUSH1 0x20 DUP4 ADD DUP8 PUSH2 0x899 JUMP JUMPDEST POP POP POP SWAP4 SWAP3 POP POP POP JUMP JUMPDEST PUSH1 0x0 PUSH1 0x20 DUP3 DUP5 SUB SLT ISZERO PUSH2 0x94B JUMPI PUSH1 0x0 DUP1 REVERT JUMPDEST DUP2 MLOAD PUSH8 0xFFFFFFFFFFFFFFFF DUP2 GT ISZERO PUSH2 0x962 JUMPI PUSH1 0x0 DUP1 REVERT JUMPDEST DUP3 ADD PUSH1 0x1F DUP2 ADD DUP5 SGT PUSH2 0x973 JUMPI PUSH1 0x0 DUP1 REVERT JUMPDEST PUSH2 0x982 DUP5 DUP3 MLOAD PUSH1 0x20 DUP5 ADD PUSH2 0x8C5 JUMP JUMPDEST SWAP5 SWAP4 POP POP POP POP JUMP JUMPDEST PUSH1 0x0 DUP5 MLOAD PUSH2 0x99C DUP2 DUP5 PUSH1 0x20 DUP10 ADD PUSH2 0x899 JUMP JUMPDEST PUSH1 0x17 PUSH1 0xF9 SHL SWAP1 DUP4 ADD SWAP1 DUP2 MSTORE DUP4 DUP6 PUSH1 0x1 DUP4 ADD CALLDATACOPY PUSH1 0x0 SWAP4 ADD PUSH1 0x1 ADD SWAP3 DUP4 MSTORE POP SWAP1 SWAP4 SWAP3 POP POP POP JUMP JUMPDEST PUSH1 0x0 DUP2 MLOAD DUP1 DUP5 MSTORE PUSH2 0x9D9 DUP2 PUSH1 0x20 DUP7 ADD PUSH1 0x20 DUP7 ADD PUSH2 0x899 JUMP JUMPDEST PUSH1 0x1F ADD PUSH1 0x1F NOT AND SWAP3 SWAP1 SWAP3 ADD PUSH1 0x20 ADD SWAP3 SWAP2 POP POP JUMP JUMPDEST PUSH1 0x40 DUP2 MSTORE PUSH1 0x6 PUSH1 0x40 DUP3 ADD MSTORE PUSH6 0x49534F544F5 PUSH1 0xD4 SHL PUSH1 0x60 DUP3 ADD MSTORE PUSH1 0x80 PUSH1 0x20 DUP3 ADD MSTORE PUSH1 0x0 PUSH2 0x770 PUSH1 0x80 DUP4 ADD DUP5 PUSH2 0x9C1 JUMP JUMPDEST PUSH1 0x20 DUP2 MSTORE PUSH1 0x0 PUSH2 0x770 PUSH1 0x20 DUP4 ADD DUP5 PUSH2 0x9C1 JUMP JUMPDEST PUSH1 0x0 PUSH1 0x20 DUP3 DUP5 SUB SLT ISZERO PUSH2 0xA42 JUMPI PUSH1 0x0 DUP1 REVERT JUMPDEST POP MLOAD SWAP2 SWAP1 POP JUMP JUMPDEST PUSH4 0x4E487B71 PUSH1 0xE0 SHL PUSH1 0x0 MSTORE PUSH1 0x11 PUSH1 0x4 MSTORE PUSH1 0x24 PUSH1 0x0 REVERT JUMPDEST PUSH1 0x0 DUP2 PUSH1 0x0 NOT DIV DUP4 GT DUP3 ISZERO ISZERO AND ISZERO PUSH2 0xA79 JUMPI PUSH2 0xA79 PUSH2 0xA49 JUMP JUMPDEST POP MUL SWAP1 JUMP JUMPDEST PUSH1 0x0 PUSH1 0x20 DUP3 DUP5 SUB SLT ISZERO PUSH2 0xA90 JUMPI PUSH1 0x0 DUP1 REVERT JUMPDEST DUP2 MLOAD PUSH1 0xFF DUP2 AND DUP2 EQ PUSH2 0x770 JUMPI PUSH1 0x0 DUP1 REVERT JUMPDEST PUSH1 0x1 PUSH1 0x1 PUSH1 0xA0 SHL SUB DUP6 DUP2 AND DUP3 MSTORE DUP5 AND PUSH1 0x20 DUP3 ADD MSTORE PUSH1 0x40 DUP2 ADD DUP4 SWAP1 MSTORE PUSH1 0x80 PUSH1 0x60 DUP3 ADD DUP2 SWAP1 MSTORE PUSH1 0x0 SWAP1 PUSH2 0xAD4 SWAP1 DUP4 ADD DUP5 PUSH2 0x9C1 JUMP JUMPDEST SWAP7 SWAP6 POP POP POP POP POP POP JUMP JUMPDEST PUSH1 0x0 DUP3 NOT DUP3 GT ISZERO PUSH2 0xAF1 JUMPI PUSH2 0xAF1 PUSH2 0xA49 JUMP JUMPDEST POP ADD SWAP1 JUMP JUMPDEST PUSH1 0x0 DUP3 PUSH2 0xB13 JUMPI PUSH4 0x4E487B71 PUSH1 0xE0 SHL PUSH1 0x0 MSTORE PUSH1 0x12 PUSH1 0x4 MSTORE PUSH1 0x24 PUSH1 0x0 REVERT JUMPDEST POP DIV SWAP1 JUMP INVALID LOG2 PUSH5 0x6970667358 0x22 SLT KECCAK256 0xEE 0xD2 LOG1 PUSH17 0xC772C75EFA5E8DA16061B381E546D5AB9A PUSH23 0xA745730759B013F333B864736F6C634300080D00330000 ",
  "sha1": "6fac436ff54a0397c7904bc76fff4123e2cfac63",
  "source": "// SPDX-License-Identifier: MIT\npragma solidity ^0.8.13;\n\nimport \"@openzeppelin/contracts/utils/math/SafeMath.sol\";\nimport \"@openzeppelin/contracts/access/Ownable.sol\";\n\nimport \"./NFTTGasInterface.sol\";\nimport \"./IDateTime.sol\";\nimport \"./IDDS.sol\";\nimport \"./ITGas.sol\";\n\n// angency address = admin\naddress constant BEE_ISOTOP_ADDRESS = 0x7B0dc23E87febF1D053E7Df9aF4cce30F21fAe9C;\n// contributor address = iwan\naddress constant BEE_IWAN_ADDRESS = 0x8Ce68C53Ec6C8A55A32dD6c84c9207BFbd901eaB;\naddress constant BEE_CREATOR_ADDRESS = 0xAb1fdD3F84b2019BEF47939E66fb6194532f9640;\n\ninterface ISOTOP_CONTRACT {\n    function contractName() external returns (string memory);\n}\n\ncontract NFTTGas is NFTTGasInterface, Ownable {\n    using SafeMath for uint256;\n\n    IDDS dds = IDDS(BEE_DDS_ADDRESS);\n\n    ITGas gas = ITGas(dds.toAddress(dds.get(\"ISOTOP\", \"BEE_TGAS_ADDRESS\")));\n    IDateTime date =\n        IDateTime(dds.toAddress(dds.get(\"ISOTOP\", \"BEE_DATETIME_ADDRESS\")));\n\n    uint8 public currentMonth = 0;\n    uint256 private monthlySum = 0;\n\n    function bill(string calldata func) external {\n        string memory info = string(\n            abi.encodePacked(\n                ISOTOP_CONTRACT(msg.sender).contractName(),\n                \".\",\n                func\n            )\n        );\n        _bill(info, dds.toInt(dds.get(\"ISOTOP\", info)));\n    }\n\n    function bill(string calldata func, uint256 quantity) external {\n        string memory info = string(\n            abi.encodePacked(\n                ISOTOP_CONTRACT(msg.sender).contractName(),\n                \".\",\n                func\n            )\n        );\n        _bill(info, dds.toInt(dds.get(\"ISOTOP\", info)) * quantity);\n    }\n\n    function _bill(string memory func, uint256 cash) internal {\n        uint8 _now = date.getMonth(block.timestamp);\n        if (_now != currentMonth) {\n            currentMonth = _now;\n            monthlySum = 0;\n        }\n\n        /// @notice 1万元以上5折\n        if (monthlySum > 100000000)\n            cash = cash.div(2);\n            /// @notice 1千元以上8折\n        else if (monthlySum > 10000000) cash = cash.mul(8).div(10);\n\n        gas.bill(BEE_ISOTOP_ADDRESS, BEE_IWAN_ADDRESS, cash.div(2), func);\n        gas.bill(BEE_ISOTOP_ADDRESS, BEE_CREATOR_ADDRESS, cash.div(2), func);\n        monthlySum += cash;\n    }\n}\n",
  "sourcePath": "contracts/NFTTGas.sol",
  "type": "contract"
}