{
  "abi": [
    {
      "inputs": [],
      "stateMutability": "nonpayable",
      "type": "constructor"
    },
    {
      "anonymous": false,
      "inputs": [
        {
          "indexed": true,
          "internalType": "address",
          "name": "owner",
          "type": "address"
        },
        {
          "indexed": true,
          "internalType": "address",
          "name": "approved",
          "type": "address"
        },
        {
          "indexed": true,
          "internalType": "uint256",
          "name": "tokenId",
          "type": "uint256"
        }
      ],
      "name": "Approval",
      "type": "event"
    },
    {
      "anonymous": false,
      "inputs": [
        {
          "indexed": true,
          "internalType": "address",
          "name": "owner",
          "type": "address"
        },
        {
          "indexed": true,
          "internalType": "address",
          "name": "operator",
          "type": "address"
        },
        {
          "indexed": false,
          "internalType": "bool",
          "name": "approved",
          "type": "bool"
        }
      ],
      "name": "ApprovalForAll",
      "type": "event"
    },
    {
      "anonymous": false,
      "inputs": [
        {
          "indexed": true,
          "internalType": "address",
          "name": "previousOwner",
          "type": "address"
        },
        {
          "indexed": true,
          "internalType": "address",
          "name": "newOwner",
          "type": "address"
        }
      ],
      "name": "OwnershipTransferred",
      "type": "event"
    },
    {
      "anonymous": false,
      "inputs": [
        {
          "indexed": true,
          "internalType": "address",
          "name": "from",
          "type": "address"
        },
        {
          "indexed": true,
          "internalType": "address",
          "name": "to",
          "type": "address"
        },
        {
          "indexed": true,
          "internalType": "uint256",
          "name": "tokenId",
          "type": "uint256"
        }
      ],
      "name": "Transfer",
      "type": "event"
    },
    {
      "anonymous": false,
      "inputs": [
        {
          "indexed": true,
          "internalType": "uint256",
          "name": "id",
          "type": "uint256"
        },
        {
          "indexed": false,
          "internalType": "address",
          "name": "addr",
          "type": "address"
        }
      ],
      "name": "addressAdded",
      "type": "event"
    },
    {
      "anonymous": false,
      "inputs": [
        {
          "indexed": true,
          "internalType": "uint256",
          "name": "id",
          "type": "uint256"
        },
        {
          "indexed": false,
          "internalType": "address",
          "name": "addr",
          "type": "address"
        }
      ],
      "name": "addressRemoved",
      "type": "event"
    },
    {
      "anonymous": false,
      "inputs": [
        {
          "indexed": true,
          "internalType": "uint256",
          "name": "id",
          "type": "uint256"
        },
        {
          "indexed": false,
          "internalType": "address",
          "name": "addr",
          "type": "address"
        }
      ],
      "name": "soulCreated",
      "type": "event"
    },
    {
      "inputs": [
        {
          "internalType": "uint256",
          "name": "tokenId",
          "type": "uint256"
        },
        {
          "internalType": "address",
          "name": "_account",
          "type": "address"
        }
      ],
      "name": "addAccount",
      "outputs": [],
      "stateMutability": "nonpayable",
      "type": "function"
    },
    {
      "inputs": [
        {
          "internalType": "uint256",
          "name": "tokenId",
          "type": "uint256"
        },
        {
          "internalType": "address",
          "name": "_account",
          "type": "address"
        }
      ],
      "name": "addAccountByOperator",
      "outputs": [],
      "stateMutability": "nonpayable",
      "type": "function"
    },
    {
      "inputs": [
        {
          "internalType": "address",
          "name": "to",
          "type": "address"
        },
        {
          "internalType": "uint256",
          "name": "tokenId",
          "type": "uint256"
        }
      ],
      "name": "approve",
      "outputs": [],
      "stateMutability": "nonpayable",
      "type": "function"
    },
    {
      "inputs": [
        {
          "internalType": "address",
          "name": "owner",
          "type": "address"
        }
      ],
      "name": "balanceOf",
      "outputs": [
        {
          "internalType": "uint256",
          "name": "",
          "type": "uint256"
        }
      ],
      "stateMutability": "view",
      "type": "function"
    },
    {
      "inputs": [
        {
          "internalType": "address",
          "name": "_to",
          "type": "address"
        },
        {
          "internalType": "uint256",
          "name": "tokenId",
          "type": "uint256"
        }
      ],
      "name": "create",
      "outputs": [],
      "stateMutability": "nonpayable",
      "type": "function"
    },
    {
      "inputs": [
        {
          "internalType": "uint256",
          "name": "tokenId",
          "type": "uint256"
        }
      ],
      "name": "create",
      "outputs": [],
      "stateMutability": "nonpayable",
      "type": "function"
    },
    {
      "inputs": [
        {
          "internalType": "uint256",
          "name": "tokenId",
          "type": "uint256"
        }
      ],
      "name": "getApproved",
      "outputs": [
        {
          "internalType": "address",
          "name": "",
          "type": "address"
        }
      ],
      "stateMutability": "view",
      "type": "function"
    },
    {
      "inputs": [
        {
          "internalType": "uint256",
          "name": "tokenId",
          "type": "uint256"
        }
      ],
      "name": "getOperator",
      "outputs": [
        {
          "internalType": "address",
          "name": "",
          "type": "address"
        }
      ],
      "stateMutability": "view",
      "type": "function"
    },
    {
      "inputs": [
        {
          "internalType": "address",
          "name": "owner",
          "type": "address"
        },
        {
          "internalType": "address",
          "name": "operator",
          "type": "address"
        }
      ],
      "name": "isApprovedForAll",
      "outputs": [
        {
          "internalType": "bool",
          "name": "",
          "type": "bool"
        }
      ],
      "stateMutability": "view",
      "type": "function"
    },
    {
      "inputs": [],
      "name": "name",
      "outputs": [
        {
          "internalType": "string",
          "name": "",
          "type": "string"
        }
      ],
      "stateMutability": "view",
      "type": "function"
    },
    {
      "inputs": [],
      "name": "owner",
      "outputs": [
        {
          "internalType": "address",
          "name": "",
          "type": "address"
        }
      ],
      "stateMutability": "view",
      "type": "function"
    },
    {
      "inputs": [
        {
          "internalType": "uint256",
          "name": "tokenId",
          "type": "uint256"
        }
      ],
      "name": "ownerOf",
      "outputs": [
        {
          "internalType": "address",
          "name": "",
          "type": "address"
        }
      ],
      "stateMutability": "view",
      "type": "function"
    },
    {
      "inputs": [
        {
          "internalType": "uint256",
          "name": "tokenId",
          "type": "uint256"
        },
        {
          "internalType": "address",
          "name": "_account",
          "type": "address"
        }
      ],
      "name": "removeAccount",
      "outputs": [],
      "stateMutability": "nonpayable",
      "type": "function"
    },
    {
      "inputs": [
        {
          "internalType": "uint256",
          "name": "tokenId",
          "type": "uint256"
        },
        {
          "internalType": "address",
          "name": "_account",
          "type": "address"
        }
      ],
      "name": "removeAccountByOperator",
      "outputs": [],
      "stateMutability": "nonpayable",
      "type": "function"
    },
    {
      "inputs": [],
      "name": "renounceOwnership",
      "outputs": [],
      "stateMutability": "nonpayable",
      "type": "function"
    },
    {
      "inputs": [
        {
          "internalType": "address",
          "name": "from",
          "type": "address"
        },
        {
          "internalType": "address",
          "name": "to",
          "type": "address"
        },
        {
          "internalType": "uint256",
          "name": "tokenId",
          "type": "uint256"
        }
      ],
      "name": "safeTransferFrom",
      "outputs": [],
      "stateMutability": "nonpayable",
      "type": "function"
    },
    {
      "inputs": [
        {
          "internalType": "address",
          "name": "from",
          "type": "address"
        },
        {
          "internalType": "address",
          "name": "to",
          "type": "address"
        },
        {
          "internalType": "uint256",
          "name": "tokenId",
          "type": "uint256"
        },
        {
          "internalType": "bytes",
          "name": "data",
          "type": "bytes"
        }
      ],
      "name": "safeTransferFrom",
      "outputs": [],
      "stateMutability": "nonpayable",
      "type": "function"
    },
    {
      "inputs": [
        {
          "internalType": "address",
          "name": "operator",
          "type": "address"
        },
        {
          "internalType": "bool",
          "name": "approved",
          "type": "bool"
        }
      ],
      "name": "setApprovalForAll",
      "outputs": [],
      "stateMutability": "nonpayable",
      "type": "function"
    },
    {
      "inputs": [
        {
          "internalType": "address",
          "name": "_newDDS",
          "type": "address"
        }
      ],
      "name": "setDDS",
      "outputs": [],
      "stateMutability": "nonpayable",
      "type": "function"
    },
    {
      "inputs": [
        {
          "internalType": "bytes4",
          "name": "interfaceId",
          "type": "bytes4"
        }
      ],
      "name": "supportsInterface",
      "outputs": [
        {
          "internalType": "bool",
          "name": "",
          "type": "bool"
        }
      ],
      "stateMutability": "view",
      "type": "function"
    },
    {
      "inputs": [],
      "name": "symbol",
      "outputs": [
        {
          "internalType": "string",
          "name": "",
          "type": "string"
        }
      ],
      "stateMutability": "view",
      "type": "function"
    },
    {
      "inputs": [
        {
          "internalType": "uint256",
          "name": "index",
          "type": "uint256"
        }
      ],
      "name": "tokenByIndex",
      "outputs": [
        {
          "internalType": "uint256",
          "name": "",
          "type": "uint256"
        }
      ],
      "stateMutability": "view",
      "type": "function"
    },
    {
      "inputs": [
        {
          "internalType": "address",
          "name": "owner",
          "type": "address"
        },
        {
          "internalType": "uint256",
          "name": "index",
          "type": "uint256"
        }
      ],
      "name": "tokenOfOwnerByIndex",
      "outputs": [
        {
          "internalType": "uint256",
          "name": "",
          "type": "uint256"
        }
      ],
      "stateMutability": "view",
      "type": "function"
    },
    {
      "inputs": [
        {
          "internalType": "uint256",
          "name": "tokenId",
          "type": "uint256"
        }
      ],
      "name": "tokenURI",
      "outputs": [
        {
          "internalType": "string",
          "name": "",
          "type": "string"
        }
      ],
      "stateMutability": "view",
      "type": "function"
    },
    {
      "inputs": [],
      "name": "totalSupply",
      "outputs": [
        {
          "internalType": "uint256",
          "name": "",
          "type": "uint256"
        }
      ],
      "stateMutability": "view",
      "type": "function"
    },
    {
      "inputs": [
        {
          "internalType": "address",
          "name": "from",
          "type": "address"
        },
        {
          "internalType": "address",
          "name": "to",
          "type": "address"
        },
        {
          "internalType": "uint256",
          "name": "tokenId",
          "type": "uint256"
        }
      ],
      "name": "transferFrom",
      "outputs": [],
      "stateMutability": "nonpayable",
      "type": "function"
    },
    {
      "inputs": [
        {
          "internalType": "address",
          "name": "newOwner",
          "type": "address"
        }
      ],
      "name": "transferOwnership",
      "outputs": [],
      "stateMutability": "nonpayable",
      "type": "function"
    },
    {
      "inputs": [
        {
          "internalType": "uint256",
          "name": "tokenId",
          "type": "uint256"
        },
        {
          "internalType": "address",
          "name": "_from",
          "type": "address"
        }
      ],
      "name": "validateAddress",
      "outputs": [
        {
          "internalType": "bool",
          "name": "",
          "type": "bool"
        }
      ],
      "stateMutability": "view",
      "type": "function"
    }
  ],
  "bytecode": "60806040523480156200001157600080fd5b50604080518082018252600781526614dbdd5b13919560ca1b60208083019182528351808501909452600484526314d3d55360e21b9084015281519192916200005d9160009162000112565b5080516200007390600190602084019062000112565b505050620000906200008a620000bc60201b60201c565b620000c0565b600b80546001600160a01b03191673222d6d17f1f6967b81e40624fe6176b7be225bee179055620001f4565b3390565b600a80546001600160a01b038381166001600160a01b0319831681179093556040519116919082907f8be0079c531659141344cd1fd0a4f28419497f9722a3daafe3b4186f6b6457e090600090a35050565b8280546200012090620001b8565b90600052602060002090601f0160209004810192826200014457600085556200018f565b82601f106200015f57805160ff19168380011785556200018f565b828001600101855582156200018f579182015b828111156200018f57825182559160200191906001019062000172565b506200019d929150620001a1565b5090565b5b808211156200019d5760008155600101620001a2565b600181811c90821680620001cd57607f821691505b602082108103620001ee57634e487b7160e01b600052602260045260246000fd5b50919050565b612ac480620002046000396000f3fe608060405234801561001057600080fd5b50600436106101c45760003560e01c806370a08231116100f9578063ba3d0dec11610097578063c87b56dd11610071578063c87b56dd146103bf578063e985e9c5146103d2578063f2fde38b1461040e578063f72868ca1461042157600080fd5b8063ba3d0dec14610386578063baf0d49e14610399578063c3d7e350146103ac57600080fd5b80638da5cb5b116100d35780638da5cb5b1461034757806395d89b4114610358578063a22cb46514610360578063b88d4fde1461037357600080fd5b806370a0823114610319578063715018a61461032c578063780900dc1461033457600080fd5b806318160ddd1161016657806342842e0e1161014057806342842e0e146102cd5780634f6ccce7146102e05780635af0de07146102f35780636352211e1461030657600080fd5b806318160ddd1461029557806323b872dd146102a75780632f745c59146102ba57600080fd5b8063081812fc116101a2578063081812fc14610247578063095ea7b31461025a5780630d6752b01461026f5780630ecaea731461028257600080fd5b806301ffc9a7146101c957806305f63c8a146101f157806306fdde0314610232575b600080fd5b6101dc6101d7366004611f85565b610434565b60405190151581526020015b60405180910390f35b61021a6101ff366004611fa2565b6000908152600c60205260409020546001600160a01b031690565b6040516001600160a01b0390911681526020016101e8565b61023a61045f565b6040516101e89190612013565b61021a610255366004611fa2565b6104f1565b61026d61026836600461203b565b610518565b005b61026d61027d366004612067565b610632565b61026d61029036600461203b565b61065c565b6008545b6040519081526020016101e8565b61026d6102b5366004612084565b610871565b6102996102c836600461203b565b6108a2565b61026d6102db366004612084565b610938565b6102996102ee366004611fa2565b610953565b61026d6103013660046120c5565b6109e6565b61021a610314366004611fa2565b610bb8565b610299610327366004612067565b610c18565b61026d610c9e565b61026d610342366004611fa2565b610cb2565b600a546001600160a01b031661021a565b61023a610cbf565b61026d61036e3660046120f5565b610cce565b61026d610381366004612197565b610cdd565b61026d6103943660046120c5565b610d15565b6101dc6103a73660046120c5565b610d69565b61026d6103ba3660046120c5565b610e12565b61023a6103cd366004611fa2565b610e66565b6101dc6103e0366004612246565b6001600160a01b03918216600090815260056020908152604080832093909416825291909152205460ff1690565b61026d61041c366004612067565b610fc1565b61026d61042f3660046120c5565b611037565b60006001600160e01b0319821663780e9d6360e01b1480610459575061045982611202565b92915050565b60606000805461046e90612274565b80601f016020809104026020016040519081016040528092919081815260200182805461049a90612274565b80156104e75780601f106104bc576101008083540402835291602001916104e7565b820191906000526020600020905b8154815290600101906020018083116104ca57829003601f168201915b5050505050905090565b60006104fc82611252565b506000908152600460205260409020546001600160a01b031690565b600061052382610bb8565b9050806001600160a01b0316836001600160a01b0316036105955760405162461bcd60e51b815260206004820152602160248201527f4552433732313a20617070726f76616c20746f2063757272656e74206f776e656044820152603960f91b60648201526084015b60405180910390fd5b336001600160a01b03821614806105b157506105b181336103e0565b6106235760405162461bcd60e51b815260206004820152603e60248201527f4552433732313a20617070726f76652063616c6c6572206973206e6f7420746f60448201527f6b656e206f776e6572206e6f7220617070726f76656420666f7220616c6c0000606482015260840161058c565b61062d83836112b1565b505050565b61063a61131f565b600b80546001600160a01b0319166001600160a01b0392909216919091179055565b600b54604051633e10510b60e01b81526000916001600160a01b031690632d888869908290633e10510b90610693906004016122ae565b600060405180830381865afa1580156106b0573d6000803e3d6000fd5b505050506040513d6000823e601f3d908101601f191682016040526106d89190810190612306565b6040518263ffffffff1660e01b81526004016106f49190612013565b602060405180830381865afa158015610711573d6000803e3d6000fd5b505050506040513d601f19601f82011682018060405250810190610735919061237d565b90506000816001600160a01b031663c3bb1a576040518163ffffffff1660e01b81526004016107639061239a565b600060405180830381865afa158015610780573d6000803e3d6000fd5b505050506040513d6000823e601f3d908101601f191682016040526107a891908101906123be565b905060005b8151811015610828578181815181106107c8576107c8612470565b60200260200101516001600160a01b0316336001600160a01b031603610816576107f28585611379565b5050506000908152600c6020526040902080546001600160a01b0319163317905550565b806108208161249c565b9150506107ad565b5060405162461bcd60e51b815260206004820152601b60248201527f63616c6c6572206e6f7420696e206f70657261746f72206c6973740000000000604482015260640161058c565b61087b33826113e9565b6108975760405162461bcd60e51b815260040161058c906124b5565b61062d838383611468565b60006108ad83610c18565b821061090f5760405162461bcd60e51b815260206004820152602b60248201527f455243373231456e756d657261626c653a206f776e657220696e646578206f7560448201526a74206f6620626f756e647360a81b606482015260840161058c565b506001600160a01b03919091166000908152600660209081526040808320938352929052205490565b61062d83838360405180602001604052806000815250610cdd565b600061095e60085490565b82106109c15760405162461bcd60e51b815260206004820152602c60248201527f455243373231456e756d657261626c653a20676c6f62616c20696e646578206f60448201526b7574206f6620626f756e647360a01b606482015260840161058c565b600882815481106109d4576109d4612470565b90600052602060002001549050919050565b600b54604051633e10510b60e01b81526000916001600160a01b031690632d888869908290633e10510b90610a1d906004016122ae565b600060405180830381865afa158015610a3a573d6000803e3d6000fd5b505050506040513d6000823e601f3d908101601f19168201604052610a629190810190612306565b6040518263ffffffff1660e01b8152600401610a7e9190612013565b602060405180830381865afa158015610a9b573d6000803e3d6000fd5b505050506040513d601f19601f82011682018060405250810190610abf919061237d565b90506000816001600160a01b031663c3bb1a576040518163ffffffff1660e01b8152600401610aed9061239a565b600060405180830381865afa158015610b0a573d6000803e3d6000fd5b505050506040513d6000823e601f3d908101601f19168201604052610b3291908101906123be565b905060005b815181101561082857818181518110610b5257610b52612470565b60200260200101516001600160a01b0316336001600160a01b0316148015610b9057506000858152600c60205260409020546001600160a01b031633145b15610ba657610b9f858561160f565b5050505050565b80610bb08161249c565b915050610b37565b6000818152600260205260408120546001600160a01b0316806104595760405162461bcd60e51b8152602060048201526018602482015277115490cdcc8c4e881a5b9d985b1a59081d1bdad95b88125160421b604482015260640161058c565b60006001600160a01b038216610c825760405162461bcd60e51b815260206004820152602960248201527f4552433732313a2061646472657373207a65726f206973206e6f7420612076616044820152683634b21037bbb732b960b91b606482015260840161058c565b506001600160a01b031660009081526003602052604090205490565b610ca661131f565b610cb060006116d3565b565b610cbc3282611379565b50565b60606001805461046e90612274565b610cd9338383611725565b5050565b610ce733836113e9565b610d035760405162461bcd60e51b815260040161058c906124b5565b610d0f848484846117f3565b50505050565b610d1f8232610d69565b610d5f5760405162461bcd60e51b81526020600482015260116024820152701b9bdd081bdddb995c881bd9881cdbdd5b607a1b604482015260640161058c565b610cd98282611826565b6000828152600260205260408120546001600160a01b0316610dc15760405162461bcd60e51b81526020600482015260116024820152703737b732bc34b9ba32b73a103a37b5b2b760791b604482015260640161058c565b6000838152600d602090815260408083206001600160a01b038616845290915290205460ff1680610e0b5750816001600160a01b0316610e0084610bb8565b6001600160a01b0316145b9392505050565b610e1c8232610d69565b610e5c5760405162461bcd60e51b81526020600482015260116024820152701b9bdd081bdddb995c881bd9881cdbdd5b607a1b604482015260640161058c565b610cd9828261160f565b6000818152600260205260409020546060906001600160a01b0316610ec15760405162461bcd60e51b81526020600482015260116024820152703737b732bc34b9ba32b73a103a37b5b2b760791b604482015260640161058c565b6000610ecc83611884565b600b54604051633e10510b60e01b8152610f6f916001600160a01b031690633e10510b90610efc90600401612503565b600060405180830381865afa158015610f19573d6000803e3d6000fd5b505050506040513d6000823e601f3d908101601f19168201604052610f419190810190612306565b610f4a86611884565b604051602001610f5b92919061256c565b604051602081830303815290604052611985565b604051602001610f809291906127eb565b6040516020818303038152906040529050610f9a81611985565b604051602001610faa91906128bb565b604051602081830303815290604052915050919050565b610fc961131f565b6001600160a01b03811661102e5760405162461bcd60e51b815260206004820152602660248201527f4f776e61626c653a206e6577206f776e657220697320746865207a65726f206160448201526564647265737360d01b606482015260840161058c565b610cbc816116d3565b600b54604051633e10510b60e01b81526000916001600160a01b031690632d888869908290633e10510b9061106e906004016122ae565b600060405180830381865afa15801561108b573d6000803e3d6000fd5b505050506040513d6000823e601f3d908101601f191682016040526110b39190810190612306565b6040518263ffffffff1660e01b81526004016110cf9190612013565b602060405180830381865afa1580156110ec573d6000803e3d6000fd5b505050506040513d601f19601f82011682018060405250810190611110919061237d565b90506000816001600160a01b031663c3bb1a576040518163ffffffff1660e01b815260040161113e9061239a565b600060405180830381865afa15801561115b573d6000803e3d6000fd5b505050506040513d6000823e601f3d908101601f1916820160405261118391908101906123be565b905060005b8151811015610828578181815181106111a3576111a3612470565b60200260200101516001600160a01b0316336001600160a01b03161480156111e157506000858152600c60205260409020546001600160a01b031633145b156111f057610b9f8585611826565b806111fa8161249c565b915050611188565b60006001600160e01b031982166380ac58cd60e01b148061123357506001600160e01b03198216635b5e139f60e01b145b8061045957506301ffc9a760e01b6001600160e01b0319831614610459565b6000818152600260205260409020546001600160a01b0316610cbc5760405162461bcd60e51b8152602060048201526018602482015277115490cdcc8c4e881a5b9d985b1a59081d1bdad95b88125160421b604482015260640161058c565b600081815260046020526040902080546001600160a01b0319166001600160a01b03841690811790915581906112e682610bb8565b6001600160a01b03167f8c5be1e5ebec7d5bd14f71427d1e84f3dd0314c0f7b2291e5b200ac8c7c3b92560405160405180910390a45050565b600a546001600160a01b03163314610cb05760405162461bcd60e51b815260206004820181905260248201527f4f776e61626c653a2063616c6c6572206973206e6f7420746865206f776e6572604482015260640161058c565b6113838282611ad8565b6000818152600d602090815260408083206001600160a01b03861680855290835292819020805460ff191660011790555191825282917fcad03a9101bd852b136d161a1b16b7ba008655decd17a2faec9259b23b5045ba91015b60405180910390a25050565b6000806113f583610bb8565b9050806001600160a01b0316846001600160a01b0316148061143c57506001600160a01b0380821660009081526005602090815260408083209388168352929052205460ff165b806114605750836001600160a01b0316611455846104f1565b6001600160a01b0316145b949350505050565b826001600160a01b031661147b82610bb8565b6001600160a01b0316146114df5760405162461bcd60e51b815260206004820152602560248201527f4552433732313a207472616e736665722066726f6d20696e636f72726563742060448201526437bbb732b960d91b606482015260840161058c565b6001600160a01b0382166115415760405162461bcd60e51b8152602060048201526024808201527f4552433732313a207472616e7366657220746f20746865207a65726f206164646044820152637265737360e01b606482015260840161058c565b61154c838383611c26565b6115576000826112b1565b6001600160a01b0383166000908152600360205260408120805460019290611580908490612900565b90915550506001600160a01b03821660009081526003602052604081208054600192906115ae908490612917565b909155505060008181526002602052604080822080546001600160a01b0319166001600160a01b0386811691821790925591518493918716917fddf252ad1be2c89b69c2b068fc378daa952ba7f163c4a11628f55a4df523b3ef91a4505050565b806001600160a01b031661162283610bb8565b6001600160a01b0316036116785760405162461bcd60e51b815260206004820152601c60248201527f63616e6e6f742072656d6f7665206f776e6572206f6620746f6b656e00000000604482015260640161058c565b6000828152600d602090815260408083206001600160a01b03851680855290835292819020805460ff191690555191825283917fcb55b9c460a26528d8133448da62fe50f8b555cbf7b6851f38aee64ac07c978291016113dd565b600a80546001600160a01b038381166001600160a01b0319831681179093556040519116919082907f8be0079c531659141344cd1fd0a4f28419497f9722a3daafe3b4186f6b6457e090600090a35050565b816001600160a01b0316836001600160a01b0316036117865760405162461bcd60e51b815260206004820152601960248201527f4552433732313a20617070726f766520746f2063616c6c657200000000000000604482015260640161058c565b6001600160a01b03838116600081815260056020908152604080832094871680845294825291829020805460ff191686151590811790915591519182527f17307eab39ab6107e8899845ad3d59bd9653f200f220920489ca2b5937696c31910160405180910390a3505050565b6117fe848484611468565b61180a84848484611cde565b610d0f5760405162461bcd60e51b815260040161058c9061292f565b6000828152600d602090815260408083206001600160a01b03851680855290835292819020805460ff191660011790555191825283917f90bcc508602ce6509afae3103f5fa4bd917ecdd0ffa791ef4ffb51bbaf19082291016113dd565b6060816000036118ab5750506040805180820190915260018152600360fc1b602082015290565b8160005b81156118d557806118bf8161249c565b91506118ce9050600a83612997565b91506118af565b60008167ffffffffffffffff8111156118f0576118f0612128565b6040519080825280601f01601f19166020018201604052801561191a576020820181803683370190505b5090505b84156114605761192f600183612900565b915061193c600a866129ab565b611947906030612917565b60f81b81838151811061195c5761195c612470565b60200101906001600160f81b031916908160001a90535061197e600a86612997565b945061191e565b606081516000036119a457505060408051602081019091526000815290565b6000604051806060016040528060408152602001612a4f60409139905060006003845160026119d39190612917565b6119dd9190612997565b6119e89060046129bf565b67ffffffffffffffff811115611a0057611a00612128565b6040519080825280601f01601f191660200182016040528015611a2a576020820181803683370190505b509050600182016020820185865187015b80821015611a96576003820191508151603f8160121c168501518453600184019350603f81600c1c168501518453600184019350603f8160061c168501518453600184019350603f8116850151845350600183019250611a3b565b5050600386510660018114611ab25760028114611ac557611acd565b603d6001830353603d6002830353611acd565b603d60018303535b509195945050505050565b6001600160a01b038216611b2e5760405162461bcd60e51b815260206004820181905260248201527f4552433732313a206d696e7420746f20746865207a65726f2061646472657373604482015260640161058c565b6000818152600260205260409020546001600160a01b031615611b935760405162461bcd60e51b815260206004820152601c60248201527f4552433732313a20746f6b656e20616c7265616479206d696e74656400000000604482015260640161058c565b611b9f60008383611c26565b6001600160a01b0382166000908152600360205260408120805460019290611bc8908490612917565b909155505060008181526002602052604080822080546001600160a01b0319166001600160a01b03861690811790915590518392907fddf252ad1be2c89b69c2b068fc378daa952ba7f163c4a11628f55a4df523b3ef908290a45050565b6001600160a01b038316611c8157611c7c81600880546000838152600960205260408120829055600182018355919091527ff3f7a9fe364faab93b216da50a3214154f22a0a2b415b23a84c8169e8b636ee30155565b611ca4565b816001600160a01b0316836001600160a01b031614611ca457611ca48382611ddf565b6001600160a01b038216611cbb5761062d81611e7c565b826001600160a01b0316826001600160a01b03161461062d5761062d8282611f2b565b60006001600160a01b0384163b15611dd457604051630a85bd0160e11b81526001600160a01b0385169063150b7a0290611d229033908990889088906004016129de565b6020604051808303816000875af1925050508015611d5d575060408051601f3d908101601f19168201909252611d5a91810190612a1b565b60015b611dba573d808015611d8b576040519150601f19603f3d011682016040523d82523d6000602084013e611d90565b606091505b508051600003611db25760405162461bcd60e51b815260040161058c9061292f565b805181602001fd5b6001600160e01b031916630a85bd0160e11b149050611460565b506001949350505050565b60006001611dec84610c18565b611df69190612900565b600083815260076020526040902054909150808214611e49576001600160a01b03841660009081526006602090815260408083208584528252808320548484528184208190558352600790915290208190555b5060009182526007602090815260408084208490556001600160a01b039094168352600681528383209183525290812055565b600854600090611e8e90600190612900565b60008381526009602052604081205460088054939450909284908110611eb657611eb6612470565b906000526020600020015490508060088381548110611ed757611ed7612470565b6000918252602080832090910192909255828152600990915260408082208490558582528120556008805480611f0f57611f0f612a38565b6001900381819060005260206000200160009055905550505050565b6000611f3683610c18565b6001600160a01b039093166000908152600660209081526040808320868452825280832085905593825260079052919091209190915550565b6001600160e01b031981168114610cbc57600080fd5b600060208284031215611f9757600080fd5b8135610e0b81611f6f565b600060208284031215611fb457600080fd5b5035919050565b60005b83811015611fd6578181015183820152602001611fbe565b83811115610d0f5750506000910152565b60008151808452611fff816020860160208601611fbb565b601f01601f19169290920160200192915050565b602081526000610e0b6020830184611fe7565b6001600160a01b0381168114610cbc57600080fd5b6000806040838503121561204e57600080fd5b823561205981612026565b946020939093013593505050565b60006020828403121561207957600080fd5b8135610e0b81612026565b60008060006060848603121561209957600080fd5b83356120a481612026565b925060208401356120b481612026565b929592945050506040919091013590565b600080604083850312156120d857600080fd5b8235915060208301356120ea81612026565b809150509250929050565b6000806040838503121561210857600080fd5b823561211381612026565b9150602083013580151581146120ea57600080fd5b634e487b7160e01b600052604160045260246000fd5b604051601f8201601f1916810167ffffffffffffffff8111828210171561216757612167612128565b604052919050565b600067ffffffffffffffff82111561218957612189612128565b50601f01601f191660200190565b600080600080608085870312156121ad57600080fd5b84356121b881612026565b935060208501356121c881612026565b925060408501359150606085013567ffffffffffffffff8111156121eb57600080fd5b8501601f810187136121fc57600080fd5b803561220f61220a8261216f565b61213e565b81815288602083850101111561222457600080fd5b8160208401602083013760006020838301015280935050505092959194509250565b6000806040838503121561225957600080fd5b823561226481612026565b915060208301356120ea81612026565b600181811c9082168061228857607f821691505b6020821081036122a857634e487b7160e01b600052602260045260246000fd5b50919050565b6040815260006122d4604083016006815265049534f544f560d41b602082015260400190565b82810360209384015260138152724245455f464143544f52595f4144445245535360681b928101929092525060400190565b60006020828403121561231857600080fd5b815167ffffffffffffffff81111561232f57600080fd5b8201601f8101841361234057600080fd5b805161234e61220a8261216f565b81815285602083850101111561236357600080fd5b612374826020830160208601611fbb565b95945050505050565b60006020828403121561238f57600080fd5b8151610e0b81612026565b6020808252600a9082015269049534f544f50313034360b41b604082015260600190565b600060208083850312156123d157600080fd5b825167ffffffffffffffff808211156123e957600080fd5b818501915085601f8301126123fd57600080fd5b81518181111561240f5761240f612128565b8060051b915061242084830161213e565b818152918301840191848101908884111561243a57600080fd5b938501935b83851015612464578451925061245483612026565b828252938501939085019061243f565b98975050505050505050565b634e487b7160e01b600052603260045260246000fd5b634e487b7160e01b600052601160045260246000fd5b6000600182016124ae576124ae612486565b5060010190565b6020808252602e908201527f4552433732313a2063616c6c6572206973206e6f7420746f6b656e206f776e6560408201526d1c881b9bdc88185c1c1c9bdd995960921b606082015260800190565b604081526000612529604083016006815265049534f544f560d41b602082015260400190565b8281036020938401526008815267736f756c2e73766760c01b928101929092525060400190565b60008151612562818560208601611fbb565b9290920192915050565b7f3c7376672077696474683d2235303022206865696768743d2235303022207669815273032bba137bc1e91181018101a9818101a981811160651b60208201527f20786d6c3a73706163653d2270726573657276652220786d6c6e733d2268747460348201527f703a2f2f7777772e77332e6f72672f323030302f737667223e0000000000000060548201527f3c73766720786d6c6e733d22687474703a2f2f7777772e77332e6f72672f3230606d8201527f30302f7376672220786d6c6e733a786c696e6b3d22687474703a2f2f7777772e608d8201527f77332e6f72672f313939392f786c696e6b22207374796c653d226d617267696e60ad8201527f3a206175746f3b206261636b67726f756e643a20726762283235352c2032353560cd8201527f2c20323535293b20646973706c61793a20626c6f636b3b2073686170652d726560ed8201527f6e646572696e673a206175746f3b222077696474683d2235303070782220686561010d8201527f696768743d223530307078222076696577426f783d222d3530202d323020323061012d8201527f302032303022207072657365727665417370656374526174696f3d22784d696461014d820152652ca6b4b2111f60d11b61016d82015260006114606127d26127cc6127ba612757610173870189612550565b7f3c7465787420783d223235302220793d2233353022207374796c653d2274657881527f742d616e63686f723a6d6964646c653b66696c6c3a626c61636b3b666f6e742d60208201526a39b4bd329d191a383c111f60a91b6040820152604b0190565b65536f756c202360d01b815260060190565b85612550565b6c1e17ba32bc3a1f1e17b9bb339f60991b8152600d0190565b6f7b226e616d65223a2022536f756c202360801b81528251600090612817816010850160208801611fbb565b7f222c20226465736372697074696f6e223a2022536f756c204e4654222c2022696010918401918201527f6d616765223a2022646174613a696d6167652f7376672b786d6c3b62617365366030820152610d0b60f21b60508201528351612885816052840160208801611fbb565b7f222c202264657369676e6572223a2022696f73746f702e746f70222c207d000060529290910191820152607001949350505050565b7f646174613a6170706c69636174696f6e2f6a736f6e3b6261736536342c0000008152600082516128f381601d850160208701611fbb565b91909101601d0192915050565b60008282101561291257612912612486565b500390565b6000821982111561292a5761292a612486565b500190565b60208082526032908201527f4552433732313a207472616e7366657220746f206e6f6e20455243373231526560408201527131b2b4bb32b91034b6b83632b6b2b73a32b960711b606082015260800190565b634e487b7160e01b600052601260045260246000fd5b6000826129a6576129a6612981565b500490565b6000826129ba576129ba612981565b500690565b60008160001904831182151516156129d9576129d9612486565b500290565b6001600160a01b0385811682528416602082015260408101839052608060608201819052600090612a1190830184611fe7565b9695505050505050565b600060208284031215612a2d57600080fd5b8151610e0b81611f6f565b634e487b7160e01b600052603160045260246000fdfe4142434445464748494a4b4c4d4e4f505152535455565758595a6162636465666768696a6b6c6d6e6f707172737475767778797a303132333435363738392b2fa264697066735822122026c68f12a9d7cd9ed8ab52cfb0f4896b09f1d8cee854dd9d8636fa3f9a711fb564736f6c634300080d0033",
  "bytecodeSha1": "46a1b607040af9b9f0f45b150ad0b7a911773047",
  "compiler": {
    "evm_version": "istanbul",
    "optimizer": {
      "enabled": true,
      "runs": 200
    },
    "version": "0.8.13+commit.abaa5c0e"
  },
  "contractName": "Soul",
  "language": "Solidity",
  "natspec": {
    "kind": "dev",
    "methods": {
      "approve(address,uint256)": {
        "details": "See {IERC721-approve}."
      },
      "balanceOf(address)": {
        "details": "See {IERC721-balanceOf}."
      },
      "getApproved(uint256)": {
        "details": "See {IERC721-getApproved}."
      },
      "isApprovedForAll(address,address)": {
        "details": "See {IERC721-isApprovedForAll}."
      },
      "name()": {
        "details": "See {IERC721Metadata-name}."
      },
      "owner()": {
        "details": "Returns the address of the current owner."
      },
      "ownerOf(uint256)": {
        "details": "See {IERC721-ownerOf}."
      },
      "renounceOwnership()": {
        "details": "Leaves the contract without owner. It will not be possible to call `onlyOwner` functions anymore. Can only be called by the current owner. NOTE: Renouncing ownership will leave the contract without an owner, thereby removing any functionality that is only available to the owner."
      },
      "safeTransferFrom(address,address,uint256)": {
        "details": "See {IERC721-safeTransferFrom}."
      },
      "safeTransferFrom(address,address,uint256,bytes)": {
        "details": "See {IERC721-safeTransferFrom}."
      },
      "setApprovalForAll(address,bool)": {
        "details": "See {IERC721-setApprovalForAll}."
      },
      "supportsInterface(bytes4)": {
        "details": "See {IERC165-supportsInterface}."
      },
      "symbol()": {
        "details": "See {IERC721Metadata-symbol}."
      },
      "tokenByIndex(uint256)": {
        "details": "See {IERC721Enumerable-tokenByIndex}."
      },
      "tokenOfOwnerByIndex(address,uint256)": {
        "details": "See {IERC721Enumerable-tokenOfOwnerByIndex}."
      },
      "tokenURI(uint256)": {
        "details": "See {IERC721Metadata-tokenURI}."
      },
      "totalSupply()": {
        "details": "See {IERC721Enumerable-totalSupply}."
      },
      "transferFrom(address,address,uint256)": {
        "details": "See {IERC721-transferFrom}."
      },
      "transferOwnership(address)": {
        "details": "Transfers ownership of the contract to a new account (`newOwner`). Can only be called by the current owner."
      }
    },
    "version": 1
  },
  "opcodes": "PUSH1 0x80 PUSH1 0x40 MSTORE CALLVALUE DUP1 ISZERO PUSH2 0x10 JUMPI PUSH1 0x0 DUP1 REVERT JUMPDEST POP PUSH1 0x4 CALLDATASIZE LT PUSH2 0x1C4 JUMPI PUSH1 0x0 CALLDATALOAD PUSH1 0xE0 SHR DUP1 PUSH4 0x70A08231 GT PUSH2 0xF9 JUMPI DUP1 PUSH4 0xBA3D0DEC GT PUSH2 0x97 JUMPI DUP1 PUSH4 0xC87B56DD GT PUSH2 0x71 JUMPI DUP1 PUSH4 0xC87B56DD EQ PUSH2 0x3BF JUMPI DUP1 PUSH4 0xE985E9C5 EQ PUSH2 0x3D2 JUMPI DUP1 PUSH4 0xF2FDE38B EQ PUSH2 0x40E JUMPI DUP1 PUSH4 0xF72868CA EQ PUSH2 0x421 JUMPI PUSH1 0x0 DUP1 REVERT JUMPDEST DUP1 PUSH4 0xBA3D0DEC EQ PUSH2 0x386 JUMPI DUP1 PUSH4 0xBAF0D49E EQ PUSH2 0x399 JUMPI DUP1 PUSH4 0xC3D7E350 EQ PUSH2 0x3AC JUMPI PUSH1 0x0 DUP1 REVERT JUMPDEST DUP1 PUSH4 0x8DA5CB5B GT PUSH2 0xD3 JUMPI DUP1 PUSH4 0x8DA5CB5B EQ PUSH2 0x347 JUMPI DUP1 PUSH4 0x95D89B41 EQ PUSH2 0x358 JUMPI DUP1 PUSH4 0xA22CB465 EQ PUSH2 0x360 JUMPI DUP1 PUSH4 0xB88D4FDE EQ PUSH2 0x373 JUMPI PUSH1 0x0 DUP1 REVERT JUMPDEST DUP1 PUSH4 0x70A08231 EQ PUSH2 0x319 JUMPI DUP1 PUSH4 0x715018A6 EQ PUSH2 0x32C JUMPI DUP1 PUSH4 0x780900DC EQ PUSH2 0x334 JUMPI PUSH1 0x0 DUP1 REVERT JUMPDEST DUP1 PUSH4 0x18160DDD GT PUSH2 0x166 JUMPI DUP1 PUSH4 0x42842E0E GT PUSH2 0x140 JUMPI DUP1 PUSH4 0x42842E0E EQ PUSH2 0x2CD JUMPI DUP1 PUSH4 0x4F6CCCE7 EQ PUSH2 0x2E0 JUMPI DUP1 PUSH4 0x5AF0DE07 EQ PUSH2 0x2F3 JUMPI DUP1 PUSH4 0x6352211E EQ PUSH2 0x306 JUMPI PUSH1 0x0 DUP1 REVERT JUMPDEST DUP1 PUSH4 0x18160DDD EQ PUSH2 0x295 JUMPI DUP1 PUSH4 0x23B872DD EQ PUSH2 0x2A7 JUMPI DUP1 PUSH4 0x2F745C59 EQ PUSH2 0x2BA JUMPI PUSH1 0x0 DUP1 REVERT JUMPDEST DUP1 PUSH4 0x81812FC GT PUSH2 0x1A2 JUMPI DUP1 PUSH4 0x81812FC EQ PUSH2 0x247 JUMPI DUP1 PUSH4 0x95EA7B3 EQ PUSH2 0x25A JUMPI DUP1 PUSH4 0xD6752B0 EQ PUSH2 0x26F JUMPI DUP1 PUSH4 0xECAEA73 EQ PUSH2 0x282 JUMPI PUSH1 0x0 DUP1 REVERT JUMPDEST DUP1 PUSH4 0x1FFC9A7 EQ PUSH2 0x1C9 JUMPI DUP1 PUSH4 0x5F63C8A EQ PUSH2 0x1F1 JUMPI DUP1 PUSH4 0x6FDDE03 EQ PUSH2 0x232 JUMPI JUMPDEST PUSH1 0x0 DUP1 REVERT JUMPDEST PUSH2 0x1DC PUSH2 0x1D7 CALLDATASIZE PUSH1 0x4 PUSH2 0x1F85 JUMP JUMPDEST PUSH2 0x434 JUMP JUMPDEST PUSH1 0x40 MLOAD SWAP1 ISZERO ISZERO DUP2 MSTORE PUSH1 0x20 ADD JUMPDEST PUSH1 0x40 MLOAD DUP1 SWAP2 SUB SWAP1 RETURN JUMPDEST PUSH2 0x21A PUSH2 0x1FF CALLDATASIZE PUSH1 0x4 PUSH2 0x1FA2 JUMP JUMPDEST PUSH1 0x0 SWAP1 DUP2 MSTORE PUSH1 0xC PUSH1 0x20 MSTORE PUSH1 0x40 SWAP1 KECCAK256 SLOAD PUSH1 0x1 PUSH1 0x1 PUSH1 0xA0 SHL SUB AND SWAP1 JUMP JUMPDEST PUSH1 0x40 MLOAD PUSH1 0x1 PUSH1 0x1 PUSH1 0xA0 SHL SUB SWAP1 SWAP2 AND DUP2 MSTORE PUSH1 0x20 ADD PUSH2 0x1E8 JUMP JUMPDEST PUSH2 0x23A PUSH2 0x45F JUMP JUMPDEST PUSH1 0x40 MLOAD PUSH2 0x1E8 SWAP2 SWAP1 PUSH2 0x2013 JUMP JUMPDEST PUSH2 0x21A PUSH2 0x255 CALLDATASIZE PUSH1 0x4 PUSH2 0x1FA2 JUMP JUMPDEST PUSH2 0x4F1 JUMP JUMPDEST PUSH2 0x26D PUSH2 0x268 CALLDATASIZE PUSH1 0x4 PUSH2 0x203B JUMP JUMPDEST PUSH2 0x518 JUMP JUMPDEST STOP JUMPDEST PUSH2 0x26D PUSH2 0x27D CALLDATASIZE PUSH1 0x4 PUSH2 0x2067 JUMP JUMPDEST PUSH2 0x632 JUMP JUMPDEST PUSH2 0x26D PUSH2 0x290 CALLDATASIZE PUSH1 0x4 PUSH2 0x203B JUMP JUMPDEST PUSH2 0x65C JUMP JUMPDEST PUSH1 0x8 SLOAD JUMPDEST PUSH1 0x40 MLOAD SWAP1 DUP2 MSTORE PUSH1 0x20 ADD PUSH2 0x1E8 JUMP JUMPDEST PUSH2 0x26D PUSH2 0x2B5 CALLDATASIZE PUSH1 0x4 PUSH2 0x2084 JUMP JUMPDEST PUSH2 0x871 JUMP JUMPDEST PUSH2 0x299 PUSH2 0x2C8 CALLDATASIZE PUSH1 0x4 PUSH2 0x203B JUMP JUMPDEST PUSH2 0x8A2 JUMP JUMPDEST PUSH2 0x26D PUSH2 0x2DB CALLDATASIZE PUSH1 0x4 PUSH2 0x2084 JUMP JUMPDEST PUSH2 0x938 JUMP JUMPDEST PUSH2 0x299 PUSH2 0x2EE CALLDATASIZE PUSH1 0x4 PUSH2 0x1FA2 JUMP JUMPDEST PUSH2 0x953 JUMP JUMPDEST PUSH2 0x26D PUSH2 0x301 CALLDATASIZE PUSH1 0x4 PUSH2 0x20C5 JUMP JUMPDEST PUSH2 0x9E6 JUMP JUMPDEST PUSH2 0x21A PUSH2 0x314 CALLDATASIZE PUSH1 0x4 PUSH2 0x1FA2 JUMP JUMPDEST PUSH2 0xBB8 JUMP JUMPDEST PUSH2 0x299 PUSH2 0x327 CALLDATASIZE PUSH1 0x4 PUSH2 0x2067 JUMP JUMPDEST PUSH2 0xC18 JUMP JUMPDEST PUSH2 0x26D PUSH2 0xC9E JUMP JUMPDEST PUSH2 0x26D PUSH2 0x342 CALLDATASIZE PUSH1 0x4 PUSH2 0x1FA2 JUMP JUMPDEST PUSH2 0xCB2 JUMP JUMPDEST PUSH1 0xA SLOAD PUSH1 0x1 PUSH1 0x1 PUSH1 0xA0 SHL SUB AND PUSH2 0x21A JUMP JUMPDEST PUSH2 0x23A PUSH2 0xCBF JUMP JUMPDEST PUSH2 0x26D PUSH2 0x36E CALLDATASIZE PUSH1 0x4 PUSH2 0x20F5 JUMP JUMPDEST PUSH2 0xCCE JUMP JUMPDEST PUSH2 0x26D PUSH2 0x381 CALLDATASIZE PUSH1 0x4 PUSH2 0x2197 JUMP JUMPDEST PUSH2 0xCDD JUMP JUMPDEST PUSH2 0x26D PUSH2 0x394 CALLDATASIZE PUSH1 0x4 PUSH2 0x20C5 JUMP JUMPDEST PUSH2 0xD15 JUMP JUMPDEST PUSH2 0x1DC PUSH2 0x3A7 CALLDATASIZE PUSH1 0x4 PUSH2 0x20C5 JUMP JUMPDEST PUSH2 0xD69 JUMP JUMPDEST PUSH2 0x26D PUSH2 0x3BA CALLDATASIZE PUSH1 0x4 PUSH2 0x20C5 JUMP JUMPDEST PUSH2 0xE12 JUMP JUMPDEST PUSH2 0x23A PUSH2 0x3CD CALLDATASIZE PUSH1 0x4 PUSH2 0x1FA2 JUMP JUMPDEST PUSH2 0xE66 JUMP JUMPDEST PUSH2 0x1DC PUSH2 0x3E0 CALLDATASIZE PUSH1 0x4 PUSH2 0x2246 JUMP JUMPDEST PUSH1 0x1 PUSH1 0x1 PUSH1 0xA0 SHL SUB SWAP2 DUP3 AND PUSH1 0x0 SWAP1 DUP2 MSTORE PUSH1 0x5 PUSH1 0x20 SWAP1 DUP2 MSTORE PUSH1 0x40 DUP1 DUP4 KECCAK256 SWAP4 SWAP1 SWAP5 AND DUP3 MSTORE SWAP2 SWAP1 SWAP2 MSTORE KECCAK256 SLOAD PUSH1 0xFF AND SWAP1 JUMP JUMPDEST PUSH2 0x26D PUSH2 0x41C CALLDATASIZE PUSH1 0x4 PUSH2 0x2067 JUMP JUMPDEST PUSH2 0xFC1 JUMP JUMPDEST PUSH2 0x26D PUSH2 0x42F CALLDATASIZE PUSH1 0x4 PUSH2 0x20C5 JUMP JUMPDEST PUSH2 0x1037 JUMP JUMPDEST PUSH1 0x0 PUSH1 0x1 PUSH1 0x1 PUSH1 0xE0 SHL SUB NOT DUP3 AND PUSH4 0x780E9D63 PUSH1 0xE0 SHL EQ DUP1 PUSH2 0x459 JUMPI POP PUSH2 0x459 DUP3 PUSH2 0x1202 JUMP JUMPDEST SWAP3 SWAP2 POP POP JUMP JUMPDEST PUSH1 0x60 PUSH1 0x0 DUP1 SLOAD PUSH2 0x46E SWAP1 PUSH2 0x2274 JUMP JUMPDEST DUP1 PUSH1 0x1F ADD PUSH1 0x20 DUP1 SWAP2 DIV MUL PUSH1 0x20 ADD PUSH1 0x40 MLOAD SWAP1 DUP2 ADD PUSH1 0x40 MSTORE DUP1 SWAP3 SWAP2 SWAP1 DUP2 DUP2 MSTORE PUSH1 0x20 ADD DUP3 DUP1 SLOAD PUSH2 0x49A SWAP1 PUSH2 0x2274 JUMP JUMPDEST DUP1 ISZERO PUSH2 0x4E7 JUMPI DUP1 PUSH1 0x1F LT PUSH2 0x4BC JUMPI PUSH2 0x100 DUP1 DUP4 SLOAD DIV MUL DUP4 MSTORE SWAP2 PUSH1 0x20 ADD SWAP2 PUSH2 0x4E7 JUMP JUMPDEST DUP3 ADD SWAP2 SWAP1 PUSH1 0x0 MSTORE PUSH1 0x20 PUSH1 0x0 KECCAK256 SWAP1 JUMPDEST DUP2 SLOAD DUP2 MSTORE SWAP1 PUSH1 0x1 ADD SWAP1 PUSH1 0x20 ADD DUP1 DUP4 GT PUSH2 0x4CA JUMPI DUP3 SWAP1 SUB PUSH1 0x1F AND DUP3 ADD SWAP2 JUMPDEST POP POP POP POP POP SWAP1 POP SWAP1 JUMP JUMPDEST PUSH1 0x0 PUSH2 0x4FC DUP3 PUSH2 0x1252 JUMP JUMPDEST POP PUSH1 0x0 SWAP1 DUP2 MSTORE PUSH1 0x4 PUSH1 0x20 MSTORE PUSH1 0x40 SWAP1 KECCAK256 SLOAD PUSH1 0x1 PUSH1 0x1 PUSH1 0xA0 SHL SUB AND SWAP1 JUMP JUMPDEST PUSH1 0x0 PUSH2 0x523 DUP3 PUSH2 0xBB8 JUMP JUMPDEST SWAP1 POP DUP1 PUSH1 0x1 PUSH1 0x1 PUSH1 0xA0 SHL SUB AND DUP4 PUSH1 0x1 PUSH1 0x1 PUSH1 0xA0 SHL SUB AND SUB PUSH2 0x595 JUMPI PUSH1 0x40 MLOAD PUSH3 0x461BCD PUSH1 0xE5 SHL DUP2 MSTORE PUSH1 0x20 PUSH1 0x4 DUP3 ADD MSTORE PUSH1 0x21 PUSH1 0x24 DUP3 ADD MSTORE PUSH32 0x4552433732313A20617070726F76616C20746F2063757272656E74206F776E65 PUSH1 0x44 DUP3 ADD MSTORE PUSH1 0x39 PUSH1 0xF9 SHL PUSH1 0x64 DUP3 ADD MSTORE PUSH1 0x84 ADD JUMPDEST PUSH1 0x40 MLOAD DUP1 SWAP2 SUB SWAP1 REVERT JUMPDEST CALLER PUSH1 0x1 PUSH1 0x1 PUSH1 0xA0 SHL SUB DUP3 AND EQ DUP1 PUSH2 0x5B1 JUMPI POP PUSH2 0x5B1 DUP2 CALLER PUSH2 0x3E0 JUMP JUMPDEST PUSH2 0x623 JUMPI PUSH1 0x40 MLOAD PUSH3 0x461BCD PUSH1 0xE5 SHL DUP2 MSTORE PUSH1 0x20 PUSH1 0x4 DUP3 ADD MSTORE PUSH1 0x3E PUSH1 0x24 DUP3 ADD MSTORE PUSH32 0x4552433732313A20617070726F76652063616C6C6572206973206E6F7420746F PUSH1 0x44 DUP3 ADD MSTORE PUSH32 0x6B656E206F776E6572206E6F7220617070726F76656420666F7220616C6C0000 PUSH1 0x64 DUP3 ADD MSTORE PUSH1 0x84 ADD PUSH2 0x58C JUMP JUMPDEST PUSH2 0x62D DUP4 DUP4 PUSH2 0x12B1 JUMP JUMPDEST POP POP POP JUMP JUMPDEST PUSH2 0x63A PUSH2 0x131F JUMP JUMPDEST PUSH1 0xB DUP1 SLOAD PUSH1 0x1 PUSH1 0x1 PUSH1 0xA0 SHL SUB NOT AND PUSH1 0x1 PUSH1 0x1 PUSH1 0xA0 SHL SUB SWAP3 SWAP1 SWAP3 AND SWAP2 SWAP1 SWAP2 OR SWAP1 SSTORE JUMP JUMPDEST PUSH1 0xB SLOAD PUSH1 0x40 MLOAD PUSH4 0x3E10510B PUSH1 0xE0 SHL DUP2 MSTORE PUSH1 0x0 SWAP2 PUSH1 0x1 PUSH1 0x1 PUSH1 0xA0 SHL SUB AND SWAP1 PUSH4 0x2D888869 SWAP1 DUP3 SWAP1 PUSH4 0x3E10510B SWAP1 PUSH2 0x693 SWAP1 PUSH1 0x4 ADD PUSH2 0x22AE JUMP JUMPDEST PUSH1 0x0 PUSH1 0x40 MLOAD DUP1 DUP4 SUB DUP2 DUP7 GAS STATICCALL ISZERO DUP1 ISZERO PUSH2 0x6B0 JUMPI RETURNDATASIZE PUSH1 0x0 DUP1 RETURNDATACOPY RETURNDATASIZE PUSH1 0x0 REVERT JUMPDEST POP POP POP POP PUSH1 0x40 MLOAD RETURNDATASIZE PUSH1 0x0 DUP3 RETURNDATACOPY PUSH1 0x1F RETURNDATASIZE SWAP1 DUP2 ADD PUSH1 0x1F NOT AND DUP3 ADD PUSH1 0x40 MSTORE PUSH2 0x6D8 SWAP2 SWAP1 DUP2 ADD SWAP1 PUSH2 0x2306 JUMP JUMPDEST PUSH1 0x40 MLOAD DUP3 PUSH4 0xFFFFFFFF AND PUSH1 0xE0 SHL DUP2 MSTORE PUSH1 0x4 ADD PUSH2 0x6F4 SWAP2 SWAP1 PUSH2 0x2013 JUMP JUMPDEST PUSH1 0x20 PUSH1 0x40 MLOAD DUP1 DUP4 SUB DUP2 DUP7 GAS STATICCALL ISZERO DUP1 ISZERO PUSH2 0x711 JUMPI RETURNDATASIZE PUSH1 0x0 DUP1 RETURNDATACOPY RETURNDATASIZE PUSH1 0x0 REVERT JUMPDEST POP POP POP POP PUSH1 0x40 MLOAD RETURNDATASIZE PUSH1 0x1F NOT PUSH1 0x1F DUP3 ADD AND DUP3 ADD DUP1 PUSH1 0x40 MSTORE POP DUP2 ADD SWAP1 PUSH2 0x735 SWAP2 SWAP1 PUSH2 0x237D JUMP JUMPDEST SWAP1 POP PUSH1 0x0 DUP2 PUSH1 0x1 PUSH1 0x1 PUSH1 0xA0 SHL SUB AND PUSH4 0xC3BB1A57 PUSH1 0x40 MLOAD DUP2 PUSH4 0xFFFFFFFF AND PUSH1 0xE0 SHL DUP2 MSTORE PUSH1 0x4 ADD PUSH2 0x763 SWAP1 PUSH2 0x239A JUMP JUMPDEST PUSH1 0x0 PUSH1 0x40 MLOAD DUP1 DUP4 SUB DUP2 DUP7 GAS STATICCALL ISZERO DUP1 ISZERO PUSH2 0x780 JUMPI RETURNDATASIZE PUSH1 0x0 DUP1 RETURNDATACOPY RETURNDATASIZE PUSH1 0x0 REVERT JUMPDEST POP POP POP POP PUSH1 0x40 MLOAD RETURNDATASIZE PUSH1 0x0 DUP3 RETURNDATACOPY PUSH1 0x1F RETURNDATASIZE SWAP1 DUP2 ADD PUSH1 0x1F NOT AND DUP3 ADD PUSH1 0x40 MSTORE PUSH2 0x7A8 SWAP2 SWAP1 DUP2 ADD SWAP1 PUSH2 0x23BE JUMP JUMPDEST SWAP1 POP PUSH1 0x0 JUMPDEST DUP2 MLOAD DUP2 LT ISZERO PUSH2 0x828 JUMPI DUP2 DUP2 DUP2 MLOAD DUP2 LT PUSH2 0x7C8 JUMPI PUSH2 0x7C8 PUSH2 0x2470 JUMP JUMPDEST PUSH1 0x20 MUL PUSH1 0x20 ADD ADD MLOAD PUSH1 0x1 PUSH1 0x1 PUSH1 0xA0 SHL SUB AND CALLER PUSH1 0x1 PUSH1 0x1 PUSH1 0xA0 SHL SUB AND SUB PUSH2 0x816 JUMPI PUSH2 0x7F2 DUP6 DUP6 PUSH2 0x1379 JUMP JUMPDEST POP POP POP PUSH1 0x0 SWAP1 DUP2 MSTORE PUSH1 0xC PUSH1 0x20 MSTORE PUSH1 0x40 SWAP1 KECCAK256 DUP1 SLOAD PUSH1 0x1 PUSH1 0x1 PUSH1 0xA0 SHL SUB NOT AND CALLER OR SWAP1 SSTORE POP JUMP JUMPDEST DUP1 PUSH2 0x820 DUP2 PUSH2 0x249C JUMP JUMPDEST SWAP2 POP POP PUSH2 0x7AD JUMP JUMPDEST POP PUSH1 0x40 MLOAD PUSH3 0x461BCD PUSH1 0xE5 SHL DUP2 MSTORE PUSH1 0x20 PUSH1 0x4 DUP3 ADD MSTORE PUSH1 0x1B PUSH1 0x24 DUP3 ADD MSTORE PUSH32 0x63616C6C6572206E6F7420696E206F70657261746F72206C6973740000000000 PUSH1 0x44 DUP3 ADD MSTORE PUSH1 0x64 ADD PUSH2 0x58C JUMP JUMPDEST PUSH2 0x87B CALLER DUP3 PUSH2 0x13E9 JUMP JUMPDEST PUSH2 0x897 JUMPI PUSH1 0x40 MLOAD PUSH3 0x461BCD PUSH1 0xE5 SHL DUP2 MSTORE PUSH1 0x4 ADD PUSH2 0x58C SWAP1 PUSH2 0x24B5 JUMP JUMPDEST PUSH2 0x62D DUP4 DUP4 DUP4 PUSH2 0x1468 JUMP JUMPDEST PUSH1 0x0 PUSH2 0x8AD DUP4 PUSH2 0xC18 JUMP JUMPDEST DUP3 LT PUSH2 0x90F JUMPI PUSH1 0x40 MLOAD PUSH3 0x461BCD PUSH1 0xE5 SHL DUP2 MSTORE PUSH1 0x20 PUSH1 0x4 DUP3 ADD MSTORE PUSH1 0x2B PUSH1 0x24 DUP3 ADD MSTORE PUSH32 0x455243373231456E756D657261626C653A206F776E657220696E646578206F75 PUSH1 0x44 DUP3 ADD MSTORE PUSH11 0x74206F6620626F756E6473 PUSH1 0xA8 SHL PUSH1 0x64 DUP3 ADD MSTORE PUSH1 0x84 ADD PUSH2 0x58C JUMP JUMPDEST POP PUSH1 0x1 PUSH1 0x1 PUSH1 0xA0 SHL SUB SWAP2 SWAP1 SWAP2 AND PUSH1 0x0 SWAP1 DUP2 MSTORE PUSH1 0x6 PUSH1 0x20 SWAP1 DUP2 MSTORE PUSH1 0x40 DUP1 DUP4 KECCAK256 SWAP4 DUP4 MSTORE SWAP3 SWAP1 MSTORE KECCAK256 SLOAD SWAP1 JUMP JUMPDEST PUSH2 0x62D DUP4 DUP4 DUP4 PUSH1 0x40 MLOAD DUP1 PUSH1 0x20 ADD PUSH1 0x40 MSTORE DUP1 PUSH1 0x0 DUP2 MSTORE POP PUSH2 0xCDD JUMP JUMPDEST PUSH1 0x0 PUSH2 0x95E PUSH1 0x8 SLOAD SWAP1 JUMP JUMPDEST DUP3 LT PUSH2 0x9C1 JUMPI PUSH1 0x40 MLOAD PUSH3 0x461BCD PUSH1 0xE5 SHL DUP2 MSTORE PUSH1 0x20 PUSH1 0x4 DUP3 ADD MSTORE PUSH1 0x2C PUSH1 0x24 DUP3 ADD MSTORE PUSH32 0x455243373231456E756D657261626C653A20676C6F62616C20696E646578206F PUSH1 0x44 DUP3 ADD MSTORE PUSH12 0x7574206F6620626F756E6473 PUSH1 0xA0 SHL PUSH1 0x64 DUP3 ADD MSTORE PUSH1 0x84 ADD PUSH2 0x58C JUMP JUMPDEST PUSH1 0x8 DUP3 DUP2 SLOAD DUP2 LT PUSH2 0x9D4 JUMPI PUSH2 0x9D4 PUSH2 0x2470 JUMP JUMPDEST SWAP1 PUSH1 0x0 MSTORE PUSH1 0x20 PUSH1 0x0 KECCAK256 ADD SLOAD SWAP1 POP SWAP2 SWAP1 POP JUMP JUMPDEST PUSH1 0xB SLOAD PUSH1 0x40 MLOAD PUSH4 0x3E10510B PUSH1 0xE0 SHL DUP2 MSTORE PUSH1 0x0 SWAP2 PUSH1 0x1 PUSH1 0x1 PUSH1 0xA0 SHL SUB AND SWAP1 PUSH4 0x2D888869 SWAP1 DUP3 SWAP1 PUSH4 0x3E10510B SWAP1 PUSH2 0xA1D SWAP1 PUSH1 0x4 ADD PUSH2 0x22AE JUMP JUMPDEST PUSH1 0x0 PUSH1 0x40 MLOAD DUP1 DUP4 SUB DUP2 DUP7 GAS STATICCALL ISZERO DUP1 ISZERO PUSH2 0xA3A JUMPI RETURNDATASIZE PUSH1 0x0 DUP1 RETURNDATACOPY RETURNDATASIZE PUSH1 0x0 REVERT JUMPDEST POP POP POP POP PUSH1 0x40 MLOAD RETURNDATASIZE PUSH1 0x0 DUP3 RETURNDATACOPY PUSH1 0x1F RETURNDATASIZE SWAP1 DUP2 ADD PUSH1 0x1F NOT AND DUP3 ADD PUSH1 0x40 MSTORE PUSH2 0xA62 SWAP2 SWAP1 DUP2 ADD SWAP1 PUSH2 0x2306 JUMP JUMPDEST PUSH1 0x40 MLOAD DUP3 PUSH4 0xFFFFFFFF AND PUSH1 0xE0 SHL DUP2 MSTORE PUSH1 0x4 ADD PUSH2 0xA7E SWAP2 SWAP1 PUSH2 0x2013 JUMP JUMPDEST PUSH1 0x20 PUSH1 0x40 MLOAD DUP1 DUP4 SUB DUP2 DUP7 GAS STATICCALL ISZERO DUP1 ISZERO PUSH2 0xA9B JUMPI RETURNDATASIZE PUSH1 0x0 DUP1 RETURNDATACOPY RETURNDATASIZE PUSH1 0x0 REVERT JUMPDEST POP POP POP POP PUSH1 0x40 MLOAD RETURNDATASIZE PUSH1 0x1F NOT PUSH1 0x1F DUP3 ADD AND DUP3 ADD DUP1 PUSH1 0x40 MSTORE POP DUP2 ADD SWAP1 PUSH2 0xABF SWAP2 SWAP1 PUSH2 0x237D JUMP JUMPDEST SWAP1 POP PUSH1 0x0 DUP2 PUSH1 0x1 PUSH1 0x1 PUSH1 0xA0 SHL SUB AND PUSH4 0xC3BB1A57 PUSH1 0x40 MLOAD DUP2 PUSH4 0xFFFFFFFF AND PUSH1 0xE0 SHL DUP2 MSTORE PUSH1 0x4 ADD PUSH2 0xAED SWAP1 PUSH2 0x239A JUMP JUMPDEST PUSH1 0x0 PUSH1 0x40 MLOAD DUP1 DUP4 SUB DUP2 DUP7 GAS STATICCALL ISZERO DUP1 ISZERO PUSH2 0xB0A JUMPI RETURNDATASIZE PUSH1 0x0 DUP1 RETURNDATACOPY RETURNDATASIZE PUSH1 0x0 REVERT JUMPDEST POP POP POP POP PUSH1 0x40 MLOAD RETURNDATASIZE PUSH1 0x0 DUP3 RETURNDATACOPY PUSH1 0x1F RETURNDATASIZE SWAP1 DUP2 ADD PUSH1 0x1F NOT AND DUP3 ADD PUSH1 0x40 MSTORE PUSH2 0xB32 SWAP2 SWAP1 DUP2 ADD SWAP1 PUSH2 0x23BE JUMP JUMPDEST SWAP1 POP PUSH1 0x0 JUMPDEST DUP2 MLOAD DUP2 LT ISZERO PUSH2 0x828 JUMPI DUP2 DUP2 DUP2 MLOAD DUP2 LT PUSH2 0xB52 JUMPI PUSH2 0xB52 PUSH2 0x2470 JUMP JUMPDEST PUSH1 0x20 MUL PUSH1 0x20 ADD ADD MLOAD PUSH1 0x1 PUSH1 0x1 PUSH1 0xA0 SHL SUB AND CALLER PUSH1 0x1 PUSH1 0x1 PUSH1 0xA0 SHL SUB AND EQ DUP1 ISZERO PUSH2 0xB90 JUMPI POP PUSH1 0x0 DUP6 DUP2 MSTORE PUSH1 0xC PUSH1 0x20 MSTORE PUSH1 0x40 SWAP1 KECCAK256 SLOAD PUSH1 0x1 PUSH1 0x1 PUSH1 0xA0 SHL SUB AND CALLER EQ JUMPDEST ISZERO PUSH2 0xBA6 JUMPI PUSH2 0xB9F DUP6 DUP6 PUSH2 0x160F JUMP JUMPDEST POP POP POP POP POP JUMP JUMPDEST DUP1 PUSH2 0xBB0 DUP2 PUSH2 0x249C JUMP JUMPDEST SWAP2 POP POP PUSH2 0xB37 JUMP JUMPDEST PUSH1 0x0 DUP2 DUP2 MSTORE PUSH1 0x2 PUSH1 0x20 MSTORE PUSH1 0x40 DUP2 KECCAK256 SLOAD PUSH1 0x1 PUSH1 0x1 PUSH1 0xA0 SHL SUB AND DUP1 PUSH2 0x459 JUMPI PUSH1 0x40 MLOAD PUSH3 0x461BCD PUSH1 0xE5 SHL DUP2 MSTORE PUSH1 0x20 PUSH1 0x4 DUP3 ADD MSTORE PUSH1 0x18 PUSH1 0x24 DUP3 ADD MSTORE PUSH24 0x115490CDCC8C4E881A5B9D985B1A59081D1BDAD95B881251 PUSH1 0x42 SHL PUSH1 0x44 DUP3 ADD MSTORE PUSH1 0x64 ADD PUSH2 0x58C JUMP JUMPDEST PUSH1 0x0 PUSH1 0x1 PUSH1 0x1 PUSH1 0xA0 SHL SUB DUP3 AND PUSH2 0xC82 JUMPI PUSH1 0x40 MLOAD PUSH3 0x461BCD PUSH1 0xE5 SHL DUP2 MSTORE PUSH1 0x20 PUSH1 0x4 DUP3 ADD MSTORE PUSH1 0x29 PUSH1 0x24 DUP3 ADD MSTORE PUSH32 0x4552433732313A2061646472657373207A65726F206973206E6F742061207661 PUSH1 0x44 DUP3 ADD MSTORE PUSH9 0x3634B21037BBB732B9 PUSH1 0xB9 SHL PUSH1 0x64 DUP3 ADD MSTORE PUSH1 0x84 ADD PUSH2 0x58C JUMP JUMPDEST POP PUSH1 0x1 PUSH1 0x1 PUSH1 0xA0 SHL SUB AND PUSH1 0x0 SWAP1 DUP2 MSTORE PUSH1 0x3 PUSH1 0x20 MSTORE PUSH1 0x40 SWAP1 KECCAK256 SLOAD SWAP1 JUMP JUMPDEST PUSH2 0xCA6 PUSH2 0x131F JUMP JUMPDEST PUSH2 0xCB0 PUSH1 0x0 PUSH2 0x16D3 JUMP JUMPDEST JUMP JUMPDEST PUSH2 0xCBC ORIGIN DUP3 PUSH2 0x1379 JUMP JUMPDEST POP JUMP JUMPDEST PUSH1 0x60 PUSH1 0x1 DUP1 SLOAD PUSH2 0x46E SWAP1 PUSH2 0x2274 JUMP JUMPDEST PUSH2 0xCD9 CALLER DUP4 DUP4 PUSH2 0x1725 JUMP JUMPDEST POP POP JUMP JUMPDEST PUSH2 0xCE7 CALLER DUP4 PUSH2 0x13E9 JUMP JUMPDEST PUSH2 0xD03 JUMPI PUSH1 0x40 MLOAD PUSH3 0x461BCD PUSH1 0xE5 SHL DUP2 MSTORE PUSH1 0x4 ADD PUSH2 0x58C SWAP1 PUSH2 0x24B5 JUMP JUMPDEST PUSH2 0xD0F DUP5 DUP5 DUP5 DUP5 PUSH2 0x17F3 JUMP JUMPDEST POP POP POP POP JUMP JUMPDEST PUSH2 0xD1F DUP3 ORIGIN PUSH2 0xD69 JUMP JUMPDEST PUSH2 0xD5F JUMPI PUSH1 0x40 MLOAD PUSH3 0x461BCD PUSH1 0xE5 SHL DUP2 MSTORE PUSH1 0x20 PUSH1 0x4 DUP3 ADD MSTORE PUSH1 0x11 PUSH1 0x24 DUP3 ADD MSTORE PUSH17 0x1B9BDD081BDDDB995C881BD9881CDBDD5B PUSH1 0x7A SHL PUSH1 0x44 DUP3 ADD MSTORE PUSH1 0x64 ADD PUSH2 0x58C JUMP JUMPDEST PUSH2 0xCD9 DUP3 DUP3 PUSH2 0x1826 JUMP JUMPDEST PUSH1 0x0 DUP3 DUP2 MSTORE PUSH1 0x2 PUSH1 0x20 MSTORE PUSH1 0x40 DUP2 KECCAK256 SLOAD PUSH1 0x1 PUSH1 0x1 PUSH1 0xA0 SHL SUB AND PUSH2 0xDC1 JUMPI PUSH1 0x40 MLOAD PUSH3 0x461BCD PUSH1 0xE5 SHL DUP2 MSTORE PUSH1 0x20 PUSH1 0x4 DUP3 ADD MSTORE PUSH1 0x11 PUSH1 0x24 DUP3 ADD MSTORE PUSH17 0x3737B732BC34B9BA32B73A103A37B5B2B7 PUSH1 0x79 SHL PUSH1 0x44 DUP3 ADD MSTORE PUSH1 0x64 ADD PUSH2 0x58C JUMP JUMPDEST PUSH1 0x0 DUP4 DUP2 MSTORE PUSH1 0xD PUSH1 0x20 SWAP1 DUP2 MSTORE PUSH1 0x40 DUP1 DUP4 KECCAK256 PUSH1 0x1 PUSH1 0x1 PUSH1 0xA0 SHL SUB DUP7 AND DUP5 MSTORE SWAP1 SWAP2 MSTORE SWAP1 KECCAK256 SLOAD PUSH1 0xFF AND DUP1 PUSH2 0xE0B JUMPI POP DUP2 PUSH1 0x1 PUSH1 0x1 PUSH1 0xA0 SHL SUB AND PUSH2 0xE00 DUP5 PUSH2 0xBB8 JUMP JUMPDEST PUSH1 0x1 PUSH1 0x1 PUSH1 0xA0 SHL SUB AND EQ JUMPDEST SWAP4 SWAP3 POP POP POP JUMP JUMPDEST PUSH2 0xE1C DUP3 ORIGIN PUSH2 0xD69 JUMP JUMPDEST PUSH2 0xE5C JUMPI PUSH1 0x40 MLOAD PUSH3 0x461BCD PUSH1 0xE5 SHL DUP2 MSTORE PUSH1 0x20 PUSH1 0x4 DUP3 ADD MSTORE PUSH1 0x11 PUSH1 0x24 DUP3 ADD MSTORE PUSH17 0x1B9BDD081BDDDB995C881BD9881CDBDD5B PUSH1 0x7A SHL PUSH1 0x44 DUP3 ADD MSTORE PUSH1 0x64 ADD PUSH2 0x58C JUMP JUMPDEST PUSH2 0xCD9 DUP3 DUP3 PUSH2 0x160F JUMP JUMPDEST PUSH1 0x0 DUP2 DUP2 MSTORE PUSH1 0x2 PUSH1 0x20 MSTORE PUSH1 0x40 SWAP1 KECCAK256 SLOAD PUSH1 0x60 SWAP1 PUSH1 0x1 PUSH1 0x1 PUSH1 0xA0 SHL SUB AND PUSH2 0xEC1 JUMPI PUSH1 0x40 MLOAD PUSH3 0x461BCD PUSH1 0xE5 SHL DUP2 MSTORE PUSH1 0x20 PUSH1 0x4 DUP3 ADD MSTORE PUSH1 0x11 PUSH1 0x24 DUP3 ADD MSTORE PUSH17 0x3737B732BC34B9BA32B73A103A37B5B2B7 PUSH1 0x79 SHL PUSH1 0x44 DUP3 ADD MSTORE PUSH1 0x64 ADD PUSH2 0x58C JUMP JUMPDEST PUSH1 0x0 PUSH2 0xECC DUP4 PUSH2 0x1884 JUMP JUMPDEST PUSH1 0xB SLOAD PUSH1 0x40 MLOAD PUSH4 0x3E10510B PUSH1 0xE0 SHL DUP2 MSTORE PUSH2 0xF6F SWAP2 PUSH1 0x1 PUSH1 0x1 PUSH1 0xA0 SHL SUB AND SWAP1 PUSH4 0x3E10510B SWAP1 PUSH2 0xEFC SWAP1 PUSH1 0x4 ADD PUSH2 0x2503 JUMP JUMPDEST PUSH1 0x0 PUSH1 0x40 MLOAD DUP1 DUP4 SUB DUP2 DUP7 GAS STATICCALL ISZERO DUP1 ISZERO PUSH2 0xF19 JUMPI RETURNDATASIZE PUSH1 0x0 DUP1 RETURNDATACOPY RETURNDATASIZE PUSH1 0x0 REVERT JUMPDEST POP POP POP POP PUSH1 0x40 MLOAD RETURNDATASIZE PUSH1 0x0 DUP3 RETURNDATACOPY PUSH1 0x1F RETURNDATASIZE SWAP1 DUP2 ADD PUSH1 0x1F NOT AND DUP3 ADD PUSH1 0x40 MSTORE PUSH2 0xF41 SWAP2 SWAP1 DUP2 ADD SWAP1 PUSH2 0x2306 JUMP JUMPDEST PUSH2 0xF4A DUP7 PUSH2 0x1884 JUMP JUMPDEST PUSH1 0x40 MLOAD PUSH1 0x20 ADD PUSH2 0xF5B SWAP3 SWAP2 SWAP1 PUSH2 0x256C JUMP JUMPDEST PUSH1 0x40 MLOAD PUSH1 0x20 DUP2 DUP4 SUB SUB DUP2 MSTORE SWAP1 PUSH1 0x40 MSTORE PUSH2 0x1985 JUMP JUMPDEST PUSH1 0x40 MLOAD PUSH1 0x20 ADD PUSH2 0xF80 SWAP3 SWAP2 SWAP1 PUSH2 0x27EB JUMP JUMPDEST PUSH1 0x40 MLOAD PUSH1 0x20 DUP2 DUP4 SUB SUB DUP2 MSTORE SWAP1 PUSH1 0x40 MSTORE SWAP1 POP PUSH2 0xF9A DUP2 PUSH2 0x1985 JUMP JUMPDEST PUSH1 0x40 MLOAD PUSH1 0x20 ADD PUSH2 0xFAA SWAP2 SWAP1 PUSH2 0x28BB JUMP JUMPDEST PUSH1 0x40 MLOAD PUSH1 0x20 DUP2 DUP4 SUB SUB DUP2 MSTORE SWAP1 PUSH1 0x40 MSTORE SWAP2 POP POP SWAP2 SWAP1 POP JUMP JUMPDEST PUSH2 0xFC9 PUSH2 0x131F JUMP JUMPDEST PUSH1 0x1 PUSH1 0x1 PUSH1 0xA0 SHL SUB DUP2 AND PUSH2 0x102E JUMPI PUSH1 0x40 MLOAD PUSH3 0x461BCD PUSH1 0xE5 SHL DUP2 MSTORE PUSH1 0x20 PUSH1 0x4 DUP3 ADD MSTORE PUSH1 0x26 PUSH1 0x24 DUP3 ADD MSTORE PUSH32 0x4F776E61626C653A206E6577206F776E657220697320746865207A65726F2061 PUSH1 0x44 DUP3 ADD MSTORE PUSH6 0x646472657373 PUSH1 0xD0 SHL PUSH1 0x64 DUP3 ADD MSTORE PUSH1 0x84 ADD PUSH2 0x58C JUMP JUMPDEST PUSH2 0xCBC DUP2 PUSH2 0x16D3 JUMP JUMPDEST PUSH1 0xB SLOAD PUSH1 0x40 MLOAD PUSH4 0x3E10510B PUSH1 0xE0 SHL DUP2 MSTORE PUSH1 0x0 SWAP2 PUSH1 0x1 PUSH1 0x1 PUSH1 0xA0 SHL SUB AND SWAP1 PUSH4 0x2D888869 SWAP1 DUP3 SWAP1 PUSH4 0x3E10510B SWAP1 PUSH2 0x106E SWAP1 PUSH1 0x4 ADD PUSH2 0x22AE JUMP JUMPDEST PUSH1 0x0 PUSH1 0x40 MLOAD DUP1 DUP4 SUB DUP2 DUP7 GAS STATICCALL ISZERO DUP1 ISZERO PUSH2 0x108B JUMPI RETURNDATASIZE PUSH1 0x0 DUP1 RETURNDATACOPY RETURNDATASIZE PUSH1 0x0 REVERT JUMPDEST POP POP POP POP PUSH1 0x40 MLOAD RETURNDATASIZE PUSH1 0x0 DUP3 RETURNDATACOPY PUSH1 0x1F RETURNDATASIZE SWAP1 DUP2 ADD PUSH1 0x1F NOT AND DUP3 ADD PUSH1 0x40 MSTORE PUSH2 0x10B3 SWAP2 SWAP1 DUP2 ADD SWAP1 PUSH2 0x2306 JUMP JUMPDEST PUSH1 0x40 MLOAD DUP3 PUSH4 0xFFFFFFFF AND PUSH1 0xE0 SHL DUP2 MSTORE PUSH1 0x4 ADD PUSH2 0x10CF SWAP2 SWAP1 PUSH2 0x2013 JUMP JUMPDEST PUSH1 0x20 PUSH1 0x40 MLOAD DUP1 DUP4 SUB DUP2 DUP7 GAS STATICCALL ISZERO DUP1 ISZERO PUSH2 0x10EC JUMPI RETURNDATASIZE PUSH1 0x0 DUP1 RETURNDATACOPY RETURNDATASIZE PUSH1 0x0 REVERT JUMPDEST POP POP POP POP PUSH1 0x40 MLOAD RETURNDATASIZE PUSH1 0x1F NOT PUSH1 0x1F DUP3 ADD AND DUP3 ADD DUP1 PUSH1 0x40 MSTORE POP DUP2 ADD SWAP1 PUSH2 0x1110 SWAP2 SWAP1 PUSH2 0x237D JUMP JUMPDEST SWAP1 POP PUSH1 0x0 DUP2 PUSH1 0x1 PUSH1 0x1 PUSH1 0xA0 SHL SUB AND PUSH4 0xC3BB1A57 PUSH1 0x40 MLOAD DUP2 PUSH4 0xFFFFFFFF AND PUSH1 0xE0 SHL DUP2 MSTORE PUSH1 0x4 ADD PUSH2 0x113E SWAP1 PUSH2 0x239A JUMP JUMPDEST PUSH1 0x0 PUSH1 0x40 MLOAD DUP1 DUP4 SUB DUP2 DUP7 GAS STATICCALL ISZERO DUP1 ISZERO PUSH2 0x115B JUMPI RETURNDATASIZE PUSH1 0x0 DUP1 RETURNDATACOPY RETURNDATASIZE PUSH1 0x0 REVERT JUMPDEST POP POP POP POP PUSH1 0x40 MLOAD RETURNDATASIZE PUSH1 0x0 DUP3 RETURNDATACOPY PUSH1 0x1F RETURNDATASIZE SWAP1 DUP2 ADD PUSH1 0x1F NOT AND DUP3 ADD PUSH1 0x40 MSTORE PUSH2 0x1183 SWAP2 SWAP1 DUP2 ADD SWAP1 PUSH2 0x23BE JUMP JUMPDEST SWAP1 POP PUSH1 0x0 JUMPDEST DUP2 MLOAD DUP2 LT ISZERO PUSH2 0x828 JUMPI DUP2 DUP2 DUP2 MLOAD DUP2 LT PUSH2 0x11A3 JUMPI PUSH2 0x11A3 PUSH2 0x2470 JUMP JUMPDEST PUSH1 0x20 MUL PUSH1 0x20 ADD ADD MLOAD PUSH1 0x1 PUSH1 0x1 PUSH1 0xA0 SHL SUB AND CALLER PUSH1 0x1 PUSH1 0x1 PUSH1 0xA0 SHL SUB AND EQ DUP1 ISZERO PUSH2 0x11E1 JUMPI POP PUSH1 0x0 DUP6 DUP2 MSTORE PUSH1 0xC PUSH1 0x20 MSTORE PUSH1 0x40 SWAP1 KECCAK256 SLOAD PUSH1 0x1 PUSH1 0x1 PUSH1 0xA0 SHL SUB AND CALLER EQ JUMPDEST ISZERO PUSH2 0x11F0 JUMPI PUSH2 0xB9F DUP6 DUP6 PUSH2 0x1826 JUMP JUMPDEST DUP1 PUSH2 0x11FA DUP2 PUSH2 0x249C JUMP JUMPDEST SWAP2 POP POP PUSH2 0x1188 JUMP JUMPDEST PUSH1 0x0 PUSH1 0x1 PUSH1 0x1 PUSH1 0xE0 SHL SUB NOT DUP3 AND PUSH4 0x80AC58CD PUSH1 0xE0 SHL EQ DUP1 PUSH2 0x1233 JUMPI POP PUSH1 0x1 PUSH1 0x1 PUSH1 0xE0 SHL SUB NOT DUP3 AND PUSH4 0x5B5E139F PUSH1 0xE0 SHL EQ JUMPDEST DUP1 PUSH2 0x459 JUMPI POP PUSH4 0x1FFC9A7 PUSH1 0xE0 SHL PUSH1 0x1 PUSH1 0x1 PUSH1 0xE0 SHL SUB NOT DUP4 AND EQ PUSH2 0x459 JUMP JUMPDEST PUSH1 0x0 DUP2 DUP2 MSTORE PUSH1 0x2 PUSH1 0x20 MSTORE PUSH1 0x40 SWAP1 KECCAK256 SLOAD PUSH1 0x1 PUSH1 0x1 PUSH1 0xA0 SHL SUB AND PUSH2 0xCBC JUMPI PUSH1 0x40 MLOAD PUSH3 0x461BCD PUSH1 0xE5 SHL DUP2 MSTORE PUSH1 0x20 PUSH1 0x4 DUP3 ADD MSTORE PUSH1 0x18 PUSH1 0x24 DUP3 ADD MSTORE PUSH24 0x115490CDCC8C4E881A5B9D985B1A59081D1BDAD95B881251 PUSH1 0x42 SHL PUSH1 0x44 DUP3 ADD MSTORE PUSH1 0x64 ADD PUSH2 0x58C JUMP JUMPDEST PUSH1 0x0 DUP2 DUP2 MSTORE PUSH1 0x4 PUSH1 0x20 MSTORE PUSH1 0x40 SWAP1 KECCAK256 DUP1 SLOAD PUSH1 0x1 PUSH1 0x1 PUSH1 0xA0 SHL SUB NOT AND PUSH1 0x1 PUSH1 0x1 PUSH1 0xA0 SHL SUB DUP5 AND SWAP1 DUP2 OR SWAP1 SWAP2 SSTORE DUP2 SWAP1 PUSH2 0x12E6 DUP3 PUSH2 0xBB8 JUMP JUMPDEST PUSH1 0x1 PUSH1 0x1 PUSH1 0xA0 SHL SUB AND PUSH32 0x8C5BE1E5EBEC7D5BD14F71427D1E84F3DD0314C0F7B2291E5B200AC8C7C3B925 PUSH1 0x40 MLOAD PUSH1 0x40 MLOAD DUP1 SWAP2 SUB SWAP1 LOG4 POP POP JUMP JUMPDEST PUSH1 0xA SLOAD PUSH1 0x1 PUSH1 0x1 PUSH1 0xA0 SHL SUB AND CALLER EQ PUSH2 0xCB0 JUMPI PUSH1 0x40 MLOAD PUSH3 0x461BCD PUSH1 0xE5 SHL DUP2 MSTORE PUSH1 0x20 PUSH1 0x4 DUP3 ADD DUP2 SWAP1 MSTORE PUSH1 0x24 DUP3 ADD MSTORE PUSH32 0x4F776E61626C653A2063616C6C6572206973206E6F7420746865206F776E6572 PUSH1 0x44 DUP3 ADD MSTORE PUSH1 0x64 ADD PUSH2 0x58C JUMP JUMPDEST PUSH2 0x1383 DUP3 DUP3 PUSH2 0x1AD8 JUMP JUMPDEST PUSH1 0x0 DUP2 DUP2 MSTORE PUSH1 0xD PUSH1 0x20 SWAP1 DUP2 MSTORE PUSH1 0x40 DUP1 DUP4 KECCAK256 PUSH1 0x1 PUSH1 0x1 PUSH1 0xA0 SHL SUB DUP7 AND DUP1 DUP6 MSTORE SWAP1 DUP4 MSTORE SWAP3 DUP2 SWAP1 KECCAK256 DUP1 SLOAD PUSH1 0xFF NOT AND PUSH1 0x1 OR SWAP1 SSTORE MLOAD SWAP2 DUP3 MSTORE DUP3 SWAP2 PUSH32 0xCAD03A9101BD852B136D161A1B16B7BA008655DECD17A2FAEC9259B23B5045BA SWAP2 ADD JUMPDEST PUSH1 0x40 MLOAD DUP1 SWAP2 SUB SWAP1 LOG2 POP POP JUMP JUMPDEST PUSH1 0x0 DUP1 PUSH2 0x13F5 DUP4 PUSH2 0xBB8 JUMP JUMPDEST SWAP1 POP DUP1 PUSH1 0x1 PUSH1 0x1 PUSH1 0xA0 SHL SUB AND DUP5 PUSH1 0x1 PUSH1 0x1 PUSH1 0xA0 SHL SUB AND EQ DUP1 PUSH2 0x143C JUMPI POP PUSH1 0x1 PUSH1 0x1 PUSH1 0xA0 SHL SUB DUP1 DUP3 AND PUSH1 0x0 SWAP1 DUP2 MSTORE PUSH1 0x5 PUSH1 0x20 SWAP1 DUP2 MSTORE PUSH1 0x40 DUP1 DUP4 KECCAK256 SWAP4 DUP9 AND DUP4 MSTORE SWAP3 SWAP1 MSTORE KECCAK256 SLOAD PUSH1 0xFF AND JUMPDEST DUP1 PUSH2 0x1460 JUMPI POP DUP4 PUSH1 0x1 PUSH1 0x1 PUSH1 0xA0 SHL SUB AND PUSH2 0x1455 DUP5 PUSH2 0x4F1 JUMP JUMPDEST PUSH1 0x1 PUSH1 0x1 PUSH1 0xA0 SHL SUB AND EQ JUMPDEST SWAP5 SWAP4 POP POP POP POP JUMP JUMPDEST DUP3 PUSH1 0x1 PUSH1 0x1 PUSH1 0xA0 SHL SUB AND PUSH2 0x147B DUP3 PUSH2 0xBB8 JUMP JUMPDEST PUSH1 0x1 PUSH1 0x1 PUSH1 0xA0 SHL SUB AND EQ PUSH2 0x14DF JUMPI PUSH1 0x40 MLOAD PUSH3 0x461BCD PUSH1 0xE5 SHL DUP2 MSTORE PUSH1 0x20 PUSH1 0x4 DUP3 ADD MSTORE PUSH1 0x25 PUSH1 0x24 DUP3 ADD MSTORE PUSH32 0x4552433732313A207472616E736665722066726F6D20696E636F727265637420 PUSH1 0x44 DUP3 ADD MSTORE PUSH5 0x37BBB732B9 PUSH1 0xD9 SHL PUSH1 0x64 DUP3 ADD MSTORE PUSH1 0x84 ADD PUSH2 0x58C JUMP JUMPDEST PUSH1 0x1 PUSH1 0x1 PUSH1 0xA0 SHL SUB DUP3 AND PUSH2 0x1541 JUMPI PUSH1 0x40 MLOAD PUSH3 0x461BCD PUSH1 0xE5 SHL DUP2 MSTORE PUSH1 0x20 PUSH1 0x4 DUP3 ADD MSTORE PUSH1 0x24 DUP1 DUP3 ADD MSTORE PUSH32 0x4552433732313A207472616E7366657220746F20746865207A65726F20616464 PUSH1 0x44 DUP3 ADD MSTORE PUSH4 0x72657373 PUSH1 0xE0 SHL PUSH1 0x64 DUP3 ADD MSTORE PUSH1 0x84 ADD PUSH2 0x58C JUMP JUMPDEST PUSH2 0x154C DUP4 DUP4 DUP4 PUSH2 0x1C26 JUMP JUMPDEST PUSH2 0x1557 PUSH1 0x0 DUP3 PUSH2 0x12B1 JUMP JUMPDEST PUSH1 0x1 PUSH1 0x1 PUSH1 0xA0 SHL SUB DUP4 AND PUSH1 0x0 SWAP1 DUP2 MSTORE PUSH1 0x3 PUSH1 0x20 MSTORE PUSH1 0x40 DUP2 KECCAK256 DUP1 SLOAD PUSH1 0x1 SWAP3 SWAP1 PUSH2 0x1580 SWAP1 DUP5 SWAP1 PUSH2 0x2900 JUMP JUMPDEST SWAP1 SWAP2 SSTORE POP POP PUSH1 0x1 PUSH1 0x1 PUSH1 0xA0 SHL SUB DUP3 AND PUSH1 0x0 SWAP1 DUP2 MSTORE PUSH1 0x3 PUSH1 0x20 MSTORE PUSH1 0x40 DUP2 KECCAK256 DUP1 SLOAD PUSH1 0x1 SWAP3 SWAP1 PUSH2 0x15AE SWAP1 DUP5 SWAP1 PUSH2 0x2917 JUMP JUMPDEST SWAP1 SWAP2 SSTORE POP POP PUSH1 0x0 DUP2 DUP2 MSTORE PUSH1 0x2 PUSH1 0x20 MSTORE PUSH1 0x40 DUP1 DUP3 KECCAK256 DUP1 SLOAD PUSH1 0x1 PUSH1 0x1 PUSH1 0xA0 SHL SUB NOT AND PUSH1 0x1 PUSH1 0x1 PUSH1 0xA0 SHL SUB DUP7 DUP2 AND SWAP2 DUP3 OR SWAP1 SWAP3 SSTORE SWAP2 MLOAD DUP5 SWAP4 SWAP2 DUP8 AND SWAP2 PUSH32 0xDDF252AD1BE2C89B69C2B068FC378DAA952BA7F163C4A11628F55A4DF523B3EF SWAP2 LOG4 POP POP POP JUMP JUMPDEST DUP1 PUSH1 0x1 PUSH1 0x1 PUSH1 0xA0 SHL SUB AND PUSH2 0x1622 DUP4 PUSH2 0xBB8 JUMP JUMPDEST PUSH1 0x1 PUSH1 0x1 PUSH1 0xA0 SHL SUB AND SUB PUSH2 0x1678 JUMPI PUSH1 0x40 MLOAD PUSH3 0x461BCD PUSH1 0xE5 SHL DUP2 MSTORE PUSH1 0x20 PUSH1 0x4 DUP3 ADD MSTORE PUSH1 0x1C PUSH1 0x24 DUP3 ADD MSTORE PUSH32 0x63616E6E6F742072656D6F7665206F776E6572206F6620746F6B656E00000000 PUSH1 0x44 DUP3 ADD MSTORE PUSH1 0x64 ADD PUSH2 0x58C JUMP JUMPDEST PUSH1 0x0 DUP3 DUP2 MSTORE PUSH1 0xD PUSH1 0x20 SWAP1 DUP2 MSTORE PUSH1 0x40 DUP1 DUP4 KECCAK256 PUSH1 0x1 PUSH1 0x1 PUSH1 0xA0 SHL SUB DUP6 AND DUP1 DUP6 MSTORE SWAP1 DUP4 MSTORE SWAP3 DUP2 SWAP1 KECCAK256 DUP1 SLOAD PUSH1 0xFF NOT AND SWAP1 SSTORE MLOAD SWAP2 DUP3 MSTORE DUP4 SWAP2 PUSH32 0xCB55B9C460A26528D8133448DA62FE50F8B555CBF7B6851F38AEE64AC07C9782 SWAP2 ADD PUSH2 0x13DD JUMP JUMPDEST PUSH1 0xA DUP1 SLOAD PUSH1 0x1 PUSH1 0x1 PUSH1 0xA0 SHL SUB DUP4 DUP2 AND PUSH1 0x1 PUSH1 0x1 PUSH1 0xA0 SHL SUB NOT DUP4 AND DUP2 OR SWAP1 SWAP4 SSTORE PUSH1 0x40 MLOAD SWAP2 AND SWAP2 SWAP1 DUP3 SWAP1 PUSH32 0x8BE0079C531659141344CD1FD0A4F28419497F9722A3DAAFE3B4186F6B6457E0 SWAP1 PUSH1 0x0 SWAP1 LOG3 POP POP JUMP JUMPDEST DUP2 PUSH1 0x1 PUSH1 0x1 PUSH1 0xA0 SHL SUB AND DUP4 PUSH1 0x1 PUSH1 0x1 PUSH1 0xA0 SHL SUB AND SUB PUSH2 0x1786 JUMPI PUSH1 0x40 MLOAD PUSH3 0x461BCD PUSH1 0xE5 SHL DUP2 MSTORE PUSH1 0x20 PUSH1 0x4 DUP3 ADD MSTORE PUSH1 0x19 PUSH1 0x24 DUP3 ADD MSTORE PUSH32 0x4552433732313A20617070726F766520746F2063616C6C657200000000000000 PUSH1 0x44 DUP3 ADD MSTORE PUSH1 0x64 ADD PUSH2 0x58C JUMP JUMPDEST PUSH1 0x1 PUSH1 0x1 PUSH1 0xA0 SHL SUB DUP4 DUP2 AND PUSH1 0x0 DUP2 DUP2 MSTORE PUSH1 0x5 PUSH1 0x20 SWAP1 DUP2 MSTORE PUSH1 0x40 DUP1 DUP4 KECCAK256 SWAP5 DUP8 AND DUP1 DUP5 MSTORE SWAP5 DUP3 MSTORE SWAP2 DUP3 SWAP1 KECCAK256 DUP1 SLOAD PUSH1 0xFF NOT AND DUP7 ISZERO ISZERO SWAP1 DUP2 OR SWAP1 SWAP2 SSTORE SWAP2 MLOAD SWAP2 DUP3 MSTORE PUSH32 0x17307EAB39AB6107E8899845AD3D59BD9653F200F220920489CA2B5937696C31 SWAP2 ADD PUSH1 0x40 MLOAD DUP1 SWAP2 SUB SWAP1 LOG3 POP POP POP JUMP JUMPDEST PUSH2 0x17FE DUP5 DUP5 DUP5 PUSH2 0x1468 JUMP JUMPDEST PUSH2 0x180A DUP5 DUP5 DUP5 DUP5 PUSH2 0x1CDE JUMP JUMPDEST PUSH2 0xD0F JUMPI PUSH1 0x40 MLOAD PUSH3 0x461BCD PUSH1 0xE5 SHL DUP2 MSTORE PUSH1 0x4 ADD PUSH2 0x58C SWAP1 PUSH2 0x292F JUMP JUMPDEST PUSH1 0x0 DUP3 DUP2 MSTORE PUSH1 0xD PUSH1 0x20 SWAP1 DUP2 MSTORE PUSH1 0x40 DUP1 DUP4 KECCAK256 PUSH1 0x1 PUSH1 0x1 PUSH1 0xA0 SHL SUB DUP6 AND DUP1 DUP6 MSTORE SWAP1 DUP4 MSTORE SWAP3 DUP2 SWAP1 KECCAK256 DUP1 SLOAD PUSH1 0xFF NOT AND PUSH1 0x1 OR SWAP1 SSTORE MLOAD SWAP2 DUP3 MSTORE DUP4 SWAP2 PUSH32 0x90BCC508602CE6509AFAE3103F5FA4BD917ECDD0FFA791EF4FFB51BBAF190822 SWAP2 ADD PUSH2 0x13DD JUMP JUMPDEST PUSH1 0x60 DUP2 PUSH1 0x0 SUB PUSH2 0x18AB JUMPI POP POP PUSH1 0x40 DUP1 MLOAD DUP1 DUP3 ADD SWAP1 SWAP2 MSTORE PUSH1 0x1 DUP2 MSTORE PUSH1 0x3 PUSH1 0xFC SHL PUSH1 0x20 DUP3 ADD MSTORE SWAP1 JUMP JUMPDEST DUP2 PUSH1 0x0 JUMPDEST DUP2 ISZERO PUSH2 0x18D5 JUMPI DUP1 PUSH2 0x18BF DUP2 PUSH2 0x249C JUMP JUMPDEST SWAP2 POP PUSH2 0x18CE SWAP1 POP PUSH1 0xA DUP4 PUSH2 0x2997 JUMP JUMPDEST SWAP2 POP PUSH2 0x18AF JUMP JUMPDEST PUSH1 0x0 DUP2 PUSH8 0xFFFFFFFFFFFFFFFF DUP2 GT ISZERO PUSH2 0x18F0 JUMPI PUSH2 0x18F0 PUSH2 0x2128 JUMP JUMPDEST PUSH1 0x40 MLOAD SWAP1 DUP1 DUP3 MSTORE DUP1 PUSH1 0x1F ADD PUSH1 0x1F NOT AND PUSH1 0x20 ADD DUP3 ADD PUSH1 0x40 MSTORE DUP1 ISZERO PUSH2 0x191A JUMPI PUSH1 0x20 DUP3 ADD DUP2 DUP1 CALLDATASIZE DUP4 CALLDATACOPY ADD SWAP1 POP JUMPDEST POP SWAP1 POP JUMPDEST DUP5 ISZERO PUSH2 0x1460 JUMPI PUSH2 0x192F PUSH1 0x1 DUP4 PUSH2 0x2900 JUMP JUMPDEST SWAP2 POP PUSH2 0x193C PUSH1 0xA DUP7 PUSH2 0x29AB JUMP JUMPDEST PUSH2 0x1947 SWAP1 PUSH1 0x30 PUSH2 0x2917 JUMP JUMPDEST PUSH1 0xF8 SHL DUP2 DUP4 DUP2 MLOAD DUP2 LT PUSH2 0x195C JUMPI PUSH2 0x195C PUSH2 0x2470 JUMP JUMPDEST PUSH1 0x20 ADD ADD SWAP1 PUSH1 0x1 PUSH1 0x1 PUSH1 0xF8 SHL SUB NOT AND SWAP1 DUP2 PUSH1 0x0 BYTE SWAP1 MSTORE8 POP PUSH2 0x197E PUSH1 0xA DUP7 PUSH2 0x2997 JUMP JUMPDEST SWAP5 POP PUSH2 0x191E JUMP JUMPDEST PUSH1 0x60 DUP2 MLOAD PUSH1 0x0 SUB PUSH2 0x19A4 JUMPI POP POP PUSH1 0x40 DUP1 MLOAD PUSH1 0x20 DUP2 ADD SWAP1 SWAP2 MSTORE PUSH1 0x0 DUP2 MSTORE SWAP1 JUMP JUMPDEST PUSH1 0x0 PUSH1 0x40 MLOAD DUP1 PUSH1 0x60 ADD PUSH1 0x40 MSTORE DUP1 PUSH1 0x40 DUP2 MSTORE PUSH1 0x20 ADD PUSH2 0x2A4F PUSH1 0x40 SWAP2 CODECOPY SWAP1 POP PUSH1 0x0 PUSH1 0x3 DUP5 MLOAD PUSH1 0x2 PUSH2 0x19D3 SWAP2 SWAP1 PUSH2 0x2917 JUMP JUMPDEST PUSH2 0x19DD SWAP2 SWAP1 PUSH2 0x2997 JUMP JUMPDEST PUSH2 0x19E8 SWAP1 PUSH1 0x4 PUSH2 0x29BF JUMP JUMPDEST PUSH8 0xFFFFFFFFFFFFFFFF DUP2 GT ISZERO PUSH2 0x1A00 JUMPI PUSH2 0x1A00 PUSH2 0x2128 JUMP JUMPDEST PUSH1 0x40 MLOAD SWAP1 DUP1 DUP3 MSTORE DUP1 PUSH1 0x1F ADD PUSH1 0x1F NOT AND PUSH1 0x20 ADD DUP3 ADD PUSH1 0x40 MSTORE DUP1 ISZERO PUSH2 0x1A2A JUMPI PUSH1 0x20 DUP3 ADD DUP2 DUP1 CALLDATASIZE DUP4 CALLDATACOPY ADD SWAP1 POP JUMPDEST POP SWAP1 POP PUSH1 0x1 DUP3 ADD PUSH1 0x20 DUP3 ADD DUP6 DUP7 MLOAD DUP8 ADD JUMPDEST DUP1 DUP3 LT ISZERO PUSH2 0x1A96 JUMPI PUSH1 0x3 DUP3 ADD SWAP2 POP DUP2 MLOAD PUSH1 0x3F DUP2 PUSH1 0x12 SHR AND DUP6 ADD MLOAD DUP5 MSTORE8 PUSH1 0x1 DUP5 ADD SWAP4 POP PUSH1 0x3F DUP2 PUSH1 0xC SHR AND DUP6 ADD MLOAD DUP5 MSTORE8 PUSH1 0x1 DUP5 ADD SWAP4 POP PUSH1 0x3F DUP2 PUSH1 0x6 SHR AND DUP6 ADD MLOAD DUP5 MSTORE8 PUSH1 0x1 DUP5 ADD SWAP4 POP PUSH1 0x3F DUP2 AND DUP6 ADD MLOAD DUP5 MSTORE8 POP PUSH1 0x1 DUP4 ADD SWAP3 POP PUSH2 0x1A3B JUMP JUMPDEST POP POP PUSH1 0x3 DUP7 MLOAD MOD PUSH1 0x1 DUP2 EQ PUSH2 0x1AB2 JUMPI PUSH1 0x2 DUP2 EQ PUSH2 0x1AC5 JUMPI PUSH2 0x1ACD JUMP JUMPDEST PUSH1 0x3D PUSH1 0x1 DUP4 SUB MSTORE8 PUSH1 0x3D PUSH1 0x2 DUP4 SUB MSTORE8 PUSH2 0x1ACD JUMP JUMPDEST PUSH1 0x3D PUSH1 0x1 DUP4 SUB MSTORE8 JUMPDEST POP SWAP2 SWAP6 SWAP5 POP POP POP POP POP JUMP JUMPDEST PUSH1 0x1 PUSH1 0x1 PUSH1 0xA0 SHL SUB DUP3 AND PUSH2 0x1B2E JUMPI PUSH1 0x40 MLOAD PUSH3 0x461BCD PUSH1 0xE5 SHL DUP2 MSTORE PUSH1 0x20 PUSH1 0x4 DUP3 ADD DUP2 SWAP1 MSTORE PUSH1 0x24 DUP3 ADD MSTORE PUSH32 0x4552433732313A206D696E7420746F20746865207A65726F2061646472657373 PUSH1 0x44 DUP3 ADD MSTORE PUSH1 0x64 ADD PUSH2 0x58C JUMP JUMPDEST PUSH1 0x0 DUP2 DUP2 MSTORE PUSH1 0x2 PUSH1 0x20 MSTORE PUSH1 0x40 SWAP1 KECCAK256 SLOAD PUSH1 0x1 PUSH1 0x1 PUSH1 0xA0 SHL SUB AND ISZERO PUSH2 0x1B93 JUMPI PUSH1 0x40 MLOAD PUSH3 0x461BCD PUSH1 0xE5 SHL DUP2 MSTORE PUSH1 0x20 PUSH1 0x4 DUP3 ADD MSTORE PUSH1 0x1C PUSH1 0x24 DUP3 ADD MSTORE PUSH32 0x4552433732313A20746F6B656E20616C7265616479206D696E74656400000000 PUSH1 0x44 DUP3 ADD MSTORE PUSH1 0x64 ADD PUSH2 0x58C JUMP JUMPDEST PUSH2 0x1B9F PUSH1 0x0 DUP4 DUP4 PUSH2 0x1C26 JUMP JUMPDEST PUSH1 0x1 PUSH1 0x1 PUSH1 0xA0 SHL SUB DUP3 AND PUSH1 0x0 SWAP1 DUP2 MSTORE PUSH1 0x3 PUSH1 0x20 MSTORE PUSH1 0x40 DUP2 KECCAK256 DUP1 SLOAD PUSH1 0x1 SWAP3 SWAP1 PUSH2 0x1BC8 SWAP1 DUP5 SWAP1 PUSH2 0x2917 JUMP JUMPDEST SWAP1 SWAP2 SSTORE POP POP PUSH1 0x0 DUP2 DUP2 MSTORE PUSH1 0x2 PUSH1 0x20 MSTORE PUSH1 0x40 DUP1 DUP3 KECCAK256 DUP1 SLOAD PUSH1 0x1 PUSH1 0x1 PUSH1 0xA0 SHL SUB NOT AND PUSH1 0x1 PUSH1 0x1 PUSH1 0xA0 SHL SUB DUP7 AND SWAP1 DUP2 OR SWAP1 SWAP2 SSTORE SWAP1 MLOAD DUP4 SWAP3 SWAP1 PUSH32 0xDDF252AD1BE2C89B69C2B068FC378DAA952BA7F163C4A11628F55A4DF523B3EF SWAP1 DUP3 SWAP1 LOG4 POP POP JUMP JUMPDEST PUSH1 0x1 PUSH1 0x1 PUSH1 0xA0 SHL SUB DUP4 AND PUSH2 0x1C81 JUMPI PUSH2 0x1C7C DUP2 PUSH1 0x8 DUP1 SLOAD PUSH1 0x0 DUP4 DUP2 MSTORE PUSH1 0x9 PUSH1 0x20 MSTORE PUSH1 0x40 DUP2 KECCAK256 DUP3 SWAP1 SSTORE PUSH1 0x1 DUP3 ADD DUP4 SSTORE SWAP2 SWAP1 SWAP2 MSTORE PUSH32 0xF3F7A9FE364FAAB93B216DA50A3214154F22A0A2B415B23A84C8169E8B636EE3 ADD SSTORE JUMP JUMPDEST PUSH2 0x1CA4 JUMP JUMPDEST DUP2 PUSH1 0x1 PUSH1 0x1 PUSH1 0xA0 SHL SUB AND DUP4 PUSH1 0x1 PUSH1 0x1 PUSH1 0xA0 SHL SUB AND EQ PUSH2 0x1CA4 JUMPI PUSH2 0x1CA4 DUP4 DUP3 PUSH2 0x1DDF JUMP JUMPDEST PUSH1 0x1 PUSH1 0x1 PUSH1 0xA0 SHL SUB DUP3 AND PUSH2 0x1CBB JUMPI PUSH2 0x62D DUP2 PUSH2 0x1E7C JUMP JUMPDEST DUP3 PUSH1 0x1 PUSH1 0x1 PUSH1 0xA0 SHL SUB AND DUP3 PUSH1 0x1 PUSH1 0x1 PUSH1 0xA0 SHL SUB AND EQ PUSH2 0x62D JUMPI PUSH2 0x62D DUP3 DUP3 PUSH2 0x1F2B JUMP JUMPDEST PUSH1 0x0 PUSH1 0x1 PUSH1 0x1 PUSH1 0xA0 SHL SUB DUP5 AND EXTCODESIZE ISZERO PUSH2 0x1DD4 JUMPI PUSH1 0x40 MLOAD PUSH4 0xA85BD01 PUSH1 0xE1 SHL DUP2 MSTORE PUSH1 0x1 PUSH1 0x1 PUSH1 0xA0 SHL SUB DUP6 AND SWAP1 PUSH4 0x150B7A02 SWAP1 PUSH2 0x1D22 SWAP1 CALLER SWAP1 DUP10 SWAP1 DUP9 SWAP1 DUP9 SWAP1 PUSH1 0x4 ADD PUSH2 0x29DE JUMP JUMPDEST PUSH1 0x20 PUSH1 0x40 MLOAD DUP1 DUP4 SUB DUP2 PUSH1 0x0 DUP8 GAS CALL SWAP3 POP POP POP DUP1 ISZERO PUSH2 0x1D5D JUMPI POP PUSH1 0x40 DUP1 MLOAD PUSH1 0x1F RETURNDATASIZE SWAP1 DUP2 ADD PUSH1 0x1F NOT AND DUP3 ADD SWAP1 SWAP3 MSTORE PUSH2 0x1D5A SWAP2 DUP2 ADD SWAP1 PUSH2 0x2A1B JUMP JUMPDEST PUSH1 0x1 JUMPDEST PUSH2 0x1DBA JUMPI RETURNDATASIZE DUP1 DUP1 ISZERO PUSH2 0x1D8B JUMPI PUSH1 0x40 MLOAD SWAP2 POP PUSH1 0x1F NOT PUSH1 0x3F RETURNDATASIZE ADD AND DUP3 ADD PUSH1 0x40 MSTORE RETURNDATASIZE DUP3 MSTORE RETURNDATASIZE PUSH1 0x0 PUSH1 0x20 DUP5 ADD RETURNDATACOPY PUSH2 0x1D90 JUMP JUMPDEST PUSH1 0x60 SWAP2 POP JUMPDEST POP DUP1 MLOAD PUSH1 0x0 SUB PUSH2 0x1DB2 JUMPI PUSH1 0x40 MLOAD PUSH3 0x461BCD PUSH1 0xE5 SHL DUP2 MSTORE PUSH1 0x4 ADD PUSH2 0x58C SWAP1 PUSH2 0x292F JUMP JUMPDEST DUP1 MLOAD DUP2 PUSH1 0x20 ADD REVERT JUMPDEST PUSH1 0x1 PUSH1 0x1 PUSH1 0xE0 SHL SUB NOT AND PUSH4 0xA85BD01 PUSH1 0xE1 SHL EQ SWAP1 POP PUSH2 0x1460 JUMP JUMPDEST POP PUSH1 0x1 SWAP5 SWAP4 POP POP POP POP JUMP JUMPDEST PUSH1 0x0 PUSH1 0x1 PUSH2 0x1DEC DUP5 PUSH2 0xC18 JUMP JUMPDEST PUSH2 0x1DF6 SWAP2 SWAP1 PUSH2 0x2900 JUMP JUMPDEST PUSH1 0x0 DUP4 DUP2 MSTORE PUSH1 0x7 PUSH1 0x20 MSTORE PUSH1 0x40 SWAP1 KECCAK256 SLOAD SWAP1 SWAP2 POP DUP1 DUP3 EQ PUSH2 0x1E49 JUMPI PUSH1 0x1 PUSH1 0x1 PUSH1 0xA0 SHL SUB DUP5 AND PUSH1 0x0 SWAP1 DUP2 MSTORE PUSH1 0x6 PUSH1 0x20 SWAP1 DUP2 MSTORE PUSH1 0x40 DUP1 DUP4 KECCAK256 DUP6 DUP5 MSTORE DUP3 MSTORE DUP1 DUP4 KECCAK256 SLOAD DUP5 DUP5 MSTORE DUP2 DUP5 KECCAK256 DUP2 SWAP1 SSTORE DUP4 MSTORE PUSH1 0x7 SWAP1 SWAP2 MSTORE SWAP1 KECCAK256 DUP2 SWAP1 SSTORE JUMPDEST POP PUSH1 0x0 SWAP2 DUP3 MSTORE PUSH1 0x7 PUSH1 0x20 SWAP1 DUP2 MSTORE PUSH1 0x40 DUP1 DUP5 KECCAK256 DUP5 SWAP1 SSTORE PUSH1 0x1 PUSH1 0x1 PUSH1 0xA0 SHL SUB SWAP1 SWAP5 AND DUP4 MSTORE PUSH1 0x6 DUP2 MSTORE DUP4 DUP4 KECCAK256 SWAP2 DUP4 MSTORE MSTORE SWAP1 DUP2 KECCAK256 SSTORE JUMP JUMPDEST PUSH1 0x8 SLOAD PUSH1 0x0 SWAP1 PUSH2 0x1E8E SWAP1 PUSH1 0x1 SWAP1 PUSH2 0x2900 JUMP JUMPDEST PUSH1 0x0 DUP4 DUP2 MSTORE PUSH1 0x9 PUSH1 0x20 MSTORE PUSH1 0x40 DUP2 KECCAK256 SLOAD PUSH1 0x8 DUP1 SLOAD SWAP4 SWAP5 POP SWAP1 SWAP3 DUP5 SWAP1 DUP2 LT PUSH2 0x1EB6 JUMPI PUSH2 0x1EB6 PUSH2 0x2470 JUMP JUMPDEST SWAP1 PUSH1 0x0 MSTORE PUSH1 0x20 PUSH1 0x0 KECCAK256 ADD SLOAD SWAP1 POP DUP1 PUSH1 0x8 DUP4 DUP2 SLOAD DUP2 LT PUSH2 0x1ED7 JUMPI PUSH2 0x1ED7 PUSH2 0x2470 JUMP JUMPDEST PUSH1 0x0 SWAP2 DUP3 MSTORE PUSH1 0x20 DUP1 DUP4 KECCAK256 SWAP1 SWAP2 ADD SWAP3 SWAP1 SWAP3 SSTORE DUP3 DUP2 MSTORE PUSH1 0x9 SWAP1 SWAP2 MSTORE PUSH1 0x40 DUP1 DUP3 KECCAK256 DUP5 SWAP1 SSTORE DUP6 DUP3 MSTORE DUP2 KECCAK256 SSTORE PUSH1 0x8 DUP1 SLOAD DUP1 PUSH2 0x1F0F JUMPI PUSH2 0x1F0F PUSH2 0x2A38 JUMP JUMPDEST PUSH1 0x1 SWAP1 SUB DUP2 DUP2 SWAP1 PUSH1 0x0 MSTORE PUSH1 0x20 PUSH1 0x0 KECCAK256 ADD PUSH1 0x0 SWAP1 SSTORE SWAP1 SSTORE POP POP POP POP JUMP JUMPDEST PUSH1 0x0 PUSH2 0x1F36 DUP4 PUSH2 0xC18 JUMP JUMPDEST PUSH1 0x1 PUSH1 0x1 PUSH1 0xA0 SHL SUB SWAP1 SWAP4 AND PUSH1 0x0 SWAP1 DUP2 MSTORE PUSH1 0x6 PUSH1 0x20 SWAP1 DUP2 MSTORE PUSH1 0x40 DUP1 DUP4 KECCAK256 DUP7 DUP5 MSTORE DUP3 MSTORE DUP1 DUP4 KECCAK256 DUP6 SWAP1 SSTORE SWAP4 DUP3 MSTORE PUSH1 0x7 SWAP1 MSTORE SWAP2 SWAP1 SWAP2 KECCAK256 SWAP2 SWAP1 SWAP2 SSTORE POP JUMP JUMPDEST PUSH1 0x1 PUSH1 0x1 PUSH1 0xE0 SHL SUB NOT DUP2 AND DUP2 EQ PUSH2 0xCBC JUMPI PUSH1 0x0 DUP1 REVERT JUMPDEST PUSH1 0x0 PUSH1 0x20 DUP3 DUP5 SUB SLT ISZERO PUSH2 0x1F97 JUMPI PUSH1 0x0 DUP1 REVERT JUMPDEST DUP2 CALLDATALOAD PUSH2 0xE0B DUP2 PUSH2 0x1F6F JUMP JUMPDEST PUSH1 0x0 PUSH1 0x20 DUP3 DUP5 SUB SLT ISZERO PUSH2 0x1FB4 JUMPI PUSH1 0x0 DUP1 REVERT JUMPDEST POP CALLDATALOAD SWAP2 SWAP1 POP JUMP JUMPDEST PUSH1 0x0 JUMPDEST DUP4 DUP2 LT ISZERO PUSH2 0x1FD6 JUMPI DUP2 DUP2 ADD MLOAD DUP4 DUP3 ADD MSTORE PUSH1 0x20 ADD PUSH2 0x1FBE JUMP JUMPDEST DUP4 DUP2 GT ISZERO PUSH2 0xD0F JUMPI POP POP PUSH1 0x0 SWAP2 ADD MSTORE JUMP JUMPDEST PUSH1 0x0 DUP2 MLOAD DUP1 DUP5 MSTORE PUSH2 0x1FFF DUP2 PUSH1 0x20 DUP7 ADD PUSH1 0x20 DUP7 ADD PUSH2 0x1FBB JUMP JUMPDEST PUSH1 0x1F ADD PUSH1 0x1F NOT AND SWAP3 SWAP1 SWAP3 ADD PUSH1 0x20 ADD SWAP3 SWAP2 POP POP JUMP JUMPDEST PUSH1 0x20 DUP2 MSTORE PUSH1 0x0 PUSH2 0xE0B PUSH1 0x20 DUP4 ADD DUP5 PUSH2 0x1FE7 JUMP JUMPDEST PUSH1 0x1 PUSH1 0x1 PUSH1 0xA0 SHL SUB DUP2 AND DUP2 EQ PUSH2 0xCBC JUMPI PUSH1 0x0 DUP1 REVERT JUMPDEST PUSH1 0x0 DUP1 PUSH1 0x40 DUP4 DUP6 SUB SLT ISZERO PUSH2 0x204E JUMPI PUSH1 0x0 DUP1 REVERT JUMPDEST DUP3 CALLDATALOAD PUSH2 0x2059 DUP2 PUSH2 0x2026 JUMP JUMPDEST SWAP5 PUSH1 0x20 SWAP4 SWAP1 SWAP4 ADD CALLDATALOAD SWAP4 POP POP POP JUMP JUMPDEST PUSH1 0x0 PUSH1 0x20 DUP3 DUP5 SUB SLT ISZERO PUSH2 0x2079 JUMPI PUSH1 0x0 DUP1 REVERT JUMPDEST DUP2 CALLDATALOAD PUSH2 0xE0B DUP2 PUSH2 0x2026 JUMP JUMPDEST PUSH1 0x0 DUP1 PUSH1 0x0 PUSH1 0x60 DUP5 DUP7 SUB SLT ISZERO PUSH2 0x2099 JUMPI PUSH1 0x0 DUP1 REVERT JUMPDEST DUP4 CALLDATALOAD PUSH2 0x20A4 DUP2 PUSH2 0x2026 JUMP JUMPDEST SWAP3 POP PUSH1 0x20 DUP5 ADD CALLDATALOAD PUSH2 0x20B4 DUP2 PUSH2 0x2026 JUMP JUMPDEST SWAP3 SWAP6 SWAP3 SWAP5 POP POP POP PUSH1 0x40 SWAP2 SWAP1 SWAP2 ADD CALLDATALOAD SWAP1 JUMP JUMPDEST PUSH1 0x0 DUP1 PUSH1 0x40 DUP4 DUP6 SUB SLT ISZERO PUSH2 0x20D8 JUMPI PUSH1 0x0 DUP1 REVERT JUMPDEST DUP3 CALLDATALOAD SWAP2 POP PUSH1 0x20 DUP4 ADD CALLDATALOAD PUSH2 0x20EA DUP2 PUSH2 0x2026 JUMP JUMPDEST DUP1 SWAP2 POP POP SWAP3 POP SWAP3 SWAP1 POP JUMP JUMPDEST PUSH1 0x0 DUP1 PUSH1 0x40 DUP4 DUP6 SUB SLT ISZERO PUSH2 0x2108 JUMPI PUSH1 0x0 DUP1 REVERT JUMPDEST DUP3 CALLDATALOAD PUSH2 0x2113 DUP2 PUSH2 0x2026 JUMP JUMPDEST SWAP2 POP PUSH1 0x20 DUP4 ADD CALLDATALOAD DUP1 ISZERO ISZERO DUP2 EQ PUSH2 0x20EA JUMPI PUSH1 0x0 DUP1 REVERT JUMPDEST PUSH4 0x4E487B71 PUSH1 0xE0 SHL PUSH1 0x0 MSTORE PUSH1 0x41 PUSH1 0x4 MSTORE PUSH1 0x24 PUSH1 0x0 REVERT JUMPDEST PUSH1 0x40 MLOAD PUSH1 0x1F DUP3 ADD PUSH1 0x1F NOT AND DUP2 ADD PUSH8 0xFFFFFFFFFFFFFFFF DUP2 GT DUP3 DUP3 LT OR ISZERO PUSH2 0x2167 JUMPI PUSH2 0x2167 PUSH2 0x2128 JUMP JUMPDEST PUSH1 0x40 MSTORE SWAP2 SWAP1 POP JUMP JUMPDEST PUSH1 0x0 PUSH8 0xFFFFFFFFFFFFFFFF DUP3 GT ISZERO PUSH2 0x2189 JUMPI PUSH2 0x2189 PUSH2 0x2128 JUMP JUMPDEST POP PUSH1 0x1F ADD PUSH1 0x1F NOT AND PUSH1 0x20 ADD SWAP1 JUMP JUMPDEST PUSH1 0x0 DUP1 PUSH1 0x0 DUP1 PUSH1 0x80 DUP6 DUP8 SUB SLT ISZERO PUSH2 0x21AD JUMPI PUSH1 0x0 DUP1 REVERT JUMPDEST DUP5 CALLDATALOAD PUSH2 0x21B8 DUP2 PUSH2 0x2026 JUMP JUMPDEST SWAP4 POP PUSH1 0x20 DUP6 ADD CALLDATALOAD PUSH2 0x21C8 DUP2 PUSH2 0x2026 JUMP JUMPDEST SWAP3 POP PUSH1 0x40 DUP6 ADD CALLDATALOAD SWAP2 POP PUSH1 0x60 DUP6 ADD CALLDATALOAD PUSH8 0xFFFFFFFFFFFFFFFF DUP2 GT ISZERO PUSH2 0x21EB JUMPI PUSH1 0x0 DUP1 REVERT JUMPDEST DUP6 ADD PUSH1 0x1F DUP2 ADD DUP8 SGT PUSH2 0x21FC JUMPI PUSH1 0x0 DUP1 REVERT JUMPDEST DUP1 CALLDATALOAD PUSH2 0x220F PUSH2 0x220A DUP3 PUSH2 0x216F JUMP JUMPDEST PUSH2 0x213E JUMP JUMPDEST DUP2 DUP2 MSTORE DUP9 PUSH1 0x20 DUP4 DUP6 ADD ADD GT ISZERO PUSH2 0x2224 JUMPI PUSH1 0x0 DUP1 REVERT JUMPDEST DUP2 PUSH1 0x20 DUP5 ADD PUSH1 0x20 DUP4 ADD CALLDATACOPY PUSH1 0x0 PUSH1 0x20 DUP4 DUP4 ADD ADD MSTORE DUP1 SWAP4 POP POP POP POP SWAP3 SWAP6 SWAP2 SWAP5 POP SWAP3 POP JUMP JUMPDEST PUSH1 0x0 DUP1 PUSH1 0x40 DUP4 DUP6 SUB SLT ISZERO PUSH2 0x2259 JUMPI PUSH1 0x0 DUP1 REVERT JUMPDEST DUP3 CALLDATALOAD PUSH2 0x2264 DUP2 PUSH2 0x2026 JUMP JUMPDEST SWAP2 POP PUSH1 0x20 DUP4 ADD CALLDATALOAD PUSH2 0x20EA DUP2 PUSH2 0x2026 JUMP JUMPDEST PUSH1 0x1 DUP2 DUP2 SHR SWAP1 DUP3 AND DUP1 PUSH2 0x2288 JUMPI PUSH1 0x7F DUP3 AND SWAP2 POP JUMPDEST PUSH1 0x20 DUP3 LT DUP2 SUB PUSH2 0x22A8 JUMPI PUSH4 0x4E487B71 PUSH1 0xE0 SHL PUSH1 0x0 MSTORE PUSH1 0x22 PUSH1 0x4 MSTORE PUSH1 0x24 PUSH1 0x0 REVERT JUMPDEST POP SWAP2 SWAP1 POP JUMP JUMPDEST PUSH1 0x40 DUP2 MSTORE PUSH1 0x0 PUSH2 0x22D4 PUSH1 0x40 DUP4 ADD PUSH1 0x6 DUP2 MSTORE PUSH6 0x49534F544F5 PUSH1 0xD4 SHL PUSH1 0x20 DUP3 ADD MSTORE PUSH1 0x40 ADD SWAP1 JUMP JUMPDEST DUP3 DUP2 SUB PUSH1 0x20 SWAP4 DUP5 ADD MSTORE PUSH1 0x13 DUP2 MSTORE PUSH19 0x4245455F464143544F52595F41444452455353 PUSH1 0x68 SHL SWAP3 DUP2 ADD SWAP3 SWAP1 SWAP3 MSTORE POP PUSH1 0x40 ADD SWAP1 JUMP JUMPDEST PUSH1 0x0 PUSH1 0x20 DUP3 DUP5 SUB SLT ISZERO PUSH2 0x2318 JUMPI PUSH1 0x0 DUP1 REVERT JUMPDEST DUP2 MLOAD PUSH8 0xFFFFFFFFFFFFFFFF DUP2 GT ISZERO PUSH2 0x232F JUMPI PUSH1 0x0 DUP1 REVERT JUMPDEST DUP3 ADD PUSH1 0x1F DUP2 ADD DUP5 SGT PUSH2 0x2340 JUMPI PUSH1 0x0 DUP1 REVERT JUMPDEST DUP1 MLOAD PUSH2 0x234E PUSH2 0x220A DUP3 PUSH2 0x216F JUMP JUMPDEST DUP2 DUP2 MSTORE DUP6 PUSH1 0x20 DUP4 DUP6 ADD ADD GT ISZERO PUSH2 0x2363 JUMPI PUSH1 0x0 DUP1 REVERT JUMPDEST PUSH2 0x2374 DUP3 PUSH1 0x20 DUP4 ADD PUSH1 0x20 DUP7 ADD PUSH2 0x1FBB JUMP JUMPDEST SWAP6 SWAP5 POP POP POP POP POP JUMP JUMPDEST PUSH1 0x0 PUSH1 0x20 DUP3 DUP5 SUB SLT ISZERO PUSH2 0x238F JUMPI PUSH1 0x0 DUP1 REVERT JUMPDEST DUP2 MLOAD PUSH2 0xE0B DUP2 PUSH2 0x2026 JUMP JUMPDEST PUSH1 0x20 DUP1 DUP3 MSTORE PUSH1 0xA SWAP1 DUP3 ADD MSTORE PUSH10 0x49534F544F503130343 PUSH1 0xB4 SHL PUSH1 0x40 DUP3 ADD MSTORE PUSH1 0x60 ADD SWAP1 JUMP JUMPDEST PUSH1 0x0 PUSH1 0x20 DUP1 DUP4 DUP6 SUB SLT ISZERO PUSH2 0x23D1 JUMPI PUSH1 0x0 DUP1 REVERT JUMPDEST DUP3 MLOAD PUSH8 0xFFFFFFFFFFFFFFFF DUP1 DUP3 GT ISZERO PUSH2 0x23E9 JUMPI PUSH1 0x0 DUP1 REVERT JUMPDEST DUP2 DUP6 ADD SWAP2 POP DUP6 PUSH1 0x1F DUP4 ADD SLT PUSH2 0x23FD JUMPI PUSH1 0x0 DUP1 REVERT JUMPDEST DUP2 MLOAD DUP2 DUP2 GT ISZERO PUSH2 0x240F JUMPI PUSH2 0x240F PUSH2 0x2128 JUMP JUMPDEST DUP1 PUSH1 0x5 SHL SWAP2 POP PUSH2 0x2420 DUP5 DUP4 ADD PUSH2 0x213E JUMP JUMPDEST DUP2 DUP2 MSTORE SWAP2 DUP4 ADD DUP5 ADD SWAP2 DUP5 DUP2 ADD SWAP1 DUP9 DUP5 GT ISZERO PUSH2 0x243A JUMPI PUSH1 0x0 DUP1 REVERT JUMPDEST SWAP4 DUP6 ADD SWAP4 JUMPDEST DUP4 DUP6 LT ISZERO PUSH2 0x2464 JUMPI DUP5 MLOAD SWAP3 POP PUSH2 0x2454 DUP4 PUSH2 0x2026 JUMP JUMPDEST DUP3 DUP3 MSTORE SWAP4 DUP6 ADD SWAP4 SWAP1 DUP6 ADD SWAP1 PUSH2 0x243F JUMP JUMPDEST SWAP9 SWAP8 POP POP POP POP POP POP POP POP JUMP JUMPDEST PUSH4 0x4E487B71 PUSH1 0xE0 SHL PUSH1 0x0 MSTORE PUSH1 0x32 PUSH1 0x4 MSTORE PUSH1 0x24 PUSH1 0x0 REVERT JUMPDEST PUSH4 0x4E487B71 PUSH1 0xE0 SHL PUSH1 0x0 MSTORE PUSH1 0x11 PUSH1 0x4 MSTORE PUSH1 0x24 PUSH1 0x0 REVERT JUMPDEST PUSH1 0x0 PUSH1 0x1 DUP3 ADD PUSH2 0x24AE JUMPI PUSH2 0x24AE PUSH2 0x2486 JUMP JUMPDEST POP PUSH1 0x1 ADD SWAP1 JUMP JUMPDEST PUSH1 0x20 DUP1 DUP3 MSTORE PUSH1 0x2E SWAP1 DUP3 ADD MSTORE PUSH32 0x4552433732313A2063616C6C6572206973206E6F7420746F6B656E206F776E65 PUSH1 0x40 DUP3 ADD MSTORE PUSH14 0x1C881B9BDC88185C1C1C9BDD9959 PUSH1 0x92 SHL PUSH1 0x60 DUP3 ADD MSTORE PUSH1 0x80 ADD SWAP1 JUMP JUMPDEST PUSH1 0x40 DUP2 MSTORE PUSH1 0x0 PUSH2 0x2529 PUSH1 0x40 DUP4 ADD PUSH1 0x6 DUP2 MSTORE PUSH6 0x49534F544F5 PUSH1 0xD4 SHL PUSH1 0x20 DUP3 ADD MSTORE PUSH1 0x40 ADD SWAP1 JUMP JUMPDEST DUP3 DUP2 SUB PUSH1 0x20 SWAP4 DUP5 ADD MSTORE PUSH1 0x8 DUP2 MSTORE PUSH8 0x736F756C2E737667 PUSH1 0xC0 SHL SWAP3 DUP2 ADD SWAP3 SWAP1 SWAP3 MSTORE POP PUSH1 0x40 ADD SWAP1 JUMP JUMPDEST PUSH1 0x0 DUP2 MLOAD PUSH2 0x2562 DUP2 DUP6 PUSH1 0x20 DUP7 ADD PUSH2 0x1FBB JUMP JUMPDEST SWAP3 SWAP1 SWAP3 ADD SWAP3 SWAP2 POP POP JUMP JUMPDEST PUSH32 0x3C7376672077696474683D2235303022206865696768743D2235303022207669 DUP2 MSTORE PUSH20 0x32BBA137BC1E91181018101A9818101A9818111 PUSH1 0x65 SHL PUSH1 0x20 DUP3 ADD MSTORE PUSH32 0x20786D6C3A73706163653D2270726573657276652220786D6C6E733D22687474 PUSH1 0x34 DUP3 ADD MSTORE PUSH32 0x703A2F2F7777772E77332E6F72672F323030302F737667223E00000000000000 PUSH1 0x54 DUP3 ADD MSTORE PUSH32 0x3C73766720786D6C6E733D22687474703A2F2F7777772E77332E6F72672F3230 PUSH1 0x6D DUP3 ADD MSTORE PUSH32 0x30302F7376672220786D6C6E733A786C696E6B3D22687474703A2F2F7777772E PUSH1 0x8D DUP3 ADD MSTORE PUSH32 0x77332E6F72672F313939392F786C696E6B22207374796C653D226D617267696E PUSH1 0xAD DUP3 ADD MSTORE PUSH32 0x3A206175746F3B206261636B67726F756E643A20726762283235352C20323535 PUSH1 0xCD DUP3 ADD MSTORE PUSH32 0x2C20323535293B20646973706C61793A20626C6F636B3B2073686170652D7265 PUSH1 0xED DUP3 ADD MSTORE PUSH32 0x6E646572696E673A206175746F3B222077696474683D22353030707822206865 PUSH2 0x10D DUP3 ADD MSTORE PUSH32 0x696768743D223530307078222076696577426F783D222D3530202D3230203230 PUSH2 0x12D DUP3 ADD MSTORE PUSH32 0x302032303022207072657365727665417370656374526174696F3D22784D6964 PUSH2 0x14D DUP3 ADD MSTORE PUSH6 0x2CA6B4B2111F PUSH1 0xD1 SHL PUSH2 0x16D DUP3 ADD MSTORE PUSH1 0x0 PUSH2 0x1460 PUSH2 0x27D2 PUSH2 0x27CC PUSH2 0x27BA PUSH2 0x2757 PUSH2 0x173 DUP8 ADD DUP10 PUSH2 0x2550 JUMP JUMPDEST PUSH32 0x3C7465787420783D223235302220793D2233353022207374796C653D22746578 DUP2 MSTORE PUSH32 0x742D616E63686F723A6D6964646C653B66696C6C3A626C61636B3B666F6E742D PUSH1 0x20 DUP3 ADD MSTORE PUSH11 0x39B4BD329D191A383C111F PUSH1 0xA9 SHL PUSH1 0x40 DUP3 ADD MSTORE PUSH1 0x4B ADD SWAP1 JUMP JUMPDEST PUSH6 0x536F756C2023 PUSH1 0xD0 SHL DUP2 MSTORE PUSH1 0x6 ADD SWAP1 JUMP JUMPDEST DUP6 PUSH2 0x2550 JUMP JUMPDEST PUSH13 0x1E17BA32BC3A1F1E17B9BB339F PUSH1 0x99 SHL DUP2 MSTORE PUSH1 0xD ADD SWAP1 JUMP JUMPDEST PUSH16 0x7B226E616D65223A2022536F756C2023 PUSH1 0x80 SHL DUP2 MSTORE DUP3 MLOAD PUSH1 0x0 SWAP1 PUSH2 0x2817 DUP2 PUSH1 0x10 DUP6 ADD PUSH1 0x20 DUP9 ADD PUSH2 0x1FBB JUMP JUMPDEST PUSH32 0x222C20226465736372697074696F6E223A2022536F756C204E4654222C202269 PUSH1 0x10 SWAP2 DUP5 ADD SWAP2 DUP3 ADD MSTORE PUSH32 0x6D616765223A2022646174613A696D6167652F7376672B786D6C3B6261736536 PUSH1 0x30 DUP3 ADD MSTORE PUSH2 0xD0B PUSH1 0xF2 SHL PUSH1 0x50 DUP3 ADD MSTORE DUP4 MLOAD PUSH2 0x2885 DUP2 PUSH1 0x52 DUP5 ADD PUSH1 0x20 DUP9 ADD PUSH2 0x1FBB JUMP JUMPDEST PUSH32 0x222C202264657369676E6572223A2022696F73746F702E746F70222C207D0000 PUSH1 0x52 SWAP3 SWAP1 SWAP2 ADD SWAP2 DUP3 ADD MSTORE PUSH1 0x70 ADD SWAP5 SWAP4 POP POP POP POP JUMP JUMPDEST PUSH32 0x646174613A6170706C69636174696F6E2F6A736F6E3B6261736536342C000000 DUP2 MSTORE PUSH1 0x0 DUP3 MLOAD PUSH2 0x28F3 DUP2 PUSH1 0x1D DUP6 ADD PUSH1 0x20 DUP8 ADD PUSH2 0x1FBB JUMP JUMPDEST SWAP2 SWAP1 SWAP2 ADD PUSH1 0x1D ADD SWAP3 SWAP2 POP POP JUMP JUMPDEST PUSH1 0x0 DUP3 DUP3 LT ISZERO PUSH2 0x2912 JUMPI PUSH2 0x2912 PUSH2 0x2486 JUMP JUMPDEST POP SUB SWAP1 JUMP JUMPDEST PUSH1 0x0 DUP3 NOT DUP3 GT ISZERO PUSH2 0x292A JUMPI PUSH2 0x292A PUSH2 0x2486 JUMP JUMPDEST POP ADD SWAP1 JUMP JUMPDEST PUSH1 0x20 DUP1 DUP3 MSTORE PUSH1 0x32 SWAP1 DUP3 ADD MSTORE PUSH32 0x4552433732313A207472616E7366657220746F206E6F6E204552433732315265 PUSH1 0x40 DUP3 ADD MSTORE PUSH18 0x31B2B4BB32B91034B6B83632B6B2B73A32B9 PUSH1 0x71 SHL PUSH1 0x60 DUP3 ADD MSTORE PUSH1 0x80 ADD SWAP1 JUMP JUMPDEST PUSH4 0x4E487B71 PUSH1 0xE0 SHL PUSH1 0x0 MSTORE PUSH1 0x12 PUSH1 0x4 MSTORE PUSH1 0x24 PUSH1 0x0 REVERT JUMPDEST PUSH1 0x0 DUP3 PUSH2 0x29A6 JUMPI PUSH2 0x29A6 PUSH2 0x2981 JUMP JUMPDEST POP DIV SWAP1 JUMP JUMPDEST PUSH1 0x0 DUP3 PUSH2 0x29BA JUMPI PUSH2 0x29BA PUSH2 0x2981 JUMP JUMPDEST POP MOD SWAP1 JUMP JUMPDEST PUSH1 0x0 DUP2 PUSH1 0x0 NOT DIV DUP4 GT DUP3 ISZERO ISZERO AND ISZERO PUSH2 0x29D9 JUMPI PUSH2 0x29D9 PUSH2 0x2486 JUMP JUMPDEST POP MUL SWAP1 JUMP JUMPDEST PUSH1 0x1 PUSH1 0x1 PUSH1 0xA0 SHL SUB DUP6 DUP2 AND DUP3 MSTORE DUP5 AND PUSH1 0x20 DUP3 ADD MSTORE PUSH1 0x40 DUP2 ADD DUP4 SWAP1 MSTORE PUSH1 0x80 PUSH1 0x60 DUP3 ADD DUP2 SWAP1 MSTORE PUSH1 0x0 SWAP1 PUSH2 0x2A11 SWAP1 DUP4 ADD DUP5 PUSH2 0x1FE7 JUMP JUMPDEST SWAP7 SWAP6 POP POP POP POP POP POP JUMP JUMPDEST PUSH1 0x0 PUSH1 0x20 DUP3 DUP5 SUB SLT ISZERO PUSH2 0x2A2D JUMPI PUSH1 0x0 DUP1 REVERT JUMPDEST DUP2 MLOAD PUSH2 0xE0B DUP2 PUSH2 0x1F6F JUMP JUMPDEST PUSH4 0x4E487B71 PUSH1 0xE0 SHL PUSH1 0x0 MSTORE PUSH1 0x31 PUSH1 0x4 MSTORE PUSH1 0x24 PUSH1 0x0 REVERT INVALID COINBASE TIMESTAMP NUMBER DIFFICULTY GASLIMIT CHAINID SELFBALANCE BASEFEE 0x49 0x4A 0x4B 0x4C 0x4D 0x4E 0x4F POP MLOAD MSTORE MSTORE8 SLOAD SSTORE JUMP JUMPI PC MSIZE GAS PUSH2 0x6263 PUSH5 0x6566676869 PUSH11 0x6B6C6D6E6F707172737475 PUSH23 0x7778797A303132333435363738392B2FA2646970667358 0x22 SLT KECCAK256 0x26 0xC6 DUP16 SLT 0xA9 0xD7 0xCD SWAP15 0xD8 0xAB MSTORE 0xCF 0xB0 DELEGATECALL DUP10 PUSH12 0x9F1D8CEE854DD9D8636FA3F SWAP11 PUSH18 0x1FB564736F6C634300080D00330000000000 ",
  "sha1": "171d435995806a6c175de20527173bda5e913b1b",
  "source": "// SPDX-License-Identifier: MIT\n\npragma solidity ^0.8.4;\n\nimport \"@openzeppelin/contracts/utils/Strings.sol\";\nimport \"@openzeppelin/contracts/access/Ownable.sol\";\nimport \"@openzeppelin/contracts/token/ERC721/extensions/ERC721Enumerable.sol\";\nimport \"@openzeppelin/contracts/utils/Base64.sol\";\nimport \"../IDDS.sol\";\nimport \"../../interfaces/IFactory.sol\";\n\ncontract Soul is ERC721Enumerable, Ownable {\n    using Strings for uint256;\n    using Strings for uint160;\n\n    event soulCreated(uint256 indexed id, address addr);\n    event addressAdded(uint256 indexed id, address addr);\n    event addressRemoved(uint256 indexed id, address addr);\n\n    IDDS dds;\n    mapping(uint256 => address) owners;\n    mapping(uint256 => mapping(address => bool)) accounts;\n\n    constructor() ERC721(\"SoulNFT\", \"SOUL\") {\n        dds = IDDS(BEE_DDS_ADDRESS);\n    }\n\n    function setDDS(address _newDDS) external onlyOwner {\n        dds = IDDS(_newDDS);\n    }\n\n    function create(uint256 tokenId) external {\n        // 任何个人都可以创建自己的soul\n        _mintTo(tx.origin, tokenId);\n    }\n\n    function create(address _to, uint256 tokenId) external {\n        // 需要是ISOTOP1040许可的合约方才能创建Soul\n        IFactory factory = IFactory(\n            dds.toAddress(dds.get(\"ISOTOP\", \"BEE_FACTORY_ADDRESS\"))\n        );\n        address[] memory allowList = factory.getContractsDeployed(\"ISOTOP1040\");\n\n        for (uint256 i = 0; i < allowList.length; i++) {\n            if (msg.sender == allowList[i]) {\n                _mintTo(_to, tokenId);\n                owners[tokenId] = msg.sender;\n                return;\n            }\n        }\n        revert(\"caller not in operator list\");\n    }\n\n    function _mintTo(address _to, uint256 tokenId) internal {\n        _mint(_to, tokenId);\n        accounts[tokenId][_to] = true;\n        emit soulCreated(tokenId, _to);\n    }\n\n    function validateAddress(uint256 tokenId, address _from)\n        public\n        view\n        returns (bool)\n    {\n        require(_exists(tokenId), \"nonexistent token\");\n\n        return (accounts[tokenId][_from] || ownerOf(tokenId) == _from);\n    }\n\n    function addAccount(uint256 tokenId, address _account) external {\n        require(validateAddress(tokenId, tx.origin), \"not owner of soul\");\n        _addAccount(tokenId, _account);\n    }\n\n    function addAccountByOperator(uint256 tokenId, address _account) external {\n        // 需要是ISOTOP1040许可的合约方才能创建Soul\n        IFactory factory = IFactory(\n            dds.toAddress(dds.get(\"ISOTOP\", \"BEE_FACTORY_ADDRESS\"))\n        );\n        address[] memory allowList = factory.getContractsDeployed(\"ISOTOP1040\");\n\n        for (uint256 i = 0; i < allowList.length; i++) {\n            if (msg.sender == allowList[i] && owners[tokenId] == msg.sender) {\n                _addAccount(tokenId, _account);\n                return;\n            }\n        }\n        revert(\"caller not in operator list\");\n    }\n\n    function _addAccount(uint256 tokenId, address _account) internal {\n        accounts[tokenId][_account] = true;\n\n        emit addressAdded(tokenId, _account);\n    }\n\n    function removeAccount(uint256 tokenId, address _account) external {\n        require(validateAddress(tokenId, tx.origin), \"not owner of soul\");\n        _removeAccount(tokenId, _account);\n    }\n\n    function removeAccountByOperator(uint256 tokenId, address _account)\n        external\n    {\n        // 需要是ISOTOP1040许可的合约方才能创建Soul\n        IFactory factory = IFactory(\n            dds.toAddress(dds.get(\"ISOTOP\", \"BEE_FACTORY_ADDRESS\"))\n        );\n        address[] memory allowList = factory.getContractsDeployed(\"ISOTOP1040\");\n\n        for (uint256 i = 0; i < allowList.length; i++) {\n            if (msg.sender == allowList[i] && owners[tokenId] == msg.sender) {\n                _removeAccount(tokenId, _account);\n                return;\n            }\n        }\n        revert(\"caller not in operator list\");\n    }\n\n    function _removeAccount(uint256 tokenId, address _account) internal {\n        require(ownerOf(tokenId) != _account, \"cannot remove owner of token\");\n\n        delete accounts[tokenId][_account];\n\n        emit addressRemoved(tokenId, _account);\n    }\n\n    function getOperator(uint256 tokenId) external view returns (address) {\n        return owners[tokenId];\n    }\n\n    function tokenURI(uint256 tokenId)\n        public\n        view\n        virtual\n        override\n        returns (string memory)\n    {\n        require(_exists(tokenId), \"nonexistent token\");\n\n        bytes memory meta = abi.encodePacked(\n            '{\"name\": \"Soul #',\n            tokenId.toString(),\n            '\", \"description\": \"Soul NFT\", \"image\": \"data:image/svg+xml;base64,',\n            Base64.encode(\n                abi.encodePacked(\n                    '<svg width=\"500\" height=\"500\" viewBox=\"0 0 500 500\" ',\n                    // 'style=\"background-color:darkgreen\"',\n                    ' xml:space=\"preserve\" xmlns=\"http://www.w3.org/2000/svg\">',\n                    '<svg xmlns=\"http://www.w3.org/2000/svg\" xmlns:xlink=\"http://www.w3.org/1999/xlink\" style=\"margin: auto; background: rgb(255, 255, 255); display: block; shape-rendering: auto;\" width=\"500px\" height=\"500px\" viewBox=\"-50 -20 200 200\" preserveAspectRatio=\"xMidYMid\">',\n                    dds.get(\"ISOTOP\", \"soul.svg\"),\n                    '<text x=\"250\" y=\"350\" style=\"text-anchor:middle;fill:black;font-size:24px\">',\n                    \"Soul #\",\n                    tokenId.toString(),\n                    \"</text></svg>\"\n                )\n            ),\n            '\", \"designer\": \"iostop.top\", }'\n        );\n\n        return\n            string(\n                abi.encodePacked(\n                    \"data:application/json;base64,\",\n                    Base64.encode(meta)\n                )\n            );\n    }\n}\n",
  "sourcePath": "contracts/Soul/Soul.sol",
  "type": "contract"
}