{
  "abi": [
    {
      "inputs": [],
      "stateMutability": "nonpayable",
      "type": "constructor"
    },
    {
      "anonymous": false,
      "inputs": [
        {
          "indexed": true,
          "internalType": "address",
          "name": "owner",
          "type": "address"
        },
        {
          "indexed": true,
          "internalType": "address",
          "name": "approved",
          "type": "address"
        },
        {
          "indexed": true,
          "internalType": "uint256",
          "name": "tokenId",
          "type": "uint256"
        }
      ],
      "name": "Approval",
      "type": "event"
    },
    {
      "anonymous": false,
      "inputs": [
        {
          "indexed": true,
          "internalType": "address",
          "name": "owner",
          "type": "address"
        },
        {
          "indexed": true,
          "internalType": "address",
          "name": "operator",
          "type": "address"
        },
        {
          "indexed": false,
          "internalType": "bool",
          "name": "approved",
          "type": "bool"
        }
      ],
      "name": "ApprovalForAll",
      "type": "event"
    },
    {
      "anonymous": false,
      "inputs": [
        {
          "indexed": true,
          "internalType": "address",
          "name": "from",
          "type": "address"
        },
        {
          "indexed": true,
          "internalType": "address",
          "name": "to",
          "type": "address"
        },
        {
          "indexed": true,
          "internalType": "uint256",
          "name": "tokenId",
          "type": "uint256"
        }
      ],
      "name": "Transfer",
      "type": "event"
    },
    {
      "inputs": [
        {
          "internalType": "address",
          "name": "to",
          "type": "address"
        },
        {
          "internalType": "uint256",
          "name": "tokenId",
          "type": "uint256"
        }
      ],
      "name": "approve",
      "outputs": [],
      "stateMutability": "nonpayable",
      "type": "function"
    },
    {
      "inputs": [
        {
          "internalType": "address",
          "name": "_to",
          "type": "address"
        },
        {
          "internalType": "uint256",
          "name": "_soulId",
          "type": "uint256"
        },
        {
          "internalType": "string",
          "name": "_issuer",
          "type": "string"
        },
        {
          "internalType": "string",
          "name": "_certification",
          "type": "string"
        }
      ],
      "name": "assign",
      "outputs": [],
      "stateMutability": "nonpayable",
      "type": "function"
    },
    {
      "inputs": [
        {
          "internalType": "address",
          "name": "owner",
          "type": "address"
        }
      ],
      "name": "balanceOf",
      "outputs": [
        {
          "internalType": "uint256",
          "name": "",
          "type": "uint256"
        }
      ],
      "stateMutability": "view",
      "type": "function"
    },
    {
      "inputs": [
        {
          "internalType": "uint256",
          "name": "_soulId",
          "type": "uint256"
        },
        {
          "internalType": "string",
          "name": "_issuer",
          "type": "string"
        },
        {
          "internalType": "string",
          "name": "_certification",
          "type": "string"
        }
      ],
      "name": "claim",
      "outputs": [],
      "stateMutability": "nonpayable",
      "type": "function"
    },
    {
      "inputs": [
        {
          "internalType": "uint256",
          "name": "tokenId",
          "type": "uint256"
        }
      ],
      "name": "getApproved",
      "outputs": [
        {
          "internalType": "address",
          "name": "",
          "type": "address"
        }
      ],
      "stateMutability": "view",
      "type": "function"
    },
    {
      "inputs": [
        {
          "internalType": "uint256",
          "name": "tokenId",
          "type": "uint256"
        }
      ],
      "name": "getToken",
      "outputs": [
        {
          "components": [
            {
              "internalType": "string",
              "name": "issuer",
              "type": "string"
            },
            {
              "internalType": "string",
              "name": "certification",
              "type": "string"
            },
            {
              "internalType": "uint256",
              "name": "claimDate",
              "type": "uint256"
            },
            {
              "internalType": "uint256",
              "name": "validDate",
              "type": "uint256"
            }
          ],
          "internalType": "struct soulBondToken.tokenStructure",
          "name": "",
          "type": "tuple"
        }
      ],
      "stateMutability": "view",
      "type": "function"
    },
    {
      "inputs": [
        {
          "internalType": "uint256",
          "name": "soulId",
          "type": "uint256"
        }
      ],
      "name": "getTokenIds",
      "outputs": [
        {
          "internalType": "uint256[]",
          "name": "",
          "type": "uint256[]"
        }
      ],
      "stateMutability": "view",
      "type": "function"
    },
    {
      "inputs": [
        {
          "internalType": "address",
          "name": "owner",
          "type": "address"
        },
        {
          "internalType": "address",
          "name": "operator",
          "type": "address"
        }
      ],
      "name": "isApprovedForAll",
      "outputs": [
        {
          "internalType": "bool",
          "name": "",
          "type": "bool"
        }
      ],
      "stateMutability": "view",
      "type": "function"
    },
    {
      "inputs": [
        {
          "internalType": "string",
          "name": "_issuer",
          "type": "string"
        },
        {
          "internalType": "string",
          "name": "_certification",
          "type": "string"
        },
        {
          "internalType": "uint256",
          "name": "validDate_",
          "type": "uint256"
        },
        {
          "internalType": "address[]",
          "name": "_allows",
          "type": "address[]"
        }
      ],
      "name": "issue",
      "outputs": [],
      "stateMutability": "nonpayable",
      "type": "function"
    },
    {
      "inputs": [],
      "name": "name",
      "outputs": [
        {
          "internalType": "string",
          "name": "",
          "type": "string"
        }
      ],
      "stateMutability": "view",
      "type": "function"
    },
    {
      "inputs": [
        {
          "internalType": "uint256",
          "name": "tokenId",
          "type": "uint256"
        }
      ],
      "name": "ownerOf",
      "outputs": [
        {
          "internalType": "address",
          "name": "",
          "type": "address"
        }
      ],
      "stateMutability": "view",
      "type": "function"
    },
    {
      "inputs": [
        {
          "internalType": "address",
          "name": "from",
          "type": "address"
        },
        {
          "internalType": "address",
          "name": "to",
          "type": "address"
        },
        {
          "internalType": "uint256",
          "name": "tokenId",
          "type": "uint256"
        }
      ],
      "name": "safeTransferFrom",
      "outputs": [],
      "stateMutability": "nonpayable",
      "type": "function"
    },
    {
      "inputs": [
        {
          "internalType": "address",
          "name": "from",
          "type": "address"
        },
        {
          "internalType": "address",
          "name": "to",
          "type": "address"
        },
        {
          "internalType": "uint256",
          "name": "tokenId",
          "type": "uint256"
        },
        {
          "internalType": "bytes",
          "name": "data",
          "type": "bytes"
        }
      ],
      "name": "safeTransferFrom",
      "outputs": [],
      "stateMutability": "nonpayable",
      "type": "function"
    },
    {
      "inputs": [
        {
          "internalType": "address",
          "name": "operator",
          "type": "address"
        },
        {
          "internalType": "bool",
          "name": "approved",
          "type": "bool"
        }
      ],
      "name": "setApprovalForAll",
      "outputs": [],
      "stateMutability": "nonpayable",
      "type": "function"
    },
    {
      "inputs": [
        {
          "internalType": "bytes4",
          "name": "interfaceId",
          "type": "bytes4"
        }
      ],
      "name": "supportsInterface",
      "outputs": [
        {
          "internalType": "bool",
          "name": "",
          "type": "bool"
        }
      ],
      "stateMutability": "view",
      "type": "function"
    },
    {
      "inputs": [],
      "name": "symbol",
      "outputs": [
        {
          "internalType": "string",
          "name": "",
          "type": "string"
        }
      ],
      "stateMutability": "view",
      "type": "function"
    },
    {
      "inputs": [
        {
          "internalType": "uint256",
          "name": "index",
          "type": "uint256"
        }
      ],
      "name": "tokenByIndex",
      "outputs": [
        {
          "internalType": "uint256",
          "name": "",
          "type": "uint256"
        }
      ],
      "stateMutability": "view",
      "type": "function"
    },
    {
      "inputs": [
        {
          "internalType": "address",
          "name": "owner",
          "type": "address"
        },
        {
          "internalType": "uint256",
          "name": "index",
          "type": "uint256"
        }
      ],
      "name": "tokenOfOwnerByIndex",
      "outputs": [
        {
          "internalType": "uint256",
          "name": "",
          "type": "uint256"
        }
      ],
      "stateMutability": "view",
      "type": "function"
    },
    {
      "inputs": [
        {
          "internalType": "uint256",
          "name": "tokenId",
          "type": "uint256"
        }
      ],
      "name": "tokenURI",
      "outputs": [
        {
          "internalType": "string",
          "name": "",
          "type": "string"
        }
      ],
      "stateMutability": "view",
      "type": "function"
    },
    {
      "inputs": [],
      "name": "totalSupply",
      "outputs": [
        {
          "internalType": "uint256",
          "name": "",
          "type": "uint256"
        }
      ],
      "stateMutability": "view",
      "type": "function"
    },
    {
      "inputs": [
        {
          "internalType": "address",
          "name": "from",
          "type": "address"
        },
        {
          "internalType": "address",
          "name": "to",
          "type": "address"
        },
        {
          "internalType": "uint256",
          "name": "tokenId",
          "type": "uint256"
        }
      ],
      "name": "transferFrom",
      "outputs": [],
      "stateMutability": "nonpayable",
      "type": "function"
    }
  ],
  "bytecode": "60806040523480156200001157600080fd5b50604080518082018252601681527f536f756c426f6e74546f6b656e2052656769737472790000000000000000000060208083019182528351808501909452600384526214d09560ea1b9084015281519192916200007291600091620000b7565b50805162000088906001906020840190620000b7565b5050601080546001600160a01b03191673222d6d17f1f6967b81e40624fe6176b7be225bee1790555062000199565b828054620000c5906200015d565b90600052602060002090601f016020900481019282620000e9576000855562000134565b82601f106200010457805160ff191683800117855562000134565b8280016001018555821562000134579182015b828111156200013457825182559160200191906001019062000117565b506200014292915062000146565b5090565b5b8082111562000142576000815560010162000147565b600181811c908216806200017257607f821691505b6020821081036200019357634e487b7160e01b600052602260045260246000fd5b50919050565b613a6080620001a96000396000f3fe608060405234801561001057600080fd5b50600436106101375760003560e01c80635f2a9e87116100b8578063afb6533a1161007c578063afb6533a1461028b578063b88d4fde1461029e578063c87b56dd146102b1578063e4b50cb8146102c4578063e985e9c5146102e4578063f4e992811461032057600080fd5b80635f2a9e87146102375780636352211e1461024a57806370a082311461025d57806395d89b4114610270578063a22cb4651461027857600080fd5b806323b872dd116100ff57806323b872dd146101cb5780632f745c59146101de57806342842e0e146101f15780634f6ccce71461020457806357991d301461021757600080fd5b806301ffc9a71461013c57806306fdde0314610164578063081812fc14610179578063095ea7b3146101a457806318160ddd146101b9575b600080fd5b61014f61014a366004612a5c565b610333565b60405190151581526020015b60405180910390f35b61016c61035e565b60405161015b9190612ad8565b61018c610187366004612aeb565b6103f0565b6040516001600160a01b03909116815260200161015b565b6101b76101b2366004612b19565b610417565b005b6008545b60405190815260200161015b565b6101b76101d9366004612b45565b610531565b6101bd6101ec366004612b19565b610562565b6101b76101ff366004612b45565b6105f8565b6101bd610212366004612aeb565b610613565b61022a610225366004612aeb565b6106a6565b60405161015b9190612b86565b6101b7610245366004612c13565b610708565b61018c610258366004612aeb565b6108a1565b6101bd61026b366004612c8d565b610901565b61016c610987565b6101b7610286366004612cb8565b610996565b6101b7610299366004612d38565b6109a5565b6101b76102ac366004612e6d565b610b4c565b61016c6102bf366004612aeb565b610b84565b6102d76102d2366004612aeb565b6115bb565b60405161015b9190612f1c565b61014f6102f2366004612f76565b6001600160a01b03918216600090815260056020908152604080832093909416825291909152205460ff1690565b6101b761032e366004612fa4565b61173d565b60006001600160e01b0319821663780e9d6360e01b14806103585750610358826118e0565b92915050565b60606000805461036d90613030565b80601f016020809104026020016040519081016040528092919081815260200182805461039990613030565b80156103e65780601f106103bb576101008083540402835291602001916103e6565b820191906000526020600020905b8154815290600101906020018083116103c957829003601f168201915b5050505050905090565b60006103fb82611930565b506000908152600460205260409020546001600160a01b031690565b6000610422826108a1565b9050806001600160a01b0316836001600160a01b0316036104945760405162461bcd60e51b815260206004820152602160248201527f4552433732313a20617070726f76616c20746f2063757272656e74206f776e656044820152603960f91b60648201526084015b60405180910390fd5b336001600160a01b03821614806104b057506104b081336102f2565b6105225760405162461bcd60e51b815260206004820152603e60248201527f4552433732313a20617070726f76652063616c6c6572206973206e6f7420746f60448201527f6b656e206f776e6572206e6f7220617070726f76656420666f7220616c6c0000606482015260840161048b565b61052c8383611992565b505050565b61053b3382611a00565b6105575760405162461bcd60e51b815260040161048b9061306a565b61052c838383611a7f565b600061056d83610901565b82106105cf5760405162461bcd60e51b815260206004820152602b60248201527f455243373231456e756d657261626c653a206f776e657220696e646578206f7560448201526a74206f6620626f756e647360a81b606482015260840161048b565b506001600160a01b03919091166000908152600660209081526040808320938352929052205490565b61052c83838360405180602001604052806000815250610b4c565b600061061e60085490565b82106106815760405162461bcd60e51b815260206004820152602c60248201527f455243373231456e756d657261626c653a20676c6f62616c20696e646578206f60448201526b7574206f6620626f756e647360a01b606482015260840161048b565b60088281548110610694576106946130b8565b90600052602060002001549050919050565b6000818152600a60209081526040918290208054835181840281018401909452808452606093928301828280156106fc57602002820191906000526020600020905b8154815260200190600101908083116106e8575b50505050509050919050565b601054604051633e10510b60e01b81526000916001600160a01b031690632d888869908290633e10510b9061073f906004016130ce565b600060405180830381865afa15801561075c573d6000803e3d6000fd5b505050506040513d6000823e601f3d908101601f191682016040526107849190810190613153565b6040518263ffffffff1660e01b81526004016107a09190612ad8565b602060405180830381865afa1580156107bd573d6000803e3d6000fd5b505050506040513d601f19601f820116820180604052508101906107e1919061319c565b604051635d786a4f60e11b8152600481018890523360248201529091506001600160a01b0382169063baf0d49e90604401602060405180830381865afa15801561082f573d6000803e3d6000fd5b505050506040513d601f19601f8201168201806040525081019061085391906131b9565b61088b5760405162461bcd60e51b81526020600482015260096024820152683737ba1037bbb732b960b91b604482015260640161048b565b610899338787878787611c26565b505050505050565b6000818152600260205260408120546001600160a01b0316806103585760405162461bcd60e51b8152602060048201526018602482015277115490cdcc8c4e881a5b9d985b1a59081d1bdad95b88125160421b604482015260640161048b565b60006001600160a01b03821661096b5760405162461bcd60e51b815260206004820152602960248201527f4552433732313a2061646472657373207a65726f206973206e6f7420612076616044820152683634b21037bbb732b960b91b606482015260840161048b565b506001600160a01b031660009081526003602052604090205490565b60606001805461036d90613030565b6109a1338383611e4d565b5050565b601054604051632557a50960e11b815233916001600160a01b031690634aaf4a12906109d7908a908a906004016131d6565b602060405180830381865afa1580156109f4573d6000803e3d6000fd5b505050506040513d601f19601f82011682018060405250810190610a18919061319c565b6001600160a01b031614610a625760405162461bcd60e51b815260206004820152601160248201527027b7363c903237b6b0b4b71037bbb732b960791b604482015260640161048b565b600086868686604051602001610a7b9493929190613205565b60408051601f1981840301815291815281516020928301206000818152600e90935290822085905583519092509003610acc576000818152600d60205260409020805460ff19166001179055610b43565b60005b8251811015610b41576001600f6000858481518110610af057610af06130b8565b6020908102919091018101516001600160a01b0316825281810192909252604090810160009081208682529092529020805460ff191691151591909117905580610b398161323d565b915050610acf565b505b50505050505050565b610b563383611a00565b610b725760405162461bcd60e51b815260040161048b9061306a565b610b7e84848484611f1b565b50505050565b6000818152600260205260409020546060906001600160a01b0316610bdf5760405162461bcd60e51b81526020600482015260116024820152703737b732bc34b9ba32b73a103a37b5b2b760791b604482015260640161048b565b601054604051633e10510b60e01b81526000916001600160a01b031690632d888869908290633e10510b90610c1690600401613256565b600060405180830381865afa158015610c33573d6000803e3d6000fd5b505050506040513d6000823e601f3d908101601f19168201604052610c5b9190810190613153565b6040518263ffffffff1660e01b8152600401610c779190612ad8565b602060405180830381865afa158015610c94573d6000803e3d6000fd5b505050506040513d601f19601f82011682018060405250810190610cb8919061319c565b90506000600c6000858152602001908152602001600020604051806080016040529081600082018054610cea90613030565b80601f0160208091040260200160405190810160405280929190818152602001828054610d1690613030565b8015610d635780601f10610d3857610100808354040283529160200191610d63565b820191906000526020600020905b815481529060010190602001808311610d4657829003601f168201915b50505050508152602001600182018054610d7c90613030565b80601f0160208091040260200160405190810160405280929190818152602001828054610da890613030565b8015610df55780601f10610dca57610100808354040283529160200191610df5565b820191906000526020600020905b815481529060010190602001808311610dd857829003601f168201915b505050918352505060028201546020808301919091526003909201546040918201526010548351928401519151633e10510b60e01b81529394506000936001600160a01b0390911692633e10510b92610e50926004016132af565b600060405180830381865afa158015610e6d573d6000803e3d6000fd5b505050506040513d6000823e601f3d908101601f19168201604052610e959190810190613153565b90506060600182511015610f1d57601054604051633e10510b60e01b81526001600160a01b0390911690633e10510b90610ed1906004016132dd565b600060405180830381865afa158015610eee573d6000803e3d6000fd5b505050506040513d6000823e601f3d908101601f19168201604052610f169190810190613153565b9050611027565b81600081518110610f3057610f306130b8565b01602001516001600160f81b031916600d60fb1b03610f7e5781610f5387611f4e565b604051602001610f6492919061334d565b604051602081830303815290604052945050505050919050565b81600081518110610f9157610f916130b8565b01602001516001600160f81b031916600f60fa1b03610fb1575080611027565b601054604051633e10510b60e01b81526001600160a01b0390911690633e10510b90610fdf906004016132dd565b600060405180830381865afa158015610ffc573d6000803e3d6000fd5b505050506040513d6000823e601f3d908101601f191682016040526110249190810190613153565b90505b60608301516010546000888152600b602052604090205442909211916001600160a01b0390911690637c4165f290849061106090611f4e565b6040518363ffffffff1660e01b815260040161107d92919061338c565b600060405180830381865afa15801561109a573d6000803e3d6000fd5b505050506040513d6000823e601f3d908101601f191682016040526110c29190810190613153565b506010546001600160a01b0316637c4165f2836110de8a611f4e565b6040518363ffffffff1660e01b81526004016110fb9291906133dd565b600060405180830381865afa158015611118573d6000803e3d6000fd5b505050506040513d6000823e601f3d908101601f191682016040526111409190810190613153565b5060105460408581015190516362480fd960e01b815260048101919091526001600160a01b0391821691637c4165f29185918916906362480fd990602401600060405180830381865afa15801561119b573d6000803e3d6000fd5b505050506040513d6000823e601f3d908101601f191682016040526111c39190810190613153565b6040518363ffffffff1660e01b81526004016111e092919061342e565b600060405180830381865afa1580156111fd573d6000803e3d6000fd5b505050506040513d6000823e601f3d908101601f191682016040526112259190810190613153565b5060105460608501516040516362480fd960e01b815260048101919091526001600160a01b0391821691637c4165f29185918916906362480fd990602401600060405180830381865afa158015611280573d6000803e3d6000fd5b505050506040513d6000823e601f3d908101601f191682016040526112a89190810190613153565b6040518363ffffffff1660e01b81526004016112c5929190613484565b600060405180830381865afa1580156112e2573d6000803e3d6000fd5b505050506040513d6000823e601f3d908101601f1916820160405261130a9190810190613153565b506010546001600160a01b0316637c4165f2838361134957604051806040016040528060098152602001681393d508159053125160ba1b815250611368565b60405180604001604052806005815260200164159053125160da1b8152505b6040518363ffffffff1660e01b81526004016113859291906134da565b600060405180830381865afa1580156113a2573d6000803e3d6000fd5b505050506040513d6000823e601f3d908101601f191682016040526113ca9190810190613153565b5060006113d688611f4e565b85602001516113e48561204f565b87516040516113f99493929190602001613525565b60408051601f1981840301815291815260008a8152600b6020522054909150819061142390611f4e565b61142c8a611f4e565b87516040808a015190516362480fd960e01b815260048101919091526001600160a01b038b16906362480fd990602401600060405180830381865afa158015611479573d6000803e3d6000fd5b505050506040513d6000823e601f3d908101601f191682016040526114a19190810190613153565b60608a01516040516362480fd960e01b815260048101919091526001600160a01b038c16906362480fd990602401600060405180830381865afa1580156114ec573d6000803e3d6000fd5b505050506040513d6000823e601f3d908101601f191682016040526115149190810190613153565b8761154057604051806040016040528060098152602001681393d508159053125160ba1b81525061155f565b60405180604001604052806005815260200164159053125160da1b8152505b6040516020016115759796959493929190613683565b604051602081830303815290604052905061158f8161204f565b60405160200161159f9190613857565b6040516020818303038152906040529650505050505050919050565b6115e66040518060800160405280606081526020016060815260200160008152602001600081525090565b6000828152600c60205260409081902081516080810190925280548290829061160e90613030565b80601f016020809104026020016040519081016040528092919081815260200182805461163a90613030565b80156116875780601f1061165c57610100808354040283529160200191611687565b820191906000526020600020905b81548152906001019060200180831161166a57829003601f168201915b505050505081526020016001820180546116a090613030565b80601f01602080910402602001604051908101604052809291908181526020018280546116cc90613030565b80156117195780601f106116ee57610100808354040283529160200191611719565b820191906000526020600020905b8154815290600101906020018083116116fc57829003601f168201915b50505050508152602001600282015481526020016003820154815250509050919050565b601054604051633e10510b60e01b81526000916001600160a01b031690632d888869908290633e10510b90611774906004016130ce565b600060405180830381865afa158015611791573d6000803e3d6000fd5b505050506040513d6000823e601f3d908101601f191682016040526117b99190810190613153565b6040518263ffffffff1660e01b81526004016117d59190612ad8565b602060405180830381865afa1580156117f2573d6000803e3d6000fd5b505050506040513d601f19601f82011682018060405250810190611816919061319c565b6040516302fb1e4560e11b8152600481018890529091506001600160a01b038216906305f63c8a90602401602060405180830381865afa15801561185e573d6000803e3d6000fd5b505050506040513d601f19601f82011682018060405250810190611882919061319c565b6001600160a01b0316336001600160a01b0316146118d25760405162461bcd60e51b815260206004820152600d60248201526c37b7363c9037b832b930ba37b960991b604482015260640161048b565b610b43878787878787611c26565b60006001600160e01b031982166380ac58cd60e01b148061191157506001600160e01b03198216635b5e139f60e01b145b8061035857506301ffc9a760e01b6001600160e01b0319831614610358565b6000818152600260205260409020546001600160a01b031661198f5760405162461bcd60e51b8152602060048201526018602482015277115490cdcc8c4e881a5b9d985b1a59081d1bdad95b88125160421b604482015260640161048b565b50565b600081815260046020526040902080546001600160a01b0319166001600160a01b03841690811790915581906119c7826108a1565b6001600160a01b03167f8c5be1e5ebec7d5bd14f71427d1e84f3dd0314c0f7b2291e5b200ac8c7c3b92560405160405180910390a45050565b600080611a0c836108a1565b9050806001600160a01b0316846001600160a01b03161480611a5357506001600160a01b0380821660009081526005602090815260408083209388168352929052205460ff165b80611a775750836001600160a01b0316611a6c846103f0565b6001600160a01b0316145b949350505050565b826001600160a01b0316611a92826108a1565b6001600160a01b031614611af65760405162461bcd60e51b815260206004820152602560248201527f4552433732313a207472616e736665722066726f6d20696e636f72726563742060448201526437bbb732b960d91b606482015260840161048b565b6001600160a01b038216611b585760405162461bcd60e51b8152602060048201526024808201527f4552433732313a207472616e7366657220746f20746865207a65726f206164646044820152637265737360e01b606482015260840161048b565b611b638383836121a2565b611b6e600082611992565b6001600160a01b0383166000908152600360205260408120805460019290611b9790849061389c565b90915550506001600160a01b0382166000908152600360205260408120805460019290611bc59084906138b3565b909155505060008181526002602052604080822080546001600160a01b0319166001600160a01b0386811691821790925591518493918716917fddf252ad1be2c89b69c2b068fc378daa952ba7f163c4a11628f55a4df523b3ef91a4505050565b600084848484604051602001611c3f9493929190613205565b60408051601f1981840301815291815281516020928301206000818152600d90935291205490915060ff1680611c9857506001600160a01b0387166000908152600f6020908152604080832084845290915290205460ff165b611ce45760405162461bcd60e51b815260206004820152601960248201527f41646472657373206e6f7420696e20616c6c6f77206c69737400000000000000604482015260640161048b565b6000611cef60085490565b6000818152600b60209081526040918290208a9055815160a0601f8a018390049092028101820190925260808201888152929350909182918990899081908501838280828437600092019190915250505090825250604080516020601f8801819004810282018101909252868152918101919087908790819084018382808284376000920182905250938552505042602080850191909152868352600e815260408084205494810194909452858352600c815292909120835180519193611dbb935084929101906129ad565b506020828101518051611dd492600185019201906129ad565b5060408281015160028301556060909201516003909101556000888152600a6020908152918120805460018101825590825291902001819055611e178882612516565b506001600160a01b039096166000908152600f6020908152604080832098835297905295909520805460ff191690555050505050565b816001600160a01b0316836001600160a01b031603611eae5760405162461bcd60e51b815260206004820152601960248201527f4552433732313a20617070726f766520746f2063616c6c657200000000000000604482015260640161048b565b6001600160a01b03838116600081815260056020908152604080832094871680845294825291829020805460ff191686151590811790915591519182527f17307eab39ab6107e8899845ad3d59bd9653f200f220920489ca2b5937696c31910160405180910390a3505050565b611f26848484611a7f565b611f3284848484612664565b610b7e5760405162461bcd60e51b815260040161048b906138cb565b606081600003611f755750506040805180820190915260018152600360fc1b602082015290565b8160005b8115611f9f5780611f898161323d565b9150611f989050600a83613933565b9150611f79565b60008167ffffffffffffffff811115611fba57611fba612cf1565b6040519080825280601f01601f191660200182016040528015611fe4576020820181803683370190505b5090505b8415611a7757611ff960018361389c565b9150612006600a86613947565b6120119060306138b3565b60f81b818381518110612026576120266130b8565b60200101906001600160f81b031916908160001a905350612048600a86613933565b9450611fe8565b6060815160000361206e57505060408051602081019091526000815290565b60006040518060600160405280604081526020016139eb604091399050600060038451600261209d91906138b3565b6120a79190613933565b6120b290600461395b565b67ffffffffffffffff8111156120ca576120ca612cf1565b6040519080825280601f01601f1916602001820160405280156120f4576020820181803683370190505b509050600182016020820185865187015b80821015612160576003820191508151603f8160121c168501518453600184019350603f81600c1c168501518453600184019350603f8160061c168501518453600184019350603f8116850151845350600183019250612105565b505060038651066001811461217c576002811461218f57612197565b603d6001830353603d6002830353612197565b603d60018303535b509195945050505050565b6001600160a01b0382166121f85760405162461bcd60e51b815260206004820152601a60248201527f53425420746f6b656e2063616e6e6f74206265206275726e6564000000000000604482015260640161048b565b601054604051633e10510b60e01b81526000916001600160a01b031690632d888869908290633e10510b9061222f906004016130ce565b600060405180830381865afa15801561224c573d6000803e3d6000fd5b505050506040513d6000823e601f3d908101601f191682016040526122749190810190613153565b6040518263ffffffff1660e01b81526004016122909190612ad8565b602060405180830381865afa1580156122ad573d6000803e3d6000fd5b505050506040513d601f19601f820116820180604052508101906122d1919061319c565b90506001600160a01b0384166123b4576000828152600b602052604090819020549051635d786a4f60e11b815260048101919091526001600160a01b03848116602483015282169063baf0d49e90604401602060405180830381865afa15801561233f573d6000803e3d6000fd5b505050506040513d601f19601f8201168201806040525081019061236391906131b9565b6123af5760405162461bcd60e51b815260206004820181905260248201527f53425420746f6b656e20746f2061646472657373206e6f7420616c6c6f776564604482015260640161048b565b61250b565b6000828152600b602052604090819020549051635d786a4f60e11b815260048101919091526001600160a01b03858116602483015282169063baf0d49e90604401602060405180830381865afa158015612412573d6000803e3d6000fd5b505050506040513d601f19601f8201168201806040525081019061243691906131b9565b80156124bf57506000828152600b602052604090819020549051635d786a4f60e11b815260048101919091526001600160a01b03848116602483015282169063baf0d49e90604401602060405180830381865afa15801561249b573d6000803e3d6000fd5b505050506040513d601f19601f820116820180604052508101906124bf91906131b9565b61250b5760405162461bcd60e51b815260206004820152601b60248201527f53425420746f6b656e2063616e6e6f74207472616e7366657265640000000000604482015260640161048b565b610b7e848484612765565b6001600160a01b03821661256c5760405162461bcd60e51b815260206004820181905260248201527f4552433732313a206d696e7420746f20746865207a65726f2061646472657373604482015260640161048b565b6000818152600260205260409020546001600160a01b0316156125d15760405162461bcd60e51b815260206004820152601c60248201527f4552433732313a20746f6b656e20616c7265616479206d696e74656400000000604482015260640161048b565b6125dd600083836121a2565b6001600160a01b03821660009081526003602052604081208054600192906126069084906138b3565b909155505060008181526002602052604080822080546001600160a01b0319166001600160a01b03861690811790915590518392907fddf252ad1be2c89b69c2b068fc378daa952ba7f163c4a11628f55a4df523b3ef908290a45050565b60006001600160a01b0384163b1561275a57604051630a85bd0160e11b81526001600160a01b0385169063150b7a02906126a890339089908890889060040161397a565b6020604051808303816000875af19250505080156126e3575060408051601f3d908101601f191682019092526126e0918101906139b7565b60015b612740573d808015612711576040519150601f19603f3d011682016040523d82523d6000602084013e612716565b606091505b5080516000036127385760405162461bcd60e51b815260040161048b906138cb565b805181602001fd5b6001600160e01b031916630a85bd0160e11b149050611a77565b506001949350505050565b6001600160a01b0383166127c0576127bb81600880546000838152600960205260408120829055600182018355919091527ff3f7a9fe364faab93b216da50a3214154f22a0a2b415b23a84c8169e8b636ee30155565b6127e3565b816001600160a01b0316836001600160a01b0316146127e3576127e3838261281d565b6001600160a01b0382166127fa5761052c816128ba565b826001600160a01b0316826001600160a01b03161461052c5761052c8282612969565b6000600161282a84610901565b612834919061389c565b600083815260076020526040902054909150808214612887576001600160a01b03841660009081526006602090815260408083208584528252808320548484528184208190558352600790915290208190555b5060009182526007602090815260408084208490556001600160a01b039094168352600681528383209183525290812055565b6008546000906128cc9060019061389c565b600083815260096020526040812054600880549394509092849081106128f4576128f46130b8565b906000526020600020015490508060088381548110612915576129156130b8565b600091825260208083209091019290925582815260099091526040808220849055858252812055600880548061294d5761294d6139d4565b6001900381819060005260206000200160009055905550505050565b600061297483610901565b6001600160a01b039093166000908152600660209081526040808320868452825280832085905593825260079052919091209190915550565b8280546129b990613030565b90600052602060002090601f0160209004810192826129db5760008555612a21565b82601f106129f457805160ff1916838001178555612a21565b82800160010185558215612a21579182015b82811115612a21578251825591602001919060010190612a06565b50612a2d929150612a31565b5090565b5b80821115612a2d5760008155600101612a32565b6001600160e01b03198116811461198f57600080fd5b600060208284031215612a6e57600080fd5b8135612a7981612a46565b9392505050565b60005b83811015612a9b578181015183820152602001612a83565b83811115610b7e5750506000910152565b60008151808452612ac4816020860160208601612a80565b601f01601f19169290920160200192915050565b602081526000612a796020830184612aac565b600060208284031215612afd57600080fd5b5035919050565b6001600160a01b038116811461198f57600080fd5b60008060408385031215612b2c57600080fd5b8235612b3781612b04565b946020939093013593505050565b600080600060608486031215612b5a57600080fd5b8335612b6581612b04565b92506020840135612b7581612b04565b929592945050506040919091013590565b6020808252825182820181905260009190848201906040850190845b81811015612bbe57835183529284019291840191600101612ba2565b50909695505050505050565b60008083601f840112612bdc57600080fd5b50813567ffffffffffffffff811115612bf457600080fd5b602083019150836020828501011115612c0c57600080fd5b9250929050565b600080600080600060608688031215612c2b57600080fd5b85359450602086013567ffffffffffffffff80821115612c4a57600080fd5b612c5689838a01612bca565b90965094506040880135915080821115612c6f57600080fd5b50612c7c88828901612bca565b969995985093965092949392505050565b600060208284031215612c9f57600080fd5b8135612a7981612b04565b801515811461198f57600080fd5b60008060408385031215612ccb57600080fd5b8235612cd681612b04565b91506020830135612ce681612caa565b809150509250929050565b634e487b7160e01b600052604160045260246000fd5b604051601f8201601f1916810167ffffffffffffffff81118282101715612d3057612d30612cf1565b604052919050565b60008060008060008060808789031215612d5157600080fd5b863567ffffffffffffffff80821115612d6957600080fd5b612d758a838b01612bca565b9098509650602091508882013581811115612d8f57600080fd5b612d9b8b828c01612bca565b90975095505060408901359350606089013581811115612dba57600080fd5b8901601f81018b13612dcb57600080fd5b803582811115612ddd57612ddd612cf1565b8060051b9250612dee848401612d07565b818152928201840192848101908d851115612e0857600080fd5b928501925b84841015612e325783359250612e2283612b04565b8282529285019290850190612e0d565b8096505050505050509295509295509295565b600067ffffffffffffffff821115612e5f57612e5f612cf1565b50601f01601f191660200190565b60008060008060808587031215612e8357600080fd5b8435612e8e81612b04565b93506020850135612e9e81612b04565b925060408501359150606085013567ffffffffffffffff811115612ec157600080fd5b8501601f81018713612ed257600080fd5b8035612ee5612ee082612e45565b612d07565b818152886020838501011115612efa57600080fd5b8160208401602083013760006020838301015280935050505092959194509250565b602081526000825160806020840152612f3860a0840182612aac565b90506020840151601f19848303016040850152612f558282612aac565b91505060408401516060840152606084015160808401528091505092915050565b60008060408385031215612f8957600080fd5b8235612f9481612b04565b91506020830135612ce681612b04565b60008060008060008060808789031215612fbd57600080fd5b8635612fc881612b04565b955060208701359450604087013567ffffffffffffffff80821115612fec57600080fd5b612ff88a838b01612bca565b9096509450606089013591508082111561301157600080fd5b5061301e89828a01612bca565b979a9699509497509295939492505050565b600181811c9082168061304457607f821691505b60208210810361306457634e487b7160e01b600052602260045260246000fd5b50919050565b6020808252602e908201527f4552433732313a2063616c6c6572206973206e6f7420746f6b656e206f776e6560408201526d1c881b9bdc88185c1c1c9bdd995960921b606082015260800190565b634e487b7160e01b600052603260045260246000fd5b6040815260006130f4604083016006815265049534f544f560d41b602082015260400190565b828103602093840152601081526f4245455f534f554c5f4144445245535360801b928101929092525060400190565b6000613131612ee084612e45565b905082815283838301111561314557600080fd5b612a79836020830184612a80565b60006020828403121561316557600080fd5b815167ffffffffffffffff81111561317c57600080fd5b8201601f8101841361318d57600080fd5b611a7784825160208401613123565b6000602082840312156131ae57600080fd5b8151612a7981612b04565b6000602082840312156131cb57600080fd5b8151612a7981612caa565b60208152816020820152818360408301376000818301604090810191909152601f909201601f19160101919050565b8385823760008482016000815283858237600093019283525090949350505050565b634e487b7160e01b600052601160045260246000fd5b60006001820161324f5761324f613227565b5060010190565b60408152600061327c604083016006815265049534f544f560d41b602082015260400190565b82810360209384015260148152734245455f4441544554494d455f4144445245535360601b928101929092525060400190565b6040815260006132c26040830185612aac565b82810360208401526132d48185612aac565b95945050505050565b604081526000613303604083016006815265049534f544f560d41b602082015260400190565b828103602093840152600f81526e10915157d4d09517d1115190555315608a1b928101929092525060400190565b60008151613343818560208601612a80565b9290920192915050565b6000835161335f818460208801612a80565b835190830190613373818360208801612a80565b64173539b7b760d91b9101908152600501949350505050565b60608152600061339f6060830185612aac565b82810380602085015260118252705b534f554c49442020202020202020205d60781b6020830152604081016040850152506132d46040820185612aac565b6060815260006133f06060830185612aac565b82810380602085015260118252705b544f4b454e494420202020202020205d60781b6020830152604081016040850152506132d46040820185612aac565b6060815260006134416060830185612aac565b82810380602085015260168252755b434c41494d2044415445202020202020202020205d60501b6020830152604081016040850152506132d46040820185612aac565b6060815260006134976060830185612aac565b82810380602085015260168252755b56414c49442044415445202020202020202020205d60501b6020830152604081016040850152506132d46040820185612aac565b6060815260006134ed6060830185612aac565b828103806020850152600b82526a5b49532056414c49443f5d60a81b6020830152604081016040850152506132d46040820185612aac565b6d7b226e616d65223a20225342542360901b8152845160009061354f81600e850160208a01612a80565b601f60fa1b600e91840191820152855161357081600f840160208a01612a80565b7f222c202273796d626f6c223a2022534254222c20226465736372697074696f6e600f92909101918201527f223a2022536f756c426f756e64546f6b656e2070726f7065727479222c202269602f8201527f6d616765223a22646174613a696d6167652f7376672b786d6c3b626173653634604f820152600b60fa1b606f8201528451613604816070840160208901612a80565b6f111610113232b9b4b3b732b9111d101160811b607092909101918201526136786136326080830186613331565b7f222c202261747472696275746573223a205b7b202274726169745f74797065228152731d101129b7bab6111610113b30b63ab2911d101160611b602082015260340190565b979650505050505050565b60008851613695818460208d01612a80565b8851908301906136a9818360208d01612a80565b8082019150507f227d2c7b202274726169745f74797065223a2022534254204944222c20227661815266363ab2911d101160c91b602082015287516136f5816027840160208c01612a80565b7f227d2c7b202274726169745f74797065223a2022436572746966696361746520602792909101918201527224b9b9bab2b9111610113b30b63ab2911d101160691b6047820152865161374f81605a840160208b01612a80565b7f227d2c7b202274726169745f74797065223a2022436c61696d2044617465222c605a92909101918201526a10113b30b63ab2911d101160a91b607a8201526138496138396138336137ed6137e76137aa608587018c613331565b7f227d2c7b202274726169745f74797065223a202256616c69642044617465222c81526a10113b30b63ab2911d101160a91b6020820152602b0190565b89613331565b7f227d2c7b202274726169745f74797065223a202243657274696669636174696f81527337102b30b634b2111610113b30b63ab2911d101160611b602082015260340190565b86613331565b63227d5d7d60e01b815260040190565b9a9950505050505050505050565b7f646174613a6170706c69636174696f6e2f6a736f6e3b6261736536342c00000081526000825161388f81601d850160208701612a80565b91909101601d0192915050565b6000828210156138ae576138ae613227565b500390565b600082198211156138c6576138c6613227565b500190565b60208082526032908201527f4552433732313a207472616e7366657220746f206e6f6e20455243373231526560408201527131b2b4bb32b91034b6b83632b6b2b73a32b960711b606082015260800190565b634e487b7160e01b600052601260045260246000fd5b6000826139425761394261391d565b500490565b6000826139565761395661391d565b500690565b600081600019048311821515161561397557613975613227565b500290565b6001600160a01b03858116825284166020820152604081018390526080606082018190526000906139ad90830184612aac565b9695505050505050565b6000602082840312156139c957600080fd5b8151612a7981612a46565b634e487b7160e01b600052603160045260246000fdfe4142434445464748494a4b4c4d4e4f505152535455565758595a6162636465666768696a6b6c6d6e6f707172737475767778797a303132333435363738392b2fa2646970667358221220d144b5f3b41a539b16777d6d1bbdaad0e3c37af2b8cb73a1c594ee109ce9e20564736f6c634300080d0033",
  "bytecodeSha1": "54e7b877796348b51dce093df62344a9b4be0827",
  "compiler": {
    "evm_version": "istanbul",
    "optimizer": {
      "enabled": true,
      "runs": 200
    },
    "version": "0.8.13+commit.abaa5c0e"
  },
  "contractName": "soulBondToken",
  "language": "Solidity",
  "natspec": {
    "kind": "dev",
    "methods": {
      "approve(address,uint256)": {
        "details": "See {IERC721-approve}."
      },
      "balanceOf(address)": {
        "details": "See {IERC721-balanceOf}."
      },
      "getApproved(uint256)": {
        "details": "See {IERC721-getApproved}."
      },
      "isApprovedForAll(address,address)": {
        "details": "See {IERC721-isApprovedForAll}."
      },
      "name()": {
        "details": "See {IERC721Metadata-name}."
      },
      "ownerOf(uint256)": {
        "details": "See {IERC721-ownerOf}."
      },
      "safeTransferFrom(address,address,uint256)": {
        "details": "See {IERC721-safeTransferFrom}."
      },
      "safeTransferFrom(address,address,uint256,bytes)": {
        "details": "See {IERC721-safeTransferFrom}."
      },
      "setApprovalForAll(address,bool)": {
        "details": "See {IERC721-setApprovalForAll}."
      },
      "supportsInterface(bytes4)": {
        "details": "See {IERC165-supportsInterface}."
      },
      "symbol()": {
        "details": "See {IERC721Metadata-symbol}."
      },
      "tokenByIndex(uint256)": {
        "details": "See {IERC721Enumerable-tokenByIndex}."
      },
      "tokenOfOwnerByIndex(address,uint256)": {
        "details": "See {IERC721Enumerable-tokenOfOwnerByIndex}."
      },
      "tokenURI(uint256)": {
        "details": "See {IERC721Metadata-tokenURI}."
      },
      "totalSupply()": {
        "details": "See {IERC721Enumerable-totalSupply}."
      },
      "transferFrom(address,address,uint256)": {
        "details": "See {IERC721-transferFrom}."
      }
    },
    "version": 1
  },
  "opcodes": "PUSH1 0x80 PUSH1 0x40 MSTORE CALLVALUE DUP1 ISZERO PUSH2 0x10 JUMPI PUSH1 0x0 DUP1 REVERT JUMPDEST POP PUSH1 0x4 CALLDATASIZE LT PUSH2 0x137 JUMPI PUSH1 0x0 CALLDATALOAD PUSH1 0xE0 SHR DUP1 PUSH4 0x5F2A9E87 GT PUSH2 0xB8 JUMPI DUP1 PUSH4 0xAFB6533A GT PUSH2 0x7C JUMPI DUP1 PUSH4 0xAFB6533A EQ PUSH2 0x28B JUMPI DUP1 PUSH4 0xB88D4FDE EQ PUSH2 0x29E JUMPI DUP1 PUSH4 0xC87B56DD EQ PUSH2 0x2B1 JUMPI DUP1 PUSH4 0xE4B50CB8 EQ PUSH2 0x2C4 JUMPI DUP1 PUSH4 0xE985E9C5 EQ PUSH2 0x2E4 JUMPI DUP1 PUSH4 0xF4E99281 EQ PUSH2 0x320 JUMPI PUSH1 0x0 DUP1 REVERT JUMPDEST DUP1 PUSH4 0x5F2A9E87 EQ PUSH2 0x237 JUMPI DUP1 PUSH4 0x6352211E EQ PUSH2 0x24A JUMPI DUP1 PUSH4 0x70A08231 EQ PUSH2 0x25D JUMPI DUP1 PUSH4 0x95D89B41 EQ PUSH2 0x270 JUMPI DUP1 PUSH4 0xA22CB465 EQ PUSH2 0x278 JUMPI PUSH1 0x0 DUP1 REVERT JUMPDEST DUP1 PUSH4 0x23B872DD GT PUSH2 0xFF JUMPI DUP1 PUSH4 0x23B872DD EQ PUSH2 0x1CB JUMPI DUP1 PUSH4 0x2F745C59 EQ PUSH2 0x1DE JUMPI DUP1 PUSH4 0x42842E0E EQ PUSH2 0x1F1 JUMPI DUP1 PUSH4 0x4F6CCCE7 EQ PUSH2 0x204 JUMPI DUP1 PUSH4 0x57991D30 EQ PUSH2 0x217 JUMPI PUSH1 0x0 DUP1 REVERT JUMPDEST DUP1 PUSH4 0x1FFC9A7 EQ PUSH2 0x13C JUMPI DUP1 PUSH4 0x6FDDE03 EQ PUSH2 0x164 JUMPI DUP1 PUSH4 0x81812FC EQ PUSH2 0x179 JUMPI DUP1 PUSH4 0x95EA7B3 EQ PUSH2 0x1A4 JUMPI DUP1 PUSH4 0x18160DDD EQ PUSH2 0x1B9 JUMPI JUMPDEST PUSH1 0x0 DUP1 REVERT JUMPDEST PUSH2 0x14F PUSH2 0x14A CALLDATASIZE PUSH1 0x4 PUSH2 0x2A5C JUMP JUMPDEST PUSH2 0x333 JUMP JUMPDEST PUSH1 0x40 MLOAD SWAP1 ISZERO ISZERO DUP2 MSTORE PUSH1 0x20 ADD JUMPDEST PUSH1 0x40 MLOAD DUP1 SWAP2 SUB SWAP1 RETURN JUMPDEST PUSH2 0x16C PUSH2 0x35E JUMP JUMPDEST PUSH1 0x40 MLOAD PUSH2 0x15B SWAP2 SWAP1 PUSH2 0x2AD8 JUMP JUMPDEST PUSH2 0x18C PUSH2 0x187 CALLDATASIZE PUSH1 0x4 PUSH2 0x2AEB JUMP JUMPDEST PUSH2 0x3F0 JUMP JUMPDEST PUSH1 0x40 MLOAD PUSH1 0x1 PUSH1 0x1 PUSH1 0xA0 SHL SUB SWAP1 SWAP2 AND DUP2 MSTORE PUSH1 0x20 ADD PUSH2 0x15B JUMP JUMPDEST PUSH2 0x1B7 PUSH2 0x1B2 CALLDATASIZE PUSH1 0x4 PUSH2 0x2B19 JUMP JUMPDEST PUSH2 0x417 JUMP JUMPDEST STOP JUMPDEST PUSH1 0x8 SLOAD JUMPDEST PUSH1 0x40 MLOAD SWAP1 DUP2 MSTORE PUSH1 0x20 ADD PUSH2 0x15B JUMP JUMPDEST PUSH2 0x1B7 PUSH2 0x1D9 CALLDATASIZE PUSH1 0x4 PUSH2 0x2B45 JUMP JUMPDEST PUSH2 0x531 JUMP JUMPDEST PUSH2 0x1BD PUSH2 0x1EC CALLDATASIZE PUSH1 0x4 PUSH2 0x2B19 JUMP JUMPDEST PUSH2 0x562 JUMP JUMPDEST PUSH2 0x1B7 PUSH2 0x1FF CALLDATASIZE PUSH1 0x4 PUSH2 0x2B45 JUMP JUMPDEST PUSH2 0x5F8 JUMP JUMPDEST PUSH2 0x1BD PUSH2 0x212 CALLDATASIZE PUSH1 0x4 PUSH2 0x2AEB JUMP JUMPDEST PUSH2 0x613 JUMP JUMPDEST PUSH2 0x22A PUSH2 0x225 CALLDATASIZE PUSH1 0x4 PUSH2 0x2AEB JUMP JUMPDEST PUSH2 0x6A6 JUMP JUMPDEST PUSH1 0x40 MLOAD PUSH2 0x15B SWAP2 SWAP1 PUSH2 0x2B86 JUMP JUMPDEST PUSH2 0x1B7 PUSH2 0x245 CALLDATASIZE PUSH1 0x4 PUSH2 0x2C13 JUMP JUMPDEST PUSH2 0x708 JUMP JUMPDEST PUSH2 0x18C PUSH2 0x258 CALLDATASIZE PUSH1 0x4 PUSH2 0x2AEB JUMP JUMPDEST PUSH2 0x8A1 JUMP JUMPDEST PUSH2 0x1BD PUSH2 0x26B CALLDATASIZE PUSH1 0x4 PUSH2 0x2C8D JUMP JUMPDEST PUSH2 0x901 JUMP JUMPDEST PUSH2 0x16C PUSH2 0x987 JUMP JUMPDEST PUSH2 0x1B7 PUSH2 0x286 CALLDATASIZE PUSH1 0x4 PUSH2 0x2CB8 JUMP JUMPDEST PUSH2 0x996 JUMP JUMPDEST PUSH2 0x1B7 PUSH2 0x299 CALLDATASIZE PUSH1 0x4 PUSH2 0x2D38 JUMP JUMPDEST PUSH2 0x9A5 JUMP JUMPDEST PUSH2 0x1B7 PUSH2 0x2AC CALLDATASIZE PUSH1 0x4 PUSH2 0x2E6D JUMP JUMPDEST PUSH2 0xB4C JUMP JUMPDEST PUSH2 0x16C PUSH2 0x2BF CALLDATASIZE PUSH1 0x4 PUSH2 0x2AEB JUMP JUMPDEST PUSH2 0xB84 JUMP JUMPDEST PUSH2 0x2D7 PUSH2 0x2D2 CALLDATASIZE PUSH1 0x4 PUSH2 0x2AEB JUMP JUMPDEST PUSH2 0x15BB JUMP JUMPDEST PUSH1 0x40 MLOAD PUSH2 0x15B SWAP2 SWAP1 PUSH2 0x2F1C JUMP JUMPDEST PUSH2 0x14F PUSH2 0x2F2 CALLDATASIZE PUSH1 0x4 PUSH2 0x2F76 JUMP JUMPDEST PUSH1 0x1 PUSH1 0x1 PUSH1 0xA0 SHL SUB SWAP2 DUP3 AND PUSH1 0x0 SWAP1 DUP2 MSTORE PUSH1 0x5 PUSH1 0x20 SWAP1 DUP2 MSTORE PUSH1 0x40 DUP1 DUP4 KECCAK256 SWAP4 SWAP1 SWAP5 AND DUP3 MSTORE SWAP2 SWAP1 SWAP2 MSTORE KECCAK256 SLOAD PUSH1 0xFF AND SWAP1 JUMP JUMPDEST PUSH2 0x1B7 PUSH2 0x32E CALLDATASIZE PUSH1 0x4 PUSH2 0x2FA4 JUMP JUMPDEST PUSH2 0x173D JUMP JUMPDEST PUSH1 0x0 PUSH1 0x1 PUSH1 0x1 PUSH1 0xE0 SHL SUB NOT DUP3 AND PUSH4 0x780E9D63 PUSH1 0xE0 SHL EQ DUP1 PUSH2 0x358 JUMPI POP PUSH2 0x358 DUP3 PUSH2 0x18E0 JUMP JUMPDEST SWAP3 SWAP2 POP POP JUMP JUMPDEST PUSH1 0x60 PUSH1 0x0 DUP1 SLOAD PUSH2 0x36D SWAP1 PUSH2 0x3030 JUMP JUMPDEST DUP1 PUSH1 0x1F ADD PUSH1 0x20 DUP1 SWAP2 DIV MUL PUSH1 0x20 ADD PUSH1 0x40 MLOAD SWAP1 DUP2 ADD PUSH1 0x40 MSTORE DUP1 SWAP3 SWAP2 SWAP1 DUP2 DUP2 MSTORE PUSH1 0x20 ADD DUP3 DUP1 SLOAD PUSH2 0x399 SWAP1 PUSH2 0x3030 JUMP JUMPDEST DUP1 ISZERO PUSH2 0x3E6 JUMPI DUP1 PUSH1 0x1F LT PUSH2 0x3BB JUMPI PUSH2 0x100 DUP1 DUP4 SLOAD DIV MUL DUP4 MSTORE SWAP2 PUSH1 0x20 ADD SWAP2 PUSH2 0x3E6 JUMP JUMPDEST DUP3 ADD SWAP2 SWAP1 PUSH1 0x0 MSTORE PUSH1 0x20 PUSH1 0x0 KECCAK256 SWAP1 JUMPDEST DUP2 SLOAD DUP2 MSTORE SWAP1 PUSH1 0x1 ADD SWAP1 PUSH1 0x20 ADD DUP1 DUP4 GT PUSH2 0x3C9 JUMPI DUP3 SWAP1 SUB PUSH1 0x1F AND DUP3 ADD SWAP2 JUMPDEST POP POP POP POP POP SWAP1 POP SWAP1 JUMP JUMPDEST PUSH1 0x0 PUSH2 0x3FB DUP3 PUSH2 0x1930 JUMP JUMPDEST POP PUSH1 0x0 SWAP1 DUP2 MSTORE PUSH1 0x4 PUSH1 0x20 MSTORE PUSH1 0x40 SWAP1 KECCAK256 SLOAD PUSH1 0x1 PUSH1 0x1 PUSH1 0xA0 SHL SUB AND SWAP1 JUMP JUMPDEST PUSH1 0x0 PUSH2 0x422 DUP3 PUSH2 0x8A1 JUMP JUMPDEST SWAP1 POP DUP1 PUSH1 0x1 PUSH1 0x1 PUSH1 0xA0 SHL SUB AND DUP4 PUSH1 0x1 PUSH1 0x1 PUSH1 0xA0 SHL SUB AND SUB PUSH2 0x494 JUMPI PUSH1 0x40 MLOAD PUSH3 0x461BCD PUSH1 0xE5 SHL DUP2 MSTORE PUSH1 0x20 PUSH1 0x4 DUP3 ADD MSTORE PUSH1 0x21 PUSH1 0x24 DUP3 ADD MSTORE PUSH32 0x4552433732313A20617070726F76616C20746F2063757272656E74206F776E65 PUSH1 0x44 DUP3 ADD MSTORE PUSH1 0x39 PUSH1 0xF9 SHL PUSH1 0x64 DUP3 ADD MSTORE PUSH1 0x84 ADD JUMPDEST PUSH1 0x40 MLOAD DUP1 SWAP2 SUB SWAP1 REVERT JUMPDEST CALLER PUSH1 0x1 PUSH1 0x1 PUSH1 0xA0 SHL SUB DUP3 AND EQ DUP1 PUSH2 0x4B0 JUMPI POP PUSH2 0x4B0 DUP2 CALLER PUSH2 0x2F2 JUMP JUMPDEST PUSH2 0x522 JUMPI PUSH1 0x40 MLOAD PUSH3 0x461BCD PUSH1 0xE5 SHL DUP2 MSTORE PUSH1 0x20 PUSH1 0x4 DUP3 ADD MSTORE PUSH1 0x3E PUSH1 0x24 DUP3 ADD MSTORE PUSH32 0x4552433732313A20617070726F76652063616C6C6572206973206E6F7420746F PUSH1 0x44 DUP3 ADD MSTORE PUSH32 0x6B656E206F776E6572206E6F7220617070726F76656420666F7220616C6C0000 PUSH1 0x64 DUP3 ADD MSTORE PUSH1 0x84 ADD PUSH2 0x48B JUMP JUMPDEST PUSH2 0x52C DUP4 DUP4 PUSH2 0x1992 JUMP JUMPDEST POP POP POP JUMP JUMPDEST PUSH2 0x53B CALLER DUP3 PUSH2 0x1A00 JUMP JUMPDEST PUSH2 0x557 JUMPI PUSH1 0x40 MLOAD PUSH3 0x461BCD PUSH1 0xE5 SHL DUP2 MSTORE PUSH1 0x4 ADD PUSH2 0x48B SWAP1 PUSH2 0x306A JUMP JUMPDEST PUSH2 0x52C DUP4 DUP4 DUP4 PUSH2 0x1A7F JUMP JUMPDEST PUSH1 0x0 PUSH2 0x56D DUP4 PUSH2 0x901 JUMP JUMPDEST DUP3 LT PUSH2 0x5CF JUMPI PUSH1 0x40 MLOAD PUSH3 0x461BCD PUSH1 0xE5 SHL DUP2 MSTORE PUSH1 0x20 PUSH1 0x4 DUP3 ADD MSTORE PUSH1 0x2B PUSH1 0x24 DUP3 ADD MSTORE PUSH32 0x455243373231456E756D657261626C653A206F776E657220696E646578206F75 PUSH1 0x44 DUP3 ADD MSTORE PUSH11 0x74206F6620626F756E6473 PUSH1 0xA8 SHL PUSH1 0x64 DUP3 ADD MSTORE PUSH1 0x84 ADD PUSH2 0x48B JUMP JUMPDEST POP PUSH1 0x1 PUSH1 0x1 PUSH1 0xA0 SHL SUB SWAP2 SWAP1 SWAP2 AND PUSH1 0x0 SWAP1 DUP2 MSTORE PUSH1 0x6 PUSH1 0x20 SWAP1 DUP2 MSTORE PUSH1 0x40 DUP1 DUP4 KECCAK256 SWAP4 DUP4 MSTORE SWAP3 SWAP1 MSTORE KECCAK256 SLOAD SWAP1 JUMP JUMPDEST PUSH2 0x52C DUP4 DUP4 DUP4 PUSH1 0x40 MLOAD DUP1 PUSH1 0x20 ADD PUSH1 0x40 MSTORE DUP1 PUSH1 0x0 DUP2 MSTORE POP PUSH2 0xB4C JUMP JUMPDEST PUSH1 0x0 PUSH2 0x61E PUSH1 0x8 SLOAD SWAP1 JUMP JUMPDEST DUP3 LT PUSH2 0x681 JUMPI PUSH1 0x40 MLOAD PUSH3 0x461BCD PUSH1 0xE5 SHL DUP2 MSTORE PUSH1 0x20 PUSH1 0x4 DUP3 ADD MSTORE PUSH1 0x2C PUSH1 0x24 DUP3 ADD MSTORE PUSH32 0x455243373231456E756D657261626C653A20676C6F62616C20696E646578206F PUSH1 0x44 DUP3 ADD MSTORE PUSH12 0x7574206F6620626F756E6473 PUSH1 0xA0 SHL PUSH1 0x64 DUP3 ADD MSTORE PUSH1 0x84 ADD PUSH2 0x48B JUMP JUMPDEST PUSH1 0x8 DUP3 DUP2 SLOAD DUP2 LT PUSH2 0x694 JUMPI PUSH2 0x694 PUSH2 0x30B8 JUMP JUMPDEST SWAP1 PUSH1 0x0 MSTORE PUSH1 0x20 PUSH1 0x0 KECCAK256 ADD SLOAD SWAP1 POP SWAP2 SWAP1 POP JUMP JUMPDEST PUSH1 0x0 DUP2 DUP2 MSTORE PUSH1 0xA PUSH1 0x20 SWAP1 DUP2 MSTORE PUSH1 0x40 SWAP2 DUP3 SWAP1 KECCAK256 DUP1 SLOAD DUP4 MLOAD DUP2 DUP5 MUL DUP2 ADD DUP5 ADD SWAP1 SWAP5 MSTORE DUP1 DUP5 MSTORE PUSH1 0x60 SWAP4 SWAP3 DUP4 ADD DUP3 DUP3 DUP1 ISZERO PUSH2 0x6FC JUMPI PUSH1 0x20 MUL DUP3 ADD SWAP2 SWAP1 PUSH1 0x0 MSTORE PUSH1 0x20 PUSH1 0x0 KECCAK256 SWAP1 JUMPDEST DUP2 SLOAD DUP2 MSTORE PUSH1 0x20 ADD SWAP1 PUSH1 0x1 ADD SWAP1 DUP1 DUP4 GT PUSH2 0x6E8 JUMPI JUMPDEST POP POP POP POP POP SWAP1 POP SWAP2 SWAP1 POP JUMP JUMPDEST PUSH1 0x10 SLOAD PUSH1 0x40 MLOAD PUSH4 0x3E10510B PUSH1 0xE0 SHL DUP2 MSTORE PUSH1 0x0 SWAP2 PUSH1 0x1 PUSH1 0x1 PUSH1 0xA0 SHL SUB AND SWAP1 PUSH4 0x2D888869 SWAP1 DUP3 SWAP1 PUSH4 0x3E10510B SWAP1 PUSH2 0x73F SWAP1 PUSH1 0x4 ADD PUSH2 0x30CE JUMP JUMPDEST PUSH1 0x0 PUSH1 0x40 MLOAD DUP1 DUP4 SUB DUP2 DUP7 GAS STATICCALL ISZERO DUP1 ISZERO PUSH2 0x75C JUMPI RETURNDATASIZE PUSH1 0x0 DUP1 RETURNDATACOPY RETURNDATASIZE PUSH1 0x0 REVERT JUMPDEST POP POP POP POP PUSH1 0x40 MLOAD RETURNDATASIZE PUSH1 0x0 DUP3 RETURNDATACOPY PUSH1 0x1F RETURNDATASIZE SWAP1 DUP2 ADD PUSH1 0x1F NOT AND DUP3 ADD PUSH1 0x40 MSTORE PUSH2 0x784 SWAP2 SWAP1 DUP2 ADD SWAP1 PUSH2 0x3153 JUMP JUMPDEST PUSH1 0x40 MLOAD DUP3 PUSH4 0xFFFFFFFF AND PUSH1 0xE0 SHL DUP2 MSTORE PUSH1 0x4 ADD PUSH2 0x7A0 SWAP2 SWAP1 PUSH2 0x2AD8 JUMP JUMPDEST PUSH1 0x20 PUSH1 0x40 MLOAD DUP1 DUP4 SUB DUP2 DUP7 GAS STATICCALL ISZERO DUP1 ISZERO PUSH2 0x7BD JUMPI RETURNDATASIZE PUSH1 0x0 DUP1 RETURNDATACOPY RETURNDATASIZE PUSH1 0x0 REVERT JUMPDEST POP POP POP POP PUSH1 0x40 MLOAD RETURNDATASIZE PUSH1 0x1F NOT PUSH1 0x1F DUP3 ADD AND DUP3 ADD DUP1 PUSH1 0x40 MSTORE POP DUP2 ADD SWAP1 PUSH2 0x7E1 SWAP2 SWAP1 PUSH2 0x319C JUMP JUMPDEST PUSH1 0x40 MLOAD PUSH4 0x5D786A4F PUSH1 0xE1 SHL DUP2 MSTORE PUSH1 0x4 DUP2 ADD DUP9 SWAP1 MSTORE CALLER PUSH1 0x24 DUP3 ADD MSTORE SWAP1 SWAP2 POP PUSH1 0x1 PUSH1 0x1 PUSH1 0xA0 SHL SUB DUP3 AND SWAP1 PUSH4 0xBAF0D49E SWAP1 PUSH1 0x44 ADD PUSH1 0x20 PUSH1 0x40 MLOAD DUP1 DUP4 SUB DUP2 DUP7 GAS STATICCALL ISZERO DUP1 ISZERO PUSH2 0x82F JUMPI RETURNDATASIZE PUSH1 0x0 DUP1 RETURNDATACOPY RETURNDATASIZE PUSH1 0x0 REVERT JUMPDEST POP POP POP POP PUSH1 0x40 MLOAD RETURNDATASIZE PUSH1 0x1F NOT PUSH1 0x1F DUP3 ADD AND DUP3 ADD DUP1 PUSH1 0x40 MSTORE POP DUP2 ADD SWAP1 PUSH2 0x853 SWAP2 SWAP1 PUSH2 0x31B9 JUMP JUMPDEST PUSH2 0x88B JUMPI PUSH1 0x40 MLOAD PUSH3 0x461BCD PUSH1 0xE5 SHL DUP2 MSTORE PUSH1 0x20 PUSH1 0x4 DUP3 ADD MSTORE PUSH1 0x9 PUSH1 0x24 DUP3 ADD MSTORE PUSH9 0x3737BA1037BBB732B9 PUSH1 0xB9 SHL PUSH1 0x44 DUP3 ADD MSTORE PUSH1 0x64 ADD PUSH2 0x48B JUMP JUMPDEST PUSH2 0x899 CALLER DUP8 DUP8 DUP8 DUP8 DUP8 PUSH2 0x1C26 JUMP JUMPDEST POP POP POP POP POP POP JUMP JUMPDEST PUSH1 0x0 DUP2 DUP2 MSTORE PUSH1 0x2 PUSH1 0x20 MSTORE PUSH1 0x40 DUP2 KECCAK256 SLOAD PUSH1 0x1 PUSH1 0x1 PUSH1 0xA0 SHL SUB AND DUP1 PUSH2 0x358 JUMPI PUSH1 0x40 MLOAD PUSH3 0x461BCD PUSH1 0xE5 SHL DUP2 MSTORE PUSH1 0x20 PUSH1 0x4 DUP3 ADD MSTORE PUSH1 0x18 PUSH1 0x24 DUP3 ADD MSTORE PUSH24 0x115490CDCC8C4E881A5B9D985B1A59081D1BDAD95B881251 PUSH1 0x42 SHL PUSH1 0x44 DUP3 ADD MSTORE PUSH1 0x64 ADD PUSH2 0x48B JUMP JUMPDEST PUSH1 0x0 PUSH1 0x1 PUSH1 0x1 PUSH1 0xA0 SHL SUB DUP3 AND PUSH2 0x96B JUMPI PUSH1 0x40 MLOAD PUSH3 0x461BCD PUSH1 0xE5 SHL DUP2 MSTORE PUSH1 0x20 PUSH1 0x4 DUP3 ADD MSTORE PUSH1 0x29 PUSH1 0x24 DUP3 ADD MSTORE PUSH32 0x4552433732313A2061646472657373207A65726F206973206E6F742061207661 PUSH1 0x44 DUP3 ADD MSTORE PUSH9 0x3634B21037BBB732B9 PUSH1 0xB9 SHL PUSH1 0x64 DUP3 ADD MSTORE PUSH1 0x84 ADD PUSH2 0x48B JUMP JUMPDEST POP PUSH1 0x1 PUSH1 0x1 PUSH1 0xA0 SHL SUB AND PUSH1 0x0 SWAP1 DUP2 MSTORE PUSH1 0x3 PUSH1 0x20 MSTORE PUSH1 0x40 SWAP1 KECCAK256 SLOAD SWAP1 JUMP JUMPDEST PUSH1 0x60 PUSH1 0x1 DUP1 SLOAD PUSH2 0x36D SWAP1 PUSH2 0x3030 JUMP JUMPDEST PUSH2 0x9A1 CALLER DUP4 DUP4 PUSH2 0x1E4D JUMP JUMPDEST POP POP JUMP JUMPDEST PUSH1 0x10 SLOAD PUSH1 0x40 MLOAD PUSH4 0x2557A509 PUSH1 0xE1 SHL DUP2 MSTORE CALLER SWAP2 PUSH1 0x1 PUSH1 0x1 PUSH1 0xA0 SHL SUB AND SWAP1 PUSH4 0x4AAF4A12 SWAP1 PUSH2 0x9D7 SWAP1 DUP11 SWAP1 DUP11 SWAP1 PUSH1 0x4 ADD PUSH2 0x31D6 JUMP JUMPDEST PUSH1 0x20 PUSH1 0x40 MLOAD DUP1 DUP4 SUB DUP2 DUP7 GAS STATICCALL ISZERO DUP1 ISZERO PUSH2 0x9F4 JUMPI RETURNDATASIZE PUSH1 0x0 DUP1 RETURNDATACOPY RETURNDATASIZE PUSH1 0x0 REVERT JUMPDEST POP POP POP POP PUSH1 0x40 MLOAD RETURNDATASIZE PUSH1 0x1F NOT PUSH1 0x1F DUP3 ADD AND DUP3 ADD DUP1 PUSH1 0x40 MSTORE POP DUP2 ADD SWAP1 PUSH2 0xA18 SWAP2 SWAP1 PUSH2 0x319C JUMP JUMPDEST PUSH1 0x1 PUSH1 0x1 PUSH1 0xA0 SHL SUB AND EQ PUSH2 0xA62 JUMPI PUSH1 0x40 MLOAD PUSH3 0x461BCD PUSH1 0xE5 SHL DUP2 MSTORE PUSH1 0x20 PUSH1 0x4 DUP3 ADD MSTORE PUSH1 0x11 PUSH1 0x24 DUP3 ADD MSTORE PUSH17 0x27B7363C903237B6B0B4B71037BBB732B9 PUSH1 0x79 SHL PUSH1 0x44 DUP3 ADD MSTORE PUSH1 0x64 ADD PUSH2 0x48B JUMP JUMPDEST PUSH1 0x0 DUP7 DUP7 DUP7 DUP7 PUSH1 0x40 MLOAD PUSH1 0x20 ADD PUSH2 0xA7B SWAP5 SWAP4 SWAP3 SWAP2 SWAP1 PUSH2 0x3205 JUMP JUMPDEST PUSH1 0x40 DUP1 MLOAD PUSH1 0x1F NOT DUP2 DUP5 SUB ADD DUP2 MSTORE SWAP2 DUP2 MSTORE DUP2 MLOAD PUSH1 0x20 SWAP3 DUP4 ADD KECCAK256 PUSH1 0x0 DUP2 DUP2 MSTORE PUSH1 0xE SWAP1 SWAP4 MSTORE SWAP1 DUP3 KECCAK256 DUP6 SWAP1 SSTORE DUP4 MLOAD SWAP1 SWAP3 POP SWAP1 SUB PUSH2 0xACC JUMPI PUSH1 0x0 DUP2 DUP2 MSTORE PUSH1 0xD PUSH1 0x20 MSTORE PUSH1 0x40 SWAP1 KECCAK256 DUP1 SLOAD PUSH1 0xFF NOT AND PUSH1 0x1 OR SWAP1 SSTORE PUSH2 0xB43 JUMP JUMPDEST PUSH1 0x0 JUMPDEST DUP3 MLOAD DUP2 LT ISZERO PUSH2 0xB41 JUMPI PUSH1 0x1 PUSH1 0xF PUSH1 0x0 DUP6 DUP5 DUP2 MLOAD DUP2 LT PUSH2 0xAF0 JUMPI PUSH2 0xAF0 PUSH2 0x30B8 JUMP JUMPDEST PUSH1 0x20 SWAP1 DUP2 MUL SWAP2 SWAP1 SWAP2 ADD DUP2 ADD MLOAD PUSH1 0x1 PUSH1 0x1 PUSH1 0xA0 SHL SUB AND DUP3 MSTORE DUP2 DUP2 ADD SWAP3 SWAP1 SWAP3 MSTORE PUSH1 0x40 SWAP1 DUP2 ADD PUSH1 0x0 SWAP1 DUP2 KECCAK256 DUP7 DUP3 MSTORE SWAP1 SWAP3 MSTORE SWAP1 KECCAK256 DUP1 SLOAD PUSH1 0xFF NOT AND SWAP2 ISZERO ISZERO SWAP2 SWAP1 SWAP2 OR SWAP1 SSTORE DUP1 PUSH2 0xB39 DUP2 PUSH2 0x323D JUMP JUMPDEST SWAP2 POP POP PUSH2 0xACF JUMP JUMPDEST POP JUMPDEST POP POP POP POP POP POP POP JUMP JUMPDEST PUSH2 0xB56 CALLER DUP4 PUSH2 0x1A00 JUMP JUMPDEST PUSH2 0xB72 JUMPI PUSH1 0x40 MLOAD PUSH3 0x461BCD PUSH1 0xE5 SHL DUP2 MSTORE PUSH1 0x4 ADD PUSH2 0x48B SWAP1 PUSH2 0x306A JUMP JUMPDEST PUSH2 0xB7E DUP5 DUP5 DUP5 DUP5 PUSH2 0x1F1B JUMP JUMPDEST POP POP POP POP JUMP JUMPDEST PUSH1 0x0 DUP2 DUP2 MSTORE PUSH1 0x2 PUSH1 0x20 MSTORE PUSH1 0x40 SWAP1 KECCAK256 SLOAD PUSH1 0x60 SWAP1 PUSH1 0x1 PUSH1 0x1 PUSH1 0xA0 SHL SUB AND PUSH2 0xBDF JUMPI PUSH1 0x40 MLOAD PUSH3 0x461BCD PUSH1 0xE5 SHL DUP2 MSTORE PUSH1 0x20 PUSH1 0x4 DUP3 ADD MSTORE PUSH1 0x11 PUSH1 0x24 DUP3 ADD MSTORE PUSH17 0x3737B732BC34B9BA32B73A103A37B5B2B7 PUSH1 0x79 SHL PUSH1 0x44 DUP3 ADD MSTORE PUSH1 0x64 ADD PUSH2 0x48B JUMP JUMPDEST PUSH1 0x10 SLOAD PUSH1 0x40 MLOAD PUSH4 0x3E10510B PUSH1 0xE0 SHL DUP2 MSTORE PUSH1 0x0 SWAP2 PUSH1 0x1 PUSH1 0x1 PUSH1 0xA0 SHL SUB AND SWAP1 PUSH4 0x2D888869 SWAP1 DUP3 SWAP1 PUSH4 0x3E10510B SWAP1 PUSH2 0xC16 SWAP1 PUSH1 0x4 ADD PUSH2 0x3256 JUMP JUMPDEST PUSH1 0x0 PUSH1 0x40 MLOAD DUP1 DUP4 SUB DUP2 DUP7 GAS STATICCALL ISZERO DUP1 ISZERO PUSH2 0xC33 JUMPI RETURNDATASIZE PUSH1 0x0 DUP1 RETURNDATACOPY RETURNDATASIZE PUSH1 0x0 REVERT JUMPDEST POP POP POP POP PUSH1 0x40 MLOAD RETURNDATASIZE PUSH1 0x0 DUP3 RETURNDATACOPY PUSH1 0x1F RETURNDATASIZE SWAP1 DUP2 ADD PUSH1 0x1F NOT AND DUP3 ADD PUSH1 0x40 MSTORE PUSH2 0xC5B SWAP2 SWAP1 DUP2 ADD SWAP1 PUSH2 0x3153 JUMP JUMPDEST PUSH1 0x40 MLOAD DUP3 PUSH4 0xFFFFFFFF AND PUSH1 0xE0 SHL DUP2 MSTORE PUSH1 0x4 ADD PUSH2 0xC77 SWAP2 SWAP1 PUSH2 0x2AD8 JUMP JUMPDEST PUSH1 0x20 PUSH1 0x40 MLOAD DUP1 DUP4 SUB DUP2 DUP7 GAS STATICCALL ISZERO DUP1 ISZERO PUSH2 0xC94 JUMPI RETURNDATASIZE PUSH1 0x0 DUP1 RETURNDATACOPY RETURNDATASIZE PUSH1 0x0 REVERT JUMPDEST POP POP POP POP PUSH1 0x40 MLOAD RETURNDATASIZE PUSH1 0x1F NOT PUSH1 0x1F DUP3 ADD AND DUP3 ADD DUP1 PUSH1 0x40 MSTORE POP DUP2 ADD SWAP1 PUSH2 0xCB8 SWAP2 SWAP1 PUSH2 0x319C JUMP JUMPDEST SWAP1 POP PUSH1 0x0 PUSH1 0xC PUSH1 0x0 DUP6 DUP2 MSTORE PUSH1 0x20 ADD SWAP1 DUP2 MSTORE PUSH1 0x20 ADD PUSH1 0x0 KECCAK256 PUSH1 0x40 MLOAD DUP1 PUSH1 0x80 ADD PUSH1 0x40 MSTORE SWAP1 DUP2 PUSH1 0x0 DUP3 ADD DUP1 SLOAD PUSH2 0xCEA SWAP1 PUSH2 0x3030 JUMP JUMPDEST DUP1 PUSH1 0x1F ADD PUSH1 0x20 DUP1 SWAP2 DIV MUL PUSH1 0x20 ADD PUSH1 0x40 MLOAD SWAP1 DUP2 ADD PUSH1 0x40 MSTORE DUP1 SWAP3 SWAP2 SWAP1 DUP2 DUP2 MSTORE PUSH1 0x20 ADD DUP3 DUP1 SLOAD PUSH2 0xD16 SWAP1 PUSH2 0x3030 JUMP JUMPDEST DUP1 ISZERO PUSH2 0xD63 JUMPI DUP1 PUSH1 0x1F LT PUSH2 0xD38 JUMPI PUSH2 0x100 DUP1 DUP4 SLOAD DIV MUL DUP4 MSTORE SWAP2 PUSH1 0x20 ADD SWAP2 PUSH2 0xD63 JUMP JUMPDEST DUP3 ADD SWAP2 SWAP1 PUSH1 0x0 MSTORE PUSH1 0x20 PUSH1 0x0 KECCAK256 SWAP1 JUMPDEST DUP2 SLOAD DUP2 MSTORE SWAP1 PUSH1 0x1 ADD SWAP1 PUSH1 0x20 ADD DUP1 DUP4 GT PUSH2 0xD46 JUMPI DUP3 SWAP1 SUB PUSH1 0x1F AND DUP3 ADD SWAP2 JUMPDEST POP POP POP POP POP DUP2 MSTORE PUSH1 0x20 ADD PUSH1 0x1 DUP3 ADD DUP1 SLOAD PUSH2 0xD7C SWAP1 PUSH2 0x3030 JUMP JUMPDEST DUP1 PUSH1 0x1F ADD PUSH1 0x20 DUP1 SWAP2 DIV MUL PUSH1 0x20 ADD PUSH1 0x40 MLOAD SWAP1 DUP2 ADD PUSH1 0x40 MSTORE DUP1 SWAP3 SWAP2 SWAP1 DUP2 DUP2 MSTORE PUSH1 0x20 ADD DUP3 DUP1 SLOAD PUSH2 0xDA8 SWAP1 PUSH2 0x3030 JUMP JUMPDEST DUP1 ISZERO PUSH2 0xDF5 JUMPI DUP1 PUSH1 0x1F LT PUSH2 0xDCA JUMPI PUSH2 0x100 DUP1 DUP4 SLOAD DIV MUL DUP4 MSTORE SWAP2 PUSH1 0x20 ADD SWAP2 PUSH2 0xDF5 JUMP JUMPDEST DUP3 ADD SWAP2 SWAP1 PUSH1 0x0 MSTORE PUSH1 0x20 PUSH1 0x0 KECCAK256 SWAP1 JUMPDEST DUP2 SLOAD DUP2 MSTORE SWAP1 PUSH1 0x1 ADD SWAP1 PUSH1 0x20 ADD DUP1 DUP4 GT PUSH2 0xDD8 JUMPI DUP3 SWAP1 SUB PUSH1 0x1F AND DUP3 ADD SWAP2 JUMPDEST POP POP POP SWAP2 DUP4 MSTORE POP POP PUSH1 0x2 DUP3 ADD SLOAD PUSH1 0x20 DUP1 DUP4 ADD SWAP2 SWAP1 SWAP2 MSTORE PUSH1 0x3 SWAP1 SWAP3 ADD SLOAD PUSH1 0x40 SWAP2 DUP3 ADD MSTORE PUSH1 0x10 SLOAD DUP4 MLOAD SWAP3 DUP5 ADD MLOAD SWAP2 MLOAD PUSH4 0x3E10510B PUSH1 0xE0 SHL DUP2 MSTORE SWAP4 SWAP5 POP PUSH1 0x0 SWAP4 PUSH1 0x1 PUSH1 0x1 PUSH1 0xA0 SHL SUB SWAP1 SWAP2 AND SWAP3 PUSH4 0x3E10510B SWAP3 PUSH2 0xE50 SWAP3 PUSH1 0x4 ADD PUSH2 0x32AF JUMP JUMPDEST PUSH1 0x0 PUSH1 0x40 MLOAD DUP1 DUP4 SUB DUP2 DUP7 GAS STATICCALL ISZERO DUP1 ISZERO PUSH2 0xE6D JUMPI RETURNDATASIZE PUSH1 0x0 DUP1 RETURNDATACOPY RETURNDATASIZE PUSH1 0x0 REVERT JUMPDEST POP POP POP POP PUSH1 0x40 MLOAD RETURNDATASIZE PUSH1 0x0 DUP3 RETURNDATACOPY PUSH1 0x1F RETURNDATASIZE SWAP1 DUP2 ADD PUSH1 0x1F NOT AND DUP3 ADD PUSH1 0x40 MSTORE PUSH2 0xE95 SWAP2 SWAP1 DUP2 ADD SWAP1 PUSH2 0x3153 JUMP JUMPDEST SWAP1 POP PUSH1 0x60 PUSH1 0x1 DUP3 MLOAD LT ISZERO PUSH2 0xF1D JUMPI PUSH1 0x10 SLOAD PUSH1 0x40 MLOAD PUSH4 0x3E10510B PUSH1 0xE0 SHL DUP2 MSTORE PUSH1 0x1 PUSH1 0x1 PUSH1 0xA0 SHL SUB SWAP1 SWAP2 AND SWAP1 PUSH4 0x3E10510B SWAP1 PUSH2 0xED1 SWAP1 PUSH1 0x4 ADD PUSH2 0x32DD JUMP JUMPDEST PUSH1 0x0 PUSH1 0x40 MLOAD DUP1 DUP4 SUB DUP2 DUP7 GAS STATICCALL ISZERO DUP1 ISZERO PUSH2 0xEEE JUMPI RETURNDATASIZE PUSH1 0x0 DUP1 RETURNDATACOPY RETURNDATASIZE PUSH1 0x0 REVERT JUMPDEST POP POP POP POP PUSH1 0x40 MLOAD RETURNDATASIZE PUSH1 0x0 DUP3 RETURNDATACOPY PUSH1 0x1F RETURNDATASIZE SWAP1 DUP2 ADD PUSH1 0x1F NOT AND DUP3 ADD PUSH1 0x40 MSTORE PUSH2 0xF16 SWAP2 SWAP1 DUP2 ADD SWAP1 PUSH2 0x3153 JUMP JUMPDEST SWAP1 POP PUSH2 0x1027 JUMP JUMPDEST DUP2 PUSH1 0x0 DUP2 MLOAD DUP2 LT PUSH2 0xF30 JUMPI PUSH2 0xF30 PUSH2 0x30B8 JUMP JUMPDEST ADD PUSH1 0x20 ADD MLOAD PUSH1 0x1 PUSH1 0x1 PUSH1 0xF8 SHL SUB NOT AND PUSH1 0xD PUSH1 0xFB SHL SUB PUSH2 0xF7E JUMPI DUP2 PUSH2 0xF53 DUP8 PUSH2 0x1F4E JUMP JUMPDEST PUSH1 0x40 MLOAD PUSH1 0x20 ADD PUSH2 0xF64 SWAP3 SWAP2 SWAP1 PUSH2 0x334D JUMP JUMPDEST PUSH1 0x40 MLOAD PUSH1 0x20 DUP2 DUP4 SUB SUB DUP2 MSTORE SWAP1 PUSH1 0x40 MSTORE SWAP5 POP POP POP POP POP SWAP2 SWAP1 POP JUMP JUMPDEST DUP2 PUSH1 0x0 DUP2 MLOAD DUP2 LT PUSH2 0xF91 JUMPI PUSH2 0xF91 PUSH2 0x30B8 JUMP JUMPDEST ADD PUSH1 0x20 ADD MLOAD PUSH1 0x1 PUSH1 0x1 PUSH1 0xF8 SHL SUB NOT AND PUSH1 0xF PUSH1 0xFA SHL SUB PUSH2 0xFB1 JUMPI POP DUP1 PUSH2 0x1027 JUMP JUMPDEST PUSH1 0x10 SLOAD PUSH1 0x40 MLOAD PUSH4 0x3E10510B PUSH1 0xE0 SHL DUP2 MSTORE PUSH1 0x1 PUSH1 0x1 PUSH1 0xA0 SHL SUB SWAP1 SWAP2 AND SWAP1 PUSH4 0x3E10510B SWAP1 PUSH2 0xFDF SWAP1 PUSH1 0x4 ADD PUSH2 0x32DD JUMP JUMPDEST PUSH1 0x0 PUSH1 0x40 MLOAD DUP1 DUP4 SUB DUP2 DUP7 GAS STATICCALL ISZERO DUP1 ISZERO PUSH2 0xFFC JUMPI RETURNDATASIZE PUSH1 0x0 DUP1 RETURNDATACOPY RETURNDATASIZE PUSH1 0x0 REVERT JUMPDEST POP POP POP POP PUSH1 0x40 MLOAD RETURNDATASIZE PUSH1 0x0 DUP3 RETURNDATACOPY PUSH1 0x1F RETURNDATASIZE SWAP1 DUP2 ADD PUSH1 0x1F NOT AND DUP3 ADD PUSH1 0x40 MSTORE PUSH2 0x1024 SWAP2 SWAP1 DUP2 ADD SWAP1 PUSH2 0x3153 JUMP JUMPDEST SWAP1 POP JUMPDEST PUSH1 0x60 DUP4 ADD MLOAD PUSH1 0x10 SLOAD PUSH1 0x0 DUP9 DUP2 MSTORE PUSH1 0xB PUSH1 0x20 MSTORE PUSH1 0x40 SWAP1 KECCAK256 SLOAD TIMESTAMP SWAP1 SWAP3 GT SWAP2 PUSH1 0x1 PUSH1 0x1 PUSH1 0xA0 SHL SUB SWAP1 SWAP2 AND SWAP1 PUSH4 0x7C4165F2 SWAP1 DUP5 SWAP1 PUSH2 0x1060 SWAP1 PUSH2 0x1F4E JUMP JUMPDEST PUSH1 0x40 MLOAD DUP4 PUSH4 0xFFFFFFFF AND PUSH1 0xE0 SHL DUP2 MSTORE PUSH1 0x4 ADD PUSH2 0x107D SWAP3 SWAP2 SWAP1 PUSH2 0x338C JUMP JUMPDEST PUSH1 0x0 PUSH1 0x40 MLOAD DUP1 DUP4 SUB DUP2 DUP7 GAS STATICCALL ISZERO DUP1 ISZERO PUSH2 0x109A JUMPI RETURNDATASIZE PUSH1 0x0 DUP1 RETURNDATACOPY RETURNDATASIZE PUSH1 0x0 REVERT JUMPDEST POP POP POP POP PUSH1 0x40 MLOAD RETURNDATASIZE PUSH1 0x0 DUP3 RETURNDATACOPY PUSH1 0x1F RETURNDATASIZE SWAP1 DUP2 ADD PUSH1 0x1F NOT AND DUP3 ADD PUSH1 0x40 MSTORE PUSH2 0x10C2 SWAP2 SWAP1 DUP2 ADD SWAP1 PUSH2 0x3153 JUMP JUMPDEST POP PUSH1 0x10 SLOAD PUSH1 0x1 PUSH1 0x1 PUSH1 0xA0 SHL SUB AND PUSH4 0x7C4165F2 DUP4 PUSH2 0x10DE DUP11 PUSH2 0x1F4E JUMP JUMPDEST PUSH1 0x40 MLOAD DUP4 PUSH4 0xFFFFFFFF AND PUSH1 0xE0 SHL DUP2 MSTORE PUSH1 0x4 ADD PUSH2 0x10FB SWAP3 SWAP2 SWAP1 PUSH2 0x33DD JUMP JUMPDEST PUSH1 0x0 PUSH1 0x40 MLOAD DUP1 DUP4 SUB DUP2 DUP7 GAS STATICCALL ISZERO DUP1 ISZERO PUSH2 0x1118 JUMPI RETURNDATASIZE PUSH1 0x0 DUP1 RETURNDATACOPY RETURNDATASIZE PUSH1 0x0 REVERT JUMPDEST POP POP POP POP PUSH1 0x40 MLOAD RETURNDATASIZE PUSH1 0x0 DUP3 RETURNDATACOPY PUSH1 0x1F RETURNDATASIZE SWAP1 DUP2 ADD PUSH1 0x1F NOT AND DUP3 ADD PUSH1 0x40 MSTORE PUSH2 0x1140 SWAP2 SWAP1 DUP2 ADD SWAP1 PUSH2 0x3153 JUMP JUMPDEST POP PUSH1 0x10 SLOAD PUSH1 0x40 DUP6 DUP2 ADD MLOAD SWAP1 MLOAD PUSH4 0x62480FD9 PUSH1 0xE0 SHL DUP2 MSTORE PUSH1 0x4 DUP2 ADD SWAP2 SWAP1 SWAP2 MSTORE PUSH1 0x1 PUSH1 0x1 PUSH1 0xA0 SHL SUB SWAP2 DUP3 AND SWAP2 PUSH4 0x7C4165F2 SWAP2 DUP6 SWAP2 DUP10 AND SWAP1 PUSH4 0x62480FD9 SWAP1 PUSH1 0x24 ADD PUSH1 0x0 PUSH1 0x40 MLOAD DUP1 DUP4 SUB DUP2 DUP7 GAS STATICCALL ISZERO DUP1 ISZERO PUSH2 0x119B JUMPI RETURNDATASIZE PUSH1 0x0 DUP1 RETURNDATACOPY RETURNDATASIZE PUSH1 0x0 REVERT JUMPDEST POP POP POP POP PUSH1 0x40 MLOAD RETURNDATASIZE PUSH1 0x0 DUP3 RETURNDATACOPY PUSH1 0x1F RETURNDATASIZE SWAP1 DUP2 ADD PUSH1 0x1F NOT AND DUP3 ADD PUSH1 0x40 MSTORE PUSH2 0x11C3 SWAP2 SWAP1 DUP2 ADD SWAP1 PUSH2 0x3153 JUMP JUMPDEST PUSH1 0x40 MLOAD DUP4 PUSH4 0xFFFFFFFF AND PUSH1 0xE0 SHL DUP2 MSTORE PUSH1 0x4 ADD PUSH2 0x11E0 SWAP3 SWAP2 SWAP1 PUSH2 0x342E JUMP JUMPDEST PUSH1 0x0 PUSH1 0x40 MLOAD DUP1 DUP4 SUB DUP2 DUP7 GAS STATICCALL ISZERO DUP1 ISZERO PUSH2 0x11FD JUMPI RETURNDATASIZE PUSH1 0x0 DUP1 RETURNDATACOPY RETURNDATASIZE PUSH1 0x0 REVERT JUMPDEST POP POP POP POP PUSH1 0x40 MLOAD RETURNDATASIZE PUSH1 0x0 DUP3 RETURNDATACOPY PUSH1 0x1F RETURNDATASIZE SWAP1 DUP2 ADD PUSH1 0x1F NOT AND DUP3 ADD PUSH1 0x40 MSTORE PUSH2 0x1225 SWAP2 SWAP1 DUP2 ADD SWAP1 PUSH2 0x3153 JUMP JUMPDEST POP PUSH1 0x10 SLOAD PUSH1 0x60 DUP6 ADD MLOAD PUSH1 0x40 MLOAD PUSH4 0x62480FD9 PUSH1 0xE0 SHL DUP2 MSTORE PUSH1 0x4 DUP2 ADD SWAP2 SWAP1 SWAP2 MSTORE PUSH1 0x1 PUSH1 0x1 PUSH1 0xA0 SHL SUB SWAP2 DUP3 AND SWAP2 PUSH4 0x7C4165F2 SWAP2 DUP6 SWAP2 DUP10 AND SWAP1 PUSH4 0x62480FD9 SWAP1 PUSH1 0x24 ADD PUSH1 0x0 PUSH1 0x40 MLOAD DUP1 DUP4 SUB DUP2 DUP7 GAS STATICCALL ISZERO DUP1 ISZERO PUSH2 0x1280 JUMPI RETURNDATASIZE PUSH1 0x0 DUP1 RETURNDATACOPY RETURNDATASIZE PUSH1 0x0 REVERT JUMPDEST POP POP POP POP PUSH1 0x40 MLOAD RETURNDATASIZE PUSH1 0x0 DUP3 RETURNDATACOPY PUSH1 0x1F RETURNDATASIZE SWAP1 DUP2 ADD PUSH1 0x1F NOT AND DUP3 ADD PUSH1 0x40 MSTORE PUSH2 0x12A8 SWAP2 SWAP1 DUP2 ADD SWAP1 PUSH2 0x3153 JUMP JUMPDEST PUSH1 0x40 MLOAD DUP4 PUSH4 0xFFFFFFFF AND PUSH1 0xE0 SHL DUP2 MSTORE PUSH1 0x4 ADD PUSH2 0x12C5 SWAP3 SWAP2 SWAP1 PUSH2 0x3484 JUMP JUMPDEST PUSH1 0x0 PUSH1 0x40 MLOAD DUP1 DUP4 SUB DUP2 DUP7 GAS STATICCALL ISZERO DUP1 ISZERO PUSH2 0x12E2 JUMPI RETURNDATASIZE PUSH1 0x0 DUP1 RETURNDATACOPY RETURNDATASIZE PUSH1 0x0 REVERT JUMPDEST POP POP POP POP PUSH1 0x40 MLOAD RETURNDATASIZE PUSH1 0x0 DUP3 RETURNDATACOPY PUSH1 0x1F RETURNDATASIZE SWAP1 DUP2 ADD PUSH1 0x1F NOT AND DUP3 ADD PUSH1 0x40 MSTORE PUSH2 0x130A SWAP2 SWAP1 DUP2 ADD SWAP1 PUSH2 0x3153 JUMP JUMPDEST POP PUSH1 0x10 SLOAD PUSH1 0x1 PUSH1 0x1 PUSH1 0xA0 SHL SUB AND PUSH4 0x7C4165F2 DUP4 DUP4 PUSH2 0x1349 JUMPI PUSH1 0x40 MLOAD DUP1 PUSH1 0x40 ADD PUSH1 0x40 MSTORE DUP1 PUSH1 0x9 DUP2 MSTORE PUSH1 0x20 ADD PUSH9 0x1393D5081590531251 PUSH1 0xBA SHL DUP2 MSTORE POP PUSH2 0x1368 JUMP JUMPDEST PUSH1 0x40 MLOAD DUP1 PUSH1 0x40 ADD PUSH1 0x40 MSTORE DUP1 PUSH1 0x5 DUP2 MSTORE PUSH1 0x20 ADD PUSH5 0x1590531251 PUSH1 0xDA SHL DUP2 MSTORE POP JUMPDEST PUSH1 0x40 MLOAD DUP4 PUSH4 0xFFFFFFFF AND PUSH1 0xE0 SHL DUP2 MSTORE PUSH1 0x4 ADD PUSH2 0x1385 SWAP3 SWAP2 SWAP1 PUSH2 0x34DA JUMP JUMPDEST PUSH1 0x0 PUSH1 0x40 MLOAD DUP1 DUP4 SUB DUP2 DUP7 GAS STATICCALL ISZERO DUP1 ISZERO PUSH2 0x13A2 JUMPI RETURNDATASIZE PUSH1 0x0 DUP1 RETURNDATACOPY RETURNDATASIZE PUSH1 0x0 REVERT JUMPDEST POP POP POP POP PUSH1 0x40 MLOAD RETURNDATASIZE PUSH1 0x0 DUP3 RETURNDATACOPY PUSH1 0x1F RETURNDATASIZE SWAP1 DUP2 ADD PUSH1 0x1F NOT AND DUP3 ADD PUSH1 0x40 MSTORE PUSH2 0x13CA SWAP2 SWAP1 DUP2 ADD SWAP1 PUSH2 0x3153 JUMP JUMPDEST POP PUSH1 0x0 PUSH2 0x13D6 DUP9 PUSH2 0x1F4E JUMP JUMPDEST DUP6 PUSH1 0x20 ADD MLOAD PUSH2 0x13E4 DUP6 PUSH2 0x204F JUMP JUMPDEST DUP8 MLOAD PUSH1 0x40 MLOAD PUSH2 0x13F9 SWAP5 SWAP4 SWAP3 SWAP2 SWAP1 PUSH1 0x20 ADD PUSH2 0x3525 JUMP JUMPDEST PUSH1 0x40 DUP1 MLOAD PUSH1 0x1F NOT DUP2 DUP5 SUB ADD DUP2 MSTORE SWAP2 DUP2 MSTORE PUSH1 0x0 DUP11 DUP2 MSTORE PUSH1 0xB PUSH1 0x20 MSTORE KECCAK256 SLOAD SWAP1 SWAP2 POP DUP2 SWAP1 PUSH2 0x1423 SWAP1 PUSH2 0x1F4E JUMP JUMPDEST PUSH2 0x142C DUP11 PUSH2 0x1F4E JUMP JUMPDEST DUP8 MLOAD PUSH1 0x40 DUP1 DUP11 ADD MLOAD SWAP1 MLOAD PUSH4 0x62480FD9 PUSH1 0xE0 SHL DUP2 MSTORE PUSH1 0x4 DUP2 ADD SWAP2 SWAP1 SWAP2 MSTORE PUSH1 0x1 PUSH1 0x1 PUSH1 0xA0 SHL SUB DUP12 AND SWAP1 PUSH4 0x62480FD9 SWAP1 PUSH1 0x24 ADD PUSH1 0x0 PUSH1 0x40 MLOAD DUP1 DUP4 SUB DUP2 DUP7 GAS STATICCALL ISZERO DUP1 ISZERO PUSH2 0x1479 JUMPI RETURNDATASIZE PUSH1 0x0 DUP1 RETURNDATACOPY RETURNDATASIZE PUSH1 0x0 REVERT JUMPDEST POP POP POP POP PUSH1 0x40 MLOAD RETURNDATASIZE PUSH1 0x0 DUP3 RETURNDATACOPY PUSH1 0x1F RETURNDATASIZE SWAP1 DUP2 ADD PUSH1 0x1F NOT AND DUP3 ADD PUSH1 0x40 MSTORE PUSH2 0x14A1 SWAP2 SWAP1 DUP2 ADD SWAP1 PUSH2 0x3153 JUMP JUMPDEST PUSH1 0x60 DUP11 ADD MLOAD PUSH1 0x40 MLOAD PUSH4 0x62480FD9 PUSH1 0xE0 SHL DUP2 MSTORE PUSH1 0x4 DUP2 ADD SWAP2 SWAP1 SWAP2 MSTORE PUSH1 0x1 PUSH1 0x1 PUSH1 0xA0 SHL SUB DUP13 AND SWAP1 PUSH4 0x62480FD9 SWAP1 PUSH1 0x24 ADD PUSH1 0x0 PUSH1 0x40 MLOAD DUP1 DUP4 SUB DUP2 DUP7 GAS STATICCALL ISZERO DUP1 ISZERO PUSH2 0x14EC JUMPI RETURNDATASIZE PUSH1 0x0 DUP1 RETURNDATACOPY RETURNDATASIZE PUSH1 0x0 REVERT JUMPDEST POP POP POP POP PUSH1 0x40 MLOAD RETURNDATASIZE PUSH1 0x0 DUP3 RETURNDATACOPY PUSH1 0x1F RETURNDATASIZE SWAP1 DUP2 ADD PUSH1 0x1F NOT AND DUP3 ADD PUSH1 0x40 MSTORE PUSH2 0x1514 SWAP2 SWAP1 DUP2 ADD SWAP1 PUSH2 0x3153 JUMP JUMPDEST DUP8 PUSH2 0x1540 JUMPI PUSH1 0x40 MLOAD DUP1 PUSH1 0x40 ADD PUSH1 0x40 MSTORE DUP1 PUSH1 0x9 DUP2 MSTORE PUSH1 0x20 ADD PUSH9 0x1393D5081590531251 PUSH1 0xBA SHL DUP2 MSTORE POP PUSH2 0x155F JUMP JUMPDEST PUSH1 0x40 MLOAD DUP1 PUSH1 0x40 ADD PUSH1 0x40 MSTORE DUP1 PUSH1 0x5 DUP2 MSTORE PUSH1 0x20 ADD PUSH5 0x1590531251 PUSH1 0xDA SHL DUP2 MSTORE POP JUMPDEST PUSH1 0x40 MLOAD PUSH1 0x20 ADD PUSH2 0x1575 SWAP8 SWAP7 SWAP6 SWAP5 SWAP4 SWAP3 SWAP2 SWAP1 PUSH2 0x3683 JUMP JUMPDEST PUSH1 0x40 MLOAD PUSH1 0x20 DUP2 DUP4 SUB SUB DUP2 MSTORE SWAP1 PUSH1 0x40 MSTORE SWAP1 POP PUSH2 0x158F DUP2 PUSH2 0x204F JUMP JUMPDEST PUSH1 0x40 MLOAD PUSH1 0x20 ADD PUSH2 0x159F SWAP2 SWAP1 PUSH2 0x3857 JUMP JUMPDEST PUSH1 0x40 MLOAD PUSH1 0x20 DUP2 DUP4 SUB SUB DUP2 MSTORE SWAP1 PUSH1 0x40 MSTORE SWAP7 POP POP POP POP POP POP POP SWAP2 SWAP1 POP JUMP JUMPDEST PUSH2 0x15E6 PUSH1 0x40 MLOAD DUP1 PUSH1 0x80 ADD PUSH1 0x40 MSTORE DUP1 PUSH1 0x60 DUP2 MSTORE PUSH1 0x20 ADD PUSH1 0x60 DUP2 MSTORE PUSH1 0x20 ADD PUSH1 0x0 DUP2 MSTORE PUSH1 0x20 ADD PUSH1 0x0 DUP2 MSTORE POP SWAP1 JUMP JUMPDEST PUSH1 0x0 DUP3 DUP2 MSTORE PUSH1 0xC PUSH1 0x20 MSTORE PUSH1 0x40 SWAP1 DUP2 SWAP1 KECCAK256 DUP2 MLOAD PUSH1 0x80 DUP2 ADD SWAP1 SWAP3 MSTORE DUP1 SLOAD DUP3 SWAP1 DUP3 SWAP1 PUSH2 0x160E SWAP1 PUSH2 0x3030 JUMP JUMPDEST DUP1 PUSH1 0x1F ADD PUSH1 0x20 DUP1 SWAP2 DIV MUL PUSH1 0x20 ADD PUSH1 0x40 MLOAD SWAP1 DUP2 ADD PUSH1 0x40 MSTORE DUP1 SWAP3 SWAP2 SWAP1 DUP2 DUP2 MSTORE PUSH1 0x20 ADD DUP3 DUP1 SLOAD PUSH2 0x163A SWAP1 PUSH2 0x3030 JUMP JUMPDEST DUP1 ISZERO PUSH2 0x1687 JUMPI DUP1 PUSH1 0x1F LT PUSH2 0x165C JUMPI PUSH2 0x100 DUP1 DUP4 SLOAD DIV MUL DUP4 MSTORE SWAP2 PUSH1 0x20 ADD SWAP2 PUSH2 0x1687 JUMP JUMPDEST DUP3 ADD SWAP2 SWAP1 PUSH1 0x0 MSTORE PUSH1 0x20 PUSH1 0x0 KECCAK256 SWAP1 JUMPDEST DUP2 SLOAD DUP2 MSTORE SWAP1 PUSH1 0x1 ADD SWAP1 PUSH1 0x20 ADD DUP1 DUP4 GT PUSH2 0x166A JUMPI DUP3 SWAP1 SUB PUSH1 0x1F AND DUP3 ADD SWAP2 JUMPDEST POP POP POP POP POP DUP2 MSTORE PUSH1 0x20 ADD PUSH1 0x1 DUP3 ADD DUP1 SLOAD PUSH2 0x16A0 SWAP1 PUSH2 0x3030 JUMP JUMPDEST DUP1 PUSH1 0x1F ADD PUSH1 0x20 DUP1 SWAP2 DIV MUL PUSH1 0x20 ADD PUSH1 0x40 MLOAD SWAP1 DUP2 ADD PUSH1 0x40 MSTORE DUP1 SWAP3 SWAP2 SWAP1 DUP2 DUP2 MSTORE PUSH1 0x20 ADD DUP3 DUP1 SLOAD PUSH2 0x16CC SWAP1 PUSH2 0x3030 JUMP JUMPDEST DUP1 ISZERO PUSH2 0x1719 JUMPI DUP1 PUSH1 0x1F LT PUSH2 0x16EE JUMPI PUSH2 0x100 DUP1 DUP4 SLOAD DIV MUL DUP4 MSTORE SWAP2 PUSH1 0x20 ADD SWAP2 PUSH2 0x1719 JUMP JUMPDEST DUP3 ADD SWAP2 SWAP1 PUSH1 0x0 MSTORE PUSH1 0x20 PUSH1 0x0 KECCAK256 SWAP1 JUMPDEST DUP2 SLOAD DUP2 MSTORE SWAP1 PUSH1 0x1 ADD SWAP1 PUSH1 0x20 ADD DUP1 DUP4 GT PUSH2 0x16FC JUMPI DUP3 SWAP1 SUB PUSH1 0x1F AND DUP3 ADD SWAP2 JUMPDEST POP POP POP POP POP DUP2 MSTORE PUSH1 0x20 ADD PUSH1 0x2 DUP3 ADD SLOAD DUP2 MSTORE PUSH1 0x20 ADD PUSH1 0x3 DUP3 ADD SLOAD DUP2 MSTORE POP POP SWAP1 POP SWAP2 SWAP1 POP JUMP JUMPDEST PUSH1 0x10 SLOAD PUSH1 0x40 MLOAD PUSH4 0x3E10510B PUSH1 0xE0 SHL DUP2 MSTORE PUSH1 0x0 SWAP2 PUSH1 0x1 PUSH1 0x1 PUSH1 0xA0 SHL SUB AND SWAP1 PUSH4 0x2D888869 SWAP1 DUP3 SWAP1 PUSH4 0x3E10510B SWAP1 PUSH2 0x1774 SWAP1 PUSH1 0x4 ADD PUSH2 0x30CE JUMP JUMPDEST PUSH1 0x0 PUSH1 0x40 MLOAD DUP1 DUP4 SUB DUP2 DUP7 GAS STATICCALL ISZERO DUP1 ISZERO PUSH2 0x1791 JUMPI RETURNDATASIZE PUSH1 0x0 DUP1 RETURNDATACOPY RETURNDATASIZE PUSH1 0x0 REVERT JUMPDEST POP POP POP POP PUSH1 0x40 MLOAD RETURNDATASIZE PUSH1 0x0 DUP3 RETURNDATACOPY PUSH1 0x1F RETURNDATASIZE SWAP1 DUP2 ADD PUSH1 0x1F NOT AND DUP3 ADD PUSH1 0x40 MSTORE PUSH2 0x17B9 SWAP2 SWAP1 DUP2 ADD SWAP1 PUSH2 0x3153 JUMP JUMPDEST PUSH1 0x40 MLOAD DUP3 PUSH4 0xFFFFFFFF AND PUSH1 0xE0 SHL DUP2 MSTORE PUSH1 0x4 ADD PUSH2 0x17D5 SWAP2 SWAP1 PUSH2 0x2AD8 JUMP JUMPDEST PUSH1 0x20 PUSH1 0x40 MLOAD DUP1 DUP4 SUB DUP2 DUP7 GAS STATICCALL ISZERO DUP1 ISZERO PUSH2 0x17F2 JUMPI RETURNDATASIZE PUSH1 0x0 DUP1 RETURNDATACOPY RETURNDATASIZE PUSH1 0x0 REVERT JUMPDEST POP POP POP POP PUSH1 0x40 MLOAD RETURNDATASIZE PUSH1 0x1F NOT PUSH1 0x1F DUP3 ADD AND DUP3 ADD DUP1 PUSH1 0x40 MSTORE POP DUP2 ADD SWAP1 PUSH2 0x1816 SWAP2 SWAP1 PUSH2 0x319C JUMP JUMPDEST PUSH1 0x40 MLOAD PUSH4 0x2FB1E45 PUSH1 0xE1 SHL DUP2 MSTORE PUSH1 0x4 DUP2 ADD DUP9 SWAP1 MSTORE SWAP1 SWAP2 POP PUSH1 0x1 PUSH1 0x1 PUSH1 0xA0 SHL SUB DUP3 AND SWAP1 PUSH4 0x5F63C8A SWAP1 PUSH1 0x24 ADD PUSH1 0x20 PUSH1 0x40 MLOAD DUP1 DUP4 SUB DUP2 DUP7 GAS STATICCALL ISZERO DUP1 ISZERO PUSH2 0x185E JUMPI RETURNDATASIZE PUSH1 0x0 DUP1 RETURNDATACOPY RETURNDATASIZE PUSH1 0x0 REVERT JUMPDEST POP POP POP POP PUSH1 0x40 MLOAD RETURNDATASIZE PUSH1 0x1F NOT PUSH1 0x1F DUP3 ADD AND DUP3 ADD DUP1 PUSH1 0x40 MSTORE POP DUP2 ADD SWAP1 PUSH2 0x1882 SWAP2 SWAP1 PUSH2 0x319C JUMP JUMPDEST PUSH1 0x1 PUSH1 0x1 PUSH1 0xA0 SHL SUB AND CALLER PUSH1 0x1 PUSH1 0x1 PUSH1 0xA0 SHL SUB AND EQ PUSH2 0x18D2 JUMPI PUSH1 0x40 MLOAD PUSH3 0x461BCD PUSH1 0xE5 SHL DUP2 MSTORE PUSH1 0x20 PUSH1 0x4 DUP3 ADD MSTORE PUSH1 0xD PUSH1 0x24 DUP3 ADD MSTORE PUSH13 0x37B7363C9037B832B930BA37B9 PUSH1 0x99 SHL PUSH1 0x44 DUP3 ADD MSTORE PUSH1 0x64 ADD PUSH2 0x48B JUMP JUMPDEST PUSH2 0xB43 DUP8 DUP8 DUP8 DUP8 DUP8 DUP8 PUSH2 0x1C26 JUMP JUMPDEST PUSH1 0x0 PUSH1 0x1 PUSH1 0x1 PUSH1 0xE0 SHL SUB NOT DUP3 AND PUSH4 0x80AC58CD PUSH1 0xE0 SHL EQ DUP1 PUSH2 0x1911 JUMPI POP PUSH1 0x1 PUSH1 0x1 PUSH1 0xE0 SHL SUB NOT DUP3 AND PUSH4 0x5B5E139F PUSH1 0xE0 SHL EQ JUMPDEST DUP1 PUSH2 0x358 JUMPI POP PUSH4 0x1FFC9A7 PUSH1 0xE0 SHL PUSH1 0x1 PUSH1 0x1 PUSH1 0xE0 SHL SUB NOT DUP4 AND EQ PUSH2 0x358 JUMP JUMPDEST PUSH1 0x0 DUP2 DUP2 MSTORE PUSH1 0x2 PUSH1 0x20 MSTORE PUSH1 0x40 SWAP1 KECCAK256 SLOAD PUSH1 0x1 PUSH1 0x1 PUSH1 0xA0 SHL SUB AND PUSH2 0x198F JUMPI PUSH1 0x40 MLOAD PUSH3 0x461BCD PUSH1 0xE5 SHL DUP2 MSTORE PUSH1 0x20 PUSH1 0x4 DUP3 ADD MSTORE PUSH1 0x18 PUSH1 0x24 DUP3 ADD MSTORE PUSH24 0x115490CDCC8C4E881A5B9D985B1A59081D1BDAD95B881251 PUSH1 0x42 SHL PUSH1 0x44 DUP3 ADD MSTORE PUSH1 0x64 ADD PUSH2 0x48B JUMP JUMPDEST POP JUMP JUMPDEST PUSH1 0x0 DUP2 DUP2 MSTORE PUSH1 0x4 PUSH1 0x20 MSTORE PUSH1 0x40 SWAP1 KECCAK256 DUP1 SLOAD PUSH1 0x1 PUSH1 0x1 PUSH1 0xA0 SHL SUB NOT AND PUSH1 0x1 PUSH1 0x1 PUSH1 0xA0 SHL SUB DUP5 AND SWAP1 DUP2 OR SWAP1 SWAP2 SSTORE DUP2 SWAP1 PUSH2 0x19C7 DUP3 PUSH2 0x8A1 JUMP JUMPDEST PUSH1 0x1 PUSH1 0x1 PUSH1 0xA0 SHL SUB AND PUSH32 0x8C5BE1E5EBEC7D5BD14F71427D1E84F3DD0314C0F7B2291E5B200AC8C7C3B925 PUSH1 0x40 MLOAD PUSH1 0x40 MLOAD DUP1 SWAP2 SUB SWAP1 LOG4 POP POP JUMP JUMPDEST PUSH1 0x0 DUP1 PUSH2 0x1A0C DUP4 PUSH2 0x8A1 JUMP JUMPDEST SWAP1 POP DUP1 PUSH1 0x1 PUSH1 0x1 PUSH1 0xA0 SHL SUB AND DUP5 PUSH1 0x1 PUSH1 0x1 PUSH1 0xA0 SHL SUB AND EQ DUP1 PUSH2 0x1A53 JUMPI POP PUSH1 0x1 PUSH1 0x1 PUSH1 0xA0 SHL SUB DUP1 DUP3 AND PUSH1 0x0 SWAP1 DUP2 MSTORE PUSH1 0x5 PUSH1 0x20 SWAP1 DUP2 MSTORE PUSH1 0x40 DUP1 DUP4 KECCAK256 SWAP4 DUP9 AND DUP4 MSTORE SWAP3 SWAP1 MSTORE KECCAK256 SLOAD PUSH1 0xFF AND JUMPDEST DUP1 PUSH2 0x1A77 JUMPI POP DUP4 PUSH1 0x1 PUSH1 0x1 PUSH1 0xA0 SHL SUB AND PUSH2 0x1A6C DUP5 PUSH2 0x3F0 JUMP JUMPDEST PUSH1 0x1 PUSH1 0x1 PUSH1 0xA0 SHL SUB AND EQ JUMPDEST SWAP5 SWAP4 POP POP POP POP JUMP JUMPDEST DUP3 PUSH1 0x1 PUSH1 0x1 PUSH1 0xA0 SHL SUB AND PUSH2 0x1A92 DUP3 PUSH2 0x8A1 JUMP JUMPDEST PUSH1 0x1 PUSH1 0x1 PUSH1 0xA0 SHL SUB AND EQ PUSH2 0x1AF6 JUMPI PUSH1 0x40 MLOAD PUSH3 0x461BCD PUSH1 0xE5 SHL DUP2 MSTORE PUSH1 0x20 PUSH1 0x4 DUP3 ADD MSTORE PUSH1 0x25 PUSH1 0x24 DUP3 ADD MSTORE PUSH32 0x4552433732313A207472616E736665722066726F6D20696E636F727265637420 PUSH1 0x44 DUP3 ADD MSTORE PUSH5 0x37BBB732B9 PUSH1 0xD9 SHL PUSH1 0x64 DUP3 ADD MSTORE PUSH1 0x84 ADD PUSH2 0x48B JUMP JUMPDEST PUSH1 0x1 PUSH1 0x1 PUSH1 0xA0 SHL SUB DUP3 AND PUSH2 0x1B58 JUMPI PUSH1 0x40 MLOAD PUSH3 0x461BCD PUSH1 0xE5 SHL DUP2 MSTORE PUSH1 0x20 PUSH1 0x4 DUP3 ADD MSTORE PUSH1 0x24 DUP1 DUP3 ADD MSTORE PUSH32 0x4552433732313A207472616E7366657220746F20746865207A65726F20616464 PUSH1 0x44 DUP3 ADD MSTORE PUSH4 0x72657373 PUSH1 0xE0 SHL PUSH1 0x64 DUP3 ADD MSTORE PUSH1 0x84 ADD PUSH2 0x48B JUMP JUMPDEST PUSH2 0x1B63 DUP4 DUP4 DUP4 PUSH2 0x21A2 JUMP JUMPDEST PUSH2 0x1B6E PUSH1 0x0 DUP3 PUSH2 0x1992 JUMP JUMPDEST PUSH1 0x1 PUSH1 0x1 PUSH1 0xA0 SHL SUB DUP4 AND PUSH1 0x0 SWAP1 DUP2 MSTORE PUSH1 0x3 PUSH1 0x20 MSTORE PUSH1 0x40 DUP2 KECCAK256 DUP1 SLOAD PUSH1 0x1 SWAP3 SWAP1 PUSH2 0x1B97 SWAP1 DUP5 SWAP1 PUSH2 0x389C JUMP JUMPDEST SWAP1 SWAP2 SSTORE POP POP PUSH1 0x1 PUSH1 0x1 PUSH1 0xA0 SHL SUB DUP3 AND PUSH1 0x0 SWAP1 DUP2 MSTORE PUSH1 0x3 PUSH1 0x20 MSTORE PUSH1 0x40 DUP2 KECCAK256 DUP1 SLOAD PUSH1 0x1 SWAP3 SWAP1 PUSH2 0x1BC5 SWAP1 DUP5 SWAP1 PUSH2 0x38B3 JUMP JUMPDEST SWAP1 SWAP2 SSTORE POP POP PUSH1 0x0 DUP2 DUP2 MSTORE PUSH1 0x2 PUSH1 0x20 MSTORE PUSH1 0x40 DUP1 DUP3 KECCAK256 DUP1 SLOAD PUSH1 0x1 PUSH1 0x1 PUSH1 0xA0 SHL SUB NOT AND PUSH1 0x1 PUSH1 0x1 PUSH1 0xA0 SHL SUB DUP7 DUP2 AND SWAP2 DUP3 OR SWAP1 SWAP3 SSTORE SWAP2 MLOAD DUP5 SWAP4 SWAP2 DUP8 AND SWAP2 PUSH32 0xDDF252AD1BE2C89B69C2B068FC378DAA952BA7F163C4A11628F55A4DF523B3EF SWAP2 LOG4 POP POP POP JUMP JUMPDEST PUSH1 0x0 DUP5 DUP5 DUP5 DUP5 PUSH1 0x40 MLOAD PUSH1 0x20 ADD PUSH2 0x1C3F SWAP5 SWAP4 SWAP3 SWAP2 SWAP1 PUSH2 0x3205 JUMP JUMPDEST PUSH1 0x40 DUP1 MLOAD PUSH1 0x1F NOT DUP2 DUP5 SUB ADD DUP2 MSTORE SWAP2 DUP2 MSTORE DUP2 MLOAD PUSH1 0x20 SWAP3 DUP4 ADD KECCAK256 PUSH1 0x0 DUP2 DUP2 MSTORE PUSH1 0xD SWAP1 SWAP4 MSTORE SWAP2 KECCAK256 SLOAD SWAP1 SWAP2 POP PUSH1 0xFF AND DUP1 PUSH2 0x1C98 JUMPI POP PUSH1 0x1 PUSH1 0x1 PUSH1 0xA0 SHL SUB DUP8 AND PUSH1 0x0 SWAP1 DUP2 MSTORE PUSH1 0xF PUSH1 0x20 SWAP1 DUP2 MSTORE PUSH1 0x40 DUP1 DUP4 KECCAK256 DUP5 DUP5 MSTORE SWAP1 SWAP2 MSTORE SWAP1 KECCAK256 SLOAD PUSH1 0xFF AND JUMPDEST PUSH2 0x1CE4 JUMPI PUSH1 0x40 MLOAD PUSH3 0x461BCD PUSH1 0xE5 SHL DUP2 MSTORE PUSH1 0x20 PUSH1 0x4 DUP3 ADD MSTORE PUSH1 0x19 PUSH1 0x24 DUP3 ADD MSTORE PUSH32 0x41646472657373206E6F7420696E20616C6C6F77206C69737400000000000000 PUSH1 0x44 DUP3 ADD MSTORE PUSH1 0x64 ADD PUSH2 0x48B JUMP JUMPDEST PUSH1 0x0 PUSH2 0x1CEF PUSH1 0x8 SLOAD SWAP1 JUMP JUMPDEST PUSH1 0x0 DUP2 DUP2 MSTORE PUSH1 0xB PUSH1 0x20 SWAP1 DUP2 MSTORE PUSH1 0x40 SWAP2 DUP3 SWAP1 KECCAK256 DUP11 SWAP1 SSTORE DUP2 MLOAD PUSH1 0xA0 PUSH1 0x1F DUP11 ADD DUP4 SWAP1 DIV SWAP1 SWAP3 MUL DUP2 ADD DUP3 ADD SWAP1 SWAP3 MSTORE PUSH1 0x80 DUP3 ADD DUP9 DUP2 MSTORE SWAP3 SWAP4 POP SWAP1 SWAP2 DUP3 SWAP2 DUP10 SWAP1 DUP10 SWAP1 DUP2 SWAP1 DUP6 ADD DUP4 DUP3 DUP1 DUP3 DUP5 CALLDATACOPY PUSH1 0x0 SWAP3 ADD SWAP2 SWAP1 SWAP2 MSTORE POP POP POP SWAP1 DUP3 MSTORE POP PUSH1 0x40 DUP1 MLOAD PUSH1 0x20 PUSH1 0x1F DUP9 ADD DUP2 SWAP1 DIV DUP2 MUL DUP3 ADD DUP2 ADD SWAP1 SWAP3 MSTORE DUP7 DUP2 MSTORE SWAP2 DUP2 ADD SWAP2 SWAP1 DUP8 SWAP1 DUP8 SWAP1 DUP2 SWAP1 DUP5 ADD DUP4 DUP3 DUP1 DUP3 DUP5 CALLDATACOPY PUSH1 0x0 SWAP3 ADD DUP3 SWAP1 MSTORE POP SWAP4 DUP6 MSTORE POP POP TIMESTAMP PUSH1 0x20 DUP1 DUP6 ADD SWAP2 SWAP1 SWAP2 MSTORE DUP7 DUP4 MSTORE PUSH1 0xE DUP2 MSTORE PUSH1 0x40 DUP1 DUP5 KECCAK256 SLOAD SWAP5 DUP2 ADD SWAP5 SWAP1 SWAP5 MSTORE DUP6 DUP4 MSTORE PUSH1 0xC DUP2 MSTORE SWAP3 SWAP1 SWAP2 KECCAK256 DUP4 MLOAD DUP1 MLOAD SWAP2 SWAP4 PUSH2 0x1DBB SWAP4 POP DUP5 SWAP3 SWAP2 ADD SWAP1 PUSH2 0x29AD JUMP JUMPDEST POP PUSH1 0x20 DUP3 DUP2 ADD MLOAD DUP1 MLOAD PUSH2 0x1DD4 SWAP3 PUSH1 0x1 DUP6 ADD SWAP3 ADD SWAP1 PUSH2 0x29AD JUMP JUMPDEST POP PUSH1 0x40 DUP3 DUP2 ADD MLOAD PUSH1 0x2 DUP4 ADD SSTORE PUSH1 0x60 SWAP1 SWAP3 ADD MLOAD PUSH1 0x3 SWAP1 SWAP2 ADD SSTORE PUSH1 0x0 DUP9 DUP2 MSTORE PUSH1 0xA PUSH1 0x20 SWAP1 DUP2 MSTORE SWAP2 DUP2 KECCAK256 DUP1 SLOAD PUSH1 0x1 DUP2 ADD DUP3 SSTORE SWAP1 DUP3 MSTORE SWAP2 SWAP1 KECCAK256 ADD DUP2 SWAP1 SSTORE PUSH2 0x1E17 DUP9 DUP3 PUSH2 0x2516 JUMP JUMPDEST POP PUSH1 0x1 PUSH1 0x1 PUSH1 0xA0 SHL SUB SWAP1 SWAP7 AND PUSH1 0x0 SWAP1 DUP2 MSTORE PUSH1 0xF PUSH1 0x20 SWAP1 DUP2 MSTORE PUSH1 0x40 DUP1 DUP4 KECCAK256 SWAP9 DUP4 MSTORE SWAP8 SWAP1 MSTORE SWAP6 SWAP1 SWAP6 KECCAK256 DUP1 SLOAD PUSH1 0xFF NOT AND SWAP1 SSTORE POP POP POP POP POP JUMP JUMPDEST DUP2 PUSH1 0x1 PUSH1 0x1 PUSH1 0xA0 SHL SUB AND DUP4 PUSH1 0x1 PUSH1 0x1 PUSH1 0xA0 SHL SUB AND SUB PUSH2 0x1EAE JUMPI PUSH1 0x40 MLOAD PUSH3 0x461BCD PUSH1 0xE5 SHL DUP2 MSTORE PUSH1 0x20 PUSH1 0x4 DUP3 ADD MSTORE PUSH1 0x19 PUSH1 0x24 DUP3 ADD MSTORE PUSH32 0x4552433732313A20617070726F766520746F2063616C6C657200000000000000 PUSH1 0x44 DUP3 ADD MSTORE PUSH1 0x64 ADD PUSH2 0x48B JUMP JUMPDEST PUSH1 0x1 PUSH1 0x1 PUSH1 0xA0 SHL SUB DUP4 DUP2 AND PUSH1 0x0 DUP2 DUP2 MSTORE PUSH1 0x5 PUSH1 0x20 SWAP1 DUP2 MSTORE PUSH1 0x40 DUP1 DUP4 KECCAK256 SWAP5 DUP8 AND DUP1 DUP5 MSTORE SWAP5 DUP3 MSTORE SWAP2 DUP3 SWAP1 KECCAK256 DUP1 SLOAD PUSH1 0xFF NOT AND DUP7 ISZERO ISZERO SWAP1 DUP2 OR SWAP1 SWAP2 SSTORE SWAP2 MLOAD SWAP2 DUP3 MSTORE PUSH32 0x17307EAB39AB6107E8899845AD3D59BD9653F200F220920489CA2B5937696C31 SWAP2 ADD PUSH1 0x40 MLOAD DUP1 SWAP2 SUB SWAP1 LOG3 POP POP POP JUMP JUMPDEST PUSH2 0x1F26 DUP5 DUP5 DUP5 PUSH2 0x1A7F JUMP JUMPDEST PUSH2 0x1F32 DUP5 DUP5 DUP5 DUP5 PUSH2 0x2664 JUMP JUMPDEST PUSH2 0xB7E JUMPI PUSH1 0x40 MLOAD PUSH3 0x461BCD PUSH1 0xE5 SHL DUP2 MSTORE PUSH1 0x4 ADD PUSH2 0x48B SWAP1 PUSH2 0x38CB JUMP JUMPDEST PUSH1 0x60 DUP2 PUSH1 0x0 SUB PUSH2 0x1F75 JUMPI POP POP PUSH1 0x40 DUP1 MLOAD DUP1 DUP3 ADD SWAP1 SWAP2 MSTORE PUSH1 0x1 DUP2 MSTORE PUSH1 0x3 PUSH1 0xFC SHL PUSH1 0x20 DUP3 ADD MSTORE SWAP1 JUMP JUMPDEST DUP2 PUSH1 0x0 JUMPDEST DUP2 ISZERO PUSH2 0x1F9F JUMPI DUP1 PUSH2 0x1F89 DUP2 PUSH2 0x323D JUMP JUMPDEST SWAP2 POP PUSH2 0x1F98 SWAP1 POP PUSH1 0xA DUP4 PUSH2 0x3933 JUMP JUMPDEST SWAP2 POP PUSH2 0x1F79 JUMP JUMPDEST PUSH1 0x0 DUP2 PUSH8 0xFFFFFFFFFFFFFFFF DUP2 GT ISZERO PUSH2 0x1FBA JUMPI PUSH2 0x1FBA PUSH2 0x2CF1 JUMP JUMPDEST PUSH1 0x40 MLOAD SWAP1 DUP1 DUP3 MSTORE DUP1 PUSH1 0x1F ADD PUSH1 0x1F NOT AND PUSH1 0x20 ADD DUP3 ADD PUSH1 0x40 MSTORE DUP1 ISZERO PUSH2 0x1FE4 JUMPI PUSH1 0x20 DUP3 ADD DUP2 DUP1 CALLDATASIZE DUP4 CALLDATACOPY ADD SWAP1 POP JUMPDEST POP SWAP1 POP JUMPDEST DUP5 ISZERO PUSH2 0x1A77 JUMPI PUSH2 0x1FF9 PUSH1 0x1 DUP4 PUSH2 0x389C JUMP JUMPDEST SWAP2 POP PUSH2 0x2006 PUSH1 0xA DUP7 PUSH2 0x3947 JUMP JUMPDEST PUSH2 0x2011 SWAP1 PUSH1 0x30 PUSH2 0x38B3 JUMP JUMPDEST PUSH1 0xF8 SHL DUP2 DUP4 DUP2 MLOAD DUP2 LT PUSH2 0x2026 JUMPI PUSH2 0x2026 PUSH2 0x30B8 JUMP JUMPDEST PUSH1 0x20 ADD ADD SWAP1 PUSH1 0x1 PUSH1 0x1 PUSH1 0xF8 SHL SUB NOT AND SWAP1 DUP2 PUSH1 0x0 BYTE SWAP1 MSTORE8 POP PUSH2 0x2048 PUSH1 0xA DUP7 PUSH2 0x3933 JUMP JUMPDEST SWAP5 POP PUSH2 0x1FE8 JUMP JUMPDEST PUSH1 0x60 DUP2 MLOAD PUSH1 0x0 SUB PUSH2 0x206E JUMPI POP POP PUSH1 0x40 DUP1 MLOAD PUSH1 0x20 DUP2 ADD SWAP1 SWAP2 MSTORE PUSH1 0x0 DUP2 MSTORE SWAP1 JUMP JUMPDEST PUSH1 0x0 PUSH1 0x40 MLOAD DUP1 PUSH1 0x60 ADD PUSH1 0x40 MSTORE DUP1 PUSH1 0x40 DUP2 MSTORE PUSH1 0x20 ADD PUSH2 0x39EB PUSH1 0x40 SWAP2 CODECOPY SWAP1 POP PUSH1 0x0 PUSH1 0x3 DUP5 MLOAD PUSH1 0x2 PUSH2 0x209D SWAP2 SWAP1 PUSH2 0x38B3 JUMP JUMPDEST PUSH2 0x20A7 SWAP2 SWAP1 PUSH2 0x3933 JUMP JUMPDEST PUSH2 0x20B2 SWAP1 PUSH1 0x4 PUSH2 0x395B JUMP JUMPDEST PUSH8 0xFFFFFFFFFFFFFFFF DUP2 GT ISZERO PUSH2 0x20CA JUMPI PUSH2 0x20CA PUSH2 0x2CF1 JUMP JUMPDEST PUSH1 0x40 MLOAD SWAP1 DUP1 DUP3 MSTORE DUP1 PUSH1 0x1F ADD PUSH1 0x1F NOT AND PUSH1 0x20 ADD DUP3 ADD PUSH1 0x40 MSTORE DUP1 ISZERO PUSH2 0x20F4 JUMPI PUSH1 0x20 DUP3 ADD DUP2 DUP1 CALLDATASIZE DUP4 CALLDATACOPY ADD SWAP1 POP JUMPDEST POP SWAP1 POP PUSH1 0x1 DUP3 ADD PUSH1 0x20 DUP3 ADD DUP6 DUP7 MLOAD DUP8 ADD JUMPDEST DUP1 DUP3 LT ISZERO PUSH2 0x2160 JUMPI PUSH1 0x3 DUP3 ADD SWAP2 POP DUP2 MLOAD PUSH1 0x3F DUP2 PUSH1 0x12 SHR AND DUP6 ADD MLOAD DUP5 MSTORE8 PUSH1 0x1 DUP5 ADD SWAP4 POP PUSH1 0x3F DUP2 PUSH1 0xC SHR AND DUP6 ADD MLOAD DUP5 MSTORE8 PUSH1 0x1 DUP5 ADD SWAP4 POP PUSH1 0x3F DUP2 PUSH1 0x6 SHR AND DUP6 ADD MLOAD DUP5 MSTORE8 PUSH1 0x1 DUP5 ADD SWAP4 POP PUSH1 0x3F DUP2 AND DUP6 ADD MLOAD DUP5 MSTORE8 POP PUSH1 0x1 DUP4 ADD SWAP3 POP PUSH2 0x2105 JUMP JUMPDEST POP POP PUSH1 0x3 DUP7 MLOAD MOD PUSH1 0x1 DUP2 EQ PUSH2 0x217C JUMPI PUSH1 0x2 DUP2 EQ PUSH2 0x218F JUMPI PUSH2 0x2197 JUMP JUMPDEST PUSH1 0x3D PUSH1 0x1 DUP4 SUB MSTORE8 PUSH1 0x3D PUSH1 0x2 DUP4 SUB MSTORE8 PUSH2 0x2197 JUMP JUMPDEST PUSH1 0x3D PUSH1 0x1 DUP4 SUB MSTORE8 JUMPDEST POP SWAP2 SWAP6 SWAP5 POP POP POP POP POP JUMP JUMPDEST PUSH1 0x1 PUSH1 0x1 PUSH1 0xA0 SHL SUB DUP3 AND PUSH2 0x21F8 JUMPI PUSH1 0x40 MLOAD PUSH3 0x461BCD PUSH1 0xE5 SHL DUP2 MSTORE PUSH1 0x20 PUSH1 0x4 DUP3 ADD MSTORE PUSH1 0x1A PUSH1 0x24 DUP3 ADD MSTORE PUSH32 0x53425420746F6B656E2063616E6E6F74206265206275726E6564000000000000 PUSH1 0x44 DUP3 ADD MSTORE PUSH1 0x64 ADD PUSH2 0x48B JUMP JUMPDEST PUSH1 0x10 SLOAD PUSH1 0x40 MLOAD PUSH4 0x3E10510B PUSH1 0xE0 SHL DUP2 MSTORE PUSH1 0x0 SWAP2 PUSH1 0x1 PUSH1 0x1 PUSH1 0xA0 SHL SUB AND SWAP1 PUSH4 0x2D888869 SWAP1 DUP3 SWAP1 PUSH4 0x3E10510B SWAP1 PUSH2 0x222F SWAP1 PUSH1 0x4 ADD PUSH2 0x30CE JUMP JUMPDEST PUSH1 0x0 PUSH1 0x40 MLOAD DUP1 DUP4 SUB DUP2 DUP7 GAS STATICCALL ISZERO DUP1 ISZERO PUSH2 0x224C JUMPI RETURNDATASIZE PUSH1 0x0 DUP1 RETURNDATACOPY RETURNDATASIZE PUSH1 0x0 REVERT JUMPDEST POP POP POP POP PUSH1 0x40 MLOAD RETURNDATASIZE PUSH1 0x0 DUP3 RETURNDATACOPY PUSH1 0x1F RETURNDATASIZE SWAP1 DUP2 ADD PUSH1 0x1F NOT AND DUP3 ADD PUSH1 0x40 MSTORE PUSH2 0x2274 SWAP2 SWAP1 DUP2 ADD SWAP1 PUSH2 0x3153 JUMP JUMPDEST PUSH1 0x40 MLOAD DUP3 PUSH4 0xFFFFFFFF AND PUSH1 0xE0 SHL DUP2 MSTORE PUSH1 0x4 ADD PUSH2 0x2290 SWAP2 SWAP1 PUSH2 0x2AD8 JUMP JUMPDEST PUSH1 0x20 PUSH1 0x40 MLOAD DUP1 DUP4 SUB DUP2 DUP7 GAS STATICCALL ISZERO DUP1 ISZERO PUSH2 0x22AD JUMPI RETURNDATASIZE PUSH1 0x0 DUP1 RETURNDATACOPY RETURNDATASIZE PUSH1 0x0 REVERT JUMPDEST POP POP POP POP PUSH1 0x40 MLOAD RETURNDATASIZE PUSH1 0x1F NOT PUSH1 0x1F DUP3 ADD AND DUP3 ADD DUP1 PUSH1 0x40 MSTORE POP DUP2 ADD SWAP1 PUSH2 0x22D1 SWAP2 SWAP1 PUSH2 0x319C JUMP JUMPDEST SWAP1 POP PUSH1 0x1 PUSH1 0x1 PUSH1 0xA0 SHL SUB DUP5 AND PUSH2 0x23B4 JUMPI PUSH1 0x0 DUP3 DUP2 MSTORE PUSH1 0xB PUSH1 0x20 MSTORE PUSH1 0x40 SWAP1 DUP2 SWAP1 KECCAK256 SLOAD SWAP1 MLOAD PUSH4 0x5D786A4F PUSH1 0xE1 SHL DUP2 MSTORE PUSH1 0x4 DUP2 ADD SWAP2 SWAP1 SWAP2 MSTORE PUSH1 0x1 PUSH1 0x1 PUSH1 0xA0 SHL SUB DUP5 DUP2 AND PUSH1 0x24 DUP4 ADD MSTORE DUP3 AND SWAP1 PUSH4 0xBAF0D49E SWAP1 PUSH1 0x44 ADD PUSH1 0x20 PUSH1 0x40 MLOAD DUP1 DUP4 SUB DUP2 DUP7 GAS STATICCALL ISZERO DUP1 ISZERO PUSH2 0x233F JUMPI RETURNDATASIZE PUSH1 0x0 DUP1 RETURNDATACOPY RETURNDATASIZE PUSH1 0x0 REVERT JUMPDEST POP POP POP POP PUSH1 0x40 MLOAD RETURNDATASIZE PUSH1 0x1F NOT PUSH1 0x1F DUP3 ADD AND DUP3 ADD DUP1 PUSH1 0x40 MSTORE POP DUP2 ADD SWAP1 PUSH2 0x2363 SWAP2 SWAP1 PUSH2 0x31B9 JUMP JUMPDEST PUSH2 0x23AF JUMPI PUSH1 0x40 MLOAD PUSH3 0x461BCD PUSH1 0xE5 SHL DUP2 MSTORE PUSH1 0x20 PUSH1 0x4 DUP3 ADD DUP2 SWAP1 MSTORE PUSH1 0x24 DUP3 ADD MSTORE PUSH32 0x53425420746F6B656E20746F2061646472657373206E6F7420616C6C6F776564 PUSH1 0x44 DUP3 ADD MSTORE PUSH1 0x64 ADD PUSH2 0x48B JUMP JUMPDEST PUSH2 0x250B JUMP JUMPDEST PUSH1 0x0 DUP3 DUP2 MSTORE PUSH1 0xB PUSH1 0x20 MSTORE PUSH1 0x40 SWAP1 DUP2 SWAP1 KECCAK256 SLOAD SWAP1 MLOAD PUSH4 0x5D786A4F PUSH1 0xE1 SHL DUP2 MSTORE PUSH1 0x4 DUP2 ADD SWAP2 SWAP1 SWAP2 MSTORE PUSH1 0x1 PUSH1 0x1 PUSH1 0xA0 SHL SUB DUP6 DUP2 AND PUSH1 0x24 DUP4 ADD MSTORE DUP3 AND SWAP1 PUSH4 0xBAF0D49E SWAP1 PUSH1 0x44 ADD PUSH1 0x20 PUSH1 0x40 MLOAD DUP1 DUP4 SUB DUP2 DUP7 GAS STATICCALL ISZERO DUP1 ISZERO PUSH2 0x2412 JUMPI RETURNDATASIZE PUSH1 0x0 DUP1 RETURNDATACOPY RETURNDATASIZE PUSH1 0x0 REVERT JUMPDEST POP POP POP POP PUSH1 0x40 MLOAD RETURNDATASIZE PUSH1 0x1F NOT PUSH1 0x1F DUP3 ADD AND DUP3 ADD DUP1 PUSH1 0x40 MSTORE POP DUP2 ADD SWAP1 PUSH2 0x2436 SWAP2 SWAP1 PUSH2 0x31B9 JUMP JUMPDEST DUP1 ISZERO PUSH2 0x24BF JUMPI POP PUSH1 0x0 DUP3 DUP2 MSTORE PUSH1 0xB PUSH1 0x20 MSTORE PUSH1 0x40 SWAP1 DUP2 SWAP1 KECCAK256 SLOAD SWAP1 MLOAD PUSH4 0x5D786A4F PUSH1 0xE1 SHL DUP2 MSTORE PUSH1 0x4 DUP2 ADD SWAP2 SWAP1 SWAP2 MSTORE PUSH1 0x1 PUSH1 0x1 PUSH1 0xA0 SHL SUB DUP5 DUP2 AND PUSH1 0x24 DUP4 ADD MSTORE DUP3 AND SWAP1 PUSH4 0xBAF0D49E SWAP1 PUSH1 0x44 ADD PUSH1 0x20 PUSH1 0x40 MLOAD DUP1 DUP4 SUB DUP2 DUP7 GAS STATICCALL ISZERO DUP1 ISZERO PUSH2 0x249B JUMPI RETURNDATASIZE PUSH1 0x0 DUP1 RETURNDATACOPY RETURNDATASIZE PUSH1 0x0 REVERT JUMPDEST POP POP POP POP PUSH1 0x40 MLOAD RETURNDATASIZE PUSH1 0x1F NOT PUSH1 0x1F DUP3 ADD AND DUP3 ADD DUP1 PUSH1 0x40 MSTORE POP DUP2 ADD SWAP1 PUSH2 0x24BF SWAP2 SWAP1 PUSH2 0x31B9 JUMP JUMPDEST PUSH2 0x250B JUMPI PUSH1 0x40 MLOAD PUSH3 0x461BCD PUSH1 0xE5 SHL DUP2 MSTORE PUSH1 0x20 PUSH1 0x4 DUP3 ADD MSTORE PUSH1 0x1B PUSH1 0x24 DUP3 ADD MSTORE PUSH32 0x53425420746F6B656E2063616E6E6F74207472616E7366657265640000000000 PUSH1 0x44 DUP3 ADD MSTORE PUSH1 0x64 ADD PUSH2 0x48B JUMP JUMPDEST PUSH2 0xB7E DUP5 DUP5 DUP5 PUSH2 0x2765 JUMP JUMPDEST PUSH1 0x1 PUSH1 0x1 PUSH1 0xA0 SHL SUB DUP3 AND PUSH2 0x256C JUMPI PUSH1 0x40 MLOAD PUSH3 0x461BCD PUSH1 0xE5 SHL DUP2 MSTORE PUSH1 0x20 PUSH1 0x4 DUP3 ADD DUP2 SWAP1 MSTORE PUSH1 0x24 DUP3 ADD MSTORE PUSH32 0x4552433732313A206D696E7420746F20746865207A65726F2061646472657373 PUSH1 0x44 DUP3 ADD MSTORE PUSH1 0x64 ADD PUSH2 0x48B JUMP JUMPDEST PUSH1 0x0 DUP2 DUP2 MSTORE PUSH1 0x2 PUSH1 0x20 MSTORE PUSH1 0x40 SWAP1 KECCAK256 SLOAD PUSH1 0x1 PUSH1 0x1 PUSH1 0xA0 SHL SUB AND ISZERO PUSH2 0x25D1 JUMPI PUSH1 0x40 MLOAD PUSH3 0x461BCD PUSH1 0xE5 SHL DUP2 MSTORE PUSH1 0x20 PUSH1 0x4 DUP3 ADD MSTORE PUSH1 0x1C PUSH1 0x24 DUP3 ADD MSTORE PUSH32 0x4552433732313A20746F6B656E20616C7265616479206D696E74656400000000 PUSH1 0x44 DUP3 ADD MSTORE PUSH1 0x64 ADD PUSH2 0x48B JUMP JUMPDEST PUSH2 0x25DD PUSH1 0x0 DUP4 DUP4 PUSH2 0x21A2 JUMP JUMPDEST PUSH1 0x1 PUSH1 0x1 PUSH1 0xA0 SHL SUB DUP3 AND PUSH1 0x0 SWAP1 DUP2 MSTORE PUSH1 0x3 PUSH1 0x20 MSTORE PUSH1 0x40 DUP2 KECCAK256 DUP1 SLOAD PUSH1 0x1 SWAP3 SWAP1 PUSH2 0x2606 SWAP1 DUP5 SWAP1 PUSH2 0x38B3 JUMP JUMPDEST SWAP1 SWAP2 SSTORE POP POP PUSH1 0x0 DUP2 DUP2 MSTORE PUSH1 0x2 PUSH1 0x20 MSTORE PUSH1 0x40 DUP1 DUP3 KECCAK256 DUP1 SLOAD PUSH1 0x1 PUSH1 0x1 PUSH1 0xA0 SHL SUB NOT AND PUSH1 0x1 PUSH1 0x1 PUSH1 0xA0 SHL SUB DUP7 AND SWAP1 DUP2 OR SWAP1 SWAP2 SSTORE SWAP1 MLOAD DUP4 SWAP3 SWAP1 PUSH32 0xDDF252AD1BE2C89B69C2B068FC378DAA952BA7F163C4A11628F55A4DF523B3EF SWAP1 DUP3 SWAP1 LOG4 POP POP JUMP JUMPDEST PUSH1 0x0 PUSH1 0x1 PUSH1 0x1 PUSH1 0xA0 SHL SUB DUP5 AND EXTCODESIZE ISZERO PUSH2 0x275A JUMPI PUSH1 0x40 MLOAD PUSH4 0xA85BD01 PUSH1 0xE1 SHL DUP2 MSTORE PUSH1 0x1 PUSH1 0x1 PUSH1 0xA0 SHL SUB DUP6 AND SWAP1 PUSH4 0x150B7A02 SWAP1 PUSH2 0x26A8 SWAP1 CALLER SWAP1 DUP10 SWAP1 DUP9 SWAP1 DUP9 SWAP1 PUSH1 0x4 ADD PUSH2 0x397A JUMP JUMPDEST PUSH1 0x20 PUSH1 0x40 MLOAD DUP1 DUP4 SUB DUP2 PUSH1 0x0 DUP8 GAS CALL SWAP3 POP POP POP DUP1 ISZERO PUSH2 0x26E3 JUMPI POP PUSH1 0x40 DUP1 MLOAD PUSH1 0x1F RETURNDATASIZE SWAP1 DUP2 ADD PUSH1 0x1F NOT AND DUP3 ADD SWAP1 SWAP3 MSTORE PUSH2 0x26E0 SWAP2 DUP2 ADD SWAP1 PUSH2 0x39B7 JUMP JUMPDEST PUSH1 0x1 JUMPDEST PUSH2 0x2740 JUMPI RETURNDATASIZE DUP1 DUP1 ISZERO PUSH2 0x2711 JUMPI PUSH1 0x40 MLOAD SWAP2 POP PUSH1 0x1F NOT PUSH1 0x3F RETURNDATASIZE ADD AND DUP3 ADD PUSH1 0x40 MSTORE RETURNDATASIZE DUP3 MSTORE RETURNDATASIZE PUSH1 0x0 PUSH1 0x20 DUP5 ADD RETURNDATACOPY PUSH2 0x2716 JUMP JUMPDEST PUSH1 0x60 SWAP2 POP JUMPDEST POP DUP1 MLOAD PUSH1 0x0 SUB PUSH2 0x2738 JUMPI PUSH1 0x40 MLOAD PUSH3 0x461BCD PUSH1 0xE5 SHL DUP2 MSTORE PUSH1 0x4 ADD PUSH2 0x48B SWAP1 PUSH2 0x38CB JUMP JUMPDEST DUP1 MLOAD DUP2 PUSH1 0x20 ADD REVERT JUMPDEST PUSH1 0x1 PUSH1 0x1 PUSH1 0xE0 SHL SUB NOT AND PUSH4 0xA85BD01 PUSH1 0xE1 SHL EQ SWAP1 POP PUSH2 0x1A77 JUMP JUMPDEST POP PUSH1 0x1 SWAP5 SWAP4 POP POP POP POP JUMP JUMPDEST PUSH1 0x1 PUSH1 0x1 PUSH1 0xA0 SHL SUB DUP4 AND PUSH2 0x27C0 JUMPI PUSH2 0x27BB DUP2 PUSH1 0x8 DUP1 SLOAD PUSH1 0x0 DUP4 DUP2 MSTORE PUSH1 0x9 PUSH1 0x20 MSTORE PUSH1 0x40 DUP2 KECCAK256 DUP3 SWAP1 SSTORE PUSH1 0x1 DUP3 ADD DUP4 SSTORE SWAP2 SWAP1 SWAP2 MSTORE PUSH32 0xF3F7A9FE364FAAB93B216DA50A3214154F22A0A2B415B23A84C8169E8B636EE3 ADD SSTORE JUMP JUMPDEST PUSH2 0x27E3 JUMP JUMPDEST DUP2 PUSH1 0x1 PUSH1 0x1 PUSH1 0xA0 SHL SUB AND DUP4 PUSH1 0x1 PUSH1 0x1 PUSH1 0xA0 SHL SUB AND EQ PUSH2 0x27E3 JUMPI PUSH2 0x27E3 DUP4 DUP3 PUSH2 0x281D JUMP JUMPDEST PUSH1 0x1 PUSH1 0x1 PUSH1 0xA0 SHL SUB DUP3 AND PUSH2 0x27FA JUMPI PUSH2 0x52C DUP2 PUSH2 0x28BA JUMP JUMPDEST DUP3 PUSH1 0x1 PUSH1 0x1 PUSH1 0xA0 SHL SUB AND DUP3 PUSH1 0x1 PUSH1 0x1 PUSH1 0xA0 SHL SUB AND EQ PUSH2 0x52C JUMPI PUSH2 0x52C DUP3 DUP3 PUSH2 0x2969 JUMP JUMPDEST PUSH1 0x0 PUSH1 0x1 PUSH2 0x282A DUP5 PUSH2 0x901 JUMP JUMPDEST PUSH2 0x2834 SWAP2 SWAP1 PUSH2 0x389C JUMP JUMPDEST PUSH1 0x0 DUP4 DUP2 MSTORE PUSH1 0x7 PUSH1 0x20 MSTORE PUSH1 0x40 SWAP1 KECCAK256 SLOAD SWAP1 SWAP2 POP DUP1 DUP3 EQ PUSH2 0x2887 JUMPI PUSH1 0x1 PUSH1 0x1 PUSH1 0xA0 SHL SUB DUP5 AND PUSH1 0x0 SWAP1 DUP2 MSTORE PUSH1 0x6 PUSH1 0x20 SWAP1 DUP2 MSTORE PUSH1 0x40 DUP1 DUP4 KECCAK256 DUP6 DUP5 MSTORE DUP3 MSTORE DUP1 DUP4 KECCAK256 SLOAD DUP5 DUP5 MSTORE DUP2 DUP5 KECCAK256 DUP2 SWAP1 SSTORE DUP4 MSTORE PUSH1 0x7 SWAP1 SWAP2 MSTORE SWAP1 KECCAK256 DUP2 SWAP1 SSTORE JUMPDEST POP PUSH1 0x0 SWAP2 DUP3 MSTORE PUSH1 0x7 PUSH1 0x20 SWAP1 DUP2 MSTORE PUSH1 0x40 DUP1 DUP5 KECCAK256 DUP5 SWAP1 SSTORE PUSH1 0x1 PUSH1 0x1 PUSH1 0xA0 SHL SUB SWAP1 SWAP5 AND DUP4 MSTORE PUSH1 0x6 DUP2 MSTORE DUP4 DUP4 KECCAK256 SWAP2 DUP4 MSTORE MSTORE SWAP1 DUP2 KECCAK256 SSTORE JUMP JUMPDEST PUSH1 0x8 SLOAD PUSH1 0x0 SWAP1 PUSH2 0x28CC SWAP1 PUSH1 0x1 SWAP1 PUSH2 0x389C JUMP JUMPDEST PUSH1 0x0 DUP4 DUP2 MSTORE PUSH1 0x9 PUSH1 0x20 MSTORE PUSH1 0x40 DUP2 KECCAK256 SLOAD PUSH1 0x8 DUP1 SLOAD SWAP4 SWAP5 POP SWAP1 SWAP3 DUP5 SWAP1 DUP2 LT PUSH2 0x28F4 JUMPI PUSH2 0x28F4 PUSH2 0x30B8 JUMP JUMPDEST SWAP1 PUSH1 0x0 MSTORE PUSH1 0x20 PUSH1 0x0 KECCAK256 ADD SLOAD SWAP1 POP DUP1 PUSH1 0x8 DUP4 DUP2 SLOAD DUP2 LT PUSH2 0x2915 JUMPI PUSH2 0x2915 PUSH2 0x30B8 JUMP JUMPDEST PUSH1 0x0 SWAP2 DUP3 MSTORE PUSH1 0x20 DUP1 DUP4 KECCAK256 SWAP1 SWAP2 ADD SWAP3 SWAP1 SWAP3 SSTORE DUP3 DUP2 MSTORE PUSH1 0x9 SWAP1 SWAP2 MSTORE PUSH1 0x40 DUP1 DUP3 KECCAK256 DUP5 SWAP1 SSTORE DUP6 DUP3 MSTORE DUP2 KECCAK256 SSTORE PUSH1 0x8 DUP1 SLOAD DUP1 PUSH2 0x294D JUMPI PUSH2 0x294D PUSH2 0x39D4 JUMP JUMPDEST PUSH1 0x1 SWAP1 SUB DUP2 DUP2 SWAP1 PUSH1 0x0 MSTORE PUSH1 0x20 PUSH1 0x0 KECCAK256 ADD PUSH1 0x0 SWAP1 SSTORE SWAP1 SSTORE POP POP POP POP JUMP JUMPDEST PUSH1 0x0 PUSH2 0x2974 DUP4 PUSH2 0x901 JUMP JUMPDEST PUSH1 0x1 PUSH1 0x1 PUSH1 0xA0 SHL SUB SWAP1 SWAP4 AND PUSH1 0x0 SWAP1 DUP2 MSTORE PUSH1 0x6 PUSH1 0x20 SWAP1 DUP2 MSTORE PUSH1 0x40 DUP1 DUP4 KECCAK256 DUP7 DUP5 MSTORE DUP3 MSTORE DUP1 DUP4 KECCAK256 DUP6 SWAP1 SSTORE SWAP4 DUP3 MSTORE PUSH1 0x7 SWAP1 MSTORE SWAP2 SWAP1 SWAP2 KECCAK256 SWAP2 SWAP1 SWAP2 SSTORE POP JUMP JUMPDEST DUP3 DUP1 SLOAD PUSH2 0x29B9 SWAP1 PUSH2 0x3030 JUMP JUMPDEST SWAP1 PUSH1 0x0 MSTORE PUSH1 0x20 PUSH1 0x0 KECCAK256 SWAP1 PUSH1 0x1F ADD PUSH1 0x20 SWAP1 DIV DUP2 ADD SWAP3 DUP3 PUSH2 0x29DB JUMPI PUSH1 0x0 DUP6 SSTORE PUSH2 0x2A21 JUMP JUMPDEST DUP3 PUSH1 0x1F LT PUSH2 0x29F4 JUMPI DUP1 MLOAD PUSH1 0xFF NOT AND DUP4 DUP1 ADD OR DUP6 SSTORE PUSH2 0x2A21 JUMP JUMPDEST DUP3 DUP1 ADD PUSH1 0x1 ADD DUP6 SSTORE DUP3 ISZERO PUSH2 0x2A21 JUMPI SWAP2 DUP3 ADD JUMPDEST DUP3 DUP2 GT ISZERO PUSH2 0x2A21 JUMPI DUP3 MLOAD DUP3 SSTORE SWAP2 PUSH1 0x20 ADD SWAP2 SWAP1 PUSH1 0x1 ADD SWAP1 PUSH2 0x2A06 JUMP JUMPDEST POP PUSH2 0x2A2D SWAP3 SWAP2 POP PUSH2 0x2A31 JUMP JUMPDEST POP SWAP1 JUMP JUMPDEST JUMPDEST DUP1 DUP3 GT ISZERO PUSH2 0x2A2D JUMPI PUSH1 0x0 DUP2 SSTORE PUSH1 0x1 ADD PUSH2 0x2A32 JUMP JUMPDEST PUSH1 0x1 PUSH1 0x1 PUSH1 0xE0 SHL SUB NOT DUP2 AND DUP2 EQ PUSH2 0x198F JUMPI PUSH1 0x0 DUP1 REVERT JUMPDEST PUSH1 0x0 PUSH1 0x20 DUP3 DUP5 SUB SLT ISZERO PUSH2 0x2A6E JUMPI PUSH1 0x0 DUP1 REVERT JUMPDEST DUP2 CALLDATALOAD PUSH2 0x2A79 DUP2 PUSH2 0x2A46 JUMP JUMPDEST SWAP4 SWAP3 POP POP POP JUMP JUMPDEST PUSH1 0x0 JUMPDEST DUP4 DUP2 LT ISZERO PUSH2 0x2A9B JUMPI DUP2 DUP2 ADD MLOAD DUP4 DUP3 ADD MSTORE PUSH1 0x20 ADD PUSH2 0x2A83 JUMP JUMPDEST DUP4 DUP2 GT ISZERO PUSH2 0xB7E JUMPI POP POP PUSH1 0x0 SWAP2 ADD MSTORE JUMP JUMPDEST PUSH1 0x0 DUP2 MLOAD DUP1 DUP5 MSTORE PUSH2 0x2AC4 DUP2 PUSH1 0x20 DUP7 ADD PUSH1 0x20 DUP7 ADD PUSH2 0x2A80 JUMP JUMPDEST PUSH1 0x1F ADD PUSH1 0x1F NOT AND SWAP3 SWAP1 SWAP3 ADD PUSH1 0x20 ADD SWAP3 SWAP2 POP POP JUMP JUMPDEST PUSH1 0x20 DUP2 MSTORE PUSH1 0x0 PUSH2 0x2A79 PUSH1 0x20 DUP4 ADD DUP5 PUSH2 0x2AAC JUMP JUMPDEST PUSH1 0x0 PUSH1 0x20 DUP3 DUP5 SUB SLT ISZERO PUSH2 0x2AFD JUMPI PUSH1 0x0 DUP1 REVERT JUMPDEST POP CALLDATALOAD SWAP2 SWAP1 POP JUMP JUMPDEST PUSH1 0x1 PUSH1 0x1 PUSH1 0xA0 SHL SUB DUP2 AND DUP2 EQ PUSH2 0x198F JUMPI PUSH1 0x0 DUP1 REVERT JUMPDEST PUSH1 0x0 DUP1 PUSH1 0x40 DUP4 DUP6 SUB SLT ISZERO PUSH2 0x2B2C JUMPI PUSH1 0x0 DUP1 REVERT JUMPDEST DUP3 CALLDATALOAD PUSH2 0x2B37 DUP2 PUSH2 0x2B04 JUMP JUMPDEST SWAP5 PUSH1 0x20 SWAP4 SWAP1 SWAP4 ADD CALLDATALOAD SWAP4 POP POP POP JUMP JUMPDEST PUSH1 0x0 DUP1 PUSH1 0x0 PUSH1 0x60 DUP5 DUP7 SUB SLT ISZERO PUSH2 0x2B5A JUMPI PUSH1 0x0 DUP1 REVERT JUMPDEST DUP4 CALLDATALOAD PUSH2 0x2B65 DUP2 PUSH2 0x2B04 JUMP JUMPDEST SWAP3 POP PUSH1 0x20 DUP5 ADD CALLDATALOAD PUSH2 0x2B75 DUP2 PUSH2 0x2B04 JUMP JUMPDEST SWAP3 SWAP6 SWAP3 SWAP5 POP POP POP PUSH1 0x40 SWAP2 SWAP1 SWAP2 ADD CALLDATALOAD SWAP1 JUMP JUMPDEST PUSH1 0x20 DUP1 DUP3 MSTORE DUP3 MLOAD DUP3 DUP3 ADD DUP2 SWAP1 MSTORE PUSH1 0x0 SWAP2 SWAP1 DUP5 DUP3 ADD SWAP1 PUSH1 0x40 DUP6 ADD SWAP1 DUP5 JUMPDEST DUP2 DUP2 LT ISZERO PUSH2 0x2BBE JUMPI DUP4 MLOAD DUP4 MSTORE SWAP3 DUP5 ADD SWAP3 SWAP2 DUP5 ADD SWAP2 PUSH1 0x1 ADD PUSH2 0x2BA2 JUMP JUMPDEST POP SWAP1 SWAP7 SWAP6 POP POP POP POP POP POP JUMP JUMPDEST PUSH1 0x0 DUP1 DUP4 PUSH1 0x1F DUP5 ADD SLT PUSH2 0x2BDC JUMPI PUSH1 0x0 DUP1 REVERT JUMPDEST POP DUP2 CALLDATALOAD PUSH8 0xFFFFFFFFFFFFFFFF DUP2 GT ISZERO PUSH2 0x2BF4 JUMPI PUSH1 0x0 DUP1 REVERT JUMPDEST PUSH1 0x20 DUP4 ADD SWAP2 POP DUP4 PUSH1 0x20 DUP3 DUP6 ADD ADD GT ISZERO PUSH2 0x2C0C JUMPI PUSH1 0x0 DUP1 REVERT JUMPDEST SWAP3 POP SWAP3 SWAP1 POP JUMP JUMPDEST PUSH1 0x0 DUP1 PUSH1 0x0 DUP1 PUSH1 0x0 PUSH1 0x60 DUP7 DUP9 SUB SLT ISZERO PUSH2 0x2C2B JUMPI PUSH1 0x0 DUP1 REVERT JUMPDEST DUP6 CALLDATALOAD SWAP5 POP PUSH1 0x20 DUP7 ADD CALLDATALOAD PUSH8 0xFFFFFFFFFFFFFFFF DUP1 DUP3 GT ISZERO PUSH2 0x2C4A JUMPI PUSH1 0x0 DUP1 REVERT JUMPDEST PUSH2 0x2C56 DUP10 DUP4 DUP11 ADD PUSH2 0x2BCA JUMP JUMPDEST SWAP1 SWAP7 POP SWAP5 POP PUSH1 0x40 DUP9 ADD CALLDATALOAD SWAP2 POP DUP1 DUP3 GT ISZERO PUSH2 0x2C6F JUMPI PUSH1 0x0 DUP1 REVERT JUMPDEST POP PUSH2 0x2C7C DUP9 DUP3 DUP10 ADD PUSH2 0x2BCA JUMP JUMPDEST SWAP7 SWAP10 SWAP6 SWAP9 POP SWAP4 SWAP7 POP SWAP3 SWAP5 SWAP4 SWAP3 POP POP POP JUMP JUMPDEST PUSH1 0x0 PUSH1 0x20 DUP3 DUP5 SUB SLT ISZERO PUSH2 0x2C9F JUMPI PUSH1 0x0 DUP1 REVERT JUMPDEST DUP2 CALLDATALOAD PUSH2 0x2A79 DUP2 PUSH2 0x2B04 JUMP JUMPDEST DUP1 ISZERO ISZERO DUP2 EQ PUSH2 0x198F JUMPI PUSH1 0x0 DUP1 REVERT JUMPDEST PUSH1 0x0 DUP1 PUSH1 0x40 DUP4 DUP6 SUB SLT ISZERO PUSH2 0x2CCB JUMPI PUSH1 0x0 DUP1 REVERT JUMPDEST DUP3 CALLDATALOAD PUSH2 0x2CD6 DUP2 PUSH2 0x2B04 JUMP JUMPDEST SWAP2 POP PUSH1 0x20 DUP4 ADD CALLDATALOAD PUSH2 0x2CE6 DUP2 PUSH2 0x2CAA JUMP JUMPDEST DUP1 SWAP2 POP POP SWAP3 POP SWAP3 SWAP1 POP JUMP JUMPDEST PUSH4 0x4E487B71 PUSH1 0xE0 SHL PUSH1 0x0 MSTORE PUSH1 0x41 PUSH1 0x4 MSTORE PUSH1 0x24 PUSH1 0x0 REVERT JUMPDEST PUSH1 0x40 MLOAD PUSH1 0x1F DUP3 ADD PUSH1 0x1F NOT AND DUP2 ADD PUSH8 0xFFFFFFFFFFFFFFFF DUP2 GT DUP3 DUP3 LT OR ISZERO PUSH2 0x2D30 JUMPI PUSH2 0x2D30 PUSH2 0x2CF1 JUMP JUMPDEST PUSH1 0x40 MSTORE SWAP2 SWAP1 POP JUMP JUMPDEST PUSH1 0x0 DUP1 PUSH1 0x0 DUP1 PUSH1 0x0 DUP1 PUSH1 0x80 DUP8 DUP10 SUB SLT ISZERO PUSH2 0x2D51 JUMPI PUSH1 0x0 DUP1 REVERT JUMPDEST DUP7 CALLDATALOAD PUSH8 0xFFFFFFFFFFFFFFFF DUP1 DUP3 GT ISZERO PUSH2 0x2D69 JUMPI PUSH1 0x0 DUP1 REVERT JUMPDEST PUSH2 0x2D75 DUP11 DUP4 DUP12 ADD PUSH2 0x2BCA JUMP JUMPDEST SWAP1 SWAP9 POP SWAP7 POP PUSH1 0x20 SWAP2 POP DUP9 DUP3 ADD CALLDATALOAD DUP2 DUP2 GT ISZERO PUSH2 0x2D8F JUMPI PUSH1 0x0 DUP1 REVERT JUMPDEST PUSH2 0x2D9B DUP12 DUP3 DUP13 ADD PUSH2 0x2BCA JUMP JUMPDEST SWAP1 SWAP8 POP SWAP6 POP POP PUSH1 0x40 DUP10 ADD CALLDATALOAD SWAP4 POP PUSH1 0x60 DUP10 ADD CALLDATALOAD DUP2 DUP2 GT ISZERO PUSH2 0x2DBA JUMPI PUSH1 0x0 DUP1 REVERT JUMPDEST DUP10 ADD PUSH1 0x1F DUP2 ADD DUP12 SGT PUSH2 0x2DCB JUMPI PUSH1 0x0 DUP1 REVERT JUMPDEST DUP1 CALLDATALOAD DUP3 DUP2 GT ISZERO PUSH2 0x2DDD JUMPI PUSH2 0x2DDD PUSH2 0x2CF1 JUMP JUMPDEST DUP1 PUSH1 0x5 SHL SWAP3 POP PUSH2 0x2DEE DUP5 DUP5 ADD PUSH2 0x2D07 JUMP JUMPDEST DUP2 DUP2 MSTORE SWAP3 DUP3 ADD DUP5 ADD SWAP3 DUP5 DUP2 ADD SWAP1 DUP14 DUP6 GT ISZERO PUSH2 0x2E08 JUMPI PUSH1 0x0 DUP1 REVERT JUMPDEST SWAP3 DUP6 ADD SWAP3 JUMPDEST DUP5 DUP5 LT ISZERO PUSH2 0x2E32 JUMPI DUP4 CALLDATALOAD SWAP3 POP PUSH2 0x2E22 DUP4 PUSH2 0x2B04 JUMP JUMPDEST DUP3 DUP3 MSTORE SWAP3 DUP6 ADD SWAP3 SWAP1 DUP6 ADD SWAP1 PUSH2 0x2E0D JUMP JUMPDEST DUP1 SWAP7 POP POP POP POP POP POP POP SWAP3 SWAP6 POP SWAP3 SWAP6 POP SWAP3 SWAP6 JUMP JUMPDEST PUSH1 0x0 PUSH8 0xFFFFFFFFFFFFFFFF DUP3 GT ISZERO PUSH2 0x2E5F JUMPI PUSH2 0x2E5F PUSH2 0x2CF1 JUMP JUMPDEST POP PUSH1 0x1F ADD PUSH1 0x1F NOT AND PUSH1 0x20 ADD SWAP1 JUMP JUMPDEST PUSH1 0x0 DUP1 PUSH1 0x0 DUP1 PUSH1 0x80 DUP6 DUP8 SUB SLT ISZERO PUSH2 0x2E83 JUMPI PUSH1 0x0 DUP1 REVERT JUMPDEST DUP5 CALLDATALOAD PUSH2 0x2E8E DUP2 PUSH2 0x2B04 JUMP JUMPDEST SWAP4 POP PUSH1 0x20 DUP6 ADD CALLDATALOAD PUSH2 0x2E9E DUP2 PUSH2 0x2B04 JUMP JUMPDEST SWAP3 POP PUSH1 0x40 DUP6 ADD CALLDATALOAD SWAP2 POP PUSH1 0x60 DUP6 ADD CALLDATALOAD PUSH8 0xFFFFFFFFFFFFFFFF DUP2 GT ISZERO PUSH2 0x2EC1 JUMPI PUSH1 0x0 DUP1 REVERT JUMPDEST DUP6 ADD PUSH1 0x1F DUP2 ADD DUP8 SGT PUSH2 0x2ED2 JUMPI PUSH1 0x0 DUP1 REVERT JUMPDEST DUP1 CALLDATALOAD PUSH2 0x2EE5 PUSH2 0x2EE0 DUP3 PUSH2 0x2E45 JUMP JUMPDEST PUSH2 0x2D07 JUMP JUMPDEST DUP2 DUP2 MSTORE DUP9 PUSH1 0x20 DUP4 DUP6 ADD ADD GT ISZERO PUSH2 0x2EFA JUMPI PUSH1 0x0 DUP1 REVERT JUMPDEST DUP2 PUSH1 0x20 DUP5 ADD PUSH1 0x20 DUP4 ADD CALLDATACOPY PUSH1 0x0 PUSH1 0x20 DUP4 DUP4 ADD ADD MSTORE DUP1 SWAP4 POP POP POP POP SWAP3 SWAP6 SWAP2 SWAP5 POP SWAP3 POP JUMP JUMPDEST PUSH1 0x20 DUP2 MSTORE PUSH1 0x0 DUP3 MLOAD PUSH1 0x80 PUSH1 0x20 DUP5 ADD MSTORE PUSH2 0x2F38 PUSH1 0xA0 DUP5 ADD DUP3 PUSH2 0x2AAC JUMP JUMPDEST SWAP1 POP PUSH1 0x20 DUP5 ADD MLOAD PUSH1 0x1F NOT DUP5 DUP4 SUB ADD PUSH1 0x40 DUP6 ADD MSTORE PUSH2 0x2F55 DUP3 DUP3 PUSH2 0x2AAC JUMP JUMPDEST SWAP2 POP POP PUSH1 0x40 DUP5 ADD MLOAD PUSH1 0x60 DUP5 ADD MSTORE PUSH1 0x60 DUP5 ADD MLOAD PUSH1 0x80 DUP5 ADD MSTORE DUP1 SWAP2 POP POP SWAP3 SWAP2 POP POP JUMP JUMPDEST PUSH1 0x0 DUP1 PUSH1 0x40 DUP4 DUP6 SUB SLT ISZERO PUSH2 0x2F89 JUMPI PUSH1 0x0 DUP1 REVERT JUMPDEST DUP3 CALLDATALOAD PUSH2 0x2F94 DUP2 PUSH2 0x2B04 JUMP JUMPDEST SWAP2 POP PUSH1 0x20 DUP4 ADD CALLDATALOAD PUSH2 0x2CE6 DUP2 PUSH2 0x2B04 JUMP JUMPDEST PUSH1 0x0 DUP1 PUSH1 0x0 DUP1 PUSH1 0x0 DUP1 PUSH1 0x80 DUP8 DUP10 SUB SLT ISZERO PUSH2 0x2FBD JUMPI PUSH1 0x0 DUP1 REVERT JUMPDEST DUP7 CALLDATALOAD PUSH2 0x2FC8 DUP2 PUSH2 0x2B04 JUMP JUMPDEST SWAP6 POP PUSH1 0x20 DUP8 ADD CALLDATALOAD SWAP5 POP PUSH1 0x40 DUP8 ADD CALLDATALOAD PUSH8 0xFFFFFFFFFFFFFFFF DUP1 DUP3 GT ISZERO PUSH2 0x2FEC JUMPI PUSH1 0x0 DUP1 REVERT JUMPDEST PUSH2 0x2FF8 DUP11 DUP4 DUP12 ADD PUSH2 0x2BCA JUMP JUMPDEST SWAP1 SWAP7 POP SWAP5 POP PUSH1 0x60 DUP10 ADD CALLDATALOAD SWAP2 POP DUP1 DUP3 GT ISZERO PUSH2 0x3011 JUMPI PUSH1 0x0 DUP1 REVERT JUMPDEST POP PUSH2 0x301E DUP10 DUP3 DUP11 ADD PUSH2 0x2BCA JUMP JUMPDEST SWAP8 SWAP11 SWAP7 SWAP10 POP SWAP5 SWAP8 POP SWAP3 SWAP6 SWAP4 SWAP5 SWAP3 POP POP POP JUMP JUMPDEST PUSH1 0x1 DUP2 DUP2 SHR SWAP1 DUP3 AND DUP1 PUSH2 0x3044 JUMPI PUSH1 0x7F DUP3 AND SWAP2 POP JUMPDEST PUSH1 0x20 DUP3 LT DUP2 SUB PUSH2 0x3064 JUMPI PUSH4 0x4E487B71 PUSH1 0xE0 SHL PUSH1 0x0 MSTORE PUSH1 0x22 PUSH1 0x4 MSTORE PUSH1 0x24 PUSH1 0x0 REVERT JUMPDEST POP SWAP2 SWAP1 POP JUMP JUMPDEST PUSH1 0x20 DUP1 DUP3 MSTORE PUSH1 0x2E SWAP1 DUP3 ADD MSTORE PUSH32 0x4552433732313A2063616C6C6572206973206E6F7420746F6B656E206F776E65 PUSH1 0x40 DUP3 ADD MSTORE PUSH14 0x1C881B9BDC88185C1C1C9BDD9959 PUSH1 0x92 SHL PUSH1 0x60 DUP3 ADD MSTORE PUSH1 0x80 ADD SWAP1 JUMP JUMPDEST PUSH4 0x4E487B71 PUSH1 0xE0 SHL PUSH1 0x0 MSTORE PUSH1 0x32 PUSH1 0x4 MSTORE PUSH1 0x24 PUSH1 0x0 REVERT JUMPDEST PUSH1 0x40 DUP2 MSTORE PUSH1 0x0 PUSH2 0x30F4 PUSH1 0x40 DUP4 ADD PUSH1 0x6 DUP2 MSTORE PUSH6 0x49534F544F5 PUSH1 0xD4 SHL PUSH1 0x20 DUP3 ADD MSTORE PUSH1 0x40 ADD SWAP1 JUMP JUMPDEST DUP3 DUP2 SUB PUSH1 0x20 SWAP4 DUP5 ADD MSTORE PUSH1 0x10 DUP2 MSTORE PUSH16 0x4245455F534F554C5F41444452455353 PUSH1 0x80 SHL SWAP3 DUP2 ADD SWAP3 SWAP1 SWAP3 MSTORE POP PUSH1 0x40 ADD SWAP1 JUMP JUMPDEST PUSH1 0x0 PUSH2 0x3131 PUSH2 0x2EE0 DUP5 PUSH2 0x2E45 JUMP JUMPDEST SWAP1 POP DUP3 DUP2 MSTORE DUP4 DUP4 DUP4 ADD GT ISZERO PUSH2 0x3145 JUMPI PUSH1 0x0 DUP1 REVERT JUMPDEST PUSH2 0x2A79 DUP4 PUSH1 0x20 DUP4 ADD DUP5 PUSH2 0x2A80 JUMP JUMPDEST PUSH1 0x0 PUSH1 0x20 DUP3 DUP5 SUB SLT ISZERO PUSH2 0x3165 JUMPI PUSH1 0x0 DUP1 REVERT JUMPDEST DUP2 MLOAD PUSH8 0xFFFFFFFFFFFFFFFF DUP2 GT ISZERO PUSH2 0x317C JUMPI PUSH1 0x0 DUP1 REVERT JUMPDEST DUP3 ADD PUSH1 0x1F DUP2 ADD DUP5 SGT PUSH2 0x318D JUMPI PUSH1 0x0 DUP1 REVERT JUMPDEST PUSH2 0x1A77 DUP5 DUP3 MLOAD PUSH1 0x20 DUP5 ADD PUSH2 0x3123 JUMP JUMPDEST PUSH1 0x0 PUSH1 0x20 DUP3 DUP5 SUB SLT ISZERO PUSH2 0x31AE JUMPI PUSH1 0x0 DUP1 REVERT JUMPDEST DUP2 MLOAD PUSH2 0x2A79 DUP2 PUSH2 0x2B04 JUMP JUMPDEST PUSH1 0x0 PUSH1 0x20 DUP3 DUP5 SUB SLT ISZERO PUSH2 0x31CB JUMPI PUSH1 0x0 DUP1 REVERT JUMPDEST DUP2 MLOAD PUSH2 0x2A79 DUP2 PUSH2 0x2CAA JUMP JUMPDEST PUSH1 0x20 DUP2 MSTORE DUP2 PUSH1 0x20 DUP3 ADD MSTORE DUP2 DUP4 PUSH1 0x40 DUP4 ADD CALLDATACOPY PUSH1 0x0 DUP2 DUP4 ADD PUSH1 0x40 SWAP1 DUP2 ADD SWAP2 SWAP1 SWAP2 MSTORE PUSH1 0x1F SWAP1 SWAP3 ADD PUSH1 0x1F NOT AND ADD ADD SWAP2 SWAP1 POP JUMP JUMPDEST DUP4 DUP6 DUP3 CALLDATACOPY PUSH1 0x0 DUP5 DUP3 ADD PUSH1 0x0 DUP2 MSTORE DUP4 DUP6 DUP3 CALLDATACOPY PUSH1 0x0 SWAP4 ADD SWAP3 DUP4 MSTORE POP SWAP1 SWAP5 SWAP4 POP POP POP POP JUMP JUMPDEST PUSH4 0x4E487B71 PUSH1 0xE0 SHL PUSH1 0x0 MSTORE PUSH1 0x11 PUSH1 0x4 MSTORE PUSH1 0x24 PUSH1 0x0 REVERT JUMPDEST PUSH1 0x0 PUSH1 0x1 DUP3 ADD PUSH2 0x324F JUMPI PUSH2 0x324F PUSH2 0x3227 JUMP JUMPDEST POP PUSH1 0x1 ADD SWAP1 JUMP JUMPDEST PUSH1 0x40 DUP2 MSTORE PUSH1 0x0 PUSH2 0x327C PUSH1 0x40 DUP4 ADD PUSH1 0x6 DUP2 MSTORE PUSH6 0x49534F544F5 PUSH1 0xD4 SHL PUSH1 0x20 DUP3 ADD MSTORE PUSH1 0x40 ADD SWAP1 JUMP JUMPDEST DUP3 DUP2 SUB PUSH1 0x20 SWAP4 DUP5 ADD MSTORE PUSH1 0x14 DUP2 MSTORE PUSH20 0x4245455F4441544554494D455F41444452455353 PUSH1 0x60 SHL SWAP3 DUP2 ADD SWAP3 SWAP1 SWAP3 MSTORE POP PUSH1 0x40 ADD SWAP1 JUMP JUMPDEST PUSH1 0x40 DUP2 MSTORE PUSH1 0x0 PUSH2 0x32C2 PUSH1 0x40 DUP4 ADD DUP6 PUSH2 0x2AAC JUMP JUMPDEST DUP3 DUP2 SUB PUSH1 0x20 DUP5 ADD MSTORE PUSH2 0x32D4 DUP2 DUP6 PUSH2 0x2AAC JUMP JUMPDEST SWAP6 SWAP5 POP POP POP POP POP JUMP JUMPDEST PUSH1 0x40 DUP2 MSTORE PUSH1 0x0 PUSH2 0x3303 PUSH1 0x40 DUP4 ADD PUSH1 0x6 DUP2 MSTORE PUSH6 0x49534F544F5 PUSH1 0xD4 SHL PUSH1 0x20 DUP3 ADD MSTORE PUSH1 0x40 ADD SWAP1 JUMP JUMPDEST DUP3 DUP2 SUB PUSH1 0x20 SWAP4 DUP5 ADD MSTORE PUSH1 0xF DUP2 MSTORE PUSH15 0x10915157D4D09517D1115190555315 PUSH1 0x8A SHL SWAP3 DUP2 ADD SWAP3 SWAP1 SWAP3 MSTORE POP PUSH1 0x40 ADD SWAP1 JUMP JUMPDEST PUSH1 0x0 DUP2 MLOAD PUSH2 0x3343 DUP2 DUP6 PUSH1 0x20 DUP7 ADD PUSH2 0x2A80 JUMP JUMPDEST SWAP3 SWAP1 SWAP3 ADD SWAP3 SWAP2 POP POP JUMP JUMPDEST PUSH1 0x0 DUP4 MLOAD PUSH2 0x335F DUP2 DUP5 PUSH1 0x20 DUP9 ADD PUSH2 0x2A80 JUMP JUMPDEST DUP4 MLOAD SWAP1 DUP4 ADD SWAP1 PUSH2 0x3373 DUP2 DUP4 PUSH1 0x20 DUP9 ADD PUSH2 0x2A80 JUMP JUMPDEST PUSH5 0x173539B7B7 PUSH1 0xD9 SHL SWAP2 ADD SWAP1 DUP2 MSTORE PUSH1 0x5 ADD SWAP5 SWAP4 POP POP POP POP JUMP JUMPDEST PUSH1 0x60 DUP2 MSTORE PUSH1 0x0 PUSH2 0x339F PUSH1 0x60 DUP4 ADD DUP6 PUSH2 0x2AAC JUMP JUMPDEST DUP3 DUP2 SUB DUP1 PUSH1 0x20 DUP6 ADD MSTORE PUSH1 0x11 DUP3 MSTORE PUSH17 0x5B534F554C49442020202020202020205D PUSH1 0x78 SHL PUSH1 0x20 DUP4 ADD MSTORE PUSH1 0x40 DUP2 ADD PUSH1 0x40 DUP6 ADD MSTORE POP PUSH2 0x32D4 PUSH1 0x40 DUP3 ADD DUP6 PUSH2 0x2AAC JUMP JUMPDEST PUSH1 0x60 DUP2 MSTORE PUSH1 0x0 PUSH2 0x33F0 PUSH1 0x60 DUP4 ADD DUP6 PUSH2 0x2AAC JUMP JUMPDEST DUP3 DUP2 SUB DUP1 PUSH1 0x20 DUP6 ADD MSTORE PUSH1 0x11 DUP3 MSTORE PUSH17 0x5B544F4B454E494420202020202020205D PUSH1 0x78 SHL PUSH1 0x20 DUP4 ADD MSTORE PUSH1 0x40 DUP2 ADD PUSH1 0x40 DUP6 ADD MSTORE POP PUSH2 0x32D4 PUSH1 0x40 DUP3 ADD DUP6 PUSH2 0x2AAC JUMP JUMPDEST PUSH1 0x60 DUP2 MSTORE PUSH1 0x0 PUSH2 0x3441 PUSH1 0x60 DUP4 ADD DUP6 PUSH2 0x2AAC JUMP JUMPDEST DUP3 DUP2 SUB DUP1 PUSH1 0x20 DUP6 ADD MSTORE PUSH1 0x16 DUP3 MSTORE PUSH22 0x5B434C41494D2044415445202020202020202020205D PUSH1 0x50 SHL PUSH1 0x20 DUP4 ADD MSTORE PUSH1 0x40 DUP2 ADD PUSH1 0x40 DUP6 ADD MSTORE POP PUSH2 0x32D4 PUSH1 0x40 DUP3 ADD DUP6 PUSH2 0x2AAC JUMP JUMPDEST PUSH1 0x60 DUP2 MSTORE PUSH1 0x0 PUSH2 0x3497 PUSH1 0x60 DUP4 ADD DUP6 PUSH2 0x2AAC JUMP JUMPDEST DUP3 DUP2 SUB DUP1 PUSH1 0x20 DUP6 ADD MSTORE PUSH1 0x16 DUP3 MSTORE PUSH22 0x5B56414C49442044415445202020202020202020205D PUSH1 0x50 SHL PUSH1 0x20 DUP4 ADD MSTORE PUSH1 0x40 DUP2 ADD PUSH1 0x40 DUP6 ADD MSTORE POP PUSH2 0x32D4 PUSH1 0x40 DUP3 ADD DUP6 PUSH2 0x2AAC JUMP JUMPDEST PUSH1 0x60 DUP2 MSTORE PUSH1 0x0 PUSH2 0x34ED PUSH1 0x60 DUP4 ADD DUP6 PUSH2 0x2AAC JUMP JUMPDEST DUP3 DUP2 SUB DUP1 PUSH1 0x20 DUP6 ADD MSTORE PUSH1 0xB DUP3 MSTORE PUSH11 0x5B49532056414C49443F5D PUSH1 0xA8 SHL PUSH1 0x20 DUP4 ADD MSTORE PUSH1 0x40 DUP2 ADD PUSH1 0x40 DUP6 ADD MSTORE POP PUSH2 0x32D4 PUSH1 0x40 DUP3 ADD DUP6 PUSH2 0x2AAC JUMP JUMPDEST PUSH14 0x7B226E616D65223A202253425423 PUSH1 0x90 SHL DUP2 MSTORE DUP5 MLOAD PUSH1 0x0 SWAP1 PUSH2 0x354F DUP2 PUSH1 0xE DUP6 ADD PUSH1 0x20 DUP11 ADD PUSH2 0x2A80 JUMP JUMPDEST PUSH1 0x1F PUSH1 0xFA SHL PUSH1 0xE SWAP2 DUP5 ADD SWAP2 DUP3 ADD MSTORE DUP6 MLOAD PUSH2 0x3570 DUP2 PUSH1 0xF DUP5 ADD PUSH1 0x20 DUP11 ADD PUSH2 0x2A80 JUMP JUMPDEST PUSH32 0x222C202273796D626F6C223A2022534254222C20226465736372697074696F6E PUSH1 0xF SWAP3 SWAP1 SWAP2 ADD SWAP2 DUP3 ADD MSTORE PUSH32 0x223A2022536F756C426F756E64546F6B656E2070726F7065727479222C202269 PUSH1 0x2F DUP3 ADD MSTORE PUSH32 0x6D616765223A22646174613A696D6167652F7376672B786D6C3B626173653634 PUSH1 0x4F DUP3 ADD MSTORE PUSH1 0xB PUSH1 0xFA SHL PUSH1 0x6F DUP3 ADD MSTORE DUP5 MLOAD PUSH2 0x3604 DUP2 PUSH1 0x70 DUP5 ADD PUSH1 0x20 DUP10 ADD PUSH2 0x2A80 JUMP JUMPDEST PUSH16 0x111610113232B9B4B3B732B9111D1011 PUSH1 0x81 SHL PUSH1 0x70 SWAP3 SWAP1 SWAP2 ADD SWAP2 DUP3 ADD MSTORE PUSH2 0x3678 PUSH2 0x3632 PUSH1 0x80 DUP4 ADD DUP7 PUSH2 0x3331 JUMP JUMPDEST PUSH32 0x222C202261747472696275746573223A205B7B202274726169745F7479706522 DUP2 MSTORE PUSH20 0x1D101129B7BAB6111610113B30B63AB2911D1011 PUSH1 0x61 SHL PUSH1 0x20 DUP3 ADD MSTORE PUSH1 0x34 ADD SWAP1 JUMP JUMPDEST SWAP8 SWAP7 POP POP POP POP POP POP POP JUMP JUMPDEST PUSH1 0x0 DUP9 MLOAD PUSH2 0x3695 DUP2 DUP5 PUSH1 0x20 DUP14 ADD PUSH2 0x2A80 JUMP JUMPDEST DUP9 MLOAD SWAP1 DUP4 ADD SWAP1 PUSH2 0x36A9 DUP2 DUP4 PUSH1 0x20 DUP14 ADD PUSH2 0x2A80 JUMP JUMPDEST DUP1 DUP3 ADD SWAP2 POP POP PUSH32 0x227D2C7B202274726169745F74797065223A2022534254204944222C20227661 DUP2 MSTORE PUSH7 0x363AB2911D1011 PUSH1 0xC9 SHL PUSH1 0x20 DUP3 ADD MSTORE DUP8 MLOAD PUSH2 0x36F5 DUP2 PUSH1 0x27 DUP5 ADD PUSH1 0x20 DUP13 ADD PUSH2 0x2A80 JUMP JUMPDEST PUSH32 0x227D2C7B202274726169745F74797065223A2022436572746966696361746520 PUSH1 0x27 SWAP3 SWAP1 SWAP2 ADD SWAP2 DUP3 ADD MSTORE PUSH19 0x24B9B9BAB2B9111610113B30B63AB2911D1011 PUSH1 0x69 SHL PUSH1 0x47 DUP3 ADD MSTORE DUP7 MLOAD PUSH2 0x374F DUP2 PUSH1 0x5A DUP5 ADD PUSH1 0x20 DUP12 ADD PUSH2 0x2A80 JUMP JUMPDEST PUSH32 0x227D2C7B202274726169745F74797065223A2022436C61696D2044617465222C PUSH1 0x5A SWAP3 SWAP1 SWAP2 ADD SWAP2 DUP3 ADD MSTORE PUSH11 0x10113B30B63AB2911D1011 PUSH1 0xA9 SHL PUSH1 0x7A DUP3 ADD MSTORE PUSH2 0x3849 PUSH2 0x3839 PUSH2 0x3833 PUSH2 0x37ED PUSH2 0x37E7 PUSH2 0x37AA PUSH1 0x85 DUP8 ADD DUP13 PUSH2 0x3331 JUMP JUMPDEST PUSH32 0x227D2C7B202274726169745F74797065223A202256616C69642044617465222C DUP2 MSTORE PUSH11 0x10113B30B63AB2911D1011 PUSH1 0xA9 SHL PUSH1 0x20 DUP3 ADD MSTORE PUSH1 0x2B ADD SWAP1 JUMP JUMPDEST DUP10 PUSH2 0x3331 JUMP JUMPDEST PUSH32 0x227D2C7B202274726169745F74797065223A202243657274696669636174696F DUP2 MSTORE PUSH20 0x37102B30B634B2111610113B30B63AB2911D1011 PUSH1 0x61 SHL PUSH1 0x20 DUP3 ADD MSTORE PUSH1 0x34 ADD SWAP1 JUMP JUMPDEST DUP7 PUSH2 0x3331 JUMP JUMPDEST PUSH4 0x227D5D7D PUSH1 0xE0 SHL DUP2 MSTORE PUSH1 0x4 ADD SWAP1 JUMP JUMPDEST SWAP11 SWAP10 POP POP POP POP POP POP POP POP POP POP JUMP JUMPDEST PUSH32 0x646174613A6170706C69636174696F6E2F6A736F6E3B6261736536342C000000 DUP2 MSTORE PUSH1 0x0 DUP3 MLOAD PUSH2 0x388F DUP2 PUSH1 0x1D DUP6 ADD PUSH1 0x20 DUP8 ADD PUSH2 0x2A80 JUMP JUMPDEST SWAP2 SWAP1 SWAP2 ADD PUSH1 0x1D ADD SWAP3 SWAP2 POP POP JUMP JUMPDEST PUSH1 0x0 DUP3 DUP3 LT ISZERO PUSH2 0x38AE JUMPI PUSH2 0x38AE PUSH2 0x3227 JUMP JUMPDEST POP SUB SWAP1 JUMP JUMPDEST PUSH1 0x0 DUP3 NOT DUP3 GT ISZERO PUSH2 0x38C6 JUMPI PUSH2 0x38C6 PUSH2 0x3227 JUMP JUMPDEST POP ADD SWAP1 JUMP JUMPDEST PUSH1 0x20 DUP1 DUP3 MSTORE PUSH1 0x32 SWAP1 DUP3 ADD MSTORE PUSH32 0x4552433732313A207472616E7366657220746F206E6F6E204552433732315265 PUSH1 0x40 DUP3 ADD MSTORE PUSH18 0x31B2B4BB32B91034B6B83632B6B2B73A32B9 PUSH1 0x71 SHL PUSH1 0x60 DUP3 ADD MSTORE PUSH1 0x80 ADD SWAP1 JUMP JUMPDEST PUSH4 0x4E487B71 PUSH1 0xE0 SHL PUSH1 0x0 MSTORE PUSH1 0x12 PUSH1 0x4 MSTORE PUSH1 0x24 PUSH1 0x0 REVERT JUMPDEST PUSH1 0x0 DUP3 PUSH2 0x3942 JUMPI PUSH2 0x3942 PUSH2 0x391D JUMP JUMPDEST POP DIV SWAP1 JUMP JUMPDEST PUSH1 0x0 DUP3 PUSH2 0x3956 JUMPI PUSH2 0x3956 PUSH2 0x391D JUMP JUMPDEST POP MOD SWAP1 JUMP JUMPDEST PUSH1 0x0 DUP2 PUSH1 0x0 NOT DIV DUP4 GT DUP3 ISZERO ISZERO AND ISZERO PUSH2 0x3975 JUMPI PUSH2 0x3975 PUSH2 0x3227 JUMP JUMPDEST POP MUL SWAP1 JUMP JUMPDEST PUSH1 0x1 PUSH1 0x1 PUSH1 0xA0 SHL SUB DUP6 DUP2 AND DUP3 MSTORE DUP5 AND PUSH1 0x20 DUP3 ADD MSTORE PUSH1 0x40 DUP2 ADD DUP4 SWAP1 MSTORE PUSH1 0x80 PUSH1 0x60 DUP3 ADD DUP2 SWAP1 MSTORE PUSH1 0x0 SWAP1 PUSH2 0x39AD SWAP1 DUP4 ADD DUP5 PUSH2 0x2AAC JUMP JUMPDEST SWAP7 SWAP6 POP POP POP POP POP POP JUMP JUMPDEST PUSH1 0x0 PUSH1 0x20 DUP3 DUP5 SUB SLT ISZERO PUSH2 0x39C9 JUMPI PUSH1 0x0 DUP1 REVERT JUMPDEST DUP2 MLOAD PUSH2 0x2A79 DUP2 PUSH2 0x2A46 JUMP JUMPDEST PUSH4 0x4E487B71 PUSH1 0xE0 SHL PUSH1 0x0 MSTORE PUSH1 0x31 PUSH1 0x4 MSTORE PUSH1 0x24 PUSH1 0x0 REVERT INVALID COINBASE TIMESTAMP NUMBER DIFFICULTY GASLIMIT CHAINID SELFBALANCE BASEFEE 0x49 0x4A 0x4B 0x4C 0x4D 0x4E 0x4F POP MLOAD MSTORE MSTORE8 SLOAD SSTORE JUMP JUMPI PC MSIZE GAS PUSH2 0x6263 PUSH5 0x6566676869 PUSH11 0x6B6C6D6E6F707172737475 PUSH23 0x7778797A303132333435363738392B2FA2646970667358 0x22 SLT KECCAK256 0xD1 DIFFICULTY 0xB5 RETURN 0xB4 BYTE MSTORE8 SWAP12 AND PUSH24 0x7D6D1BBDAAD0E3C37AF2B8CB73A1C594EE109CE9E2056473 PUSH16 0x6C634300080D00330000000000000000 ",
  "sha1": "e3b0d892847322730619142fdba44c40ab78c37d",
  "source": "// SPDX-License-Identifier: MIT\n\npragma solidity ^0.8.4;\n\nimport \"@openzeppelin/contracts/token/ERC721/extensions/ERC721Enumerable.sol\";\nimport \"@openzeppelin/contracts/utils/Base64.sol\";\n\nimport \"./ISoul.sol\";\nimport \"../IDDS.sol\";\nimport \"./IsoulBondToken.sol\";\nimport \"../IDateTime.sol\";\n\ncontract soulBondToken is ERC721Enumerable {\n    struct tokenStructure {\n        string issuer;\n        string certification;\n        uint256 claimDate;\n        uint256 validDate;\n    }\n\n    using Strings for uint256;\n    using Strings for uint160;\n\n    mapping(uint256 => uint256[]) private soul2Token;\n    mapping(uint256 => uint256) private token2Soul;\n    mapping(uint256 => tokenStructure) private token2Value;\n\n    mapping(bytes32 => bool) private globalAllow;\n    mapping(bytes32 => uint256) private validDate;\n    mapping(address => mapping(bytes32 => bool)) private allowMap;\n\n    IDDS dds;\n\n    constructor() ERC721(\"SoulBontToken Registry\", \"SBT\") {\n        dds = IDDS(BEE_DDS_ADDRESS);\n    }\n\n    function issue(\n        string calldata _issuer,\n        string calldata _certification,\n        uint256 validDate_,\n        address[] memory _allows\n    ) external {\n        require(dds.getOwner(_issuer) == msg.sender, \"Only domain owner\");\n        // require(\n        //     dds.get(_issuer, _certification).length > 0,\n        //     \"DDS data not found\"\n        // );\n\n        bytes32 _hash = keccak256(abi.encodePacked(_issuer, _certification));\n\n        validDate[_hash] = validDate_;\n\n        if (_allows.length == 0) globalAllow[_hash] = true;\n        else {\n            for (uint256 i = 0; i < _allows.length; i++) {\n                allowMap[_allows[i]][_hash] = true;\n            }\n        }\n    }\n\n    function claim(\n        uint256 _soulId,\n        string calldata _issuer,\n        string calldata _certification\n    ) external {\n        ISoul soul = ISoul(\n            dds.toAddress(dds.get(\"ISOTOP\", \"BEE_SOUL_ADDRESS\"))\n        );\n        require(soul.validateAddress(_soulId, msg.sender), \"not owner\");\n        _claim(msg.sender, _soulId, _issuer, _certification);\n    }\n\n    function assign(\n        address _to,\n        uint256 _soulId,\n        string calldata _issuer,\n        string calldata _certification\n    ) external {\n        ISoul soul = ISoul(\n            dds.toAddress(dds.get(\"ISOTOP\", \"BEE_SOUL_ADDRESS\"))\n        );\n        require(msg.sender == soul.getOperator(_soulId), \"only operator\");\n        _claim(_to, _soulId, _issuer, _certification);\n    }\n\n    function _claim(\n        address _to,\n        uint256 _soulId,\n        string calldata _issuer,\n        string calldata _certification\n    ) internal {\n        bytes32 _hash = keccak256(abi.encodePacked(_issuer, _certification));\n\n        require(\n            globalAllow[_hash] || allowMap[_to][_hash],\n            \"Address not in allow list\"\n        );\n\n        uint256 _currentId = totalSupply();\n        token2Soul[_currentId] = _soulId;\n        token2Value[_currentId] = tokenStructure(\n            _issuer,\n            _certification,\n            block.timestamp,\n            validDate[_hash]\n        );\n        soul2Token[_soulId].push(_currentId);\n        _mint(_to, _currentId);\n\n        allowMap[_to][_hash] = false;\n    }\n\n    function getToken(uint256 tokenId)\n        external\n        view\n        returns (tokenStructure memory)\n    {\n        // require(\n        //     soul.validateAddress(token2Soul[tokenId], msg.sender),\n        //     \"not owner\"\n        // );\n        return token2Value[tokenId];\n    }\n\n    function getTokenIds(uint256 soulId)\n        external\n        view\n        returns (uint256[] memory)\n    {\n        // require(soul.validateAddress(soulId, msg.sender), \"not owner\");\n        return soul2Token[soulId];\n    }\n\n    function _beforeTokenTransfer(\n        address from,\n        address to,\n        uint256 tokenId\n    ) internal virtual override {\n        if (to == address(0)) {\n            revert(\"SBT token cannot be burned\");\n        }\n\n        ISoul soul = ISoul(\n            dds.toAddress(dds.get(\"ISOTOP\", \"BEE_SOUL_ADDRESS\"))\n        );\n\n        if (from == address(0)) {\n            require(\n                soul.validateAddress(token2Soul[tokenId], to),\n                \"SBT token to address not allowed\"\n            );\n        } else {\n            require(\n                soul.validateAddress(token2Soul[tokenId], from) &&\n                    soul.validateAddress(token2Soul[tokenId], to),\n                \"SBT token cannot transfered\"\n            );\n        }\n\n        super._beforeTokenTransfer(from, to, tokenId);\n    }\n\n    function tokenURI(uint256 tokenId)\n        public\n        view\n        virtual\n        override\n        returns (string memory)\n    {\n        require(_exists(tokenId), \"nonexistent token\");\n\n        IDateTime date = IDateTime(\n            dds.toAddress(dds.get(\"ISOTOP\", \"BEE_DATETIME_ADDRESS\"))\n        );\n\n        tokenStructure memory _value = token2Value[tokenId];\n        bytes memory tokenData = dds.get(_value.issuer, _value.certification);\n        bytes memory image_;\n\n        if (tokenData.length < 1) image_ = dds.get(\"ISOTOP\", \"BEE_SBT_DEFAULT\");\n        else {\n            if (\n                tokenData[0] == 0x68 /* h means http://URL */\n            )\n                return\n                    string(\n                        abi.encodePacked(tokenData, tokenId.toString(), \".json\")\n                    );\n\n            if (\n                tokenData[0] == 0x3c /* <svg... means image */\n            ) image_ = tokenData;\n            else image_ = dds.get(\"ISOTOP\", \"BEE_SBT_DEFAULT\");\n        }\n\n        bool isValid = _value.validDate > block.timestamp;\n        dds.setValue(\n            image_,\n            \"[SOULID         ]\",\n            bytes(token2Soul[tokenId].toString())\n        );\n        dds.setValue(image_, \"[TOKENID        ]\", bytes(tokenId.toString()));\n        dds.setValue(\n            image_,\n            \"[CLAIM DATE          ]\",\n            bytes(date.timeToDate(_value.claimDate))\n        );\n        dds.setValue(\n            image_,\n            \"[VALID DATE          ]\",\n            bytes(date.timeToDate(_value.validDate))\n        );\n        dds.setValue(\n            image_,\n            \"[IS VALID?]\",\n            bytes(isValid ? \"VALID\" : \"NOT VALID\")\n        );\n\n        bytes memory meta = abi.encodePacked(\n            '{\"name\": \"SBT#',\n            tokenId.toString(),\n            \"|\",\n            _value.certification,\n            '\", \"symbol\": \"SBT\", \"description\": \"SoulBoundToken property\", \"image\":\"data:image/svg+xml;base64,',\n            Base64.encode(image_),\n            '\", \"designer\": \"',\n            _value.issuer,\n            '\", \"attributes\": [{ \"trait_type\": \"Soul\", \"value\": \"'\n        );\n        meta = abi.encodePacked(\n            meta,\n            token2Soul[tokenId].toString(),\n            '\"},{ \"trait_type\": \"SBT ID\", \"value\": \"',\n            tokenId.toString(),\n            '\"},{ \"trait_type\": \"Certificate Issuer\", \"value\": \"',\n            _value.issuer,\n            '\"},{ \"trait_type\": \"Claim Date\", \"value\": \"',\n            date.timeToDate(_value.claimDate),\n            '\"},{ \"trait_type\": \"Valid Date\", \"value\": \"',\n            date.timeToDate(_value.validDate),\n            '\"},{ \"trait_type\": \"Certification Valid\", \"value\": \"',\n            isValid ? \"VALID\" : \"NOT VALID\",\n            '\"}]}'\n        );\n\n        return\n            string(\n                abi.encodePacked(\n                    \"data:application/json;base64,\",\n                    Base64.encode(meta)\n                )\n            );\n    }\n}\n",
  "sourcePath": "contracts/Soul/soulBondToken.sol",
  "type": "contract"
}