{
  "abi": [
    {
      "inputs": [
        {
          "internalType": "uint256",
          "name": "left",
          "type": "uint256"
        },
        {
          "internalType": "uint256",
          "name": "required",
          "type": "uint256"
        }
      ],
      "name": "FundLeftNotEnough",
      "type": "error"
    },
    {
      "anonymous": false,
      "inputs": [
        {
          "indexed": false,
          "internalType": "address",
          "name": "sponsor",
          "type": "address"
        },
        {
          "indexed": false,
          "internalType": "address",
          "name": "agency",
          "type": "address"
        },
        {
          "indexed": false,
          "internalType": "address",
          "name": "contributor",
          "type": "address"
        },
        {
          "indexed": false,
          "internalType": "uint256",
          "name": "amount",
          "type": "uint256"
        },
        {
          "indexed": false,
          "internalType": "string",
          "name": "info",
          "type": "string"
        }
      ],
      "name": "Bill",
      "type": "event"
    },
    {
      "anonymous": false,
      "inputs": [
        {
          "indexed": false,
          "internalType": "address",
          "name": "agency",
          "type": "address"
        },
        {
          "indexed": false,
          "internalType": "address",
          "name": "contributor",
          "type": "address"
        },
        {
          "indexed": false,
          "internalType": "uint256",
          "name": "amount",
          "type": "uint256"
        }
      ],
      "name": "Cash",
      "type": "event"
    },
    {
      "anonymous": false,
      "inputs": [
        {
          "indexed": false,
          "internalType": "address",
          "name": "agency",
          "type": "address"
        },
        {
          "indexed": false,
          "internalType": "address",
          "name": "sponsor",
          "type": "address"
        },
        {
          "indexed": false,
          "internalType": "uint256",
          "name": "amount",
          "type": "uint256"
        }
      ],
      "name": "Charge",
      "type": "event"
    },
    {
      "inputs": [],
      "name": "balance_AC",
      "outputs": [
        {
          "internalType": "uint256",
          "name": "",
          "type": "uint256"
        }
      ],
      "stateMutability": "view",
      "type": "function"
    },
    {
      "inputs": [
        {
          "internalType": "address",
          "name": "_agency",
          "type": "address"
        }
      ],
      "name": "balance_AC",
      "outputs": [
        {
          "internalType": "uint256",
          "name": "",
          "type": "uint256"
        }
      ],
      "stateMutability": "view",
      "type": "function"
    },
    {
      "inputs": [],
      "name": "balance_AS",
      "outputs": [
        {
          "internalType": "uint256",
          "name": "",
          "type": "uint256"
        }
      ],
      "stateMutability": "view",
      "type": "function"
    },
    {
      "inputs": [
        {
          "internalType": "address",
          "name": "_agency",
          "type": "address"
        }
      ],
      "name": "balance_AS",
      "outputs": [
        {
          "internalType": "uint256",
          "name": "",
          "type": "uint256"
        }
      ],
      "stateMutability": "view",
      "type": "function"
    },
    {
      "inputs": [],
      "name": "balance_CA",
      "outputs": [
        {
          "internalType": "uint256",
          "name": "",
          "type": "uint256"
        }
      ],
      "stateMutability": "view",
      "type": "function"
    },
    {
      "inputs": [
        {
          "internalType": "address",
          "name": "_contributor",
          "type": "address"
        }
      ],
      "name": "balance_CA",
      "outputs": [
        {
          "internalType": "uint256",
          "name": "",
          "type": "uint256"
        }
      ],
      "stateMutability": "view",
      "type": "function"
    },
    {
      "inputs": [
        {
          "internalType": "address",
          "name": "_sponsor",
          "type": "address"
        }
      ],
      "name": "balance_SA",
      "outputs": [
        {
          "internalType": "uint256",
          "name": "",
          "type": "uint256"
        }
      ],
      "stateMutability": "view",
      "type": "function"
    },
    {
      "inputs": [],
      "name": "balance_SA",
      "outputs": [
        {
          "internalType": "uint256",
          "name": "",
          "type": "uint256"
        }
      ],
      "stateMutability": "view",
      "type": "function"
    },
    {
      "inputs": [
        {
          "internalType": "address",
          "name": "_angency",
          "type": "address"
        },
        {
          "internalType": "address",
          "name": "_contributor",
          "type": "address"
        },
        {
          "internalType": "uint256",
          "name": "_amount",
          "type": "uint256"
        },
        {
          "internalType": "string",
          "name": "_info",
          "type": "string"
        }
      ],
      "name": "bill",
      "outputs": [],
      "stateMutability": "nonpayable",
      "type": "function"
    },
    {
      "inputs": [
        {
          "internalType": "address",
          "name": "_contributor",
          "type": "address"
        },
        {
          "internalType": "uint256",
          "name": "_amount",
          "type": "uint256"
        }
      ],
      "name": "cash",
      "outputs": [],
      "stateMutability": "nonpayable",
      "type": "function"
    },
    {
      "inputs": [
        {
          "internalType": "address",
          "name": "_sponsor",
          "type": "address"
        },
        {
          "internalType": "uint256",
          "name": "_amount",
          "type": "uint256"
        }
      ],
      "name": "charge",
      "outputs": [],
      "stateMutability": "nonpayable",
      "type": "function"
    }
  ],
  "bytecode": "608060405234801561001057600080fd5b50610ea5806100206000396000f3fe608060405234801561001057600080fd5b50600436106100a95760003560e01c806399bd7c451161007157806399bd7c4514610121578063a3ffa9cd14610157578063d56a22f01461016a578063d6f2dfda1461017d578063ecccbc8114610185578063f6a4efae146101b957600080fd5b8063118202d7146100ae57806313b04508146100f4578063556cf47d146100fc578063767d95c3146101115780638c44d68714610119575b600080fd5b6100e26100bc366004610c26565b326000908152602081815260408083206001600160a01b03949094168352929052205490565b60405190815260200160405180910390f35b6100e26101eb565b61010f61010a366004610c5e565b61027f565b005b6100e261049f565b6100e261052f565b6100e261012f366004610c26565b3260009081526001602090815260408083206001600160a01b03949094168352929052205490565b61010f610165366004610d3a565b6105bc565b61010f610178366004610d3a565b61071e565b6100e2610878565b6100e2610193366004610c26565b6001600160a01b0316600090815260016020908152604080832032845290915290205490565b6100e26101c7366004610c26565b6001600160a01b031660009081526020818152604080832032845290915290205490565b600080805b326000908152600560205260409020548110156102795732600090815260056020526040812080548291908490811061022b5761022b610d64565b60009182526020808320909101546001600160a01b0316835282810193909352604091820181203282529092529020546102659083610d90565b91508061027181610da8565b9150506101f0565b50919050565b6001600160a01b0384166000908152602081815260408083203284529091529020548211156102f4576001600160a01b0384166000908152602081815260408083203284529091529081902054905163027702d960e41b81526004810191909152602481018390526044015b60405180910390fd5b6001600160a01b03841660009081526020818152604080832032845290915281208054849290610325908490610dc1565b90915550506001600160a01b03808516600090815260016020908152604080832093871683529290529081208054849290610361908490610d90565b90915550506001600160a01b03831660009081526002602052604081205490036103be5760408051602080820183526001600160a01b038088168352861660009081526002909152919091206103b8916001610b90565b506103e0565b6001600160a01b03831660009081526002602052604090206103e09085610903565b6001600160a01b03841660009081526003602052604081205490036104385760408051602080820183526001600160a01b03808716835287166000908152600390915291909120610432916001610b90565b5061045a565b6001600160a01b038416600090815260036020526040902061045a9084610903565b7f6529f5a469254b6910e0d06e798740dc6f4d5fb84354829e0805442fa712ee003285858585604051610491959493929190610dd8565b60405180910390a150505050565b600080805b326000908152600260205260409020548110156102795732600090815260026020526040812080546001929190849081106104e1576104e1610d64565b60009182526020808320909101546001600160a01b03168352828101939093526040918201812032825290925290205461051b9083610d90565b91508061052781610da8565b9150506104a4565b600080805b32600090815260036020526040902054811015610279573260009081526001602090815260408083206003909252822080549192918490811061057957610579610d64565b60009182526020808320909101546001600160a01b031683528201929092526040019020546105a89083610d90565b9150806105b481610da8565b915050610534565b326000908152602081815260408083206001600160a01b0386168452909152812080548392906105ed908490610d90565b909155505032600090815260046020526040812054900361063f5760408051602080820183526001600160a01b0385168252326000908152600490915291909120610639916001610b90565b50610658565b3260009081526004602052604090206106589083610903565b6001600160a01b03821660009081526005602052604081205490036106ae5760408051602080820183523282526001600160a01b03851660009081526005909152919091206106a8916001610b90565b506106d0565b6001600160a01b03821660009081526005602052604090206106d09032610903565b604080513281526001600160a01b03841660208201529081018290527f5cffac866325fd9b2a8ea8df2f110a0058313b279402d15ae28dd324a2282e06906060015b60405180910390a15050565b3260009081526001602090815260408083206001600160a01b0386168452909152902054811115610792573260009081526001602090815260408083206001600160a01b03861684529091529081902054905163027702d960e41b81526004810191909152602481018290526044016102eb565b3260009081526001602090815260408083206001600160a01b0386168452909152812080548392906107c5908490610dc1565b90915550503260009081526001602090815260408083206001600160a01b03861684529091528120549003610832576001600160a01b03821660009081526002602052604090206108169032610994565b503260009081526003602052604090206108309083610994565b505b604080513281526001600160a01b03841660208201529081018290527f28703a2ab897b375324b382706bec3484f0eea5d8e3c521edde1621ea112801090606001610712565b600080805b326000908152600460205260409020548110156102795732600090815260208181526040808320600490925282208054919291849081106108c0576108c0610d64565b60009182526020808320909101546001600160a01b031683528201929092526040019020546108ef9083610d90565b9150806108fb81610da8565b91505061087d565b815460005b8181101561095e57826001600160a01b031684828154811061092c5761092c610d64565b6000918252602090912001546001600160a01b03160361094c5750505050565b8061095681610da8565b915050610908565b505081546001810183556000928352602090922090910180546001600160a01b0319166001600160a01b03909216919091179055565b81546000908082036109aa576000915050610b8a565b80600103610a2f57826001600160a01b0316846000815481106109cf576109cf610d64565b6000918252602090912001546001600160a01b031603610a2557838054806109f9576109f9610e59565b600082815260209020810160001990810180546001600160a01b03191690550190555060019050610b8a565b6000915050610b8a565b6000805b610a3e600184610dc1565b821015610b1257846001600160a01b0316868381548110610a6157610a61610d64565b6000918252602090912001546001600160a01b031603610a7f575060015b8015610b005785610a91836001610d90565b81548110610aa157610aa1610d64565b9060005260206000200160009054906101000a90046001600160a01b0316868381548110610ad157610ad1610d64565b9060005260206000200160006101000a8154816001600160a01b0302191690836001600160a01b031602179055505b81610b0a81610da8565b925050610a33565b846001600160a01b0316868381548110610b2e57610b2e610d64565b6000918252602090912001546001600160a01b031603610b4c575060015b8015610b855785805480610b6257610b62610e59565b600082815260209020810160001990810180546001600160a01b03191690550190555b925050505b92915050565b828054828255906000526020600020908101928215610be5579160200282015b82811115610be557825182546001600160a01b0319166001600160a01b03909116178255602090920191600190910190610bb0565b50610bf1929150610bf5565b5090565b5b80821115610bf15760008155600101610bf6565b80356001600160a01b0381168114610c2157600080fd5b919050565b600060208284031215610c3857600080fd5b610c4182610c0a565b9392505050565b634e487b7160e01b600052604160045260246000fd5b60008060008060808587031215610c7457600080fd5b610c7d85610c0a565b9350610c8b60208601610c0a565b925060408501359150606085013567ffffffffffffffff80821115610caf57600080fd5b818701915087601f830112610cc357600080fd5b813581811115610cd557610cd5610c48565b604051601f8201601f19908116603f01168101908382118183101715610cfd57610cfd610c48565b816040528281528a6020848701011115610d1657600080fd5b82602086016020830137600060208483010152809550505050505092959194509250565b60008060408385031215610d4d57600080fd5b610d5683610c0a565b946020939093013593505050565b634e487b7160e01b600052603260045260246000fd5b634e487b7160e01b600052601160045260246000fd5b60008219821115610da357610da3610d7a565b500190565b600060018201610dba57610dba610d7a565b5060010190565b600082821015610dd357610dd3610d7a565b500390565b600060018060a01b038088168352602081881681850152818716604085015285606085015260a06080850152845191508160a085015260005b82811015610e2d5785810182015185820160c001528101610e11565b82811115610e3f57600060c084870101525b5050601f01601f19169190910160c0019695505050505050565b634e487b7160e01b600052603160045260246000fdfea2646970667358221220a9c87e3f2a00eb75ee42ca206334989eda1d486960518c3abbb9a1f9e0725eec64736f6c634300080d0033",
  "bytecodeSha1": "b68a90a03f351adfeadf2af1c5b6959c8fe43d62",
  "compiler": {
    "evm_version": "istanbul",
    "optimizer": {
      "enabled": true,
      "runs": 200
    },
    "version": "0.8.13+commit.abaa5c0e"
  },
  "contractName": "TGas",
  "language": "Solidity",
  "natspec": {
    "details": "contributor: 作者，每次被调用收取费用angency： 代理商，代收费，充值，提现sponsor： 赞助商：出钱，使用功能付费",
    "kind": "dev",
    "methods": {
      "balance_AC(address)": {
        "details": "View functions"
      },
      "bill(address,address,uint256,string)": {
        "details": "Sponsor functions"
      },
      "charge(address,uint256)": {
        "details": "Angency functions"
      }
    },
    "stateVariables": {
      "AC_balance": {
        "details": "针对每个作者的账户余额"
      },
      "AC_list": {
        "details": "针对每个代理商的作者列表"
      },
      "AS_balance": {
        "details": "针对每个代理商的客户余额"
      },
      "AS_list": {
        "details": "针对每个代理商的赞助商列表"
      },
      "CA_list": {
        "details": "针对每个作者的代理商列表"
      },
      "SA_list": {
        "details": "针对每个赞助商的代理商列表"
      }
    },
    "version": 1
  },
  "opcodes": "PUSH1 0x80 PUSH1 0x40 MSTORE CALLVALUE DUP1 ISZERO PUSH2 0x10 JUMPI PUSH1 0x0 DUP1 REVERT JUMPDEST POP PUSH1 0x4 CALLDATASIZE LT PUSH2 0xA9 JUMPI PUSH1 0x0 CALLDATALOAD PUSH1 0xE0 SHR DUP1 PUSH4 0x99BD7C45 GT PUSH2 0x71 JUMPI DUP1 PUSH4 0x99BD7C45 EQ PUSH2 0x121 JUMPI DUP1 PUSH4 0xA3FFA9CD EQ PUSH2 0x157 JUMPI DUP1 PUSH4 0xD56A22F0 EQ PUSH2 0x16A JUMPI DUP1 PUSH4 0xD6F2DFDA EQ PUSH2 0x17D JUMPI DUP1 PUSH4 0xECCCBC81 EQ PUSH2 0x185 JUMPI DUP1 PUSH4 0xF6A4EFAE EQ PUSH2 0x1B9 JUMPI PUSH1 0x0 DUP1 REVERT JUMPDEST DUP1 PUSH4 0x118202D7 EQ PUSH2 0xAE JUMPI DUP1 PUSH4 0x13B04508 EQ PUSH2 0xF4 JUMPI DUP1 PUSH4 0x556CF47D EQ PUSH2 0xFC JUMPI DUP1 PUSH4 0x767D95C3 EQ PUSH2 0x111 JUMPI DUP1 PUSH4 0x8C44D687 EQ PUSH2 0x119 JUMPI JUMPDEST PUSH1 0x0 DUP1 REVERT JUMPDEST PUSH2 0xE2 PUSH2 0xBC CALLDATASIZE PUSH1 0x4 PUSH2 0xC26 JUMP JUMPDEST ORIGIN PUSH1 0x0 SWAP1 DUP2 MSTORE PUSH1 0x20 DUP2 DUP2 MSTORE PUSH1 0x40 DUP1 DUP4 KECCAK256 PUSH1 0x1 PUSH1 0x1 PUSH1 0xA0 SHL SUB SWAP5 SWAP1 SWAP5 AND DUP4 MSTORE SWAP3 SWAP1 MSTORE KECCAK256 SLOAD SWAP1 JUMP JUMPDEST PUSH1 0x40 MLOAD SWAP1 DUP2 MSTORE PUSH1 0x20 ADD PUSH1 0x40 MLOAD DUP1 SWAP2 SUB SWAP1 RETURN JUMPDEST PUSH2 0xE2 PUSH2 0x1EB JUMP JUMPDEST PUSH2 0x10F PUSH2 0x10A CALLDATASIZE PUSH1 0x4 PUSH2 0xC5E JUMP JUMPDEST PUSH2 0x27F JUMP JUMPDEST STOP JUMPDEST PUSH2 0xE2 PUSH2 0x49F JUMP JUMPDEST PUSH2 0xE2 PUSH2 0x52F JUMP JUMPDEST PUSH2 0xE2 PUSH2 0x12F CALLDATASIZE PUSH1 0x4 PUSH2 0xC26 JUMP JUMPDEST ORIGIN PUSH1 0x0 SWAP1 DUP2 MSTORE PUSH1 0x1 PUSH1 0x20 SWAP1 DUP2 MSTORE PUSH1 0x40 DUP1 DUP4 KECCAK256 PUSH1 0x1 PUSH1 0x1 PUSH1 0xA0 SHL SUB SWAP5 SWAP1 SWAP5 AND DUP4 MSTORE SWAP3 SWAP1 MSTORE KECCAK256 SLOAD SWAP1 JUMP JUMPDEST PUSH2 0x10F PUSH2 0x165 CALLDATASIZE PUSH1 0x4 PUSH2 0xD3A JUMP JUMPDEST PUSH2 0x5BC JUMP JUMPDEST PUSH2 0x10F PUSH2 0x178 CALLDATASIZE PUSH1 0x4 PUSH2 0xD3A JUMP JUMPDEST PUSH2 0x71E JUMP JUMPDEST PUSH2 0xE2 PUSH2 0x878 JUMP JUMPDEST PUSH2 0xE2 PUSH2 0x193 CALLDATASIZE PUSH1 0x4 PUSH2 0xC26 JUMP JUMPDEST PUSH1 0x1 PUSH1 0x1 PUSH1 0xA0 SHL SUB AND PUSH1 0x0 SWAP1 DUP2 MSTORE PUSH1 0x1 PUSH1 0x20 SWAP1 DUP2 MSTORE PUSH1 0x40 DUP1 DUP4 KECCAK256 ORIGIN DUP5 MSTORE SWAP1 SWAP2 MSTORE SWAP1 KECCAK256 SLOAD SWAP1 JUMP JUMPDEST PUSH2 0xE2 PUSH2 0x1C7 CALLDATASIZE PUSH1 0x4 PUSH2 0xC26 JUMP JUMPDEST PUSH1 0x1 PUSH1 0x1 PUSH1 0xA0 SHL SUB AND PUSH1 0x0 SWAP1 DUP2 MSTORE PUSH1 0x20 DUP2 DUP2 MSTORE PUSH1 0x40 DUP1 DUP4 KECCAK256 ORIGIN DUP5 MSTORE SWAP1 SWAP2 MSTORE SWAP1 KECCAK256 SLOAD SWAP1 JUMP JUMPDEST PUSH1 0x0 DUP1 DUP1 JUMPDEST ORIGIN PUSH1 0x0 SWAP1 DUP2 MSTORE PUSH1 0x5 PUSH1 0x20 MSTORE PUSH1 0x40 SWAP1 KECCAK256 SLOAD DUP2 LT ISZERO PUSH2 0x279 JUMPI ORIGIN PUSH1 0x0 SWAP1 DUP2 MSTORE PUSH1 0x5 PUSH1 0x20 MSTORE PUSH1 0x40 DUP2 KECCAK256 DUP1 SLOAD DUP3 SWAP2 SWAP1 DUP5 SWAP1 DUP2 LT PUSH2 0x22B JUMPI PUSH2 0x22B PUSH2 0xD64 JUMP JUMPDEST PUSH1 0x0 SWAP2 DUP3 MSTORE PUSH1 0x20 DUP1 DUP4 KECCAK256 SWAP1 SWAP2 ADD SLOAD PUSH1 0x1 PUSH1 0x1 PUSH1 0xA0 SHL SUB AND DUP4 MSTORE DUP3 DUP2 ADD SWAP4 SWAP1 SWAP4 MSTORE PUSH1 0x40 SWAP2 DUP3 ADD DUP2 KECCAK256 ORIGIN DUP3 MSTORE SWAP1 SWAP3 MSTORE SWAP1 KECCAK256 SLOAD PUSH2 0x265 SWAP1 DUP4 PUSH2 0xD90 JUMP JUMPDEST SWAP2 POP DUP1 PUSH2 0x271 DUP2 PUSH2 0xDA8 JUMP JUMPDEST SWAP2 POP POP PUSH2 0x1F0 JUMP JUMPDEST POP SWAP2 SWAP1 POP JUMP JUMPDEST PUSH1 0x1 PUSH1 0x1 PUSH1 0xA0 SHL SUB DUP5 AND PUSH1 0x0 SWAP1 DUP2 MSTORE PUSH1 0x20 DUP2 DUP2 MSTORE PUSH1 0x40 DUP1 DUP4 KECCAK256 ORIGIN DUP5 MSTORE SWAP1 SWAP2 MSTORE SWAP1 KECCAK256 SLOAD DUP3 GT ISZERO PUSH2 0x2F4 JUMPI PUSH1 0x1 PUSH1 0x1 PUSH1 0xA0 SHL SUB DUP5 AND PUSH1 0x0 SWAP1 DUP2 MSTORE PUSH1 0x20 DUP2 DUP2 MSTORE PUSH1 0x40 DUP1 DUP4 KECCAK256 ORIGIN DUP5 MSTORE SWAP1 SWAP2 MSTORE SWAP1 DUP2 SWAP1 KECCAK256 SLOAD SWAP1 MLOAD PUSH4 0x27702D9 PUSH1 0xE4 SHL DUP2 MSTORE PUSH1 0x4 DUP2 ADD SWAP2 SWAP1 SWAP2 MSTORE PUSH1 0x24 DUP2 ADD DUP4 SWAP1 MSTORE PUSH1 0x44 ADD JUMPDEST PUSH1 0x40 MLOAD DUP1 SWAP2 SUB SWAP1 REVERT JUMPDEST PUSH1 0x1 PUSH1 0x1 PUSH1 0xA0 SHL SUB DUP5 AND PUSH1 0x0 SWAP1 DUP2 MSTORE PUSH1 0x20 DUP2 DUP2 MSTORE PUSH1 0x40 DUP1 DUP4 KECCAK256 ORIGIN DUP5 MSTORE SWAP1 SWAP2 MSTORE DUP2 KECCAK256 DUP1 SLOAD DUP5 SWAP3 SWAP1 PUSH2 0x325 SWAP1 DUP5 SWAP1 PUSH2 0xDC1 JUMP JUMPDEST SWAP1 SWAP2 SSTORE POP POP PUSH1 0x1 PUSH1 0x1 PUSH1 0xA0 SHL SUB DUP1 DUP6 AND PUSH1 0x0 SWAP1 DUP2 MSTORE PUSH1 0x1 PUSH1 0x20 SWAP1 DUP2 MSTORE PUSH1 0x40 DUP1 DUP4 KECCAK256 SWAP4 DUP8 AND DUP4 MSTORE SWAP3 SWAP1 MSTORE SWAP1 DUP2 KECCAK256 DUP1 SLOAD DUP5 SWAP3 SWAP1 PUSH2 0x361 SWAP1 DUP5 SWAP1 PUSH2 0xD90 JUMP JUMPDEST SWAP1 SWAP2 SSTORE POP POP PUSH1 0x1 PUSH1 0x1 PUSH1 0xA0 SHL SUB DUP4 AND PUSH1 0x0 SWAP1 DUP2 MSTORE PUSH1 0x2 PUSH1 0x20 MSTORE PUSH1 0x40 DUP2 KECCAK256 SLOAD SWAP1 SUB PUSH2 0x3BE JUMPI PUSH1 0x40 DUP1 MLOAD PUSH1 0x20 DUP1 DUP3 ADD DUP4 MSTORE PUSH1 0x1 PUSH1 0x1 PUSH1 0xA0 SHL SUB DUP1 DUP9 AND DUP4 MSTORE DUP7 AND PUSH1 0x0 SWAP1 DUP2 MSTORE PUSH1 0x2 SWAP1 SWAP2 MSTORE SWAP2 SWAP1 SWAP2 KECCAK256 PUSH2 0x3B8 SWAP2 PUSH1 0x1 PUSH2 0xB90 JUMP JUMPDEST POP PUSH2 0x3E0 JUMP JUMPDEST PUSH1 0x1 PUSH1 0x1 PUSH1 0xA0 SHL SUB DUP4 AND PUSH1 0x0 SWAP1 DUP2 MSTORE PUSH1 0x2 PUSH1 0x20 MSTORE PUSH1 0x40 SWAP1 KECCAK256 PUSH2 0x3E0 SWAP1 DUP6 PUSH2 0x903 JUMP JUMPDEST PUSH1 0x1 PUSH1 0x1 PUSH1 0xA0 SHL SUB DUP5 AND PUSH1 0x0 SWAP1 DUP2 MSTORE PUSH1 0x3 PUSH1 0x20 MSTORE PUSH1 0x40 DUP2 KECCAK256 SLOAD SWAP1 SUB PUSH2 0x438 JUMPI PUSH1 0x40 DUP1 MLOAD PUSH1 0x20 DUP1 DUP3 ADD DUP4 MSTORE PUSH1 0x1 PUSH1 0x1 PUSH1 0xA0 SHL SUB DUP1 DUP8 AND DUP4 MSTORE DUP8 AND PUSH1 0x0 SWAP1 DUP2 MSTORE PUSH1 0x3 SWAP1 SWAP2 MSTORE SWAP2 SWAP1 SWAP2 KECCAK256 PUSH2 0x432 SWAP2 PUSH1 0x1 PUSH2 0xB90 JUMP JUMPDEST POP PUSH2 0x45A JUMP JUMPDEST PUSH1 0x1 PUSH1 0x1 PUSH1 0xA0 SHL SUB DUP5 AND PUSH1 0x0 SWAP1 DUP2 MSTORE PUSH1 0x3 PUSH1 0x20 MSTORE PUSH1 0x40 SWAP1 KECCAK256 PUSH2 0x45A SWAP1 DUP5 PUSH2 0x903 JUMP JUMPDEST PUSH32 0x6529F5A469254B6910E0D06E798740DC6F4D5FB84354829E0805442FA712EE00 ORIGIN DUP6 DUP6 DUP6 DUP6 PUSH1 0x40 MLOAD PUSH2 0x491 SWAP6 SWAP5 SWAP4 SWAP3 SWAP2 SWAP1 PUSH2 0xDD8 JUMP JUMPDEST PUSH1 0x40 MLOAD DUP1 SWAP2 SUB SWAP1 LOG1 POP POP POP POP JUMP JUMPDEST PUSH1 0x0 DUP1 DUP1 JUMPDEST ORIGIN PUSH1 0x0 SWAP1 DUP2 MSTORE PUSH1 0x2 PUSH1 0x20 MSTORE PUSH1 0x40 SWAP1 KECCAK256 SLOAD DUP2 LT ISZERO PUSH2 0x279 JUMPI ORIGIN PUSH1 0x0 SWAP1 DUP2 MSTORE PUSH1 0x2 PUSH1 0x20 MSTORE PUSH1 0x40 DUP2 KECCAK256 DUP1 SLOAD PUSH1 0x1 SWAP3 SWAP2 SWAP1 DUP5 SWAP1 DUP2 LT PUSH2 0x4E1 JUMPI PUSH2 0x4E1 PUSH2 0xD64 JUMP JUMPDEST PUSH1 0x0 SWAP2 DUP3 MSTORE PUSH1 0x20 DUP1 DUP4 KECCAK256 SWAP1 SWAP2 ADD SLOAD PUSH1 0x1 PUSH1 0x1 PUSH1 0xA0 SHL SUB AND DUP4 MSTORE DUP3 DUP2 ADD SWAP4 SWAP1 SWAP4 MSTORE PUSH1 0x40 SWAP2 DUP3 ADD DUP2 KECCAK256 ORIGIN DUP3 MSTORE SWAP1 SWAP3 MSTORE SWAP1 KECCAK256 SLOAD PUSH2 0x51B SWAP1 DUP4 PUSH2 0xD90 JUMP JUMPDEST SWAP2 POP DUP1 PUSH2 0x527 DUP2 PUSH2 0xDA8 JUMP JUMPDEST SWAP2 POP POP PUSH2 0x4A4 JUMP JUMPDEST PUSH1 0x0 DUP1 DUP1 JUMPDEST ORIGIN PUSH1 0x0 SWAP1 DUP2 MSTORE PUSH1 0x3 PUSH1 0x20 MSTORE PUSH1 0x40 SWAP1 KECCAK256 SLOAD DUP2 LT ISZERO PUSH2 0x279 JUMPI ORIGIN PUSH1 0x0 SWAP1 DUP2 MSTORE PUSH1 0x1 PUSH1 0x20 SWAP1 DUP2 MSTORE PUSH1 0x40 DUP1 DUP4 KECCAK256 PUSH1 0x3 SWAP1 SWAP3 MSTORE DUP3 KECCAK256 DUP1 SLOAD SWAP2 SWAP3 SWAP2 DUP5 SWAP1 DUP2 LT PUSH2 0x579 JUMPI PUSH2 0x579 PUSH2 0xD64 JUMP JUMPDEST PUSH1 0x0 SWAP2 DUP3 MSTORE PUSH1 0x20 DUP1 DUP4 KECCAK256 SWAP1 SWAP2 ADD SLOAD PUSH1 0x1 PUSH1 0x1 PUSH1 0xA0 SHL SUB AND DUP4 MSTORE DUP3 ADD SWAP3 SWAP1 SWAP3 MSTORE PUSH1 0x40 ADD SWAP1 KECCAK256 SLOAD PUSH2 0x5A8 SWAP1 DUP4 PUSH2 0xD90 JUMP JUMPDEST SWAP2 POP DUP1 PUSH2 0x5B4 DUP2 PUSH2 0xDA8 JUMP JUMPDEST SWAP2 POP POP PUSH2 0x534 JUMP JUMPDEST ORIGIN PUSH1 0x0 SWAP1 DUP2 MSTORE PUSH1 0x20 DUP2 DUP2 MSTORE PUSH1 0x40 DUP1 DUP4 KECCAK256 PUSH1 0x1 PUSH1 0x1 PUSH1 0xA0 SHL SUB DUP7 AND DUP5 MSTORE SWAP1 SWAP2 MSTORE DUP2 KECCAK256 DUP1 SLOAD DUP4 SWAP3 SWAP1 PUSH2 0x5ED SWAP1 DUP5 SWAP1 PUSH2 0xD90 JUMP JUMPDEST SWAP1 SWAP2 SSTORE POP POP ORIGIN PUSH1 0x0 SWAP1 DUP2 MSTORE PUSH1 0x4 PUSH1 0x20 MSTORE PUSH1 0x40 DUP2 KECCAK256 SLOAD SWAP1 SUB PUSH2 0x63F JUMPI PUSH1 0x40 DUP1 MLOAD PUSH1 0x20 DUP1 DUP3 ADD DUP4 MSTORE PUSH1 0x1 PUSH1 0x1 PUSH1 0xA0 SHL SUB DUP6 AND DUP3 MSTORE ORIGIN PUSH1 0x0 SWAP1 DUP2 MSTORE PUSH1 0x4 SWAP1 SWAP2 MSTORE SWAP2 SWAP1 SWAP2 KECCAK256 PUSH2 0x639 SWAP2 PUSH1 0x1 PUSH2 0xB90 JUMP JUMPDEST POP PUSH2 0x658 JUMP JUMPDEST ORIGIN PUSH1 0x0 SWAP1 DUP2 MSTORE PUSH1 0x4 PUSH1 0x20 MSTORE PUSH1 0x40 SWAP1 KECCAK256 PUSH2 0x658 SWAP1 DUP4 PUSH2 0x903 JUMP JUMPDEST PUSH1 0x1 PUSH1 0x1 PUSH1 0xA0 SHL SUB DUP3 AND PUSH1 0x0 SWAP1 DUP2 MSTORE PUSH1 0x5 PUSH1 0x20 MSTORE PUSH1 0x40 DUP2 KECCAK256 SLOAD SWAP1 SUB PUSH2 0x6AE JUMPI PUSH1 0x40 DUP1 MLOAD PUSH1 0x20 DUP1 DUP3 ADD DUP4 MSTORE ORIGIN DUP3 MSTORE PUSH1 0x1 PUSH1 0x1 PUSH1 0xA0 SHL SUB DUP6 AND PUSH1 0x0 SWAP1 DUP2 MSTORE PUSH1 0x5 SWAP1 SWAP2 MSTORE SWAP2 SWAP1 SWAP2 KECCAK256 PUSH2 0x6A8 SWAP2 PUSH1 0x1 PUSH2 0xB90 JUMP JUMPDEST POP PUSH2 0x6D0 JUMP JUMPDEST PUSH1 0x1 PUSH1 0x1 PUSH1 0xA0 SHL SUB DUP3 AND PUSH1 0x0 SWAP1 DUP2 MSTORE PUSH1 0x5 PUSH1 0x20 MSTORE PUSH1 0x40 SWAP1 KECCAK256 PUSH2 0x6D0 SWAP1 ORIGIN PUSH2 0x903 JUMP JUMPDEST PUSH1 0x40 DUP1 MLOAD ORIGIN DUP2 MSTORE PUSH1 0x1 PUSH1 0x1 PUSH1 0xA0 SHL SUB DUP5 AND PUSH1 0x20 DUP3 ADD MSTORE SWAP1 DUP2 ADD DUP3 SWAP1 MSTORE PUSH32 0x5CFFAC866325FD9B2A8EA8DF2F110A0058313B279402D15AE28DD324A2282E06 SWAP1 PUSH1 0x60 ADD JUMPDEST PUSH1 0x40 MLOAD DUP1 SWAP2 SUB SWAP1 LOG1 POP POP JUMP JUMPDEST ORIGIN PUSH1 0x0 SWAP1 DUP2 MSTORE PUSH1 0x1 PUSH1 0x20 SWAP1 DUP2 MSTORE PUSH1 0x40 DUP1 DUP4 KECCAK256 PUSH1 0x1 PUSH1 0x1 PUSH1 0xA0 SHL SUB DUP7 AND DUP5 MSTORE SWAP1 SWAP2 MSTORE SWAP1 KECCAK256 SLOAD DUP2 GT ISZERO PUSH2 0x792 JUMPI ORIGIN PUSH1 0x0 SWAP1 DUP2 MSTORE PUSH1 0x1 PUSH1 0x20 SWAP1 DUP2 MSTORE PUSH1 0x40 DUP1 DUP4 KECCAK256 PUSH1 0x1 PUSH1 0x1 PUSH1 0xA0 SHL SUB DUP7 AND DUP5 MSTORE SWAP1 SWAP2 MSTORE SWAP1 DUP2 SWAP1 KECCAK256 SLOAD SWAP1 MLOAD PUSH4 0x27702D9 PUSH1 0xE4 SHL DUP2 MSTORE PUSH1 0x4 DUP2 ADD SWAP2 SWAP1 SWAP2 MSTORE PUSH1 0x24 DUP2 ADD DUP3 SWAP1 MSTORE PUSH1 0x44 ADD PUSH2 0x2EB JUMP JUMPDEST ORIGIN PUSH1 0x0 SWAP1 DUP2 MSTORE PUSH1 0x1 PUSH1 0x20 SWAP1 DUP2 MSTORE PUSH1 0x40 DUP1 DUP4 KECCAK256 PUSH1 0x1 PUSH1 0x1 PUSH1 0xA0 SHL SUB DUP7 AND DUP5 MSTORE SWAP1 SWAP2 MSTORE DUP2 KECCAK256 DUP1 SLOAD DUP4 SWAP3 SWAP1 PUSH2 0x7C5 SWAP1 DUP5 SWAP1 PUSH2 0xDC1 JUMP JUMPDEST SWAP1 SWAP2 SSTORE POP POP ORIGIN PUSH1 0x0 SWAP1 DUP2 MSTORE PUSH1 0x1 PUSH1 0x20 SWAP1 DUP2 MSTORE PUSH1 0x40 DUP1 DUP4 KECCAK256 PUSH1 0x1 PUSH1 0x1 PUSH1 0xA0 SHL SUB DUP7 AND DUP5 MSTORE SWAP1 SWAP2 MSTORE DUP2 KECCAK256 SLOAD SWAP1 SUB PUSH2 0x832 JUMPI PUSH1 0x1 PUSH1 0x1 PUSH1 0xA0 SHL SUB DUP3 AND PUSH1 0x0 SWAP1 DUP2 MSTORE PUSH1 0x2 PUSH1 0x20 MSTORE PUSH1 0x40 SWAP1 KECCAK256 PUSH2 0x816 SWAP1 ORIGIN PUSH2 0x994 JUMP JUMPDEST POP ORIGIN PUSH1 0x0 SWAP1 DUP2 MSTORE PUSH1 0x3 PUSH1 0x20 MSTORE PUSH1 0x40 SWAP1 KECCAK256 PUSH2 0x830 SWAP1 DUP4 PUSH2 0x994 JUMP JUMPDEST POP JUMPDEST PUSH1 0x40 DUP1 MLOAD ORIGIN DUP2 MSTORE PUSH1 0x1 PUSH1 0x1 PUSH1 0xA0 SHL SUB DUP5 AND PUSH1 0x20 DUP3 ADD MSTORE SWAP1 DUP2 ADD DUP3 SWAP1 MSTORE PUSH32 0x28703A2AB897B375324B382706BEC3484F0EEA5D8E3C521EDDE1621EA1128010 SWAP1 PUSH1 0x60 ADD PUSH2 0x712 JUMP JUMPDEST PUSH1 0x0 DUP1 DUP1 JUMPDEST ORIGIN PUSH1 0x0 SWAP1 DUP2 MSTORE PUSH1 0x4 PUSH1 0x20 MSTORE PUSH1 0x40 SWAP1 KECCAK256 SLOAD DUP2 LT ISZERO PUSH2 0x279 JUMPI ORIGIN PUSH1 0x0 SWAP1 DUP2 MSTORE PUSH1 0x20 DUP2 DUP2 MSTORE PUSH1 0x40 DUP1 DUP4 KECCAK256 PUSH1 0x4 SWAP1 SWAP3 MSTORE DUP3 KECCAK256 DUP1 SLOAD SWAP2 SWAP3 SWAP2 DUP5 SWAP1 DUP2 LT PUSH2 0x8C0 JUMPI PUSH2 0x8C0 PUSH2 0xD64 JUMP JUMPDEST PUSH1 0x0 SWAP2 DUP3 MSTORE PUSH1 0x20 DUP1 DUP4 KECCAK256 SWAP1 SWAP2 ADD SLOAD PUSH1 0x1 PUSH1 0x1 PUSH1 0xA0 SHL SUB AND DUP4 MSTORE DUP3 ADD SWAP3 SWAP1 SWAP3 MSTORE PUSH1 0x40 ADD SWAP1 KECCAK256 SLOAD PUSH2 0x8EF SWAP1 DUP4 PUSH2 0xD90 JUMP JUMPDEST SWAP2 POP DUP1 PUSH2 0x8FB DUP2 PUSH2 0xDA8 JUMP JUMPDEST SWAP2 POP POP PUSH2 0x87D JUMP JUMPDEST DUP2 SLOAD PUSH1 0x0 JUMPDEST DUP2 DUP2 LT ISZERO PUSH2 0x95E JUMPI DUP3 PUSH1 0x1 PUSH1 0x1 PUSH1 0xA0 SHL SUB AND DUP5 DUP3 DUP2 SLOAD DUP2 LT PUSH2 0x92C JUMPI PUSH2 0x92C PUSH2 0xD64 JUMP JUMPDEST PUSH1 0x0 SWAP2 DUP3 MSTORE PUSH1 0x20 SWAP1 SWAP2 KECCAK256 ADD SLOAD PUSH1 0x1 PUSH1 0x1 PUSH1 0xA0 SHL SUB AND SUB PUSH2 0x94C JUMPI POP POP POP POP JUMP JUMPDEST DUP1 PUSH2 0x956 DUP2 PUSH2 0xDA8 JUMP JUMPDEST SWAP2 POP POP PUSH2 0x908 JUMP JUMPDEST POP POP DUP2 SLOAD PUSH1 0x1 DUP2 ADD DUP4 SSTORE PUSH1 0x0 SWAP3 DUP4 MSTORE PUSH1 0x20 SWAP1 SWAP3 KECCAK256 SWAP1 SWAP2 ADD DUP1 SLOAD PUSH1 0x1 PUSH1 0x1 PUSH1 0xA0 SHL SUB NOT AND PUSH1 0x1 PUSH1 0x1 PUSH1 0xA0 SHL SUB SWAP1 SWAP3 AND SWAP2 SWAP1 SWAP2 OR SWAP1 SSTORE JUMP JUMPDEST DUP2 SLOAD PUSH1 0x0 SWAP1 DUP1 DUP3 SUB PUSH2 0x9AA JUMPI PUSH1 0x0 SWAP2 POP POP PUSH2 0xB8A JUMP JUMPDEST DUP1 PUSH1 0x1 SUB PUSH2 0xA2F JUMPI DUP3 PUSH1 0x1 PUSH1 0x1 PUSH1 0xA0 SHL SUB AND DUP5 PUSH1 0x0 DUP2 SLOAD DUP2 LT PUSH2 0x9CF JUMPI PUSH2 0x9CF PUSH2 0xD64 JUMP JUMPDEST PUSH1 0x0 SWAP2 DUP3 MSTORE PUSH1 0x20 SWAP1 SWAP2 KECCAK256 ADD SLOAD PUSH1 0x1 PUSH1 0x1 PUSH1 0xA0 SHL SUB AND SUB PUSH2 0xA25 JUMPI DUP4 DUP1 SLOAD DUP1 PUSH2 0x9F9 JUMPI PUSH2 0x9F9 PUSH2 0xE59 JUMP JUMPDEST PUSH1 0x0 DUP3 DUP2 MSTORE PUSH1 0x20 SWAP1 KECCAK256 DUP2 ADD PUSH1 0x0 NOT SWAP1 DUP2 ADD DUP1 SLOAD PUSH1 0x1 PUSH1 0x1 PUSH1 0xA0 SHL SUB NOT AND SWAP1 SSTORE ADD SWAP1 SSTORE POP PUSH1 0x1 SWAP1 POP PUSH2 0xB8A JUMP JUMPDEST PUSH1 0x0 SWAP2 POP POP PUSH2 0xB8A JUMP JUMPDEST PUSH1 0x0 DUP1 JUMPDEST PUSH2 0xA3E PUSH1 0x1 DUP5 PUSH2 0xDC1 JUMP JUMPDEST DUP3 LT ISZERO PUSH2 0xB12 JUMPI DUP5 PUSH1 0x1 PUSH1 0x1 PUSH1 0xA0 SHL SUB AND DUP7 DUP4 DUP2 SLOAD DUP2 LT PUSH2 0xA61 JUMPI PUSH2 0xA61 PUSH2 0xD64 JUMP JUMPDEST PUSH1 0x0 SWAP2 DUP3 MSTORE PUSH1 0x20 SWAP1 SWAP2 KECCAK256 ADD SLOAD PUSH1 0x1 PUSH1 0x1 PUSH1 0xA0 SHL SUB AND SUB PUSH2 0xA7F JUMPI POP PUSH1 0x1 JUMPDEST DUP1 ISZERO PUSH2 0xB00 JUMPI DUP6 PUSH2 0xA91 DUP4 PUSH1 0x1 PUSH2 0xD90 JUMP JUMPDEST DUP2 SLOAD DUP2 LT PUSH2 0xAA1 JUMPI PUSH2 0xAA1 PUSH2 0xD64 JUMP JUMPDEST SWAP1 PUSH1 0x0 MSTORE PUSH1 0x20 PUSH1 0x0 KECCAK256 ADD PUSH1 0x0 SWAP1 SLOAD SWAP1 PUSH2 0x100 EXP SWAP1 DIV PUSH1 0x1 PUSH1 0x1 PUSH1 0xA0 SHL SUB AND DUP7 DUP4 DUP2 SLOAD DUP2 LT PUSH2 0xAD1 JUMPI PUSH2 0xAD1 PUSH2 0xD64 JUMP JUMPDEST SWAP1 PUSH1 0x0 MSTORE PUSH1 0x20 PUSH1 0x0 KECCAK256 ADD PUSH1 0x0 PUSH2 0x100 EXP DUP2 SLOAD DUP2 PUSH1 0x1 PUSH1 0x1 PUSH1 0xA0 SHL SUB MUL NOT AND SWAP1 DUP4 PUSH1 0x1 PUSH1 0x1 PUSH1 0xA0 SHL SUB AND MUL OR SWAP1 SSTORE POP JUMPDEST DUP2 PUSH2 0xB0A DUP2 PUSH2 0xDA8 JUMP JUMPDEST SWAP3 POP POP PUSH2 0xA33 JUMP JUMPDEST DUP5 PUSH1 0x1 PUSH1 0x1 PUSH1 0xA0 SHL SUB AND DUP7 DUP4 DUP2 SLOAD DUP2 LT PUSH2 0xB2E JUMPI PUSH2 0xB2E PUSH2 0xD64 JUMP JUMPDEST PUSH1 0x0 SWAP2 DUP3 MSTORE PUSH1 0x20 SWAP1 SWAP2 KECCAK256 ADD SLOAD PUSH1 0x1 PUSH1 0x1 PUSH1 0xA0 SHL SUB AND SUB PUSH2 0xB4C JUMPI POP PUSH1 0x1 JUMPDEST DUP1 ISZERO PUSH2 0xB85 JUMPI DUP6 DUP1 SLOAD DUP1 PUSH2 0xB62 JUMPI PUSH2 0xB62 PUSH2 0xE59 JUMP JUMPDEST PUSH1 0x0 DUP3 DUP2 MSTORE PUSH1 0x20 SWAP1 KECCAK256 DUP2 ADD PUSH1 0x0 NOT SWAP1 DUP2 ADD DUP1 SLOAD PUSH1 0x1 PUSH1 0x1 PUSH1 0xA0 SHL SUB NOT AND SWAP1 SSTORE ADD SWAP1 SSTORE JUMPDEST SWAP3 POP POP POP JUMPDEST SWAP3 SWAP2 POP POP JUMP JUMPDEST DUP3 DUP1 SLOAD DUP3 DUP3 SSTORE SWAP1 PUSH1 0x0 MSTORE PUSH1 0x20 PUSH1 0x0 KECCAK256 SWAP1 DUP2 ADD SWAP3 DUP3 ISZERO PUSH2 0xBE5 JUMPI SWAP2 PUSH1 0x20 MUL DUP3 ADD JUMPDEST DUP3 DUP2 GT ISZERO PUSH2 0xBE5 JUMPI DUP3 MLOAD DUP3 SLOAD PUSH1 0x1 PUSH1 0x1 PUSH1 0xA0 SHL SUB NOT AND PUSH1 0x1 PUSH1 0x1 PUSH1 0xA0 SHL SUB SWAP1 SWAP2 AND OR DUP3 SSTORE PUSH1 0x20 SWAP1 SWAP3 ADD SWAP2 PUSH1 0x1 SWAP1 SWAP2 ADD SWAP1 PUSH2 0xBB0 JUMP JUMPDEST POP PUSH2 0xBF1 SWAP3 SWAP2 POP PUSH2 0xBF5 JUMP JUMPDEST POP SWAP1 JUMP JUMPDEST JUMPDEST DUP1 DUP3 GT ISZERO PUSH2 0xBF1 JUMPI PUSH1 0x0 DUP2 SSTORE PUSH1 0x1 ADD PUSH2 0xBF6 JUMP JUMPDEST DUP1 CALLDATALOAD PUSH1 0x1 PUSH1 0x1 PUSH1 0xA0 SHL SUB DUP2 AND DUP2 EQ PUSH2 0xC21 JUMPI PUSH1 0x0 DUP1 REVERT JUMPDEST SWAP2 SWAP1 POP JUMP JUMPDEST PUSH1 0x0 PUSH1 0x20 DUP3 DUP5 SUB SLT ISZERO PUSH2 0xC38 JUMPI PUSH1 0x0 DUP1 REVERT JUMPDEST PUSH2 0xC41 DUP3 PUSH2 0xC0A JUMP JUMPDEST SWAP4 SWAP3 POP POP POP JUMP JUMPDEST PUSH4 0x4E487B71 PUSH1 0xE0 SHL PUSH1 0x0 MSTORE PUSH1 0x41 PUSH1 0x4 MSTORE PUSH1 0x24 PUSH1 0x0 REVERT JUMPDEST PUSH1 0x0 DUP1 PUSH1 0x0 DUP1 PUSH1 0x80 DUP6 DUP8 SUB SLT ISZERO PUSH2 0xC74 JUMPI PUSH1 0x0 DUP1 REVERT JUMPDEST PUSH2 0xC7D DUP6 PUSH2 0xC0A JUMP JUMPDEST SWAP4 POP PUSH2 0xC8B PUSH1 0x20 DUP7 ADD PUSH2 0xC0A JUMP JUMPDEST SWAP3 POP PUSH1 0x40 DUP6 ADD CALLDATALOAD SWAP2 POP PUSH1 0x60 DUP6 ADD CALLDATALOAD PUSH8 0xFFFFFFFFFFFFFFFF DUP1 DUP3 GT ISZERO PUSH2 0xCAF JUMPI PUSH1 0x0 DUP1 REVERT JUMPDEST DUP2 DUP8 ADD SWAP2 POP DUP8 PUSH1 0x1F DUP4 ADD SLT PUSH2 0xCC3 JUMPI PUSH1 0x0 DUP1 REVERT JUMPDEST DUP2 CALLDATALOAD DUP2 DUP2 GT ISZERO PUSH2 0xCD5 JUMPI PUSH2 0xCD5 PUSH2 0xC48 JUMP JUMPDEST PUSH1 0x40 MLOAD PUSH1 0x1F DUP3 ADD PUSH1 0x1F NOT SWAP1 DUP2 AND PUSH1 0x3F ADD AND DUP2 ADD SWAP1 DUP4 DUP3 GT DUP2 DUP4 LT OR ISZERO PUSH2 0xCFD JUMPI PUSH2 0xCFD PUSH2 0xC48 JUMP JUMPDEST DUP2 PUSH1 0x40 MSTORE DUP3 DUP2 MSTORE DUP11 PUSH1 0x20 DUP5 DUP8 ADD ADD GT ISZERO PUSH2 0xD16 JUMPI PUSH1 0x0 DUP1 REVERT JUMPDEST DUP3 PUSH1 0x20 DUP7 ADD PUSH1 0x20 DUP4 ADD CALLDATACOPY PUSH1 0x0 PUSH1 0x20 DUP5 DUP4 ADD ADD MSTORE DUP1 SWAP6 POP POP POP POP POP POP SWAP3 SWAP6 SWAP2 SWAP5 POP SWAP3 POP JUMP JUMPDEST PUSH1 0x0 DUP1 PUSH1 0x40 DUP4 DUP6 SUB SLT ISZERO PUSH2 0xD4D JUMPI PUSH1 0x0 DUP1 REVERT JUMPDEST PUSH2 0xD56 DUP4 PUSH2 0xC0A JUMP JUMPDEST SWAP5 PUSH1 0x20 SWAP4 SWAP1 SWAP4 ADD CALLDATALOAD SWAP4 POP POP POP JUMP JUMPDEST PUSH4 0x4E487B71 PUSH1 0xE0 SHL PUSH1 0x0 MSTORE PUSH1 0x32 PUSH1 0x4 MSTORE PUSH1 0x24 PUSH1 0x0 REVERT JUMPDEST PUSH4 0x4E487B71 PUSH1 0xE0 SHL PUSH1 0x0 MSTORE PUSH1 0x11 PUSH1 0x4 MSTORE PUSH1 0x24 PUSH1 0x0 REVERT JUMPDEST PUSH1 0x0 DUP3 NOT DUP3 GT ISZERO PUSH2 0xDA3 JUMPI PUSH2 0xDA3 PUSH2 0xD7A JUMP JUMPDEST POP ADD SWAP1 JUMP JUMPDEST PUSH1 0x0 PUSH1 0x1 DUP3 ADD PUSH2 0xDBA JUMPI PUSH2 0xDBA PUSH2 0xD7A JUMP JUMPDEST POP PUSH1 0x1 ADD SWAP1 JUMP JUMPDEST PUSH1 0x0 DUP3 DUP3 LT ISZERO PUSH2 0xDD3 JUMPI PUSH2 0xDD3 PUSH2 0xD7A JUMP JUMPDEST POP SUB SWAP1 JUMP JUMPDEST PUSH1 0x0 PUSH1 0x1 DUP1 PUSH1 0xA0 SHL SUB DUP1 DUP9 AND DUP4 MSTORE PUSH1 0x20 DUP2 DUP9 AND DUP2 DUP6 ADD MSTORE DUP2 DUP8 AND PUSH1 0x40 DUP6 ADD MSTORE DUP6 PUSH1 0x60 DUP6 ADD MSTORE PUSH1 0xA0 PUSH1 0x80 DUP6 ADD MSTORE DUP5 MLOAD SWAP2 POP DUP2 PUSH1 0xA0 DUP6 ADD MSTORE PUSH1 0x0 JUMPDEST DUP3 DUP2 LT ISZERO PUSH2 0xE2D JUMPI DUP6 DUP2 ADD DUP3 ADD MLOAD DUP6 DUP3 ADD PUSH1 0xC0 ADD MSTORE DUP2 ADD PUSH2 0xE11 JUMP JUMPDEST DUP3 DUP2 GT ISZERO PUSH2 0xE3F JUMPI PUSH1 0x0 PUSH1 0xC0 DUP5 DUP8 ADD ADD MSTORE JUMPDEST POP POP PUSH1 0x1F ADD PUSH1 0x1F NOT AND SWAP2 SWAP1 SWAP2 ADD PUSH1 0xC0 ADD SWAP7 SWAP6 POP POP POP POP POP POP JUMP JUMPDEST PUSH4 0x4E487B71 PUSH1 0xE0 SHL PUSH1 0x0 MSTORE PUSH1 0x31 PUSH1 0x4 MSTORE PUSH1 0x24 PUSH1 0x0 REVERT INVALID LOG2 PUSH5 0x6970667358 0x22 SLT KECCAK256 0xA9 0xC8 PUSH31 0x3F2A00EB75EE42CA206334989EDA1D486960518C3ABBB9A1F9E0725EEC6473 PUSH16 0x6C634300080D00330000000000000000 ",
  "sha1": "71590b3688f737504b375a29e086f96018015960",
  "source": "// SPDX-License-Identifier: MIT\npragma solidity ^0.8.13;\n\nerror FundLeftNotEnough(uint256 left, uint256 required);\n\n/// @title PLAN-BEE TGAS 服务费自动扣费系统合约\n/// @author Iwan Cao\n/// @notice 开放使用合约，任何人可以注册自己的余额系统\n/// @custom:planbee 这是一个PLAN-BEE计划认证的合约\n\n/// @dev contributor: 作者，每次被调用收取费用\n/// @dev angency： 代理商，代收费，充值，提现\n/// @dev sponsor： 赞助商：出钱，使用功能付费\ncontract TGas {\n    /// @dev 针对每个代理商的客户余额\n    mapping(address => mapping(address => uint256)) private AS_balance;\n    /// @dev 针对每个作者的账户余额\n    mapping(address => mapping(address => uint256)) private AC_balance;\n    /// @dev 针对每个作者的代理商列表\n    mapping(address => address[]) private CA_list;\n    /// @dev 针对每个代理商的作者列表\n    mapping(address => address[]) private AC_list;\n    /// @dev 针对每个代理商的赞助商列表\n    mapping(address => address[]) private AS_list;\n    /// @dev 针对每个赞助商的代理商列表\n    mapping(address => address[]) private SA_list;\n\n    event Charge(address agency, address sponsor, uint256 amount);\n    event Cash(address agency, address contributor, uint256 amount);\n    event Bill(\n        address sponsor,\n        address agency,\n        address contributor,\n        uint256 amount,\n        string info\n    );\n\n    /// @dev Angency functions\n    function charge(address _sponsor, uint256 _amount) external {\n        AS_balance[tx.origin][_sponsor] += _amount;\n\n        if (AS_list[tx.origin].length == 0) AS_list[tx.origin] = [_sponsor];\n        else _insert(AS_list[tx.origin], _sponsor);\n\n        if (SA_list[_sponsor].length == 0) SA_list[_sponsor] = [tx.origin];\n        else _insert(SA_list[_sponsor], tx.origin);\n\n        emit Charge(tx.origin, _sponsor, _amount);\n    }\n\n    function cash(address _contributor, uint256 _amount) external {\n        if (AC_balance[tx.origin][_contributor] < _amount)\n            revert FundLeftNotEnough(\n                AC_balance[tx.origin][_contributor],\n                _amount\n            );\n        AC_balance[tx.origin][_contributor] -= _amount;\n        if (AC_balance[tx.origin][_contributor] == 0) {\n            _remove(CA_list[_contributor], tx.origin);\n            _remove(AC_list[tx.origin], _contributor);\n        }\n\n        emit Cash(tx.origin, _contributor, _amount);\n    }\n\n    /// @dev Sponsor functions\n    function bill(\n        address _angency,\n        address _contributor,\n        uint256 _amount,\n        string memory _info\n    ) public {\n        if (AS_balance[_angency][tx.origin] < _amount)\n            revert FundLeftNotEnough(AS_balance[_angency][tx.origin], _amount);\n\n        AS_balance[_angency][tx.origin] -= _amount;\n        AC_balance[_angency][_contributor] += _amount;\n\n        if (CA_list[_contributor].length == 0)\n            CA_list[_contributor] = [_angency];\n        else _insert(CA_list[_contributor], _angency);\n\n        if (AC_list[_angency].length == 0) AC_list[_angency] = [_contributor];\n        else _insert(AC_list[_angency], _contributor);\n\n        emit Bill(tx.origin, _angency, _contributor, _amount, _info);\n    }\n\n    /// @dev View functions\n    function balance_AC(address _agency) external view returns (uint256) {\n        return AC_balance[_agency][tx.origin];\n    }\n\n    function balance_AC() external view returns (uint256) {\n        uint256 total = 0;\n        for (uint256 i = 0; i < CA_list[tx.origin].length; i++)\n            total += AC_balance[CA_list[tx.origin][i]][tx.origin];\n        return total;\n    }\n\n    function balance_CA(address _contributor) external view returns (uint256) {\n        return AC_balance[tx.origin][_contributor];\n    }\n\n    function balance_CA() external view returns (uint256) {\n        uint256 total = 0;\n        for (uint256 i = 0; i < AC_list[tx.origin].length; i++)\n            total += AC_balance[tx.origin][AC_list[tx.origin][i]];\n        return total;\n    }\n\n    function balance_SA(address _sponsor) external view returns (uint256) {\n        return AS_balance[tx.origin][_sponsor];\n    }\n\n    function balance_SA() external view returns (uint256) {\n        uint256 total = 0;\n        for (uint256 i = 0; i < AS_list[tx.origin].length; i++)\n            total += AS_balance[tx.origin][AS_list[tx.origin][i]];\n        return total;\n    }\n\n    function balance_AS(address _agency) external view returns (uint256) {\n        return AS_balance[_agency][tx.origin];\n    }\n\n    function balance_AS() external view returns (uint256) {\n        uint256 total = 0;\n        for (uint256 i = 0; i < SA_list[tx.origin].length; i++)\n            total += AS_balance[SA_list[tx.origin][i]][tx.origin];\n        return total;\n    }\n\n    /// @dev Internal functions\n    function _insert(address[] storage _list, address _newMember) internal {\n        uint256 length = _list.length;\n        for (uint256 i = 0; i < length; i++) {\n            if (_list[i] == _newMember) return;\n        }\n        _list.push(_newMember);\n    }\n\n    function _remove(address[] storage _list, address _member)\n        internal\n        returns (bool)\n    {\n        uint256 length = _list.length;\n        if (length == 0) return false;\n        if (length == 1)\n            if (_list[0] == _member) {\n                _list.pop();\n                return true;\n            } else return false;\n\n        uint256 i = 0;\n        bool found = false;\n        for (; i < length - 1; i++) {\n            if (_list[i] == _member) found = true;\n            if (found) _list[i] = _list[i + 1];\n        }\n        if (_list[i] == _member) found = true;\n        if (found) _list.pop();\n        return found;\n    }\n}\n",
  "sourcePath": "contracts/TGas.sol",
  "type": "contract"
}