{
  "abi": [
    {
      "inputs": [],
      "stateMutability": "nonpayable",
      "type": "constructor"
    },
    {
      "inputs": [],
      "name": "message",
      "outputs": [
        {
          "internalType": "string",
          "name": "",
          "type": "string"
        }
      ],
      "stateMutability": "view",
      "type": "function"
    },
    {
      "inputs": [],
      "name": "out1",
      "outputs": [
        {
          "internalType": "string",
          "name": "",
          "type": "string"
        }
      ],
      "stateMutability": "view",
      "type": "function"
    },
    {
      "inputs": [],
      "name": "out2",
      "outputs": [
        {
          "internalType": "string",
          "name": "",
          "type": "string"
        }
      ],
      "stateMutability": "view",
      "type": "function"
    },
    {
      "inputs": [],
      "name": "out3",
      "outputs": [
        {
          "internalType": "string",
          "name": "",
          "type": "string"
        }
      ],
      "stateMutability": "view",
      "type": "function"
    },
    {
      "inputs": [],
      "name": "tryme",
      "outputs": [],
      "stateMutability": "nonpayable",
      "type": "function"
    }
  ],
  "bytecode": "60c0604052600e60808190526d492068617665206120647265616d60901b60a090815261002f9160009190610068565b5034801561003c57600080fd5b50600480546001600160a01b03191673222d6d17f1f6967b81e40624fe6176b7be225bee17905561013b565b82805461007490610101565b90600052602060002090601f01602090048101928261009657600085556100dc565b82601f106100af57805160ff19168380011785556100dc565b828001600101855582156100dc579182015b828111156100dc5782518255916020019190600101906100c1565b506100e89291506100ec565b5090565b5b808211156100e857600081556001016100ed565b600181811c9082168061011557607f821691505b60208210810361013557634e487b7160e01b600052602260045260246000fd5b50919050565b6106a08061014a6000396000f3fe608060405234801561001057600080fd5b50600436106100575760003560e01c8063402ba1831461005c5780637c3401a71461007a578063850d5ee714610084578063d84452481461008c578063e21f37ce14610094575b600080fd5b61006461009c565b6040516100719190610483565b60405180910390f35b61008261012a565b005b610064610367565b610064610374565b610064610381565b600380546100a99061049d565b80601f01602080910402602001604051908101604052809291908181526020018280546100d59061049d565b80156101225780601f106100f757610100808354040283529160200191610122565b820191906000526020600020905b81548152906001019060200180831161010557829003601f168201915b505050505081565b6004805460408051633e10510b60e01b8152928301526006604483015265049534f544f560d41b60648301526080602483015260076084830152666d65737361676560c81b60a48301526001600160a01b031690633e10510b9060c401600060405180830381865afa1580156101a4573d6000803e3d6000fd5b505050506040513d6000823e601f3d908101601f191682016040526101cc91908101906104ed565b80516101e09160039160209091019061038e565b5060048054604080518082018252838152636861766560e01b60208083019190915282518084018452858152634841564560e01b918101919091529151633e20b2f960e11b81526001600160a01b0390931693637c4165f293610249936003939290910161059a565b600060405180830381865afa158015610266573d6000803e3d6000fd5b505050506040513d6000823e601f3d908101601f1916820160405261028e91908101906104ed565b80516102a29160019160209091019061038e565b5060048054604080518082018252838152636861766560e01b60208083019190915282518084018452858152634841564560e01b918101919091529151633e20b2f960e11b81526001600160a01b0390931693637c4165f29361030b936000939290910161059a565b600060405180830381865afa158015610328573d6000803e3d6000fd5b505050506040513d6000823e601f3d908101601f1916820160405261035091908101906104ed565b80516103649160029160209091019061038e565b50565b600280546100a99061049d565b600180546100a99061049d565b600080546100a99061049d565b82805461039a9061049d565b90600052602060002090601f0160209004810192826103bc5760008555610402565b82601f106103d557805160ff1916838001178555610402565b82800160010185558215610402579182015b828111156104025782518255916020019190600101906103e7565b5061040e929150610412565b5090565b5b8082111561040e5760008155600101610413565b60005b8381101561044257818101518382015260200161042a565b83811115610451576000848401525b50505050565b6000815180845261046f816020860160208601610427565b601f01601f19169290920160200192915050565b6020815260006104966020830184610457565b9392505050565b600181811c908216806104b157607f821691505b6020821081036104d157634e487b7160e01b600052602260045260246000fd5b50919050565b634e487b7160e01b600052604160045260246000fd5b6000602082840312156104ff57600080fd5b815167ffffffffffffffff8082111561051757600080fd5b818401915084601f83011261052b57600080fd5b81518181111561053d5761053d6104d7565b604051601f8201601f19908116603f01168101908382118183101715610565576105656104d7565b8160405282815287602084870101111561057e57600080fd5b61058f836020830160208801610427565b979650505050505050565b60608152600080855481600182811c9150808316806105ba57607f831692505b602080841082036105d957634e487b7160e01b86526022600452602486fd5b60608801849052608088018280156105f8576001811461060957610634565b60ff19871682528282019750610634565b60008d81526020902060005b8781101561062e57815484820152908601908401610615565b83019850505b505087860381890152505050505061064c8186610457565b905082810360408401526106608185610457565b969550505050505056fea2646970667358221220b354902523132a13658057a12134a1da2711f84d31f96737f918c61ef33cfb4364736f6c634300080d0033",
  "bytecodeSha1": "e5836330fa29834b2a8afa17fc971a015011a5b5",
  "compiler": {
    "evm_version": "istanbul",
    "optimizer": {
      "enabled": true,
      "runs": 200
    },
    "version": "0.8.13+commit.abaa5c0e"
  },
  "contractName": "TTAT",
  "language": "Solidity",
  "natspec": {
    "kind": "dev",
    "methods": {},
    "version": 1
  },
  "opcodes": "PUSH1 0x80 PUSH1 0x40 MSTORE CALLVALUE DUP1 ISZERO PUSH2 0x10 JUMPI PUSH1 0x0 DUP1 REVERT JUMPDEST POP PUSH1 0x4 CALLDATASIZE LT PUSH2 0x57 JUMPI PUSH1 0x0 CALLDATALOAD PUSH1 0xE0 SHR DUP1 PUSH4 0x402BA183 EQ PUSH2 0x5C JUMPI DUP1 PUSH4 0x7C3401A7 EQ PUSH2 0x7A JUMPI DUP1 PUSH4 0x850D5EE7 EQ PUSH2 0x84 JUMPI DUP1 PUSH4 0xD8445248 EQ PUSH2 0x8C JUMPI DUP1 PUSH4 0xE21F37CE EQ PUSH2 0x94 JUMPI JUMPDEST PUSH1 0x0 DUP1 REVERT JUMPDEST PUSH2 0x64 PUSH2 0x9C JUMP JUMPDEST PUSH1 0x40 MLOAD PUSH2 0x71 SWAP2 SWAP1 PUSH2 0x483 JUMP JUMPDEST PUSH1 0x40 MLOAD DUP1 SWAP2 SUB SWAP1 RETURN JUMPDEST PUSH2 0x82 PUSH2 0x12A JUMP JUMPDEST STOP JUMPDEST PUSH2 0x64 PUSH2 0x367 JUMP JUMPDEST PUSH2 0x64 PUSH2 0x374 JUMP JUMPDEST PUSH2 0x64 PUSH2 0x381 JUMP JUMPDEST PUSH1 0x3 DUP1 SLOAD PUSH2 0xA9 SWAP1 PUSH2 0x49D JUMP JUMPDEST DUP1 PUSH1 0x1F ADD PUSH1 0x20 DUP1 SWAP2 DIV MUL PUSH1 0x20 ADD PUSH1 0x40 MLOAD SWAP1 DUP2 ADD PUSH1 0x40 MSTORE DUP1 SWAP3 SWAP2 SWAP1 DUP2 DUP2 MSTORE PUSH1 0x20 ADD DUP3 DUP1 SLOAD PUSH2 0xD5 SWAP1 PUSH2 0x49D JUMP JUMPDEST DUP1 ISZERO PUSH2 0x122 JUMPI DUP1 PUSH1 0x1F LT PUSH2 0xF7 JUMPI PUSH2 0x100 DUP1 DUP4 SLOAD DIV MUL DUP4 MSTORE SWAP2 PUSH1 0x20 ADD SWAP2 PUSH2 0x122 JUMP JUMPDEST DUP3 ADD SWAP2 SWAP1 PUSH1 0x0 MSTORE PUSH1 0x20 PUSH1 0x0 KECCAK256 SWAP1 JUMPDEST DUP2 SLOAD DUP2 MSTORE SWAP1 PUSH1 0x1 ADD SWAP1 PUSH1 0x20 ADD DUP1 DUP4 GT PUSH2 0x105 JUMPI DUP3 SWAP1 SUB PUSH1 0x1F AND DUP3 ADD SWAP2 JUMPDEST POP POP POP POP POP DUP2 JUMP JUMPDEST PUSH1 0x4 DUP1 SLOAD PUSH1 0x40 DUP1 MLOAD PUSH4 0x3E10510B PUSH1 0xE0 SHL DUP2 MSTORE SWAP3 DUP4 ADD MSTORE PUSH1 0x6 PUSH1 0x44 DUP4 ADD MSTORE PUSH6 0x49534F544F5 PUSH1 0xD4 SHL PUSH1 0x64 DUP4 ADD MSTORE PUSH1 0x80 PUSH1 0x24 DUP4 ADD MSTORE PUSH1 0x7 PUSH1 0x84 DUP4 ADD MSTORE PUSH7 0x6D657373616765 PUSH1 0xC8 SHL PUSH1 0xA4 DUP4 ADD MSTORE PUSH1 0x1 PUSH1 0x1 PUSH1 0xA0 SHL SUB AND SWAP1 PUSH4 0x3E10510B SWAP1 PUSH1 0xC4 ADD PUSH1 0x0 PUSH1 0x40 MLOAD DUP1 DUP4 SUB DUP2 DUP7 GAS STATICCALL ISZERO DUP1 ISZERO PUSH2 0x1A4 JUMPI RETURNDATASIZE PUSH1 0x0 DUP1 RETURNDATACOPY RETURNDATASIZE PUSH1 0x0 REVERT JUMPDEST POP POP POP POP PUSH1 0x40 MLOAD RETURNDATASIZE PUSH1 0x0 DUP3 RETURNDATACOPY PUSH1 0x1F RETURNDATASIZE SWAP1 DUP2 ADD PUSH1 0x1F NOT AND DUP3 ADD PUSH1 0x40 MSTORE PUSH2 0x1CC SWAP2 SWAP1 DUP2 ADD SWAP1 PUSH2 0x4ED JUMP JUMPDEST DUP1 MLOAD PUSH2 0x1E0 SWAP2 PUSH1 0x3 SWAP2 PUSH1 0x20 SWAP1 SWAP2 ADD SWAP1 PUSH2 0x38E JUMP JUMPDEST POP PUSH1 0x4 DUP1 SLOAD PUSH1 0x40 DUP1 MLOAD DUP1 DUP3 ADD DUP3 MSTORE DUP4 DUP2 MSTORE PUSH4 0x68617665 PUSH1 0xE0 SHL PUSH1 0x20 DUP1 DUP4 ADD SWAP2 SWAP1 SWAP2 MSTORE DUP3 MLOAD DUP1 DUP5 ADD DUP5 MSTORE DUP6 DUP2 MSTORE PUSH4 0x48415645 PUSH1 0xE0 SHL SWAP2 DUP2 ADD SWAP2 SWAP1 SWAP2 MSTORE SWAP2 MLOAD PUSH4 0x3E20B2F9 PUSH1 0xE1 SHL DUP2 MSTORE PUSH1 0x1 PUSH1 0x1 PUSH1 0xA0 SHL SUB SWAP1 SWAP4 AND SWAP4 PUSH4 0x7C4165F2 SWAP4 PUSH2 0x249 SWAP4 PUSH1 0x3 SWAP4 SWAP3 SWAP1 SWAP2 ADD PUSH2 0x59A JUMP JUMPDEST PUSH1 0x0 PUSH1 0x40 MLOAD DUP1 DUP4 SUB DUP2 DUP7 GAS STATICCALL ISZERO DUP1 ISZERO PUSH2 0x266 JUMPI RETURNDATASIZE PUSH1 0x0 DUP1 RETURNDATACOPY RETURNDATASIZE PUSH1 0x0 REVERT JUMPDEST POP POP POP POP PUSH1 0x40 MLOAD RETURNDATASIZE PUSH1 0x0 DUP3 RETURNDATACOPY PUSH1 0x1F RETURNDATASIZE SWAP1 DUP2 ADD PUSH1 0x1F NOT AND DUP3 ADD PUSH1 0x40 MSTORE PUSH2 0x28E SWAP2 SWAP1 DUP2 ADD SWAP1 PUSH2 0x4ED JUMP JUMPDEST DUP1 MLOAD PUSH2 0x2A2 SWAP2 PUSH1 0x1 SWAP2 PUSH1 0x20 SWAP1 SWAP2 ADD SWAP1 PUSH2 0x38E JUMP JUMPDEST POP PUSH1 0x4 DUP1 SLOAD PUSH1 0x40 DUP1 MLOAD DUP1 DUP3 ADD DUP3 MSTORE DUP4 DUP2 MSTORE PUSH4 0x68617665 PUSH1 0xE0 SHL PUSH1 0x20 DUP1 DUP4 ADD SWAP2 SWAP1 SWAP2 MSTORE DUP3 MLOAD DUP1 DUP5 ADD DUP5 MSTORE DUP6 DUP2 MSTORE PUSH4 0x48415645 PUSH1 0xE0 SHL SWAP2 DUP2 ADD SWAP2 SWAP1 SWAP2 MSTORE SWAP2 MLOAD PUSH4 0x3E20B2F9 PUSH1 0xE1 SHL DUP2 MSTORE PUSH1 0x1 PUSH1 0x1 PUSH1 0xA0 SHL SUB SWAP1 SWAP4 AND SWAP4 PUSH4 0x7C4165F2 SWAP4 PUSH2 0x30B SWAP4 PUSH1 0x0 SWAP4 SWAP3 SWAP1 SWAP2 ADD PUSH2 0x59A JUMP JUMPDEST PUSH1 0x0 PUSH1 0x40 MLOAD DUP1 DUP4 SUB DUP2 DUP7 GAS STATICCALL ISZERO DUP1 ISZERO PUSH2 0x328 JUMPI RETURNDATASIZE PUSH1 0x0 DUP1 RETURNDATACOPY RETURNDATASIZE PUSH1 0x0 REVERT JUMPDEST POP POP POP POP PUSH1 0x40 MLOAD RETURNDATASIZE PUSH1 0x0 DUP3 RETURNDATACOPY PUSH1 0x1F RETURNDATASIZE SWAP1 DUP2 ADD PUSH1 0x1F NOT AND DUP3 ADD PUSH1 0x40 MSTORE PUSH2 0x350 SWAP2 SWAP1 DUP2 ADD SWAP1 PUSH2 0x4ED JUMP JUMPDEST DUP1 MLOAD PUSH2 0x364 SWAP2 PUSH1 0x2 SWAP2 PUSH1 0x20 SWAP1 SWAP2 ADD SWAP1 PUSH2 0x38E JUMP JUMPDEST POP JUMP JUMPDEST PUSH1 0x2 DUP1 SLOAD PUSH2 0xA9 SWAP1 PUSH2 0x49D JUMP JUMPDEST PUSH1 0x1 DUP1 SLOAD PUSH2 0xA9 SWAP1 PUSH2 0x49D JUMP JUMPDEST PUSH1 0x0 DUP1 SLOAD PUSH2 0xA9 SWAP1 PUSH2 0x49D JUMP JUMPDEST DUP3 DUP1 SLOAD PUSH2 0x39A SWAP1 PUSH2 0x49D JUMP JUMPDEST SWAP1 PUSH1 0x0 MSTORE PUSH1 0x20 PUSH1 0x0 KECCAK256 SWAP1 PUSH1 0x1F ADD PUSH1 0x20 SWAP1 DIV DUP2 ADD SWAP3 DUP3 PUSH2 0x3BC JUMPI PUSH1 0x0 DUP6 SSTORE PUSH2 0x402 JUMP JUMPDEST DUP3 PUSH1 0x1F LT PUSH2 0x3D5 JUMPI DUP1 MLOAD PUSH1 0xFF NOT AND DUP4 DUP1 ADD OR DUP6 SSTORE PUSH2 0x402 JUMP JUMPDEST DUP3 DUP1 ADD PUSH1 0x1 ADD DUP6 SSTORE DUP3 ISZERO PUSH2 0x402 JUMPI SWAP2 DUP3 ADD JUMPDEST DUP3 DUP2 GT ISZERO PUSH2 0x402 JUMPI DUP3 MLOAD DUP3 SSTORE SWAP2 PUSH1 0x20 ADD SWAP2 SWAP1 PUSH1 0x1 ADD SWAP1 PUSH2 0x3E7 JUMP JUMPDEST POP PUSH2 0x40E SWAP3 SWAP2 POP PUSH2 0x412 JUMP JUMPDEST POP SWAP1 JUMP JUMPDEST JUMPDEST DUP1 DUP3 GT ISZERO PUSH2 0x40E JUMPI PUSH1 0x0 DUP2 SSTORE PUSH1 0x1 ADD PUSH2 0x413 JUMP JUMPDEST PUSH1 0x0 JUMPDEST DUP4 DUP2 LT ISZERO PUSH2 0x442 JUMPI DUP2 DUP2 ADD MLOAD DUP4 DUP3 ADD MSTORE PUSH1 0x20 ADD PUSH2 0x42A JUMP JUMPDEST DUP4 DUP2 GT ISZERO PUSH2 0x451 JUMPI PUSH1 0x0 DUP5 DUP5 ADD MSTORE JUMPDEST POP POP POP POP JUMP JUMPDEST PUSH1 0x0 DUP2 MLOAD DUP1 DUP5 MSTORE PUSH2 0x46F DUP2 PUSH1 0x20 DUP7 ADD PUSH1 0x20 DUP7 ADD PUSH2 0x427 JUMP JUMPDEST PUSH1 0x1F ADD PUSH1 0x1F NOT AND SWAP3 SWAP1 SWAP3 ADD PUSH1 0x20 ADD SWAP3 SWAP2 POP POP JUMP JUMPDEST PUSH1 0x20 DUP2 MSTORE PUSH1 0x0 PUSH2 0x496 PUSH1 0x20 DUP4 ADD DUP5 PUSH2 0x457 JUMP JUMPDEST SWAP4 SWAP3 POP POP POP JUMP JUMPDEST PUSH1 0x1 DUP2 DUP2 SHR SWAP1 DUP3 AND DUP1 PUSH2 0x4B1 JUMPI PUSH1 0x7F DUP3 AND SWAP2 POP JUMPDEST PUSH1 0x20 DUP3 LT DUP2 SUB PUSH2 0x4D1 JUMPI PUSH4 0x4E487B71 PUSH1 0xE0 SHL PUSH1 0x0 MSTORE PUSH1 0x22 PUSH1 0x4 MSTORE PUSH1 0x24 PUSH1 0x0 REVERT JUMPDEST POP SWAP2 SWAP1 POP JUMP JUMPDEST PUSH4 0x4E487B71 PUSH1 0xE0 SHL PUSH1 0x0 MSTORE PUSH1 0x41 PUSH1 0x4 MSTORE PUSH1 0x24 PUSH1 0x0 REVERT JUMPDEST PUSH1 0x0 PUSH1 0x20 DUP3 DUP5 SUB SLT ISZERO PUSH2 0x4FF JUMPI PUSH1 0x0 DUP1 REVERT JUMPDEST DUP2 MLOAD PUSH8 0xFFFFFFFFFFFFFFFF DUP1 DUP3 GT ISZERO PUSH2 0x517 JUMPI PUSH1 0x0 DUP1 REVERT JUMPDEST DUP2 DUP5 ADD SWAP2 POP DUP5 PUSH1 0x1F DUP4 ADD SLT PUSH2 0x52B JUMPI PUSH1 0x0 DUP1 REVERT JUMPDEST DUP2 MLOAD DUP2 DUP2 GT ISZERO PUSH2 0x53D JUMPI PUSH2 0x53D PUSH2 0x4D7 JUMP JUMPDEST PUSH1 0x40 MLOAD PUSH1 0x1F DUP3 ADD PUSH1 0x1F NOT SWAP1 DUP2 AND PUSH1 0x3F ADD AND DUP2 ADD SWAP1 DUP4 DUP3 GT DUP2 DUP4 LT OR ISZERO PUSH2 0x565 JUMPI PUSH2 0x565 PUSH2 0x4D7 JUMP JUMPDEST DUP2 PUSH1 0x40 MSTORE DUP3 DUP2 MSTORE DUP8 PUSH1 0x20 DUP5 DUP8 ADD ADD GT ISZERO PUSH2 0x57E JUMPI PUSH1 0x0 DUP1 REVERT JUMPDEST PUSH2 0x58F DUP4 PUSH1 0x20 DUP4 ADD PUSH1 0x20 DUP9 ADD PUSH2 0x427 JUMP JUMPDEST SWAP8 SWAP7 POP POP POP POP POP POP POP JUMP JUMPDEST PUSH1 0x60 DUP2 MSTORE PUSH1 0x0 DUP1 DUP6 SLOAD DUP2 PUSH1 0x1 DUP3 DUP2 SHR SWAP2 POP DUP1 DUP4 AND DUP1 PUSH2 0x5BA JUMPI PUSH1 0x7F DUP4 AND SWAP3 POP JUMPDEST PUSH1 0x20 DUP1 DUP5 LT DUP3 SUB PUSH2 0x5D9 JUMPI PUSH4 0x4E487B71 PUSH1 0xE0 SHL DUP7 MSTORE PUSH1 0x22 PUSH1 0x4 MSTORE PUSH1 0x24 DUP7 REVERT JUMPDEST PUSH1 0x60 DUP9 ADD DUP5 SWAP1 MSTORE PUSH1 0x80 DUP9 ADD DUP3 DUP1 ISZERO PUSH2 0x5F8 JUMPI PUSH1 0x1 DUP2 EQ PUSH2 0x609 JUMPI PUSH2 0x634 JUMP JUMPDEST PUSH1 0xFF NOT DUP8 AND DUP3 MSTORE DUP3 DUP3 ADD SWAP8 POP PUSH2 0x634 JUMP JUMPDEST PUSH1 0x0 DUP14 DUP2 MSTORE PUSH1 0x20 SWAP1 KECCAK256 PUSH1 0x0 JUMPDEST DUP8 DUP2 LT ISZERO PUSH2 0x62E JUMPI DUP2 SLOAD DUP5 DUP3 ADD MSTORE SWAP1 DUP7 ADD SWAP1 DUP5 ADD PUSH2 0x615 JUMP JUMPDEST DUP4 ADD SWAP9 POP POP JUMPDEST POP POP DUP8 DUP7 SUB DUP2 DUP10 ADD MSTORE POP POP POP POP POP PUSH2 0x64C DUP2 DUP7 PUSH2 0x457 JUMP JUMPDEST SWAP1 POP DUP3 DUP2 SUB PUSH1 0x40 DUP5 ADD MSTORE PUSH2 0x660 DUP2 DUP6 PUSH2 0x457 JUMP JUMPDEST SWAP7 SWAP6 POP POP POP POP POP POP JUMP INVALID LOG2 PUSH5 0x6970667358 0x22 SLT KECCAK256 0xB3 SLOAD SWAP1 0x25 0x23 SGT 0x2A SGT PUSH6 0x8057A12134A1 0xDA 0x27 GT 0xF8 0x4D BALANCE 0xF9 PUSH8 0x37F918C61EF33CFB NUMBER PUSH5 0x736F6C6343 STOP ADDMOD 0xD STOP CALLER ",
  "sha1": "12d41f3035de6b8bf2125a9ca8646802d135f1d7",
  "source": "// SPDX-License-Identifier: MIT\n\npragma solidity ^0.8.4;\n\nimport \"./IDDS.sol\";\n\ncontract TTAT {\n    string public message = \"I have a dream\";\n    string public out1;\n    string public out2;\n\n    string public out3;\n    IDDS dds;\n\n    constructor() {\n        dds = IDDS(BEE_DDS_ADDRESS);\n    }\n\n    function tryme() external {\n        out3 = string(dds.get(\"ISOTOP\", \"message\"));\n        out1 = string(dds.setValue(bytes(out3), bytes(\"have\"), bytes(\"HAVE\")));\n        out2 = string(\n            dds.setValue(bytes(message), bytes(\"have\"), bytes(\"HAVE\"))\n        );\n    }\n}\n",
  "sourcePath": "contracts/test.sol",
  "type": "contract"
}