{
  "abi": [
    {
      "inputs": [],
      "stateMutability": "nonpayable",
      "type": "constructor"
    },
    {
      "inputs": [
        {
          "internalType": "address",
          "name": "have",
          "type": "address"
        },
        {
          "internalType": "address",
          "name": "want",
          "type": "address"
        }
      ],
      "name": "OnlyCoordinatorCanFulfill",
      "type": "error"
    },
    {
      "anonymous": false,
      "inputs": [
        {
          "indexed": true,
          "internalType": "address",
          "name": "previousOwner",
          "type": "address"
        },
        {
          "indexed": true,
          "internalType": "address",
          "name": "newOwner",
          "type": "address"
        }
      ],
      "name": "OwnershipTransferred",
      "type": "event"
    },
    {
      "anonymous": false,
      "inputs": [
        {
          "indexed": false,
          "internalType": "uint256",
          "name": "requestId",
          "type": "uint256"
        },
        {
          "indexed": false,
          "internalType": "uint256[]",
          "name": "randomWords",
          "type": "uint256[]"
        }
      ],
      "name": "RequestFulfilled",
      "type": "event"
    },
    {
      "anonymous": false,
      "inputs": [
        {
          "indexed": false,
          "internalType": "uint256",
          "name": "requestId",
          "type": "uint256"
        },
        {
          "indexed": false,
          "internalType": "uint32",
          "name": "numWords",
          "type": "uint32"
        }
      ],
      "name": "RequestSent",
      "type": "event"
    },
    {
      "inputs": [
        {
          "internalType": "uint256",
          "name": "_requestId",
          "type": "uint256"
        }
      ],
      "name": "getRequestStatus",
      "outputs": [
        {
          "internalType": "bool",
          "name": "fulfilled",
          "type": "bool"
        },
        {
          "internalType": "uint256[]",
          "name": "randomWords",
          "type": "uint256[]"
        }
      ],
      "stateMutability": "view",
      "type": "function"
    },
    {
      "inputs": [],
      "name": "lastRequestId",
      "outputs": [
        {
          "internalType": "uint256",
          "name": "",
          "type": "uint256"
        }
      ],
      "stateMutability": "view",
      "type": "function"
    },
    {
      "inputs": [],
      "name": "owner",
      "outputs": [
        {
          "internalType": "address",
          "name": "",
          "type": "address"
        }
      ],
      "stateMutability": "view",
      "type": "function"
    },
    {
      "inputs": [
        {
          "internalType": "uint256",
          "name": "requestId",
          "type": "uint256"
        },
        {
          "internalType": "uint256[]",
          "name": "randomWords",
          "type": "uint256[]"
        }
      ],
      "name": "rawFulfillRandomWords",
      "outputs": [],
      "stateMutability": "nonpayable",
      "type": "function"
    },
    {
      "inputs": [],
      "name": "renounceOwnership",
      "outputs": [],
      "stateMutability": "nonpayable",
      "type": "function"
    },
    {
      "inputs": [
        {
          "internalType": "uint256",
          "name": "",
          "type": "uint256"
        }
      ],
      "name": "requestIds",
      "outputs": [
        {
          "internalType": "uint256",
          "name": "",
          "type": "uint256"
        }
      ],
      "stateMutability": "view",
      "type": "function"
    },
    {
      "inputs": [
        {
          "internalType": "uint32",
          "name": "numWords",
          "type": "uint32"
        }
      ],
      "name": "requestRandomWords",
      "outputs": [
        {
          "internalType": "uint256",
          "name": "requestId",
          "type": "uint256"
        }
      ],
      "stateMutability": "nonpayable",
      "type": "function"
    },
    {
      "inputs": [],
      "name": "reset",
      "outputs": [],
      "stateMutability": "nonpayable",
      "type": "function"
    },
    {
      "inputs": [
        {
          "internalType": "address",
          "name": "_to",
          "type": "address"
        },
        {
          "internalType": "uint256",
          "name": "expireDate",
          "type": "uint256"
        }
      ],
      "name": "setOperator",
      "outputs": [],
      "stateMutability": "nonpayable",
      "type": "function"
    },
    {
      "inputs": [
        {
          "internalType": "uint256",
          "name": "size",
          "type": "uint256"
        },
        {
          "internalType": "uint256",
          "name": "entropy",
          "type": "uint256"
        }
      ],
      "name": "shuffle",
      "outputs": [
        {
          "internalType": "uint256[]",
          "name": "",
          "type": "uint256[]"
        }
      ],
      "stateMutability": "pure",
      "type": "function"
    },
    {
      "inputs": [
        {
          "internalType": "uint16",
          "name": "size",
          "type": "uint16"
        },
        {
          "internalType": "uint256",
          "name": "entropy",
          "type": "uint256"
        }
      ],
      "name": "shuffle16",
      "outputs": [
        {
          "internalType": "uint16[]",
          "name": "",
          "type": "uint16[]"
        }
      ],
      "stateMutability": "pure",
      "type": "function"
    },
    {
      "inputs": [
        {
          "internalType": "address",
          "name": "newOwner",
          "type": "address"
        }
      ],
      "name": "transferOwnership",
      "outputs": [],
      "stateMutability": "nonpayable",
      "type": "function"
    }
  ],
  "bytecode": "60a06040526005805465ffffffffffff19166403000186a01790553480156200002757600080fd5b506200003262000079565b6001600160a01b03166080526200004933620001a3565b6200005362000079565b600280546001600160a01b0319166001600160a01b03929092169190911790556200035b565b60408051633e10510b60e01b815260048101919091526006604482015265049534f544f560d41b606482015260806024820152600b60848201526a21a7a7a92224a720aa27a960a91b60a482015260009073222d6d17f1f6967b81e40624fe6176b7be225bee908190632d888869908290633e10510b9060c401600060405180830381865afa15801562000111573d6000803e3d6000fd5b505050506040513d6000823e601f3d908101601f191682016040526200013b91908101906200023c565b6040518263ffffffff1660e01b8152600401620001599190620002f4565b602060405180830381865afa15801562000177573d6000803e3d6000fd5b505050506040513d601f19601f820116820180604052508101906200019d919062000329565b91505090565b600080546001600160a01b038381166001600160a01b0319831681178455604051919092169283917f8be0079c531659141344cd1fd0a4f28419497f9722a3daafe3b4186f6b6457e09190a35050565b634e487b7160e01b600052604160045260246000fd5b60005b83811015620002265781810151838201526020016200020c565b8381111562000236576000848401525b50505050565b6000602082840312156200024f57600080fd5b81516001600160401b03808211156200026757600080fd5b818401915084601f8301126200027c57600080fd5b815181811115620002915762000291620001f3565b604051601f8201601f19908116603f01168101908382118183101715620002bc57620002bc620001f3565b81604052828152876020848701011115620002d657600080fd5b620002e983602083016020880162000209565b979650505050505050565b60208152600082518060208401526200031581604085016020870162000209565b601f01601f19169190910160400192915050565b6000602082840312156200033c57600080fd5b81516001600160a01b03811681146200035457600080fd5b9392505050565b6080516113976200037e600039600081816101d1015261021301526113976000f3fe608060405234801561001057600080fd5b50600436106100b45760003560e01c80638da5cb5b116100715780638da5cb5b14610153578063d826f88f1461016e578063d8a4676f14610176578063e726f2e114610197578063f2fde38b146101aa578063fc2a88c3146101bd57600080fd5b80631fe543e3146100b957806329fa6d02146100ce578063715018a6146100f757806377754136146100ff5780638073afce146101125780638796ba8c14610132575b600080fd5b6100cc6100c7366004610e40565b6101c6565b005b6100e16100dc366004610ef2565b610253565b6040516100ee9190610f4f565b60405180910390f35b6100cc610405565b6100cc61010d366004610f80565b610419565b610125610120366004610faa565b61043d565b6040516100ee9190610fcf565b610145610140366004611017565b610622565b6040519081526020016100ee565b6000546040516001600160a01b0390911681526020016100ee565b6100cc610643565b610189610184366004611017565b610659565b6040516100ee929190611030565b6101456101a5366004611053565b6107ba565b6100cc6101b8366004611079565b610a40565b61014560045481565b336001600160a01b037f000000000000000000000000000000000000000000000000000000000000000016146102455760405163073e64fd60e21b81523360048201526001600160a01b037f00000000000000000000000000000000000000000000000000000000000000001660248201526044015b60405180910390fd5b61024f8282610ab9565b5050565b606060008367ffffffffffffffff81111561027057610270610df9565b604051908082528060200260200182016040528015610299578160200160208202803683370190505b50905060005b848110156102d757808282815181106102ba576102ba611094565b6020908102919091010152806102cf816110c0565b91505061029f565b506000836040516020016102ed91815260200190565b604051602081830303815290604052805190602001209050600060018661031491906110d9565b905060015b6103246001886110d9565b8110156103fa57600061033783856110f0565b9050600085848151811061034d5761034d611094565b6020026020010151905085828151811061036957610369611094565b602002602001015186858151811061038357610383611094565b602002602001018181525050808683815181106103a2576103a2611094565b6020908102919091010152836103b781611112565b945050846040516020016103cd91815260200190565b604051602081830303815290604052805190602001209450505080806103f2906110c0565b915050610319565b509195945050505050565b61040d610b7d565b6104176000610bd7565b565b610421610b7d565b6001600160a01b03909116600090815260066020526040902055565b606060008361ffff1667ffffffffffffffff81111561045e5761045e610df9565b604051908082528060200260200182016040528015610487578160200160208202803683370190505b50905060005b8461ffff168161ffff1610156104d95780828261ffff16815181106104b4576104b4611094565b61ffff90921660209283029190910190910152806104d181611129565b91505061048d565b506000836040516020016104ef91815260200190565b6040516020818303038152906040528051906020012090506000600186610516919061114a565b61ffff16905060015b61052a60018861114a565b61ffff168161ffff1610156103fa57600061054583856110f0565b9050600085848151811061055b5761055b611094565b60200260200101519050858261ffff168151811061057b5761057b611094565b602002602001015186858151811061059557610595611094565b602002602001019061ffff16908161ffff168152505080868361ffff16815181106105c2576105c2611094565b61ffff90921660209283029190910190910152836105df81611112565b945050846040516020016105f591815260200190565b6040516020818303038152906040528051906020012094505050808061061a90611129565b91505061051f565b6003818154811061063257600080fd5b600091825260209091200154905081565b61064b610b7d565b6000546001600160a01b0316ff5b600081815260016020526040812054606090610100900460ff166106b35760405162461bcd60e51b81526020600482015260116024820152701c995c5d595cdd081b9bdd08199bdd5b99607a1b604482015260640161023c565b6000838152600160205260409020546201000090046001600160a01b0316331461070c5760405162461bcd60e51b815260206004820152600a60248201526937b7363c9037bbb732b960b11b604482015260640161023c565b60008381526001602081815260408084208151608081018352815460ff808216151583526101008204161515828601526201000090046001600160a01b031681840152938101805483518186028101860190945280845291936060860193929083018282801561079b57602002820191906000526020600020905b815481526020019060010190808311610787575b5050505050815250509050806000015181606001519250925050915091565b600080546001600160a01b03163314806107e1575033600090815260066020526040902054155b806107fa57503360009081526006602052604090205442105b6108465760405162461bcd60e51b815260206004820152601d60248201527f4f70657261746f72204e6f742056616c6964204f722045787069726564000000604482015260640161023c565b61084e610c27565b67ffffffffffffffff1660000361086757506000919050565b6002546001600160a01b0316635d3b1d30610880610d11565b610888610c27565b60055460405160e085901b6001600160e01b0319168152600481019390935267ffffffffffffffff9091166024830152640100000000810461ffff16604483015263ffffffff90811660648301528516608482015260a4016020604051808303816000875af11580156108ff573d6000803e3d6000fd5b505050506040513d601f19601f82011682018060405250810190610923919061116d565b604080516080810182526000808252600160208084018281523385870190815286518581528084018852606087019081528886528484529690942085518154925195516001600160a01b0316620100000262010000600160b01b03199615156101000261ff00199215159290921661ffff1990941693909317179490941617835593518051959650929491936109bf9391850192910190610d99565b5050600380546001810182556000919091527fc2575a0e9e593c00f959f8c92f12db2869c3395a3b0502d05e2516446f71f85b018290555060048190556040805182815263ffffffff841660208201527fcc58b13ad3eab50626c6a6300b1d139cd6ebb1688a7cced9461c2f7e762665ee910160405180910390a15b919050565b610a48610b7d565b6001600160a01b038116610aad5760405162461bcd60e51b815260206004820152602660248201527f4f776e61626c653a206e6577206f776e657220697320746865207a65726f206160448201526564647265737360d01b606482015260840161023c565b610ab681610bd7565b50565b600082815260016020526040902054610100900460ff16610b105760405162461bcd60e51b81526020600482015260116024820152701c995c5d595cdd081b9bdd08199bdd5b99607a1b604482015260640161023c565b6000828152600160208181526040909220805460ff1916821781558351610b3f93919092019190840190610d99565b507ffe2e2d779dba245964d4e3ef9b994be63856fd568bf7d3ca9e224755cb1bd54d8282604051610b71929190611186565b60405180910390a15050565b6000546001600160a01b031633146104175760405162461bcd60e51b815260206004820181905260248201527f4f776e61626c653a2063616c6c6572206973206e6f7420746865206f776e6572604482015260640161023c565b600080546001600160a01b038381166001600160a01b0319831681178455604051919092169283917f8be0079c531659141344cd1fd0a4f28419497f9722a3daafe3b4186f6b6457e09190a35050565b604051633e10510b60e01b815260009073222d6d17f1f6967b81e40624fe6176b7be225bee90819063187560ca908290633e10510b90610c699060040161119f565b600060405180830381865afa158015610c86573d6000803e3d6000fd5b505050506040513d6000823e601f3d908101601f19168201604052610cae9190810190611222565b6040518263ffffffff1660e01b8152600401610cca91906112b6565b602060405180830381865afa158015610ce7573d6000803e3d6000fd5b505050506040513d601f19601f82011682018060405250810190610d0b919061116d565b91505090565b604051633e10510b60e01b815260009073222d6d17f1f6967b81e40624fe6176b7be225bee908190633e10510b90610d4b906004016112e9565b600060405180830381865afa158015610d68573d6000803e3d6000fd5b505050506040513d6000823e601f3d908101601f19168201604052610d909190810190611222565b610d0b9061133a565b828054828255906000526020600020908101928215610dd4579160200282015b82811115610dd4578251825591602001919060010190610db9565b50610de0929150610de4565b5090565b5b80821115610de05760008155600101610de5565b634e487b7160e01b600052604160045260246000fd5b604051601f8201601f1916810167ffffffffffffffff81118282101715610e3857610e38610df9565b604052919050565b60008060408385031215610e5357600080fd5b8235915060208084013567ffffffffffffffff80821115610e7357600080fd5b818601915086601f830112610e8757600080fd5b813581811115610e9957610e99610df9565b8060051b9150610eaa848301610e0f565b8181529183018401918481019089841115610ec457600080fd5b938501935b83851015610ee257843582529385019390850190610ec9565b8096505050505050509250929050565b60008060408385031215610f0557600080fd5b50508035926020909101359150565b600081518084526020808501945080840160005b83811015610f4457815187529582019590820190600101610f28565b509495945050505050565b602081526000610f626020830184610f14565b9392505050565b80356001600160a01b0381168114610a3b57600080fd5b60008060408385031215610f9357600080fd5b610f9c83610f69565b946020939093013593505050565b60008060408385031215610fbd57600080fd5b823561ffff81168114610f9c57600080fd5b6020808252825182820181905260009190848201906040850190845b8181101561100b57835161ffff1683529284019291840191600101610feb565b50909695505050505050565b60006020828403121561102957600080fd5b5035919050565b821515815260406020820152600061104b6040830184610f14565b949350505050565b60006020828403121561106557600080fd5b813563ffffffff81168114610f6257600080fd5b60006020828403121561108b57600080fd5b610f6282610f69565b634e487b7160e01b600052603260045260246000fd5b634e487b7160e01b600052601160045260246000fd5b6000600182016110d2576110d26110aa565b5060010190565b6000828210156110eb576110eb6110aa565b500390565b60008261110d57634e487b7160e01b600052601260045260246000fd5b500690565b600081611121576111216110aa565b506000190190565b600061ffff808316818103611140576111406110aa565b6001019392505050565b600061ffff83811690831681811015611165576111656110aa565b039392505050565b60006020828403121561117f57600080fd5b5051919050565b82815260406020820152600061104b6040830184610f14565b6040815260006111c5604083016006815265049534f544f560d41b602082015260400190565b828103602093840152600e81526d14dd589cd8dc9a5c1d1a5bdb925160921b928101929092525060400190565b60005b8381101561120d5781810151838201526020016111f5565b8381111561121c576000848401525b50505050565b60006020828403121561123457600080fd5b815167ffffffffffffffff8082111561124c57600080fd5b818401915084601f83011261126057600080fd5b81518181111561127257611272610df9565b611285601f8201601f1916602001610e0f565b915080825285602082850101111561129c57600080fd5b6112ad8160208401602086016111f2565b50949350505050565b60208152600082518060208401526112d58160408501602087016111f2565b601f01601f19169190910160400192915050565b60408152600061130f604083016006815265049534f544f560d41b602082015260400190565b828103602093840152600c81526b4b45595f484153485f57454960a01b928101929092525060400190565b8051602080830151919081101561135b576000198160200360031b1b821691505b5091905056fea2646970667358221220e6cac204602d3ea6ab452c1576816f6d0c956f8cdc89249e42e8af2ab276400064736f6c634300080d0033",
  "bytecodeSha1": "229ca93317963b1ae565284f56b9cbea6adba207",
  "compiler": {
    "evm_version": "istanbul",
    "optimizer": {
      "enabled": true,
      "runs": 200
    },
    "version": "0.8.13+commit.abaa5c0e"
  },
  "contractName": "VRFGenerator",
  "language": "Solidity",
  "natspec": {
    "kind": "dev",
    "methods": {
      "constructor": {
        "notice": "COORDINATOR: Stored in DDS based on chain"
      },
      "owner()": {
        "details": "Returns the address of the current owner."
      },
      "renounceOwnership()": {
        "details": "Leaves the contract without owner. It will not be possible to call `onlyOwner` functions anymore. Can only be called by the current owner. NOTE: Renouncing ownership will leave the contract without an owner, thereby removing any functionality that is only available to the owner."
      },
      "transferOwnership(address)": {
        "details": "Transfers ownership of the contract to a new account (`newOwner`). Can only be called by the current owner."
      }
    },
    "version": 1
  },
  "opcodes": "PUSH1 0x80 PUSH1 0x40 MSTORE CALLVALUE DUP1 ISZERO PUSH2 0x10 JUMPI PUSH1 0x0 DUP1 REVERT JUMPDEST POP PUSH1 0x4 CALLDATASIZE LT PUSH2 0xB4 JUMPI PUSH1 0x0 CALLDATALOAD PUSH1 0xE0 SHR DUP1 PUSH4 0x8DA5CB5B GT PUSH2 0x71 JUMPI DUP1 PUSH4 0x8DA5CB5B EQ PUSH2 0x153 JUMPI DUP1 PUSH4 0xD826F88F EQ PUSH2 0x16E JUMPI DUP1 PUSH4 0xD8A4676F EQ PUSH2 0x176 JUMPI DUP1 PUSH4 0xE726F2E1 EQ PUSH2 0x197 JUMPI DUP1 PUSH4 0xF2FDE38B EQ PUSH2 0x1AA JUMPI DUP1 PUSH4 0xFC2A88C3 EQ PUSH2 0x1BD JUMPI PUSH1 0x0 DUP1 REVERT JUMPDEST DUP1 PUSH4 0x1FE543E3 EQ PUSH2 0xB9 JUMPI DUP1 PUSH4 0x29FA6D02 EQ PUSH2 0xCE JUMPI DUP1 PUSH4 0x715018A6 EQ PUSH2 0xF7 JUMPI DUP1 PUSH4 0x77754136 EQ PUSH2 0xFF JUMPI DUP1 PUSH4 0x8073AFCE EQ PUSH2 0x112 JUMPI DUP1 PUSH4 0x8796BA8C EQ PUSH2 0x132 JUMPI JUMPDEST PUSH1 0x0 DUP1 REVERT JUMPDEST PUSH2 0xCC PUSH2 0xC7 CALLDATASIZE PUSH1 0x4 PUSH2 0xE40 JUMP JUMPDEST PUSH2 0x1C6 JUMP JUMPDEST STOP JUMPDEST PUSH2 0xE1 PUSH2 0xDC CALLDATASIZE PUSH1 0x4 PUSH2 0xEF2 JUMP JUMPDEST PUSH2 0x253 JUMP JUMPDEST PUSH1 0x40 MLOAD PUSH2 0xEE SWAP2 SWAP1 PUSH2 0xF4F JUMP JUMPDEST PUSH1 0x40 MLOAD DUP1 SWAP2 SUB SWAP1 RETURN JUMPDEST PUSH2 0xCC PUSH2 0x405 JUMP JUMPDEST PUSH2 0xCC PUSH2 0x10D CALLDATASIZE PUSH1 0x4 PUSH2 0xF80 JUMP JUMPDEST PUSH2 0x419 JUMP JUMPDEST PUSH2 0x125 PUSH2 0x120 CALLDATASIZE PUSH1 0x4 PUSH2 0xFAA JUMP JUMPDEST PUSH2 0x43D JUMP JUMPDEST PUSH1 0x40 MLOAD PUSH2 0xEE SWAP2 SWAP1 PUSH2 0xFCF JUMP JUMPDEST PUSH2 0x145 PUSH2 0x140 CALLDATASIZE PUSH1 0x4 PUSH2 0x1017 JUMP JUMPDEST PUSH2 0x622 JUMP JUMPDEST PUSH1 0x40 MLOAD SWAP1 DUP2 MSTORE PUSH1 0x20 ADD PUSH2 0xEE JUMP JUMPDEST PUSH1 0x0 SLOAD PUSH1 0x40 MLOAD PUSH1 0x1 PUSH1 0x1 PUSH1 0xA0 SHL SUB SWAP1 SWAP2 AND DUP2 MSTORE PUSH1 0x20 ADD PUSH2 0xEE JUMP JUMPDEST PUSH2 0xCC PUSH2 0x643 JUMP JUMPDEST PUSH2 0x189 PUSH2 0x184 CALLDATASIZE PUSH1 0x4 PUSH2 0x1017 JUMP JUMPDEST PUSH2 0x659 JUMP JUMPDEST PUSH1 0x40 MLOAD PUSH2 0xEE SWAP3 SWAP2 SWAP1 PUSH2 0x1030 JUMP JUMPDEST PUSH2 0x145 PUSH2 0x1A5 CALLDATASIZE PUSH1 0x4 PUSH2 0x1053 JUMP JUMPDEST PUSH2 0x7BA JUMP JUMPDEST PUSH2 0xCC PUSH2 0x1B8 CALLDATASIZE PUSH1 0x4 PUSH2 0x1079 JUMP JUMPDEST PUSH2 0xA40 JUMP JUMPDEST PUSH2 0x145 PUSH1 0x4 SLOAD DUP2 JUMP JUMPDEST CALLER PUSH1 0x1 PUSH1 0x1 PUSH1 0xA0 SHL SUB PUSH32 0x0 AND EQ PUSH2 0x245 JUMPI PUSH1 0x40 MLOAD PUSH4 0x73E64FD PUSH1 0xE2 SHL DUP2 MSTORE CALLER PUSH1 0x4 DUP3 ADD MSTORE PUSH1 0x1 PUSH1 0x1 PUSH1 0xA0 SHL SUB PUSH32 0x0 AND PUSH1 0x24 DUP3 ADD MSTORE PUSH1 0x44 ADD JUMPDEST PUSH1 0x40 MLOAD DUP1 SWAP2 SUB SWAP1 REVERT JUMPDEST PUSH2 0x24F DUP3 DUP3 PUSH2 0xAB9 JUMP JUMPDEST POP POP JUMP JUMPDEST PUSH1 0x60 PUSH1 0x0 DUP4 PUSH8 0xFFFFFFFFFFFFFFFF DUP2 GT ISZERO PUSH2 0x270 JUMPI PUSH2 0x270 PUSH2 0xDF9 JUMP JUMPDEST PUSH1 0x40 MLOAD SWAP1 DUP1 DUP3 MSTORE DUP1 PUSH1 0x20 MUL PUSH1 0x20 ADD DUP3 ADD PUSH1 0x40 MSTORE DUP1 ISZERO PUSH2 0x299 JUMPI DUP2 PUSH1 0x20 ADD PUSH1 0x20 DUP3 MUL DUP1 CALLDATASIZE DUP4 CALLDATACOPY ADD SWAP1 POP JUMPDEST POP SWAP1 POP PUSH1 0x0 JUMPDEST DUP5 DUP2 LT ISZERO PUSH2 0x2D7 JUMPI DUP1 DUP3 DUP3 DUP2 MLOAD DUP2 LT PUSH2 0x2BA JUMPI PUSH2 0x2BA PUSH2 0x1094 JUMP JUMPDEST PUSH1 0x20 SWAP1 DUP2 MUL SWAP2 SWAP1 SWAP2 ADD ADD MSTORE DUP1 PUSH2 0x2CF DUP2 PUSH2 0x10C0 JUMP JUMPDEST SWAP2 POP POP PUSH2 0x29F JUMP JUMPDEST POP PUSH1 0x0 DUP4 PUSH1 0x40 MLOAD PUSH1 0x20 ADD PUSH2 0x2ED SWAP2 DUP2 MSTORE PUSH1 0x20 ADD SWAP1 JUMP JUMPDEST PUSH1 0x40 MLOAD PUSH1 0x20 DUP2 DUP4 SUB SUB DUP2 MSTORE SWAP1 PUSH1 0x40 MSTORE DUP1 MLOAD SWAP1 PUSH1 0x20 ADD KECCAK256 SWAP1 POP PUSH1 0x0 PUSH1 0x1 DUP7 PUSH2 0x314 SWAP2 SWAP1 PUSH2 0x10D9 JUMP JUMPDEST SWAP1 POP PUSH1 0x1 JUMPDEST PUSH2 0x324 PUSH1 0x1 DUP9 PUSH2 0x10D9 JUMP JUMPDEST DUP2 LT ISZERO PUSH2 0x3FA JUMPI PUSH1 0x0 PUSH2 0x337 DUP4 DUP6 PUSH2 0x10F0 JUMP JUMPDEST SWAP1 POP PUSH1 0x0 DUP6 DUP5 DUP2 MLOAD DUP2 LT PUSH2 0x34D JUMPI PUSH2 0x34D PUSH2 0x1094 JUMP JUMPDEST PUSH1 0x20 MUL PUSH1 0x20 ADD ADD MLOAD SWAP1 POP DUP6 DUP3 DUP2 MLOAD DUP2 LT PUSH2 0x369 JUMPI PUSH2 0x369 PUSH2 0x1094 JUMP JUMPDEST PUSH1 0x20 MUL PUSH1 0x20 ADD ADD MLOAD DUP7 DUP6 DUP2 MLOAD DUP2 LT PUSH2 0x383 JUMPI PUSH2 0x383 PUSH2 0x1094 JUMP JUMPDEST PUSH1 0x20 MUL PUSH1 0x20 ADD ADD DUP2 DUP2 MSTORE POP POP DUP1 DUP7 DUP4 DUP2 MLOAD DUP2 LT PUSH2 0x3A2 JUMPI PUSH2 0x3A2 PUSH2 0x1094 JUMP JUMPDEST PUSH1 0x20 SWAP1 DUP2 MUL SWAP2 SWAP1 SWAP2 ADD ADD MSTORE DUP4 PUSH2 0x3B7 DUP2 PUSH2 0x1112 JUMP JUMPDEST SWAP5 POP POP DUP5 PUSH1 0x40 MLOAD PUSH1 0x20 ADD PUSH2 0x3CD SWAP2 DUP2 MSTORE PUSH1 0x20 ADD SWAP1 JUMP JUMPDEST PUSH1 0x40 MLOAD PUSH1 0x20 DUP2 DUP4 SUB SUB DUP2 MSTORE SWAP1 PUSH1 0x40 MSTORE DUP1 MLOAD SWAP1 PUSH1 0x20 ADD KECCAK256 SWAP5 POP POP POP DUP1 DUP1 PUSH2 0x3F2 SWAP1 PUSH2 0x10C0 JUMP JUMPDEST SWAP2 POP POP PUSH2 0x319 JUMP JUMPDEST POP SWAP2 SWAP6 SWAP5 POP POP POP POP POP JUMP JUMPDEST PUSH2 0x40D PUSH2 0xB7D JUMP JUMPDEST PUSH2 0x417 PUSH1 0x0 PUSH2 0xBD7 JUMP JUMPDEST JUMP JUMPDEST PUSH2 0x421 PUSH2 0xB7D JUMP JUMPDEST PUSH1 0x1 PUSH1 0x1 PUSH1 0xA0 SHL SUB SWAP1 SWAP2 AND PUSH1 0x0 SWAP1 DUP2 MSTORE PUSH1 0x6 PUSH1 0x20 MSTORE PUSH1 0x40 SWAP1 KECCAK256 SSTORE JUMP JUMPDEST PUSH1 0x60 PUSH1 0x0 DUP4 PUSH2 0xFFFF AND PUSH8 0xFFFFFFFFFFFFFFFF DUP2 GT ISZERO PUSH2 0x45E JUMPI PUSH2 0x45E PUSH2 0xDF9 JUMP JUMPDEST PUSH1 0x40 MLOAD SWAP1 DUP1 DUP3 MSTORE DUP1 PUSH1 0x20 MUL PUSH1 0x20 ADD DUP3 ADD PUSH1 0x40 MSTORE DUP1 ISZERO PUSH2 0x487 JUMPI DUP2 PUSH1 0x20 ADD PUSH1 0x20 DUP3 MUL DUP1 CALLDATASIZE DUP4 CALLDATACOPY ADD SWAP1 POP JUMPDEST POP SWAP1 POP PUSH1 0x0 JUMPDEST DUP5 PUSH2 0xFFFF AND DUP2 PUSH2 0xFFFF AND LT ISZERO PUSH2 0x4D9 JUMPI DUP1 DUP3 DUP3 PUSH2 0xFFFF AND DUP2 MLOAD DUP2 LT PUSH2 0x4B4 JUMPI PUSH2 0x4B4 PUSH2 0x1094 JUMP JUMPDEST PUSH2 0xFFFF SWAP1 SWAP3 AND PUSH1 0x20 SWAP3 DUP4 MUL SWAP2 SWAP1 SWAP2 ADD SWAP1 SWAP2 ADD MSTORE DUP1 PUSH2 0x4D1 DUP2 PUSH2 0x1129 JUMP JUMPDEST SWAP2 POP POP PUSH2 0x48D JUMP JUMPDEST POP PUSH1 0x0 DUP4 PUSH1 0x40 MLOAD PUSH1 0x20 ADD PUSH2 0x4EF SWAP2 DUP2 MSTORE PUSH1 0x20 ADD SWAP1 JUMP JUMPDEST PUSH1 0x40 MLOAD PUSH1 0x20 DUP2 DUP4 SUB SUB DUP2 MSTORE SWAP1 PUSH1 0x40 MSTORE DUP1 MLOAD SWAP1 PUSH1 0x20 ADD KECCAK256 SWAP1 POP PUSH1 0x0 PUSH1 0x1 DUP7 PUSH2 0x516 SWAP2 SWAP1 PUSH2 0x114A JUMP JUMPDEST PUSH2 0xFFFF AND SWAP1 POP PUSH1 0x1 JUMPDEST PUSH2 0x52A PUSH1 0x1 DUP9 PUSH2 0x114A JUMP JUMPDEST PUSH2 0xFFFF AND DUP2 PUSH2 0xFFFF AND LT ISZERO PUSH2 0x3FA JUMPI PUSH1 0x0 PUSH2 0x545 DUP4 DUP6 PUSH2 0x10F0 JUMP JUMPDEST SWAP1 POP PUSH1 0x0 DUP6 DUP5 DUP2 MLOAD DUP2 LT PUSH2 0x55B JUMPI PUSH2 0x55B PUSH2 0x1094 JUMP JUMPDEST PUSH1 0x20 MUL PUSH1 0x20 ADD ADD MLOAD SWAP1 POP DUP6 DUP3 PUSH2 0xFFFF AND DUP2 MLOAD DUP2 LT PUSH2 0x57B JUMPI PUSH2 0x57B PUSH2 0x1094 JUMP JUMPDEST PUSH1 0x20 MUL PUSH1 0x20 ADD ADD MLOAD DUP7 DUP6 DUP2 MLOAD DUP2 LT PUSH2 0x595 JUMPI PUSH2 0x595 PUSH2 0x1094 JUMP JUMPDEST PUSH1 0x20 MUL PUSH1 0x20 ADD ADD SWAP1 PUSH2 0xFFFF AND SWAP1 DUP2 PUSH2 0xFFFF AND DUP2 MSTORE POP POP DUP1 DUP7 DUP4 PUSH2 0xFFFF AND DUP2 MLOAD DUP2 LT PUSH2 0x5C2 JUMPI PUSH2 0x5C2 PUSH2 0x1094 JUMP JUMPDEST PUSH2 0xFFFF SWAP1 SWAP3 AND PUSH1 0x20 SWAP3 DUP4 MUL SWAP2 SWAP1 SWAP2 ADD SWAP1 SWAP2 ADD MSTORE DUP4 PUSH2 0x5DF DUP2 PUSH2 0x1112 JUMP JUMPDEST SWAP5 POP POP DUP5 PUSH1 0x40 MLOAD PUSH1 0x20 ADD PUSH2 0x5F5 SWAP2 DUP2 MSTORE PUSH1 0x20 ADD SWAP1 JUMP JUMPDEST PUSH1 0x40 MLOAD PUSH1 0x20 DUP2 DUP4 SUB SUB DUP2 MSTORE SWAP1 PUSH1 0x40 MSTORE DUP1 MLOAD SWAP1 PUSH1 0x20 ADD KECCAK256 SWAP5 POP POP POP DUP1 DUP1 PUSH2 0x61A SWAP1 PUSH2 0x1129 JUMP JUMPDEST SWAP2 POP POP PUSH2 0x51F JUMP JUMPDEST PUSH1 0x3 DUP2 DUP2 SLOAD DUP2 LT PUSH2 0x632 JUMPI PUSH1 0x0 DUP1 REVERT JUMPDEST PUSH1 0x0 SWAP2 DUP3 MSTORE PUSH1 0x20 SWAP1 SWAP2 KECCAK256 ADD SLOAD SWAP1 POP DUP2 JUMP JUMPDEST PUSH2 0x64B PUSH2 0xB7D JUMP JUMPDEST PUSH1 0x0 SLOAD PUSH1 0x1 PUSH1 0x1 PUSH1 0xA0 SHL SUB AND SELFDESTRUCT JUMPDEST PUSH1 0x0 DUP2 DUP2 MSTORE PUSH1 0x1 PUSH1 0x20 MSTORE PUSH1 0x40 DUP2 KECCAK256 SLOAD PUSH1 0x60 SWAP1 PUSH2 0x100 SWAP1 DIV PUSH1 0xFF AND PUSH2 0x6B3 JUMPI PUSH1 0x40 MLOAD PUSH3 0x461BCD PUSH1 0xE5 SHL DUP2 MSTORE PUSH1 0x20 PUSH1 0x4 DUP3 ADD MSTORE PUSH1 0x11 PUSH1 0x24 DUP3 ADD MSTORE PUSH17 0x1C995C5D595CDD081B9BDD08199BDD5B99 PUSH1 0x7A SHL PUSH1 0x44 DUP3 ADD MSTORE PUSH1 0x64 ADD PUSH2 0x23C JUMP JUMPDEST PUSH1 0x0 DUP4 DUP2 MSTORE PUSH1 0x1 PUSH1 0x20 MSTORE PUSH1 0x40 SWAP1 KECCAK256 SLOAD PUSH3 0x10000 SWAP1 DIV PUSH1 0x1 PUSH1 0x1 PUSH1 0xA0 SHL SUB AND CALLER EQ PUSH2 0x70C JUMPI PUSH1 0x40 MLOAD PUSH3 0x461BCD PUSH1 0xE5 SHL DUP2 MSTORE PUSH1 0x20 PUSH1 0x4 DUP3 ADD MSTORE PUSH1 0xA PUSH1 0x24 DUP3 ADD MSTORE PUSH10 0x37B7363C9037BBB732B9 PUSH1 0xB1 SHL PUSH1 0x44 DUP3 ADD MSTORE PUSH1 0x64 ADD PUSH2 0x23C JUMP JUMPDEST PUSH1 0x0 DUP4 DUP2 MSTORE PUSH1 0x1 PUSH1 0x20 DUP2 DUP2 MSTORE PUSH1 0x40 DUP1 DUP5 KECCAK256 DUP2 MLOAD PUSH1 0x80 DUP2 ADD DUP4 MSTORE DUP2 SLOAD PUSH1 0xFF DUP1 DUP3 AND ISZERO ISZERO DUP4 MSTORE PUSH2 0x100 DUP3 DIV AND ISZERO ISZERO DUP3 DUP7 ADD MSTORE PUSH3 0x10000 SWAP1 DIV PUSH1 0x1 PUSH1 0x1 PUSH1 0xA0 SHL SUB AND DUP2 DUP5 ADD MSTORE SWAP4 DUP2 ADD DUP1 SLOAD DUP4 MLOAD DUP2 DUP7 MUL DUP2 ADD DUP7 ADD SWAP1 SWAP5 MSTORE DUP1 DUP5 MSTORE SWAP2 SWAP4 PUSH1 0x60 DUP7 ADD SWAP4 SWAP3 SWAP1 DUP4 ADD DUP3 DUP3 DUP1 ISZERO PUSH2 0x79B JUMPI PUSH1 0x20 MUL DUP3 ADD SWAP2 SWAP1 PUSH1 0x0 MSTORE PUSH1 0x20 PUSH1 0x0 KECCAK256 SWAP1 JUMPDEST DUP2 SLOAD DUP2 MSTORE PUSH1 0x20 ADD SWAP1 PUSH1 0x1 ADD SWAP1 DUP1 DUP4 GT PUSH2 0x787 JUMPI JUMPDEST POP POP POP POP POP DUP2 MSTORE POP POP SWAP1 POP DUP1 PUSH1 0x0 ADD MLOAD DUP2 PUSH1 0x60 ADD MLOAD SWAP3 POP SWAP3 POP POP SWAP2 POP SWAP2 JUMP JUMPDEST PUSH1 0x0 DUP1 SLOAD PUSH1 0x1 PUSH1 0x1 PUSH1 0xA0 SHL SUB AND CALLER EQ DUP1 PUSH2 0x7E1 JUMPI POP CALLER PUSH1 0x0 SWAP1 DUP2 MSTORE PUSH1 0x6 PUSH1 0x20 MSTORE PUSH1 0x40 SWAP1 KECCAK256 SLOAD ISZERO JUMPDEST DUP1 PUSH2 0x7FA JUMPI POP CALLER PUSH1 0x0 SWAP1 DUP2 MSTORE PUSH1 0x6 PUSH1 0x20 MSTORE PUSH1 0x40 SWAP1 KECCAK256 SLOAD TIMESTAMP LT JUMPDEST PUSH2 0x846 JUMPI PUSH1 0x40 MLOAD PUSH3 0x461BCD PUSH1 0xE5 SHL DUP2 MSTORE PUSH1 0x20 PUSH1 0x4 DUP3 ADD MSTORE PUSH1 0x1D PUSH1 0x24 DUP3 ADD MSTORE PUSH32 0x4F70657261746F72204E6F742056616C6964204F722045787069726564000000 PUSH1 0x44 DUP3 ADD MSTORE PUSH1 0x64 ADD PUSH2 0x23C JUMP JUMPDEST PUSH2 0x84E PUSH2 0xC27 JUMP JUMPDEST PUSH8 0xFFFFFFFFFFFFFFFF AND PUSH1 0x0 SUB PUSH2 0x867 JUMPI POP PUSH1 0x0 SWAP2 SWAP1 POP JUMP JUMPDEST PUSH1 0x2 SLOAD PUSH1 0x1 PUSH1 0x1 PUSH1 0xA0 SHL SUB AND PUSH4 0x5D3B1D30 PUSH2 0x880 PUSH2 0xD11 JUMP JUMPDEST PUSH2 0x888 PUSH2 0xC27 JUMP JUMPDEST PUSH1 0x5 SLOAD PUSH1 0x40 MLOAD PUSH1 0xE0 DUP6 SWAP1 SHL PUSH1 0x1 PUSH1 0x1 PUSH1 0xE0 SHL SUB NOT AND DUP2 MSTORE PUSH1 0x4 DUP2 ADD SWAP4 SWAP1 SWAP4 MSTORE PUSH8 0xFFFFFFFFFFFFFFFF SWAP1 SWAP2 AND PUSH1 0x24 DUP4 ADD MSTORE PUSH5 0x100000000 DUP2 DIV PUSH2 0xFFFF AND PUSH1 0x44 DUP4 ADD MSTORE PUSH4 0xFFFFFFFF SWAP1 DUP2 AND PUSH1 0x64 DUP4 ADD MSTORE DUP6 AND PUSH1 0x84 DUP3 ADD MSTORE PUSH1 0xA4 ADD PUSH1 0x20 PUSH1 0x40 MLOAD DUP1 DUP4 SUB DUP2 PUSH1 0x0 DUP8 GAS CALL ISZERO DUP1 ISZERO PUSH2 0x8FF JUMPI RETURNDATASIZE PUSH1 0x0 DUP1 RETURNDATACOPY RETURNDATASIZE PUSH1 0x0 REVERT JUMPDEST POP POP POP POP PUSH1 0x40 MLOAD RETURNDATASIZE PUSH1 0x1F NOT PUSH1 0x1F DUP3 ADD AND DUP3 ADD DUP1 PUSH1 0x40 MSTORE POP DUP2 ADD SWAP1 PUSH2 0x923 SWAP2 SWAP1 PUSH2 0x116D JUMP JUMPDEST PUSH1 0x40 DUP1 MLOAD PUSH1 0x80 DUP2 ADD DUP3 MSTORE PUSH1 0x0 DUP1 DUP3 MSTORE PUSH1 0x1 PUSH1 0x20 DUP1 DUP5 ADD DUP3 DUP2 MSTORE CALLER DUP6 DUP8 ADD SWAP1 DUP2 MSTORE DUP7 MLOAD DUP6 DUP2 MSTORE DUP1 DUP5 ADD DUP9 MSTORE PUSH1 0x60 DUP8 ADD SWAP1 DUP2 MSTORE DUP9 DUP7 MSTORE DUP5 DUP5 MSTORE SWAP7 SWAP1 SWAP5 KECCAK256 DUP6 MLOAD DUP2 SLOAD SWAP3 MLOAD SWAP6 MLOAD PUSH1 0x1 PUSH1 0x1 PUSH1 0xA0 SHL SUB AND PUSH3 0x10000 MUL PUSH3 0x10000 PUSH1 0x1 PUSH1 0xB0 SHL SUB NOT SWAP7 ISZERO ISZERO PUSH2 0x100 MUL PUSH2 0xFF00 NOT SWAP3 ISZERO ISZERO SWAP3 SWAP1 SWAP3 AND PUSH2 0xFFFF NOT SWAP1 SWAP5 AND SWAP4 SWAP1 SWAP4 OR OR SWAP5 SWAP1 SWAP5 AND OR DUP4 SSTORE SWAP4 MLOAD DUP1 MLOAD SWAP6 SWAP7 POP SWAP3 SWAP5 SWAP2 SWAP4 PUSH2 0x9BF SWAP4 SWAP2 DUP6 ADD SWAP3 SWAP2 ADD SWAP1 PUSH2 0xD99 JUMP JUMPDEST POP POP PUSH1 0x3 DUP1 SLOAD PUSH1 0x1 DUP2 ADD DUP3 SSTORE PUSH1 0x0 SWAP2 SWAP1 SWAP2 MSTORE PUSH32 0xC2575A0E9E593C00F959F8C92F12DB2869C3395A3B0502D05E2516446F71F85B ADD DUP3 SWAP1 SSTORE POP PUSH1 0x4 DUP2 SWAP1 SSTORE PUSH1 0x40 DUP1 MLOAD DUP3 DUP2 MSTORE PUSH4 0xFFFFFFFF DUP5 AND PUSH1 0x20 DUP3 ADD MSTORE PUSH32 0xCC58B13AD3EAB50626C6A6300B1D139CD6EBB1688A7CCED9461C2F7E762665EE SWAP2 ADD PUSH1 0x40 MLOAD DUP1 SWAP2 SUB SWAP1 LOG1 JUMPDEST SWAP2 SWAP1 POP JUMP JUMPDEST PUSH2 0xA48 PUSH2 0xB7D JUMP JUMPDEST PUSH1 0x1 PUSH1 0x1 PUSH1 0xA0 SHL SUB DUP2 AND PUSH2 0xAAD JUMPI PUSH1 0x40 MLOAD PUSH3 0x461BCD PUSH1 0xE5 SHL DUP2 MSTORE PUSH1 0x20 PUSH1 0x4 DUP3 ADD MSTORE PUSH1 0x26 PUSH1 0x24 DUP3 ADD MSTORE PUSH32 0x4F776E61626C653A206E6577206F776E657220697320746865207A65726F2061 PUSH1 0x44 DUP3 ADD MSTORE PUSH6 0x646472657373 PUSH1 0xD0 SHL PUSH1 0x64 DUP3 ADD MSTORE PUSH1 0x84 ADD PUSH2 0x23C JUMP JUMPDEST PUSH2 0xAB6 DUP2 PUSH2 0xBD7 JUMP JUMPDEST POP JUMP JUMPDEST PUSH1 0x0 DUP3 DUP2 MSTORE PUSH1 0x1 PUSH1 0x20 MSTORE PUSH1 0x40 SWAP1 KECCAK256 SLOAD PUSH2 0x100 SWAP1 DIV PUSH1 0xFF AND PUSH2 0xB10 JUMPI PUSH1 0x40 MLOAD PUSH3 0x461BCD PUSH1 0xE5 SHL DUP2 MSTORE PUSH1 0x20 PUSH1 0x4 DUP3 ADD MSTORE PUSH1 0x11 PUSH1 0x24 DUP3 ADD MSTORE PUSH17 0x1C995C5D595CDD081B9BDD08199BDD5B99 PUSH1 0x7A SHL PUSH1 0x44 DUP3 ADD MSTORE PUSH1 0x64 ADD PUSH2 0x23C JUMP JUMPDEST PUSH1 0x0 DUP3 DUP2 MSTORE PUSH1 0x1 PUSH1 0x20 DUP2 DUP2 MSTORE PUSH1 0x40 SWAP1 SWAP3 KECCAK256 DUP1 SLOAD PUSH1 0xFF NOT AND DUP3 OR DUP2 SSTORE DUP4 MLOAD PUSH2 0xB3F SWAP4 SWAP2 SWAP1 SWAP3 ADD SWAP2 SWAP1 DUP5 ADD SWAP1 PUSH2 0xD99 JUMP JUMPDEST POP PUSH32 0xFE2E2D779DBA245964D4E3EF9B994BE63856FD568BF7D3CA9E224755CB1BD54D DUP3 DUP3 PUSH1 0x40 MLOAD PUSH2 0xB71 SWAP3 SWAP2 SWAP1 PUSH2 0x1186 JUMP JUMPDEST PUSH1 0x40 MLOAD DUP1 SWAP2 SUB SWAP1 LOG1 POP POP JUMP JUMPDEST PUSH1 0x0 SLOAD PUSH1 0x1 PUSH1 0x1 PUSH1 0xA0 SHL SUB AND CALLER EQ PUSH2 0x417 JUMPI PUSH1 0x40 MLOAD PUSH3 0x461BCD PUSH1 0xE5 SHL DUP2 MSTORE PUSH1 0x20 PUSH1 0x4 DUP3 ADD DUP2 SWAP1 MSTORE PUSH1 0x24 DUP3 ADD MSTORE PUSH32 0x4F776E61626C653A2063616C6C6572206973206E6F7420746865206F776E6572 PUSH1 0x44 DUP3 ADD MSTORE PUSH1 0x64 ADD PUSH2 0x23C JUMP JUMPDEST PUSH1 0x0 DUP1 SLOAD PUSH1 0x1 PUSH1 0x1 PUSH1 0xA0 SHL SUB DUP4 DUP2 AND PUSH1 0x1 PUSH1 0x1 PUSH1 0xA0 SHL SUB NOT DUP4 AND DUP2 OR DUP5 SSTORE PUSH1 0x40 MLOAD SWAP2 SWAP1 SWAP3 AND SWAP3 DUP4 SWAP2 PUSH32 0x8BE0079C531659141344CD1FD0A4F28419497F9722A3DAAFE3B4186F6B6457E0 SWAP2 SWAP1 LOG3 POP POP JUMP JUMPDEST PUSH1 0x40 MLOAD PUSH4 0x3E10510B PUSH1 0xE0 SHL DUP2 MSTORE PUSH1 0x0 SWAP1 PUSH20 0x222D6D17F1F6967B81E40624FE6176B7BE225BEE SWAP1 DUP2 SWAP1 PUSH4 0x187560CA SWAP1 DUP3 SWAP1 PUSH4 0x3E10510B SWAP1 PUSH2 0xC69 SWAP1 PUSH1 0x4 ADD PUSH2 0x119F JUMP JUMPDEST PUSH1 0x0 PUSH1 0x40 MLOAD DUP1 DUP4 SUB DUP2 DUP7 GAS STATICCALL ISZERO DUP1 ISZERO PUSH2 0xC86 JUMPI RETURNDATASIZE PUSH1 0x0 DUP1 RETURNDATACOPY RETURNDATASIZE PUSH1 0x0 REVERT JUMPDEST POP POP POP POP PUSH1 0x40 MLOAD RETURNDATASIZE PUSH1 0x0 DUP3 RETURNDATACOPY PUSH1 0x1F RETURNDATASIZE SWAP1 DUP2 ADD PUSH1 0x1F NOT AND DUP3 ADD PUSH1 0x40 MSTORE PUSH2 0xCAE SWAP2 SWAP1 DUP2 ADD SWAP1 PUSH2 0x1222 JUMP JUMPDEST PUSH1 0x40 MLOAD DUP3 PUSH4 0xFFFFFFFF AND PUSH1 0xE0 SHL DUP2 MSTORE PUSH1 0x4 ADD PUSH2 0xCCA SWAP2 SWAP1 PUSH2 0x12B6 JUMP JUMPDEST PUSH1 0x20 PUSH1 0x40 MLOAD DUP1 DUP4 SUB DUP2 DUP7 GAS STATICCALL ISZERO DUP1 ISZERO PUSH2 0xCE7 JUMPI RETURNDATASIZE PUSH1 0x0 DUP1 RETURNDATACOPY RETURNDATASIZE PUSH1 0x0 REVERT JUMPDEST POP POP POP POP PUSH1 0x40 MLOAD RETURNDATASIZE PUSH1 0x1F NOT PUSH1 0x1F DUP3 ADD AND DUP3 ADD DUP1 PUSH1 0x40 MSTORE POP DUP2 ADD SWAP1 PUSH2 0xD0B SWAP2 SWAP1 PUSH2 0x116D JUMP JUMPDEST SWAP2 POP POP SWAP1 JUMP JUMPDEST PUSH1 0x40 MLOAD PUSH4 0x3E10510B PUSH1 0xE0 SHL DUP2 MSTORE PUSH1 0x0 SWAP1 PUSH20 0x222D6D17F1F6967B81E40624FE6176B7BE225BEE SWAP1 DUP2 SWAP1 PUSH4 0x3E10510B SWAP1 PUSH2 0xD4B SWAP1 PUSH1 0x4 ADD PUSH2 0x12E9 JUMP JUMPDEST PUSH1 0x0 PUSH1 0x40 MLOAD DUP1 DUP4 SUB DUP2 DUP7 GAS STATICCALL ISZERO DUP1 ISZERO PUSH2 0xD68 JUMPI RETURNDATASIZE PUSH1 0x0 DUP1 RETURNDATACOPY RETURNDATASIZE PUSH1 0x0 REVERT JUMPDEST POP POP POP POP PUSH1 0x40 MLOAD RETURNDATASIZE PUSH1 0x0 DUP3 RETURNDATACOPY PUSH1 0x1F RETURNDATASIZE SWAP1 DUP2 ADD PUSH1 0x1F NOT AND DUP3 ADD PUSH1 0x40 MSTORE PUSH2 0xD90 SWAP2 SWAP1 DUP2 ADD SWAP1 PUSH2 0x1222 JUMP JUMPDEST PUSH2 0xD0B SWAP1 PUSH2 0x133A JUMP JUMPDEST DUP3 DUP1 SLOAD DUP3 DUP3 SSTORE SWAP1 PUSH1 0x0 MSTORE PUSH1 0x20 PUSH1 0x0 KECCAK256 SWAP1 DUP2 ADD SWAP3 DUP3 ISZERO PUSH2 0xDD4 JUMPI SWAP2 PUSH1 0x20 MUL DUP3 ADD JUMPDEST DUP3 DUP2 GT ISZERO PUSH2 0xDD4 JUMPI DUP3 MLOAD DUP3 SSTORE SWAP2 PUSH1 0x20 ADD SWAP2 SWAP1 PUSH1 0x1 ADD SWAP1 PUSH2 0xDB9 JUMP JUMPDEST POP PUSH2 0xDE0 SWAP3 SWAP2 POP PUSH2 0xDE4 JUMP JUMPDEST POP SWAP1 JUMP JUMPDEST JUMPDEST DUP1 DUP3 GT ISZERO PUSH2 0xDE0 JUMPI PUSH1 0x0 DUP2 SSTORE PUSH1 0x1 ADD PUSH2 0xDE5 JUMP JUMPDEST PUSH4 0x4E487B71 PUSH1 0xE0 SHL PUSH1 0x0 MSTORE PUSH1 0x41 PUSH1 0x4 MSTORE PUSH1 0x24 PUSH1 0x0 REVERT JUMPDEST PUSH1 0x40 MLOAD PUSH1 0x1F DUP3 ADD PUSH1 0x1F NOT AND DUP2 ADD PUSH8 0xFFFFFFFFFFFFFFFF DUP2 GT DUP3 DUP3 LT OR ISZERO PUSH2 0xE38 JUMPI PUSH2 0xE38 PUSH2 0xDF9 JUMP JUMPDEST PUSH1 0x40 MSTORE SWAP2 SWAP1 POP JUMP JUMPDEST PUSH1 0x0 DUP1 PUSH1 0x40 DUP4 DUP6 SUB SLT ISZERO PUSH2 0xE53 JUMPI PUSH1 0x0 DUP1 REVERT JUMPDEST DUP3 CALLDATALOAD SWAP2 POP PUSH1 0x20 DUP1 DUP5 ADD CALLDATALOAD PUSH8 0xFFFFFFFFFFFFFFFF DUP1 DUP3 GT ISZERO PUSH2 0xE73 JUMPI PUSH1 0x0 DUP1 REVERT JUMPDEST DUP2 DUP7 ADD SWAP2 POP DUP7 PUSH1 0x1F DUP4 ADD SLT PUSH2 0xE87 JUMPI PUSH1 0x0 DUP1 REVERT JUMPDEST DUP2 CALLDATALOAD DUP2 DUP2 GT ISZERO PUSH2 0xE99 JUMPI PUSH2 0xE99 PUSH2 0xDF9 JUMP JUMPDEST DUP1 PUSH1 0x5 SHL SWAP2 POP PUSH2 0xEAA DUP5 DUP4 ADD PUSH2 0xE0F JUMP JUMPDEST DUP2 DUP2 MSTORE SWAP2 DUP4 ADD DUP5 ADD SWAP2 DUP5 DUP2 ADD SWAP1 DUP10 DUP5 GT ISZERO PUSH2 0xEC4 JUMPI PUSH1 0x0 DUP1 REVERT JUMPDEST SWAP4 DUP6 ADD SWAP4 JUMPDEST DUP4 DUP6 LT ISZERO PUSH2 0xEE2 JUMPI DUP5 CALLDATALOAD DUP3 MSTORE SWAP4 DUP6 ADD SWAP4 SWAP1 DUP6 ADD SWAP1 PUSH2 0xEC9 JUMP JUMPDEST DUP1 SWAP7 POP POP POP POP POP POP POP SWAP3 POP SWAP3 SWAP1 POP JUMP JUMPDEST PUSH1 0x0 DUP1 PUSH1 0x40 DUP4 DUP6 SUB SLT ISZERO PUSH2 0xF05 JUMPI PUSH1 0x0 DUP1 REVERT JUMPDEST POP POP DUP1 CALLDATALOAD SWAP3 PUSH1 0x20 SWAP1 SWAP2 ADD CALLDATALOAD SWAP2 POP JUMP JUMPDEST PUSH1 0x0 DUP2 MLOAD DUP1 DUP5 MSTORE PUSH1 0x20 DUP1 DUP6 ADD SWAP5 POP DUP1 DUP5 ADD PUSH1 0x0 JUMPDEST DUP4 DUP2 LT ISZERO PUSH2 0xF44 JUMPI DUP2 MLOAD DUP8 MSTORE SWAP6 DUP3 ADD SWAP6 SWAP1 DUP3 ADD SWAP1 PUSH1 0x1 ADD PUSH2 0xF28 JUMP JUMPDEST POP SWAP5 SWAP6 SWAP5 POP POP POP POP POP JUMP JUMPDEST PUSH1 0x20 DUP2 MSTORE PUSH1 0x0 PUSH2 0xF62 PUSH1 0x20 DUP4 ADD DUP5 PUSH2 0xF14 JUMP JUMPDEST SWAP4 SWAP3 POP POP POP JUMP JUMPDEST DUP1 CALLDATALOAD PUSH1 0x1 PUSH1 0x1 PUSH1 0xA0 SHL SUB DUP2 AND DUP2 EQ PUSH2 0xA3B JUMPI PUSH1 0x0 DUP1 REVERT JUMPDEST PUSH1 0x0 DUP1 PUSH1 0x40 DUP4 DUP6 SUB SLT ISZERO PUSH2 0xF93 JUMPI PUSH1 0x0 DUP1 REVERT JUMPDEST PUSH2 0xF9C DUP4 PUSH2 0xF69 JUMP JUMPDEST SWAP5 PUSH1 0x20 SWAP4 SWAP1 SWAP4 ADD CALLDATALOAD SWAP4 POP POP POP JUMP JUMPDEST PUSH1 0x0 DUP1 PUSH1 0x40 DUP4 DUP6 SUB SLT ISZERO PUSH2 0xFBD JUMPI PUSH1 0x0 DUP1 REVERT JUMPDEST DUP3 CALLDATALOAD PUSH2 0xFFFF DUP2 AND DUP2 EQ PUSH2 0xF9C JUMPI PUSH1 0x0 DUP1 REVERT JUMPDEST PUSH1 0x20 DUP1 DUP3 MSTORE DUP3 MLOAD DUP3 DUP3 ADD DUP2 SWAP1 MSTORE PUSH1 0x0 SWAP2 SWAP1 DUP5 DUP3 ADD SWAP1 PUSH1 0x40 DUP6 ADD SWAP1 DUP5 JUMPDEST DUP2 DUP2 LT ISZERO PUSH2 0x100B JUMPI DUP4 MLOAD PUSH2 0xFFFF AND DUP4 MSTORE SWAP3 DUP5 ADD SWAP3 SWAP2 DUP5 ADD SWAP2 PUSH1 0x1 ADD PUSH2 0xFEB JUMP JUMPDEST POP SWAP1 SWAP7 SWAP6 POP POP POP POP POP POP JUMP JUMPDEST PUSH1 0x0 PUSH1 0x20 DUP3 DUP5 SUB SLT ISZERO PUSH2 0x1029 JUMPI PUSH1 0x0 DUP1 REVERT JUMPDEST POP CALLDATALOAD SWAP2 SWAP1 POP JUMP JUMPDEST DUP3 ISZERO ISZERO DUP2 MSTORE PUSH1 0x40 PUSH1 0x20 DUP3 ADD MSTORE PUSH1 0x0 PUSH2 0x104B PUSH1 0x40 DUP4 ADD DUP5 PUSH2 0xF14 JUMP JUMPDEST SWAP5 SWAP4 POP POP POP POP JUMP JUMPDEST PUSH1 0x0 PUSH1 0x20 DUP3 DUP5 SUB SLT ISZERO PUSH2 0x1065 JUMPI PUSH1 0x0 DUP1 REVERT JUMPDEST DUP2 CALLDATALOAD PUSH4 0xFFFFFFFF DUP2 AND DUP2 EQ PUSH2 0xF62 JUMPI PUSH1 0x0 DUP1 REVERT JUMPDEST PUSH1 0x0 PUSH1 0x20 DUP3 DUP5 SUB SLT ISZERO PUSH2 0x108B JUMPI PUSH1 0x0 DUP1 REVERT JUMPDEST PUSH2 0xF62 DUP3 PUSH2 0xF69 JUMP JUMPDEST PUSH4 0x4E487B71 PUSH1 0xE0 SHL PUSH1 0x0 MSTORE PUSH1 0x32 PUSH1 0x4 MSTORE PUSH1 0x24 PUSH1 0x0 REVERT JUMPDEST PUSH4 0x4E487B71 PUSH1 0xE0 SHL PUSH1 0x0 MSTORE PUSH1 0x11 PUSH1 0x4 MSTORE PUSH1 0x24 PUSH1 0x0 REVERT JUMPDEST PUSH1 0x0 PUSH1 0x1 DUP3 ADD PUSH2 0x10D2 JUMPI PUSH2 0x10D2 PUSH2 0x10AA JUMP JUMPDEST POP PUSH1 0x1 ADD SWAP1 JUMP JUMPDEST PUSH1 0x0 DUP3 DUP3 LT ISZERO PUSH2 0x10EB JUMPI PUSH2 0x10EB PUSH2 0x10AA JUMP JUMPDEST POP SUB SWAP1 JUMP JUMPDEST PUSH1 0x0 DUP3 PUSH2 0x110D JUMPI PUSH4 0x4E487B71 PUSH1 0xE0 SHL PUSH1 0x0 MSTORE PUSH1 0x12 PUSH1 0x4 MSTORE PUSH1 0x24 PUSH1 0x0 REVERT JUMPDEST POP MOD SWAP1 JUMP JUMPDEST PUSH1 0x0 DUP2 PUSH2 0x1121 JUMPI PUSH2 0x1121 PUSH2 0x10AA JUMP JUMPDEST POP PUSH1 0x0 NOT ADD SWAP1 JUMP JUMPDEST PUSH1 0x0 PUSH2 0xFFFF DUP1 DUP4 AND DUP2 DUP2 SUB PUSH2 0x1140 JUMPI PUSH2 0x1140 PUSH2 0x10AA JUMP JUMPDEST PUSH1 0x1 ADD SWAP4 SWAP3 POP POP POP JUMP JUMPDEST PUSH1 0x0 PUSH2 0xFFFF DUP4 DUP2 AND SWAP1 DUP4 AND DUP2 DUP2 LT ISZERO PUSH2 0x1165 JUMPI PUSH2 0x1165 PUSH2 0x10AA JUMP JUMPDEST SUB SWAP4 SWAP3 POP POP POP JUMP JUMPDEST PUSH1 0x0 PUSH1 0x20 DUP3 DUP5 SUB SLT ISZERO PUSH2 0x117F JUMPI PUSH1 0x0 DUP1 REVERT JUMPDEST POP MLOAD SWAP2 SWAP1 POP JUMP JUMPDEST DUP3 DUP2 MSTORE PUSH1 0x40 PUSH1 0x20 DUP3 ADD MSTORE PUSH1 0x0 PUSH2 0x104B PUSH1 0x40 DUP4 ADD DUP5 PUSH2 0xF14 JUMP JUMPDEST PUSH1 0x40 DUP2 MSTORE PUSH1 0x0 PUSH2 0x11C5 PUSH1 0x40 DUP4 ADD PUSH1 0x6 DUP2 MSTORE PUSH6 0x49534F544F5 PUSH1 0xD4 SHL PUSH1 0x20 DUP3 ADD MSTORE PUSH1 0x40 ADD SWAP1 JUMP JUMPDEST DUP3 DUP2 SUB PUSH1 0x20 SWAP4 DUP5 ADD MSTORE PUSH1 0xE DUP2 MSTORE PUSH14 0x14DD589CD8DC9A5C1D1A5BDB9251 PUSH1 0x92 SHL SWAP3 DUP2 ADD SWAP3 SWAP1 SWAP3 MSTORE POP PUSH1 0x40 ADD SWAP1 JUMP JUMPDEST PUSH1 0x0 JUMPDEST DUP4 DUP2 LT ISZERO PUSH2 0x120D JUMPI DUP2 DUP2 ADD MLOAD DUP4 DUP3 ADD MSTORE PUSH1 0x20 ADD PUSH2 0x11F5 JUMP JUMPDEST DUP4 DUP2 GT ISZERO PUSH2 0x121C JUMPI PUSH1 0x0 DUP5 DUP5 ADD MSTORE JUMPDEST POP POP POP POP JUMP JUMPDEST PUSH1 0x0 PUSH1 0x20 DUP3 DUP5 SUB SLT ISZERO PUSH2 0x1234 JUMPI PUSH1 0x0 DUP1 REVERT JUMPDEST DUP2 MLOAD PUSH8 0xFFFFFFFFFFFFFFFF DUP1 DUP3 GT ISZERO PUSH2 0x124C JUMPI PUSH1 0x0 DUP1 REVERT JUMPDEST DUP2 DUP5 ADD SWAP2 POP DUP5 PUSH1 0x1F DUP4 ADD SLT PUSH2 0x1260 JUMPI PUSH1 0x0 DUP1 REVERT JUMPDEST DUP2 MLOAD DUP2 DUP2 GT ISZERO PUSH2 0x1272 JUMPI PUSH2 0x1272 PUSH2 0xDF9 JUMP JUMPDEST PUSH2 0x1285 PUSH1 0x1F DUP3 ADD PUSH1 0x1F NOT AND PUSH1 0x20 ADD PUSH2 0xE0F JUMP JUMPDEST SWAP2 POP DUP1 DUP3 MSTORE DUP6 PUSH1 0x20 DUP3 DUP6 ADD ADD GT ISZERO PUSH2 0x129C JUMPI PUSH1 0x0 DUP1 REVERT JUMPDEST PUSH2 0x12AD DUP2 PUSH1 0x20 DUP5 ADD PUSH1 0x20 DUP7 ADD PUSH2 0x11F2 JUMP JUMPDEST POP SWAP5 SWAP4 POP POP POP POP JUMP JUMPDEST PUSH1 0x20 DUP2 MSTORE PUSH1 0x0 DUP3 MLOAD DUP1 PUSH1 0x20 DUP5 ADD MSTORE PUSH2 0x12D5 DUP2 PUSH1 0x40 DUP6 ADD PUSH1 0x20 DUP8 ADD PUSH2 0x11F2 JUMP JUMPDEST PUSH1 0x1F ADD PUSH1 0x1F NOT AND SWAP2 SWAP1 SWAP2 ADD PUSH1 0x40 ADD SWAP3 SWAP2 POP POP JUMP JUMPDEST PUSH1 0x40 DUP2 MSTORE PUSH1 0x0 PUSH2 0x130F PUSH1 0x40 DUP4 ADD PUSH1 0x6 DUP2 MSTORE PUSH6 0x49534F544F5 PUSH1 0xD4 SHL PUSH1 0x20 DUP3 ADD MSTORE PUSH1 0x40 ADD SWAP1 JUMP JUMPDEST DUP3 DUP2 SUB PUSH1 0x20 SWAP4 DUP5 ADD MSTORE PUSH1 0xC DUP2 MSTORE PUSH12 0x4B45595F484153485F574549 PUSH1 0xA0 SHL SWAP3 DUP2 ADD SWAP3 SWAP1 SWAP3 MSTORE POP PUSH1 0x40 ADD SWAP1 JUMP JUMPDEST DUP1 MLOAD PUSH1 0x20 DUP1 DUP4 ADD MLOAD SWAP2 SWAP1 DUP2 LT ISZERO PUSH2 0x135B JUMPI PUSH1 0x0 NOT DUP2 PUSH1 0x20 SUB PUSH1 0x3 SHL SHL DUP3 AND SWAP2 POP JUMPDEST POP SWAP2 SWAP1 POP JUMP INVALID LOG2 PUSH5 0x6970667358 0x22 SLT KECCAK256 0xE6 0xCA 0xC2 DIV PUSH1 0x2D RETURNDATACOPY 0xA6 0xAB GASLIMIT 0x2C ISZERO PUSH23 0x816F6D0C956F8CDC89249E42E8AF2AB276400064736F6C PUSH4 0x4300080D STOP CALLER ",
  "sha1": "7b029de3d7c92e7ad5492ab161e357d2d67ec40b",
  "source": "// SPDX-License-Identifier: MIT\n// An example of a consumer contract that relies on a subscription for funding.\npragma solidity ^0.8.7;\nimport \"@openzeppelin/contracts/access/Ownable.sol\";\nimport \"./chainlinkv0.8/VRFCoordinatorV2Interface.sol\";\nimport \"./chainlinkv0.8/VRFConsumerBaseV2.sol\";\n\nimport \"../IDDS.sol\";\n\nuint256 constant FOEVER = type(uint256).max;\n\ncontract VRFGenerator is VRFConsumerBaseV2, Ownable {\n    event RequestSent(uint256 requestId, uint32 numWords);\n    event RequestFulfilled(uint256 requestId, uint256[] randomWords);\n\n    struct RequestStatus {\n        bool fulfilled; // whether the request has been successfully fulfilled\n        bool exists; // whether a requestId exists\n        address owner; // the caller to make the request\n        uint256[] randomWords;\n    }\n    mapping(uint256 => RequestStatus) s_requests; /* requestId --> requestStatus */\n    VRFCoordinatorV2Interface COORDINATOR;\n\n    // past requests Id.\n    uint256[] public requestIds;\n    uint256 public lastRequestId;\n\n    // Depends on the number of requested values that you want sent to the\n    // fulfillRandomWords() function. Storing each word costs about 20,000 gas,\n    // so 100,000 is a safe default for this example contract. Test and adjust\n    // this limit based on the network that you select, the size of the request,\n    // and the processing of the callback request in the fulfillRandomWords()\n    // function.\n    uint32 callbackGasLimit = 100000;\n\n    // The default is 3, but you can set this higher.\n    uint16 requestConfirmations = 3;\n\n    mapping(address => uint256) operators;\n\n    modifier onlyOperator() {\n        require(\n            msg.sender == owner() ||\n                operators[msg.sender] == 0 ||\n                operators[msg.sender] > block.timestamp,\n            \"Operator Not Valid Or Expired\"\n        );\n        _;\n    }\n\n    /**\n     * COORDINATOR: Stored in DDS based on chain\n     */\n    constructor() VRFConsumerBaseV2(getCoordinator()) {\n        COORDINATOR = VRFCoordinatorV2Interface(getCoordinator());\n    }\n\n    function getCoordinator() internal view returns (address) {\n        IDDS dds = IDDS(BEE_DDS_ADDRESS);\n        return dds.toAddress(dds.get(\"ISOTOP\", \"COORDINATOR\"));\n    }\n\n    function getSubID() internal view returns (uint64) {\n        IDDS dds = IDDS(BEE_DDS_ADDRESS);\n        return uint64(dds.toInt(dds.get(\"ISOTOP\", \"SubscriptionID\")));\n    }\n\n    function getKeyHash() internal view returns (bytes32) {\n        IDDS dds = IDDS(BEE_DDS_ADDRESS);\n        return bytes32(dds.get(\"ISOTOP\", \"KEY_HASH_WEI\"));\n    }\n\n    function setOperator(address _to, uint256 expireDate) external onlyOwner {\n        operators[_to] = expireDate;\n    }\n\n    function reset() external onlyOwner {\n        selfdestruct(payable(owner()));\n    }\n\n    // Assumes the subscription is funded sufficiently.\n    function requestRandomWords(uint32 numWords)\n        external\n        onlyOperator\n        returns (uint256 requestId)\n    {\n        if (getSubID() == 0) return 0;\n\n        // Will revert if subscription is not set and funded.\n        requestId = COORDINATOR.requestRandomWords(\n            getKeyHash(),\n            getSubID(),\n            requestConfirmations,\n            callbackGasLimit,\n            numWords\n        );\n        s_requests[requestId] = RequestStatus({\n            randomWords: new uint256[](0),\n            exists: true,\n            owner: msg.sender,\n            fulfilled: false\n        });\n        requestIds.push(requestId);\n        lastRequestId = requestId;\n        emit RequestSent(requestId, numWords);\n        return requestId;\n    }\n\n    function fulfillRandomWords(\n        uint256 _requestId,\n        uint256[] memory _randomWords\n    ) internal override {\n        require(s_requests[_requestId].exists, \"request not found\");\n        s_requests[_requestId].fulfilled = true;\n        s_requests[_requestId].randomWords = _randomWords;\n        emit RequestFulfilled(_requestId, _randomWords);\n    }\n\n    function getRequestStatus(uint256 _requestId)\n        external\n        view\n        returns (bool fulfilled, uint256[] memory randomWords)\n    {\n        require(s_requests[_requestId].exists, \"request not found\");\n        require(s_requests[_requestId].owner == msg.sender, \"only owner\");\n        RequestStatus memory request = s_requests[_requestId];\n        return (request.fulfilled, request.randomWords);\n    }\n\n    function shuffle(uint256 size, uint256 entropy)\n        external\n        pure\n        returns (uint256[] memory)\n    {\n        uint256[] memory result = new uint256[](size);\n\n        // Initialize array.\n        for (uint256 i = 0; i < size; i++) {\n            result[i] = i;\n        }\n\n        // Set the initial randomness based on the provided entropy.\n        bytes32 random = keccak256(abi.encodePacked(entropy));\n\n        // Set the last item of the array which will be swapped.\n        uint256 last_item = size - 1;\n\n        // We need to do `size - 1` iterations to completely shuffle the array.\n        for (uint256 i = 1; i < size - 1; i++) {\n            // Select a number based on the randomness.\n            uint256 selected_item = uint256(random) % last_item;\n\n            // Swap items `selected_item <> last_item`.\n            uint256 aux = result[last_item];\n            result[last_item] = result[selected_item];\n            result[selected_item] = aux;\n\n            // Decrease the size of the possible shuffle\n            // to preserve the already shuffled items.\n            // The already shuffled items are at the end of the array.\n            last_item--;\n\n            // Generate new randomness.\n            random = keccak256(abi.encodePacked(random));\n        }\n\n        return result;\n    }\n\n    function shuffle16(uint16 size, uint256 entropy)\n        external\n        pure\n        returns (uint16[] memory)\n    {\n        uint16[] memory result = new uint16[](size);\n\n        // Initialize array.\n        for (uint16 i = 0; i < size; i++) {\n            result[i] = i;\n        }\n\n        // Set the initial randomness based on the provided entropy.\n        bytes32 random = keccak256(abi.encodePacked(entropy));\n\n        // Set the last item of the array which will be swapped.\n        uint256 last_item = size - 1;\n\n        // We need to do `size - 1` iterations to completely shuffle the array.\n        for (uint16 i = 1; i < size - 1; i++) {\n            // Select a number based on the randomness.\n            uint16 selected_item = uint16(uint256(random) % last_item);\n\n            // Swap items `selected_item <> last_item`.\n            uint16 aux = result[last_item];\n            result[last_item] = result[selected_item];\n            result[selected_item] = aux;\n\n            // Decrease the size of the possible shuffle\n            // to preserve the already shuffled items.\n            // The already shuffled items are at the end of the array.\n            last_item--;\n\n            // Generate new randomness.\n            random = keccak256(abi.encodePacked(random));\n        }\n\n        return result;\n    }\n}\n",
  "sourcePath": "contracts/VRF/VRFGenerator.sol",
  "type": "contract"
}