{
  "abi": [
    {
      "inputs": [],
      "name": "bill",
      "outputs": [],
      "stateMutability": "nonpayable",
      "type": "function"
    }
  ],
  "bytecode": "60806040818152600154633e10510b60e01b8352608491909152600660c45265049534f544f560d41b60e45260a4919091526010610104526f4245455f544741535f4144445245535360801b610124526001600160a01b0316632d88886981633e10510b610144600060405180830381865afa158015610083573d6000803e3d6000fd5b505050506040513d6000823e601f3d908101601f191682016040526100ab919081019061019e565b6040518263ffffffff1660e01b81526004016100c7919061024a565b602060405180830381865afa1580156100e4573d6000803e3d6000fd5b505050506040513d601f19601f82011682018060405250810190610108919061027d565b600080546001600160a01b03929092166001600160a01b03199283161790556001805490911673222d6d17f1f6967b81e40624fe6176b7be225bee17905534801561015257600080fd5b506102ad565b634e487b7160e01b600052604160045260246000fd5b60005b83811015610189578181015183820152602001610171565b83811115610198576000848401525b50505050565b6000602082840312156101b057600080fd5b81516001600160401b03808211156101c757600080fd5b818401915084601f8301126101db57600080fd5b8151818111156101ed576101ed610158565b604051601f8201601f19908116603f0116810190838211818310171561021557610215610158565b8160405282815287602084870101111561022e57600080fd5b61023f83602083016020880161016e565b979650505050505050565b602081526000825180602084015261026981604085016020870161016e565b601f01601f19169190910160400192915050565b60006020828403121561028f57600080fd5b81516001600160a01b03811681146102a657600080fd5b9392505050565b610370806102bc6000396000f3fe608060405234801561001057600080fd5b506004361061002b5760003560e01c8063371e677a14610030575b600080fd5b61003861003a565b005b60015460408051633e10510b60e01b815260048101919091526006604482015265049534f544f560d41b60648201526080602482015260036084820152622b292360e91b60a48201526000916001600160a01b03169063187560ca908290633e10510b9060c401600060405180830381865afa1580156100be573d6000803e3d6000fd5b505050506040513d6000823e601f3d908101601f191682016040526100e69190810190610241565b6040518263ffffffff1660e01b815260040161010291906102ee565b602060405180830381865afa15801561011f573d6000803e3d6000fd5b505050506040513d601f19601f820116820180604052508101906101439190610321565b60005460405163556cf47d60e01b8152737b0dc23e87febf1d053e7df9af4cce30f21fae9c6004820152738ce68c53ec6c8a55a32dd6c84c9207bfbd901eab60248201526044810183905260806064820152600b60848201526a159491881c995c5d595cdd60aa1b60a48201529192506001600160a01b03169063556cf47d9060c401600060405180830381600087803b1580156101e057600080fd5b505af11580156101f4573d6000803e3d6000fd5b5050505050565b634e487b7160e01b600052604160045260246000fd5b60005b8381101561022c578181015183820152602001610214565b8381111561023b576000848401525b50505050565b60006020828403121561025357600080fd5b815167ffffffffffffffff8082111561026b57600080fd5b818401915084601f83011261027f57600080fd5b815181811115610291576102916101fb565b604051601f8201601f19908116603f011681019083821181831017156102b9576102b96101fb565b816040528281528760208487010111156102d257600080fd5b6102e3836020830160208801610211565b979650505050505050565b602081526000825180602084015261030d816040850160208701610211565b601f01601f19169190910160400192915050565b60006020828403121561033357600080fd5b505191905056fea26469706673582212205bce4736bd3384704df53b9a6f40155dfe98d82c4c3d085e73c50fc380fe98da64736f6c634300080d0033",
  "bytecodeSha1": "182db8a07a83c04fb26d291ddf0fced4ee87872f",
  "compiler": {
    "evm_version": "istanbul",
    "optimizer": {
      "enabled": true,
      "runs": 200
    },
    "version": "0.8.13+commit.abaa5c0e"
  },
  "contractName": "VRFTGas",
  "language": "Solidity",
  "natspec": {
    "kind": "dev",
    "methods": {},
    "version": 1
  },
  "opcodes": "PUSH1 0x80 PUSH1 0x40 MSTORE CALLVALUE DUP1 ISZERO PUSH2 0x10 JUMPI PUSH1 0x0 DUP1 REVERT JUMPDEST POP PUSH1 0x4 CALLDATASIZE LT PUSH2 0x2B JUMPI PUSH1 0x0 CALLDATALOAD PUSH1 0xE0 SHR DUP1 PUSH4 0x371E677A EQ PUSH2 0x30 JUMPI JUMPDEST PUSH1 0x0 DUP1 REVERT JUMPDEST PUSH2 0x38 PUSH2 0x3A JUMP JUMPDEST STOP JUMPDEST PUSH1 0x1 SLOAD PUSH1 0x40 DUP1 MLOAD PUSH4 0x3E10510B PUSH1 0xE0 SHL DUP2 MSTORE PUSH1 0x4 DUP2 ADD SWAP2 SWAP1 SWAP2 MSTORE PUSH1 0x6 PUSH1 0x44 DUP3 ADD MSTORE PUSH6 0x49534F544F5 PUSH1 0xD4 SHL PUSH1 0x64 DUP3 ADD MSTORE PUSH1 0x80 PUSH1 0x24 DUP3 ADD MSTORE PUSH1 0x3 PUSH1 0x84 DUP3 ADD MSTORE PUSH3 0x2B2923 PUSH1 0xE9 SHL PUSH1 0xA4 DUP3 ADD MSTORE PUSH1 0x0 SWAP2 PUSH1 0x1 PUSH1 0x1 PUSH1 0xA0 SHL SUB AND SWAP1 PUSH4 0x187560CA SWAP1 DUP3 SWAP1 PUSH4 0x3E10510B SWAP1 PUSH1 0xC4 ADD PUSH1 0x0 PUSH1 0x40 MLOAD DUP1 DUP4 SUB DUP2 DUP7 GAS STATICCALL ISZERO DUP1 ISZERO PUSH2 0xBE JUMPI RETURNDATASIZE PUSH1 0x0 DUP1 RETURNDATACOPY RETURNDATASIZE PUSH1 0x0 REVERT JUMPDEST POP POP POP POP PUSH1 0x40 MLOAD RETURNDATASIZE PUSH1 0x0 DUP3 RETURNDATACOPY PUSH1 0x1F RETURNDATASIZE SWAP1 DUP2 ADD PUSH1 0x1F NOT AND DUP3 ADD PUSH1 0x40 MSTORE PUSH2 0xE6 SWAP2 SWAP1 DUP2 ADD SWAP1 PUSH2 0x241 JUMP JUMPDEST PUSH1 0x40 MLOAD DUP3 PUSH4 0xFFFFFFFF AND PUSH1 0xE0 SHL DUP2 MSTORE PUSH1 0x4 ADD PUSH2 0x102 SWAP2 SWAP1 PUSH2 0x2EE JUMP JUMPDEST PUSH1 0x20 PUSH1 0x40 MLOAD DUP1 DUP4 SUB DUP2 DUP7 GAS STATICCALL ISZERO DUP1 ISZERO PUSH2 0x11F JUMPI RETURNDATASIZE PUSH1 0x0 DUP1 RETURNDATACOPY RETURNDATASIZE PUSH1 0x0 REVERT JUMPDEST POP POP POP POP PUSH1 0x40 MLOAD RETURNDATASIZE PUSH1 0x1F NOT PUSH1 0x1F DUP3 ADD AND DUP3 ADD DUP1 PUSH1 0x40 MSTORE POP DUP2 ADD SWAP1 PUSH2 0x143 SWAP2 SWAP1 PUSH2 0x321 JUMP JUMPDEST PUSH1 0x0 SLOAD PUSH1 0x40 MLOAD PUSH4 0x556CF47D PUSH1 0xE0 SHL DUP2 MSTORE PUSH20 0x7B0DC23E87FEBF1D053E7DF9AF4CCE30F21FAE9C PUSH1 0x4 DUP3 ADD MSTORE PUSH20 0x8CE68C53EC6C8A55A32DD6C84C9207BFBD901EAB PUSH1 0x24 DUP3 ADD MSTORE PUSH1 0x44 DUP2 ADD DUP4 SWAP1 MSTORE PUSH1 0x80 PUSH1 0x64 DUP3 ADD MSTORE PUSH1 0xB PUSH1 0x84 DUP3 ADD MSTORE PUSH11 0x159491881C995C5D595CDD PUSH1 0xAA SHL PUSH1 0xA4 DUP3 ADD MSTORE SWAP2 SWAP3 POP PUSH1 0x1 PUSH1 0x1 PUSH1 0xA0 SHL SUB AND SWAP1 PUSH4 0x556CF47D SWAP1 PUSH1 0xC4 ADD PUSH1 0x0 PUSH1 0x40 MLOAD DUP1 DUP4 SUB DUP2 PUSH1 0x0 DUP8 DUP1 EXTCODESIZE ISZERO DUP1 ISZERO PUSH2 0x1E0 JUMPI PUSH1 0x0 DUP1 REVERT JUMPDEST POP GAS CALL ISZERO DUP1 ISZERO PUSH2 0x1F4 JUMPI RETURNDATASIZE PUSH1 0x0 DUP1 RETURNDATACOPY RETURNDATASIZE PUSH1 0x0 REVERT JUMPDEST POP POP POP POP POP JUMP JUMPDEST PUSH4 0x4E487B71 PUSH1 0xE0 SHL PUSH1 0x0 MSTORE PUSH1 0x41 PUSH1 0x4 MSTORE PUSH1 0x24 PUSH1 0x0 REVERT JUMPDEST PUSH1 0x0 JUMPDEST DUP4 DUP2 LT ISZERO PUSH2 0x22C JUMPI DUP2 DUP2 ADD MLOAD DUP4 DUP3 ADD MSTORE PUSH1 0x20 ADD PUSH2 0x214 JUMP JUMPDEST DUP4 DUP2 GT ISZERO PUSH2 0x23B JUMPI PUSH1 0x0 DUP5 DUP5 ADD MSTORE JUMPDEST POP POP POP POP JUMP JUMPDEST PUSH1 0x0 PUSH1 0x20 DUP3 DUP5 SUB SLT ISZERO PUSH2 0x253 JUMPI PUSH1 0x0 DUP1 REVERT JUMPDEST DUP2 MLOAD PUSH8 0xFFFFFFFFFFFFFFFF DUP1 DUP3 GT ISZERO PUSH2 0x26B JUMPI PUSH1 0x0 DUP1 REVERT JUMPDEST DUP2 DUP5 ADD SWAP2 POP DUP5 PUSH1 0x1F DUP4 ADD SLT PUSH2 0x27F JUMPI PUSH1 0x0 DUP1 REVERT JUMPDEST DUP2 MLOAD DUP2 DUP2 GT ISZERO PUSH2 0x291 JUMPI PUSH2 0x291 PUSH2 0x1FB JUMP JUMPDEST PUSH1 0x40 MLOAD PUSH1 0x1F DUP3 ADD PUSH1 0x1F NOT SWAP1 DUP2 AND PUSH1 0x3F ADD AND DUP2 ADD SWAP1 DUP4 DUP3 GT DUP2 DUP4 LT OR ISZERO PUSH2 0x2B9 JUMPI PUSH2 0x2B9 PUSH2 0x1FB JUMP JUMPDEST DUP2 PUSH1 0x40 MSTORE DUP3 DUP2 MSTORE DUP8 PUSH1 0x20 DUP5 DUP8 ADD ADD GT ISZERO PUSH2 0x2D2 JUMPI PUSH1 0x0 DUP1 REVERT JUMPDEST PUSH2 0x2E3 DUP4 PUSH1 0x20 DUP4 ADD PUSH1 0x20 DUP9 ADD PUSH2 0x211 JUMP JUMPDEST SWAP8 SWAP7 POP POP POP POP POP POP POP JUMP JUMPDEST PUSH1 0x20 DUP2 MSTORE PUSH1 0x0 DUP3 MLOAD DUP1 PUSH1 0x20 DUP5 ADD MSTORE PUSH2 0x30D DUP2 PUSH1 0x40 DUP6 ADD PUSH1 0x20 DUP8 ADD PUSH2 0x211 JUMP JUMPDEST PUSH1 0x1F ADD PUSH1 0x1F NOT AND SWAP2 SWAP1 SWAP2 ADD PUSH1 0x40 ADD SWAP3 SWAP2 POP POP JUMP JUMPDEST PUSH1 0x0 PUSH1 0x20 DUP3 DUP5 SUB SLT ISZERO PUSH2 0x333 JUMPI PUSH1 0x0 DUP1 REVERT JUMPDEST POP MLOAD SWAP2 SWAP1 POP JUMP INVALID LOG2 PUSH5 0x6970667358 0x22 SLT KECCAK256 JUMPDEST 0xCE SELFBALANCE CALLDATASIZE 0xBD CALLER DUP5 PUSH17 0x4DF53B9A6F40155DFE98D82C4C3D085E73 0xC5 0xF 0xC3 DUP1 INVALID SWAP9 0xDA PUSH5 0x736F6C6343 STOP ADDMOD 0xD STOP CALLER ",
  "sha1": "b9e89e832a31fcd6263baf7aef4881f5982e842f",
  "source": "// SPDX-License-Identifier: MIT\npragma solidity ^0.8.13;\n\nimport \"./ITGas.sol\";\nimport \"./VRFTGasInterface.sol\";\nimport \"./IDDS.sol\";\n\n// angency address = admin\naddress constant BEE_ISOTOP_ADDRESS = 0x7B0dc23E87febF1D053E7Df9aF4cce30F21fAe9C;\n// contributor address = iwan\naddress constant BEE_IWAN_ADDRESS = 0x8Ce68C53Ec6C8A55A32dD6c84c9207BFbd901eaB;\n\ncontract VRFTGas is VRFTGasInterface {\n    ITGas gas = ITGas(dds.toAddress(dds.get(\"ISOTOP\", \"BEE_TGAS_ADDRESS\")));\n    IDDS dds = IDDS(BEE_DDS_ADDRESS);\n\n    function bill() external {\n        uint256 _price = dds.toInt(dds.get(\"ISOTOP\", \"VRF\"));\n        gas.bill(BEE_ISOTOP_ADDRESS, BEE_IWAN_ADDRESS, _price, \"VRF request\");\n    }\n}\n",
  "sourcePath": "contracts/VRFTGas.sol",
  "type": "contract"
}